:04000000FAEF0AF019
:100008005182E9CF66F0EACF67F0E1CF68F0E2CF3E
:1000180069F0D9CF6AF0DACF6BF0F3CF6CF0F4CF98
:100028006DF0F6CF6EF0F7CF6FF0F8CF70F0F5CF38
:1000380071F0F2A422EF00F024EF00F032EF00F0AC
:10004800000E01015425546F000E5521556F010E05
:100058005621566F000E5721576FF294F2A637EFCC
:1000680000F039EF00F0E0EF0AF0F2A03EEF00F008
:1000780040EF00F0E0EF0AF081A845EF00F048EF0C
:1000880000F0010E49EF00F0000E0101846FE7C097
:1000980050F1E8C051F1E9C052F1EAC053F1D6502D
:1000A800D7CF60F00001616B626B636B62C063F075
:1000B80061C062F060C061F0606B6025E76F000EA0
:1000C8006121E86F000E6221E96F000E6321EA6F7B
:1000D800010154510001E725E76F01015551000165
:1000E800E821E86F010156510001E921E96F01019A
:1000F80057510001EA21EA6F000E0101546F000E0A
:10010800556F000E566F000E576FD76AD66A464A6B
:10011800472A030E0001EB19D8A495EF00F097EFDA
:1001280000F0C3EF00F0EA51E9110BE12D0EE75D95
:10013800010EE859D8A0A3EF00F0A5EF00F0B3EF47
:1001480000F0360E3F6EFF0E406EE7C041F0E8C08B
:1001580042F0E9C043F0EAC044F076EC48F0140EEF
:1001680046184710D8A4BBEF00F0BDEF00F0DFEF52
:100178000AF00001EB6BDFEF0AF0DFEF0AF0040E84
:10018800EB19D8A4CAEF00F0CCEF00F005EF01F0AE
:10019800475007E1C80E465CD8B0D5EF00F0D7EF5E
:1001A80000F0F8EF00F0820E606F050E616FD890D6
:1001B8004634D96E4734DA6ED890D936DA3660517B
:1001C800D9266151DA22E7C0DEFFE8C0DEFFE9C0C8
:1001D800DEFFEAC0DEFF000E4624D96E020E47207D
:1001E800DA6EDF6ADFEF0AF0EB6B000E0101616F78
:1001F800C80E606F2FEC49F0010E0101856FDFEF2B
:100208000AF001018951D8A40CEF01F00EEF01F0BA
:1002180074EF01F04950D8A414EF01F016EF01F083
:1002280074EF01F00001EA51E9110BE1650EE75D99
:10023800190EE859D8A023EF01F025EF01F074EF6B
:1002480001F0EA51E91109E1BC0EE75D1B0EE8591E
:10025800D8B031EF01F033EF01F074EF01F0000E88
:10026800476E010E466E820E606F050E616FD89064
:100278004634D96E4734DA6ED890D936DA366051BA
:10028800D9266151DA22E7C0DEFFE8C0DEFFE9C007
:10029800DEFFEAC0DEFF000E4624D96E020E4720BC
:1002A800DA6EDF6A020EEB19D8A45DEF01F05FEF9A
:1002B80001F065EF01F0630E3F6EFC0E406E76ECC8
:1002C80048F0050E4B6E20EEDBF0070EDE6AE806FE
:1002D800FDE2010E0101896F8A6B496ADFEF0AF0BE
:1002E800050E4B18D8A47BEF01F07DEF01F0E2EF8B
:1002F80001F001018951D8B484EF01F086EF01F0D3
:10030800E2EF01F00001EA51E9110BE1AF0EE75D00
:100318000B0EE859D8A093EF01F095EF01F0E2EF4A
:1003280001F0EA51E91109E1DA0EE75D0C0EE8592E
:10033800D8B0A1EF01F0A3EF01F0E2EF01F02D0E2C
:1003480046184710D8B4ABEF01F0ADEF01F0B1EFAC
:1003580001F02FEC49F0DFEF0AF0000E476E000EB7
:10036800466E820E606F050E616FD8904634D96E66
:100378004734DA6ED890D936DA366051D9266151C9
:10038800DA22E7C0DEFFE8C0DEFFE9C0DEFFEAC030
:10039800DEFF000E4624D96E020E4720DA6EDF6AB1
:1003A80001018A6B050E4B6E010E496E20EEDBF0E3
:1003B800070EDE6AE806FDE2DFEF0AF00101895167
:1003C800D8A4E9EF01F0EBEF01F039EF02F0495062
:1003D800D8A4F1EF01F0F3EF01F039EF02F00001DA
:1003E800EA510DE1C30EE75D0E0EE859020EE95918
:1003F800D8A001EF02F003EF02F039EF02F0EA5162
:100408000BE10E0EE75D130EE859020EE959D8B05C
:1004180010EF02F012EF02F039EF02F0000E476E13
:10042800010E466E820E606F050E616FD8904634DD
:10043800D96E4734DA6ED890D936DA366051D92673
:100448006151DA22E7C0DEFFE8C0DEFFE9C0DEFF67
:10045800EAC0DEFF000E4624D96E020E4720DA6E8F
:10046800DF6A030E4B6E67EF01F0030E4B18D8A43A
:1004780040EF02F042EF02F093EF02F001018951E0
:10048800D8B449EF02F04BEF02F093EF02F000010D
:10049800EA51E9110BE15B0EE75D1E0EE859D8A0A1
:1004A80058EF02F05AEF02F093EF02F0EA51E91127
:1004B80009E14E0EE75D200EE859D8B066EF02F06C
:1004C80068EF02F093EF02F0000E476E000E466EE2
:1004D800820E606F050E616FD8904634D96E47342E
:1004E800DA6ED890D936DA366051D9266151DA22D7
:1004F800E7C0DEFFE8C0DEFFE9C0DEFFEAC0DEFFDE
:10050800000E4624D96E020E4720DA6EDF6A030E0B
:100518004B6E01018A6B010E496EDAEF01F049500A
:10052800D8A499EF02F09BEF02F0E8EF02F0000187
:10053800EA51E9110BE1790EE75D920EE859D8A06E
:10054800A8EF02F0AAEF02F0E8EF02F0EA51E91191
:1005580009E1A80EE75D940EE859D8B0B6EF02F0AD
:10056800B8EF02F0E8EF02F0000E476E010E466E9B
:10057800010E01018A6FE7C066F1E8C067F1020E5B
:100588000001EB19D8A4CBEF02F0CDEF02F0DBEFBE
:1005980002F0DA0E3F6EFD0E406EE7C041F0E8C093
:1005A80042F0E9C043F0EAC044F076EC48F0010EAE
:1005B8004B6E20EEDBF0070EDE6AE806FDE2010E68
:1005C8000101896FDFEF0AF04950D8A4EEEF02F07D
:1005D800F0EF02F046EF03F00001EA51E9110BE1F8
:1005E800330EE75D730EE859D8A0FDEF02F0FFEF78
:1005F80002F046EF03F0EA51E91109E1C20EE75DA6
:10060800740EE859D8B00BEF03F00DEF03F046EF86
:1006180003F0000E476E010E466E020E4B6E820E00
:10062800606F050E616FD8904634D96E4734DA6E24
:10063800D890D936DA366051D9266151DA22E7C026
:10064800DEFFE8C0DEFFE9C0DEFFEAC0DEFF020E23
:10065800EB19D8A432EF03F034EF03F03AEF03F0CC
:10066800A60E3F6EFF0E406E76EC48F0010E496E06
:1006780020EEDBF0070EDE6AE806FDE20101896B79
:10068800DFEF0AF00101535152110AE15005130E30
:100698005159D8A052EF03F054EF03F0D6EF03F00E
:1006A8005351521109E1B80E505D140E5159D8B08A
:1006B80060EF03F062EF03F0D6EF03F08451D8B493
:1006C80068EF03F06AEF03F0D6EF03F04950D8A4BF
:1006D80070EF03F072EF03F0D6EF03F00001EA5178
:1006E800E9110BE1A50EE75D240EE859D8A07FEFCC
:1006F80003F081EF03F0D6EF03F0EA51E91109E1C5
:100708005C0EE75D260EE859D8B08DEF03F08FEF49
:1007180003F0D6EF03F0000E476E010E466E010E91
:100728000101836F040E4B6E020E0001EB19D8A471
:10073800A0EF03F0A2EF03F0B0EF03F05A0E3F6E04
:10074800FE0E406EE7C041F0E8C042F0E9C043F059
:10075800EAC044F076EC48F0820E0001606F050EA6
:10076800616FD8904634D96E4734DA6ED890D9364E
:10077800DA366051D9266151DA22E7C0DEFFE8C0D7
:10078800DEFFE9C0DEFFEAC0DEFF000E0101636F95
:10079800000E626F000E5F6F000E5E6F010E496EF5
:1007A800DAEF01F0040E4B18D8B4DDEF03F0E0EFF8
:1007B80003F0010EE1EF03F0000E0001606F616BC2
:1007C80049506017000E611760516111D8B4EFEFFE
:1007D80003F0F1EF03F01BEF05F0475007E1960E29
:1007E800465CD8B0FAEF03F0FCEF03F01BEF04F01F
:1007F800820E606F050E616FD8904634D96E47340B
:10080800DA6ED890D936DA366051D9266151DA22B3
:10081800E7C0DEFFE8C0DEFFE9C0DEFFEAC0DEFFBA
:10082800000E4624D96E020E4720DA6EDF6AEA51BE
:10083800E9110BE15B0EE75D090EE859D8A027EF37
:1008480004F029EF04F08EEF04F0EA51E91109E110
:10085800120EE75D0B0EE859D8B035EF04F037EF0C
:1008680004F08EEF04F0000E01015F6F000E5E6F62
:100878008451D8B442EF04F044EF04F05AEF04F086
:10088800624B632BD8900001DB35DB6FDC35DC6F06
:10089800DD35DD6FDE35DE6FDF35DF6FE035E06FCC
:1008A800E135E16FE235E26F7FEF04F0624B632BD5
:1008B800D8900001DB35DB6FDC35DC6FDD35DD6FB3
:1008C800DE35DE6FDF35DF6FE035E06FE135E16F94
:1008D800E235E26F010EDB11DB6FDC51DC6FDD51BD
:1008E800DD6FDE51DE6FDF51DF6FE051E06FE15108
:1008F800E16FE251E26F380E010162196311D8A469
:1009080088EF04F08AEF04F0DFEF0AF032EC48F0E9
:10091800DFEF0AF0EA51E9110BE14A0EE75D040E38
:10092800E859D8A09AEF04F09CEF04F00BEF05F01B
:10093800EA51E91108E1E705060EE859D8B0A7EF32
:1009480004F0A9EF04F00BEF05F001015E4B5F2BFB
:100958005E055F11D8A4B3EF04F0B5EF04F0B7EF6C
:1009680004F0DFEF0AF0000E5F6F000E5E6F845137
:10097800D8A4C1EF04F0C3EF04F0EAEF04F0624B2F
:10098800632BD8900001DB35DB6FDC35DC6FDD35A0
:10099800DD6FDE35DE6FDF35DF6FE035E06FE135C7
:1009A800E16FE235E26F010EDB11DB6FDC51DC6FCA
:1009B800DD51DD6FDE51DE6FDF51DF6FE051E06F3B
:1009C800E151E16FE251E26FFEEF04F0624B632BFD
:1009D800D8900001DB35DB6FDC35DC6FDD35DD6F92
:1009E800DE35DE6FDF35DF6FE035E06FE135E16F73
:1009F800E235E26F380E010162196311D8A407EFDE
:100A080005F009EF05F0DFEF0AF08AEF04F0EB05D7
:100A1800D8A411EF05F013EF05F0ADEF01F0FA0ED1
:100A28003F6EFF0E406E76EC48F0ADEF01F0495096
:100A3800D8B421EF05F023EF05F04AEF06F0030ED6
:100A48004B18D8A42AEF05F02CEF05F04AEF06F072
:100A5800EA51E9110BE11F0EE75D050EE859D8A030
:100A680038EF05F03AEF05F0B6EF05F0EA51E91175
:100A780009E1120EE75D070EE859D8B046EF05F018
:100A880048EF05F0B6EF05F0D890DB35DB6FDC35C5
:100A9800DC6FDD35DD6FDE35DE6FDF35DF6FE035CE
:100AA800E06FE135E16FE235E26F010EDB11DB6FDC
:100AB800DC51DC6FDD51DD6FDE51DE6FDF51DF6F42
:100AC800E051E06FE151E16FE251E26F475007E119
:100AD800C80E465CD8B073EF05F075EF05F094EFDB
:100AE80005F0820E606F050E616FD8904634D96E9E
:100AF8004734DA6ED890D936DA366051D926615142
:100B0800DA22E7C0DEFFE8C0DEFFE9C0DEFFEAC0A8
:100B1800DEFF000E4624D96E020E4720DA6EDF6A29
:100B2800475009E1400E465CD8A09DEF05F09FEFC5
:100B380005F0DFEF0AF0D4EC48F0DFEF0AF0010E21
:100B4800DB11DB6FDC51DC6FDD51DD6FDE51DE6FF9
:100B5800DF51DF6FE051E06FE151E16FE251E26F89
:100B6800DFEF0AF0EA51E9110BE15F0EE75D020ED3
:100B7800E859D8A0C2EF05F0C4EF05F02EEF06F053
:100B8800EA51E91109E1520EE75D040EE859D8B0BF
:100B9800D0EF05F0D2EF05F02EEF06F0D890DB3558
:100BA800DB6FDC35DC6FDD35DD6FDE35DE6FDF35C5
:100BB800DF6FE035E06FE135E16FE235E26F475016
:100BC80007E1C80E465CD8B0ECEF05F0EEEF05F093
:100BD8000DEF06F0820E606F050E616FD8904634F7
:100BE800D96E4734DA6ED890D936DA366051D926BC
:100BF8006151DA22E7C0DEFFE8C0DEFFE9C0DEFFB0
:100C0800EAC0DEFF000E4624D96E020E4720DA6ED7
:100C1800DF6A475009E1400E465CD8A016EF06F09F
:100C280018EF06F0DFEF0AF09FEF05F0D89000010B
:100C3800DB35DB6FDC35DC6FDD35DD6FDE35DE6F38
:100C4800DF35DF6FE035E06FE135E16FE235E26F08
:100C5800DFEF0AF0710E3F6EFF0E406EE7C041F005
:100C6800E8C042F0E9C043F0EAC044F076EC48F04E
:100C7800000E4624D96E020E4720DA6E030EDF6E90
:100C880046C060F147C061F1ADEF01F04950D8B4FA
:100C980050EF06F052EF06F04EEF07F0050E4B1836
:100CA800D8A459EF06F05BEF06F04EEF07F0495075
:100CB800D8B461EF06F063EF06F04EEF07F0EA51A3
:100CC800E9110BE18D0EE75D050EE859D8A06FEF2D
:100CD80006F071EF06F0D9EF06F0EA51E91109E1E3
:100CE800B80EE75D060EE859D8B07DEF06F07FEF45
:100CF80006F0D9EF06F0D890DB35DB6FDC35DC6F1A
:100D0800DD35DD6FDE35DE6FDF35DF6FE035E06F57
:100D1800E135E16FE235E26F010EDB11DB6FDC518B
:100D2800DC6FDD51DD6FDE51DE6FDF51DF6FE051CB
:100D3800E06FE151E16FE251E26F475007E1960E33
:100D4800465CD8B0AAEF06F0ACEF06F0CBEF06F0A1
:100D5800820E606F050E616FD8904634D96E4734A5
:100D6800DA6ED890D936DA366051D9266151DA224E
:100D7800E7C0DEFFE8C0DEFFE9C0DEFFEAC0DEFF55
:100D8800000E4624D96E020E4720DA6EDF6A380E4E
:100D980046184710D8A4D3EF06F0D5EF06F0DFEFDA
:100DA8000AF040EC48F0DFEF0AF0EA51E9110BE1F4
:100DB800810EE75D020EE859D8A0E5EF06F0E7EFEF
:100DC80006F03CEF07F0EA51E91109E1AC0EE75DE6
:100DD800030EE859D8B0F3EF06F0F5EF06F03CEF54
:100DE80007F0D890DB35DB6FDC35DC6FDD35DD6F88
:100DF800DE35DE6FDF35DF6FE035E06FE135E16F5F
:100E0800E235E26F475007E1960E465CD8B00FEF27
:100E180007F011EF07F030EF07F0820E606F050E54
:100E2800616FD8904634D96E4734DA6ED890D93687
:100E3800DA366051D9266151DA22E7C0DEFFE8C010
:100E4800DEFFE9C0DEFFEAC0DEFF000E4624D96EF1
:100E5800020E4720DA6EDF6A380E46184710D8A40B
:100E680038EF07F03AEF07F0DFEF0AF0D5EF06F0BA
:100E78002FEC49F046C060F147C061F1EE0E3F6EBD
:100E8800FE0E406E46C041F047C042F076EC48F096
:100E9800DFEF0AF0020E4B18D8A455EF07F057EF12
:100EA80007F053EF08F04950D8B45DEF07F05FEF53
:100EB80007F053EF08F0EA51E9110BE1570EE75D2F
:100EC800040EE859D8A06BEF07F06DEF07F0D5EFE7
:100ED80007F0EA51E91109E1AA0EE75D050EE859A4
:100EE800D8B079EF07F07BEF07F0D5EF07F0D8908F
:100EF800DB35DB6FDC35DC6FDD35DD6FDE35DE6F76
:100F0800DF35DF6FE035E06FE135E16FE235E26F45
:100F1800010EDB11DB6FDC51DC6FDD51DD6FDE5163
:100F2800DE6FDF51DF6FE051E06FE151E16FE251B9
:100F3800E26F475007E1960E465CD8B0A6EF07F07F
:100F4800A8EF07F0C7EF07F0820E606F050E616F1C
:100F5800D8904634D96E4734DA6ED890D936DA3616
:100F68006051D9266151DA22E7C0DEFFE8C0DEFF12
:100F7800E9C0DEFFEAC0DEFF000E4624D96E020E8D
:100F88004720DA6EDF6A1A0E46184710D8A4CFEF4A
:100F980007F0D1EF07F0DFEF0AF04EEC48F0DFEF93
:100FA8000AF0EA51E9110BE1D70EE75D010EE859A5
:100FB800D8A0E1EF07F0E3EF07F038EF08F0EA51C7
:100FC800E91109E12A0EE75D030EE859D8B0EFEF01
:100FD80007F0F1EF07F038EF08F0D890DB35DB6F5A
:100FE800DC35DC6FDD35DD6FDE35DE6FDF35DF6F7D
:100FF800E035E06FE135E16FE235E26F475007E138
:10100800960E465CD8B00BEF08F00DEF08F02CEF09
:1010180008F0820E606F050E616FD8904634D96E65
:101028004734DA6ED890D936DA366051D92661510C
:10103800DA22E7C0DEFFE8C0DEFFE9C0DEFFEAC073
:10104800DEFF000E4624D96E020E4720DA6EDF6AF4
:101058001A0E46184710D8A434EF08F036EF08F0F7
:10106800DFEF0AF0D1EF07F02FEC49F046C060F14E
:1010780047C061F10001EB05D8A445EF08F047EF40
:1010880008F0DFEF0AF0E60E3F6EFE0E406E46C037
:1010980041F047C042F076EC48F0DFEF0AF04B042D
:1010A800D8A459EF08F05BEF08F0DFEF0AF0EA5137
:1010B800E9110BE18C0EE75D0A0EE859D8A067EF3D
:1010C80008F069EF08F09FEF09F0EA51E91109E12A
:1010D800BB0EE75D0C0EE859D8B075EF08F077EF56
:1010E80008F09FEF09F06C0E46184710D8A47FEF60
:1010F80008F081EF08F0B1EF08F001018A6B896B05
:10110800820E0001606F050E616FD8904634D96E6B
:101118004734DA6ED890D936DA366051D92661511B
:10112800DA22E7C0DEFFE8C0DEFFE9C0DEFFEAC082
:10113800DEFF000E4624D96E020E4720DA6EDF6A03
:1011480046C060F147C061F1496A01018A6B866B4C
:10115800896B010E8B6FDFEF0AF0020E46184710FD
:10116800D8B4B9EF08F0BBEF08F0C5EF08F0030EEC
:1011780046184710D8A4C3EF08F0C5EF08F059EF98
:1011880009F0020E46184710D8A4CDEF08F0CFEFAB
:1011980008F0D5EF08F0E7C064F1E8C065F1DFEFCB
:1011A8000AF0030E46184710D8A4DDEF08F0DFEF69
:1011B80008F059EF09F0010166510001606F010163
:1011C80067510001616F626B636B7A0E646F050E85
:1011D800656FD8904634D96E4734DA6ED890D936D0
:1011E800DA366451D9266551DA2260C0DEFF61C063
:1011F800DEFF62C0DEFF63C0DEFFFE0E4624D96E4E
:10120800010E4720DA6EDF6A010164510001606F48
:10121800010165510001616F626B636B7E0E646F43
:10122800050E656FD8904634D96E4734DA6ED8907B
:10123800D936DA366451D9266551DA2260C0DEFF24
:1012480061C0DEFF62C0DEFF63C0DEFFFF0E462422
:10125800D96E010E4720DA6EDF6A820E606F050EC6
:10126800616FD8904634D96E4734DA6ED890D93643
:10127800DA366051D9266151DA22E7C0DEFFE8C0CC
:10128800DEFFE9C0DEFFEAC0DEFF000E4624D96EAD
:10129800020E4720DA6EDF6A010E0101866F000E2A
:1012A800636F000E626F42EF03F0475007E16C0E68
:1012B800465CD8B062EF09F064EF09F084EF09F0FA
:1012C800820E606F050E616FD8904634D96E473430
:1012D800DA6ED890D936DA366051D9266151DA22D9
:1012E800E7C0DEFFE8C0DEFFE9C0DEFFEAC0DEFFE0
:1012F800000E4624D96E020E4720DA6E010EDF6E0C
:101308002FEC49F046C060F147C061F10001EB05E0
:10131800D8A491EF09F093EF09F0DFEF0AF05D0E22
:101328003F6EFF0E406E46C041F047C042F076EC7B
:1013380048F0DFEF0AF001018651D8B4A6EF09F0B2
:10134800A8EF09F0DFEF0AF00001EA51E9110BE11B
:10135800930EE75D060EE859D8A0B5EF09F0B7EF90
:1013680009F041EF0AF0EA51E91109E1C20EE75D1F
:10137800080EE859D8B0C3EF09F0C5EF09F041EFFE
:101388000AF0475007E1960E465CD8B0CEEF09F058
:10139800D0EF09F0EFEF09F0820E606F050E616F74
:1013A800D8904634D96E4734DA6ED890D936DA36C2
:1013B8006051D9266151DA22E7C0DEFFE8C0DEFFBE
:1013C800E9C0DEFFEAC0DEFF000E4624D96E020E39
:1013D8004720DA6EDF6A46B0F4EF09F0F6EF09F05D
:1013E800FBEF09F0010E0101886FDFEF0AF0010140
:1013F8008851D8A402EF0AF004EF0AF01AEF0AF0B5
:10140800624B632BD8900001DB35DB6FDC35DC6F7A
:10141800DD35DD6FDE35DE6FDF35DF6FE035E06F40
:10142800E135E16FE235E26FA3EF05F0000E476E9C
:10143800000E466E2FEC49F00001EB05D8A427EF0B
:101448000AF029EF0AF0C1EF00F0000E4624D96E29
:10145800020E4720DA6E020EDF6E850E3F6EFE0E1C
:10146800406EE7C041F0E8C042F0E9C043F0EAC08E
:1014780044F076EC48F0DFEF0AF0EA51E9110BE1AD
:10148800A70EE75D020EE859D8A04DEF0AF04FEF1E
:101498000AF0C6EF0AF0EA51E91109E1D60EE75D54
:1014A800040EE859D8B05BEF0AF05DEF0AF0C6EF1A
:1014B8000AF0475007E1960E465CD8B066EF0AF08E
:1014C80068EF0AF087EF0AF0820E606F050E616F11
:1014D800D8904634D96E4734DA6ED890D936DA3691
:1014E8006051D9266151DA22E7C0DEFFE8C0DEFF8D
:1014F800E9C0DEFFEAC0DEFF000E4624D96E020E08
:101508004720DA6EDF6A46B08CEF0AF08EEF0AF0F9
:1015180092EF0AF00101886BDFEF0AF001018805FC
:10152800D8A499EF0AF09BEF0AF09FEF0AF0624BFC
:10153800632B1AEF06F0000E476E000E466E2FEC76
:1015480049F00001EB05D8A4ACEF0AF0AEEF0AF0C1
:10155800C1EF00F0000E4624D96E020E4720DA6E65
:10156800020EDF6E4F0E3F6EFE0E406EE7C041F07A
:10157800E8C042F0E9C043F0EAC044F076EC48F035
:10158800DFEF0AF02FEC49F046C060F147C061F187
:101598000001EB05D8A4D3EF0AF0D5EF0AF0C1EFAC
:1015A80000F0F60E3F6EFE0E406E46C041F047C09A
:1015B80042F076EC48F0F29071C0F5FF70C0F8FF89
:1015C8006FC0F7FF6EC0F6FF6DC0F4FF6CC0F3FF8D
:1015D8006BC0DAFF6AC0D9FF69C0E2FF68C0E1FFEB
:1015E80067C0EAFF66C0E9FF51921100B0EF42F010
:1015F800CAC072F0CBC073F0DC0E0001746FFF0E2E
:10160800756F88EC44F0000172517311D8A40FEF84
:101618000BF011EF0BF015EF0BF0D5EC3CF018EFD9
:1016280012F0CAC072F0CBC073F0D90E746FFF0EFF
:10163800756F88EC44F0000172517311D8A427EF3C
:101648000BF029EF0BF07CEF0BF0EB2B030EEB65A7
:1016580030EF0BF032EF0BF033EF0BF0EB6B8F0E3C
:10166800B16FFE0EB26FEBC0B3F0B46B24EC48F070
:101678000001EB51D8A443EF0BF045EF0BF04BEF13
:101688000BF0890EB16FFD0EB26F24EC48F000012B
:10169800EB05D8A452EF0BF054EF0BF05AEF0BF018
:1016A8009D0EB16FF80EB26F24EC48F0020E0001E7
:1016B800EB19D8A462EF0BF064EF0BF06AEF0BF0B4
:1016C8008F0EB16FFC0EB26F24EC48F0030E0001D0
:1016D800EB19D8A472EF0BF074EF0BF018EF12F0BF
:1016E8006B0EB16FF90EB26F24EC48F018EF12F0E0
:1016F800CAC072F0CBC073F0E60E746FFF0E756F40
:1017080088EC44F0000172517311D8A48EEF0BF0ED
:1017180090EF0BF0D8EF0BF04A2A020E4A18D8A423
:1017280098EF0BF09AEF0BF09BEF0BF04A6A650EFF
:10173800B16FFB0EB26F4A50040DEC0EF324D96E54
:10174800010EF420DA6EDECFB3F0DECFB4F0DECFD8
:10175800B5F0DECFB6F024EC48F04A50D8A4B7EF85
:101768000BF0B9EF0BF0C4EF0BF04D0E0001B16FA9
:10177800FB0EB26F24EC48F0060E7D6E820EAF6E43
:101788004A04D8A4CAEF0BF0CCEF0BF018EF12F014
:10179800C10E0001B16FFD0EB26F24EC48F07D6AF6
:1017A800440EAF6E18EF12F0CAC072F0CBC073F0DF
:1017B800E80E746FFF0E756F88EC44F000017251EB
:1017C8007311D8A4EAEF0BF0ECEF0BF00AEF0CF072
:1017D8004A50D8B4F2EF0BF0F4EF0BF0FAEF0BF03D
:1017E800C50EB16FF70EB26F24EC48F06A0E000117
:1017F800B16FF50EB26F24EC48F0000E0001876F50
:10180800010E866F8DEC2BF018EF12F0CAC072F043
:10181800CBC073F0EA0E746FFF0E756F88EC44F05E
:10182800000172517311D8A41CEF0CF01EEF0CF0DC
:101838003CEF0CF04A50D8B424EF0CF026EF0CF033
:101848002CEF0CF0C50EB16FF70EB26F24EC48F018
:10185800C70E0001B16FF50EB26F24EC48F0000E10
:101868000001876F020E866F8DEC2BF018EF12F0D7
:10187800CAC072F0CBC073F0EC0E746FFF0E756FB8
:1018880088EC44F0000172517311D8A44EEF0CF0AB
:1018980050EF0CF054EF0CF019EC12F018EF12F0B6
:1018A800CAC072F0CBC073F0EE0E746FFF0E756F86
:1018B80088EC44F0000172517311D8A466EF0CF063
:1018C80068EF0CF01AEF0DF0F29E450EB16FFC0EAA
:1018D800B26F24EC48F0DEEF0CF0640E0001B16F3B
:1018E800FF0EB26F24EC48F006EF0DF0FA0E00017F
:1018F800B16FFC0EB26F4CC1B3F04DC1B4F04EC124
:10190800B5F04FC1B6F024EC48F006EF0DF0000E2C
:101918000001B16FFB0EB26F4CC1B3F04DC1B4F012
:101928004EC1B5F04FC1B6F024EC48F006EF0DF00B
:10193800910E0001B16FF90EB26F24EC48F006EF7A
:101948000DF0930E0001B16FFA0EB26F24EC48F05F
:1019580006EF0DF0F30E0001B16FF80EB26F24EC34
:1019680048F006EF0DF04C0E0001B16FFD0EB26F9E
:1019780024EC48F006EF0DF0650E0001B16FFE0E85
:10198800B26F24EC48F006EF0DF01A0E0001B16FAB
:10199800FB0EB26F24EC48F006EF0DF0160E0001B6
:1019A800B16FFB0EB26F98C1B3F0B46B24EC48F082
:1019B80006EF0DF001019851000AD8B471EF0CF050
:1019C800010AD8B47AEF0CF0030AD8B48BEF0CF004
:1019D800010AD8B49CEF0CF0070AD8B4A5EF0CF0B4
:1019E800010AD8B4AEEF0CF0030AD8B4B7EF0CF084
:1019F800010AD8B4C0EF0CF00F0AD8B4C9EF0CF044
:101A0800D2EF0CF07D0E0001B16FFB0EB26F97C1E3
:101A1800B3F0B46B24EC48F0E30E0001B16FFA0E9A
:101A2800B26F24EC48F0F28E18EF12F0CAC072F0D0
:101A3800CBC073F0F00E746FFF0E756F88EC44F036
:101A4800000172517311D8A42CEF0DF02EEF0DF098
:101A5800ADEF0DF0F29E5C0EB16FFD0EB26F91C14D
:101A6800B3F0B46B24EC48F0060E0001B16FFC0E25
:101A7800B26F90C1B3F0B46B24EC48F07D0E000156
:101A8800B16FFC0EB26F6EC1B3F06FC1B4F024EC4D
:101A980048F0010E0001E36F000EE46F000EE56FE1
:101AA800000EE66FE651E511E41109E1830EE35DEE
:101AB800D8A061EF0DF063EF0DF065EF0DF08EEF3C
:101AC8000DF0B30EB16FFF0EB26FE3C0B3F0E4C018
:101AD800B4F0E5C0B5F0E6C0B6F024EC48F0AB0EC3
:101AE8000001B16FFF0EB26F000EE325D96E050E2F
:101AF800E421DA6EDF50CC6FCC51B36FB46B24ECB9
:101B080048F0010E0001E327000EE423E523E62355
:101B180056EF0DF0E30EB16FFA0EB26F24EC48F0F9
:101B2800E90E0001B16FFC0EB26F6CC1B3F06DC16C
:101B3800B4F024EC48F0980E0001B16FFD0EB26FBE
:101B48006AC1B3F06BC1B4F024EC48F0F28E18EF20
:101B580012F0CAC072F0CBC073F0F20E746FFF0EB1
:101B6800756F88EC44F0000172517311D8A4BFEF6F
:101B78000DF0C1EF0DF032EF0EF0F29E000EE36FA4
:101B8800000EE46F000EE56F000EE66FE651E511FA
:101B9800E41109E1C80EE35DD8A0D5EF0DF0D7EF49
:101BA8000DF0D9EF0DF02FEF0EF0E3C0BCF0E4C05C
:101BB800BDF0E5C0BEF0E6C0BFF0E3EC32F0B30E16
:101BC8000001B16FFF0EB26FE3C0B3F0E4C0B4F030
:101BD800E5C0B5F0E6C0B6F024EC48F0920E00017E
:101BE800B16FFF0EB26F00C3B3F0B46B24EC48F0D2
:101BF800010E0001E325CC6F000EE421CD6F000E2D
:101C0800E521CE6F000EE621CF6F0F0ECC15D06FF9
:101C1800000ECD15D16F000ECE15D26F000ECF1568
:101C2800D36FD051D111D211D311D8A41EEF0EF019
:101C380020EF0EF026EF0EF0E30EB16FFA0EB26F42
:101C480024EC48F0010E0001E327000EE423E5230D
:101C5800E623CAEF0DF0F28E18EF12F0CAC072F048
:101C6800CBC073F0D80E746FFB0E756F88EC44F020
:101C7800000172517311D8A444EF0EF046EF0EF034
:101C8800CCEF0EF0F29E000EE36F000EE46F000E34
:101C9800E56F000EE66FE651E5110AE1E329030E50
:101CA800E459D8A05AEF0EF05CEF0EF05EEF0EF09C
:101CB800C9EF0EF0E3C072F0E4C073F083EC48F0B3
:101CC8000101C76F0F0E0001E315CC6F000EE4157C
:101CD800CD6F000EE515CE6F000EE615CF6FCC5117
:101CE800CD11CE11CF11D8A47CEF0EF07EEF0EF0FF
:101CF8008CEF0EF0B70EB16FFF0EB26FE3C0B3F00A
:101D0800E4C0B4F0E5C0B5F0E6C0B6F024EC48F0A5
:101D1800920E0001B16FFF0EB26FC7C1B3F0B46B82
:101D280024EC48F0010E0001E325CC6F000EE421FD
:101D3800CD6F000EE521CE6F000EE621CF6F0F0E9E
:101D4800CC15D06F000ECD15D16F000ECE15D26F09
:101D5800000ECF15D36FD051D111D211D311D8A401
:101D6800B8EF0EF0BAEF0EF0C0EF0EF0E30EB16F61
:101D7800FA0EB26F24EC48F0010E0001E327000EC2
:101D8800E423E523E6234FEF0EF0F28E18EF12F06E
:101D9800CAC072F0CBC073F0F40E746FFF0E756F8B
:101DA80088EC44F0000172517311D8A4DEEF0EF0F4
:101DB800E0EF0EF08FEF0FF00101CC6BF29E6B0E8F
:101DC8000001B16FFC0EB26F24EC48F0000E000168
:101DD800E36F000EE46F000EE56F000EE66F37EF5D
:101DE8000FF0E3C0BCF0E4C0BDF0E5C0BEF0E6C053
:101DF800BFF0800EC06FABEC33F0800E0001E3251E
:101E0800E36F000EE421E46F000EE521E56F000E9C
:101E1800E621E66F000E0101C86F000EC96F000EC3
:101E2800CA6F000ECB6FCB51CA11C91109E1800EE0
:101E3800C85DD8A022EF0FF024EF0FF026EF0FF0C7
:101E480037EF0FF0000EC825D96E030EC921DA6EE0
:101E5800DF50CC19CC6F010EC827000EC923CA2346
:101E6800CB2317EF0FF00001E6510CE1E329FF0E39
:101E7800E459010EE559D8A044EF0FF046EF0FF0F2
:101E8800F5EF0EF0000EBC6F000EBD6F000EBE6FBA
:101E9800000EBF6FE3EC32F0030100510001E36F65
:101EA800E46BE56BE66B030EE319E411E511E6114B
:101EB800D8B461EF0FF063EF0FF069EF0FF0C90EC0
:101EC800B16FF80EB26F24EC48F0340E0001B16F18
:101ED800FB0EB26FCCC1B3F0B46B24EC48F0010137
:101EE800CC51D8A47AEF0FF07CEF0FF085EF0FF00C
:101EF800830E0001B16FFF0EB26F24EC48F08CEF37
:101F08000FF0CB0E0001B16FFE0EB26F24EC48F05B
:101F1800F28E18EF12F0CAC072F0CBC073F0F60E52
:101F2800746FFF0E756F88EC44F0000172517311E5
:101F3800D8A4A1EF0FF0A3EF0FF07CEF10F0000E84
:101F48000101CD6F000ECE6F000ECF6F000ED06F67
:101F5800F29E6BEF10F0CDC1BCF0CEC1BDF0CFC189
:101F6800BEF0D0C1BFF0800E0001C06FABEC33F003
:101F7800000E0001E36F000EE46F000EE56F000E27
:101F8800E66FE651E511E41109E1800EE35DD8A0A2
:101F9800D0EF0FF0D2EF0FF0D4EF0FF05EEF10F0AC
:101FA8000101CD510001E3250101C36FCE510001AC
:101FB800E4210101C46FCF510001E5210101C56F82
:101FC800D0510001E6210101C66F0F0E0001E31593
:101FD800CC6F000EE415CD6F000EE515CE6F000E28
:101FE800E615CF6FCC51CD11CE11CF11D8A4FFEF8C
:101FF8000FF001EF10F012EF10F0C3C1BCF0C4C134
:10200800BDF0C5C1BEF0C6C1BFF069EC47F0E40E33
:102018000001B16FFE0EB26F24EC48F0AF0E000164
:10202800B16FFF0EB26F000EE325D96E030EE421E7
:10203800DA6EDF50CC6FCC51B36FB46B24EC48F040
:10204800010E0001E325CC6F000EE421CD6F000ED8
:10205800E521CE6F000EE621CF6F0F0ECC15D06FA5
:10206800000ECD15D16F000ECE15D26F000ECF1514
:10207800D36FD051D111D211D311D8A446EF10F09B
:1020880048EF10F04EEF10F0E30EB16FFA0EB26F9A
:1020980024EC48F0E40E00D000D0E82EFCD700D0A5
:1020A80000D0010E0001E327000EE423E523E62318
:1020B800C5EF0FF0800E0101CD25CD6F000ECE21AA
:1020C800CE6F000ECF21CF6F000ED021D06FD05130
:1020D8000CE1CD29FF0ECE59010ECF59D8A077EFCC
:1020E80010F079EF10F0AFEF0FF0F28E18EF12F05A
:1020F800CAC072F0CBC073F0F80E746FFF0E756F24
:1021080088EC44F0000172517311D8A48EEF10F0DE
:1021180090EF10F0FCEF11F0000EE36F000EE46F8B
:10212800000EE56F000EE66FE3C0CCF0E4C0CDF022
:10213800D890CC37CD37D890CC37CD37000ECC25BA
:10214800726F010ECD21736F83EC48F00001CE6FE2
:10215800CE510101D16FD26BD36BD46BD56BD66BDB
:10216800D76BD86BE3C0CCF0E4C0CDF00001D890B9
:10217800CC37CD37D890CC37CD37010ECC25726F00
:10218800010ECD21736F83EC48F00001CE6FCEC0F5
:10219800CFF0D06BD16BD26BD1C0D2F0D0C0D1F020
:1021A800CFC0D0F0CF6BCF51D36FD051D46FD151B6
:1021B800D56FD251D66FD76BD86BD96BDA6B01015B
:1021C800D1510001D3250101D16FD2510001D42191
:1021D8000101D26FD3510001D5210101D36FD45130
:1021E8000001D6210101D46FD5510001D721010189
:1021F800D56FD6510001D8210101D66FD751000102
:10220800D9210101D76FD8510001DA210101D86F16
:10221800E3C0CCF0E4C0CDF00001D890CC37CD3786
:10222800D890CC37CD37020ECC25726F010ECD2158
:10223800736F83EC48F00001CE6FCEC0CFF0D06B47
:10224800D16BD26BD0C0D2F0CFC0D1F0D06BCF6BF6
:10225800CF51D36FD051D46FD151D56FD251D66FE2
:10226800D76BD86BD96BDA6B0101D1510001D3253B
:102278000101D16FD2510001D4210101D26FD35194
:102288000001D5210101D36FD4510001D6210101EC
:10229800D46FD5510001D7210101D56FD651000166
:1022A800D8210101D66FD7510001D9210101D76F7B
:1022B800D8510001DA210101D86FE3C0CCF0E4C0A5
:1022C800CDF00001D890CC37CD37D890CC37CD376A
:1022D800030ECC25726F010ECD21736F83EC48F08D
:1022E8000001CE6FCEC0CFF0D06BD16BD26BCFC018
:1022F800D2F0D16BD06BCF6BCF51D36FD051D46F9D
:10230800D151D56FD251D66FD76BD86BD96BDA6BE9
:102318000101D1510001D3250101D16FD251000132
:10232800D4210101D26FD3510001D5210101D36F0E
:10233800D4510001D6210101D46FD5510001D72114
:102348000101D56FD6510001D8210101D66FD751AF
:102358000001D9210101D76FD8510001DA2101010B
:10236800D86FA10E0001B16FFC0EB26F010EE3250C
:10237800B36F000EE421B46F000EE521B56F000EB7
:10238800E621B66F24EC48F0D1C1BCF0D2C1BDF053
:10239800D3C1BEF0D4C1BFF0D5C1C0F0D6C1C1F021
:1023A800D7C1C2F0D8C1C3F081EC47F0E30E0001F9
:1023B800B16FFA0EB26F24EC48F0010E0001E3276A
:1023C800000EE423E523E623E651E511E41109E1D3
:1023D800140EE35DD8A0F3EF11F0F5EF11F098EFCC
:1023E80010F0E307000EE45BE55BE65B18EF12F024
:1023F800CAC072F0CBC073F0FC0E746FFF0E756F1D
:1024080088EC44F0000172517311D8A40EEF12F059
:1024180010EF12F012EF12F018EF12F0950EB16FE4
:10242800FB0EB26F24EC48F01200F29E0101856B9E
:102438000A0E0001B16FFE0EB26F60C1B3F061C148
:10244800B4F024EC48F0020E4B18D8A42EEF12F08A
:1024580030EF12F037EF12F03C0E0001B16FFD0EB5
:10246800B26F24EC48F0040E4B18D8A43EEF12F0DB
:1024780040EF12F047EF12F00B0E0001B16FFD0EA6
:10248800B26F24EC48F0030E4B18D8A44EEF12F0AC
:1024980050EF12F057EF12F0C30E0001B16FFB0EB0
:1024A800B26F24EC48F0050E4B18D8A45EEF12F07A
:1024B80060EF12F067EF12F0580E0001B16FFC0EDA
:1024C800B26F24EC48F04B04D8A46DEF12F06FEF14
:1024D80012F076EF12F01B0E0001B16FFC0EB26F16
:1024E80024EC48F0E30E0001B16FFA0EB26F24EC51
:1024F80048F0010E0001C36F010EC26FFF0EC32525
:10250800726F736BFF0E7323000E756F140E746F6A
:10251800C6EC40F00001C251140DF3CFBCF0F4CF6B
:10252800BDF07251BC25BE6F7351BD21BF6FED0E5A
:10253800BE25C06FFF0EBF21C16FC0C0E3F0C1C090
:10254800E4F0000EE4BFFF0EE56FE66F0101605195
:102558000001BC6F010161510001BD6FBE6BBF6B13
:10256800E351BC5DE451BD59E551BE59E651BF592F
:10257800D8A0C1EF12F0C3EF12F09DEF16F0C70E0E
:10258800B16FFF0EB26FE3C0B3F0E4C0B4F0E5C0C2
:10259800B5F0E6C0B6F024EC48F0820E0001BC6F3E
:1025A800050EBD6FD890E335D96EE435DA6ED89054
:1025B800D936DA36BC51D926BD51DA22DECFE7F05A
:1025C800DECFE8F0DECFE9F0DECFEAF07D0EB16FC6
:1025D800FF0EB26FE7C0B3F0E8C0B4F0E9C0B5F0E1
:1025E800EAC0B6F024EC48F04B04D8A4FEEF12F091
:1025F80000EF13F0B7EF13F00001EA51E9110BE116
:10260800A90EE75D8F0EE859D8A00DEF13F00FEF74
:1026180013F025EF13F0EA51E91109E1780EE75DAF
:10262800970EE859D8B01BEF13F01DEF13F025EF04
:1026380013F0E10EB16FFF0EB26F24EC48F097EF84
:1026480013F0EA51E9110BE1A70EE75D020EE85914
:10265800D8A031EF13F033EF13F049EF13F0EA513C
:10266800E91109E1D60EE75D040EE859D8B03FEF4D
:1026780013F041EF13F049EF13F0D50EB16FFF0ED1
:10268800B26F24EC48F097EF13F0EA51E9110BE12F
:10269800930EE75D060EE859D8A055EF13F057EFF3
:1026A80013F06DEF13F0EA51E91109E1C20EE75D8D
:1026B800080EE859D8B063EF13F065EF13F06DEF2B
:1026C80013F0D80EB16FFF0EB26F24EC48F097EFFD
:1026D80013F0EA51E9110BE18C0EE75D0A0EE85997
:1026E800D8A079EF13F07BEF13F091EF13F0EA51D4
:1026F800E91109E1BB0EE75D0C0EE859D8B087EF88
:1027080013F089EF13F091EF13F0DE0EB16FFF0EA7
:10271800B26F24EC48F097EF13F0DB0EB16FFF0EA9
:10272800B26F24EC48F0000E0001E325D96E020ECA
:10273800E421DA6EDF50D8B4A4EF13F0A6EF13F05B
:10274800B7EF13F0460EB16FFF0EB26F000EE32520
:10275800D96E020EE421DA6EDF50BC6FBC51B36F44
:10276800B46B24EC48F0020E4B18D8A4BEEF13F05B
:10277800C0EF13F053EF14F00001EA51E9110BE137
:10278800130EE75D700EE859D8A0CDEF13F0CFEF28
:1027980013F0E5EF13F0EA51E91109E1E20EE75D04
:1027A800770EE859D8B0DBEF13F0DDEF13F0E5EF63
:1027B80013F0E10EB16FFF0EB26F24EC48F033EF67
:1027C80014F0EA51E9110BE1D70EE75D010EE85963
:1027D800D8A0F1EF13F0F3EF13F009EF14F0EA517A
:1027E800E91109E12A0EE75D030EE859D8B0FFEFB9
:1027F80013F001EF14F009EF14F0D50EB16FFF0ECE
:10280800B26F24EC48F033EF14F0EA51E9110BE110
:10281800570EE75D040EE859D8A015EF14F017EF2E
:1028280014F02DEF14F0EA51E91109E1AA0EE75D61
:10283800050EE859D8B023EF14F025EF14F02DEF6A
:1028480014F0D80EB16FFF0EB26F24EC48F033EFDE
:1028580014F0DB0EB16FFF0EB26F24EC48F0000EDF
:102868000001E325D96E020EE421DA6EDF50D8B4F8
:1028780040EF14F042EF14F053EF14F0460EB16F2E
:10288800FF0EB26F000EE325D96E020EE421DA6E58
:10289800DF50BC6FBC51B36FB46B24EC48F0040E2E
:1028A8004B18D8A45AEF14F05CEF14F012EF15F09F
:1028B8000001EA51E9110BE1F50EE75D0F0EE85949
:1028C800D8A069EF14F06BEF14F081EF14F0EA511F
:1028D800E91109E1C40EE75D170EE859D8B077EFA2
:1028E80014F079EF14F081EF14F0E10EB16FFF0EE0
:1028F800B26F24EC48F0F2EF14F0EA51E9110BE161
:102908004A0EE75D040EE859D8A08DEF14F08FEF5A
:1029180014F0A4EF14F0EA51E91108E1E705060EF6
:10292800E859D8B09AEF14F09CEF14F0A4EF14F023
:10293800D50EB16FFF0EB26F24EC48F0F2EF14F031
:10294800EA51E9110BE15B0EE75D090EE859D8A0E1
:10295800B0EF14F0B2EF14F0C8EF14F0EA51E91137
:1029680009E1120EE75D0B0EE859D8B0BEEF14F07E
:10297800C0EF14F0C8EF14F0D80EB16FFF0EB26FAD
:1029880024EC48F0F2EF14F0EA51E9110BE1A50E3E
:10299800E75D240EE859D8A0D4EF14F0D6EF14F070
:1029A800ECEF14F0EA51E91109E15C0EE75D260E3F
:1029B800E859D8B0E2EF14F0E4EF14F0ECEF14F0BB
:1029C800DE0EB16FFF0EB26F24EC48F0F2EF14F098
:1029D800DB0EB16FFF0EB26F24EC48F0000E000161
:1029E800E325D96E020EE421DA6EDF50D8B4FFEF8A
:1029F80014F001EF15F012EF15F0460EB16FFF0E4F
:102A0800B26F000EE325D96E020EE421DA6EDF50B4
:102A1800BC6FBC51B36FB46B24EC48F0030E4B1879
:102A2800D8A419EF15F01BEF15F0D4EF15F000013D
:102A3800EA510DE1C30EE75D0E0EE859020EE959A1
:102A4800D8A029EF15F02BEF15F042EF15F0EA5159
:102A58000BE10E0EE75D130EE859020EE959D8B0E6
:102A680038EF15F03AEF15F042EF15F0E10EB16FBF
:102A7800FF0EB26F24EC48F0B4EF15F0EA51E911FB
:102A88000BE13D0EE75D1E0EE859D8A04EEF15F09C
:102A980050EF15F066EF15F0EA51E91109E16C0EF7
:102AA800E75D200EE859D8B05CEF15F05EEF15F041
:102AB80066EF15F0DE0EB16FFF0EB26F24EC48F032
:102AC800B4EF15F0EA51E9110BE15F0EE75D020E74
:102AD800E859D8A072EF15F074EF15F08AEF15F0E9
:102AE800EA51E91109E1520EE75D040EE859D8B040
:102AF80080EF15F082EF15F08AEF15F0D50EB16F63
:102B0800FF0EB26F24EC48F0B4EF15F0EA51E9116A
:102B18000BE11F0EE75D050EE859D8A096EF15F0FA
:102B280098EF15F0AEEF15F0EA51E91109E1120E30
:102B3800E75D070EE859D8B0A4EF15F0A6EF15F039
:102B4800AEEF15F0D80EB16FFF0EB26F24EC48F05F
:102B5800B4EF15F0DB0EB16FFF0EB26F24EC48F046
:102B6800000E0001E325D96E020EE421DA6EDF5073
:102B7800D8B4C1EF15F0C3EF15F0D4EF15F0460E39
:102B8800B16FFF0EB26F000EE325D96E020EE4217D
:102B9800DA6EDF50BC6FBC51B36FB46B24EC48F0F5
:102BA800050E4B18D8A4DBEF15F0DDEF15F094EF08
:102BB80016F00001EA51E9110BE16B0EE75D180E02
:102BC800E859D8A0EAEF15F0ECEF15F002EF16F08F
:102BD800EA51E91109E1B60EE75D1C0EE859D8B0D3
:102BE800F8EF15F0FAEF15F002EF16F0E10EB16FFD
:102BF800FF0EB26F24EC48F074EF16F0EA51E911B9
:102C08000BE12D0EE75D0B0EE859D8A00EEF16F07C
:102C180010EF16F026EF16F0EA51E91109E15C0E03
:102C2800E75D0D0EE859D8B01CEF16F01EEF16F050
:102C380026EF16F0DE0EB16FFF0EB26F24EC48F0EF
:102C480074EF16F0EA51E9110BE1C30EE75D020ECD
:102C5800E859D8A032EF16F034EF16F04AEF16F024
:102C6800EA51E91109E1EE0EE75D030EE859D8B023
:102C780040EF16F042EF16F04AEF16F0D50EB16F9E
:102C8800FF0EB26F24EC48F074EF16F0EA51E91128
:102C98000BE1830EE75D050EE859D8A056EF16F054
:102CA80058EF16F06EEF16F0EA51E91109E1AE0E91
:102CB800E75D060EE859D8B064EF16F066EF16F037
:102CC8006EEF16F0D80EB16FFF0EB26F24EC48F01D
:102CD80074EF16F0DB0EB16FFF0EB26F24EC48F004
:102CE800000E0001E325D96E020EE421DA6EDF50F2
:102CF800D8B481EF16F083EF16F094EF16F0460E75
:102D0800B16FFF0EB26F000EE325D96E020EE421FB
:102D1800DA6EDF50BC6FBC51B36FB46B24EC48F073
:102D2800D20E0001B16FFF0EB26F24EC48F0A3EF92
:102D380016F0DD0EB16FFE0EB26F24EC48F0000104
:102D4800C22B090EC265ABEF16F0ADEF16F082EF9D
:102D580012F0E30EB16FFA0EB26F24EC48F00001E6
:102D6800C32B140EC365BBEF16F0BDEF16F080EF52
:102D780012F023EC49F0F28E1200DBC0BCF0DCC08C
:102D8800BDF0DDC0BEF0DEC0BFF0DFC0C0F0E0C007
:102D9800C1F0E1C0C2F0E2C0C3F0040ED890000157
:102DA800BC37BD37BE37BF37C037C137C237C33767
:102DB800E82ED2EF16F0BCC0C6F0BDC0C7F0BEC04A
:102DC800C8F0BFC0C9F0C0C0CAF0C1C0CBF0C2C013
:102DD800CCF0C3C0CDF020EEC6F0F00EDE18C66F02
:102DE800FF0EDE18C76FFF0EDE18C86FFF0EDE1865
:102DF800C96FFF0EDE18CA6FFF0EDE18CB6FFF0E0D
:102E0800DE18CC6F000EDE18CD6FC6C0BCF0C7C090
:102E1800BDF0C8C0BEF0C9C0BFF0CAC0C0F0CBC0CA
:102E2800C1F0CCC0C2F0CDC0C3F0310E25EF17F011
:102E3800D890C333C233C133C033BF33BE33BD337D
:102E4800BC33E82E1CEF17F0BCC0CEF0BDC0CFF0ED
:102E5800BEC0D0F0BFC0D1F0C0C0D2F0C1C0D3F066
:102E6800C2C0D4F0C3C0D5F0CE39F00BF00BEC6F74
:102E7800040EBC6FCEC0BDF0CFC0BEF0D0C0BFF056
:102E8800D1C0C0F0D2C0C1F0D3C0C2F0D4C0C3F02A
:102E9800D5C0C4F0BC6753EF17F05FEF17F0C43527
:102EA800C433C333C233C133C033BF33BE33BD337E
:102EB800BC2F4EEF17F00001BD510F0BED6FC6C0D0
:102EC800BCF0C7C0BDF0C8C0BEF0C9C0BFF0CAC022
:102ED800C0F0CBC0C1F0CCC0C2F0CDC0C3F0290E49
:102EE8007FEF17F0D890C333C233C133C033BF3339
:102EF800BE33BD33BC33E82E76EF17F0BCC0CEF03E
:102F0800BDC0CFF0BEC0D0F0BFC0D1F0C0C0D2F0BD
:102F1800C1C0D3F0C2C0D4F0C3C0D5F0040EBC6F9A
:102F2800CEC0BDF0CFC0BEF0D0C0BFF0D1C0C0F0A1
:102F3800D2C0C1F0D3C0C2F0D4C0C3F0D5C0C4F071
:102F4800BC67A9EF17F0B5EF17F0C435C433C33326
:102F5800C233C133C033BF33BE33BD33BC2FA4EF3C
:102F680017F00001BD510F0BEC11EC6FCE39F00BCF
:102F7800F00B506EC6C0BCF0C7C0BDF0C8C0BEF0F4
:102F8800C9C0BFF0CAC0C0F0CBC0C1F0CCC0C2F04D
:102F9800CDC0C3F0210EDAEF17F0D890C333C23397
:102FA800C133C033BF33BE33BD33BC33E82ED1EF9A
:102FB80017F0BCC0CEF0BDC0CFF0BEC0D0F0BFC0CF
:102FC800D1F0C0C0D2F0C1C0D3F0C2C0D4F0C3C0E9
:102FD800D5F0040EBC6FCEC0BDF0CFC0BEF0D0C0DF
:102FE800BFF0D1C0C0F0D2C0C1F0D3C0C2F0D4C0CD
:102FF800C3F0D5C0C4F0BC6704EF18F010EF18F0A8
:10300800C435C433C333C233C133C033BF33BE3313
:10301800BD33BC2FFFEF17F00001BD510F0B50104F
:10302800506ECE39F00BF00B4F6EC6C0BCF0C7C067
:10303800BDF0C8C0BEF0C9C0BFF0CAC0C0F0CBC0A8
:10304800C1F0CCC0C2F0CDC0C3F0190E35EF18F0F6
:10305800D890C333C233C133C033BF33BE33BD335B
:10306800BC33E82E2CEF18F0BCC0CEF0BDC0CFF0BA
:10307800BEC0D0F0BFC0D1F0C0C0D2F0C1C0D3F044
:10308800C2C0D4F0C3C0D5F0040EBC6FCEC0BDF032
:10309800CFC0BEF0D0C0BFF0D1C0C0F0D2C0C1F028
:1030A800D3C0C2F0D4C0C3F0D5C0C4F0BC675FEFD2
:1030B80018F06BEF18F0C435C433C333C233C133CF
:1030C800C033BF33BE33BD33BC2F5AEF18F00001F5
:1030D800BD510F0B4F104F6ECE39F00BF00B4E6EEB
:1030E800C6C0BCF0C7C0BDF0C8C0BEF0C9C0BFF004
:1030F800CAC0C0F0CBC0C1F0CCC0C2F0CDC0C3F0D4
:10310800110E90EF18F0D890C333C233C133C033D7
:10311800BF33BE33BD33BC33E82E87EF18F0BCC0D5
:10312800CEF0BDC0CFF0BEC0D0F0BFC0D1F0C0C09F
:10313800D2F0C1C0D3F0C2C0D4F0C3C0D5F0040EE1
:10314800BC6FCEC0BDF0CFC0BEF0D0C0BFF0D1C004
:10315800C0F0D2C0C1F0D3C0C2F0D4C0C3F0D5C053
:10316800C4F0BC67BAEF18F0C6EF18F0C435C43322
:10317800C333C233C133C033BF33BE33BD33BC2FB7
:10318800B5EF18F00001BD510F0B4E104E6ECE3941
:10319800F00BF00B4D6EC6C0BCF0C7C0BDF0C8C088
:1031A800BEF0C9C0BFF0CAC0C0F0CBC0C1F0CCC02F
:1031B800C2F0CDC0C3F0BDC0BCF0BEC0BDF0BFC042
:1031C800BEF0C0C0BFF0C1C0C0F0C2C0C1F0C3C033
:1031D800C2F0C36BBCC0CEF0BDC0CFF0BEC0D0F053
:1031E800BFC0D1F0C0C0D2F0C1C0D3F0C2C0D4F0CB
:1031F800C3C0D5F0040EBC6FCEC0BDF0CFC0BEF0CA
:10320800D0C0BFF0D1C0C0F0D2C0C1F0D3C0C2F0AE
:10321800D4C0C3F0D5C0C4F0BC6715EF19F021EFD6
:1032280019F0C435C433C333C233C133C033BF33D9
:10323800BE33BD33BC2F10EF19F00001BD510F0B89
:103248004D104D6ECE39F00BF00B4C6EC6C0CEF063
:10325800C7C0CFF0C8C0D0F0C9C0D1F0CAC0D2F042
:10326800CBC0D3F0CCC0D4F0CDC0D5F0040EBC6F29
:10327800CEC0BDF0CFC0BEF0D0C0BFF0D1C0C0F04E
:10328800D2C0C1F0D3C0C2F0D4C0C3F0D5C0C4F01E
:10329800BC6751EF19F05DEF19F0C435C433C3337F
:1032A800C233C133C033BF33BE33BD33BC2F4CEF41
:1032B80019F00001BD510F0B4C104C6ED6EC45F0C7
:1032C8000001C56FEB51D8B46CEF19F06EEF19F02F
:1032D8000AEF1AF0C551D8B474EF19F076EF19F067
:1032E8007EEF19F08D0EB16FFF0EB26F24EC48F02F
:1032F80084EF19F0970EB16FFF0EB26F24EC48F00F
:103308001F0E0001B16FFE0EB26FEDC0B3F0B46BCB
:1033180024EC48F0E40E0001B16FFF0EB26F24EC0C
:1033280048F01F0E0001B16FFE0EB26FECC0B3F093
:10333800B46B24EC48F0E40E0001B16FFF0EB26FDD
:1033480024EC48F01F0E0001B16FFE0EB26F50C0A2
:10335800B3F0B46B24EC48F0E40E0001B16FFF0E3B
:10336800B26F24EC48F01F0E0001B16FFE0EB26F71
:103378004FC0B3F0B46B24EC48F0E40E0001B16F19
:10338800FF0EB26F24EC48F01F0E0001B16FFE0E65
:10339800B26F4EC0B3F0B46B24EC48F0E40E0001F9
:1033A800B16FFF0EB26F24EC48F01F0E0001B16F31
:1033B800FE0EB26F4DC0B3F0B46B24EC48F0E40ECF
:1033C8000001B16FFF0EB26F24EC48F01F0E000130
:1033D800B16FFE0EB26F4CC0B3F0B46B24EC48F082
:1033E800CF0E0001B16FFF0EB26F24EC48F0000160
:1033F800C551D8A402EF1AF004EF1AF00AEF1AF038
:10340800E30EB16FFA0EB26F24EC48F00001C5511B
:10341800120069EC48F08096808A0101986B0F01D0
:103428005D6B5C6BD08EF19EF180F290F286F28E2D
:10343800F294F28A5A89010E4A6E4A50D8A427EFAC
:103448001AF029EF1AF02DEF1AF0060E7D6E820E93
:10345800AF6E4A04D8A433EF1AF035EF1AF038EFFC
:103468001AF07D6A440EAF6E920ED56EFE0E000104
:10347800766FF70E776F46EC3DF0B40E0001766F6D
:10348800FD0E776F46EC3DF0360E0001766FF80EB4
:10349800776F46EC3DF0B40E0001766FFD0E776F46
:1034A80046EC3DF08290D5EC3CF08280010E0001A4
:1034B800E36F000EE46F000EE56F000EE66FE65155
:1034C800E511E41109E10A0EE35DD8A06EEF1AF0E8
:1034D80070EF1AF072EF1AF097EF1AF0090E030165
:1034E800836F1E0E826FE40EE82EFED7822FFCD764
:1034F800832FFAD700008290090E0301836F1E0EF6
:10350800826FE40EE82EFED7822FFCD7832FFAD7DE
:1035180000008280010E0001E327000EE423E5236A
:10352800E62363EF1AF0EB6B66EC49F0F28E000EBF
:103538000001736F000E726F83EC48F00301826F15
:1035480082510001E36FE46BE56BE66BE329E4115C
:10355800E511E611D8A4B3EF1AF0B5EF1AF0BBEFF6
:103568001AF01C0EB16FF90EB26F24EC48F0210E60
:103578000001E319E411E511E611D8B4C6EF1AF019
:10358800C8EF1AF0CEEF1AF00F0EB16FF70EB26F48
:1035980024EC48F0000E0001BC6F000EBD6F000E59
:1035A800BE6F000EBF6FE3EC32F003010051000163
:1035B800E36FE46BE56BE66B030EE319E411E511C9
:1035C800E611D8B4EAEF1AF0ECEF1AF0F2EF1AF0BD
:1035D8004D0EB16FF70EB26F24EC48F0808681B4BF
:1035E800F8EF1AF0FAEF1AF05DEF1BF0150E030171
:1035F800826FC60EE82EFED7822FFCD70000010E80
:1036080001014827000E49234A234B234B514A11F5
:103618000BE1890E485D130E4959D8A016EF1BF02F
:1036280018EF1BF05DEF1BF08290000E486F000E44
:10363800496F000E4A6F000E4B6FD80E0001B16F34
:10364800F90EB26F24EC48F0010E01016D6F000E07
:103658006C6F280E6C5D010E6D59D8A036EF1BF00B
:1036680038EF1BF03AEF1BF048EF1BF06CC172F01B
:103678006DC173F0FF0E0001746F84EC45F0010119
:103688006C4B6D2B2DEF1BF0520E0301836F2B0E2D
:10369800826F000EE82EFED7822FFCD7832FFAD731
:1036A8000000828081A45BEF1BF05DEF1BF056EFFA
:1036B8001BF001018751D8B464EF1BF067EF1BF0D2
:1036C800010E68EF1BF0000E0301826F836B81B45B
:1036D80070EF1BF073EF1BF0010E74EF1BF0000E80
:1036E8008217000E831701014B514A11491107E156
:1036F800C90E485DD8B083EF1BF086EF1BF0010EB2
:1037080087EF1BF0000E03018217000E83170101DB
:103718004B514A110CE1E80E485D030E4959D8A0F7
:1037280098EF1BF09BEF1BF0010E9CEF1BF0000EB7
:1037380003018217000E831782518311D8B4A7EFB3
:103748001BF0A9EF1BF0BAEF1BF0500E0101406F00
:10375800C30E416F000E426F000E436F000E446FA0
:10376800000E456F000E466F000E476F0101405175
:103778004111421143114411451146114711D8B462
:10378800C8EF1BF0CAEF1BF030EF1CF04007000E2B
:10379800415B425B435B445B455B465B475B40C1C7
:1037A80072F041C173F042C174F043C175F044C175
:1037B80076F045C177F046C178F047C179F0E80E58
:1037C80000017A6F030E7B6F000E7C6F000E7D6F19
:1037D800000E7E6F000E7F6F000E806F000E816FEF
:1037E800B6EC3DF072C082F373C083F374C084F307
:1037F80075C085F376C086F377C087F378C088F301
:1038080079C089F3030182518311841185118611CE
:10381800871188118911D8A414EF1CF016EF1CF039
:103828001FEF1CF082A01BEF1CF01EEF1CF0828023
:103838001FEF1CF0829001014051411142114311C8
:103848004411451146114711D8A42DEF1CF02FEF54
:103858001CF030EF1CF08280000E81B4010E876FDF
:1038680081A439EF1CF03BEF1CF043EF1CF0000E75
:10387800486F000E496F000E4A6F000E4B6F8B5158
:10388800D8A449EF1CF04BEF1CF04DEF1CF073EC83
:103898003BF001018551D8B454EF1CF056EF1CF0F1
:1038A80058EF1CF019EC12F001018B51D8B45FEFFE
:1038B8001CF061EF1CF0F3EF1AF08B6BF29E020E16
:1038C8000001EB19D8A46BEF1CF06DEF1CF06FEF43
:1038D8001CF019EC12F04B04D8A475EF1CF077EF2C
:1038E8001CF0A7EF1CF00001EB51D8B47EEF1CF0E0
:1038F80080EF1CF099EF1CF0DBC0BCF0DCC0BDF021
:10390800DDC0BEF0DEC0BFF0DFC0C0F0E0C0C1F077
:10391800E1C0C2F0E2C0C3F0FBEC3AF0E40E0001F3
:10392800B16FFE0EB26F24EC48F0C1EC16F000093E
:10393800D8B4A1EF1CF0A3EF1CF0A7EF1CF048ECE3
:103948002EF043EC1DF0020E4B18D8A4AEEF1CF07D
:10395800B0EF1CF0DBEF1CF0DBC038F1DCC039F154
:10396800DDC03AF1DEC03BF1DFC03CF1E0C03DF123
:10397800E1C03EF1E2C03FF1B30E0001B16FFC0EB1
:10398800B26F24EC48F0DBC0BCF0DCC0BDF0DDC099
:10399800BEF0DEC0BFF0DFC0C0F0E0C0C1F0E1C0E3
:1039A800C2F0E2C0C3F081EC47F043EC1DF0040E16
:1039B8004B18D8A4E2EF1CF0E4EF1CF009EF1DF05F
:1039C8000BEC23F0E806D8A4ECEF1CF0EEEF1CF0AB
:1039D80009EF1DF0C50E0001B16FFC0EB26F24ECAB
:1039E80048F038C1BCF039C1BDF03AC1BEF03BC1A6
:1039F800BFF03CC1C0F03DC1C1F03EC1C2F03FC103
:103A0800C3F081EC47F043EC1DF0030E4B18D8A42B
:103A180010EF1DF012EF1DF01BEF1DF03E0E000120
:103A2800B16FFF0EB26F24EC48F04FEC20F0050E9A
:103A38004B18D8A422EF1DF024EF1DF02DEF1DF038
:103A4800AD0E0001B16FFE0EB26F24EC48F0BFEC72
:103A580037F0000E476E000E466E520E0301836F5C
:103A68002B0E826F000EE82EFED7822FFCD7832FF5
:103A7800FAD70000F28EF3EF1AF0FAEF0AF038C125
:103A880074F039C175F03AC176F03BC177F073EC48
:103A98002FF00001D76FA10EB16FFF0EB26FD7C024
:103AA800B3F0B46B24EC48F00001D751D8B45FEF01
:103AB8001DF061EF1DF0C4EF1DF0010E0101826FD2
:103AC8004B04D8B46AEF1DF06CEF1DF075EF1DF0D4
:103AD800040E4B18D8A473EF1DF075EF1DF09AEF84
:103AE8001DF00001D751020D000EF324D96E010E0E
:103AF800F420DA6E01016851DE5C6951DE58D8A005
:103B080088EF1DF08BEF1DF0010E8CEF1DF0000EFD
:103B1800826F0001D751020D000EF324D96E010EF9
:103B2800F420DA6E68C1DEFF69C1DDFF0101825150
:103B3800D8B4A1EF1DF0A3EF1DF0BDEF1DF0CB0E23
:103B48000001B16FFF0EB26F24EC48F0809A8290AA
:103B5800520E0001C96F2B0EC86F000EE82EFED75B
:103B6800C82FFCD7C92FFAD70000808A8280C4EFFB
:103B78001DF0300E0001B16FFC0EB26F24EC48F05E
:103B8800E30E0001B16FFA0EB26F24EC48F00101A8
:103B98004051411142114311441145114611471139
:103BA800D8B4D9EF1DF0DBEF1DF04EEF20F021EE79
:103BB80040F0070EDE6AE806FDE20001D751D8A4FE
:103BC800E8EF1DF0EAEF1DF045EF20F0000EE36F7F
:103BD800000EE46F000EE56F000EE66FE3C0C8F05C
:103BE800E4C0C9F0D890C837C937D890C837C937A2
:103BF800000EC825726F010EC921736F83EC48F05F
:103C08000001CA6FCA51D36FD46BD56BD66BE3C0B2
:103C1800C8F0E4C0C9F0D890C837C937D890C837B9
:103C2800C937010EC825726F010EC921736F83EC65
:103C380048F00001CA6FCAC0CBF0CC6BCD6BCE6B1D
:103C4800CDC0CEF0CCC0CDF0CBC0CCF0CB6BD35137
:103C5800CB25D36FD451CC21D46FD551CD21D56F7D
:103C6800D651CE21D66FE3C0C8F0E4C0C9F0D890D1
:103C7800C837C937D890C837C937020EC825726FF8
:103C8800010EC921736F83EC48F00001CA6FCAC0E6
:103C9800CBF0CC6BCD6BCE6BCCC0CEF0CBC0CDF027
:103CA800CC6BCB6BD351CB25D36FD451CC21D46FF4
:103CB800D551CD21D56FD651CE21D66FE3C0C8F0EE
:103CC800E4C0C9F0D890C837C937D890C837C937C1
:103CD800030EC825726F010EC921736F83EC48F07B
:103CE8000001CA6FCAC0CBF0CC6BCD6BCE6BCBC01A
:103CF800CEF0CD6BCC6BCB6BD351CB25D36FD451DE
:103D0800CC21D46FD551CD21D56FD651CE21D66FC8
:103D1800010EE327000EE423E523E623D3290CE173
:103D2800D4290AE1D52908E1D629D8B49EEF1EF096
:103D3800A0EF1EF0ADEF1EF0E651E511E41109E128
:103D4800140EE35DD8A0ABEF1EF0ADEF1EF0F2EF5E
:103D58001DF0E307000EE45BE55BE65BE651E51169
:103D6800E41109E1150EE35DD8A0BDEF1EF0BFEF29
:103D78001EF0C7EF1EF01C0EB16FFD0EB26F24ECE3
:103D880048F04EEF20F0E3C0C8F0E4C0C9F0D89086
:103D9800C837C937D890C837C937000EC825726FD9
:103DA800010EC921736F38C174F084EC45F0E3C08B
:103DB800C8F0E4C0C9F00001D890C837C937D89016
:103DC800C837C937010EC825726F010EC921736F34
:103DD80038C1CAF039C1CBF03AC1CCF03BC1CDF003
:103DE8003CC1CEF03DC1CFF03EC1D0F03FC1D1F0D3
:103DF800CBC0CAF0CCC0CBF0CDC0CCF0CEC0CDF09B
:103E0800CFC0CEF0D0C0CFF0D1C0D0F0D16BCA5166
:103E1800746F84EC45F0E3C0C8F0E4C0C9F0000159
:103E2800D890C837C937D890C837C937020EC825BF
:103E3800726F010EC921736F38C1CAF039C1CBF056
:103E48003AC1CCF03BC1CDF03CC1CEF03DC1CFF082
:103E58003EC1D0F03FC1D1F0110E3CEF1FF0D89019
:103E6800D133D033CF33CE33CD33CC33CB33CA3346
:103E7800E82E33EF1FF0CA51746F84EC45F04B0401
:103E8800D8A449EF1FF04BEF1FF087EF1FF0E3C0F6
:103E9800C8F0E4C0C9F00001D890C837C937D89035
:103EA800C837C937030EC825726F010EC921736F51
:103EB8008FC1CAF0CA3BF00ECA1738C1CBF039C15E
:103EC800CCF03AC1CDF03BC1CEF03CC1CFF03DC102
:103ED800D0F03EC1D1F03FC1D2F0190E7DEF1FF0F6
:103EE800D890D233D133D033CF33CE33CD33CC3354
:103EF800CB33E82E74EF1FF0CB51CA11746F84ECEA
:103F080045F0BBEF1FF0E3C0C8F0E4C0C9F0000102
:103F1800D890C837C937D890C837C937030EC825CD
:103F2800726F010EC921736F38C1CAF039C1CBF065
:103F38003AC1CCF03BC1CDF03CC1CEF03DC1CFF091
:103F48003EC1D0F03FC1D1F0190EB4EF1FF0D890A8
:103F5800D133D033CF33CE33CD33CC33CB33CA3355
:103F6800E82EABEF1FF0CA51746F84EC45F0A60E33
:103F78000001B16FFD0EB26F24EC48F038C1BCF0FF
:103F880039C1BDF03AC1BEF03BC1BFF03CC1C0F081
:103F98003DC1C1F03EC1C2F03FC1C3F081EC47F062
:103FA8002E0E0001B16FFE0EB26F24EC48F0000E29
:103FB8000001E36F000EE46F000EE56F000EE66F80
:103FC800E651E511E41109E10A0EE35DD8A0EFEF2F
:103FD8001FF0F1EF1FF0F3EF1FF016EF20F0050EC2
:103FE8000001C96F0F0EC86FF10EE82EFED7C82F5B
:103FF800FCD7C92FFAD78290050E0001C96F0F0EA2
:10400800C86FF10EE82EFED7C82FFCD7C92FFAD7F4
:104018008280010E0001E327000EE423E523E62356
:10402800E4EF1FF038C174F039C175F03AC176F089
:104038003BC177F073EC2FF00001D76FD751D8B49C
:1040480028EF20F02AEF20F036EF20F0D751020DAC
:10405800000EF324D96E010EF420DA6E68C1DEFF7B
:1040680069C1DDFF520E0001C96F2B0EC86F000E2B
:10407800E82EFED7C82FFCD7C92FFAD700004EEF7D
:1040880020F08280B00EB16FFA0EB26F24EC48F0C7
:1040980036EF20F01200DBC0BCF0DCC0BDF0DDC0A4
:1040A800BEF0DEC0BFF0DFC0C0F0E0C0C1F0E1C0CC
:1040B800C2F0E2C0C3F0FBEC3AF0DBC072F0DCC047
:1040C80073F0DDC074F0DEC075F0DFC076F0E0C0DC
:1040D80077F0E1C078F0E2C079F02E0E00017A6F37
:1040E800740E7B6F5C0E7C6F3A0E7D6F000E7E6FD8
:1040F800000E7F6F000E806F000E816FFEEC2CF0BB
:1041080072C0DDF173C0DEF174C0DFF175C0E0F19B
:10411800990E0001B16FFE0EB26F24EC48F0010158
:10412800DD510001BC6F0101DE510001BD6F0101CD
:10413800DF510001BE6F0101E0510001BF6FC06B8C
:10414800C16BC26BC36BFBEC3AF0DBC0DDF1DCC0CA
:10415800DEF1DDC0DFF1DEC0E0F1F40E00017A6FC0
:10416800010E7B6F0101DD5100017C6F0101DE5101
:1041780000017D6F0101DF5100017E6F0101E051F7
:1041880000017F6F806B816B826B836B020E856F82
:10419800100E846F0CEC2AF0A30E0001B16FFE0E16
:1041A800B26F24EC48F00101DD510001BC6F010140
:1041B800DE510001BD6F0101DF510001BE6F010139
:1041C800E0510001BF6FC06BC16BC26BC36BFBECEE
:1041D8003AF0E30E0001B16FFA0EB26F24EC48F02A
:1041E800DBC0C3F1DCC0C4F1DDC0C5F1DEC0C6F17F
:1041F800DFC0C7F1E0C0C8F1E1C0C9F1E2C0CAF14F
:10420800110E11EF21F00101D890CA33C933C83318
:10421800C733C633C533C433C333E82E07EF21F0A1
:10422800C351506EDBC0C3F1DCC0C4F1DDC0C5F1C1
:10423800DEC0C6F1DFC0C7F1E0C0C8F1E1C0C9F116
:10424800E2C0CAF1C4C1C3F1C5C1C4F1C6C1C5F158
:10425800C7C1C6F1C8C1C7F1C9C1C8F1CAC1C9F14E
:10426800CA6BC3510001EC6FDBC0EDF0CE0EB16F2D
:10427800FD0EB26F24EC48F0FE0E0001B16FFE0E89
:10428800B26FEDC0B3F0B46B24EC48F0060E000139
:10429800B16FFF0EB26FECC0B3F0B46B24EC48F012
:1042A8000E0E0001B16FFF0EB26F50C0B3F0B46BC9
:1042B80024EC48F050503F0B030AD8B466EF21F0C5
:1042C80068EF21F08FEF21F050503F0B090AD8B466
:1042D80070EF21F072EF21F08FEF21F050503F0B7B
:1042E8000C0AD8B47AEF21F07CEF21F08FEF21F09F
:1042F80050503F0B060AD8B484EF21F086EF21F026
:104308008FEF21F07A0E0001B16FFD0EB26F24EC31
:1043180048F00AEF23F00001EDB795EF21F097EF91
:1043280021F09EEF21F0ECB79CEF21F09EEF21F0F9
:104338000EEF22F0EDB9A3EF21F0A5EF21F0ACEFDD
:1043480021F0ECB9AAEF21F0ACEF21F00EEF22F04A
:10435800EDBBB1EF21F0B3EF21F0BAEF21F0ECBBE8
:10436800B8EF21F0BAEF21F00EEF22F0EDBDBFEF6C
:1043780021F0C1EF21F0C8EF21F0ECBDC6EF21F02C
:10438800C8EF21F00EEF22F0EDBFCDEF21F0CFEF17
:1043980021F0D6EF21F0ECBFD4EF21F0D6EF21F0D9
:1043A8000EEF22F050BEDBEF21F0DDEF21F0E4EF5D
:1043B80021F050BCE2EF21F0E4EF21F00EEF22F003
:1043C800EDB1E9EF21F0EBEF21F0F2EF21F0ECB1E4
:1043D800F0EF21F0F2EF21F00EEF22F0EDB3F7EF5E
:1043E80021F0F9EF21F000EF22F0ECB3FEEF21F01D
:1043F80000EF22F00EEF22F0EDB505EF22F007EF07
:1044080022F016EF22F0ECA50CEF22F00EEF22F0CE
:1044180016EF22F06B0EB16FFD0EB26F24EC48F070
:104428000AEF23F0FD0EF66EF40EF76E000EF86E2E
:1044380021EECBF0070E0900F5CFDEFFE806FBE220
:1044480050C0C3F10F0E0101C317C3510001726FB1
:10445800736B000E756F030E746F50EC3FF021EE16
:10446800E2F011EED3F0090EDBCFE3FFE806FCE241
:104478000001EDA742EF22F044EF22F052EF22F0C4
:104488006F0E0101D36F0001ECA74DEF22F04FEF43
:1044980022F052EF22F02B0E0101D36F0001EDA99B
:1044A80058EF22F05AEF22F068EF22F06F0E010168
:1044B800D46F0001ECA963EF22F065EF22F068EFFA
:1044C80022F02B0E0101D46F0001EDAB6EEF22F04C
:1044D80070EF22F07EEF22F06F0E0101D56F000120
:1044E800ECAB79EF22F07BEF22F07EEF22F02B0E7F
:1044F8000101D56F0001EDAD84EF22F086EF22F0C7
:1045080094EF22F06F0E0101D66F0001ECAD8FEF32
:1045180022F091EF22F094EF22F02B0E0101D66FDA
:104528000001EDAF9AEF22F09CEF22F0AAEF22F003
:104538006F0E0101D76F0001ECAFA5EF22F0A7EFD6
:1045480022F0AAEF22F02B0E0101D76F50AEAFEF89
:1045580022F0B1EF22F0BDEF22F06F0E0101D86F0B
:1045680050ACB9EF22F0BBEF22F0BDEF22F02B0EDA
:10457800D86F0001EDA1C3EF22F0C5EF22F0D3EF11
:1045880022F06F0E0101D96F0001ECA1CEEF22F0ED
:10459800D0EF22F0D3EF22F02B0E0101D96F0001EA
:1045A800EDA3D9EF22F0DBEF22F0E9EF22F06F0E56
:1045B8000101DA6F0001ECA3E4EF22F0E6EF22F04C
:1045C800E9EF22F02B0E0101DA6F0001EDA5EFEF04
:1045D80022F0F1EF22F0FFEF22F06F0E0101DB6F06
:1045E8000001ECA5FAEF22F0FCEF22F0FFEF22F039
:1045F8002B0E0101DB6F880E0001B16FFF0EB26F49
:10460800D30EB36F010EB46F24EC48F01200000112
:10461800EB05D8A412EF23F014EF23F02DEF23F0CD
:10462800DBC0BCF0DCC0BDF0DDC0BEF0DEC0BFF05A
:10463800DFC0C0F0E0C0C1F0E1C0C2F0E2C0C3F02A
:10464800FBEC3AF0E30E0001B16FFA0EB26F24EC06
:1046580048F0E1C0EDF0E0C0ECF0DBC0C3F1DCC035
:10466800C4F1DDC0C5F1DEC0C6F1DFC0C7F1E0C0EE
:10467800C8F1E1C0C9F1E2C0CAF1210E4EEF23F042
:104688000101D890CA33C933C833C733C633C533D9
:10469800C433C333E82E44EF23F0C351506EDBC05C
:1046A800C3F1DCC0C4F1DDC0C5F1DEC0C6F1DFC0B6
:1046B800C7F1E0C0C8F1E1C0C9F1E2C0CAF1190E02
:1046C8006FEF23F0D890CA33C933C833C733C63322
:1046D800C533C433C333E82E66EF23F0C3514F6E9E
:1046E800DBC0C3F1DCC0C4F1DDC0C5F1DEC0C6F17A
:1046F800DFC0C7F1E0C0C8F1E1C0C9F1E2C0CAF14A
:10470800110E90EF23F0D890CA33C933C833C7339A
:10471800C633C533C433C333E82E87EF23F0C35100
:104728004E6EDBC0C3F1DCC0C4F1DDC0C5F1DEC034
:10473800C6F1DFC0C7F1E0C0C8F1E1C0C9F1E2C00D
:10474800CAF1C4C1C3F1C5C1C4F1C6C1C5F1C7C16D
:10475800C6F1C8C1C7F1C9C1C8F1CAC1C9F1CA6B9C
:10476800C3514D6EDBC04CF04C504D184C6E4D5043
:104778004E184D6E4E504F184E6E4F5050184F6E8B
:1047880050500001EC19506EEC51ED19EC6FEB052F
:10479800D8A4D1EF23F0D3EF23F01FEF24F0CE0EEF
:1047A800B16FFD0EB26F24EC48F0FE0E0001B16F40
:1047B800FE0EB26FEDC0B3F0B46B24EC48F0060EF9
:1047C8000001B16FFF0EB26FECC0B3F0B46B24EC14
:1047D80048F00E0E0001B16FFF0EB26F50C0B3F07B
:1047E800B46B24EC48F0160E0001B16FFF0EB26FE7
:1047F8004FC0B3F0B46B24EC48F01E0E0001B16F4B
:10480800FF0EB26F4EC0B3F0B46B24EC48F0260E26
:104818000001B16FFF0EB26F4DC0B3F0B46B24EC62
:1048280048F02E0E0001B16FFF0EB26F4CC0B3F00E
:10483800B46B24EC48F00001ED390F0BED19D46F7F
:10484800EC390F0BD419EC19D46F50380F0BD4195D
:104858005018D46F4F380F0BD4194F18D46F4E38E7
:104868000F0BD4194E18D46F4D380F0BD4194D189F
:10487800D46F4C380F0BD4194C18D46FD4510F0B7C
:10488800D46FEC390F0B0F0B01018F6F5050C46FB1
:10489800C36B4F50C325686F000EC421696F4EC0AB
:1048A800C3F1C46BC56BC66BC76BC86BC96BCA6BEE
:1048B800C8C1CAF1C7C1C9F1C6C1C8F1C5C1C7F1EC
:1048C800C4C1C6F1C3C1C5F1C46BC36BC3C138F160
:1048D800C4C139F1C5C13AF1C6C13BF1C7C13CF108
:1048E800C8C13DF1C9C13EF1CAC13FF14DC0C3F1D4
:1048F800C46BC56BC66BC76BC86BC96BCA6BC9C1C8
:10490800CAF1C8C1C9F1C7C1C8F1C6C1C7F1C5C19B
:10491800C6F1C4C1C5F1C3C1C4F1C36B3851C311D9
:10492800386F3951C411396F3A51C5113A6F3B513B
:10493800C6113B6F3C51C7113C6F3D51C8113D6FCB
:104948003E51C9113E6F3F51CA113F6F4C50382537
:10495800386F000E3921396F000E3A213A6F000E78
:104968003B213B6F000E3C213C6F000E3D213D6F0B
:10497800000E3E213E6F000E3F213F6F0001EB0508
:10498800D8A4C9EF24F0CBEF24F061EF25F0160E80
:10499800B16FFE0EB26FD4C0B3F0B46B24EC48F024
:1049A8000001D451D8B4DBEF24F0DDEF24F0E3EFBD
:1049B80024F04E0EB16FFF0EB26F24EC48F0E30EF8
:1049C8000001B16FFA0EB26F24EC48F0220E00011C
:1049D800B16FFE0EB26FEDC0B3F0B46B24EC48F0CB
:1049E8000001ED51F00BA00AD8B4FDEF24F0FFEF61
:1049F80024F005EF25F07B0EB16FFE0EB26F24ECAC
:104A080048F0E30E0001B16FFA0EB26F24EC48F0E3
:104A18002C0E0001B16FFD0EB26FEDC0C3F10F0E89
:104A28000101C317C3510001B36FB46B24EC48F004
:104A3800E60E0001B16FFD0EB26F8FC1B3F0B46B1B
:104A480024EC48F0D40E0001B16FFE0EB26FECC03A
:104A5800C3F10F0E0101C317C3510001B36FB46B4B
:104A680024EC48F0F20E0001B16FFD0EB26F68C180
:104A7800B3F069C1B4F024EC48F0C10E0001B16F85
:104A8800FE0EB26F24EC48F038C1BCF039C1BDF05D
:104A98003AC1BEF03BC1BFF03CC1C0F03DC1C1F05E
:104AA8003EC1C2F03FC1C3F081EC47F0E30E000104
:104AB800B16FFA0EB26F24EC48F00001D451D8B4AB
:104AC80068EF25F06BEF25F0010E6CEF25F0000E76
:104AD800120000019E51D96EDA6ADECFF6FFDDCFF3
:104AE800F7FFF86A0800F550250AD8A47EEF25F0EC
:104AF80080EF25F0AEEF27F09E51D96EDA6ADE2AF4
:104B0800000EDD22000E0101596F000E586F58C1CA
:104B180048F05A695B690001A36BB0EF25F0488241
:104B28009E51D96EDA6ADE2A000EDD22B0EF25F03A
:104B3800010EA36FB0EF25F09E51D96EDA6ADECF71
:104B4800F6FFDDCFF7FFF86A0800F550300AD8B451
:104B580093EF25F09CEF25F0A351D8B4B6EF25F0DC
:104B6800B8EF25F0A0EF25F09EC072F09FC073F05B
:104B78006DEC40F072C058F173C059F1010159BF92
:104B8800CAEF25F0C8EF25F0CFEF25F04880586D23
:104B9800591FD8B0592B00019E51D96EDA6ADECF61
:104BA800A9F0DDCFAAF0A9C0F6FFAAC0F7FFF86AFE
:104BB8000800F5CFA8F0ECEF25F0A94BAA2B07EFDA
:104BC80026F0690EA86F07EF26F0A86B07EF26F00E
:104BD800A851580AD8B4E5EF25F03C0AD8B4E5EF57
:104BE80025F00D0AD8B4E5EF25F0050AD8B4E1EFB1
:104BF80025F0190AD8B4E5EF25F00D0AD8B4E5EF89
:104C080025F0E9EF25F0A9C0F6FFAAC0F7FFF86A7A
:104C18000800F550640AD8B414EF26F016EF26F011
:104C28004EEF26F0A9C0F6FFAAC0F7FFF86A080001
:104C3800F550690AD8A423EF26F025EF26F074EF83
:104C480026F04EEF26F09FC0D9FFA0C0DAFFDF5054
:104C5800DF2ADF2AD96EDA6ADECFA4F0DDCFA5F02D
:104C6800000EA5BFFF0EA66FA76F59EF26F09FC0D5
:104C7800D9FFA0C0DAFF040EDF26DF5CD96EDA6A3E
:104C8800DECFA4F0DECFA5F0DECFA6F0DECFA7F012
:104C980059EF26F0A851690AD8B427EF26F0050A7B
:104CA800D8B43BEF26F059EF26F0010EA925A16FE5
:104CB800000EAA21A26F9E51D96EDA6AA1C0DEFF4A
:104CC800A2C0DDFF9DC08AF0A4C08BF0A5C08CF007
:104CD800A6C08DF0A7C08EF042EC31F0C0EF27F0EF
:104CE800A9C0F6FFAAC0F7FFF86A0800F550780ACD
:104CF800D8B481EF26F083EF26F0CBEF26F0A9C0D9
:104D0800F6FFAAC0F7FFF86A0800F550580AD8B4A9
:104D180090EF26F092EF26F0CBEF26F0A9C0F6FF31
:104D2800AAC0F7FFF86A0800F550750AD8A49FEFE3
:104D380026F0A1EF26F01EEF27F0CBEF26F09FC05C
:104D4800D9FFA0C0DAFFDF50DF2ADF2AD96EDA6A7E
:104D5800DECFA1F0DDCFA2F0A1C0A4F0A2C0A5F0E3
:104D6800A66BA76BD6EF26F09FC0D9FFA0C0DAFFCD
:104D7800040EDF26DF5CD96EDA6ADECFA4F0DECF60
:104D8800A5F0DECFA6F0DECFA7F0D6EF26F0A8512B
:104D9800690AD8B4A3EF26F0050AD8B4B8EF26F00C
:104DA800D6EF26F0010EA925A16F000EAA21A26F49
:104DB8009E51D96EDA6AA1C0DEFFA2C0DDFF09EFFD
:104DC80027F09DC08AF0A4C08BF0A5C08CF0A6C0C7
:104DD8008DF0A7C08EF0DBEC38F0C0EF27F09DC057
:104DE8008AF0A4C08BF0A5C08CF0A6C08DF0A7C037
:104DF8008EF0A9C0F6FFAAC0F7FFF86A0800F5CF41
:104E08008FF077EC36F0C0EF27F0A9C0F6FFAAC004
:104E1800F7FFF86A0800F550580AD8B4F3EF26F0FF
:104E28002D0AD8B4E5EF26F00D0AD8B4F3EF26F032
:104E38001EEF27F0A36B9E51D96EDA6ADECFF6FF1C
:104E4800DDCFF7FFF86A0800F550730AD8A42FEFF2
:104E580027F031EF27F03BEF27F09E51D96EDA6A41
:104E6800DE2A000EDD22010EA36F8AEF27F09E5185
:104E7800D96EDA6ADECFF6FFDDCFF7FFF86A0800F1
:104E8800F5506C0AD8A44BEF27F04DEF27F08AEFC6
:104E980027F09E51D96EDA6ADECFA1F0DDCFA2F0FD
:104EA800010EA127000EA223A1C0F6FFA2C0F7FFA2
:104EB800F86A0800F5506C0AD8A465EF27F067EF88
:104EC80027F08AEF27F09E51D96EDA6ADECFA1F07B
:104ED800DDCFA2F0020EA127000EA223A1C0F6FF8B
:104EE800A2C0F7FFF86A0800F550730AD8A47FEF4C
:104EF80027F081EF27F08AEF27F09E51D96EDA6A02
:104F0800030EDE26000EDD2237EF27F0A351D8B4BA
:104F180090EF27F092EF27F0A5EF27F09DC07CF0E7
:104F28009FC0D9FFA0C0DAFF020EDF26DF5CD96E72
:104F3800DA6ADECF7DF0DECF7EF069EC34F0C0EFC8
:104F480027F000019E51D96EDA6ADE2A000EDD22B2
:104F5800C0EF27F09E51D96EDA6ADECFF6FFDDCFBB
:104F6800F7FFF86A0800F550746F756B9DC076F00E
:104F7800B2EC3FF0A5EF27F012002D50D96EDA6A97
:104F8800DECFF6FFDDCFF7FFF86A0800F550250AF7
:104F9800D8A4D1EF27F0D3EF27F0F9EF29F02D505F
:104FA800D96EDA6ADE2A000EDD22000E0101596F81
:104FB800000E586F58C148F05A695B69316A02EFB0
:104FC80028F048822D50D96EDA6ADE2A000EDD22DA
:104FD80002EF28F0010E316E02EF28F02D50D96E45
:104FE800DA6ADECFF6FFDDCFF7FFF86A0800F55082
:104FF800300AD8B4E5EF27F0EEEF27F03150D8B4F7
:1050080008EF28F00AEF28F0F2EF27F02DC001F0A2
:105018002EC002F01EEC41F001C058F102C059F157
:10502800010159BF1CEF28F01AEF28F021EF28F0F2
:105038004880586D591FD8B0592B2D50D96EDA6A4F
:10504800DECF37F0DDCF38F037C0F6FF38C0F7FFD6
:10505800F86A0800F5CF36F03DEF28F0374A382ACD
:1050680058EF28F0690E366E58EF28F0366A58EF78
:1050780028F03650580AD8B436EF28F03C0AD8B48D
:1050880036EF28F00D0AD8B436EF28F0050AD8B460
:1050980032EF28F0190AD8B436EF28F00D0AD8B440
:1050A80036EF28F03AEF28F037C0F6FF38C0F7FFA0
:1050B800F86A0800F550640AD8B465EF28F067EF7D
:1050C80028F09DEF28F037C0F6FF38C0F7FFF86AE0
:1050D8000800F550690AD8A474EF28F076EF28F094
:1050E800C3EF28F09DEF28F02E50D96EDA6ADF5012
:1050F800DF2ADF2AD96EDA6ADECF32F0DDCF33F06D
:10510800000E33BEFF0E346E356EA8EF28F02E5019
:10511800D96EDA6A040EDF26DF5CD96EDA6ADECF72
:1051280032F0DECF33F0DECF34F0DECF35F0A8EF4B
:1051380028F03650690AD8B478EF28F0050AD8B4B0
:105148008BEF28F0A8EF28F0010E37242F6E000E01
:105158003820306E2D50D96EDA6A2FC0DEFF30C08D
:10516800DDFF2CC019F032C01AF033C01BF034C078
:105178001CF035C01DF014EC32F00BEF2AF037C0EC
:10518800F6FF38C0F7FFF86A0800F550780AD8B477
:10519800D0EF28F0D2EF28F018EF29F037C0F6FF4B
:1051A80038C0F7FFF86A0800F550580AD8B4DFEF9E
:1051B80028F0E1EF28F018EF29F037C0F6FF38C0E3
:1051C800F7FFF86A0800F550750AD8A4EEEF28F042
:1051D800F0EF28F06BEF29F018EF29F02E50D96E78
:1051E800DA6ADF50DF2ADF2AD96EDA6ADECF2FF0DB
:1051F800DDCF30F02FC032F030C033F0346A356A7A
:1052080023EF29F02E50D96EDA6A040EDF26DF5C10
:10521800D96EDA6ADECF32F0DECF33F0DECF34F08B
:10522800DECF35F023EF29F03650690AD8B4F2EF13
:1052380028F0050AD8B406EF29F023EF29F0010E6B
:1052480037242F6E000E3820306E2D50D96EDA6A52
:105258002FC0DEFF30C0DDFF56EF29F02CC019F05B
:1052680032C01AF033C01BF034C01CF035C01DF03A
:1052780067EC39F00BEF2AF02CC019F032C01AF0A5
:1052880033C01BF034C01CF035C01DF037C0F6FF2A
:1052980038C0F7FFF86A0800F5CF1EF01CEC37F0AD
:1052A8000BEF2AF037C0F6FF38C0F7FFF86A08009E
:1052B800F550580AD8B440EF29F02D0AD8B432EF87
:1052C80029F00D0AD8B440EF29F06BEF29F0316AC4
:1052D8002D50D96EDA6ADECFF6FFDDCFF7FFF86A18
:1052E8000800F550730AD8A47CEF29F07EEF29F066
:1052F80088EF29F02D50D96EDA6ADE2A000EDD22F9
:10530800010E316ED7EF29F02D50D96EDA6ADECF53
:10531800F6FFDDCFF7FFF86A0800F5506C0AD8A44D
:1053280098EF29F09AEF29F0D7EF29F02D50D96E90
:10533800DA6ADECF2FF0DDCF30F0010E2F26000E17
:1053480030222FC0F6FF30C0F7FFF86A0800F5508A
:105358006C0AD8A4B2EF29F0B4EF29F0D7EF29F0FE
:105368002D50D96EDA6ADECF2FF0DDCF30F0020E85
:105378002F26000E30222FC0F6FF30C0F7FFF86A44
:105388000800F550730AD8A4CCEF29F0CEEF29F025
:10539800D7EF29F02D50D96EDA6A030EDE26000EFB
:1053A800DD2284EF29F03150D8B4DDEF29F0DFEFAA
:1053B80029F0F1EF29F02CC00BF02E50D96EDA6AE3
:1053C800020EDF26DF5CD96EDA6ADECF0CF0DECFA4
:1053D8000DF020EC35F00BEF2AF02D50D96EDA6A7B
:1053E800DE2A000EDD220BEF2AF02D50D96EDA6A84
:1053F800DECFF6FFDDCFF7FFF86A0800F550036E41
:10540800046A2CC005F010EC40F0F1EF29F012000E
:10541800000E0001B16F000EB06F84518511D8A441
:1054280018EF2AF01AEF2AF01CEF2AF08CEF2BF075
:105438007CC086F0010E86177CC087F07DC088F09E
:105448007EC089F07FC08AF080C08BF081C08CF06C
:1054580082C08DF083C08EF088C087F089C088F044
:105468008AC089F08BC08AF08CC08BF08DC08CF01C
:105478008EC08DF08E6B010E8717D89087358F6F91
:105488007CC090F07DC091F07EC092F07FC093F018
:1054980080C094F081C095F082C096F083C097F0E8
:1054A800140E60EF2AF0D8909733963395339433DF
:1054B8009333923391339033E82E57EF2AF0010E4D
:1054C8009017D8909037D89090377CC098F07DC0CE
:1054D80099F07EC09AF07FC09BF080C09CF081C09C
:1054E8009DF082C09EF083C09FF01A0E85EF2AF0CF
:1054F800D8909F339E339D339C339B339A33993393
:105508009833E82E7CEF2AF0010E9817D890983738
:10551800D8909837D89098377CC0A0F07DC0A1F07B
:105528007EC0A2F07FC0A3F080C0A4F081C0A5F027
:1055380082C0A6F083C0A7F01F0EACEF2AF0D89067
:10554800A733A633A533A433A333A233A133A0339F
:10555800E82EA3EF2AF0010EA017A039F00B98113E
:1055680090118F118611AD6FAD5104EC47F0000119
:10557800AC6FB0510F083F0BAF6FAFC086F0070E8E
:105588008617AFC072F0736B000E756F080E746FDC
:1055980050EC3FF0000172517A25D96E73517B218E
:1055A800DA6EDF50876F862BDCEF2AF0D8908733CE
:1055B800862FDAEF2AF000018751AE6F7CC086F0A3
:1055C8007DC087F07EC088F07FC089F080C08AF0F7
:1055D80081C08BF082C08CF083C08DF0100EFEEF7E
:1055E8002AF0D8908D338C338B338A3389338833C0
:1055F80087338633E82EF5EF2AF07CC08EF07DC025
:105608008FF07EC090F07FC091F080C092F081C092
:1056180093F082C094F083C095F0200E1DEF2BF01C
:10562800D8909533943393339233913390338F33A7
:105638008E33E82E14EF2BF0AEC096F0976B986B74
:10564800996B8E5196199A6F8F5197199B6F90513C
:1056580098199C6F915199199D6F86519A199E6F4F
:1056680087519B199F6F88519C19A06F89519D196B
:10567800A16FAC519E19A86F9F51A96FA051AA6F35
:10568800A151AB6F010EA815866F000EA915876F83
:10569800000EAA15886F000EAB15896F8A6B8B6B8D
:1056A8008C6B8D6BD8907C358E6F7D358F6F7E358A
:1056B800906F7F35916F8035926F8135936F82350A
:1056C800946F8335956F86518E117C6F87518F113A
:1056D8007D6F885190117E6F895191117F6F8A512A
:1056E8009211806F8B519311816F8C519411826F3D
:1056F8008D519511836FB04BB12B8451B05D85519D
:10570800B159D8A08AEF2BF08CEF2BF01CEF2AF0C0
:105718001200010E00018E6F8280000E8D6F000E48
:105728008C6F0101916B906BF29E290E0001896FBD
:10573800960E886F7F0EE82EFED7882FFCD7892F0C
:10574800FAD7000E01014C6F000E4D6F000E4E6F20
:10575800000E4F6F91C18FF000018E51D8B4B7EF92
:105768002BF0B9EF2BF0BFEF2BF01FEC3EF0000150
:10577800906FC3EF2BF0ECEC3EF00001906F8E6B56
:1057880001019951D8B4CBEF2BF0CDEF2BF0D2EF2C
:105798002BF0010EDEEC48F0FDEF2CF00001900537
:1057A800D8B4D9EF2BF0DBEF2BF0F2EF2BF0040E8F
:1057B8009019D8B4E2EF2BF0E4EF2BF0F2EF2BF0D6
:1057C800170E9019D8B4EBEF2BF0EDEF2BF0F2EFAA
:1057D8002BF0020EDEEC48F0FDEF2CF09005D8A47B
:1057E800F8EF2BF0FAEF2BF0DBEF2CF0ECEC3EF0BF
:1057F8000101916F9951D8B404EF2CF006EF2CF009
:105808000BEF2CF0040EDEEC48F0FDEF2CF000015D
:105818008F29D8A412EF2CF014EF2CF015EF2CF0F0
:105828008F69ECEC3EF00101906F9951D8B41FEFED
:105838002CF021EF2CF026EF2CF0050EDEEC48F0D2
:10584800FDEF2CF09051FF0A9119D8B42EEF2CF0EF
:1058580030EF2CF035EF2CF0150E4CEC44F0B0EF97
:105868002BF0010E0001E36F000EE46F000EE56FF0
:10587800000EE66F61EF2CF0ECEC3EF00001906F4B
:1058880001019951D8B44BEF2CF04DEF2CF052EFA9
:105898002CF0060EDEEC48F0FDEF2CF0000E0001B7
:1058A800E325D96E050EE421DA6E90C0DFFF010E04
:1058B800E327000EE423E523E623E651E511E4118E
:1058C80009E1830EE35DD8A06CEF2CF06EEF2CF0AD
:1058D80040EF2CF0000E736F800E726F66EC42F092
:1058E80072C06CF173C06DF1050181510001896FBF
:1058F800886B050182510001882501016A6F050145
:10590800000E0001892101016B6F6A516C1909E1D0
:105918006B516D19D8B493EF2CF095EF2CF09AEFEA
:105928002CF0070EDEEC48F0FDEF2CF000018605A8
:105938008711D8A4A2EF2CF0A4EF2CF0BFEF2CF025
:105948004CC188F04DC189F04EC18AF04FC18BF02F
:10595800070ED890883789378A378B37E82EADEF0E
:105968002CF088C07AF089C07BF08AC07CF08BC0AC
:105978007DF064EC30F0020E000186198711D8A47E
:10598800C8EF2CF0CAEF2CF0DBEF2CF04CC188F0FC
:105998004DC189F0070ED89088378937E82ECFEFA8
:1059A8002CF088C076F089C077F0C3EC44F0010E83
:1059B80001014C27000E4D234E234F23060E4CECBD
:1059C80044F082A0EAEF2CF0EDEF2CF08280EEEFAD
:1059D8002CF0829001014F514E1109E1040E4D5DEA
:1059E800D8A0F9EF2CF0FBEF2CF0AEEF2BF0F28EF5
:1059F8008290120072C0CBF073C0CCF074C0CDF0AE
:105A080075C0CEF0000E0001C76F000EC86F000E03
:105A1800C96F000ECA6FCBC082F0010E8217CC513D
:105A2800010B020DF3CF83F0CBC084F0CCC085F01E
:105A3800CDC086F0CEC087F0140E28EF2DF0D89098
:105A48008733863385338433E82E23EF2DF0845152
:105A5800010B040DF3CF88F0CBC089F0CCC08AF0DD
:105A6800CDC08BF0CEC08CF01A0E40EF2DF0D89040
:105A78008C338B338A338933E82E3BEF2DF08951F1
:105A8800010B080DF3CF8DF0CBC08EF0CCC08FF09A
:105A9800CDC090F0CEC091F01F0E58EF2DF0D890E9
:105AA800913390338F338E33E82E53EF2DF08E5190
:105AB800010B100DF3508D25882583258225926FC3
:105AC8002E0E936F740E946F5C0E956F3A0E966F50
:105AD800926771EF2DF079EF2DF096359633953367
