:0400000012EF03F008
:100008005382E1CF64F0E2CF65F0D9CF66F0DACF62
:1000180067F0F3CF68F0F4CF69F0F6CF6AF0F7CF66
:100028006BF0F8CF6CF0F5CF6DF0F2A61EEF00F094
:1000380020EF00F0FCEF02F0F2A025EF00F027EF30
:1000480000F0FCEF02F08150D650D7CF60F00001ED
:10005800616B626B636B62C063F061C062F060C029
:1000680061F0606B6025E56F000E6121E66F000EA0
:100078006221E76F000E6321E86FD76AD66A030E24
:10008800EA19D8A44AEF00F04CEF00F068EF00F04E
:10009800E851E7110BE12D0EE55D010EE659D8A0F8
:1000A80058EF00F05AEF00F068EF00F0760E3F6E60
:1000B800FF0E406EE5C041F0E6C042F0E7C043F0F5
:1000C800E8C044F076EC2DF0484A492A010158511D
:1000D800D8A471EF00F073EF00F0A7EF00F0000173
:1000E800E851E7110BE1700EE55D920EE659D8A0D4
:1000F80080EF00F082EF00F0A7EF00F0E851E71181
:1001080009E19F0EE55D940EE659D8B08EEF00F038
:1001180090EF00F0A7EF00F0000E496E010E486E58
:10012800010E01015C6FE5C03CF1E6C03DF1010E36
:10013800586F20EED5F0070EDE6AE806FDE2010EE4
:100148005B6FFBEF02F00001E851E7110BE18C0E49
:10015800E55D0A0EE659D8A0B4EF00F0B6EF00F05E
:10016800AFEF01F0E851E71109E1BB0EE55D0C0EB8
:10017800E659D8B0C2EF00F0C4EF00F0AFEF01F0DD
:1001880001015851D8A4CBEF00F0CDEF00F0D1EF2A
:1001980000F0FBEF02F0FBEF02F06C0E481849107C
:1001A800D8A4D9EF00F0DBEF00F007EF01F05C6BAB
:1001B8005B6BD8904834D96E4934DA6E820ED926F2
:1001C800050EDA22E5C0DEFFE6C0DDFF000E48249A
:1001D800D96E040E4920DA6EDF6A48C036F149C08C
:1001E80037F1586B5C6B576B5B6B6C0E481849109A
:1001F800D8A401EF01F003EF01F0FBEF02F0010ECC
:100208005D6FFBEF02F0020E48184910D8B40FEFEB
:1002180001F011EF01F01BEF01F0030E481849102F
:10022800D8A419EF01F01BEF01F07AEF01F0020EEC
:1002380048184910D8A423EF01F025EF01F02BEF5F
:1002480001F0E5C03AF1E6C03BF1FBEF02F0030E26
:1002580048184910D8A433EF01F035EF01F0AFEF9B
:1002680001F0D8904834D96E4934DA6E7E0ED9261A
:10027800050EDA223CC1DEFF3DC1DDFFFE0E48243B
:10028800D96E030E4920DA6EDF6AD8904834D96EE9
:100298004934DA6E800ED926050EDA223AC1DEFF1D
:1002A8003BC1DDFFFF0E4824D96E030E4920DA6EEC
:1002B800DF6AD8904834D96E4934DA6E820ED9266E
:1002C800050EDA22E5C0DEFFE6C0DDFF000E482499
:1002D800D96E040E4920DA6EDF6A010E576F000EE0
:1002E800396F000E386F5B6BFBEF02F049BE88EF89
:1002F80001F0495007E16C0E485CD8B086EF01F078
:1003080088EF01F09DEF01F0D8904834D96E493458
:10031800DA6E820ED926050EDA22E5C0DEFFE6C0C7
:10032800DDFF000E4824D96E040E4920DA6E010E56
:10033800DF6E1BEC2EF048C036F149C037F1950E40
:100348003F6EFF0E406E48C041F049C042F076EC67
:100358002DF0FBEF02F001015751D8B4B6EF01F0D0
:10036800B8EF01F0FBEF02F00001E851E7110BE1F3
:10037800930EE55D060EE659D8A0C5EF01F0C7EF6C
:1003880001F05BEF02F0E851E71109E1C20EE55D0B
:10039800080EE659D8B0D3EF01F0D5EF01F05BEFC6
:1003A80002F049BEE3EF01F0495007E1960E485CC0
:1003B800D8B0E1EF01F0E3EF01F0F7EF01F0D890EA
:1003C8004834D96E4934DA6E820ED926050EDA22FF
:1003D800E5C0DEFFE6C0DDFF000E4824D96E040E3E
:1003E8004920DA6EDF6A48B0FCEF01F0FEEF01F059
:1003F80003EF02F0010E01015A6FFBEF02F0010159
:100408005A51D8A40AEF02F00CEF02F033EF02F0D1
:10041800384B392BD8900001D535D56FD635D66FE6
:10042800D735D76FD835D86FD935D96FDA35DA6F70
:10043800DB35DB6FDC35DC6F010ED511D56FD6519E
:10044800D66FD751D76FD851D86FD951D96FDA51E4
:10045800DA6FDB51DB6FDC51DC6FFBEF02F0000E73
:10046800496E000E486E1BEC2EF0020E0001EA19D0
:10047800D8A441EF02F043EF02F0CFEF00F0000EF6
:100488004824D96E040E4920DA6E020EDF6E1E0E65
:100498003F6EFF0E406EE5C041F0E6C042F0E7C097
:1004A80043F0E8C044F076EC2DF0FBEF02F0E851A1
:1004B800E7110BE1A70EE55D020EE659D8A067EF3C
:1004C80002F069EF02F0EBEF02F0E851E71109E101
:1004D800D60EE55D040EE659D8B075EF02F077EF59
:1004E80002F0EBEF02F049BE85EF02F0495007E158
:1004F800960E485CD8B083EF02F085EF02F099EFD2
:1005080002F0D8904834D96E4934DA6E820ED92672
:10051800050EDA22E5C0DEFFE6C0DDFF000E482446
:10052800D96E040E4920DA6EDF6A48B09EEF02F0F9
:10053800A0EF02F0A4EF02F001015A6BFBEF02F00A
:1005480001015A05D8A4ABEF02F0ADEF02F0C3EFFA
:1005580002F0384B392BD8900001D535D56FD635F8
:10056800D66FD735D76FD835D86FD935D96FDA3533
:10057800DA6FDB35DB6FDC35DC6FFBEF02F0000E8A
:10058800496E000E486E1BEC2EF0020E0001EA19AF
:10059800D8A4D1EF02F0D3EF02F0CFEF00F0000EB5
:1005A8004824D96E040E4920DA6E030EDF6E1E0E43
:1005B8003F6EFF0E406EE5C041F0E6C042F0E7C076
:1005C80043F0E8C044F076EC2DF0FBEF02F01BECB2
:1005D8002EF048C036F149C037F18E0E3F6EFF0E3F
:1005E800406E48C041F049C042F076EC2DF0F290E0
:1005F8006DC0F5FF6CC0F8FF6BC0F7FF6AC0F6FF6F
:1006080069C0F4FF68C0F3FF67C0DAFF66C0D9FFAE
:1006180065C0E2FF64C0E1FF53921100DDEF27F0EF
:10062800C5C06EF0C6C06FF0F70E0001706FFF0E08
:10063800716FB5EC29F000016E516F11D8A427EF46
:1006480003F029EF03F02DEF03F0B3EC1DF02FEFCB
:1006580008F0C5C06EF0C6C06FF0E70E706FFF0EF1
:10066800716FB5EC29F000016E516F11D8A43FEFFE
:1006780003F041EF03F056EF03F0EA2B030EEA65AF
:1006880048EF03F04AEF03F04BEF03F0EA6BE80E94
:10069800AC6FFE0EAD6FEAC0AEF0AF6B5BEC2DF049
:1006A8002FEF08F0C5C06EF0C6C06FF0E90E706F8E
:1006B800FF0E716FB5EC29F000016E516F11D8A4CF
:1006C80068EF03F06AEF03F0B2EF03F0E92B020ED4
:1006D800E919D8A472EF03F074EF03F075EF03F093
:1006E800E96B7F0EAC6FFD0EAD6FE951040DE00EA6
:1006F800F324D96E010EF420DA6EDECFAEF0DECF31
:10070800AFF0DECFB0F0DECFB1F05BEC2DF0000142
:10071800E951D8A492EF03F094EF03F09EEF03F0B1
:10072800670EAC6FFD0EAD6F5BEC2DF0060E7D6EA7
:10073800820EAF6E0001E905D8A4A5EF03F0A7EF7C
:1007480003F02FEF08F0C30EAC6FFE0EAD6F5BEC3D
:100758002DF07D6A440EAF6E2FEF08F0C5C06EF025
:10076800C6C06FF0EB0E706FFF0E716FB5EC29F01D
:1007780000016E516F11D8A4C4EF03F0C6EF03F067
:10078800D5EF03F09B0EAC6FF80EAD6F5BEC2DF060
:10079800000E0001836F010E826F85EC14F02FEFBD
:1007A80008F0C5C06EF0C6C06FF0ED0E706FFF0E9A
:1007B800716FB5EC29F000016E516F11D8A4E7EF05
:1007C80003F0E9EF03F0F8EF03F0F80EAC6FF80E62
:1007D800AD6F5BEC2DF0000E0001836F020E826F8F
:1007E80085EC14F02FEF08F0C5C06EF0C6C06FF0AE
:1007F800EF0E706FFF0E716FB5EC29F000016E51AE
:100808006F11D8A40AEF04F00CEF04F010EF04F015
:1008180008EC13F02FEF08F0C5C06EF0C6C06FF0FB
:10082800F10E706FFF0E716FB5EC29F000016E517B
:100838006F11D8A422EF04F024EF04F0D5EF04F0F0
:10084800F29E050EAC6FFE0EAD6F5BEC2DF09AEFCD
:1008580004F09C0E0001AC6FFF0EAD6F5BEC2DF049
:10086800C1EF04F04D0E0001AC6FFE0EAD6F2EC14E
:10087800AEF02FC1AFF030C1B0F031C1B1F05BECD8
:100888002DF0C1EF04F0E90E0001AC6FFC0EAD6F66
:100898002EC1AEF02FC1AFF030C1B0F031C1B1F010
:1008A8005BEC2DF0C1EF04F0580E0001AC6FFB0EAD
:1008B800AD6F5BEC2DF0C1EF04F07C0E0001AC6F66
:1008C800FC0EAD6F5BEC2DF0C1EF04F0E20E000101
:1008D800AC6FFA0EAD6F5BEC2DF0C1EF04F06E0E4D
:1008E8000001AC6FFE0EAD6F5BEC2DF0C1EF04F0B4
:1008F800FE0E0001AC6FFE0EAD6F5BEC2DF0C1EF8C
:1009080004F0030E0001AC6FFD0EAD6F5BEC2DF033
:10091800C1EF04F0FF0E0001AC6FFC0EAD6F50C0CC
:10092800AEF0AF6B5BEC2DF0C1EF04F05050000A55
:10093800D8B42DEF04F0010AD8B436EF04F0030A56
:10094800D8B447EF04F0010AD8B458EF04F0070A06
:10095800D8B461EF04F0010AD8B46AEF04F0030ACE
:10096800D8B473EF04F0010AD8B47CEF04F00F0A8E
:10097800D8B485EF04F08EEF04F0970E0001AC6F49
:10098800FD0EAD6F65C1AEF0AF6B5BEC2DF0CC0E1C
:100998000001AC6FFC0EAD6F5BEC2DF0F28E2FEF0B
:1009A80008F0C5C06EF0C6C06FF0F30E706FFF0E92
:1009B800716FB5EC29F000016E516F11D8A4E7EF03
:1009C80004F0E9EF04F068EF05F0F29E7E0EAC6FDC
:1009D800FE0EAD6F4FC0AEF0AF6B5BEC2DF0F00EBE
:1009E8000001AC6FFD0EAD6F5FC1AEF0AF6B5BEC9D
:1009F8002DF0180E0001AC6FFE0EAD6F44C1AEF0C5
:100A080045C1AFF05BEC2DF0010E0001E16F000E67
:100A1800E26F000EE36F000EE46FE451E311E211A0
:100A280009E1830EE15DD8A01CEF05F01EEF05F08B
:100A380020EF05F049EF05F0CF0EAC6FFF0EAD6F5C
:100A4800E1C0AEF0E2C0AFF0E3C0B0F0E4C0B1F096
:100A58005BEC2DF0C70E0001AC6FFF0EAD6F000E02
:100A6800E125D96E050EE221DA6EDF50C76FC75156
:100A7800AE6FAF6B5BEC2DF0010E0001E127000EAD
:100A8800E223E323E42311EF05F0CC0EAC6FFC0E58
:100A9800AD6F5BEC2DF03C0E0001AC6FFE0EAD6F40
:100AA80042C1AEF043C1AFF05BEC2DF08D0E0001FA
:100AB800AC6FFE0EAD6F40C1AEF041C1AFF05BEC64
:100AC8002DF0F28E2FEF08F0C5C06EF0C6C06FF0A3
:100AD8003A0E706FFE0E716FB5EC29F000016E5181
:100AE8006F11D8A47AEF05F07CEF05F0EDEF05F073
:100AF800F29E000EE16F000EE26F000EE36F000E33
:100B0800E46FE451E311E21109E1C80EE15DD8A0F8
:100B180090EF05F092EF05F094EF05F0EAEF05F09D
:100B2800E1C0B7F0E2C0B8F0E3C0B9F0E4C0BAF091
:100B38003DEC1AF0CF0E0001AC6FFF0EAD6FE1C0B7
:100B4800AEF0E2C0AFF0E3C0B0F0E4C0B1F05BECEF
:100B58002DF0B30E0001AC6FFF0EAD6F00C3AEF009
:100B6800AF6B5BEC2DF0010E0001E125C76F000EA5
:100B7800E221C86F000EE321C96F000EE421CA6F9D
:100B88000F0EC715CB6F000EC815CC6F000EC91518
:100B9800CD6F000ECA15CE6FCB51CC11CD11CE1131
:100BA800D8A4D9EF05F0DBEF05F0E1EF05F0CC0EA6
:100BB800AC6FFC0EAD6F5BEC2DF0010E0001E12770
:100BC800000EE223E323E42385EF05F0F28E2FEFF6
:100BD80008F0C5C06EF0C6C06FF0F50E706FFF0E5E
:100BE800716FB5EC29F000016E516F11D8A4FFEFB9
:100BF80005F001EF06F087EF06F0F29E000EE16FB8
:100C0800000EE26F000EE36F000EE46FE451E31193
:100C18000AE1E129030EE259D8A015EF06F017EF13
:100C280006F019EF06F084EF06F0E1C06EF0E2C0BE
:100C38006FF083EC2DF00101C56F0F0E0001E11577
:100C4800C76F000EE215C86F000EE315C96F000EDE
:100C5800E415CA6FC751C811C911CA11D8A437EF12
:100C680006F039EF06F047EF06F0D30EAC6FFF0E33
:100C7800AD6FE1C0AEF0E2C0AFF0E3C0B0F0E4C0E9
:100C8800B1F05BEC2DF0B30E0001AC6FFF0EAD6F51
:100C9800C5C1AEF0AF6B5BEC2DF0010E0001E12594
:100CA800C76F000EE221C86F000EE321C96F000E66
:100CB800E421CA6F0F0EC715CB6F000EC815CC6F95
:100CC800000EC915CD6F000ECA15CE6FCB51CC11D1
:100CD800CD11CE11D8A473EF06F075EF06F07BEFB7
:100CE80006F0CC0EAC6FFC0EAD6F5BEC2DF0010E78
:100CF8000001E127000EE223E323E4230AEF06F0D4
:100D0800F28E2FEF08F0C5C06EF0C6C06FF0F90E76
:100D1800706FFF0E716FB5EC29F000016E516F1105
:100D2800D8A499EF06F09BEF06F026EF07F0010133
:100D3800CA6BF29EA90E0001AC6FFE0EAD6F5BECA4
:100D48002DF0000E0001E16F000EE26F000EE36F60
:100D5800000EE46FF2EF06F0E1C0B7F0E2C0B8F0C1
:100D6800E3C0B9F0E4C0BAF0800EBB6F05EC1BF02D
:100D7800800E0001E125E16F000EE221E26F000E16
:100D8800E321E36F000EE421E46F000E0101C66F5A
:100D9800000EC76F000EC86F000EC96FC951C81189
:100DA800C71109E1800EC65DD8A0DDEF06F0DFEFC0
:100DB80006F0E1EF06F0F2EF06F0000EC625D96E58
:100DC800030EC721DA6EDF50CA19CA6F010EC62793
:100DD800000EC723C823C923D2EF06F00001E4514F
:100DE8000CE1E129FF0EE259010EE359D8A0FFEF0B
:100DF80006F001EF07F0B0EF06F0360EAC6FFD0E0F
:100E0800AD6FCAC1AEF0AF6B5BEC2DF00101CA51FA
:100E1800D8A411EF07F013EF07F01CEF07F0A90EA5
:100E28000001AC6FFF0EAD6F5BEC2DF023EF07F008
:100E3800640E0001AC6FFF0EAD6F5BEC2DF0F28E0F
:100E48002FEF08F0C5C06EF0C6C06FF0FB0E706FD4
:100E5800FF0E716FB5EC29F000016E516F11D8A427
:100E680038EF07F03AEF07F013EF08F0000E010132
:100E7800CB6F000ECC6F000ECD6F000ECE6FF29EC2
:100E880002EF08F0CBC1B7F0CCC1B8F0CDC1B9F0D2
:100E9800CEC1BAF0800E0001BB6F05EC1BF0000E4E
:100EA8000001E16F000EE26F000EE36F000EE46FC9
:100EB800E451E311E21109E1800EE15DD8A067EF8A
:100EC80007F069EF07F06BEF07F0F5EF07F00101A6
:100ED800CB510001E1250101C16FCC510001E22194
:100EE8000101C26FCD510001E3210101C36FCE5151
:100EF8000001E4210101C46F0F0E0001E115C76F65
:100F0800000EE215C86F000EE315C96F000EE41558
:100F1800CA6FC751C811C911CA11D8A496EF07F0F2
:100F280098EF07F0A9EF07F0C1C1B7F0C2C1B8F058
:100F3800C3C1B9F0C4C1BAF0B9EC2CF0740E000109
:100F4800AC6FFF0EAD6F5BEC2DF0CB0E0001AC6FFC
:100F5800FF0EAD6F000EE125D96E030EE221DA6EA9
:100F6800DF50C76FC751AE6FAF6B5BEC2DF0010E52
:100F78000001E125C76F000EE221C86F000EE321D2
:100F8800C96F000EE421CA6F0F0EC715CB6F000E94
:100F9800C815CC6F000EC915CD6F000ECA15CE6FDF
:100FA800CB51CC11CD11CE11D8A4DDEF07F0DFEF76
:100FB80007F0E5EF07F0CC0EAC6FFC0EAD6F5BEC05
:100FC8002DF0E40E00D000D0E82EFCD700D000D0E1
:100FD800010E0001E127000EE223E323E4235CEF86
:100FE80007F0800E0101CB25CB6F000ECC21CC6F12
:100FF800000ECD21CD6F000ECE21CE6FCE510CE16B
:10100800CB29FF0ECC59010ECD59D8A00EEF08F010
:1010180010EF08F046EF07F0F28E2FEF08F0C5C08A
:101028006EF0C6C06FF0FD0E706FFF0E716FB5ECFD
:1010380029F000016E516F11D8A425EF08F027EFB1
:1010480008F029EF08F02FEF08F0DB0EAC6FFD0E6B
:10105800AD6F5BEC2DF01200D5C0B7F0D6C0B8F07C
:10106800D7C0B9F0D8C0BAF0D9C0BBF0DAC0BCF06C
:10107800DBC0BDF0DCC0BEF0040ED8900001B7376D
:10108800B837B937BA37BB37BC37BD37BE37E82EA4
:1010980041EF08F0B7C0C1F0B8C0C2F0B9C0C3F0A2
:1010A800BAC0C4F0BBC0C5F0BCC0C6F0BDC0C7F074
:1010B800BEC0C8F020EEC1F0F00EDE18C16FFF0E02
:1010C800DE18C26FFF0EDE18C36FFF0EDE18C46F86
:1010D800FF0EDE18C56FFF0EDE18C66FFF0EDE1896
:1010E800C76F000EDE18C86FC1C0B7F0C2C0B8F035
:1010F800C3C0B9F0C4C0BAF0C5C0BBF0C6C0BCF02C
:10110800C7C0BDF0C8C0BEF0310E94EF08F0D8904B
:10111800BE33BD33BC33BB33BA33B933B833B7335B
:10112800E82E8BEF08F0B7C0C9F0B8C0CAF0B9C054
:10113800CBF0BAC0CCF0BBC0CDF0BCC0CEF0BDC0C7
:10114800CFF0BEC0D0F0C939F00BF00BEF6F040E32
:10115800B76FC9C0B8F0CAC0B9F0CBC0BAF0CCC03C
:10116800BBF0CDC0BCF0CEC0BDF0CFC0BEF0D0C08B
:10117800BFF0B767C2EF08F0CEEF08F0BF35BF3356
:10118800BE33BD33BC33BB33BA33B933B833B72FEF
:10119800BDEF08F00001B8510F0BF06FC1C0B7F0F8
:1011A800C2C0B8F0C3C0B9F0C4C0BAF0C5C0BBF083
:1011B800C6C0BCF0C7C0BDF0C8C0BEF0290EEEEF77
:1011C80008F0D890BE33BD33BC33BB33BA33B93320
:1011D800B833B733E82EE5EF08F0B7C0C9F0B8C0A8
:1011E800CAF0B9C0CBF0BAC0CCF0BBC0CDF0BCC01F
:1011F800CEF0BDC0CFF0BEC0D0F0040EB76FC9C0EE
:10120800B8F0CAC0B9F0CBC0BAF0CCC0BBF0CDC002
:10121800BCF0CEC0BDF0CFC0BEF0D0C0BFF0B76745
:1012280018EF09F024EF09F0BF35BF33BE33BD33E3
:10123800BC33BB33BA33B933B833B72F13EF09F024
:101248000001B8510F0BEF11EF6FC939F00BF00B1C
:10125800EE6FC1C0B7F0C2C0B8F0C3C0B9F0C4C027
:10126800BAF0C5C0BBF0C6C0BCF0C7C0BDF0C8C0AE
:10127800BEF0210E49EF09F0D890BE33BD33BC3320
:10128800BB33BA33B933B833B733E82E40EF09F07C
:10129800B7C0C9F0B8C0CAF0B9C0CBF0BAC0CCF07A
:1012A800BBC0CDF0BCC0CEF0BDC0CFF0BEC0D0F04A
:1012B800040EB76FC9C0B8F0CAC0B9F0CBC0BAF055
:1012C800CCC0BBF0CDC0BCF0CEC0BDF0CFC0BEF02E
:1012D800D0C0BFF0B76773EF09F07FEF09F0BF35F3
:1012E800BF33BE33BD33BC33BB33BA33B933B83382
:1012F800B72F6EEF09F00001B8510F0BEE11EE6F2A
:10130800C939F00BF00BED6FC1C0B7F0C2C0B8F02F
:10131800C3C0B9F0C4C0BAF0C5C0BBF0C6C0BCF009
:10132800C7C0BDF0C8C0BEF0190EA4EF09F0D89030
:10133800BE33BD33BC33BB33BA33B933B833B73339
:10134800E82E9BEF09F0B7C0C9F0B8C0CAF0B9C021
:10135800CBF0BAC0CCF0BBC0CDF0BCC0CEF0BDC0A5
:10136800CFF0BEC0D0F0040EB76FC9C0B8F0CAC085
:10137800B9F0CBC0BAF0CCC0BBF0CDC0BCF0CEC089
:10138800BDF0CFC0BEF0D0C0BFF0B767CEEF09F058
:10139800DAEF09F0BF35BF33BE33BD33BC33BB33DF
:1013A800BA33B933B833B72FC9EF09F00001B851D0
:1013B8000F0BED11ED6FC939F00BF00BEC6FC1C0DD
:1013C800B7F0C2C0B8F0C3C0B9F0C4C0BAF0C5C065
:1013D800BBF0C6C0BCF0C7C0BDF0C8C0BEF0110E9F
:1013E800FFEF09F0D890BE33BD33BC33BB33BA33FB
:1013F800B933B833B733E82EF6EF09F0B7C0C9F000
:10140800B8C0CAF0B9C0CBF0BAC0CCF0BBC0CDF000
:10141800BCC0CEF0BDC0CFF0BEC0D0F0040EB76FD8
:10142800C9C0B8F0CAC0B9F0CBC0BAF0CCC0BBF0E4
:10143800CDC0BCF0CEC0BDF0CFC0BEF0D0C0BFF0B4
:10144800B76729EF0AF035EF0AF0BF35BF33BE336F
:10145800BD33BC33BB33BA33B933B833B72F24EFFA
:101468000AF00001B8510F0BEC11EC6FC939F00B01
:10147800F00BEB6FC1C0B7F0C2C0B8F0C3C0B9F091
:10148800C4C0BAF0C5C0BBF0C6C0BCF0C7C0BDF090
:10149800C8C0BEF0B8C0B7F0B9C0B8F0BAC0B9F0AB
:1014A800BBC0BAF0BCC0BBF0BDC0BCF0BEC0BDF094
:1014B800BE6BB7C0C9F0B8C0CAF0B9C0CBF0BAC0EB
:1014C800CCF0BBC0CDF0BCC0CEF0BDC0CFF0BEC02C
:1014D800D0F0040EB76FC9C0B8F0CAC0B9F0CBC01D
:1014E800BAF0CCC0BBF0CDC0BCF0CEC0BDF0CFC010
:1014F800BEF0D0C0BFF0B76784EF0AF090EF0AF0F3
:10150800BF35BF33BE33BD33BC33BB33BA33B93356
:10151800B833B72F7FEF0AF00001B8510F0BEB116A
:10152800EB6FC939F00BF00B526EC1C0C9F0C2C0E5
:10153800CAF0C3C0CBF0C4C0CCF0C5C0CDF0C6C0A3
:10154800CEF0C7C0CFF0C8C0D0F0040EB76FC9C086
:10155800B8F0CAC0B9F0CBC0BAF0CCC0BBF0CDC0AF
:10156800BCF0CEC0BDF0CFC0BEF0D0C0BFF0B767F2
:10157800C0EF0AF0CCEF0AF0BF35BF33BE33BD333E
:10158800BC33BB33BA33B933B833B72FBBEF0AF028
:101598000001B8510F0B5210526E03EC2BF00001F2
:1015A800C06FEA51D8B4DBEF0AF0DDEF0AF079EF4B
:1015B8000BF0C051D8B4E3EF0AF0E5EF0AF0EDEF15
:1015C8000AF0AE0EAC6FFF0EAD6F5BEC2DF0F3EFD3
:1015D8000AF0B80EAC6FFF0EAD6F5BEC2DF0E20EAB
:1015E8000001AC6FFF0EAD6FF0C0AEF0AF6B5BECFF
:1015F8002DF0E50E0001AC6FFF0EAD6F5BEC2DF02A
:10160800E20E0001AC6FFF0EAD6FEFC0AEF0AF6B36
:101618005BEC2DF0E50E0001AC6FFF0EAD6F5BECDF
:101628002DF0E20E0001AC6FFF0EAD6FEEC0AEF014
:10163800AF6B5BEC2DF0E50E0001AC6FFF0EAD6FEC
:101648005BEC2DF0E20E0001AC6FFF0EAD6FEDC04C
:10165800AEF0AF6B5BEC2DF0E50E0001AC6FFF0E4A
:10166800AD6F5BEC2DF0E20E0001AC6FFF0EAD6FBD
:10167800ECC0AEF0AF6B5BEC2DF0E50E0001AC6F8B
:10168800FF0EAD6F5BEC2DF0E20E0001AC6FFF0EAC
:10169800AD6FEBC0AEF0AF6B5BEC2DF0E50E00016B
:1016A800AC6FFF0EAD6F5BEC2DF0E20E0001AC6F7E
:1016B800FF0EAD6F52C0AEF0AF6B5BEC2DF0DF0EDE
:1016C8000001AC6FFF0EAD6F5BEC2DF00001C05157
:1016D800D8A471EF0BF073EF0BF079EF0BF0CC0E91
:1016E800AC6FFC0EAD6F5BEC2DF0120069EC2DF0C9
:1016F800808A506A0F015D6B5C6BD08EF19EF18021
:10170800F290F286F28E5A89010E0001E96FE951D2
:10171800D8A491EF0BF093EF0BF097EF0BF0060EB8
:101728007D6E820EAF6EE905D8A49DEF0BF09FEF9A
:101738000BF0A2EF0BF07D6A440EAF6E920ED56EE1
:10174800330E726FFB0E736FCDEC22F0B60E0001F4
:10175800726FFE0E736FCDEC22F09F0E0001726F58
:10176800FB0E736FCDEC22F0B60E0001726FFE0E09
:10177800736FCDEC22F08290B3EC1DF082800001F3
:10178800EA6B6AEC2EF0F28E000E81B4010E0101B4
:10179800596F81B4D2EF0BF0D4EF0BF036EF0CF0A9
:1017A800010E01012A27000E2B232C232D232D5156
:1017B8000DE1210E2A5DA10E2B59070E2C59D8A038
:1017C800E8EF0BF0EAEF0BF036EF0CF08290000E2A
:1017D8002A6F000E2B6F000E2C6F000E2D6FC10E9E
:1017E8000001AC6FFB0EAD6F5BEC2DF01D0E000120
:1017F800AC6FFD0EAD6F5BEC2DF0010E0101436F78
:10180800000E426F2C0E425D010E4359D8A00FEF17
:101818000CF011EF0CF013EF0CF021EF0CF042C1BB
:101828006EF043C16FF0FF0E0001706FB1EC2AF04B
:101838000101424B432B06EF0CF0520E0101D96F08
:101848002B0ED86F000EE82EFED7D82FFCD7D92F35
:10185800FAD70000828081A434EF0CF036EF0CF048
:101868002FEF0CF001015951D8B43DEF0CF040EFC7
:101878000CF0010E41EF0CF0000ED86FD96B81B45B
:1018880048EF0CF04BEF0CF0010E4CEF0CF0000E93
:10189800D817000ED9172D512C1109E1F50E2A5D24
:1018A800010E2B59D8B05BEF0CF05EEF0CF0010E77
:1018B8005FEF0CF0000ED817000ED9172D512C1120
:1018C8000CE1D00E2A5D070E2B59D8A06EEF0CF054
:1018D80071EF0CF0010E72EF0CF0000ED817000E2D
:1018E800D917D851D911D8B47CEF0CF07EEF0CF091
:1018F80096EF0CF0140E0001AC6FFF0EAD6F5BECB1
:101908002DF0500E0101226FC30E236F000E246FBD
:10191800000E256F000E266F000E276F000E286F31
:10192800000E296F22512311241125112611271188
:1019380028112911D8B4A3EF0CF0A5EF0CF00BEF88
:101948000DF02207000E235B245B255B265B275BDB
:10195800285B295B22C16EF023C16FF024C170F0AF
:1019680025C171F026C172F027C173F028C174F047
:1019780029C175F0E80E0001766F030E776F000E2F
:10198800786F000E796F000E7A6F000E7B6F000E75
:101998007C6F000E7D6F3DEC23F06EC0D8F16FC0F8
:1019A800D9F170C0DAF171C0DBF172C0DCF173C03B
:1019B800DDF174C0DEF175C0DFF10101D851D91134
:1019C800DA11DB11DC11DD11DE11DF11D8A4EFEF24
:1019D8000CF0F1EF0CF0FAEF0CF082A0F6EF0CF03F
:1019E800F9EF0CF08280FAEF0CF08290010122519D
:1019F8002311241125112611271128112911D8A4E2
:101A080008EF0DF00AEF0DF00BEF0DF08280000EDD
:101A180081B4010E596F81A414EF0DF016EF0DF08B
:101A28001EEF0DF0000E2A6F000E2B6F000E2C6FAC
:101A3800000E2D6F5D51D8A424EF0DF026EF0DF0A8
:101A480028EF0DF06CEC21F001015651D8B42FEFBE
:101A58000DF031EF0DF033EF0DF008EC13F001014C
:101A68005D51D8B43AEF0DF03CEF0DF0CDEF0BF02F
:101A78005D6BF29E020E0001EA19D8A446EF0DF044
:101A880048EF0DF04AEF0DF008EC13F00001EA51B1
:101A9800D8B451EF0DF053EF0DF06CEF0DF0D5C049
:101AA800B7F0D6C0B8F0D7C0B9F0D8C0BAF0D9C02E
:101AB800BBF0DAC0BCF0DBC0BDF0DCC0BEF0F4ECBB
:101AC80020F0740E0001AC6FFF0EAD6F5BEC2DF0D3
:101AD80030EC08F003EC2BF00009D8B476EF0DF0E9
:101AE80078EF0DF07CEF0DF0F1EC15F092EC0DF0C5
:101AF800000E496E000E486E520E0101D96F2B0E72
:101B0800D86F000EE82EFED7D82FFCD7D92FFAD7DA
:101B18000000F28ECDEF0BF012EF03F0DDC070F095
:101B2800DEC071F0DFC072F0E0C073F06FEC19F046
:101B38000001CE6FBD0EAC6FFF0EAD6FCEC0AEF024
:101B4800AF6B5BEC2DF00001CE51D8B4AEEF0DF0C9
:101B5800B0EF0DF0D2EF0DF0DB0EAC6FFF0EAD6FF6
:101B68005BEC2DF00001CE51020D000EF324D96E6E
:101B7800010EF420DA6E3EC1DEFF3FC1DDFF809A20
:101B8800520E0001C46F2B0EC36F000EE82EFED755
:101B9800C32FFCD7C42FFAD70000808ACC0E0001CF
:101BA800AC6FFC0EAD6F5BEC2DF0010122512311DF
:101BB800241125112611271128112911D8B4E7EF6E
:101BC8000DF0E9EF0DF07BEF0FF021EE22F0070E9C
:101BD800DE6AE806FDE20001CE51D8A4F6EF0DF06A
:101BE800F8EF0DF06CEF0FF0000EE16F000EE26FF2
:101BF800000EE36F000EE46FE1C0C3F0E2C0C4F072
:101C0800D890C337C437D890C337C437000EC3251C
:101C18006E6F010EC4216F6F83EC2DF00001C56F4C
:101C2800C551CA6FCB6BCC6BCD6BE1C0C3F0E2C0C2
:101C3800C4F0D890C337C437D890C337C437010E1F
:101C4800C3256E6F010EC4216F6F83EC2DF0000168
:101C5800C56FC5C0C6F0C76BC86BC96BC8C0C9F033
:101C6800C7C0C8F0C6C0C7F0C66BCA51C625CA6F80
:101C7800CB51C721CB6FCC51C821CC6FCD51C921D5
:101C8800CD6FE1C0C3F0E2C0C4F0D890C337C43709
:101C9800D890C337C437020EC3256E6F010EC42116
:101CA8006F6F83EC2DF00001C56FC5C0C6F0C76B20
:101CB800C86BC96BC7C0C9F0C6C0C8F0C76BC66BD4
:101CC800CA51C625CA6FCB51C721CB6FCC51C82189
:101CD800CC6FCD51C921CD6FE1C0C3F0E2C0C4F0D3
:101CE800D890C337C437D890C337C437030EC32539
:101CF8006E6F010EC4216F6F83EC2DF00001C56F6C
:101D0800C5C0C6F0C76BC86BC96BC6C0C9F0C86B85
:101D1800C76BC66BCA51C625CA6FCB51C721CB6FDB
:101D2800CC51C821CC6FCD51C921CD6F010EE1270F
:101D3800000EE223E323E423CA290CE1CB290AE1BC
:101D4800CC2908E1CD29D8B4ACEF0EF0AEEF0EF0F7
:101D5800BBEF0EF0E451E311E21109E10B0EE15D76
:101D6800D8A0B9EF0EF0BBEF0EF000EF0EF0E107D0
:101D7800000EE25BE35BE45BE451E311E21109E18D
:101D88000B0EE15DD8A0CBEF0EF0CDEF0EF0D5EF46
:101D98000EF05E0EAC6FFE0EAD6F5BEC2DF07BEFC0
:101DA8000FF0E1C0C3F0E2C0C4F0D890C337C43725
:101DB800D890C337C437000EC3256E6F010EC421F7
:101DC8006F6FDDC070F0B1EC2AF0E1C0C3F0E2C083
:101DD800C4F00001D890C337C437D890C337C4378C
:101DE800010EC3256E6F010EC4216F6FDEC070F047
:101DF800B1EC2AF0E1C0C3F0E2C0C4F00001D89011
:101E0800C337C437D890C337C437020EC3256E6FA3
:101E1800010EC4216F6FDFC070F0B1EC2AF0E1C091
:101E2800C3F0E2C0C4F00001D890C337C437D890DB
:101E3800C337C437030EC3256E6F010EC4216F6FFD
:101E4800E0C070F0B1EC2AF09B0E0001AC6FFE0E02
:101E5800AD6F5BEC2DF00001DD51B76FDE51B86F4F
:101E6800DF51B96FE051BA6FBB6BBC6BBD6BBE6B1A
:101E780089EC2CF0F30E0001AC6FFE0EAD6F5BEC3D
:101E88002DF0DDC070F0DEC071F0DFC072F0E0C090
:101E980073F06FEC19F00001CE6FCE51020D000EF9
:101EA800F324D96E010EF420DA6E3EC1DEFF3FC185
:101EB800DDFF520E0001C46F2B0EC36F000EE82E1B
:101EC800FED7C32FFCD7C42FFAD700007BEF0FF043
:101ED800990EAC6FFC0EAD6F5BEC2DF04F0E000150
:101EE800AC6FFD0EAD6F5BEC2DF05DEF0FF01200E7
:101EF80000019A51D96EDA6ADECFF6FFDDCFF7FF1F
:101F0800F86A0800F550250AD8A48DEF0FF08FEF76
:101F18000FF031EF11F09A51D96EDA6ADE2A000E0D
:101F2800DD22000E476E000E466E46C04CF00101E1
:101F38003269336900019E6BBFEF0FF04C829A51F2
:101F4800D96EDA6ADE2A000EDD22BFEF0FF0010E2D
:101F58009E6FBFEF0FF09A51D96EDA6ADECFF6FFA7
:101F6800DDCFF7FFF86A0800F550300AD8B4A2EFC1
:101F78000FF0ABEF0FF09E51D8B4C5EF0FF0C7EFDD
:101F88000FF0AFEF0FF09AC06EF09BC06FF0F2EC5D
:101F980025F06EC046F06FC047F047BED8EF0FF08F
:101FA800D6EF0FF0DDEF0FF04C80466C471ED8B02F
:101FB800472A00019A51D96EDA6ADECFA4F0DDCF44
:101FC800A5F0A4C0F6FFA5C0F7FFF86A0800F5CF92
:101FD800A3F0FAEF0FF0A44BA52B15EF10F0690E44
:101FE800A36F15EF10F0A36B15EF10F0A351580A6B
:101FF800D8B4F3EF0FF03C0AD8B4F3EF0FF00D0AA2
:10200800D8B4F3EF0FF0050AD8B4EFEF0FF0190AC0
:10201800D8B4F3EF0FF00D0AD8B4F3EF0FF0F7EFE1
:102028000FF0A4C0F6FFA5C0F7FFF86A0800F55046
:10203800640AD8B422EF10F024EF10F05AEF10F031
:10204800A4C0F6FFA5C0F7FFF86A0800F550690AB2
:10205800D8A431EF10F033EF10F080EF10F05AEF02
:1020680010F09B51D96EDA6ADF50DF2ADF2AD96E69
:10207800DA6ADECF9FF0DDCFA0F0000EA0BFFF0E22
:10208800A16FA26F65EF10F09B51D96EDA6A040E4A
:10209800DF26DF5CD96EDA6ADECF9FF0DECFA0F0F4
:1020A800DECFA1F0DECFA2F065EF10F0A351690AF0
:1020B800D8B435EF10F0050AD8B448EF10F065EF42
:1020C80010F0010EA4259C6F000EA5219D6F9A515A
:1020D800D96EDA6A9CC0DEFF9DC0DDFF99C086F02C
:1020E8009FC087F0A0C088F0A1C089F0A2C08AF084
:1020F800CEEC17F043EF11F0A4C0F6FFA5C0F7FF30
:10210800F86A0800F550780AD8B48DEF10F08FEF10
:1021180010F0D5EF10F0A4C0F6FFA5C0F7FFF86ADD
:102128000800F550580AD8B49CEF10F09EEF10F054
:10213800D5EF10F0A4C0F6FFA5C0F7FFF86A0800B5
:10214800F550750AD8A4ABEF10F0ADEF10F028EFFA
:1021580011F0D5EF10F09B51D96EDA6ADF50DF2A03
:10216800DF2AD96EDA6ADECF9CF0DDCF9DF09CC005
:102178009FF09DC0A0F0A16BA26BE0EF10F09B5107
:10218800D96EDA6A040EDF26DF5CD96EDA6ADECF32
:102198009FF0DECFA0F0DECFA1F0DECFA2F0E0EF1F
:1021A80010F0A351690AD8B4AFEF10F0050AD8B4FB
:1021B800C3EF10F0E0EF10F0010EA4259C6F000EA5
:1021C800A5219D6F9A51D96EDA6A9CC0DEFF9DC029
:1021D800DDFF13EF11F099C086F09FC087F0A0C013
:1021E80088F0A1C089F0A2C08AF0D4EC1EF043EFB9
:1021F80011F099C086F09FC087F0A0C088F0A1C0F8
:1022080089F0A2C08AF0A4C0F6FFA5C0F7FFF86A5B
:102218000800F5CF8BF06BEC1CF043EF11F0A4C075
:10222800F6FFA5C0F7FFF86A0800F550580AD8B4B9
:10223800FDEF10F02D0AD8B4EFEF10F00D0AD8B466
:10224800FDEF10F028EF11F000019A51D96EDA6A0B
:10225800DE2A000EDD2243EF11F09A51D96EDA6AB8
:10226800DECFF6FFDDCFF7FFF86A0800F550706F94
:10227800716B99C072F037EC25F028EF11F012005D
:102288002D50D96EDA6ADECFF6FFDDCFF7FFF86A98
:102298000800F550250AD8A454EF11F056EF11F0B4
:1022A800F5EF12F02D50D96EDA6ADE2A000EDD2223
:1022B800000E476E000E466E46C04CF001013269B2
:1022C8003369316A85EF11F04C822D50D96EDA6A84
:1022D800DE2A000EDD2285EF11F0010E316E85EF4A
:1022E80011F02D50D96EDA6ADECFF6FFDDCFF7FF99
:1022F800F86A0800F550300AD8B468EF11F071EFA9
:1023080011F03150D8B48BEF11F08DEF11F075EF5B
:1023180011F02DC001F02EC002F04BEC26F001C0E8
:1023280046F002C047F047BE9EEF11F09CEF11F057
:10233800A3EF11F04C80466C471ED8B0472A2D50A9
:10234800D96EDA6ADECF37F0DDCF38F037C0F6FF66
:1023580038C0F7FFF86A0800F5CF36F0BFEF11F084
:10236800374A382ADAEF11F0690E366EDAEF11F0D3
:10237800366ADAEF11F03650580AD8B4B8EF11F0CF
:102388003C0AD8B4B8EF11F00D0AD8B4B8EF11F080
:10239800050AD8B4B4EF11F0190AD8B4B8EF11F09F
:1023A8000D0AD8B4B8EF11F0BCEF11F037C0F6FF42
:1023B80038C0F7FFF86A0800F550640AD8B4E7EFA8
:1023C80011F0E9EF11F01FEF12F037C0F6FF38C037
:1023D800F7FFF86A0800F550690AD8A4F6EF11F07B
:1023E800F8EF11F045EF12F01FEF12F02E50D96EF2
:1023F800DA6ADF50DF2ADF2AD96EDA6ADECF32F0F6
:10240800DDCF33F0000E33BEFF0E346E356E2AEF8B
:1024180012F02E50D96EDA6A040EDF26DF5CD96E10
:10242800DA6ADECF32F0DECF33F0DECF34F0DECF43
:1024380035F02AEF12F03650690AD8B4FAEF11F0E5
:10244800050AD8B40DEF12F02AEF12F0010E372466
:102458002F6E000E3820306E2D50D96EDA6A2FC0DC
:10246800DEFF30C0DDFF2CC019F032C01AF033C0D7
:102478001BF034C01CF035C01DF0A0EC18F007EFBD
:1024880013F037C0F6FF38C0F7FFF86A0800F550B8
:10249800780AD8B452EF12F054EF12F09AEF12F013
:1024A80037C0F6FF38C0F7FFF86A0800F550580A39
:1024B800D8B461EF12F063EF12F09AEF12F037C060
:1024C800F6FF38C0F7FFF86A0800F550750AD8A477
:1024D80070EF12F072EF12F0EDEF12F09AEF12F0C7
:1024E8002E50D96EDA6ADF50DF2ADF2AD96EDA6A0F
:1024F800DECF2FF0DDCF30F02FC032F030C033F018
:10250800346A356AA5EF12F02E50D96EDA6A040ED5
:10251800DF26DF5CD96EDA6ADECF32F0DECF33F049
:10252800DECF34F0DECF35F0A5EF12F03650690A71
:10253800D8B474EF12F0050AD8B488EF12F0A5EFFA
:1025480012F0010E37242F6E000E3820306E2D50F9
:10255800D96EDA6A2FC0DEFF30C0DDFFD8EF12F087
:102568002CC019F032C01AF033C01BF034C01CF074
:1025780035C01DF060EC1FF007EF13F02CC019F008
:1025880032C01AF033C01BF034C01CF035C01DF047
:1025980037C0F6FF38C0F7FFF86A0800F5CF1EF01D
:1025A80010EC1DF007EF13F037C0F6FF38C0F7FF47
:1025B800F86A0800F550580AD8B4C2EF12F02D0A8C
:1025C800D8B4B4EF12F00D0AD8B4C2EF12F0EDEFA0
:1025D80012F02D50D96EDA6ADE2A000EDD2207EFDE
:1025E80013F02D50D96EDA6ADECFF6FFDDCFF7FF94
:1025F800F86A0800F550036E046A2CC005F095ECE3
:1026080025F0EDEF12F01200F29E0101566BDC0E80
:102618000001AC6FFE0EAD6F36C1AEF037C1AFF042
:102628005BEC2DF06C0E010136193711D8B41FEF91
:1026380013F021EF13F028EF13F02A0E0001AC6F0E
:10264800FE0EAD6F5BEC2DF0CC0E0001AC6FFC0EF6
:10265800AD6F5BEC2DF0010E0001BD6F010EBC6F7C
:10266800BC51B76FB86BB73BB83BF00EB817B75152
:102678000F0BB813F00EB717BDC0B9F0FF0EB9278E
:102688000F0EB917B951B727000EB823F10EB725A9
:10269800BA6FFF0EB821BB6FBAC0E1F0BBC0E2F061
:1026A800000EE2BFFF0EE36FE46F36C1B7F037C12B
:1026B800B8F0000EB8BFFF0EB96FBA6FE151B75D41
:1026C800E251B859E351B959E451BA59D8A06FEF5A
:1026D80013F071EF13F061EF14F0D70EAC6FFF0E2B
:1026E800AD6FE1C0AEF0E2C0AFF0E3C0B0F0E4C05F
:1026F800B1F05BEC2DF0D8900001E135D96EE235F0
:10270800DA6E820ED926050EDA22DECFB7F0DDCFDB
:10271800B8F0B7C0E5F0B8C0E6F0E76BE86BC20EFA
:10272800AC6FFF0EAD6FE5C0AEF0E6C0AFF0E7C02E
:10273800B0F0E8C0B1F05BEC2DF00001E851E71112
:102748000BE1A00EE55D8F0EE659D8A0AEEF13F0B1
:10275800B0EF13F0C6EF13F0E851E71109E16F0E7F
:10276800E55D970EE659D8B0BCEF13F0BEEF13F055
:10277800C6EF13F0460EAC6FFF0EAD6F5BEC2DF09D
:1027880038EF14F0E851E7110BE1A70EE55D020EF2
:10279800E659D8A0D2EF13F0D4EF13F0EAEF13F014
:1027A800E851E71109E1D60EE55D040EE659D8B007
:1027B800E0EF13F0E2EF13F0EAEF13F0280EAC6F3E
:1027C800FF0EAD6F5BEC2DF038EF14F0E851E71118
:1027D8000BE1930EE55D060EE659D8A0F6EF13F06F
:1027E800F8EF13F00EEF14F0E851E71109E1C20E0B
:1027F800E55D080EE659D8B004EF14F006EF14F0C2
:102808000EEF14F0320EAC6FFF0EAD6F5BEC2DF0D7
:1028180038EF14F0E851E7110BE18C0EE55D0A0E74
:10282800E659D8A01AEF14F01CEF14F032EF14F0A8
:10283800E851E71109E1BB0EE55D0C0EE659D8B089
:1028480028EF14F02AEF14F032EF14F0500EAC6FAA
:10285800FF0EAD6F5BEC2DF038EF14F03C0EAC6F53
:10286800FF0EAD6F5BEC2DF0000E0001E125D96E77
:10287800040EE221DA6EDF50D8B445EF14F047EFCA
:1028880014F058EF14F0860EAC6FFF0EAD6F000E0B
:10289800E125D96E040EE221DA6EDF50B76FB75129
:1028A800AE6FAF6B5BEC2DF0740E0001AC6FFF0EDA
:1028B800AD6F5BEC2DF067EF14F06D0EAC6FFF0E93
:1028C800AD6F5BEC2DF00001BC2B070EBC656FEF04
:1028D80014F071EF14F034EF13F0CC0EAC6FFC0E63
:1028E800AD6F5BEC2DF00001BD2B100EBD657FEFC9
:1028F80014F081EF14F032EF13F00FEC2EF0F28E9B
:102908001200010E00018A6F8280000E896F000E8E
:10291800886F4F6A01015F6BF29E290E0001856F77
:10292800960E846F7F0EE82EFED7842FFCD7852F56
:10293800FAD7000E01012E6F000E2F6F000E306FB8
:10294800000E316F4FC08BF000018A51D8B4AFEF41
:1029580014F0B1EF14F0B7EF14F0A6EC23F0000177
:102968008C6FBBEF14F072EC24F000018C6F8A6B53
:102978005150D8B4C2EF14F0C4EF14F0C9EF14F0FA
:10298800010ECAEC2DF0F0EF15F08C05D8B4CFEF9E
:1029980014F0D1EF14F0E8EF14F0040E8C19D8B449
:1029A800D8EF14F0DAEF14F0E8EF14F0170E8C19E2
:1029B800D8B4E1EF14F0E3EF14F0E8EF14F0020EEE
:1029C800CAEC2DF0F0EF15F08C05D8A4EEEF14F05A
:1029D800F0EF14F0CEEF15F072EC24F04F6E51507A
:1029E800D8B4F9EF14F0FBEF14F000EF15F0040E73
:1029F800CAEC2DF0F0EF15F000018B29D8A407EFF1
:102A080015F009EF15F00AEF15F08B6972EC24F058
:102A180001015F6F5150D8B414EF15F016EF15F09F
:102A28001BEF15F0050ECAEC2DF0F0EF15F05F5115
:102A3800FF0A4F18D8B423EF15F025EF15F02AEF49
:102A480015F0150E79EC29F0A8EF14F0010E00012D
:102A5800E16F000EE26F000EE36F000EE46F54EFBB
:102A680015F072EC24F000018C6F5150D8B43FEF90
:102A780015F041EF15F046EF15F0060ECAEC2DF0F3
:102A8800F0EF15F0000EE125D96E050EE221DA6EA1
:102A98008CC0DFFF010EE127000EE223E323E423CD
:102AA800E451E311E21109E1830EE15DD8A05FEF83
:102AB80015F061EF15F035EF15F0000E6F6F800E11
:102AC8006E6F93EC27F06EC042F16FC043F10501C1
:102AD80081510001856F846B0501825100018425B5
:102AE8000101406F0501000E000185210101416FC0
:102AF8004051421909E141514319D8B486EF15F004
:102B080088EF15F08DEF15F0070ECAEC2DF0F0EFF9
:102B180015F0000182058311D8A495EF15F097EF01
:102B280015F0B2EF15F02EC184F02FC185F030C139
:102B380086F031C187F0070ED890843785378637FD
:102B48008737E82EA0EF15F084C076F085C077F0BF
:102B580086C078F087C079F0F0EC16F0020E00011C
:102B680082198311D8A4BBEF15F0BDEF15F0CEEF95
:102B780015F02EC184F02FC185F0070ED890843748
:102B88008537E82EC2EF15F084C072F085C073F067
:102B9800F0EC29F0010E01012E27000E2F2330231F
:102BA8003123060E79EC29F082A0DDEF15F0E0EF75
:102BB80015F08280E1EF15F082900101315130115A
:102BC80009E1040E2F5DD8A0ECEF15F0EEEF15F03B
:102BD800A6EF14F0F28E829012000001EE5101016E
:102BE800CE6FCD6B0001ED510101CD25D56F0001F0
:102BF800000E0101CE21D66F000E3F6F000E3E6F12
:102C0800D5C1C1F1D6C1C2F1C3EC1BF0C1C13EF1BF
:102C1800C2C13FF101013E5100016E6F6F6B83EC41
:102C28002DF00101D76FD751D519D76F0001EF519A
:102C38000101D7190F0BD16F0001EC510101D71910
:102C4800D26F0001EB510101D719D36F5250D71938
:102C5800D46F000E0001DD6F000EDE6F000EDF6F17
:102C6800000EE06F0101D4510001DD25DD6F000E7B
:102C7800DE21DE6F000EDF21DF6F000EE021E06F46
:102C8800D3C1CDF10101CE6BCF6BD06BCFC1D0F1E9
:102C9800CEC1CFF1CDC1CEF1CD6B0001DD51010127
:102CA800CD250001DD6FDE510101CE210001DE6F6F
:102CB800DF510101CF210001DF6FE0510101D02177
:102CC8000001E06FD2C1CDF10101CE6BCF6BD06BAB
:102CD800CEC1D0F1CDC1CFF1CE6BCD6B0001DD51AE
:102CE8000101CD250001DD6FDE510101CE2100017A
:102CF800DE6FDF510101CF210001DF6FE0510101DB
:102D0800D0210001E06FD1C1CDF10101CE6BCF6BB5
:102D1800D06BCDC1D0F1CF6BCE6BCD6B0001DD5147
:102D28000101CD250001DD6FDE510101CE21000139
:102D3800DE6FDF510101CF210001DF6FE05101019A
:102D4800D0210001E06FF0510F0B01015E6F00010F
:102D5800EF390F0B01015E190F0A646F7E0E000137
:102D6800AC6FFF0EAD6F5BEC2DF00001DD51B76F5E
:102D7800DE51B86FDF51B96FE051BA6FBB6BBC6BF6
:102D8800BD6BBE6B89EC2CF0090E0001AC6FFF0E19
:102D9800AD6F5EC1AEF0AF6B5BEC2DF00001EA5198
:102DA800D8B4D9EF16F0DBEF16F0EFEF16F05A0EA5
:102DB800AC6FFF0EAD6F3EC1AEF03FC1AFF05BEC44
:102DC8002DF0D00E0001AC6FFE0EAD6F64C1AEF0F9
:102DD800AF6B5BEC2DF012000001795108E178052A
:102DE800D8A0F9EF16F0FBEF16F005EF17F0010E7B
:102DF8007C6F000E7D6F000E7E6F000E7F6F0DEFF3
:102E080017F0000E7C6F000E7D6F000E7E6F000EB7
:102E18007F6F77C000F276C001F2000E816F010E5D
:102E2800806F000E8025D96E050E8121DA6E010EA5
:102E38008025E16E020E8121E26EDFCFE7FF804B35
:102E4800812B81BF31EF17F0815109E1810E805D3F
:102E5800D8A031EF17F033EF17F015EF17F0500E39
:102E68007C116F6F7D51706F000E716F020E726F63
:102E7800000E746F820E736F650EF66EF80EF76EA5
:102E8800F86A0900F5CF7AF00900F5CF7BF002D88F
:102E980057EF17F00500FA6E7A51FD6E7B51FE6E02
:102EA800FF6AFA5012000009D8B45DEF17F05FEF1F
:102EB80017F0CDEF17F0640E0101606F87EF17F080
:102EC800730EF66EF80EF76EF86A0900F5CF7AF011
:102ED8000900F5CF7BF002D87CEF17F00500FA6EF9
:102EE80000017A51FD6E7B51FE6EFF6AFA501200A6
:102EF800680E00017A6FE40EE82EFED77A2FFCD711
:102F08000000010160076F0EF66EF80EF76EF86AA2
:102F18000900F5CF7AF00900F5CF7BF002D89FEFD2
:102F280017F00500FA6E00017A51FD6E7B51FE6EB6
:102F3800FF6AFA5012000009D8A4A5EF17F0A7EF0E
:102F480017F064EF17F06D0EF66EF80EF76EF86A6C
:102F58000900F5CF7AF00900F5CF7BF002D8BFEF72
:102F680017F00500FA6E00017A51FD6E7B51FE6E76
:102F7800FF6AFA5012000101656F6551D8A4C7EFC6
:102F880017F0C9EF17F0CBEF17F0CDEF17F0080ED9
:102F9800506E1200010E00018D6F8ABFD6EF17F038
:102FA800D9EF17F0010EDAEF17F0000E906F46C058
:102FB8008EF047C08FF09051D8B4E5EF17F0E7EFE7
:102FC80017F0FEEF17F08E07D8A08F079051D8A4FE
:102FD800F0EF17F0F2EF17F0F8EF17F0000E8C6F24
:102FE8002B0E8B6FFCEF17F0000E8C6F2D0E8B6F76
:102FF8008BC090F0000E926F1F0E916F0101B86B9D
:1030080049EF18F09107D8A09207990E9125D96E2B
:10301800010E9221DA6E87C06EF088C06FF089C009
:1030280070F08AC071F00A0E726F000E736F000E96
:10303800746F000E756FE2EC21F06EC078F06FC00F
:1030480079F03BEC2CF000017851300FDF6E8D6B7E
:103058008E07D8A08F0787C06EF088C06FF089C030
:1030680070F08AC071F00A0E726F000E736F000E56
:10307800746F000E756FE9EC1FF06EC087F06FC0BB
:1030880088F070C089F071C08AF0000192BF55EFD6
:1030980018F0925108E19105D8A055EF18F057EFB4
:1030A80018F07EEF18F08751881189118A11D8A479
:1030B80060EF18F062EF18F006EF18F08D51D8A401
:1030C80068EF18F06AEF18F006EF18F08FBF75EF89
:1030D80018F08F5108E18E05D8A075EF18F077EF3A
:1030E80018F07EEF18F04CB27CEF18F07EEF18F075
:1030F80006EF18F09051D8B484EF18F086EF18F066
:1031080091EF18F09107D8A09207990E9125D96EE2
:10311800010E9221DA6E90C0DFFF86C07EF0990E14
:1031280091257F6F010E9221806F8EC081F08FC034
:1031380082F048EC27F01200010E206E1DBEA7EFAA
:1031480018F0AAEF18F0010EABEF18F0000E236E7E
:1031580046C021F047C022F02350D8B4B6EF18F08B
:10316800B8EF18F0CFEF18F02106D8A022062350A8
:10317800D8A4C1EF18F0C3EF18F0C9EF18F0000E8B
:103188001F6E2B0E1E6ECDEF18F0000E1F6E2D0E4B
:103198001E6E1EC023F0000E256E1F0E246E010148
:1031A800B86B19EF19F02406D8A02506990E242427
:1031B800D96E010E2520DA6E1AC001F01BC002F08C
:1031C8001CC003F01DC004F00A0E056E000E066E4A
:1031D800000E076E000E086E58EC22F001C00BF0CE
:1031E80002C00CF056EC2CF00B50300FDF6E206A4A
:1031F8002106D8A022061AC001F01BC002F01CC08C
:1032080003F01DC004F00A0E056E000E066E000ED7
:10321800076E000E086E6FEC20F001C01AF002C0B5
:103228001BF003C01CF004C01DF025BE24EF19F0EC
:10323800255008E12404D8A024EF19F026EF19F04E
:103248004DEF19F01A501B101C101D10D8A42FEFA9
:1032580019F031EF19F0D7EF18F02050D8A437EF54
:1032680019F039EF19F0D7EF18F022BE44EF19F032
:10327800225008E12104D8A044EF19F046EF19F0D4
:103288004DEF19F04CB24BEF19F04DEF19F0D7EFA5
:1032980018F02350D8B453EF19F055EF19F060EF38
:1032A80019F02406D8A02506990E2424D96E010EFB
:1032B8002520DA6E23C0DFFF19C011F0990E2424EF
:1032C800126E010E2520136E21C014F022C015F0D5
:1032D80026EC28F01200000E0001806F000E7F6FB0
:1032E8007FC074F080C075F0D89074377537D89067
:1032F80074377537000E74256E6F010E75216F6F68
:1033080083EC2DF00001766F76517B6F7C6B7D6BC3
:103318007E6B7FC074F080C075F0D89074377537B5
:10332800D89074377537010E74256E6F010E7521AC
:103338006F6F83EC2DF00001766F76C077F0786BB5
:10334800796B7A6B79C07AF078C079F077C078F0C9
:10335800776B7B5177257B6F7C5178217C6F7D5112
:1033680079217D6F7E517A217E6F7FC074F080C095
:1033780075F0D89074377537D89074377537020E52
:1033880074256E6F010E75216F6F83EC2DF00001AF
:10339800766F76C077F0786B796B7A6B78C07AF055
:1033A80077C079F0786B776B7B5177257B6F7C5191
:1033B80078217C6F7D5179217D6F7E517A217E6FD6
:1033C8007FC074F080C075F0D89074377537D89086
:1033D80074377537030E74256E6F010E75216F6F84
:1033E80083EC2DF00001766F76C077F0786B796BFF
:1033F8007A6B77C07AF0796B786B776B7B5177252E
:103408007B6F7C5178217C6F7D5179217D6F7E5156
:103418007A217E6F7F4B802B7B5170190FE17C5195
:1034280071190CE17D51721909E17E517319D8B4F3
:1034380020EF1AF022EF1AF02DEF1AF0805109E16F
:103448000B0E7F5DD8A02BEF1AF02DEF1AF074EF5A
:1034580019F00B0E7F198011D8A435EF1AF037EF49
:103468001AF03BEF1AF0000E806F000E7F6F7F514D
:1034780012000001BA5108E1B905D8A046EF1AF0C8
:1034880048EF1AF052EF1AF0010EBE6F000EBF6F30
:10349800000EC06F000EC16F5AEF1AF0000EBE6F1B
:1034A800000EBF6F000EC06F000EC16FB8C000F2F3
:1034B800B7C001F2500EBE116F6FBF51706F000E92
:1034C800716F020E726F000E746F020E736F000E32
:1034D800756F030E766F000E786F010E776F690EA9
:1034E800F66EF80EF76EF86A0900F5CFBBF0090022
:1034F800F5CFBCF002D88AEF1AF00500FA6EBB517E
:10350800FD6EBC51FE6EFF6AFA501200E80E010112
:10351800606FB2EF1AF0730EF66EF80EF76EF86A77
:103528000900F5CFBBF00900F5CFBCF002D8A7EF32
:103538001AF00500FA6E0001BB51FD6EBC51FE6E1B
:10354800FF6AFA50120001016007150E0001BB6FF7
:10355800C60EE82EFED7BB2FFCD700006F0EF66E06
:10356800F80EF76EF86A0900F5CFBBF00900F5CF41
:10357800BCF002D8CAEF1AF00500FA6E0001BB5180
:10358800FD6EBC51FE6EFF6AFA5012000009D8A405
:10359800D0EF1AF0D2EF1AF08FEF1AF06D0EF66E28
:1035A800F80EF76EF86A0900F5CFBBF00900F5CF01
:1035B800BCF002D8EAEF1AF00500FA6E0001BB5120
:1035C800FD6EBC51FE6EFF6AFA5012000001BD6F1D
:1035D800BD51C26FC36BC251C311D8A4F6EF1AF024
:1035E800F8EF1AF0FAEF1AF004EF1BF0CF0EAC6FF9
:1035F800FC0EAD6FC2C0AEF0C3C0AFF05BEC2DF0F7
:1036080012000001BA5108E1B905D8A00EEF1BF06D
:1036180010EF1BF01AEF1BF0010EBF6F000EC06F0A
:10362800000EC16F000EC26F22EF1BF0000EBF6FBD
:10363800000EC06F000EC16F000EC26FB8C000F25E
:10364800B7C001F2500EBF116F6FC051706F000EFE
:10365800716F020E726F000E746F020E736F000EA0
:10366800756F030E766FBBC077F0786B690EF66ED8
:10367800F80EF76EF86A0900F5CFBCF00900F5CF2F
:10368800BDF002D851EF1BF00500FA6EBC51FD6E7B
:10369800BD51FE6EFF6AFA501200E80E0101606F1C
:1036A80070EF1BF0730EF66EF80EF76EF86A0900ED
:1036B800F5CFBCF00900F5CFBDF002D86EEF1BF0D6
:1036C8000500FA6E0001BC51FD6EBD51FE6EFF6A29
:1036D800FA501200010160076F0EF66EF80EF76ED1
:1036E800F86A0900F5CFBCF00900F5CFBDF002D8A3
:1036F80088EF1BF00500FA6E0001BC51FD6EBD514C
:10370800FE6EFF6AFA5012000009D8A48EEF1BF073
:1037180090EF1BF056EF1BF06D0EF66EF80EF76E7D
:10372800F86A0900F5CFBCF00900F5CFBDF002D862
:10373800A8EF1BF00500FA6E0001BC51FD6EBD51EB
:10374800FE6EFF6AFA5012000001BE6FBE51C36FD1
:10375800C46BC351C411D8A4B4EF1BF0B6EF1BF06F
:10376800B8EF1BF0C2EF1BF0CF0EAC6FFC0EAD6FC5
:10377800C3C0AEF0C4C0AFF05BEC2DF01200010E78
:103788000101C86FC851020D000EF324D96E010E55
:10379800F420DA6EDECFC9F1DDCFCAF1C9C1C3F1B9
:1037A800CAC1C4F1D890C337C437C3C1B7F0C4C1C4
:1037B800B8F00001B96BBA6B800EBB6F05EC1BF05B
:1037C8000101CC6B000ECC25D96EDA6A030EDA2221
:1037D800DF50C36FC351C66FC76B010ECC25D96EBE
:1037E800DA6A030EDA22DF50C36FC351C56FC46BA8
:1037F800C651C425C66FC751C521C76FC651C11967
:103808000AE1C751C219D8B40CEF1CF00FEF1CF035
:10381800010E10EF1CF0000ECB6FCB51D8A417EFA0
:103828001CF019EF1CF01CEF1CF0CC51020FCC6FF0
:10383800CB51D8A422EF1CF024EF1CF02CEF1CF085
:103848007F0ECC652AEF1CF02CEF1CF0E6EF1BF086
:10385800C82BCB51D8A433EF1CF035EF1CF03DEF4B
:103868001CF0090EC8653BEF1CF03DEF1CF0C6EFDD
:103878001BF0CB51D8A443EF1CF045EF1CF051EFDF
:103888001CF0C1C1C5F0C2C1C6F048EC1EF0C5C0ED
:10389800C9F1C6C0CAF166EF1CF0CCC16EF00001D8
:1038A8006F6B000E716F020E706FD5EC24F0010182
:1038B800C95100016E250101C96FCA5100016F216C
:1038C8000101CA6FC9C1C1F1CAC1C2F11200010E1A
:1038D8000001936F46C094F047C095F0780E8B199D
:1038E800D8B479EF1CF07BEF1CF081EF1CF0000ED0
:1038F800926F410E916F85EF1CF0000E926F610E72
:10390800916F91C090F0000E986F1F0E976F010194
:10391800B86BCBEF1CF09707D8A0980787510F0B0F
:10392800966F0A0E96619BEF1CF09DEF1CF0A1EFBD
:103938001CF0300E9627A4EF1CF09051F60F962736
:10394800990E9725D96E010E9821DA6E96C0DFFF81
:10395800936B9407D8A0950787C08CF088C08DF02A
:1039680089C08EF08AC08FF0050EC0EF1CF0D89089
:103978008F338E338D338C33E82EBBEF1CF08CC025
:1039880087F08DC088F08EC089F08FC08AF0000162
:1039980098BFD8EF1CF0985109E1020E975DD8A0A6
:1039A800D8EF1CF0DAEF1CF001EF1DF087518811F9
:1039B80089118A11D8A4E3EF1CF0E5EF1CF08FEF12
:1039C8001CF09351D8A4EBEF1CF0EDEF1CF08FEF37
:1039D8001CF095BFF8EF1CF0955108E19405D8A0AC
:1039E800F8EF1CF0FAEF1CF001EF1DF04CB2FFEFFE
:1039F8001CF001EF1DF08FEF1CF086C07EF0990ED1
:103A080097257F6F010E9821806F94C081F095C033
:103A180082F048EC27F01200010E266E46C027F00F
:103A280047C028F0780E1E18D8B41DEF1DF01FEF00
:103A38001DF025EF1DF0000E246E410E236E29EFB8
:103A48001DF0000E246E610E236E23C025F0000EBB
:103A58002B6E1F0E2A6E0101B86B6FEF1DF02A0640
:103A6800D8A02B061A500F0B296E0A0E29603FEFBB
:103A78001DF041EF1DF045EF1DF0300E292648EFEF
:103A88001DF02550F60F2926990E2A24D96E010E0D
:103A98002B20DA6E29C0DFFF266A2706D8A0280661
:103AA8001AC01FF01BC020F01CC021F01DC022F05E
:103AB800050E64EF1DF0D8902232213220321F32D9
:103AC800E82E5FEF1DF01FC01AF020C01BF021C0C8
:103AD8001CF022C01DF02BBE7BEF1DF02B5009E11E
:103AE800020E2A5CD8A07BEF1DF07DEF1DF0A4EF3D
:103AF8001DF01A501B101C101D10D8A486EF1DF0C5
:103B080088EF1DF033EF1DF02650D8A48EEF1DF07E
:103B180090EF1DF033EF1DF028BE9BEF1DF02850ED
:103B280008E12704D8A09BEF1DF09DEF1DF0A4EF3E
:103B38001DF04CB2A2EF1DF0A4EF1DF033EF1DF005
:103B480019C011F0990E2A24126E010E2B20136E43
:103B580027C014F028C015F026EC28F01200C50E76
:103B68000001AC6FFD0EAD6F5BEC2DF0B50E0001E2
:103B7800AC6FFC0EAD6F5BEC2DF05F0E0001AC6F0F
:103B8800FC0EAD6F5BEC2DF0530E0001AC6FF90E1F
:103B9800AD6F5BEC2DF0AB0E0001AC6FF90EAD6FA5
:103BA8005BEC2DF0B00E0001AC6FFA0EAD6F5BEC64
:103BB8002DF07D0E0001AC6FFB0EAD6F5BEC2DF0B0
:103BC800050E0001AC6FFC0EAD6F5BEC2DF0400EE6
:103BD8000001AC6FFA0EAD6F5BEC2DF0420E0001E8
:103BE800AC6FFC0EAD6F5BEC2DF0E30E0001AC6F1B
:103BF800FB0EAD6F5BEC2DF0FF0E0001AC6FF90E04
:103C0800AD6F5BEC2DF0000E00016F6F000E6E6F54
:103C180083EC2DF00001B76FB751E16FE26BE36BF6
:103C2800E46BE129E211E311E411D8A41EEF1EF0C0
:103C380020EF1EF026EF1EF00B0EAC6FFB0EAD6FE3
:103C48005BEC2DF0210E0001E119E211E311E41102
:103C5800D8B431EF1EF033EF1EF039EF1EF07A0EB4
:103C6800AC6FFA0EAD6F5BEC2DF0CC0E0001AC6FB3
:103C7800FC0EAD6F5BEC2DF0240E0001AC6FFC0E5A
:103C8800AD6F5BEC2DF01200000E0001D06F000E3E
:103C9800D16F000ED26F000ED36FD0C0B7F0D1C075
:103CA800B8F0D2C0B9F0D3C0BAF0800EBB6F05EC43
:103CB8001BF0800E0001D025D06F000ED121D16FEE
:103CC800000ED221D26F000ED321D36FD46B000E19
:103CD800D425D96EDA6A030EDA22DF50C76F010ED7
:103CE800D425D96EDA6A030EDA22DF50C96FC751BC
:103CF800C86FC551C8190AE1C651C919D8B487EFA8
:103D08001EF08AEF1EF0010E8BEF1EF0000ECF6F33
:103D1800D451020FD46FCF51D8A495EF1EF097EF6E
:103D28001EF09FEF1EF07F0ED4659DEF1EF09FEFF3
:103D38001EF06BEF1EF0CF51D8A4A5EF1EF0A7EF31
:103D48001EF0B2EF1EF0D35109E1020ED25DD8A0E9
:103D5800B0EF1EF0B2EF1EF051EF1EF0D451D02597
:103D6800C76F000ED121C86F000ED221C96F000E97
:103D7800D321CA6F7E0EC725CB6FFF0EC821CC6F2B
:103D8800FF0EC921CD6FFF0ECA21CE6FD890CE335A
:103D9800CD33CC33CB33CBC0C5F0CCC0C6F012008A
:103DA800010E00018B6F46C08CF047C08DF0000EED
:103DB8008F6F1F0E8E6F0101B86B20EF1FF08E07FB
:103DC800D8A08F07990E8E25D96E010E8F21DA6E35
:103DD80087C06EF088C06FF089C070F08AC071F03B
:103DE8000A0E726F000E736F000E746F000E756FFF
:103DF8006FEC28F000016E51300FDF6E8B6B8C0773
:103E0800D8A08D0787C06EF088C06FF089C070F0A9
:103E18008AC071F00A0E726F000E736F000E746F15
:103E2800000E756FA3EC26F06EC087F06FC088F0A7
:103E380070C089F071C08AF000018E518F11D8B41A
:103E480028EF1FF02AEF1FF051EF1FF0875188115C
:103E580089118A11D8A433EF1FF035EF1FF0E3EF73
:103E68001EF08B51D8A43BEF1FF03DEF1FF0E3EF9E
:103E78001EF08DBF48EF1FF08D5108E18C05D8A0CA
:103E880048EF1FF04AEF1FF051EF1FF04CB24FEF11
:103E98001FF051EF1FF0E3EF1EF086C07EF0990E81
:103EA8008E257F6F010E8F21806F8CC081F08DC0B1
:103EB80082F048EC27F01200010E1E6E46C01FF07B
:103EC80047C020F0000E226E1F0E216E0101B86B54
:103ED800AAEF1FF02106D8A02206990E2124D96E38
:103EE800010E2220DA6E1AC001F01BC002F01CC0BD
:103EF80003F01DC004F00A0E056E000E066E000EDB
:103F0800076E000E086EB4EC28F00150300FDF6E1B
:103F18001E6A1F06D8A020061AC001F01BC002F0B6
:103F28001CC003F01DC004F00A0E056E000E066EDC
:103F3800000E076E000E086EF6EC26F001C01AF0AF
:103F480002C01BF003C01CF004C01DF02150221059
:103F5800D8B4B1EF1FF0B3EF1FF0DAEF1FF01A502B
:103F68001B101C101D10D8A4BCEF1FF0BEEF1FF0D3
:103F78006EEF1FF01E50D8A4C4EF1FF0C6EF1FF05D
:103F88006EEF1FF020BED1EF1FF0205008E11F0494
:103F9800D8A0D1EF1FF0D3EF1FF0DAEF1FF04CB22B
:103FA800D8EF1FF0DAEF1FF06EEF1FF019C011F015
:103FB800990E2124126E010E2220136E1FC014F0D8
:103FC80020C015F026EC28F012000001776B75BFB1
:103FD800F2EF1FF0F0EF1FF0FCEF1FF0751F741FDA
:103FE800731F726D000E732374237523010E776F90
:103FF80071BF03EF20F001EF20F00DEF20F0711FEB
:10400800701F6F1F6E6D000E6F2370237123010EDA
:10401800771B000E786F000E796F000E7A6F000E16
:104028007B6F7251731174117511D8B41EEF20F0A3
:1040380020EF20F056EF20F0010E766F2AEF20F0E7
:10404800D8907237733774377537762B75AF2FEF73
:1040580020F031EF20F024EF20F0D890783779372E
:104068007A377B3772516E5D73516F59745170593D
:1040780075517159D8A043EF20F045EF20F04EEF6D
:1040880020F072516E5F73516F5B7451705B7551A4
:10409800715B7881D8907533743373337233762FAC
:1040A80031EF20F07751D8B45CEF20F05EEF20F0CC
:1040B80066EF20F07B1F7A1F791F786D000E792339
:1040C8007A237B2378C06EF079C06FF07AC070F0E5
:1040D8007BC071F012000A6A08BE77EF20F075EF16
:1040E80020F081EF20F0081E071E061E056C000E4A
:1040F800062207220822010E0A6E04BE88EF20F06D
:1041080086EF20F092EF20F0041E031E021E016CC1
:10411800000E022203220422010E0A1A000E0B6E60
:10412800000E0C6E000E0D6E000E0E6E0550061081
:1041380007100810D8B4A3EF20F0A5EF20F0DBEFAC
:1041480020F0010E096EAFEF20F0D8900536063644
:1041580007360836092A08AEB4EF20F0B6EF20F08B
:10416800A9EF20F0D8900B360C360D360E360550D8
:10417800015C065002580750035808500458D8A04C
:10418800C8EF20F0CAEF20F0D3EF20F00550015E11
:104198000650025A0750035A0850045A0B80D89008
:1041A8000832073206320532092EB6EF20F00A50DF
:1041B800D8B4E1EF20F0E3EF20F0EBEF20F00E1E93
:1041C8000D1E0C1E0B6C000E0C220D220E220BC0B5
:1041D80001F00CC002F00DC003F00EC004F0120094
:1041E800B7C0BFF0B8C0C0F0B9C0C1F0BAC0C2F023
:1041F800BBC0C3F0BCC0C4F0BDC0C5F0BEC0C6F0F3
:10420800210E11EF21F00001D890C633C533C43315
:10421800C333C233C133C033BF33E82E07EF21F0B5
:10422800BFC0C7F0C0C0C8F0C1C0C9F0C2C0CAF0A2
:10423800C3C0CBF0C4C0CCF0C5C0CDF0C6C0CEF072
:10424800A30EAC6FFF0EAD6FC7C0AEF0C8C0AFF025
:10425800C9C0B0F0CAC0B1F0CBC0B2F0CCC0B3F0A6
:10426800CDC0B4F0CEC0B5F05BEC2DF020EEB7F0C9
:10427800FF0EDE140001C76FFF0EDE14C86FFF0EBD
:10428800DE14C96FFF0EDE14CA6F000EDE14CB6F8A
:10429800000EDE14CC6F000EDE14CD6F000EDE149F
:1042A800CE6FA30EAC6FFF0EAD6FC7C0AEF0C8C027
:1042B800AFF0C9C0B0F0CAC0B1F0CBC0B2F0CCC04A
:1042C800B3F0CDC0B4F0CEC0B5F05BEC2DF0120069
:1042D800230EF66EF80EF76EF86A0900F5CFCFF0E8
:1042E8000900F5CFD0F002D884EF21F00500FA6E6E
:1042F8000001CF51FD6ED051FE6EFF6AFA501200D8
:104308000009D8B48AEF21F08CEF21F0E1EF21F019
:104318001F0EF66EF80EF76EF86A0900F5CFCFF0AB
:104328000900F5CFD0F002D8A4EF21F00500FA6E0D
:104338000001CF51FD6ED051FE6EFF6AFA50120097
:104348004D6E0A0E4D18D8B4ACEF21F0AEEF21F047
:10435800C9EF21F00D0E4D18D8B4B5EF21F0B7EF25
:1043680021F0C9EF21F0B90E4E24D96EDA6A010E98
:10437800DA224DC0DFFF4E2A080E4E64C6EF21F048
:10438800C8EF21F0C9EF21F04E6A0D0E4D18D8A4E0
:10439800D0EF21F0D2EF21F0E1EF21F0B90E4E2459
:1043A800D96EDA6A010EDA22DF6A4E6AB90E0001A6
:1043B800C56F010EC66F14EC03F012000001776B95
:1043C80071BFEBEF21F0E9EF21F0F5EF21F0711F5C
:1043D800701F6F1F6E6D000E6F2370237123010E07
:1043E800776F75BFFCEF21F0FAEF21F004EF22F0B0
:1043F800751F741F731F726D000E7323742375234A
:104408007251731174117511D8B40DEF22F00FEFBA
:1044180022F03FEF22F0010E766F19EF22F0D890CC
:104428007237733774377537762B75AF1EEF22F0F6
:1044380020EF22F013EF22F072516E5D73516F5925
:104448007451705975517159D8A02DEF22F02FEF82
:1044580022F037EF22F072516E5F73516F5B745127
:10446800705B7551715BD8907533743373337233E5
:10447800762F20EF22F07751D8B445EF22F047EF9E
:1044880022F04FEF22F0711F701F6F1F6E6D000E2C
:104498006F23702371236EC06EF06FC06FF070C011
:1044A80070F071C071F012000A6A04BE60EF22F069
:1044B8005EEF22F06AEF22F0041E031E021E016C5A
:1044C800000E022203220422010E0A6E08BE71EFBA
:1044D80022F06FEF22F079EF22F0081E071E061E69
:1044E800056C000E06220722082205500610071048
:1044F8000810D8B482EF22F084EF22F0B4EF22F053
:10450800010E096E8EEF22F0D89005360636073672
:104518000836092A08AE93EF22F095EF22F088EFCB
:1045280022F00550015C0650025807500358085005
:104538000458D8A0A2EF22F0A4EF22F0ACEF22F0AA
:104548000550015E0650025A0750035A0850045A93
:10455800D8900832073206320532092E95EF22F03C
:104568000A50D8B4BAEF22F0BCEF22F0C4EF22F020
:10457800041E031E021E016C000E022203220422E6
:1045880001C001F002C002F003C003F004C004F04F
:104598001200000E0001796F000E786F26EF23F0ED
:1045A800250EF66EF80EF76EF86A0900F5CF74F06E
:1045B8000900F5CF75F002D8ECEF22F00500FA6E8D
:1045C80000017451FD6E7551FE6EFF6AFA501200BB
:1045D8000009D8B4F2EF22F0F4EF22F0D4EF22F081
:1045E800210EF66EF80EF76EF86A0900F5CF74F032
:1045F8000900F5CF75F002D823EF23F00500FA6E15
:1046080000017451FD6E7551FE6EFF6AFA507851C3
:104618007225766F79517321776F76C0F6FF77C070
:10462800F7FF000EF86E0F0EF76403D00800F55080
:1046380005D0F6CFE9FFF7CFEAFFEF5012000001EF
:10464800784B792B72C06EF073C06FF087EC2AF04C
:1046580000016E51785D7951800A746F6F51800A3C
:104668007459D8A03AEF23F03CEF23F0D4EF22F0AE
:104678001200000176517711781179117A117B11A6
:104688007C117D11D8B44BEF23F04DEF23F095EF5B
:1046980023F0010E7E6F5BEF23F0D89076377737E3
:1046A800783779377A377B377C377D377E2B7DAF04
:1046B80060EF23F062EF23F051EF23F076516E5D47
:1046C80077516F5978517059795171597A51725996
:1046D8007B5173597C5174597D517559D8A077EF26
:1046E80023F079EF23F089EF23F076516E5F77514D
:1046F8006F5B7851705B7951715B7A51725B7B515A
:10470800735B7C51745B7D51755BD8907D337C33D2
:104718007B337A3379337833773376337E2F62EF8E
:1047280023F06EC06EF06FC06FF070C070F071C093
:1047380071F072C072F073C073F074C074F075C019
:1047480075F01200400E0001776F0D0E786F030EA2
:10475800796F000E7A6FF8EC28F0E7EF23F0A00EDF
:1047680000D0E82EFDD700017707000E785B795B53
:104778007A5B77C06EF078C06FF079C070F07AC05D
:1047880071F0E80E726F030E736F000E746F000EF7
:10479800756F6FEC28F000016E516F117011711177
:1047A800D8A4D9EF23F0DBEF23F0E7EF23F082A0C2
:1047B800E0EF23F0E3EF23F08280E4EF23F0829030
:1047C800430E79EC29F09EBAECEF23F0EEEF23F0DC
:1047D800FAEF23F000017751781179117A11D8A4F2
:1047E800F8EF23F0FAEF23F0B3EF23F08280000113
:1047F8007751781179117A11D8B405EF24F008EFC0
:1048080024F0010E09EF24F0000E516EF8EC28F0A8
:10481800120066EC2EF0C7A814EF24F016EF24F06F
:104828001AEF24F0D1EC2CF050EF24F0A2EC2DF08C
:104838000009D8B422EF24F024EF24F035EF24F057
:104848008EEC2DF00009D8B42CEF24F02EEF24F0D4
:1048580035EF24F0050E0101216F010E206F50EF96
:1048680024F098EC2DF00009D8B43DEF24F03FEF88
:1048780024F050EF24F08EEC2DF00009D8B447EF67
:1048880024F049EF24F050EF24F0050E0101216FC8
:10489800020E206F50EF24F001012151020D750E18
:1048A800F324F66EF80EF420F76EF86A000EF8227C
:1048B8000900F5CF70F00900F5CF71F002D86FEF5D
:1048C80024F00500FA6E00017051FD6E7151FE6E04
:1048D800FF6AFA5012000101216F1200000E000158
:1048E800736F000E726F3A0E0101456F980E446F98
:1048F800A1EF24F001014407D8A045074451451110
:10490800D8B489EF24F08CEF24F0010E8DEF24F059
:10491800000E516E5150D8B494EF24F096EF24F065
:10492800A1EF24F0150E79EC29F00001724B732BDE
:104938003A0E0101456F980E446F9EBAA6EF24F017
:10494800A8EF24F0C0EF24F044514511D8B4AFEFDC
:1049580024F0B1EF24F0C0EF24F0000173BFBEEFE4
:1049680024F0735109E1030E725DD8A0BEEF24F064
:10497800C0EF24F07EEF24F0000173BFD0EF24F0E5
:10498800735107E1030E725DD8B0CDEF24F0D0EF7C
:1049980024F0010ED1EF24F0000E516EF8EC28F04F
:1049A80012000001736B71BFDEEF24F0DCEF24F01E
:1049B800E4EF24F0706D711FD8B0712B010E736F86
:1049C8006FBFEBEF24F0E9EF24F0F1EF24F06E6D08
:1049D8006F1FD8B06F2B010E731B000E756F000E82
:1049E800746F70517111D8B4FCEF24F0FEEF24F00D
:1049F80026EF25F0010E726F06EF25F0D89070377C
:104A08007137722B71AF0BEF25F00DEF25F002EF28
:104A180025F0D8907437753770516E5D71516F59A4
:104A2800D8A019EF25F01BEF25F020EF25F07051E5
:104A38006E5F71516F5B7481D89071337033722FD0
:104A48000DEF25F07351D8B42CEF25F02EEF25F09B
:104A580032EF25F0746D751FD8B0752B74C06EF0E9
:104A680075C06FF0120000017251D8B43EEF25F006
:104A780040EF25F048EF25F07251D8A446EF25F015
:104A880048EF25F04DEF25F070510DEC2DF094EF27
:104A980025F07251D96EDA6A090ED926DE50DE1079
:104AA800D8B459EF25F05BEF25F074EF25F072517B
:104AB800D96EDA6A090ED9267251E16EE26A020EDF
:104AC800E126DE50E65CE650800A776FDE50800A09
:104AD8007759D8B072EF25F074EF25F094EF25F0F0
:104AE8007251D96EDA6A020ED926DECF73F0DDCFA5
:104AF80074F07251D96EDA6ADECF75F0DDCF76F0D8
:104B080073517525D96E74517621DA6E70C0DFFF46
:104B18007251D96EDA6A020ED926DE2A000EDD221B
:104B280012000550D8B49BEF25F09DEF25F0A5EFB6
:104B380025F00550D8A4A3EF25F0A5EF25F0AAEF9E
:104B480025F003504CEC2DF0F1EF25F00550D96E0F
:104B5800DA6A090ED926DE50DE10D8B4B6EF25F091
:104B6800B8EF25F0D1EF25F00550D96EDA6A090EB5
:104B7800D9260550E16EE26A020EE126DE50E65CB7
:104B8800E650800A0A6EDE50800A0A58D8B0CFEF85
:104B980025F0D1EF25F0F1EF25F00550D96EDA6A4E
:104BA800020ED926DECF06F0DDCF07F00550D96E0C
:104BB800DA6ADECF08F0DDCF09F006500824D96E96
:104BC80007500920DA6E03C0DFFF0550D96EDA6A94
:104BD800020ED926DE2A000EDD221200000E000188
:104BE800746F000E736F6E51D96EDA6ADECFF6FFFE
:104BF800DDCFF7FFF86A0800F5502A0AD8A407EFB6
:104C080026F009EF26F032EF26F06E51D96EDA6AF7
:104C1800DE2A000EDD226F51D96EDA6A020EDF2617
:104C2800DF5CD96EDA6ADECF73F0DECF74F046EF60
:104C380026F00A0E7303F3CF70F0F4CF71F074030B
:104C4800F350712772517025736F000E7121746FC4
:104C58006E51D96EDA6ADE2A000EDD226E51D96EE7
:104C6800DA6ADECFF6FFDDCFF7FFF86A0800F55005
:104C7800D00F726F090E726544EF26F046EF26F0EA
:104C88001DEF26F073C06EF074C06FF01200000EB6
:104C9800076E000E066E0150D96EDA6ADECFF6FF97
:104CA800DDCFF7FFF86A0800F5502A0AD8A45FEFAD
:104CB80026F061EF26F08AEF26F00150D96EDA6A05
:104CC800DE2A000EDD220250D96EDA6A020EDF26D5
:104CD800DF5CD96EDA6ADECF06F0DECF07F09EEF32
:104CE80026F00A0E0602F3CF03F0F4CF04F0070211
:104CF800F350042605500324066E000E0420076EA8
:104D08000150D96EDA6ADE2A000EDD220150D96E12
:104D1800DA6ADECFF6FFDDCFF7FFF86A0800F55054
:104D2800D00F056E090E05649CEF26F09EEF26F065
:104D380075EF26F006C001F007C002F01200000E61
:104D48000001766F000E776F000E786F000E796F96
:104D58007251731174117511D8B4B5EF26F0B7EF0D
:104D680026F0EDEF26F0010E7A6FC1EF26F0D8900D
:104D780072377337743775377A2B75AFC6EF26F0ED
:104D8800C8EF26F0BBEF26F0D8907637773778371C
:104D9800793772516E5D73516F59745170597551ED
:104DA8007159D8A0DAEF26F0DCEF26F0E5EF26F00F
:104DB80072516E5F73516F5B7451705B7551715BAB
:104DC8007681D89075337433733372337A2FC8EF82
:104DD80026F076C06EF077C06FF078C070F079C0BA
:104DE80071F01200000E096E000E0A6E000E0B6EB6
:104DF800000E0C6E0550061007100810D8B407EF07
:104E080027F009EF27F03FEF27F0010E0D6E13EFA3
:104E180027F0D89005360636073608360D2A08AE2C
:104E280018EF27F01AEF27F00DEF27F0D890093682
:104E38000A360B360C360550015C065002580750EE
:104E4800035808500458D8A02CEF27F02EEF27F06D
:104E580037EF27F00550015E0650025A0750035AF3
:104E68000850045A0980D8900832073206320532B1
:104E78000D2E1AEF27F009C001F00AC002F00BC08E
:104E880003F00CC004F012004CA04DEF27F04FEFD8
:104E980027F057EF27F07FC078F080C079F07EC008
:104EA8007AF09BEC2BF0000182BF5FEF27F05DEFFB
:104EB80027F063EF27F0000E826F000E816F000E5F
:104EC800856F000E846F74EF27F0000E716F200E4F
:104ED800706F7EC072F037EC25F00001844B852B93
:104EE8008151845D8551800A836F8251800A83597C
:104EF800D8A081EF27F083EF27F069EF27F04CB0B7
:104F080088EF27F08AEF27F092EF27F07FC078F03C
:104F180080C079F07EC07AF09BEC2BF01200010E75
:104F28000001746F000E766F000E756FCEEF27F0DC
:104F3800000E7425D96EDA6A050EDA22DF50706F1A
:104F48007051726F716B75517119756F7651721955
:104F5800766F742B080E736F76AFB5EF27F0B7EF47
:104F680027F0C6EF27F075C070F076C071F0D890C2
:104F780070377137210E7019756F100E7119766FB1
:104F8800CBEF27F0D8907535756F7635766F732F20
:104F9800B0EF27F06E07D8A06F076FBFD8EF27F0E4
:104FA800D6EF27F09CEF27F075C06EF076C06FF053
:104FB80012007E0EF66E5C0EF76E000EF86E01EEB5
:104FC800E0F010EE08F00900F5CFEEFFE550E150F3
:104FD800FAE105EE82F011EE2CF0EE6AE550E150B0
:104FE800FCE1E250FAE105EE00F0820EEE6AE80616
:104FF800FDE104EE00F0960EEE6AE806FDE103EE30
:1050080000F0820EEE6AE806FDE102EE00F0820E84
:10501800EE6AE806FDE101EE00F0C10EEE6AE80670
:10502800FDE100EED5F01C0EEE6AE806FDE100EEAB
:1050380046F00D0EEE6AE806FDE15390539200012A
:105048007AEF0BF04CA02BEF28F02DEF28F035EF7E
:1050580028F012C00BF013C00CF011C00DF0DFECFB
:105068002BF015BE3CEF28F03AEF28F040EF28F07F
:10507800000E156E000E146E000E186E000E176EE0
:1050880050EF28F0000E046E200E036E11C005F0DC
:1050980095EC25F0174A182A1450175C1850800A06
:1050A800166E1550800A1658D8A05DEF28F05FEFED
:1050B80028F046EF28F04CB064EF28F066EF28F0AF
:1050C8006EEF28F012C00BF013C00CF011C00DF0F9
:1050D800DFEC2BF01200000172517311741175117D
:1050E800D8B479EF28F07BEF28F0ABEF28F0010E69
:1050F800766F85EF28F0D890723773377437753725
:10510800762B75AF8AEF28F08CEF28F07FEF28F028
:1051180072516E5D73516F5974517059755171594F
:10512800D8A099EF28F09BEF28F0A3EF28F0725150
:105138006E5F73516F5B7451705B7551715BD89082
:105148007533743373337233762F8CEF28F06EC057
:105158006EF06FC06FF070C070F071C071F0120027
:105168000550061007100810D8B4BDEF28F0BFEF9F
:1051780028F0EFEF28F0010E096EC9EF28F0D8905B
:105188000536063607360836092A08AECEEF28F067
:10519800D0EF28F0C3EF28F00550015C0650025804
:1051A8000750035808500458D8A0DDEF28F0DFEF67
:1051B80028F0E7EF28F00550015E0650025A075024
:1051C800035A0850045AD89008320732063205327A
:1051D800092ED0EF28F001C001F002C002F003C090
:1051E80003F004C004F01200000E01014B6F000E22
:1051F8004A6FABA202EF29F004EF29F01AEF29F069
:105208004A8546514711D8B40CEF29F00EEF29F022
:105218001AEF29F002D81AEF29F00500FA6E465164
:10522800FD6E4751FE6EFF6AFA501200ABA41FEFE5
:1052380029F021EF29F038EF29F001014A8348517C
:105248004911D8B42AEF29F02CEF29F038EF29F0CA
:1052580002D838EF29F00500FA6E4851FD6E495121
:10526800FE6EFF6AFA501200AE501200040E0001E2
:105278006E6FACEC2DF00009D8B445EF29F047EF7C
:1052880029F074EF29F001011D511E11D8B44FEF18
:1052980029F051EF29F05EEF29F062EC2EF01BC1E6
:1052A800D9FF1CC1DAFFDF6E01011B4B1C2B1D0748
:1052B800D8A01E071D511E11D8B465EF29F067EF5D
:1052C80029F06BEF29F051EC2EF076EF29F05EEC27
:1052D8002EF04EEC2EF0070E00016E6F76EF29F0DF
:1052E80060EC2EF000016E5112000001716F250E66
:1052F800F66EF80EF76EF86A0900F5CF6FF0090040
:10530800F5CF70F002D893EF29F00500FA6E00018E
:105318006F51FD6E7051FE6EFF6AFA50120000095F
:10532800D8B499EF29F09BEF29F07BEF29F0210EF3
:10533800F66EF80EF76EF86A0900F5CF6FF00900FF
:10534800F5CF70F002D8B4EF29F00500FA6E00012D
:105358006F51FD6E7051FE6EFF6AFA507151120066
:105368001200BBEF29F06E4B6F2B704B712B6EC088
:10537800D9FF6FC0DAFFDF500001726F70C0F6FF0F
:1053880071C0F7FFF86A0800F5507219D8A4CFEF7A
:1053980029F0D1EF29F0DDEF29F06EC0D9FF6FC0F9
:1053A800DAFFDF50D8A4DBEF29F0DDEF29F0B7EF03
:1053B80029F06EC0D9FF6FC0DAFFDF50726F70C07E
:1053C800F6FF71C0F7FFF86A0800F550725D6E6F5E
:1053D8006F6BD8A06F071200010E0001E16F000E7D
:1053E800E26F000EE36F000EE46FE451E311E21187
:1053F80009E1810EE15DD8A004EF2AF006EF2AF05A
:1054080008EF2AF027EF2AF0E1517225746FE25174
:105418007321756FFF0E74256E6FFF0E75216F6F08
:10542800000EE125D96E050EE221DA6EDF50706FAD
:10543800B1EC2AF0010E0001E127000EE223E3237C
:10544800E423F9EF29F01200010119511A11D8B417
:1054580030EF2AF032EF2AF044EF2AF01907D8A0EB
:105468001A0717C1D9FF18C1DAFFDF5021EC2EF057
:105478000101174B182B030E00016F6F58EF2AF02C
:105488001F51D8B44AEF2AF04CEF2AF054EF2AF013
:105498001F6B5CEC2EF0010E00016F6F58EF2AF0C5
:1054A800FDEC2DF000016F6F6F5112000001756B5C
:1054B800A1EC2CF00009D8A464EF2AF066EF2AF0DA
:1054C80084EF2AF0010E0101146F6FC015F170C04E
:1054D80016F11F6B71C017F172C018F173C019F182
:1054E80074C01AF1000E1B6F000E1C6F000E1E6FA9
:1054F800000E1D6F206BF1EC2DF0010E0001756F91
:105508000001755112006EC070F06FC071F090EF1D
:105518002AF000016E4B6F2B6EC0F6FF6FC0F7FFCD
:10552800000EF86E0F0EF76403D00800F55005D092
:10553800F6CFE9FFF7CFEAFFEF500009D8A4A7EFAD
:105548002AF0A9EF2AF08DEF2AF0000170516E5D64
:105558006E6F71516F596F6F1200F2BEB6EF2AF07D
:10556800B9EF2AF0010EBAEF2AF0000E0001716FB0
:105578006F51756E6EC074FF70C073FF7F9E7F9C05
:105588007F84F29E550E7E6EAA0E7E6E7F827FB25B
:10559800D0EF2AF0D2EF2AF0CBEF2AF07F94000167
:1055A80071B102D0F29E01D0F28E1200060E0101F6
:1055B800216F030E206F68EC2EF001012151020DBE
:1055C800750EF324F66EF80EF420F76EF86A000EE6
:1055D800F8220900F5CF70F00900F5CF71F002D874
:1055E80000EF2BF00500FA6E00017051FD6E71514D
:1055F800FE6EFF6AFA5012000101216F12000001CD
:105608006E6BEF51D8B40BEF2BF00DEF2BF028EFAA
:105618002BF0EF29D8B413EF2BF015EF2BF028EF70
:105628002BF0F051D8B41BEF2BF01DEF2BF028EF27
:105638002BF00F0EF019D8B424EF2BF026EF2BF037
:1056480028EF2BF0010E6E6F6E511200A1EC2CF0BA
:105658000009D8A432EF2BF034EF2BF050EF2BF0E9
:10566800010E0101146F6FC015F170C016F1010E23
:105678001F6F71C017F172C018F173C019F174C0AF
:105688001AF175C01BF176C01CF177C01DF178C006
:105698001EF1206BF1EC2DF01200D09EF292F19CDD
:1056A800000E00016E6F000E6F6F3AEC2EF0F09056
:1056B800F18A000E00016E6F000E6F6F35EC2EF050
:1056C800F092F188000E00016E6F000E6F6F30ECE3
:1056D8002EF0F094F186000E00016E6F000E6F6FD1
:1056E8002BEC2EF01200A7C0AAF0A8C0ABF086EFF2
:1056F8002BF0A6C099F0AA0E00019A6FA9C09BF0E2
:105708007CEC0FF0AAC0F6FFABC0F7FFF86A080000
:10571800F5500009D8A493EF2BF095EF2BF07DEF0F
:105728002BF0000E0001A76F000EA66F1200000EEE
:1057380000017D6F000E7C6FACEF2BF07BC070F02A
:10574800716B7AC072F037EC25F000017C4B7D2B31
:105758007C517825D96E7D517921DA6EDF507B6FC7
:105768007B51D8A4BAEF2BF0BCEF2BF0A2EF2BF0B3
:1057780012003AC03DF03BC03EF0CBEF2BF039C0F1
:105788002CF03D0E2D6E3CC02EF044EC11F03DC0C7
:10579800F6FF3EC0F7FFF86A0800F5500009D8A4E4
:1057A800D8EF2BF0DAEF2BF0C3EF2BF0000E3A6EA8
:1057B800000E396E1200000E106E000E0F6EEEEF26
:1057C8002BF00EC003F0046A0DC005F095EC25F02F
:1057D8000F4A102A0F500B24D96E10500C20DA6E85
:1057E800DF500E6E0E50D8A4FCEF2BF0FEEF2BF01E
:1057F800E5EF2BF01200A1A604EF2CF006EF2CF039
:1058080008EF2CF0DAEC2AF09EA60DEF2CF00FEF43
:105818002CF01CEF2CF0A1A614EF2CF016EF2CF0B6
:105828001AEF2CF0DAEC2AF01CEF2CF00DEC24F037
:105838001200480EA76E900EAB6E260EAC6E820E4E
:10584800AF6E060E7D6ED80E00016E6F5C0E6F6F28
:105858003DEC2DF0960E00016E6F5C0E6F6F2EEC16
:105868002DF0000E01014B6F000E4A6F120000016F
:1058780079BF41EF2CF043EF2CF049EF2CF078C0C2
:1058880078F079C079F055EF2CF078C07AF079C0CB
:105898007BF07A1F7B1F7A4B7B2B7AC078F07BC01A
:1058A80079F012000CBE5BEF2CF05DEF2CF063EF8B
:1058B8002CF00BC00BF00CC00CF06FEF2CF00BC0F1
:1058C8000DF00CC00EF00D1E0E1E0D4A0E2A0DC056
:1058D8000BF00EC00CF0120053A275EF2CF0FAEF8B
:1058E8002CF000016E6B9EA87CEF2CF07EEF2CF064
:1058F80087EF2CF0ACAA83EF2CF085EF2CF087EF24
:105908002CF0010E6E6F6E511200B7C0BFF0B8C018
:10591800C0F0B9C0C1F0BAC0C2F0A30E0001AC6FAC
:10592800FF0EAD6FBFC0AEF0C0C0AFF0C1C0B0F0E9
:10593800C2C0B1F05BEC2DF01200010E00016E6FD9
:1059480001011451D8A4ABEF2CF0ADEF2CF0B6EF59
:105958002CF0C7B6B2EF2CF0B4EF2CF0B6EF2CF069
:1059680000016E6B00016E511200B7C0BBF0B8C0E9
:10597800BCF0B9C0BDF0BAC0BEF0A30E0001AC6F58
:10598800FF0EAD6FBBC0AEF0BCC0AFF0BDC0B0F095
:10599800BEC0B1F05BEC2DF012000101146B000EDB
:1059A800166F1569000E176F000E186F000E1B6F2B
:1059B800000E1C6F216B66EC2EF068EC2EF054EC98
:1059C8002EF01200D59CF30ED76E800ED66EF30E15
:1059D8004B6E800E4A6E000E00016E6F000E6F6FE8
:1059E80026EC2EF0F294980ED56E1200016A9EA84D
:1059F80000EF2DF002EF2DF00BEF2DF0ACAA07EF22
:105A08002DF009EF2DF00BEF2DF0010E016E015076
:105A1800120000016F6F70EC2CF00009D8B417EF7A
:105A28002DF019EF2DF00FEF2DF000016F51C0ECA4
:105A38002DF01200896A8A6A180E8B6ECF0E926E4C
:105A4800D40E936EBC0E946E140E0F015B6F5A6BDE
:105A5800F286120000016E516F11D8B436EF2DF0A6
:105A680038EF2DF03CEF2DF06EC046F16FC047F1D6
:105A7800120000016E516F11D8B445EF2DF047EFB9
:105A88002DF04BEF2DF06EC048F16FC049F11200B8
:105A9800026EFAEC2CF00009D8B455EF2DF057EF50
:105AA8002DF04DEF2DF0025047EC2EF01200AE0E07
:105AB8000001B66F000EA66FACC0A7F0ADC0A8F08D
:105AC800B60EA96F77EC2BF0120015EC2EF01EEC39
:105AD8002DF0E6EC2CF01DEC2CF0D3EC2DF051EC75
