:0400000027EF0CF0EA
:100008004F82E1CF68F0E2CF69F0D9CF6AF0DACF5A
:100018006BF0F3CF6CF0F4CF6DF0F6CF6EF0F7CF56
:100028006FF0F8CF70F0F5CF71F0F2A41EEF00F08A
:1000380020EF00F02EEF00F0000E01015425546F60
:10004800000E5521556F010E5621566F000E57218F
:10005800576FF294F2A633EF00F035EF00F011EF8E
:100068000CF0F2A03AEF00F03CEF00F011EF0CF0CA
:1000780081A841EF00F044EF00F0010E45EF00F0D9
:10008800000E0101866FE6C050F1E7C051F1E8C0EB
:1000980052F1E9C053F1D650D7CF60F00001616B3F
:1000A800626B636B62C063F061C062F060C061F054
:1000B800606B6025E66F000E6121E76F000E62211C
:1000C800E86F000E6321E96F010154510001E62534
:1000D800E66F010155510001E721E76F0101565113
:1000E8000001E821E86F010157510001E921E96F9A
:1000F800000E0101546F000E556F000E566F000E72
:10010800576FD76AD66A464A472A030E0001ED1987
:10011800D8A491EF00F093EF00F0BFEF00F0E951A1
:10012800E8110BE12D0EE65D010EE759D8A09FEF0F
:1001380000F0A1EF00F0AFEF00F0590E3F6EFF0E98
:10014800406EE6C041F0E7C042F0E8C043F0E9C0C5
:1001580044F040EC45F0140E46184710D8A4B7EF09
:1001680000F0B9EF00F010EF0CF00001ED6B10EFAC
:100178000CF010EF0CF001018251D8B4C6EF00F07A
:10018800C8EF00F006EF01F0475007E1C80E465CE3
:10019800D8B0D1EF00F0D3EF00F0F5EF00F0820E09
:1001A8000001606F050E616FD8904634D96E4734F0
:1001B800DA6ED890D936DA366051D9266151DA220A
:1001C800E6C0DEFFE7C0DEFFE8C0DEFFE9C0DEFF15
:1001D800000E4624D96E020E4720DA6EDF6A10EF51
:1001E8000CF0000E616FC80E606F0001ED6B01012D
:1001F800826B0001EC6BFCEC45F0010E0101876F8E
:1002080010EF0CF08B51D8A40CEF01F00EEF01F0B9
:1002180076EF01F00001EB51D8A415EF01F017EFCC
:1002280001F076EF01F0E951E8110BE1650EE65DAA
:10023800190EE759D8A023EF01F025EF01F076EF6A
:1002480001F0E951E81109E1BC0EE65D1B0EE75922
:10025800D8B031EF01F033EF01F076EF01F0000E86
:10026800476E010E466E820E606F050E616FD89064
:100278004634D96E4734DA6ED890D936DA366051BA
:10028800D9266151DA22E6C0DEFFE7C0DEFFE8C00A
:10029800DEFFE9C0DEFF000E4624D96E020E4720BD
:1002A800DA6EDF6A020EED19D8A45DEF01F05FEF98
:1002B80001F065EF01F07B0E3F6EFC0E406E40ECE6
:1002C80045F0050E0001EC6F20EEDAF0070EDE6A4D
:1002D800E806FDE2010E01018B6F8C6B0001EB6BF0
:1002E80010EF0CF0050E0001EC19D8A47EEF01F018
:1002F80080EF01F0E6EF01F001018B51D8B487EFF0
:1003080001F089EF01F0E6EF01F00001E951E81191
:100318000BE1AF0EE65D0B0EE759D8A096EF01F0A2
:1003280098EF01F0E6EF01F0E951E81109E1DA0E82
:10033800E65D0C0EE759D8B0A4EF01F0A6EF01F086
:10034800E6EF01F02D0E46184710D8B4AEEF01F0D5
:10035800B0EF01F0B4EF01F0FCEC45F010EF0CF059
:10036800000E476E000E466E820E606F050E616FBE
:10037800D8904634D96E4734DA6ED890D936DA3602
:100388006051D9266151DA22E6C0DEFFE7C0DEFF00
:10039800E8C0DEFFE9C0DEFF000E4624D96E020E7B
:1003A8004720DA6EDF6A01018C6B050E0001EC6FE5
:1003B800010EEB6F20EEDAF0070EDE6AE806FDE2CA
:1003C80010EF0CF001018B51D8A4EDEF01F0EFEF25
:1003D80001F05EEF02F00001EB51D8A4F6EF01F056
:1003E800F8EF01F05EEF02F0E951E8110BE1EF0ED2
:1003F800E65D7F0EE759D8A004EF02F006EF02F0A1
:100408005EEF02F0E951E81109E1E20EE65D810EC6
:10041800E759D8B012EF02F014EF02F05EEF02F0E5
:10042800000E476E010E466E820E606F050E616FFC
:10043800D8904634D96E4734DA6ED890D936DA3641
:100448006051D9266151DA22E6C0DEFFE7C0DEFF3F
:10045800E8C0DEFFE9C0DEFF000E4624D96E020EBA
:100468004720DA6EDF6A030EEC6F020EED19D8A48E
:1004780040EF02F042EF02F050EF02F0DA0E3F6E6A
:10048800FD0E406EE6C041F0E7C042F0E8C043F020
:10049800E9C044F040EC45F001018351D8B457EF6E
:1004A80002F059EF02F068EF01F0010E826F836BE2
:1004B80010EF0CF0030E0001EC19D8A466EF02F05F
:1004C80068EF02F0BEEF02F001018B51D8B46FEF74
:1004D80002F071EF02F0BEEF02F00001E951E811FD
:1004E8000BE15B0EE65D1E0EE759D8A07EEF02F029
:1004F80080EF02F0BEEF02F0E951E81109E14E0E7B
:10050800E65D200EE759D8B08CEF02F08EEF02F0CE
:10051800BEEF02F0000E476E000E466E820E606F50
:10052800050E616FD8904634D96E4734DA6ED8908C
:10053800D936DA366051D9266151DA22E6C0DEFFB3
:10054800E7C0DEFFE8C0DEFFE9C0DEFF000E46249C
:10055800D96E020E4720DA6EDF6A030EEC6F000ECA
:100568000101636F000E626F8C6B010E0001EB6F6F
:10057800DEEF01F00001EB51D8A4C5EF02F0C7EFA0
:1005880002F014EF03F0E951E8110BE1790EE65D92
:10059800920EE759D8A0D3EF02F0D5EF02F014EF8E
:1005A80003F0E951E81109E1A80EE65D940EE75958
:1005B800D8B0E1EF02F0E3EF02F014EF03F0000E21
:1005C800476E010E466E010E01018C6FE6C066F1A2
:1005D800E7C067F1020E0001ED19D8A4F6EF02F0AA
:1005E800F8EF02F006EF03F0F30E3F6EFD0E406EDB
:1005F800E6C041F0E7C042F0E8C043F0E9C044F08B
:1006080040EC45F0010E0001EC6F20EEDAF0070E29
:10061800DE6AE806FDE2010E01018B6F10EF0CF0B7
:10062800EB51D8A41AEF03F01CEF03F072EF03F0BC
:10063800E951E8110BE1330EE65D730EE759D8A0D6
:1006480028EF03F02AEF03F072EF03F0E951E81105
:1006580009E1C20EE65D740EE759D8B036EF03F033
:1006680038EF03F072EF03F0000E476E010E466E8E
:10067800020EEC6F820E606F050E616FD8904634E3
:10068800D96E4734DA6ED890D936DA366051D92621
:100698006151DA22E6C0DEFFE7C0DEFFE8C0DEFF18
:1006A800E9C0DEFF020EED19D8A45DEF03F05FEF9D
:1006B80003F065EF03F0B00E3F6EFF0E406E40ECA6
:1006C80045F0010E0001EB6F20EEDAF0070EDE6A4E
:1006D800E806FDE201018B6B10EF0CF001015351AC
:1006E80052110AE15005130E5159D8A07EEF03F0BC
:1006F80080EF03F003EF04F05351521109E1B80EF3
:10070800505D140E5159D8B08CEF03F08EEF03F002
:1007180003EF04F08651D8B494EF03F096EF03F09A
:1007280003EF04F00001EB51D8A49DEF03F09FEF15
:1007380003F003EF04F0E951E8110BE1A50EE65DC3
:10074800240EE759D8A0ABEF03F0ADEF03F003EFA9
:1007580004F0E951E81109E15C0EE65D260EE7595F
:10076800D8B0B9EF03F0BBEF03F003EF04F0000ECD
:10077800476E010E466E010E0101856F040E0001E1
:10078800EC6F020EED19D8A4CCEF03F0CEEF03F016
:10079800DCEF03F0730E3F6EFE0E406EE6C041F0D4
:1007A800E7C042F0E8C043F0E9C044F040EC45F04F
:1007B800820E0001606F050E616FD8904634D96EC5
:1007C8004734DA6ED890D936DA366051D926615175
:1007D800DA22E6C0DEFFE7C0DEFFE8C0DEFFE9C0E0
:1007E800DEFF000E0101636F000E626F000E5F6F87
:1007F800000E5E6F010E0001EB6FDEEF01F0040EDC
:100808000001EC19D8B40BEF04F00EEF04F0010E60
:100818000FEF04F0000E606F616BEB516017000E74
:10082800611760516111D8B41CEF04F01EEF04F099
:1008380073EF05F0475007E1960E465CD8B027EFF6
:1008480004F029EF04F048EF04F0820E606F050E03
:10085800616FD8904634D96E4734DA6ED890D9365D
:10086800DA366051D9266151DA22E6C0DEFFE7C0E8
:10087800DEFFE8C0DEFFE9C0DEFF000E4624D96EC9
:10088800020E4720DA6EDF6AE951E8110BE15B0ED0
:10089800E65D090EE759D8A054EF04F056EF04F0CE
:1008A800BBEF04F0E951E81109E1120EE65D0B0E09
:1008B800E759D8B062EF04F064EF04F0BBEF04F03E
:1008C800000E01015F6F000E5E6F8651D8B46FEFA6
:1008D80004F071EF04F087EF04F0624B632BD890BB
:1008E8000001DA35DA6FDB35DB6FDC35DC6FDD35DF
:1008F800DD6FDE35DE6FDF35DF6FE035E06FE13568
:10090800E16FACEF04F0624B632BD8900001DA354D
:10091800DA6FDB35DB6FDC35DC6FDD35DD6FDE355F
:10092800DE6FDF35DF6FE035E06FE135E16F010E37
:10093800DA11DA6FDB51DB6FDC51DC6FDD51DD6F13
:10094800DE51DE6FDF51DF6FE051E06FE151E16FA3
:10095800380E010162196311D8A4B5EF04F0B7EF9E
:1009680004F010EF0CF09EEC45F010EF0CF0E9519C
:10097800E8110BE14A0EE65D040EE759D8A0C7EF6F
:1009880004F0C9EF04F038EF05F0E951E81108E187
:10099800E605060EE759D8B0D4EF04F0D6EF04F018
:1009A80038EF05F001015E4B5F2B5E055F11D8A49F
:1009B800E0EF04F0E2EF04F0E4EF04F010EF0CF0E5
:1009C800000E5F6F000E5E6F8651D8A4EEEF04F044
:1009D800F0EF04F017EF05F0624B632BD89000019D
:1009E800DA35DA6FDB35DB6FDC35DC6FDD35DD6F93
:1009F800DE35DE6FDF35DF6FE035E06FE135E16F63
:100A0800010EDA11DA6FDB51DB6FDC51DC6FDD517F
:100A1800DD6FDE51DE6FDF51DF6FE051E06FE151D6
:100A2800E16F2BEF05F0624B632BD8900001DA35AC
:100A3800DA6FDB35DB6FDC35DC6FDD35DD6FDE353E
:100A4800DE6FDF35DF6FE035E06FE135E16F380EDF
:100A5800010162196311D8A434EF05F036EF05F0EF
:100A680010EF0CF0B7EF04F0850E3F6EFF0E406EEE
:100A7800E6C041F0E7C042F0E8C043F0E9C044F006
:100A880040EC45F0475007E1C80E465CD8B04FEF40
:100A980005F051EF05F0B0EF01F0820E0001606F34
:100AA800050E616FD8904634D96E4734DA6ED89007
:100AB800D936DA366051D9266151DA22E6C0DEFF2E
:100AC800E7C0DEFFE8C0DEFFE9C0DEFF000E462417
:100AD800D96E020E4720DA6EDF6AB0EF01F0EB51F3
:100AE800D8B479EF05F07BEF05F0CBEF06F0030EF5
:100AF800EC19D8A482EF05F084EF05F0CBEF06F0EF
:100B0800475007E1C80E465CD8B08DEF05F08FEF6F
:100B180005F0AEEF05F0820E606F050E616FD8909C
:100B28004634D96E4734DA6ED890D936DA36605101
:100B3800D9266151DA22E6C0DEFFE7C0DEFFE8C051
:100B4800DEFFE9C0DEFF000E4624D96E020E472004
:100B5800DA6EDF6AE951E8110BE1B10EE65D040EC9
:100B6800E759D8A0BAEF05F0BCEF05F056EF06F04C
:100B7800010E4624606F000E4720616F60B1C7EF19
:100B880005F0C9EF05F0CEEF05F0010E01018A6FFF
:100B980010EF0CF001018A51D8A4D5EF05F0D7EF7A
:100BA80005F02DEF06F0624B632BDAC060F0DBC076
:100BB80061F0DCC062F0DDC063F0DEC064F0DFC06D
:100BC80065F0E0C066F0E1C067F00001D8906733D7
:100BD800663365336433633362336133603360C0D3
:100BE800DAF061C0DBF062C0DCF063C0DDF064C045
:100BF800DEF065C0DFF066C0E0F067C0E1F020EE2F
:100C0800DAF0000EDE10DA6F000EDE10DB6F000E79
:100C1800DE10DC6F000EDE10DD6F000EDE10DE6F02
:100C2800000EDE10DF6F000EDE10E06F800EDE10AB
:100C3800E16F0101635109E1400E625DD8A027EF21
:100C480006F029EF06F010EF0CF0B2EC45F010EFCB
:100C58000CF0000E4624D96E020E4720DA6E020E02
:100C6800DF6E0001ED05D8A43CEF06F03EEF06F07C
:100C78004CEF06F0520E3F6EFE0E406EE6C041F09D
:100C8800E7C042F0E8C043F0E9C044F040EC45F06A
:100C980046C060F147C061F1000E476E000E466E17
:100CA800B0EF01F0010E4624606F000E4720616F1F
:100CB80060B161EF06F063EF06F067EF06F001013F
:100CC8008A6B10EF0CF001018A05D8A46EEF06F0CC
:100CD80070EF06F0AAEF06F0624B632BDAC060F003
:100CE800DBC061F0DCC062F0DDC063F0DEC064F040
:100CF800DFC065F0E0C066F0E1C067F00001D890A1
:100D08006733663365336433633362336133603327
:100D180060C0DAF061C0DBF062C0DCF063C0DDF017
:100D280064C0DEF065C0DFF066C0E0F067C0E1F0E7
:100D38000101635109E1400E625DD8A0A6EF06F0FB
:100D4800A8EF06F010EF0CF029EF06F0000E46248D
:100D5800D96E020E4720DA6E020EDF6E0001ED0535
:100D6800D8A4B9EF06F0BBEF06F04CEF06F05D0E25
:100D78003F6EFE0E406EE6C041F0E7C042F0E8C0AC
:100D880043F0E9C044F040EC45F04CEF06F0EB517D
:100D9800D8B4D1EF06F0D3EF06F02BEF08F0050E2C
:100DA800EC19D8A4DAEF06F0DCEF06F02BEF08F028
:100DB800EB51D8B4E2EF06F0E4EF06F02BEF08F0C1
:100DC800E951E8110BE18D0EE65D050EE759D8A053
:100DD800F0EF06F0F2EF06F06DEF07F0E951E811D9
:100DE80009E1B80EE65D060EE759D8B0FEEF06F049
:100DF80000EF07F06DEF07F0D890DA35DA6FDB35E2
:100E0800DB6FDC35DC6FDD35DD6FDE35DE6FDF3562
:100E1800DF6FE035E06FE135E16F010EDA11DA6F6F
:100E2800DB51DB6FDC51DC6FDD51DD6FDE51DE6FD6
:100E3800DF51DF6FE051E06FE151E16F475007E1AB
:100E4800960E465CD8B02BEF07F02DEF07F04CEF6D
:100E580007F0820E606F050E616FD8904634D96E28
:100E68004734DA6ED890D936DA366051D9266151CE
:100E7800DA22E6C0DEFFE7C0DEFFE8C0DEFFE9C039
:100E8800DEFF000E4624D96E020E4720DA6EDF6AB6
:100E9800380E46184710D8A454EF07F056EF07F05D
:100EA80010EF0CF0A8EC45F010EF0CF0010EDA1181
:100EB800DA6FDB51DB6FDC51DC6FDD51DD6FDE514A
:100EC800DE6FDF51DF6FE051E06FE151E16F10EF4E
:100ED8000CF0E951E8110BE1810EE65D020EE759CD
:100EE800D8A079EF07F07BEF07F0E4EF07F0E951BE
:100EF800E81109E1AC0EE65D030EE759D8B087EFBB
:100F080007F089EF07F0E4EF07F0D890DA35DA6FE9
:100F1800DB35DB6FDC35DC6FDD35DD6FDE35DE6F55
:100F2800DF35DF6FE035E06FE135E16F475007E10E
:100F3800960E465CD8B0A3EF07F0A5EF07F0C4EF14
:100F480007F0820E606F050E616FD8904634D96E37
:100F58004734DA6ED890D936DA366051D9266151DD
:100F6800DA22E6C0DEFFE7C0DEFFE8C0DEFFE9C048
:100F7800DEFF000E4624D96E020E4720DA6EDF6AC5
:100F8800380E46184710D8A4CCEF07F0CEEF07F07C
:100F980010EF0CF056EF07F0D8900001DA35DA6F51
:100FA800DB35DB6FDC35DC6FDD35DD6FDE35DE6FC5
:100FB800DF35DF6FE035E06FE135E16F10EF0CF002
:100FC800FCEC45F046C060F147C061F1475007E1CD
:100FD800C80E465CD8B0F3EF07F0F5EF07F016EF50
:100FE80008F0820E0001606F050E616FD8904634DC
:100FF800D96E4734DA6ED890D936DA366051D926A8
:101008006151DA22E6C0DEFFE7C0DEFFE8C0DEFF9E
:10101800E9C0DEFF000E4624D96E020E4720DA6EC4
:10102800030EDF6E0001ED05D8A41DEF08F01FEFD9
:1010380008F010EF0CF0110E3F6EFF0E406E46C028
:1010480041F047C042F040EC45F010EF0CF0020EC2
:10105800EC19D8A432EF08F034EF08F05CEF09F08F
:10106800EB51D8B43AEF08F03CEF08F05CEF09F028
:10107800E951E8110BE1570EE65D040EE759D8A0D7
:1010880048EF08F04AEF08F0B2EF08F0E951E8112C
:1010980009E1AA0EE65D050EE759D8B056EF08F04B
:1010A80058EF08F0B2EF08F0D890DA35DA6FDB3590
:1010B800DB6FDC35DC6FDD35DD6FDE35DE6FDF35B0
:1010C800DF6FE035E06FE135E16F010EDA11DA6FBD
:1010D800DB51DB6FDC51DC6FDD51DD6FDE51DE6F24
:1010E800DF51DF6FE051E06FE151E16F475007E1F9
:1010F800960E465CD8B083EF08F085EF08F0A4EFB1
:1011080008F0820E606F050E616FD8904634D96E74
:101118004734DA6ED890D936DA366051D92661511B
:10112800DA22E6C0DEFFE7C0DEFFE8C0DEFFE9C086
:10113800DEFF000E4624D96E020E4720DA6EDF6A03
:101148001A0E46184710D8A4ACEF08F0AEEF08F016
:1011580010EF0CF0BCEC45F010EF0CF0E951E81181
:101168000BE1D70EE65D010EE759D8A0BEEF08F0F7
:10117800C0EF08F015EF09F0E951E81109E12A0E6E
:10118800E65D030EE759D8B0CCEF08F0CEEF08F0D3
:1011980015EF09F0D890DA35DA6FDB35DB6FDC351F
:1011A800DC6FDD35DD6FDE35DE6FDF35DF6FE035B7
:1011B800E06FE135E16F475007E1960E465CD8B025
:1011C800E8EF08F0EAEF08F009EF09F0820E606F27
:1011D800050E616FD8904634D96E4734DA6ED890D0
:1011E800D936DA366051D9266151DA22E6C0DEFFF7
:1011F800E7C0DEFFE8C0DEFFE9C0DEFF000E4624E0
:10120800D96E020E4720DA6EDF6A1A0E46184710AA
:10121800D8A411EF09F013EF09F010EF0CF0AEEFBE
:1012280008F0FCEC45F046C060F147C061F147505A
:1012380007E1C80E465CD8B024EF09F026EF09F0A4
:1012480047EF09F0820E0001606F050E616FD890BC
:101258004634D96E4734DA6ED890D936DA366051CA
:10126800D9266151DA22E6C0DEFFE7C0DEFFE8C01A
:10127800DEFFE9C0DEFF000E4624D96E020E4720CD
:10128800DA6E030EDF6E0001ED05D8A44EEF09F00B
:1012980050EF09F010EF0CF0090E3F6EFF0E406E94
:1012A80046C041F047C042F040EC45F010EF0CF06A
:1012B800EC05D8A462EF09F064EF09F010EF0CF028
:1012C800E951E8110BE18C0EE65D0A0EE759D8A04A
:1012D80070EF09F072EF09F0A9EF0AF0E951E8118F
:1012E80009E1BB0EE65D0C0EE759D8B07EEF09F0B8
:1012F80080EF09F0A9EF0AF06C0E46184710D8A441
:1013080088EF09F08AEF09F0BAEF09F001018C6B58
:101318008B6B820E0001606F050E616FD8904634AA
:10132800D96E4734DA6ED890D936DA366051D92674
:101338006151DA22E6C0DEFFE7C0DEFFE8C0DEFF6B
:10134800E9C0DEFF000E4624D96E020E4720DA6E91
:10135800DF6A46C060F147C061F1EB6B01018C6B3D
:10136800886B8B6B010E8D6F10EF0CF0020E461818
:101378004710D8B4C2EF09F0C4EF09F0CEEF09F076
:10138800030E46184710D8A4CCEF09F0CEEF09F0A9
:1013980062EF0AF0020E46184710D8A4D6EF09F0FB
:1013A800D8EF09F0DEEF09F0E6C064F1E7C065F1B7
:1013B80010EF0CF0030E46184710D8A4E6EF09F01A
:1013C800E8EF09F062EF0AF0010166510001606F71
:1013D800010167510001616F626B636B7A0E646F84
:1013E800050E656FD8904634D96E4734DA6ED890BA
:1013F800D936DA366451D9266551DA2260C0DEFF63
:1014080061C0DEFF62C0DEFF63C0DEFFFE0E462461
:10141800D96E010E4720DA6EDF6A010164510001BE
:10142800606F010165510001616F626B636B7E0E35
:10143800646F050E656FD8904634D96E4734DA6EFE
:10144800D890D936DA366451D9266551DA2260C087
:10145800DEFF61C0DEFF62C0DEFF63C0DEFFFF0E9D
:101468004624D96E010E4720DA6EDF6A820E606F5D
:10147800050E616FD8904634D96E4734DA6ED8902D
:10148800D936DA366051D9266151DA22E6C0DEFF54
:10149800E7C0DEFFE8C0DEFFE9C0DEFF000E46243D
:1014A800D96E020E4720DA6EDF6A010E0101886FDD
:1014B800000E636F000E626F6EEF03F0FCEC45F0F8
:1014C80046C060F147C061F1475007E1C80E465C6D
:1014D800D8B071EF0AF073EF0AF094EF0AF0820EB9
:1014E8000001606F050E616FD8904634D96E47349D
:1014F800DA6ED890D936DA366051D9266151DA22B7
:10150800E6C0DEFFE7C0DEFFE8C0DEFFE9C0DEFFC1
:10151800000E4624D96E020E4720DA6E030EDF6EE7
:101528000001ED05D8A49BEF0AF09DEF0AF010EF3B
:101538000CF0710E3F6EFF0E406E46C041F047C082
:1015480042F040EC45F010EF0CF001018851D8B49E
:10155800B0EF0AF0B2EF0AF010EF0CF00001E95119
:10156800E8110BE1930EE65D060EE759D8A0BFEF30
:101578000AF0C1EF0AF048EF0BF0E951E81109E170
:10158800C20EE65D080EE759D8B0CDEF0AF0CFEFEE
:101598000AF048EF0BF0475007E1960E465CD8B0CA
:1015A800D8EF0AF0DAEF0AF0F9EF0AF0820E606F6E
:1015B800050E616FD8904634D96E4734DA6ED890EC
:1015C800D936DA366051D9266151DA22E6C0DEFF13
:1015D800E7C0DEFFE8C0DEFFE9C0DEFF000E4624FC
:1015E800D96E020E4720DA6EDF6A46B0FEEF0AF0C7
:1015F80000EF0BF002EF0BF0C9EF05F001018A5183
:10160800D8A409EF0BF00BEF0BF021EF0BF0624BB6
:10161800632BD8900001DA35DA6FDB35DB6FDC3508
:10162800DC6FDD35DD6FDE35DE6FDF35DF6FE03532
:10163800E06FE135E16F5AEF07F0000E476E000EDC
:10164800466EFCEC45F00001ED05D8A42EEF0BF03A
:1016580030EF0BF0BDEF00F0000E4624D96E020EFD
:101668004720DA6E020EDF6EA90E3F6EFE0E406E48
:10167800E6C041F0E7C042F0E8C043F0E9C044F0FA
:1016880040EC45F010EF0CF0E951E8110BE1A70E22
:10169800E65D020EE759D8A054EF0BF056EF0BF0B9
:1016A800CBEF0BF0E951E81109E1D60EE65D040E27
:1016B800E759D8B062EF0BF064EF0BF0CBEF0BF00B
:1016C800475007E1960E465CD8B06DEF0BF06FEF10
:1016D8000BF08EEF0BF0820E606F050E616FD890E5
:1016E8004634D96E4734DA6ED890D936DA36605136
:1016F800D9266151DA22E6C0DEFFE7C0DEFFE8C086
:10170800DEFFE9C0DEFF000E4624D96E020E472038
:10171800DA6EDF6A46B093EF0BF095EF0BF097EFB8
:101728000BF063EF06F001018A05D8A49EEF0BF0D9
:10173800A0EF0BF0A4EF0BF0624B632BD0EF07F098
:10174800000E476E000E466EFCEC45F00001ED05FC
:10175800D8A4B1EF0BF0B3EF0BF0BDEF00F0000E23
:101768004624D96E020E4720DA6E020EDF6E680E2E
:101778003F6EFE0E406EE6C041F0E7C042F0E8C0A2
:1017880043F0E9C044F040EC45F010EF0CF0FCECFD
:1017980045F046C060F147C061F1475007E1C80E07
:1017A800465CD8B0DAEF0BF0DCEF0BF0FDEF0BF096
:1017B800820E0001606F050E616FD8904634D96EB5
:1017C8004734DA6ED890D936DA366051D926615165
:1017D800DA22E6C0DEFFE7C0DEFFE8C0DEFFE9C0D0
:1017E800DEFF000E4624D96E020E4720DA6E030E85
:1017F800DF6E0001ED05D8A404EF0CF006EF0CF045
:10180800BDEF00F0190E3F6EFF0E406E46C041F06E
:1018180047C042F040EC45F0F29071C0F5FF70C04F
:10182800F8FF6FC0F7FF6EC0F6FF6DC0F4FF6CC025
:10183800F3FF6BC0DAFF6AC0D9FF69C0E2FF68C076
:10184800E1FF4F921100F9EF3FF0C9C072F0CAC032
:1018580073F0DF0E0001746FFF0E756F88EC41F0B6
:10186800000172517311D8A43CEF0CF03EEF0CF05C
:1018780042EF0CF0D2EC39F06FEF13F0C9C072F000
:10188800CAC073F0DC0E746FFF0E756F88EC41F000
:10189800000172517311D8A454EF0CF056EF0CF0FC
:1018A800BEEF0CF0ED2B040EED655DEF0CF05FEF75
:1018B8000CF060EF0CF0ED6BB30EB06FFE0EB16F75
:1018C800EDC0B2F0B36B25EC45F00001ED51D8A4A2
:1018D80070EF0CF072EF0CF078EF0CF0950EB06F23
:1018E800FD0EB16F25EC45F00001ED05D8A47FEFA2
:1018F8000CF081EF0CF087EF0CF0B40EB06FF80E1F
:10190800B16F25EC45F0020E0001ED19D8A48FEF58
:101918000CF091EF0CF097EF0CF0A70EB06FFC0EE7
:10192800B16F25EC45F0030E0001ED19D8A49FEF27
:101938000CF0A1EF0CF0A7EF0CF05A0EB06FF90EF7
:10194800B16F25EC45F0040E0001ED19D8A4AFEFF6
:101958000CF0B1EF0CF06FEF13F0490EB06FFC0E06
:10196800B16F25EC45F0010E0101836F0001ED6BAD
:101978006FEF13F0C9C072F0CAC073F0E90E746F4C
:10198800FF0E756F88EC41F0000172517311D8A4F5
:10199800D0EF0CF0D2EF0CF01FEF0DF00101922BFD
:1019A800020E9219D8A4DBEF0CF0DDEF0CF0DEEF9D
:1019B8000CF0926B540E0001B06FFB0EB16F010179
:1019C8009251040DED0EF324D96E010EF420DA6E57
:1019D800DECFB2F0DECFB3F0DECFB4F0DECFB5F0BD
:1019E80025EC45F001019251D8A4FDEF0CF0FFEF72
:1019F8000CF00AEF0DF03C0E0001B06FFB0EB16F5A
:101A080025EC45F0060E7D6E820EAF6E0101920543
:101A1800D8A411EF0DF013EF0DF06FEF13F0CD0E0A
:101A28000001B06FFD0EB16F25EC45F07D6A440EE4
:101A3800AF6E6FEF13F0C9C072F0CAC073F0EB0E4F
:101A4800746FFF0E756F88EC41F0000172517311CD
:101A5800D8A431EF0DF033EF0DF053EF0DF0010185
:101A68009251D8B43AEF0DF03CEF0DF043EF0DF082
:101A7800DC0E0001B06FF70EB16F25EC45F0810E5A
:101A88000001B06FF50EB16F25EC45F0000E0001B6
:101A9800876F010E866FB1EC29F06FEF13F0C9C0A4
:101AA80072F0CAC073F0ED0E746FFF0E756F88EC9C
:101AB80041F0000172517311D8A465EF0DF067EF82
:101AC8000DF087EF0DF001019251D8B46EEF0DF0D3
:101AD80070EF0DF077EF0DF0DC0E0001B06FF70E30
:101AE800B16F25EC45F0DE0E0001B06FF50EB16F59
:101AF80025EC45F0000E0001876F020E866FB1ECF1
:101B080029F06FEF13F0C9C072F0CAC073F0EF0E7E
:101B1800746FFF0E756F88EC41F0000172517311FC
:101B2800D8A499EF0DF09BEF0DF09FEF0DF070EC3E
:101B380013F06FEF13F0C9C072F0CAC073F0F10E62
:101B4800746FFF0E756F88EC41F0000172517311CC
:101B5800D8A4B1EF0DF0B3EF0DF065EF0EF0F29EE3
:101B68005D0EB06FFC0EB16F25EC45F029EF0EF05D
:101B7800780E0001B06FFF0EB16F25EC45F051EF04
:101B88000EF0240E0001B06FFD0EB16F4CC1B2F023
:101B98004DC1B3F04EC1B4F04FC1B5F025EC45F0DE
:101BA80051EF0EF0EF0E0001B06FFA0EB16F4CC19D
:101BB800B2F04DC1B3F04EC1B4F04FC1B5F025EC51
:101BC80045F051EF0EF0800E0001B06FF90EB16FC5
:101BD80025EC45F051EF0EF0820E0001B06FFA0EC1
:101BE800B16F25EC45F051EF0EF00A0E0001B06F11
:101BF800F90EB16F25EC45F051EF0EF0760E0001AD
:101C0800B06FFD0EB16F25EC45F051EF0EF07E0E72
:101C18000001B06FFE0EB16F25EC45F051EF0EF0EC
:101C2800090E0001B06FFB0EB16F25EC45F051EFC6
:101C38000EF0050E0001B06FFB0EB16F9BC1B2F044
:101C4800B36B25EC45F051EF0EF001019B51000AF2
:101C5800D8B4BCEF0DF0010AD8B4C5EF0DF0030AF3
:101C6800D8B4D6EF0DF0010AD8B4E7EF0DF0070AA3
:101C7800D8B4F0EF0DF0010AD8B4F9EF0DF0030A6B
:101C8800D8B402EF0EF0010AD8B40BEF0EF00F0A29
:101C9800D8B414EF0EF01DEF0EF06C0E0001B06F0B
:101CA800FB0EB16F9AC1B2F0B36B25EC45F0D20EC2
:101CB8000001B06FFA0EB16F25EC45F0F28E6FEFB0
:101CC80013F0C9C072F0CAC073F0F30E746FFF0E40
:101CD800756F88EC41F0000172517311D8A477EF49
:101CE8000EF079EF0EF0F8EF0EF0F29E860EB06F60
:101CF800FD0EB16F94C1B2F0B36B25EC45F0F50E53
:101D08000001B06FFB0EB16F93C1B2F0B36B25EC5D
:101D180045F0950E0001B06FFC0EB16F6EC1B2F0C8
:101D28006FC1B3F025EC45F0010E0001E26F000E23
:101D3800E36F000EE46F000EE56FE551E411E31167
:101D480009E1830EE25DD8A0ACEF0EF0AEEF0EF025
:101D5800B0EF0EF0D9EF0EF0C20EB06FFF0EB16FFC
:101D6800E2C0B2F0E3C0B3F0E4C0B4F0E5C0B5F04F
:101D780025EC45F0BA0E0001B06FFF0EB16F000EF2
:101D8800E225D96E050EE321DA6EDF50CB6FCB5119
:101D9800B26FB36B25EC45F0010E0001E227000E8F
:101DA800E323E423E523A1EF0EF0D20EB06FFA0E81
:101DB800B16F25EC45F0130E0001B06FFD0EB16F49
:101DC8006CC1B2F06DC1B3F025EC45F0A40E000172
:101DD800B06FFD0EB16F6AC1B2F06BC1B3F025EC04
:101DE80045F0F28E6FEF13F0C9C072F0CAC073F0FD
:101DF800F50E746FFF0E756F88EC41F0000172519B
:101E08007311D8A40AEF0FF00CEF0FF07DEF0FF06D
:101E1800F29E000EE26F000EE36F000EE46F000EFC
:101E2800E56FE551E411E31109E1C80EE25DD8A0C0
:101E380020EF0FF022EF0FF024EF0FF07AEF0FF002
:101E4800E2C0BBF0E3C0BCF0E4C0BDF0E5C0BEF04A
:101E580025EC31F0C20E0001B06FFF0EB16FE2C089
:101E6800B2F0E3C0B3F0E4C0B4F0E5C0B5F025ECDF
:101E780045F0A10E0001B06FFF0EB16F00C3B2F0C4
:101E8800B36B25EC45F0010E0001E225CB6F000E87
:101E9800E321CC6F000EE421CD6F000EE521CE6F5B
:101EA8000F0ECB15CF6F000ECC15D06F000ECD15D1
:101EB800D16F000ECE15D26FCF51D011D111D211E2
:101EC800D8A469EF0FF06BEF0FF071EF0FF0D20E9F
:101ED800B06FFA0EB16F25EC45F0010E0001E22754
:101EE800000EE323E423E52315EF0FF0F28E6FEFE6
:101EF80013F0C9C072F0CAC073F0C70E746FFB0E3E
:101F0800756F88EC41F0000172517311D8A48FEFFE
:101F18000FF091EF0FF017EF10F0F29E000EE26F46
:101F2800000EE36F000EE46F000EE56FE551E4115B
:101F38000AE1E229030EE359D8A0A5EF0FF0A7EFB5
:101F48000FF0A9EF0FF014EF10F0E2C072F0E3C049
:101F580073F04DEC45F00101CA6F0F0E0001E21558
:101F6800CB6F000EE315CC6F000EE415CD6F000E9D
:101F7800E515CE6FCB51CC11CD11CE11D8A4C7EF3A
:101F88000FF0C9EF0FF0D7EF0FF0C60EB06FFF0ECE
:101F9800B16FE2C0B2F0E3C0B3F0E4C0B4F0E5C0A2
:101FA800B5F025EC45F0A10E0001B06FFF0EB16F42
:101FB800CAC1B2F0B36B25EC45F0010E0001E22571
:101FC800CB6F000EE321CC6F000EE421CD6F000E25
:101FD800E521CE6F0F0ECB15CF6F000ECC15D06F4D
:101FE800000ECD15D16F000ECE15D26FCF51D01186
:101FF800D111D211D8A403EF10F005EF10F00BEFB8
:1020080010F0D20EB06FFA0EB16F25EC45F0010E4C
:102018000001E227000EE323E423E5239AEF0FF003
:10202800F28E6FEF13F0C9C072F0CAC073F0F70EEA
:10203800746FFF0E756F88EC41F0000172517311D7
:10204800D8A429EF10F02BEF10F0DAEF10F001010F
:10205800CF6BF29E830E0001B06FFC0EB16F25ECC2
:1020680045F0000E0001E26F000EE36F000EE46F12
:10207800000EE56F82EF10F0E2C0BBF0E3C0BCF0E9
:10208800E4C0BDF0E5C0BEF0800EBF6FEDEC31F0EE
:10209800800E0001E225E26F000EE321E36F000EDF
:1020A800E421E46F000EE521E56F000E0101CB6F1E
:1020B800000ECC6F000ECD6F000ECE6FCE51CD113D
:1020C800CC1109E1800ECB5DD8A06DEF10F06FEF59
:1020D80010F071EF10F082EF10F0000ECB25D96EE2
:1020E800030ECC21DA6EDF50CF19CF6F010ECB274C
:1020F800000ECC23CD23CE2362EF10F00001E55172
:102108000CE1E229FF0EE359010EE459D8A08FEF44
:1021180010F091EF10F040EF10F0000EBB6F000EC2
:10212800BC6F000EBD6F000EBE6F25EC31F00301D1
:1021380000510001E26FE36BE46BE56B030EE219FB
:10214800E311E411E511D8B4ACEF10F0AEEF10F0E4
:10215800B4EF10F0E00EB06FF80EB16F25EC45F05B
:10216800230E0001B06FFB0EB16FCFC1B2F0B36B9D
:1021780025EC45F00101CF51D8A4C5EF10F0C7EF09
:1021880010F0D0EF10F0970E0001B06FFF0EB16F96
:1021980025EC45F0D7EF10F0E50E0001B06FFE0E0C
:1021A800B16F25EC45F0F28E6FEF13F0C9C072F0F5
:1021B800CAC073F0F90E746FFF0E756F88EC41F0AA
:1021C800000172517311D8A4ECEF10F0EEEF10F08B
:1021D800D3EF11F0000E0101D06F000ED16F000E89
:1021E800D26F000ED36FF29EC2EF11F0D0C1BBF0D8
:1021F800D1C1BCF0D2C1BDF0D3C1BEF0800E000188
:10220800BF6FEDEC31F0000E0001E26F000EE36FDE
:10221800000EE46F000EE56FE551E411E31109E1EA
:10222800800EE25DD8A01BEF11F01DEF11F01FEF3B
:1022380011F0B5EF11F00101D0510001E2250101C3
:10224800C66FD1510001E3210101C76FD2510001CE
:10225800E4210101C86FD3510001E5210101C96FD3
:102268000F0E0001E215CB6F000EE315CC6F000EC8
:10227800E415CD6F000EE515CE6FCB51CC11CD1105
:10228800CE11D8A44AEF11F04CEF11F069EF11F01C
:102298000101C6510001BB6F0101C7510001BC6FAC
:1022A8000101C8510001BD6F0101C9510001BE6F94
:1022B800BF6BC06BC16BC26B82EC44F0FE0E0001B9
:1022C800B06FFE0EB16F25EC45F0BE0E0001B06F89
:1022D800FF0EB16F000EE225D96E030EE321DA6E10
:1022E800DF50CB6FCB51B26FB36B25EC45F0010ECD
:1022F8000001E225CB6F000EE321CC6F000EE42134
:10230800CD6F000EE521CE6F0F0ECB15CF6F000EEF
:10231800CC15D06F000ECD15D16F000ECE15D26F33
:10232800CF51D011D111D211D8A49DEF11F09FEF48
:1023380011F0A5EF11F0D20EB06FFA0EB16F25ECC7
:1023480045F0E40E00D000D0E82EFCD700D000D035
:10235800010E0001E227000EE323E423E52310EF3A
:1023680011F0800E0101D025D06F000ED121D16F60
:10237800000ED221D26F000ED321D36FD3510CE1BE
:10238800D029FF0ED159010ED259D8A0CEEF11F0A5
:10239800D0EF11F0FAEF10F0F28E6FEF13F0C9C022
:1023A80072F0CAC073F0FB0E746FFF0E756F88EC85
:1023B80041F0000172517311D8A4E5EF11F0E7EF75
:1023C80011F053EF13F0000EE26F000EE36F000EF2
:1023D800E46F000EE56FE2C0CBF0E3C0CCF0D8901C
:1023E800CB37CC37D890CB37CC37000ECB25726F94
:1023F800010ECC21736F4DEC45F00001CD6FCD512E
:102408000101D46FD56BD66BD76BD86BD96BDA6BF0
:10241800DB6BE2C0CBF0E3C0CCF00001D890CB3747
:10242800CC37D890CB37CC37010ECB25726F010E45
:10243800CC21736F4DEC45F00001CD6FCDC0CEF0CF
:10244800CF6BD06BD16BD0C0D1F0CFC0D0F0CEC0A5
:10245800CFF0CE6BCE51D26FCF51D36FD051D46F56
:10246800D151D56FD66BD76BD86BD96B0101D451CD
:102478000001D2250101D46FD5510001D3210101FA
:10248800D56FD6510001D4210101D66FD751000173
:10249800D5210101D76FD8510001D6210101D86F8C
:1024A800D9510001D7210101D96FDA510001D82192
:1024B8000101DA6FDB510001D9210101DB6FE2C0B4
:1024C800CBF0E3C0CCF00001D890CB37CC37D89014
:1024D800CB37CC37020ECB25726F010ECC21736F30
:1024E8004DEC45F00001CD6FCDC0CEF0CF6BD06B79
:1024F800D16BCFC0D1F0CEC0D0F0CF6BCE6BCE5168
:10250800D26FCF51D36FD051D46FD151D56FD66B15
:10251800D76BD86BD96B0101D4510001D2250101C9
:10252800D46FD5510001D3210101D56FD6510001D7
:10253800D4210101D66FD7510001D5210101D76FF0
:10254800D8510001D6210101D86FD9510001D721F6
:102558000101D96FDA510001D8210101DA6FDB518D
:102568000001D9210101DB6FE2C0CBF0E3C0CCF060
:102578000001D890CB37CC37D890CB37CC37030E67
:10258800CB25726F010ECC21736F4DEC45F0000125
:10259800CD6FCDC0CEF0CF6BD06BD16BCEC0D1F0AC
:1025A800D06BCF6BCE6BCE51D26FCF51D36FD05192
:1025B800D46FD151D56FD66BD76BD86BD96B01015E
:1025C800D4510001D2250101D46FD5510001D32186
:1025D8000101D56FD6510001D4210101D66FD75121
:1025E8000001D5210101D76FD8510001D621010181
:1025F800D86FD9510001D7210101D96FDA510001F3
:10260800D8210101DA6FDB510001D9210101DB6F0B
:10261800B90E0001B06FFC0EB16F010EE225B26F6A
:10262800000EE321B36F000EE421B46F000EE52124
:10263800B56F25EC45F0D4C1BBF0D5C1BCF0D6C10F
:10264800BDF0D7C1BEF0D8C1BFF0D9C1C0F0DAC162
:10265800C1F0DBC1C2F082EC44F0D20E0001B06FD1
:10266800FA0EB16F25EC45F0010E0001E227000ECD
:10267800E323E423E523E551E411E31109E1140E12
:10268800E25DD8A04AEF13F04CEF13F0EFEF11F032
:10269800E207000EE35BE45BE55B6FEF13F0C9C094
:1026A80072F0CAC073F0FD0E746FFF0E756F88EC80
:1026B80041F0000172517311D8A465EF13F067EF70
:1026C80013F069EF13F06FEF13F0840EB06FFB0E89
:1026D800B16F25EC45F01200F29E0101876B230EC5
:1026E8000001B06FFE0EB16F60C1B2F061C1B3F00E
:1026F80025EC45F00001EC51D8A485EF13F087EFE5
:1027080013F08DEF13F0340EB06FFC0EB16F25ECA3
:1027180045F0020E0001EC19D8A495EF13F097EFDD
:1027280013F09DEF13F0660EB06FFD0EB16F25EC40
:1027380045F0040E0001EC19D8A4A5EF13F0A7EF9B
:1027480013F0ADEF13F0350EB06FFD0EB16F25EC41
:1027580045F0030E0001EC19D8A4B5EF13F0B7EF5C
:1027680013F0BDEF13F0B20EB06FFB0EB16F25EC96
:1027780045F0050E0001EC19D8A4C5EF13F0C7EF1A
:1027880013F0CDEF13F0700EB06FFC0EB16F25ECA7
:1027980045F00001EC05D8A4D4EF13F0D6EF13F000
:1027A800DCEF13F00A0EB06FFC0EB16F25EC45F0AC
:1027B800D20E0001B06FFA0EB16F25EC45F0010E94
:1027C8000001C26F010EC16FFF0EC225726F736BDD
:1027D800FF0E7323000E756F140E746FC3EC3DF07B
:1027E8000001C151140DF3CFBBF0F4CFBCF072510E
:1027F800BB25BD6F7351BC21BE6FEC0EBD25BF6FED
:10280800FF0EBE21C06FBFC0E2F0C0C0E3F0000EF3
:10281800E3BFFF0EE46FE56F010160510001BB6F7C
:10282800010161510001BC6FBD6BBE6BE251BB5D24
:10283800E351BC59E451BD59E551BE59D8A027EF21
:1028480014F029EF14F058EF18F0CA0EB06FFF0E0D
:10285800B16FE2C0B2F0E3C0B3F0E4C0B4F0E5C0D9
:10286800B5F025EC45F07E0E0001BB6F050EBC6F80
:10287800D890E235D96EE335DA6ED890D936DA36A3
:10288800BB51D926BC51DA22DECFC3F0DDCFC4F06C
:10289800820EBB6F050EBC6FD890E235D96EE3355A
:1028A800DA6ED890D936DA36BB51D926BC51DA223D
:1028B800DECFE6F0DECFE7F0DECFE8F0DECFE9F0FE
:1028C800910EB06FFF0EB16FE6C0B2F0E7C0B3F083
:1028D800E8C0B4F0E9C0B5F025EC45F00001EC51D2
:1028E800D8A479EF14F07BEF14F081EF14F0FD0E0B
:1028F800B06FFE0EB16F25EC45F00001EC05D8A4D1
:1029080088EF14F08AEF14F040EF15F0E951E81160
:102918000BE1A90EE65D8F0EE759D8A096EF14F0EB
:1029280098EF14F0AEEF14F0E951E81109E1780ED0
:10293800E65D970EE759D8B0A4EF14F0A6EF14F0AF
:10294800AEEF14F0E40EB06FFF0EB16F25EC45F05A
:1029580020EF15F0E951E8110BE1A70EE65D020E34
:10296800E759D8A0BAEF14F0BCEF14F0D2EF14F086
:10297800E951E81109E1D60EE65D040EE759D8B031
:10298800C8EF14F0CAEF14F0D2EF14F0D80EB06FFD
:10299800FF0EB16F25EC45F020EF15F0E951E81175
:1029A8000BE1930EE65D060EE759D8A0DEEF14F0B2
:1029B800E0EF14F0F6EF14F0E951E81109E1C20E66
:1029C800E65D080EE759D8B0ECEF14F0EEEF14F01E
:1029D800F6EF14F0DB0EB06FFF0EB16F25EC45F08B
:1029E80020EF15F0E951E8110BE18C0EE65D0A0EB7
:1029F800E759D8A002EF15F004EF15F01AEF15F01B
:102A0800E951E81109E1BB0EE65D0C0EE759D8B0B3
:102A180010EF15F012EF15F01AEF15F0E10EB06F88
:102A2800FF0EB16F25EC45F020EF15F0DE0EB06F0C
:102A3800FF0EB16F25EC45F0000E0001E225D96EBE
:102A4800020EE321DA6EDF50D8B42DEF15F02FEF28
:102A580015F040EF15F0610EB06FFF0EB16F000E6C
:102A6800E225D96E020EE321DA6EDF50BB6FBB514F
:102A7800B26FB36B25EC45F0020E0001EC19D8A437
:102A880048EF15F04AEF15F0DCEF15F0E951E811C1
:102A98000BE1130EE65D700EE759D8A056EF15F05E
:102AA80058EF15F06EEF15F0E951E81109E1E20E63
:102AB800E65D770EE759D8B064EF15F066EF15F0CC
:102AC8006EEF15F0E40EB06FFF0EB16F25EC45F018
:102AD800BCEF15F0E951E8110BE1D70EE65D010EE8
:102AE800E759D8A07AEF15F07CEF15F092EF15F0C2
:102AF800E951E81109E12A0EE65D030EE759D8B05D
:102B080088EF15F08AEF15F092EF15F0D80EB06F38
:102B1800FF0EB16F25EC45F0BCEF15F0E951E81157
:102B28000BE1570EE65D040EE759D8A09EEF15F0AD
:102B3800A0EF15F0B6EF15F0E951E81109E1AA0E7A
:102B4800E65D050EE759D8B0ACEF15F0AEEF15F01D
:102B5800B6EF15F0DB0EB06FFF0EB16F25EC45F048
:102B6800BCEF15F0DE0EB06FFF0EB16F25EC45F02F
:102B7800000E0001E225D96E020EE321DA6EDF5065
:102B8800D8B4C9EF15F0CBEF15F0DCEF15F0610EF6
:102B9800B06FFF0EB16F000EE225D96E020EE32171
:102BA800DA6EDF50BB6FBB51B26FB36B25EC45F0EB
:102BB800040E0001EC19D8A4E4EF15F0E6EF15F0C7
:102BC8009BEF16F0E951E8110BE1F50EE65D0F0EEB
:102BD800E759D8A0F2EF15F0F4EF15F00AEF16F068
:102BE800E951E81109E1C40EE65D170EE759D8B0BE
:102BF80000EF16F002EF16F00AEF16F0E40EB06FD1
:102C0800FF0EB16F25EC45F07BEF16F0E951E811A6
:102C18000BE14A0EE65D040EE759D8A016EF16F050
:102C280018EF16F02DEF16F0E951E81108E1E60566
:102C3800060EE759D8B023EF16F025EF16F02DEF62
:102C480016F0D80EB06FFF0EB16F25EC45F07BEF94
:102C580016F0E951E8110BE15B0EE65D090EE75944
:102C6800D8A039EF16F03BEF16F051EF16F0E95106
:102C7800E81109E1120EE65D0B0EE759D8B047EFEF
:102C880016F049EF16F051EF16F0DB0EB06FFF0E9D
:102C9800B16F25EC45F07BEF16F0E951E8110BE137
:102CA800A50EE65D240EE759D8A05DEF16F05FEF9C
:102CB80016F075EF16F0E951E81109E15C0EE65DD2
:102CC800260EE759D8B06BEF16F06DEF16F075EFDA
:102CD80016F0E10EB06FFF0EB16F25EC45F07BEFFB
:102CE80016F0DE0EB06FFF0EB16F25EC45F0000E4A
:102CF8000001E225D96E020EE321DA6EDF50D8B466
:102D080088EF16F08AEF16F09BEF16F0610EB06FA1
:102D1800FF0EB16F000EE225D96E020EE321DA6EC6
:102D2800DF50BB6FBB51B26FB36B25EC45F0030EA0
:102D38000001EC19D8A4A3EF16F0A5EF16F08FEF59
:102D480017F0E951E8110BE1C30EE65D7E0EE75975
:102D5800D8A0B1EF16F0B3EF16F0C9EF16F0E951AD
:102D6800E81109E10E0EE65D830EE759D8B0BFEF12
:102D780016F0C1EF16F0C9EF16F0E40EB06FFF0EB3
:102D8800B16F25EC45F06FEF17F0E951E8110BE151
:102D98005B0EE65D1E0EE759D8A0D5EF16F0D7EF0B
:102DA80016F0EDEF16F0E951E81109E14E0EE65D77
:102DB800200EE759D8B0E3EF16F0E5EF16F0EDEF87
:102DC80016F0E10EB06FFF0EB16F25EC45F06FEF16
:102DD80017F0E2B1F2EF16F0F4EF16F067EF17F024
:102DE800470EC35D050EC459D8A0FDEF16F0FFEFDE
:102DF80016F02CEF17F03A0EC35D070EC459D8B081
:102E080008EF17F00AEF17F02CEF17F0E951E81167
:102E18000BE1590EE65D020EE759D8A016EF17F040
:102E280018EF17F02CEF17F0E951E81109E14C0EF3
:102E3800E65D040EE759D8B024EF17F026EF17F037
:102E48002CEF17F0DB0EB06FFF0EB16F25EC45F0DD
:102E5800590E0001C35D020EC459D8A036EF17F011
:102E680038EF17F06FEF17F04C0EC35D040EC4591E
:102E7800D8B041EF17F043EF17F06FEF17F0E951B3
:102E8800E8110BE1470EE65D050EE759D8A04FEFB4
:102E980017F051EF17F06FEF17F0E951E81109E15A
:102EA8003A0EE65D070EE759D8B05DEF17F05FEF11
:102EB80017F06FEF17F0D80EB06FFF0EB16F25EC5B
:102EC80045F06FEF17F0FD0EB06FFE0EB16F25ECF9
:102ED80045F06FEF17F0000E0001E225D96E020EE3
:102EE800E321DA6EDF50D8B47CEF17F07EEF17F0ED
:102EF8008FEF17F0610EB06FFF0EB16F000EE22575
:102F0800D96E020EE321DA6EDF50BB6FBB51B26F90
:102F1800B36B25EC45F0050E0001EC19D8A497EF2A
:102F280017F099EF17F04FEF18F0E951E8110BE19E
:102F38006B0EE65D180EE759D8A0A5EF17F0A7EFBE
:102F480017F0BDEF17F0E951E81109E1B60EE65D9B
:102F58001C0EE759D8B0B3EF17F0B5EF17F0BDEF77
:102F680017F0E40EB06FFF0EB16F25EC45F02FEFB0
:102F780018F0E951E8110BE1AF0EE65D0B0EE759C9
:102F8800D8A0C9EF17F0CBEF17F0E1EF17F0E95130
:102F9800E81109E1DA0EE65D0C0EE759D8B0D7EF73
:102FA80017F0D9EF17F0E1EF17F0E10EB06FFF0E51
:102FB800B16F25EC45F02FEF18F0E951E8110BE15E
:102FC800BD0EE65D020EE759D8A0EDEF17F0EFEF62
:102FD80017F005EF18F0E951E81109E1E80EE65D90
:102FE800030EE759D8B0FBEF17F0FDEF17F005EF28
:102FF80018F0D80EB06FFF0EB16F25EC45F02FEF2B
:1030080018F0E951E8110BE1AB0EE65D050EE75942
:10301800D8A011EF18F013EF18F029EF18F0E951C4
:10302800E81109E1D60EE65D060EE759D8B01FEFA4
:1030380018F021EF18F029EF18F0DB0EB06FFF0E33
:10304800B16F25EC45F02FEF18F0DE0EB06FFF0ED4
:10305800B16F25EC45F0000E0001E225D96E020E95
:10306800E321DA6EDF50D8B43CEF18F03EEF18F0E9
:103078004FEF18F0610EB06FFF0EB16F000EE22532
:10308800D96E020EE321DA6EDF50BB6FBB51B26F0F
:10309800B36B25EC45F0D50E0001B06FFF0EB16F94
:1030A80025EC45F05EEF18F0F70EB06FFE0EB16F2D
:1030B80025EC45F00001C12B090EC16566EF18F03B
:1030C80068EF18F0E8EF13F0D20EB06FFA0EB16F98
:1030D80025EC45F00001C22B140EC26576EF18F0FE
:1030E80078EF18F0E6EF13F0F5EC45F0F28E1200E9
:1030F80033EC45F08096808A01019B6B0F015D6B74
:103108005C6BD08EF19EF180F290F286F28EF29492
:10311800F28A5A89010E0101926F9251D8A497EF51
:1031280018F099EF18F09DEF18F0060E7D6E820EDC
:10313800AF6E9205D8A4A3EF18F0A5EF18F0A8EF8A
:1031480018F07D6A440EAF6E920ED56E150E000112
:10315800766FF80E776F43EC3AF0C00E0001766F89
:10316800FD0E776F43EC3AF04D0E0001766FF80EC6
:10317800776F43EC3AF0C00E0001766FFD0E776F63
:1031880043EC3AF08290D2EC39F08280010E0001D3
:10319800E26F000EE36F000EE46F000EE56FE5517D
:1031A800E411E31109E10A0EE25DD8A0DEEF18F0A0
:1031B800E0EF18F0E2EF18F007EF19F0090E01013F
:1031C800E66F1E0EE56FE40EE82EFED7E52FFCD75E
:1031D800E62FFAD700008290090E0101E66F1E0E55
:1031E800E56FE40EE82EFED7E52FFCD7E62FFAD7D9
:1031F80000008280010E0001E227000EE323E42391
:10320800E523D3EF18F0ED6B58EC46F0F28E000E84
:103218000001736F000E726F4DEC45F00101E56F10
:10322800E5510001E26FE36BE46BE56B210EE219F7
:10323800E311E411E511D8B424EF19F026EF19F0E1
:103248002CEF19F0260EB06FF70EB16F25EC45F094
:10325800000E0001BB6F000EBC6F000EBD6F000EAC
:10326800BE6F25EC31F0030100510001E26FE36B02
:10327800E46BE56B030EE219E311E411E511D8B430
:1032880048EF19F04AEF19F050EF19F0640EB06FDB
:10329800F70EB16F25EC45F0808681B456EF19F032
:1032A80058EF19F0BBEF19F0150E0101E56FC60EC6
:1032B800E82EFED7E52FFCD70000010E01014827B4
:1032C800000E49234A234B234B514A110BE1890E27
:1032D800485D130E4959D8A074EF19F076EF19F02C
:1032E800BBEF19F08290000E486F000E496F000E78
:1032F8004A6F000E4B6FC70E0001B06FF90EB16F29
:1033080025EC45F0010E01016D6F000E6C6F280E63
:103318006C5D010E6D59D8A094EF19F096EF19F075
:1033280098EF19F0A6EF19F06CC172F06DC173F047
:10333800FF0E0001746F84EC42F001016C4B6D2BA1
:103348008BEF19F0520E0101E66F2B0EE56F000EA0
:10335800E82EFED7E52FFCD7E62FFAD700008280AB
:1033680081A4B9EF19F0BBEF19F0B4EF19F001011E
:103378008951D8B4C2EF19F0C5EF19F0010EC6EFA4
:1033880019F0000EE56FE66B81B4CDEF19F0D0EFC0
:1033980019F0010ED1EF19F0000EE517000EE6172F
:1033A8004B514A11491107E1C90E485DD8B0DFEF0A
:1033B80019F0E2EF19F0010EE3EF19F0000EE5172E
:1033C800000EE6174B514A110CE1E80E485D030E5A
:1033D8004959D8A0F2EF19F0F5EF19F0010EF6EF00
:1033E80019F0000EE517000EE617E551E611D8B4FE
:1033F80000EF1AF002EF1AF012EF1AF0500E406FB9
:10340800C30E416F000E426F000E436F000E446FF3
:10341800000E456F000E466F000E476F4051411178
:10342800421143114411451146114711D8B41FEFF9
:103438001AF021EF1AF087EF1AF04007000E415BEF
:10344800425B435B445B455B465B475B40C172F054
:1034580041C173F042C174F043C175F044C176F0C4
:1034680045C177F046C178F047C179F0E80E000110
:103478007A6F030E7B6F000E7C6F000E7D6F000E5F
:103488007E6F000E7F6F000E806F000E816FB3ECB1
:103498003AF072C0E5F173C0E6F174C0E7F175C0A7
:1034A800E8F176C0E9F177C0EAF178C0EBF179C0CC
:1034B800ECF10101E551E611E711E811E911EA1112
:1034C800EB11EC11D8A46BEF1AF06DEF1AF076EF50
:1034D8001AF082A072EF1AF075EF1AF0828076EF78
:1034E8001AF08290010140514111421143114411D7
:1034F800451146114711D8A484EF1AF086EF1AF047
:1035080087EF1AF08280000E81B4010E896F81A4C2
:1035180090EF1AF092EF1AF09AEF1AF0000E486F37
:10352800000E496F000E4A6F000E4B6F8D51D8A4E4
:10353800A0EF1AF0A2EF1AF0A4EF1AF070EC38F02E
:1035480001018751D8B4ABEF1AF0ADEF1AF0AFEF25
:103558001AF070EC13F001018D51D8B4B6EF1AF0DF
:10356800B8EF1AF051EF19F08D6BF29E020E0001C0
:10357800ED19D8A4C2EF1AF0C4EF1AF0C6EF1AF08A
:1035880070EC13F00001EC05D8A4CDEF1AF0CFEFE2
:103598001AF0FEEF1AF0ED51D8B4D5EF1AF0D7EFC4
:1035A8001AF0F0EF1AF0DAC0BBF0DBC0BCF0DCC0F8
:1035B800BDF0DDC0BEF0DEC0BFF0DFC0C0F0E0C0CF
:1035C800C1F0E1C0C2F0F8EC37F0FE0E0001B06FB8
:1035D800FE0EB16F25EC45F0C9EC1BF00009D8B41C
:1035E800F8EF1AF0FAEF1AF0FEEF1AF06CEC2CF084
:1035F80015EC1FF0020E0001EC19D8A406EF1BF021
:1036080008EF1BF032EF1BF0DAC038F1DBC039F1FC
:10361800DCC03AF1DDC03BF1DEC03CF1DFC03DF17A
:10362800E0C03EF1E1C03FF1CB0EB06FFC0EB16FD0
:1036380025EC45F0DAC0BBF0DBC0BCF0DCC0BDF067
:10364800DDC0BEF0DEC0BFF0DFC0C0F0E0C0C1F03A
:10365800E1C0C2F082EC44F015EC1FF0040E00014A
:10366800EC19D8A43AEF1BF03CEF1BF061EF1BF00C
:103678002BEC22F0E806D8A444EF1BF046EF1BF031
:1036880061EF1BF0DD0E0001B06FFC0EB16F25EC91
:1036980045F038C1BBF039C1BCF03AC1BDF03BC1FF
:1036A800BEF03CC1BFF03DC1C0F03EC1C1F03FC15A
:1036B800C2F082EC44F015EC1FF0030E0001EC1987
:1036C800D8A469EF1BF06BEF1BF0A1EF1BF0ABEC7C
:1036D80032F0EF0E0001B06FFC0EB16F25EC45F033
:1036E80038C1BBF039C1BCF03AC1BDF03BC1BEF036
:1036F8003CC1BFF03DC1C0F03EC1C1F03FC1C2F006
:1037080082EC44F0B50E0001B06FFF0EB16F38C106
:10371800B2F039C1B3F03AC1B4F03BC1B5F025EC11
:1037280045F0890E0001B06FFE0EB16F91C1B2F085
:10373800B36B25EC45F015EC1FF0050E0001EC19F4
:10374800D8A4A9EF1BF0ABEF1BF0B3EF1BF0000EF2
:10375800B06FFF0EB16F25EC45F003EC44F0000E9E
:10376800476E000E466E520E0101E66F2B0EE56F96
:10377800000EE82EFED7E52FFCD7E62FFAD700007B
:10378800F28E51EF19F027EF0CF0DAC0BBF0DBC076
:10379800BCF0DCC0BDF0DDC0BEF0DEC0BFF0DFC0F5
:1037A800C0F0E0C0C1F0E1C0C2F0040ED890000142
:1037B800BB37BC37BD37BE37BF37C037C137C23755
:1037C800E82EDAEF1BF0BBC0C5F0BCC0C6F0BDC028
:1037D800C7F0BEC0C8F0BFC0C9F0C0C0CAF0C1C001
:1037E800CBF0C2C0CCF020EEC5F0F00EDE18C56FED
:1037F800FF0EDE18C66FFF0EDE18C76FFF0EDE184D
:10380800C86FFF0EDE18C96FFF0EDE18CA6FFF0EF5
:10381800DE18CB6F000EDE18CC6FC5C0BBF0C6C07B
:10382800BCF0C7C0BDF0C8C0BEF0C9C0BFF0CAC0B8
:10383800C0F0CBC0C1F0CCC0C2F0310E2DEF1CF0EF
:10384800D890C233C133C033BF33BE33BD33BC336A
:10385800BB33E82E24EF1CF0BBC0CDF0BCC0CEF0CB
:10386800BDC0CFF0BEC0D0F0BFC0D1F0C0C0D2F054
:10387800C1C0D3F0C2C0D4F0CD39F00BF00B4D6EFF
:10388800040EBB6FCDC0BCF0CEC0BDF0CFC0BEF043
:10389800D0C0BFF0D1C0C0F0D2C0C1F0D3C0C2F018
:1038A800D4C0C3F0BB675BEF1CF067EF1CF0C335F7
:1038B800C333C233C133C033BF33BE33BD33BC336C
:1038C800BB2F56EF1CF00001BC510F0B4E6EC5C04C
:1038D800BBF0C6C0BCF0C7C0BDF0C8C0BEF0C9C010
:1038E800BFF0CAC0C0F0CBC0C1F0CCC0C2F0290E36
:1038F80087EF1CF0D890C233C133C033BF33BE3317
:10390800BD33BC33BB33E82E7EEF1CF0BBC0CDF01B
:10391800BCC0CEF0BDC0CFF0BEC0D0F0BFC0D1F0AB
:10392800C0C0D2F0C1C0D3F0C2C0D4F0040EBB6F87
:10393800CDC0BCF0CEC0BDF0CFC0BEF0D0C0BFF08F
:10394800D1C0C0F0D2C0C1F0D3C0C2F0D4C0C3F05F
:10395800BB67B1EF1CF0BDEF1CF0C335C333C233F6
:10396800C133C033BF33BE33BD33BC33BB2FACEF21
:103978001CF00001BC510F0B4D104D6ECD39F00BF2
:10398800F00B4C6EC5C0BBF0C6C0BCF0C7C0BDF0E4
:10399800C8C0BEF0C9C0BFF0CAC0C0F0CBC0C1F03B
:1039A800CCC0C2F0210EE2EF1CF0D890C233C13374
:1039B800C033BF33BE33BD33BC33BB33E82ED9EF7E
:1039C8001CF0BBC0CDF0BCC0CEF0BDC0CFF0BEC0B7
:1039D800D0F0BFC0D1F0C0C0D2F0C1C0D3F0C2C0D7
:1039E800D4F0040EBB6FCDC0BCF0CEC0BDF0CFC0CC
:1039F800BEF0D0C0BFF0D1C0C0F0D2C0C1F0D3C0BB
:103A0800C2F0D4C0C3F0BB670CEF1DF018EF1DF077
:103A1800C335C333C233C133C033BF33BE33BD3301
:103A2800BC33BB2F07EF1DF00001BC510F0B4C102E
:103A38004C6ECD39F00BF00B4B6EC5C0BBF0C6C059
:103A4800BCF0C7C0BDF0C8C0BEF0C9C0BFF0CAC096
:103A5800C0F0CBC0C1F0CCC0C2F0190E3DEF1DF0D4
:103A6800D890C233C133C033BF33BE33BD33BC3348
:103A7800BB33E82E34EF1DF0BBC0CDF0BCC0CEF098
:103A8800BDC0CFF0BEC0D0F0BFC0D1F0C0C0D2F032
:103A9800C1C0D3F0C2C0D4F0040EBB6FCDC0BCF01F
:103AA800CEC0BDF0CFC0BEF0D0C0BFF0D1C0C0F016
:103AB800D2C0C1F0D3C0C2F0D4C0C3F0BB6767EFB7
:103AC8001DF073EF1DF0C335C333C233C133C033A8
:103AD800BF33BE33BD33BC33BB2F62EF1DF00001D3
:103AE800BC510F0B4B104B6ECD39F00BF00B4A6EDF
:103AF800C5C0BBF0C6C0BCF0C7C0BDF0C8C0BEF0F2
:103B0800C9C0BFF0CAC0C0F0CBC0C1F0CCC0C2F0C1
:103B1800110E98EF1DF0D890C233C133C033BF33B4
:103B2800BE33BD33BC33BB33E82E8FEF1DF0BBC0B3
:103B3800CDF0BCC0CEF0BDC0CFF0BEC0D0F0BFC08D
:103B4800D1F0C0C0D2F0C1C0D3F0C2C0D4F0040ECE
:103B5800BB6FCDC0BCF0CEC0BDF0CFC0BEF0D0C0F2
:103B6800BFF0D1C0C0F0D2C0C1F0D3C0C2F0D4C041
:103B7800C3F0BB67C2EF1DF0CEEF1DF0C335C333F2
:103B8800C233C133C033BF33BE33BD33BC33BB2FA5
:103B9800BDEF1DF00001BC510F0B4A104A6ECD3924
:103BA800F00BF00B496EC5C0BBF0C6C0BCF0C7C077
:103BB800BDF0C8C0BEF0C9C0BFF0CAC0C0F0CBC01D
:103BC800C1F0CCC0C2F0BCC0BBF0BDC0BCF0BEC030
:103BD800BDF0BFC0BEF0C0C0BFF0C1C0C0F0C2C021
:103BE800C1F0C26BBBC0CDF0BCC0CEF0BDC0CFF041
:103BF800BEC0D0F0BFC0D1F0C0C0D2F0C1C0D3F0B9
:103C0800C2C0D4F0040EBB6FCDC0BCF0CEC0BDF0B6
:103C1800CFC0BEF0D0C0BFF0D1C0C0F0D2C0C1F09C
:103C2800D3C0C2F0D4C0C3F0BB671DEF1EF029EFAC
:103C38001EF0C335C333C233C133C033BF33BE33C1
:103C4800BD33BC33BB2F18EF1EF00001BC510F0B66
:103C58004910496ECD39F00BF00B486EC5C0CDF058
:103C6800C6C0CEF0C7C0CFF0C8C0D0F0C9C0D1F030
:103C7800CAC0D2F0CBC0D3F0CCC0D4F0040EBB6F16
:103C8800CDC0BCF0CEC0BDF0CFC0BEF0D0C0BFF03C
:103C9800D1C0C0F0D2C0C1F0D3C0C2F0D4C0C3F00C
:103CA800BB6759EF1EF065EF1EF0C335C333C2334F
:103CB800C133C033BF33BE33BD33BC33BB2F54EF26
:103CC8001EF00001BC510F0B4810486ED6EC42F0B4
:103CD8000001C46FED51D8B474EF1EF076EF1EF0FA
:103CE80012EF1FF0C451D8B47CEF1EF07EEF1EF027
:103CF80086EF1EF09C0EB06FFF0EB16F25EC45F0FD
:103D08008CEF1EF0A60EB06FFF0EB16F25EC45F0DC
:103D1800380E0001B06FFE0EB16F4EC0B2F0B36B3B
:103D280025EC45F0E70E0001B06FFF0EB16F25ECF2
:103D380045F0380E0001B06FFE0EB16F4DC0B2F005
:103D4800B36B25EC45F0E70E0001B06FFF0EB16FC5
:103D580025EC45F0380E0001B06FFE0EB16F4CC077
:103D6800B2F0B36B25EC45F0E70E0001B06FFF0E23
:103D7800B16F25EC45F0380E0001B06FFE0EB16F43
:103D88004BC0B2F0B36B25EC45F0E70E0001B06F05
:103D9800FF0EB16F25EC45F0380E0001B06FFE0E36
:103DA800B16F4AC0B2F0B36B25EC45F0E70E0001E5
:103DB800B06FFF0EB16F25EC45F0380E0001B06F03
:103DC800FE0EB16F49C0B2F0B36B25EC45F0E70EBB
:103DD8000001B06FFF0EB16F25EC45F0380E000101
:103DE800B06FFE0EB16F48C0B2F0B36B25EC45F072
:103DF800D20E0001B06FFF0EB16F25EC45F0000147
:103E0800C451D8A40AEF1FF00CEF1FF012EF1FF0F7
:103E1800D20EB06FFA0EB16F25EC45F00001C45117
:103E2800120038C174F039C175F03AC176F03BC15F
:103E380077F091EC2DF00001D66FAB0EB06FFF0E4E
:103E4800B16FD6C0B2F0B36B25EC45F00001D65186
:103E5800D8B431EF1FF033EF1FF096EF1FF0010ECB
:103E68000101846F0001EC05D8B43DEF1FF03FEF6E
:103E78001FF048EF1FF0040EEC19D8A446EF1FF00E
:103E880048EF1FF06CEF1FF0D651020D000EF3241F
:103E9800D96E010EF420DA6E01016851DE5C6951B9
:103EA800DE58D8A05AEF1FF05DEF1FF0010E5EEF4D
:103EB8001FF0000E846F0001D651020D000EF3248E
:103EC800D96E010EF420DA6E68C1DEFF69C1DDFF2C
:103ED80001018451D8B473EF1FF075EF1FF08FEF15
:103EE8001FF0CE0E0001B06FFF0EB16F25EC45F04C
:103EF800809A8290520E0001C86F2B0EC76F000E79
:103F0800E82EFED7C72FFCD7C82FFAD70000808A23
:103F1800828096EF1FF01F0E0001B06FFC0EB16F8C
:103F280025EC45F0D20E0001B06FFA0EB16F25EC0A
:103F380045F001014051411142114311441145110D
:103F480046114711D8B4ABEF1FF0ADEF1FF02AEFC1
:103F580022F021EE40F0070EDE6AE806FDE20001DD
:103F6800D651D8A4BAEF1FF0BCEF1FF021EF22F012
:103F7800000EE26F000EE36F000EE46F000EE56FB7
:103F8800E2C0C7F0E3C0C8F0D890C737C837D890A8
:103F9800C737C837000EC725726F010EC821736F67
:103FA8004DEC45F00001C96FC951D26FD36BD46B8A
:103FB800D56BE2C0C7F0E3C0C8F0D890C737C837A0
:103FC800D890C737C837010EC725726F010EC821B0
:103FD800736F4DEC45F00001C96FC9C0CAF0CB6BD7
:103FE800CC6BCD6BCCC0CDF0CBC0CCF0CAC0CBF085
:103FF800CA6BD251CA25D26FD351CB21D36FD451BA
:10400800CC21D46FD551CD21D56FE2C0C7F0E3C024
:10401800C8F0D890C737C837D890C737C837020E06
:10402800C725726F010EC821736F4DEC45F0000172
:10403800C96FC9C0CAF0CB6BCC6BCD6BCBC0CDF010
:10404800CAC0CCF0CB6BCA6BD251CA25D26FD35140
:10405800CB21D36FD451CC21D46FD551CD21D56F7D
:10406800E2C0C7F0E3C0C8F0D890C737C837D890C7
:10407800C737C837030EC725726F010EC821736F83
:104088004DEC45F00001C96FC9C0CAF0CB6BCC6BD1
:10409800CD6BCAC0CDF0CC6BCB6BCA6BD251CA25E5
:1040A800D26FD351CB21D36FD451CC21D46FD551FA
:1040B800CD21D56F010EE227000EE323E423E5238B
:1040C800D2290CE1D3290AE1D42908E1D529D8B4A9
:1040D80070EF20F072EF20F07FEF20F0E551E4114F
:1040E800E31109E1140EE25DD8A07DEF20F07FEF27
:1040F80020F0C4EF1FF0E207000EE35BE45BE55B32
:10410800E551E411E31109E1150EE25DD8A08FEF46
:1041180020F091EF20F099EF20F0460EB06FFD0EE1
:10412800B16F25EC45F02AEF22F0E2C0C7F0E3C0FA
:10413800C8F0D890C737C837D890C737C837000EE7
:10414800C725726F010EC821736F38C174F084ECF3
:1041580042F0E2C0C7F0E3C0C8F00001D890C7370A
:10416800C837D890C737C837010EC725726F010EF8
:10417800C821736F38C1C9F039C1CAF03AC1CBF050
:104188003BC1CCF03CC1CDF03DC1CEF03EC1CFF03B
:104198003FC1D0F0CAC0C9F0CBC0CAF0CCC0CBF088
:1041A800CDC0CCF0CEC0CDF0CFC0CEF0D0C0CFF0D7
:1041B800D06BC951746F84EC42F0E2C0C7F0E3C021
:1041C800C8F00001D890C737C837D890C737C83764
:1041D800020EC725726F010EC821736F38C1C9F06E
:1041E80039C1CAF03AC1CBF03BC1CCF03CC1CDF0EB
:1041F8003DC1CEF03EC1CFF03FC1D0F0110E0EEF61
:1042080021F0D890D033CF33CE33CD33CC33CB332A
:10421800CA33C933E82E05EF21F0C951746F84EC15
:1042280042F00001EC05D8A41CEF21F01EEF21F0AC
:1042380059EF21F0E2C0C7F0E3C0C8F0D890C73703
:10424800C837D890C737C837030EC725726F010E15
:10425800C821736F91C1C9F0C93BF00EC91738C1A5
:10426800CAF039C1CBF03AC1CCF03BC1CDF03CC16A
:10427800CEF03DC1CFF03EC1D0F03FC1D1F0190E14
:104288004FEF21F0D890D133D033CF33CE33CD3365
:10429800CC33CB33CA33E82E46EF21F0CA51C911CB
:1042A800746F84EC42F097EF21F0030EEC19D8A458
:1042B80060EF21F062EF21F064EF21F01EEF21F0B2
:1042C800E2C0C7F0E3C0C8F0D890C737C837D89065
:1042D800C737C837030EC725726F010EC821736F21
:1042E80038C1C9F039C1CAF03AC1CBF03BC1CCF0F2
:1042F8003CC1CDF03DC1CEF03EC1CFF03FC1D0F0C2
:10430800190E90EF21F0D890D033CF33CE33CD3380
:10431800CC33CB33CA33C933E82E87EF21F0C951E8
:10432800746F84EC42F0B20E0001B06FFD0EB16FF5
:1043380025EC45F038C1BBF039C1BCF03AC1BDF03D
:104348003BC1BEF03CC1BFF03DC1C0F03EC1C1F0B1
:104358003FC1C2F082EC44F0470E0001B06FFE0E80
:10436800B16F25EC45F0000E0001E26F000EE36F1F
:10437800000EE46F000EE56FE551E411E31109E169
:104388000A0EE25DD8A0CBEF21F0CDEF21F0CFEF00
:1043980021F0F2EF21F0050E0001C86F0F0EC76F74
:1043A800F10EE82EFED7C72FFCD7C82FFAD7829078
:1043B800050E0001C86F0F0EC76FF10EE82EFED76D
:1043C800C72FFCD7C82FFAD78280010E0001E22739
:1043D800000EE323E423E523C0EF21F038C174F095
:1043E80039C175F03AC176F03BC177F091EC2DF008
:1043F8000001D66FD651D8B404EF22F006EF22F0B0
:1044080012EF22F0D651020D000EF324D96E010EE0
:10441800F420DA6E68C1DEFF69C1DDFF520E0001CB
:10442800C86F2B0EC76F000EE82EFED7C72FFCD71C
:10443800C82FFAD700002AEF22F082809F0EB06FB3
:10444800FA0EB16F25EC45F012EF22F012000001D0
:10445800ED05D8A432EF22F034EF22F04DEF22F030
:10446800DAC0BBF0DBC0BCF0DCC0BDF0DDC0BEF024
:10447800DEC0BFF0DFC0C0F0E0C0C1F0E1C0C2F0F4
:10448800F8EC37F0D20E0001B06FFA0EB16F25ECE0
:1044980045F0E0C04EF0DFC04DF0DAC0C6F1DBC039
:1044A800C7F1DCC0C8F1DDC0C9F1DEC0CAF1DFC0A8
:1044B800CBF1E0C0CCF1E1C0CDF1210E6EEF22F0DE
:1044C8000101D890CD33CC33CB33CA33C933C83389
:1044D800C733C633E82E64EF22F0C6514C6EDAC0FB
:1044E800C6F1DBC0C7F1DCC0C8F1DDC0C9F1DEC070
:1044F800CAF1DFC0CBF1E0C0CCF1E1C0CDF1190EBB
:104508008FEF22F0D890CD33CC33CB33CA33C933B5
:10451800C833C733C633E82E86EF22F0C6514B6E38
:10452800DAC0C6F1DBC0C7F1DCC0C8F1DDC0C9F133
:10453800DEC0CAF1DFC0CBF1E0C0CCF1E1C0CDF103
:10454800110EB0EF22F0D890CD33CC33CB33CA3331
:10455800C933C833C733C633E82EA7EF22F0C65194
:104568004A6EDAC0C6F1DBC0C7F1DCC0C8F1DDC0F5
:10457800C9F1DEC0CAF1DFC0CBF1E0C0CCF1E1C0C7
:10458800CDF1C7C1C6F1C8C1C7F1C9C1C8F1CAC117
:10459800C9F1CBC1CAF1CCC1CBF1CDC1CCF1CD6B46
:1045A800C651496EDAC048F048504918486E49501B
:1045B8004A18496E4A504B184A6E4B504C184B6E6D
:1045C8004C504D184C6E4D504E184D6E0001ED0577
:1045D800D8A4F1EF22F0F3EF22F03FEF23F0E70E3B
:1045E800B06FFD0EB16F25EC45F0210E0001B06FE4
:1045F800FF0EB16F4EC0B2F0B36B25EC45F0290E3B
:104608000001B06FFF0EB16F4DC0B2F0B36B25EC77
:1046180045F0310E0001B06FFF0EB16F4CC0B2F023
:10462800B36B25EC45F0390E0001B06FFF0EB16F8A
:104638004BC0B2F0B36B25EC45F0410E0001B06FF2
:10464800FF0EB16F4AC0B2F0B36B25EC45F0490ECE
:104658000001B06FFF0EB16F49C0B2F0B36B25EC2B
:1046680045F0510E0001B06FFF0EB16F48C0B2F0B7
:10467800B36B25EC45F04E380F0B4E180001D36F85
:104688004D380F0BD3194D18D36F4C380F0BD31966
:104698004C18D36F4B380F0BD3194B18D36F4A38BC
:1046A8000F0BD3194A18D36F49380F0BD319491870
:1046B800D36F48380F0BD3194818D36FD3510F0B4A
:1046C800D36F4D380F0B0F0B0101916F4C50C76F13
:1046D800C66B4B50C625686F000EC721696F4AC06C
:1046E800C6F1C76BC86BC96BCA6BCB6BCC6BCD6B98
:1046F800CBC1CDF1CAC1CCF1C9C1CBF1C8C1CAF196
:10470800C7C1C9F1C6C1C8F1C76BC66BC6C138F10C
:10471800C7C139F1C8C13AF1C9C13BF1CAC13CF1BD
:10472800CBC13DF1CCC13EF1CDC13FF149C0C6F18D
:10473800C76BC86BC96BCA6BCB6BCC6BCD6BCCC171
:10474800CDF1CBC1CCF1CAC1CBF1C9C1CAF1C8C145
:10475800C9F1C7C1C8F1C6C1C7F1C66B3851C61186
:10476800386F3951C711396F3A51C8113A6F3B51F7
:10477800C9113B6F3C51CA113C6F3D51CB113D6F84
:104788003E51CC113E6F3F51CD113F6F48503825F7
:10479800386F000E3921396F000E3A213A6F000E3A
:1047A8003B213B6F000E3C213C6F000E3D213D6FCD
:1047B800000E3E213E6F000E3F213F6F0001ED05C8
:1047C800D8A4E9EF23F0EBEF23F081EF24F02F0ECC
:1047D800B06FFE0EB16FD3C0B2F0B36B25EC45F0ED
:1047E8000001D351D8B4FBEF23F0FDEF23F003EF22
:1047F80024F0690EB06FFF0EB16F25EC45F0D20EB4
:104808000001B06FFA0EB16F25EC45F03B0E0001C8
:10481800B06FFE0EB16F4EC0B2F0B36B25EC45F031
:104828004E50F00BA00AD8B41CEF24F01EEF24F071
:1048380025EF24F09F0E0001B06FFE0EB16F25EC3E
:1048480045F0D20E0001B06FFA0EB16F25EC45F0BD
:10485800560E0001B06FFD0EB16F4EC0C6F10F0EBF
:104868000101C617C6510001B26FB36B25EC45F0C4
:10487800FF0E0001B06FFD0EB16F91C1B2F0B36BC6
:1048880025EC45F0EE0E0001B06FFE0EB16F4DC085
:10489800C6F10F0E0101C617C6510001B26FB36B06
:1048A80025EC45F00B0E0001B06FFE0EB16F68C12C
:1048B800B2F069C1B3F025EC45F0DB0E0001B06F32
:1048C800FE0EB16F25EC45F038C1BBF039C1BCF024
:1048D8003AC1BDF03BC1BEF03CC1BFF03DC1C0F024
:1048E8003EC1C1F03FC1C2F082EC44F0D20E0001DB
:1048F800B06FFA0EB16F25EC45F00001D351D8B472
:1049080088EF24F08BEF24F0010E8CEF24F0000EDA
:10491800120000019E51D96EDA6ADECFF6FFDDCFB4
:10492800F7FFF86A0800F550250AD8A49EEF24F08E
:10493800A0EF24F045EF26F09E51D96EDA6ADE2A00
:10494800000EDD22000E0101596F000E586F58C18C
:10495800EAF05A695B690001A26BD0EF24F0EA83A0
:104968009E51D96EDA6ADE2A000EDD22D0EF24F0DD
:10497800010EA26FD0EF24F09E51D96EDA6ADECF15
:10498800F6FFDDCFF7FFF86A0800F550300AD8B413
:10499800B3EF24F0BCEF24F0A251D8B4D6EF24F042
:1049A800D8EF24F0C0EF24F09EC072F09FC073F0DF
:1049B8006AEC3DF072C058F173C059F1010159BF5A
:1049C800EAEF24F0E8EF24F0F1EF24F00001EA81A7
:1049D8000101586D591FD8B0592B00019E51D96E4D
:1049E800DA6ADECFA8F0DDCFA9F0A8C0F6FFA9C02B
:1049F800F7FFF86A0800F5CFA7F00EEF25F0A84BEF
:104A0800A92B29EF25F0690EA76F29EF25F0A76BD1
:104A180029EF25F0A751580AD8B407EF25F03C0A2A
:104A2800D8B407EF25F00D0AD8B407EF25F0050A2A
:104A3800D8B403EF25F0190AD8B407EF25F00D0A0A
:104A4800D8B407EF25F00BEF25F0A8C0F6FFA9C0F2
:104A5800F7FFF86A0800F550640AD8B436EF25F075
:104A680038EF25F06EEF25F0A8C0F6FFA9C0F7FFD4
:104A7800F86A0800F550690AD8A445EF25F047EF11
:104A880025F094EF25F06EEF25F09F51D96EDA6A84
:104A9800DF50DF2ADF2AD96EDA6ADECFA3F0DDCF56
:104AA800A4F0000EA4BFFF0EA56FA66F79EF25F046
:104AB8009F51D96EDA6A040EDF26DF5CD96EDA6A96
:104AC800DECFA3F0DECFA4F0DECFA5F0DECFA6F0D8
:104AD80079EF25F0A751690AD8B449EF25F0050AFE
:104AE800D8B45CEF25F079EF25F0010EA825A06F6A
:104AF800000EA921A16F9E51D96EDA6AA0C0DEFF0F
:104B0800A1C0DDFF9DC08AF0A3C08BF0A4C08CF0CB
:104B1800A5C08DF0A6C08EF083EC2FF057EF26F0DD
:104B2800A8C0F6FFA9C0F7FFF86A0800F550780A90
:104B3800D8B4A1EF25F0A3EF25F0E9EF25F0A8C040
:104B4800F6FFA9C0F7FFF86A0800F550580AD8B46C
:104B5800B0EF25F0B2EF25F0E9EF25F0A8C0F6FF99
:104B6800A9C0F7FFF86A0800F550750AD8A4BFEF86
:104B780025F0C1EF25F03CEF26F0E9EF25F09F5135
:104B8800D96EDA6ADF50DF2ADF2AD96EDA6ADECF19
:104B9800A0F0DDCFA1F0A0C0A3F0A1C0A4F0A56B48
:104BA800A66BF4EF25F09F51D96EDA6A040EDF2662
:104BB800DF5CD96EDA6ADECFA3F0DECFA4F0DECFF9
:104BC800A5F0DECFA6F0F4EF25F0A751690AD8B416
:104BD800C3EF25F0050AD8B4D7EF25F0F4EF25F098
:104BE800010EA825A06F000EA921A16F9E51D96EB4
:104BF800DA6AA0C0DEFFA1C0DDFF27EF26F09DC066
:104C08008AF0A3C08BF0A4C08CF0A5C08DF0A6C01C
:104C18008EF0D7EC35F057EF26F09DC08AF0A3C090
:104C28008BF0A4C08CF0A5C08DF0A6C08EF0A8C0F3
:104C3800F6FFA9C0F7FFF86A0800F5CF8FF002EC7D
:104C480034F057EF26F0A8C0F6FFA9C0F7FFF86ABE
:104C58000800F550580AD8B411EF26F02D0AD8B438
:104C680003EF26F00D0AD8B411EF26F03CEF26F03A
:104C780000019E51D96EDA6ADE2A000EDD2257EF56
:104C880026F09E51D96EDA6ADECFF6FFDDCFF7FF48
:104C9800F86A0800F550746F756B9DC076F0AFEC3C
:104CA8003CF03CEF26F012002D50D96EDA6ADECFC8
:104CB800F6FFDDCFF7FFF86A0800F550250AD8A4FB
:104CC80068EF26F06AEF26F00DEF28F02D50D96E28
:104CD800DA6ADE2A000EDD22000E0101596F000E8D
:104CE800586F58C1EAF05A695B69316A9AEF26F041
:104CF8000001EA832D50D96EDA6ADE2A000EDD2221
:104D08009AEF26F0010E316E9AEF26F02D50D96EEB
:104D1800DA6ADECFF6FFDDCFF7FFF86A0800F55054
:104D2800300AD8B47CEF26F086EF26F03150D8B49C
:104D3800A0EF26F0A2EF26F08AEF26F02DC001F0B2
:104D48002EC002F01BEC3EF001C058F102C059F130
:104D5800010159BFB4EF26F0B2EF26F0BBEF26F001
:104D68000001EA810101586D591FD8B0592B2D5007
:104D7800D96EDA6ADECF37F0DDCF38F037C0F6FF0C
:104D880038C0F7FFF86A0800F5CF36F0D7EF26F0FD
:104D9800374A382AF2EF26F0690E366EF2EF26F01F
:104DA800366AF2EF26F03650580AD8B4D0EF26F01B
:104DB8003C0AD8B4D0EF26F00D0AD8B4D0EF26F0CC
:104DC800050AD8B4CCEF26F0190AD8B4D0EF26F0EB
:104DD8000D0AD8B4D0EF26F0D4EF26F037C0F6FF8E
:104DE80038C0F7FFF86A0800F550640AD8B4FFEF36
:104DF80026F001EF27F037EF27F037C0F6FF38C06D
:104E0800F7FFF86A0800F550690AD8A40EEF27F0F2
:104E180010EF27F05DEF27F037EF27F02E50D96E0F
:104E2800DA6ADF50DF2ADF2AD96EDA6ADECF32F09B
:104E3800DDCF33F0000E33BEFF0E346E356E42EF19
:104E480027F02E50D96EDA6A040EDF26DF5CD96EA1
:104E5800DA6ADECF32F0DECF33F0DECF34F0DECFE9
:104E680035F042EF27F03650690AD8B412EF27F030
:104E7800050AD8B425EF27F042EF27F0010E3724B2
:104E88002F6E000E3820306E2D50D96EDA6A2FC082
:104E9800DEFF30C0DDFF2CC019F032C01AF033C07D
:104EA8001BF034C01CF035C01DF055EC30F01FEF7E
:104EB80028F037C0F6FF38C0F7FFF86A0800F55049
:104EC800780AD8B46AEF27F06CEF27F0B2EF27F032
:104ED80037C0F6FF38C0F7FFF86A0800F550580ADF
:104EE800D8B479EF27F07BEF27F0B2EF27F037C07F
:104EF800F6FF38C0F7FFF86A0800F550750AD8A41D
:104F080088EF27F08AEF27F005EF28F0B2EF27F0B7
:104F18002E50D96EDA6ADF50DF2ADF2AD96EDA6AB4
:104F2800DECF2FF0DDCF30F02FC032F030C033F0BD
:104F3800346A356ABDEF27F02E50D96EDA6A040E4E
:104F4800DF26DF5CD96EDA6ADECF32F0DECF33F0EF
:104F5800DECF34F0DECF35F0BDEF27F03650690AEA
:104F6800D8B48CEF27F0050AD8B4A0EF27F0BDEF2E
:104F780027F0010E37242F6E000E3820306E2D508A
:104F8800D96EDA6A2FC0DEFF30C0DDFFF0EF27F000
:104F98002CC019F032C01AF033C01BF034C01CF01A
:104FA80035C01DF063EC36F01FEF28F02CC019F067
:104FB80032C01AF033C01BF034C01CF035C01DF0ED
:104FC80037C0F6FF38C0F7FFF86A0800F5CF1EF0C3
:104FD800A7EC34F01FEF28F037C0F6FF38C0F7FF12
:104FE800F86A0800F550580AD8B4DAEF27F02D0A05
:104FF800D8B4CCEF27F00D0AD8B4DAEF27F005EFD4
:1050080028F02D50D96EDA6ADE2A000EDD221FEF55
:1050180028F02D50D96EDA6ADECFF6FFDDCFF7FF24
:10502800F86A0800F550036E046A2CC005F00DEC10
:105038003DF005EF28F01200000E0001B16F000EE0
:10504800B06F84518511D8A42CEF28F02EEF28F0EA
:1050580030EF28F0A0EF29F07CC086F0010E86170B
:105068007CC087F07DC088F07EC089F07FC08AF060
:1050780080C08BF081C08CF082C08DF083C08EF030
:1050880088C087F089C088F08AC089F08BC08AF010
:105098008CC08BF08DC08CF08EC08DF08E6B010EA5
:1050A8008717D89087358F6F7CC090F07DC091F0BE
:1050B8007EC092F07FC093F080C094F081C095F0DC
:1050C80082C096F083C097F0140E74EF28F0D89041
:1050D8009733963395339433933392339133903394
:1050E800E82E6BEF28F0010E9017D8909037D890E3
:1050F80090377CC098F07DC099F07EC09AF07FC050
:105108009BF080C09CF081C09DF082C09EF083C05F
:105118009FF01A0E99EF28F0D8909F339E339D3355
:105128009C339B339A3399339833E82E90EF28F0C9
:10513800010E9817D8909837D8909837D890983704
:105148007CC0A0F07DC0A1F07EC0A2F07FC0A3F01B
:1051580080C0A4F081C0A5F082C0A6F083C0A7F0EB
:105168001F0EC0EF28F0D890A733A633A533A43379
:10517800A333A233A133A033E82EB7EF28F0010EF2
:10518800A017A039F00B981190118F118611AD6FEF
:10519800AD511DEC44F00001AC6FB0510F083F0B4E
:1051A800AF6FAFC086F0070E8617AFC072F0736B93
:1051B800000E756F080E746F4DEC3CF000017251D3
:1051C8007A25D96E73517B21DA6EDF50876F862B73
:1051D800F0EF28F0D8908733862FEEEF28F0000103
:1051E8008751AE6F7CC086F07DC087F07EC088F0A6
:1051F8007FC089F080C08AF081C08BF082C08CF0BB
:1052080083C08DF0100E12EF29F0D8908D338C33B7
:105218008B338A338933883387338633E82E09EF13
:1052280029F07CC08EF07DC08FF07EC090F07FC0EA
:1052380091F080C092F081C093F082C094F083C056
:1052480095F0200E31EF29F0D890953394339333AD
:105258009233913390338F338E33E82E28EF29F031
:10526800AEC096F0976B986B996B8E5196199A6FA2
:105278008F5197199B6F905198199C6F915199195B
:105288009D6F86519A199E6F87519B199F6F885100
:105298009C19A06F89519D19A16FAC519E19A86FD7
:1052A8009F51A96FA051AA6FA151AB6F010EA8150C
:1052B800866F000EA915876F000EAA15886F000E5D
:1052C800AB15896F8A6B8B6B8C6B8D6BD8907C352B
:1052D8008E6F7D358F6F7E35906F7F35916F8035FE
:1052E800926F8135936F8235946F8335956F8651B0
:1052F8008E117C6F87518F117D6F885190117E6F51
:10530800895191117F6F8A519211806F8B5193113E
:10531800816F8C519411826F8D519511836FB04BB1
:10532800B12B8451B05D8551B159D8A09EEF29F0B9
:10533800A0EF29F030EF28F07CC07AF07DC07BF038
:105348007EC07CF07FC07DF080C07EF081C07FF0A1
:1053580082C080F083C081F01200010E00018E6FC0
:105368008280000E8D6F000E8C6F0101946B936B21
:10537800F29E290E0001896F960E886F7F0EE82E27
:10538800FED7882FFCD7892FFAD7000E01014C6F62
:10539800000E4D6F000E4E6F000E4F6F94C18FF0D0
:1053A80000018E51D8B4DBEF29F0DDEF29F0E3EFEF
:1053B80029F01CEC3BF00001906FE7EF29F0E9ECD5
:1053C8003BF00001906F8E6B01019C51D8B4EFEF58
:1053D80029F0F1EF29F0F6EF29F0010EC6EC45F0BF
:1053E80021EF2BF000019005D8B4FDEF29F0FFEF75
:1053F80029F016EF2AF0040E9019D8B406EF2AF017
:1054080008EF2AF016EF2AF0170E9019D8B40FEF0C
:105418002AF011EF2AF016EF2AF0020EC6EC45F03A
:1054280021EF2BF09005D8A41CEF2AF01EEF2AF0EC
:10543800FFEF2AF0E9EC3BF00101946F9C51D8B4DE
:1054480028EF2AF02AEF2AF02FEF2AF0040EC6ECF4
:1054580045F021EF2BF000018F29D8A436EF2AF070
:1054680038EF2AF039EF2AF08F69E9EC3BF00101B7
:10547800936F9C51D8B443EF2AF045EF2AF04AEFD6
:105488002AF0050EC6EC45F021EF2BF09351FF0AE8
:105498009419D8B452EF2AF054EF2AF059EF2AF0B1
:1054A800150E4CEC41F0D4EF29F0010E0001E26F2B
:1054B800000EE36F000EE46F000EE56F85EF2AF033
:1054C800E9EC3BF00001906F01019C51D8B46FEFFB
:1054D8002AF071EF2AF076EF2AF0060EC6EC45F0B6
:1054E80021EF2BF0000E0001E225D96E050EE32115
:1054F800DA6E90C0DFFF010EE227000EE323E423FB
:10550800E523E551E411E31109E1830EE25DD8A03A
:1055180090EF2AF092EF2AF064EF2AF0000E736FF2
:10552800800E726FAFEC3FF072C06CF173C06DF11A
:10553800050181510001896F886B050182510001C5
:10554800882501016A6F0501000E0001892101010A
:105558006B6F6A516C1909E16B516D19D8B4B7EFCB
:105568002AF0B9EF2AF0BEEF2AF0070EC6EC45F094
:1055780021EF2BF0000186058711D8A4C6EF2AF089
:10558800C8EF2AF0E3EF2AF04CC188F04DC189F04A
:105598004EC18AF04FC18BF0070ED89088378937F3
:1055A8008A378B37E82ED1EF2AF088C07AF089C085
:1055B8007BF08AC07CF08BC07DF0A5EC2EF0020E4B
:1055C800000186198711D8A4ECEF2AF0EEEF2AF033
:1055D800FFEF2AF04CC188F04DC189F0070ED89032
:1055E80088378937E82EF3EF2AF088C076F089C02B
:1055F80077F0C3EC41F0010E01014C27000E4D235A
:105608004E234F23060E4CEC41F082A00EEF2BF0F8
:1056180011EF2BF0828012EF2BF0829001014F5195
:105628004E1109E1040E4D5DD8A01DEF2BF01FEFC0
:105638002BF0D2EF29F0F28E8290120072C0CBF0DC
:1056480073C0CCF074C0CDF075C0CEF0000E000170
:10565800C76F000EC86F000EC96F000ECA6FCBC0AF
:1056680082F0010E8217CC51010B020DF3CF83F0AB
:10567800CBC084F0CCC085F0CDC086F0CEC087F01A
:10568800140E4CEF2BF0D890873386338533843350
:10569800E82E47EF2BF08451010B040DF3CF88F06F
:1056A800CBC089F0CCC08AF0CDC08BF0CEC08CF0D6
:1056B8001A0E64EF2BF0D8908C338B338A338933EE
:1056C800E82E5FEF2BF08951010B080DF3CF8DF019
:1056D800CBC08EF0CCC08FF0CDC090F0CEC091F092
:1056E8001F0E7CEF2BF0D890913390338F338E338D
:1056F800E82E77EF2BF08E51010B100DF3508D250E
:10570800882583258225926F2E0E936F740E946FD1
:105718005C0E956F3A0E966F926795EF2BF09DEFA2
:105728002BF096359633953394339333922F90EF2D
:105738002BF0010E00019315976F000E9415986FCA
:10574800000E9515996F000E96159A6FC7510F08A0
:105758003F0B7AC09BF07BC09CF07CC09DF07DC065
:105768009EF07EC09FF07FC0A0F080C0A1F081C0F5
:10577800A2F0E82AC9EF2BF0D890A233A133A033C6
:105788009F339E339D339C339B33E82EC0EF2BF021
:10579800010E9B15A36F000E9C15A46F000E9D159E
:1057A800A56F000E9E15A66FCBC0A7F0CCC0A8F0C1
:1057B800CDC0A9F0CEC0AAF0100EE8EF2BF0D8901B
:1057C800AA33A933A833A733E82EE3EF2BF0010E51
:1057D800A715AB6F000EA815AC6F000EA915AD6F1D
:1057E800000EAA15AE6FCBC0AFF0CCC0B0F0CDC0E4
:1057F800B1F0CEC0B2F0200E07EF2CF0D890B23343
:10580800B133B033AF33E82E02EF2CF0010EAF15F1
:10581800B36F000EB015B46F000EB115B56F000E62
:10582800B215B66FD890CB35B76FCC35B86FCD35CC
:10583800B96FCE35BA6FB351B719BB6FB451B81938
:10584800BC6FB551B919BD6FB651BA19BE6FAB511E
:10585800BB19BF6FAC51BC19C06FAD51BD19C16F39
:10586800AE51BE19C26FA351BF19C36FA451C0195D
:10587800C46FA551C119C56FA651C219C66F9751FA
:10588800C319CB6F9851C419CC6F9951C519CD6FF5
:105898009A51C619CE6F010EC727000EC823C92317
:1058A800CA23CA51C9110BE1100EC75D020EC859AF
:1058B800D8A061EF2CF063EF2CF033EF2BF0CBC0C6
:1058C80072F0CCC073F0CDC074F0CEC075F0120089
:1058D8004C500101D36FD26B4B50D225E26F000EB2
:1058E800D321E36F000E696F000E686FE2C1C6F145
:1058F800E3C1C7F15AEC33F0C6C168F1C7C169F119
:10590800010168510001726F736B4DEC45F00101A4
:10591800E46FE451E219E46F4D50E4190F0BDE6FA8
:105928004A50E419DF6F4950E419E06F4850E41910
:10593800E16F21EE38F0070EDE6AE806FDE2E1517C
:105948003825386F000E3921396F000E3A213A6F29
:10595800000E3B213B6F000E3C213C6F000E3D21A9
:105968003D6F000E3E213E6F000E3F213F6FE0C1AC
:10597800D2F1D36BD46BD56BD4C1D5F1D3C1D4F1EB
:10598800D2C1D3F1D26BD251D66FD351D76FD45184
:10599800D86FD551D96FDA6BDB6BDC6BDD6B3851A7
:1059A800D625386F3951D721396F3A51D8213A6FF6
:1059B8003B51D9213B6F3C51DA213C6F3D51DB21F2
:1059C8003D6F3E51DC213E6F3F51DD213F6FDFC10E
:1059D800D2F1D36BD46BD56BD3C1D5F1D2C1D4F18D
:1059E800D36BD26BD251D66FD351D76FD451D86FF6
:1059F800D551D96FDA6BDB6BDC6BDD6B3851D62593
:105A0800386F3951D721396F3A51D8213A6F3B5104
:105A1800D9213B6F3C51DA213C6F3D51DB213D6F71
:105A28003E51DC213E6F3F51DD213F6FDEC1D2F197
:105A3800D36BD46BD56BD2C1D5F1D46BD36BD26B8E
:105A4800D251D66FD351D76FD451D86FD551D96FA2
:105A5800DA6BDB6BDC6BDD6B3851D625386F39516F
:105A6800D721396F3A51D8213A6F3B51D9213B6F31
:105A78003C51DA213C6F3D51DB213D6F3E51DC2129
:105A88003E6F3F51DD213F6F4E500F0B916F4D38E8
:105A98000F0B91190F0A996F010E0001B06FFD0EDF
:105AA800B16F25EC45F038C1BBF039C1BCF03AC143
:105AB800BDF03BC1BEF03CC1BFF03DC1C0F03EC12E
:105AC800C1F03FC1C2F082EC44F0940E0001B06F07
:105AD800FE0EB16F91C1B2F0B36B25EC45F0000139
