:0400000003EF10F00A
:100008004F82E1CF68F0E2CF69F0D9CF6AF0DACF5A
:100018006BF0F3CF6CF0F4CF6DF0F6CF6EF0F7CF56
:100028006FF0F8CF70F0F5CF71F0F2A41EEF00F08A
:1000380020EF00F02EEF00F0000E01015425546F60
:10004800000E5521556F010E5621566F000E57218F
:10005800576FF294F2A633EF00F035EF00F0EDEFB2
:100068000FF0F2A03AEF00F03CEF00F0EDEF0FF0E8
:1000780081A841EF00F044EF00F0010E45EF00F0D9
:10008800000E0101866FEAC050F1EBC051F1ECC0DF
:1000980052F1EDC053F1D65054250001EA6FD75004
:1000A800010155210001EB6F000E010156210001ED
:1000B800EC6F000E010157210001ED6F000E0101E8
:1000C800546F000E556F000E566F000E576F000EDE
:1000D800D76E000ED66E464A472A030E4A18D8A491
:1000E80078EF00F07AEF00F0A6EF00F00001ED5194
:1000F800EC110BE12D0EEA5D010EEB59D8A087EF4C
:1001080000F089EF00F097EF00F0290E3F6EFF0E28
:10011800406EEAC041F0EBC042F0ECC043F0EDC0E5
:1001280044F086EC4EF0140E46184710D8A49FEF02
:1001380000F0A1EF00F0ECEF0FF04A6AECEF0FF0DF
:10014800ECEF0FF08251D8B4ACEF00F0AEEF00F056
:10015800E9EF00F0475007E1C80E465CD8B0B7EFAA
:1001680000F0B9EF00F0DBEF00F0820E0001606FE5
:10017800050E616FD8904634D96E4734DA6ED89040
:10018800D936DA366051D9266151DA22EAC0DEFF63
:10019800EBC0DEFFECC0DEFFEDC0DEFF000E462444
:1001A800D96E020E4720DA6EDF6AECEF0FF0000E10
:1001B8005F6FC80E5E6F4A6A826B496A8CEC4FF0BB
:1001C800010E0101876FECEF0FF08C51D8B4EFEFFF
:1001D80000F0F1EF00F06AEF01F0050E4918D8A41D
:1001E800F8EF00F0FAEF00F06AEF01F00001ED51CE
:1001F800EC110BE1AF0EEA5D0B0EEB59D8A007EF3F
:1002080001F009EF01F06AEF01F0ED51EC1109E19D
:10021800DA0EEA5D0C0EEB59D8B015EF01F017EFC6
:1002280001F06AEF01F0020E4A18D8A41EEF01F09F
:1002380020EF01F026EF01F0E20E3F6EFF0E406E58
:1002480086EC4EF02C0E46184710D8B42EEF01F06D
:1002580030EF01F035EF01F001018C6B496AECEFEA
:100268000FF0000E476E000E466E050E496E820EA8
:100278000001606F050E616FD8904634D96E47341F
:10028800DA6ED890D936DA366051D9266151DA2239
:10029800EAC0DEFFEBC0DEFFECC0DEFFEDC0DEFF34
:1002A800000E4624D96E020E4720DA6EDF6A000E71
:1002B8000101616F000E606F010E896F20EEDEF0A4
:1002C800070EDE6AE806FDE2ECEF0FF001018C5143
:1002D800D8A471EF01F073EF01F0DDEF01F0000138
:1002E800ED51EC110BE16D0EEA5D750EEB59D8A0DE
:1002F80080EF01F082EF01F0DDEF01F0ED51EC113C
:1003080009E1340EEA5D760EEB59D8B08EEF01F0B4
:1003180090EF01F0DDEF01F0000E476E000E466E23
:10032800820E606F050E616FD8904634D96E4734DF
:10033800DA6ED890D936DA366051D9266151DA2288
:10034800EAC0DEFFEBC0DEFFECC0DEFFEDC0DEFF83
:10035800000E4624D96E020E4720DA6EDF6A020EBE
:100368004A18D8A4BAEF01F0BCEF01F0CAEF01F0C7
:10037800E20E3F6EFF0E406EEAC041F0EBC042F065
:10038800ECC043F0EDC044F086EC4EF0060E496E2A
:1003980020EEDEF0070EDE6AE806FDE2010E01013E
:1003A8008C6F000E616F000E606F010E896FECEFAD
:1003B8000FF001018C51D8A4E4EF01F0E6EF01F051
:1003C80041EF02F00001ED51EC110BE1D10EEA5DB5
:1003D800750EEB59D8A0F3EF01F0F5EF01F041EFFE
:1003E80002F0ED51EC1109E1200EEA5D760EEB59B1
:1003F800D8B001EF02F003EF02F041EF02F0000E77
:10040800476E000E466E820E606F050E616FD890C3
:100418004634D96E4734DA6ED890D936DA36605118
:10042800D9266151DA22EAC0DEFFEBC0DEFFECC05C
:10043800DEFFEDC0DEFF000E4624D96E020E472017
:10044800DA6EDF6A020E4A18D8A42DEF02F02FEFF9
:1004580002F03DEF02F0C00E3F6EFF0E406EEAC0A4
:1004680041F0EBC042F0ECC043F0EDC044F086EC44
:100478004EF0070E496ECCEF01F001018C51D8A463
:1004880048EF02F04AEF02F0BBEF02F00001ED5135
:10049800EC110BE18B0EEA5D7F0EEB59D8A057EFFC
:1004A80002F059EF02F0BBEF02F0ED51EC1109E157
:1004B800460EEA5D820EEB59D8B065EF02F067EFA1
:1004C80002F0BBEF02F0000E476E000E466E820E81
:1004D800606F050E616FD8904634D96E4734DA6E76
:1004E800D890D936DA366051D9266151DA22EAC075
:1004F800DEFFEBC0DEFFECC0DEFFEDC0DEFF000E6E
:100508004624D96E020E4720DA6EDF6A030E496E62
:10051800020E4A18D8A493EF02F095EF02F0A3EF69
:1005280002F0C00E3F6EFD0E406EEAC041F0EBC017
:1005380042F0ECC043F0EDC044F086EC4EF001010F
:100548008451D8B4AAEF02F0ACEF02F0B1EF02F098
:10055800010E826F846BECEF0FF020EEDEF0070ED9
:10056800DE6AE806FDE2010E8C6FECEF0FF0010188
:100578008C51D8B4C2EF02F0C4EF02F00FEF03F0D1
:100588000001ED51EC110BE1F70EEA5D1D0EEB5980
:10059800D8A0D1EF02F0D3EF02F00FEF03F0ED5146
:1005A800EC1109E1B20EEA5D200EEB59D8B0DFEF8D
:1005B80002F0E1EF02F00FEF03F0000E476E000EBD
:1005C800466E820E606F050E616FD8904634D96E04
:1005D8004734DA6ED890D936DA366051D926615167
:1005E800DA22EAC0DEFFEBC0DEFFECC0DEFFEDC0C2
:1005F800DEFF000E4624D96E020E4720DA6EDF6A4F
:10060800030E496E000E0101616F000E606F010E4E
:10061800896F62EF01F001018C51D8A416EF03F045
:1006280018EF03F05BEF03F00001ED51EC110BE163
:10063800790EEA5D920EEB59D8A025EF03F027EF6B
:1006480003F05BEF03F0ED51EC1109E1A80EEA5D50
:10065800940EEB59D8B033EF03F035EF03F05BEFAE
:1006680003F0000E476E010E466E010E01018C6FFD
:10067800EAC064F1EBC065F1020E4A18D8A447EF4E
:1006880003F049EF03F057EF03F0D90E3F6EFD0E6C
:10069800406EEAC041F0EBC042F0ECC043F0EDC060
:1006A80044F086EC4EF0010E496E62EF01F0010154
:1006B8008C51D8A462EF03F064EF03F0B5EF03F0B8
:1006C8000001ED51EC110BE1510EEA5D730EEB598F
:1006D800D8A071EF03F073EF03F0B5EF03F0ED511D
:1006E800EC1109E1A40EEA5D740EEB59D8B07FEF66
:1006F80003F081EF03F0B5EF03F0000E476E010E33
:10070800466E020E496E820E606F050E616FD890BC
:100718004634D96E4734DA6ED890D936DA36605115
:10072800D9266151DA22EAC0DEFFEBC0DEFFECC059
:10073800DEFFEDC0DEFF020E4A18D8A4A6EF03F0D4
:10074800A8EF03F0AEEF03F0A10E3F6EFF0E406E70
:1007580086EC4EF0010E01018C6F010E896F62EF7D
:1007680001F00101535152110AE15005130E51597C
:10077800D8A0C1EF03F0C3EF03F042EF04F05351E8
:10078800521109E1B80E505D140E5159D8B0CFEF8F
:1007980003F0D1EF03F042EF04F08651D8B4D7EF5D
:1007A80003F0D9EF03F042EF04F08C51D8A4DFEF47
:1007B80003F0E1EF03F042EF04F00001ED51EC111A
:1007C8000BE1A50EEA5D240EEB59D8A0EEEF03F07D
:1007D800F0EF03F042EF04F0ED51EC1109E15C0E8B
:1007E800EA5D260EEB59D8B0FCEF03F0FEEF03F0FC
:1007F80042EF04F0000E476E010E466E010E010135
:100808008C6F040E496E020E4A18D8A40EEF04F03D
:1008180010EF04F01EEF04F04D0E3F6EFE0E406E1A
:10082800EAC041F0EBC042F0ECC043F0EDC044F048
:1008380086EC4EF0820E0001606F050E616FD89055
:100848004634D96E4734DA6ED890D936DA366051E4
:10085800D9266151DA22EAC0DEFFEBC0DEFFECC028
:10086800DEFFEDC0DEFF000E0101616F000E606F5C
:10087800000E5D6F000E5C6FB1EF03F0040E4918B7
:10088800D8A449EF04F04BEF04F0AFEF05F00101F5
:100898008951D8B452EF04F054EF04F0AFEF05F0EB
:1008A800475007E1960E465CD8B05DEF04F05FEF65
:1008B80004F07FEF04F0820E0001606F050E616F97
:1008C800D8904634D96E4734DA6ED890D936DA36AD
:1008D8006051D9266151DA22EAC0DEFFEBC0DEFFA3
:1008E800ECC0DEFFEDC0DEFF000E4624D96E020E1E
:1008F8004720DA6EDF6A0001ED51EC110BE15B0E67
:10090800EA5D090EEB59D8A08CEF04F08EEF04F0E5
:10091800F4EF04F0ED51EC1109E1120EEA5D0B0E53
:10092800EB59D8B09AEF04F09CEF04F0F4EF04F020
:10093800000E01015D6F000E5C6F8651D8B4A7EF01
:1009480004F0A9EF04F0BFEF04F0604B612BD890DE
:100958000001DE35DE6FDF35DF6FE035E06FE13552
:10096800E16FE235E26FE335E36FE435E46FE535D7
:10097800E56FE4EF04F0604B612BD8900001DE35A1
:10098800DE6FDF35DF6FE035E06FE135E16FE235CF
:10099800E26FE335E36FE435E46FE535E56F010EAB
:1009A800DE11DE6FDF51DF6FE051E06FE151E16F83
:1009B800E251E26FE351E36FE451E46FE551E56F13
:1009C8000101615109E1380E605DD8A0EEEF04F035
:1009D800F0EF04F0ECEF0FF0E4EC4EF0ECEF0FF07A
:1009E800ED51EC110BE14A0EEA5D040EEB59D8A06B
:1009F80000EF05F002EF05F072EF05F0ED51EC1194
:100A080008E1EA05060EEB59D8B00DEF05F00FEF37
:100A180005F072EF05F001015C4B5D2B5C055D1183
:100A2800D8A419EF05F01BEF05F01DEF05F0ECEF6A
:100A38000FF0000E5D6F000E5C6F8651D8A427EF93
:100A480005F029EF05F050EF05F0604B612BD890C9
:100A58000001DE35DE6FDF35DF6FE035E06FE13551
:100A6800E16FE235E26FE335E36FE435E46FE535D6
:100A7800E56F010EDE11DE6FDF51DF6FE051E06FD1
:100A8800E151E16FE251E26FE351E36FE451E46F4A
:100A9800E551E56F64EF05F0604B612BD8900001DC
:100AA800DE35DE6FDF35DF6FE035E06FE135E16FB2
:100AB800E235E26FE335E36FE435E46FE535E56F82
:100AC8000101615109E1380E605DD8A06EEF05F0B3
:100AD80070EF05F0ECEF0FF0F0EF04F0710E3F6EE1
:100AE800FF0E406EEAC041F0EBC042F0ECC043F0AC
:100AF800EDC044F086EC4EF0475007E1C80E465C66
:100B0800D8B089EF05F08BEF05F0ABEF05F0820E5A
:100B18000001606F050E616FD8904634D96E473476
:100B2800DA6ED890D936DA366051D9266151DA2290
:100B3800EAC0DEFFEBC0DEFFECC0DEFFEDC0DEFF8B
:100B4800000E4624D96E020E4720DA6EDF6A8CEC5E
:100B58004FF0ECEF0FF001018951D8B4B6EF05F072
:100B6800B8EF05F008EF07F0030E4918D8A4BFEF57
:100B780005F0C1EF05F008EF07F0475007E1C80E90
:100B8800465CD8B0CAEF05F0CCEF05F0ECEF05F005
:100B9800820E0001606F050E616FD8904634D96EE1
:100BA8004734DA6ED890D936DA366051D926615191
:100BB800DA22EAC0DEFFEBC0DEFFECC0DEFFEDC0EC
:100BC800DEFF000E4624D96E020E4720DA6EDF6A79
:100BD8000001ED51EC110BE1CA0EEA5D040EEB5970
:100BE800D8A0F9EF05F0FBEF05F094EF06F0010E41
:100BF8004624606F000E4720616F60B106EF06F073
:100C080008EF06F00DEF06F0010E01018B6FECEF17
:100C18000FF001018B51D8A414EF06F016EF06F07F
:100C28006CEF06F0604B612BDEC060F0DFC061F056
:100C3800E0C062F0E1C063F0E2C064F0E3C065F0D8
:100C4800E4C066F0E5C067F00001D890673366330A
:100C580065336433633362336133603360C0DEF01D
:100C680061C0DFF062C0E0F063C0E1F064C0E2F0B0
:100C780065C0E3F066C0E4F067C0E5F020EEDEF0A2
:100C8800000EDE10DE6F000EDE10DF6F000EDE10CD
:100C9800E06F000EDE10E16F000EDE10E26F000E56
:100CA800DE10E36F000EDE10E46F800EDE10E56FDD
:100CB8000101615109E1400E605DD8A066EF06F0C0
:100CC80068EF06F0ECEF0FF002EC4FF0ECEF0FF0EE
:100CD800000E4624D96E020E4720DA6E020EDF6E31
:100CE8004A04D8A47AEF06F07CEF06F08AEF06F003
:100CF8002C0E3F6EFE0E406EEAC041F0EBC042F093
:100D0800ECC043F0EDC044F086EC4EF046C05EF116
:100D180047C05FF1000E476E000E466EABEF05F060
:100D2800010E4624606F000E4720616F60B19FEF8F
:100D380006F0A1EF06F0A5EF06F001018B6BECEFD2
:100D48000FF001018B05D8A4ACEF06F0AEEF06F06A
:100D5800E8EF06F0604B612BDEC060F0DFC061F0A9
:100D6800E0C062F0E1C063F0E2C064F0E3C065F0A7
:100D7800E4C066F0E5C067F00001D89067336633D9
:100D880065336433633362336133603360C0DEF0EC
:100D980061C0DFF062C0E0F063C0E1F064C0E2F07F
:100DA80065C0E3F066C0E4F067C0E5F00101615199
:100DB80009E1400E605DD8A0E4EF06F0E6EF06F02A
:100DC800ECEF0FF068EF06F0000E4624D96E020E25
:100DD8004720DA6E020EDF6E4A04D8A4F6EF06F05A
:100DE800F8EF06F08AEF06F0370E3F6EFE0E406E03
:100DF800EAC041F0EBC042F0ECC043F0EDC044F073
:100E080086EC4EF08AEF06F08951D8B40EEF07F061
:100E180010EF07F053EF08F0060E4918D8A417EFA3
:100E280007F019EF07F053EF08F0475007E1C80E35
:100E3800465CD8B022EF07F024EF07F044EF07F044
:100E4800820E0001606F050E616FD8904634D96E2E
:100E58004734DA6ED890D936DA366051D9266151DE
:100E6800DA22EAC0DEFFEBC0DEFFECC0DEFFEDC039
:100E7800DEFF000E4624D96E020E4720DA6EDF6AC6
:100E88000001ED51EC110BE1D30EEA5D050EEB59B3
:100E9800D8A051EF07F053EF07F0C7EF07F0010EA6
:100EA8004624606F000E4720616F60B15EEF07F067
:100EB80060EF07F062EF07F008EF06F001018B51D1
:100EC800D8A469EF07F06BEF07F0A7EF07F0604BC6
:100ED800612BDEC060F0DFC061F0E0C062F0E1C00D
:100EE80063F0E2C064F0E3C065F0E4C066F0E5C01A
:100EF80067F00001D8906733663365336433633332
:100F080062336133603360C0DEF061C0DFF062C01D
:100F1800E0F063C0E1F064C0E2F065C0E3F066C0F1
:100F2800E4F067C0E5F00101615109E1180E605D68
:100F3800D8A0A1EF07F0A3EF07F0ECEF0FF020EC3B
:100F48004FF0ECEF0FF0000E4624D96E020E47204A
:100F5800DA6E020EDF6E4A04D8A4B5EF07F0B7EFD9
:100F680007F08AEF06F0D20E3F6EFE0E406EEAC022
:100F780041F0EBC042F0ECC043F0EDC044F086EC29
:100F88004EF08AEF06F0010E4624606F000E4720EF
:100F9800616F60B1D2EF07F0D4EF07F0D6EF07F03A
:100FA800A1EF06F001018B05D8A4DDEF07F0DFEF14
:100FB80007F033EF08F0604B612BDEC060F0DFC054
:100FC80061F0E0C062F0E1C063F0E2C064F0E3C049
:100FD80065F0E4C066F0E5C067F00001D8906733BB
:100FE800663365336433633362336133603360C0BF
:100FF800DEF061C0DFF062C0E0F063C0E1F064C021
:10100800E2F065C0E3F066C0E4F067C0E5F020EE0A
:10101800DEF0000EDE10DE6F000EDE10DF6F000E59
:10102800DE10E06F000EDE10E16F000EDE10E26FE2
:10103800000EDE10E36F000EDE10E46F800EDE108F
:10104800E56F0101615109E1180E605DD8A02FEF2D
:1010580008F031EF08F0ECEF0FF0A3EF07F0000E07
:101068004624D96E020E4720DA6E020EDF6E4A045D
:10107800D8A441EF08F043EF08F08AEF06F0DB0E42
:101088003F6EFE0E406EEAC041F0EBC042F0ECC08D
:1010980043F0EDC044F086EC4EF08AEF06F089513B
:1010A800D8B459EF08F05BEF08F0B7EF0AF0070E75
:1010B8004918D8A462EF08F064EF08F0B7EF0AF017
:1010C800475007E1C80E465CD8B06DEF08F06FEFE7
:1010D80008F08FEF08F0820E0001606F050E616F57
:1010E800D8904634D96E4734DA6ED890D936DA3685
:1010F8006051D9266151DA22EAC0DEFFEBC0DEFF7B
:10110800ECC0DEFFEDC0DEFF000E4624D96E020EF5
:101118004720DA6EDF6A030E46140001606F000E86
:101128004714616F60516111D8A49DEF08F09FEFDB
:1011380008F0B7EF0AF0760E606F050E616FD89071
:101148004634D96E4734DA6ED890D936DA366051DB
:10115800D9266151DA22030EDB500CE1020EDB5076
:1011680009E19C0EDE5C070EDE58D8B0BEEF08F031
:10117800C0EF08F0FFEF09F07A0E606F050E616F9F
:10118800D8904634D96E4734DA6ED890D936DA36E4
:101198006051D9266151DA22030EDB500EE1020EAE
:1011A800DB500BE19D0EDE5C070EDE58D8A0DFEFAA
:1011B80008F0E1EF08F05EEF09F07E0E606F050EB3
:1011C800616FD8904634D96E4734DA6ED890D936E4
:1011D800DA366051D9266151DA22030EDB500CE170
:1011E800020EDB5009E19C0EDE5C070EDE58D8B01B
:1011F80000EF09F002EF09F05EEF09F0820E606F70
:10120800050E616FD8904634D96E4734DA6ED8909F
:10121800D936DA366051D9266151DA22030EDB500D
:101228000EE1020EDB500BE19D0EDE5C070EDE5870
:10123800D8A021EF09F023EF09F05EEF09F00101D2
:10124800604B612BDEC060F0DFC061F0E0C062F08F
:10125800E1C063F0E2C064F0E3C065F0E4C066F0AA
:10126800E5C067F00001D8906733663365336433AF
:10127800633362336133603360C0DEF061C0DFF036
:1012880062C0E0F063C0E1F064C0E2F065C0E3F082
:1012980066C0E4F067C0E5F00101615109E10C0E98
:1012A800605DD8A05AEF09F05CEF09F05EEF09F035
:1012B80016EC4FF07A0E0001606F050E616FD89042
:1012C8004634D96E4734DA6ED890D936DA3660515A
:1012D800D9266151DA22030EDB500EE1020EDB50F3
:1012E8000BE19D0EDE5C070EDE58D8A07EEF09F0FC
:1012F80080EF09F0B7EF0AF07E0E606F050E616FA0
:10130800D8904634D96E4734DA6ED890D936DA3662
:101318006051D9266151DA22030EDB500EE1020E2C
:10132800DB500BE19D0EDE5C070EDE58D8A09FEF68
:1013380009F0A1EF09F0B7EF0AF0820E606F050E11
:10134800616FD8904634D96E4734DA6ED890D93662
:10135800DA366051D9266151DA22030EDB500CE1EE
:10136800020EDB5009E19C0EDE5C070EDE58D8B099
:10137800C0EF09F0C2EF09F0B7EF0AF00101604BC6
:10138800612BDEC060F0DFC061F0E0C062F0E1C058
:1013980063F0E2C064F0E3C065F0E4C066F0E5C065
:1013A80067F00001D890673366336533643363337D
:1013B80062336133603360C0DEF061C0DFF062C069
:1013C800E0F063C0E1F064C0E2F065C0E3F066C03D
:1013D800E4F067C0E5F00101615109E10C0E605DC0
:1013E800D8A0F9EF09F0FBEF09F0B7EF0AF016EC17
:1013F8004FF0B7EF0AF07A0E606F050E616FD89064
:101408004634D96E4734DA6ED890D936DA36605118
:10141800D9266151DA22030EDB500CE1020EDB50B3
:1014280009E19C0EDE5C070EDE58D8B01EEF0AF00C
:1014380020EF0AF0B7EF0AF07E0E606F050E616FBD
:10144800D8904634D96E4734DA6ED890D936DA3621
:101458006051D9266151DA22030EDB500EE1020EEB
:10146800DB500BE19D0EDE5C070EDE58D8A03FEF87
:101478000AF041EF0AF0B7EF0AF0820E606F050E2E
:10148800616FD8904634D96E4734DA6ED890D93621
:10149800DA366051D9266151DA22030EDB500CE1AD
:1014A800020EDB5009E19C0EDE5C070EDE58D8B058
:1014B80060EF0AF062EF0AF0B7EF0AF00101604B43
:1014C800612BDEC060F0DFC061F0E0C062F0E1C017
:1014D80063F0E2C064F0E3C065F0E4C066F0E5C024
:1014E80067F00001D890673366336533643363333C
:1014F80062336133603360C0DEF061C0DFF062C028
:10150800E0F063C0E1F064C0E2F065C0E3F066C0FB
:10151800E4F067C0E5F020EEDEF0000EDE10DE6FCE
:10152800000EDE10DF6F000EDE10E06F800EDE10A2
:10153800E16F000EDE10E26F000EDE10E36F000EAA
:10154800DE10E46F000EDE10E56F0101615109E164
:101558000C0E605DD8A0B3EF0AF0B5EF0AF0B7EF54
:101568000AF0FBEF09F001018951D8B4BEEF0AF087
:10157800C0EF0AF02AEF0CF0050E4918D8A4C7EFFF
:101588000AF0C9EF0AF02AEF0CF00001ED51EC1156
:101598000BE18D0EEA5D050EEB59D8A0D6EF0AF0E7
:1015A800D8EF0AF061EF0BF0ED51EC1109E1B80E3C
:1015B800EA5D060EEB59D8B0E4EF0AF0E6EF0AF060
:1015C80061EF0BF0DEC060F0DFC061F0E0C062F0F8
:1015D800E1C063F0E2C064F0E3C065F0E4C066F027
:1015E800E5C067F0D8906733663365336433633397
:1015F80062336133603360C0DEF061C0DFF062C027
:10160800E0F063C0E1F064C0E2F065C0E3F066C0FA
:10161800E4F067C0E5F020EEDEF0000EDE10DE6FCD
:10162800000EDE10DF6F000EDE10E06F000EDE1021
:10163800E16F000EDE10E26F000EDE10E36F000EA9
:10164800DE10E46F800EDE10E56F475007E1960E5E
:10165800465CD8B032EF0BF034EF0BF053EF0BF0E1
:10166800820E606F050E616FD8904634D96E47348C
:10167800DA6ED890D936DA366051D9266151DA2235
:10168800EAC0DEFFEBC0DEFFECC0DEFFEDC0DEFF30
:10169800000E4624D96E020E4720DA6EDF6A400E2D
:1016A80046184710D8A45BEF0BF05DEF0BF0ECEF9A
:1016B8000FF0F8EC4EF0ECEF0FF0ED51EC110BE100
:1016C800810EEA5D020EEB59D8A06DEF0BF06FEFBB
:1016D8000BF0DCEF0BF0ED51EC1109E1AC0EEA5D1B
:1016E800030EEB59D8B07BEF0BF07DEF0BF0DCEF7E
:1016F8000BF0DEC060F0DFC061F0E0C062F0E1C076
:1017080063F0E2C064F0E3C065F0E4C066F0E5C0F1
:1017180067F0D89067336633653364336333623375
:101728006133603360C0DEF061C0DFF062C0E0F0BA
:1017380063C0E1F064C0E2F065C0E3F066C0E4F0C5
:1017480067C0E5F0475007E1960E465CD8B0AFEFAA
:101758000BF0B1EF0BF0D0EF0BF0820E606F050EBF
:10176800616FD8904634D96E4734DA6ED890D9363E
:10177800DA366051D9266151DA22EAC0DEFFEBC0C1
:10178800DEFFECC0DEFFEDC0DEFF000E4624D96EA2
:10179800020E4720DA6EDF6A400E46184710D8A4BA
:1017A800D8EF0BF0DAEF0BF0ECEF0FF05DEF0BF08A
:1017B8004A04D8A4E2EF0BF0E4EF0BF0F2EF0BF0E1
:1017C800920E3F6EFF0E406EEAC041F0EBC042F051
:1017D800ECC043F0EDC044F086EC4EF0475007E112
:1017E800960E465CD8B0FBEF0BF0FDEF0BF016EF52
:1017F8000CF0820E0001606F050E616FD8904634C0
:10180800D96E4734DA6ED890D936DA366051D9268F
:101818006151DA22EAC0DEFFEBC0DEFFECC0DEFF7A
:10182800EDC0DEFF000E4624D96E020E4720DA6EA8
:10183800DF6A475009E1400E465CD8A026EF0CF05D
:1018480028EF0CF0ECEF0FF05DEF0BF0020E4918EB
:10185800D8A431EF0CF033EF0CF08AEF0DF089517A
:10186800D8B439EF0CF03BEF0CF08AEF0DF089514A
:10187800D8B441EF0CF043EF0CF08AEF0DF0000103
:10188800ED51EC110BE1570EEA5D040EEB59D8A0AF
:1018980050EF0CF052EF0CF0CDEF0CF0ED51EC11D5
:1018A80009E1AA0EEA5D050EEB59D8B05EEF0CF01F
:1018B80060EF0CF0CDEF0CF0D890DE35DE6FDF3541
:1018C800DF6FE035E06FE135E16FE235E26FE33578
:1018D800E36FE435E46FE535E56F010EDE11DE6F89
:1018E800DF51DF6FE051E06FE151E16FE251E26FEC
:1018F800E351E36FE451E46FE551E56F475007E1C9
:10190800960E465CD8B08BEF0CF08DEF0CF0ACEF78
:101918000CF0820E606F050E616FD8904634D96E58
:101928004734DA6ED890D936DA366051D926615103
:10193800DA22EAC0DEFFEBC0DEFFECC0DEFFEDC05E
:10194800DEFF000E4624D96E020E4720DA6EDF6AEB
:101958001A0E46184710D8A4B4EF0CF0B6EF0CF0E6
:10196800ECEF0FF00CEC4FF0ECEF0FF0010EDE1186
:10197800DE6FDF51DF6FE051E06FE151E16FE2515F
:10198800E26FE351E36FE451E46FE551E56FECEF8B
:101998000FF0ED51EC110BE1D70EEA5D010EEB599A
:1019A800D8A0D9EF0CF0DBEF0CF044EF0DF0ED51BF
:1019B800EC1109E12A0EEA5D030EEB59D8B0E7EF06
:1019C8000CF0E9EF0CF044EF0DF0D890DE35DE6F47
:1019D800DF35DF6FE035E06FE135E16FE235E26F6B
:1019E800E335E36FE435E46FE535E56F475007E12C
:1019F800960E465CD8B003EF0DF005EF0DF024EF1E
:101A08000DF0820E606F050E616FD8904634D96E66
:101A18004734DA6ED890D936DA366051D926615112
:101A2800DA22EAC0DEFFEBC0DEFFECC0DEFFEDC06D
:101A3800DEFF000E4624D96E020E4720DA6EDF6AFA
:101A48001A0E46184710D8A42CEF0DF02EEF0DF003
:101A5800ECEF0FF0B6EF0CF0D8900001DE35DE6F3A
:101A6800DF35DF6FE035E06FE135E16FE235E26FDA
:101A7800E335E36FE435E46FE535E56FECEF0FF040
:101A88008CEC4FF046C05EF147C05FF1475007E16C
:101A9800C80E465CD8B053EF0DF055EF0DF076EF59
:101AA8000DF0820E0001606F050E616FD89046340C
:101AB800D96E4734DA6ED890D936DA366051D926DD
:101AC8006151DA22EAC0DEFFEBC0DEFFECC0DEFFC8
:101AD800EDC0DEFF000E4624D96E020E4720DA6EF6
:101AE800030EDF6E4A04D8A47CEF0DF07EEF0DF0F4
:101AF800ECEF0FF0110E3F6EFF0E406E46C041F046
:101B080047C042F086EC4EF0ECEF0FF04904D8A441
:101B180090EF0DF092EF0DF0ECEF0FF00001ED51AA
:101B2800EC110BE18C0EEA5D0A0EEB59D8A09FEF81
:101B38000DF0A1EF0DF088EF0EF0ED51EC1109E179
:101B4800BB0EEA5D0C0EEB59D8B0ADEF0DF0AFEF60
:101B58000DF088EF0EF06C0E46184710D8A4B7EFBA
:101B68000DF0B9EF0DF0DFEF0DF001018C6B820E77
:101B78000001606F050E616FD8904634D96E473406
:101B8800DA6ED890D936DA366051D9266151DA2220
:101B9800EAC0DEFFEBC0DEFFECC0DEFFEDC0DEFF1B
:101BA800000E4624D96E020E4720DA6EDF6AEEEC8C
:101BB8004EF0ECEF0FF0020E46184710D8B4E7EFDE
:101BC8000DF0E9EF0DF0F3EF0DF0030E4618471096
:101BD800D8A4F1EF0DF0F3EF0DF0ABEF05F0020E26
:101BE80046184710D8A4FBEF0DF0FDEF0DF003EFFA
:101BF8000EF0EAC062F1EBC063F1ECEF0FF0030EF8
:101C080046184710D8A40BEF0EF00DEF0EF0ABEF0F
:101C180005F0010164510001606F01016551000187
:101C2800616F626B636B7A0E646F050E656FD89097
:101C38004634D96E4734DA6ED890D936DA366451DC
:101C4800D9266551DA2260C0DEFF61C0DEFF62C0BE
:101C5800DEFF63C0DEFFFE0E4624D96E010E47206C
:101C6800DA6EDF6A010162510001606F01016351A0
:101C78000001616F626B636B7E0E646F050E656FAA
:101C8800D8904634D96E4734DA6ED890D936DA36D9
:101C98006451D9266551DA2260C0DEFF61C0DEFFDB
:101CA80062C0DEFF63C0DEFFFF0E4624D96E010E60
:101CB8004720DA6EDF6A820E606F050E616FD8907A
:101CC8004634D96E4734DA6ED890D936DA36605150
:101CD800D9266151DA22EAC0DEFFEBC0DEFFECC094
:101CE800DEFFEDC0DEFF000E4624D96E020E47204F
:101CF800DA6EDF6A010E0101886F000E616F000E57
:101D0800606F8C6BECEF0FF001018851D8B48FEF46
:101D18000EF091EF0EF0ECEF0FF00001ED51EC1129
:101D28000BE1930EEA5D060EEB59D8A09EEF0EF07C
:101D3800A0EF0EF026EF0FF0ED51EC1109E1C20E05
:101D4800EA5D080EEB59D8B0ACEF0EF0AEEF0EF02E
:101D580026EF0FF0475007E1960E465CD8B0B7EF74
:101D68000EF0B9EF0EF0D8EF0EF0820E606F050E90
:101D7800616FD8904634D96E4734DA6ED890D93628
:101D8800DA366051D9266151DA22EAC0DEFFEBC0AB
:101D9800DEFFECC0DEFFEDC0DEFF000E4624D96E8C
:101DA800020E4720DA6EDF6A46B0DDEF0EF0DFEF95
:101DB8000EF0E1EF0EF008EF06F001018B51D8A408
:101DC800E8EF0EF0EAEF0EF000EF0FF0604B612B3A
:101DD800D8900001DE35DE6FDF35DF6FE035E06F6C
:101DE800E135E16FE235E26FE335E36FE435E46F47
:101DF800E535E56FBAEF0CF0000E476E000E466E43
:101E08008CEC4FF04A04D8A40CEF0FF00EEF0FF053
:101E1800A4EF00F0000E4624D96E020E4720DA6EB9
:101E2800020EDF6E8D0E3F6EFE0E406EEAC041F070
:101E3800EBC042F0ECC043F0EDC044F086EC4EF04D
:101E4800ECEF0FF0ED51EC110BE1A70EEA5D020E7D
:101E5800EB59D8A032EF0FF034EF0FF0A8EF0FF0E6
:101E6800ED51EC1109E1D60EEA5D040EEB59D8B03C
:101E780040EF0FF042EF0FF0A8EF0FF0475007E1E7
:101E8800960E465CD8B04BEF0FF04DEF0FF06CEFAD
:101E98000FF0820E606F050E616FD8904634D96ED0
:101EA8004734DA6ED890D936DA366051D92661517E
:101EB800DA22EAC0DEFFEBC0DEFFECC0DEFFEDC0D9
:101EC800DEFF000E4624D96E020E4720DA6EDF6A66
:101ED80046B071EF0FF073EF0FF075EF0FF0A1EF51
:101EE80006F001018B05D8A47CEF0FF07EEF0FF010
:101EF80082EF0FF0604B612B30EF0DF0000E476E54
:101F0800000E466E8CEC4FF04A04D8A48EEF0FF00A
:101F180090EF0FF0A4EF00F0000E4624D96E020EE9
:101F28004720DA6E020EDF6E420E3F6EFE0E406EE6
:101F3800EAC041F0EBC042F0ECC043F0EDC044F021
:101F480086EC4EF0ECEF0FF08CEC4FF046C05EF1F3
:101F580047C05FF1475007E1C80E465CD8B0B7EFFD
:101F68000FF0B9EF0FF0DAEF0FF0820E0001606F9B
:101F7800050E616FD8904634D96E4734DA6ED89022
:101F8800D936DA366051D9266151DA22EAC0DEFF45
:101F9800EBC0DEFFECC0DEFFEDC0DEFF000E462426
:101FA800D96E020E4720DA6E030EDF6E4A04D8A4FB
:101FB800E0EF0FF0E2EF0FF0A4EF00F0210E3F6E1C
:101FC800FF0E406E46C041F047C042F086EC4EF02E
:101FD800F29071C0F5FF70C0F8FF6FC0F7FF6EC0D8
:101FE800F6FF6DC0F4FF6CC0F3FF6BC0DAFF6AC088
:101FF800D9FF69C0E2FF68C0E1FF4F92110014EFFA
:1020080049F0D4C072F0D5C073F0DC0E0001746FD3
:10201800FF0E756FE8EC4AF0000172517311D8A4F5
:1020280018EF10F01AEF10F01EEF10F0DDEC40F092
:102038006EEF17F0D4C072F0D5C073F0D60E746F7F
:10204800FF0E756FE8EC4AF0000172517311D8A4C5
:1020580030EF10F032EF10F040EF10F04A6A010153
:10206800836B846B826B790E0001B06FFE0EB16FCB
:102078006BEC4EF06EEF17F0D4C072F0D5C073F071
:10208800D90E746FFF0E756FE8EC4AF000017251BB
:102098007311D8A452EF10F054EF10F0BDEF10F008
:1020A8004A2A040E4A645BEF10F05DEF10F05EEF11
:1020B80010F04A6A970EB06FFE0EB16F4AC0B2F0C8
:1020C800B36B6BEC4EF04A50D8A46DEF10F06FEF85
:1020D80010F078EF10F05E0E0001B06FFD0EB16FDA
:1020E8006BEC4EF00101846B4A04D8A47EEF10F02B
:1020F80080EF10F087EF10F0C30E0001B06FF70EFD
:10210800B16F6BEC4EF0020E4A18D8A48EEF10F0A7
:1021180090EF10F097EF10F0700E0001B06FFC0E0A
:10212800B16F6BEC4EF0030E4A18D8A49EEF10F076
:10213800A0EF10F0A7EF10F0690E0001B06FF80ED5
:10214800B16F6BEC4EF0040E4A18D8A4AEEF10F045
:10215800B0EF10F06EEF17F0850E0001B06FFB0EB8
:10216800B16F6BEC4EF0010E0101836F4A6A6EEF9E
:1021780017F0D4C072F0D5C073F0E60E746FFF0E7E
:10218800756FE8EC4AF0000172517311D8A4CFEFD3
:1021980010F0D1EF10F01EEF11F00101902B020E9C
:1021A8009019D8A4DAEF10F0DCEF10F0DDEF10F0A2
:1021B800906BBA0E0001B06FFA0EB16F0101905129
:1021C800040DEB0EF324D96E010EF420DA6EDECF87
:1021D800B2F0DECFB3F0DECFB4F0DECFB5F06BEC0B
:1021E8004EF001019051D8A4FCEF10F0FEEF10F072
:1021F80009EF11F0A20E0001B06FFA0EB16F6BEC8F
:102208004EF0060E7D6E820EAF6E01019005D8A4C9
:1022180010EF11F012EF11F06EEF17F0B30E00018E
:10222800B06FFD0EB16F6BEC4EF07D6A440EAF6E71
:102238006EEF17F0D4C072F0D5C073F0E80E746F6B
:10224800FF0E756FE8EC4AF0000172517311D8A4C3
:1022580030EF11F032EF11F052EF11F0010190510F
:10226800D8B439EF11F03BEF11F042EF11F0210E25
:102278000001B06FF70EB16F6BEC4EF0470E000126
:10228800B06FF40EB16F6BEC4EF0000E0001C86F2A
:10229800010EC76F07EC2FF06EEF17F0D4C072F085
:1022A800D5C073F0EA0E746FFF0E756FE8EC4AF054
:1022B800000172517311D8A464EF11F066EF11F0A8
:1022C80086EF11F001019051D8B46DEF11F06FEF66
:1022D80011F076EF11F0210E0001B06FF70EB16F1B
:1022E8006BEC4EF0A40E0001B06FF40EB16F6BEC06
:1022F8004EF0000E0001C86F020EC76F07EC2FF0FA
:102308006EEF17F0D4C072F0D5C073F0EC0E746F96
:10231800FF0E756FE8EC4AF0000172517311D8A4F2
:1023280098EF11F09AEF11F09EEF11F06FEC17F0A3
:102338006EEF17F0D4C072F0D5C073F0EE0E746F64
:10234800FF0E756FE8EC4AF0000172517311D8A4C2
:10235800B0EF11F0B2EF11F064EF12F0F29EED0E53
:10236800B06FFB0EB16F6BEC4EF028EF12F0410E20
:102378000001B06FFF0EB16F6BEC4EF050EF12F032
:10238800ED0E0001B06FFC0EB16F4CC1B2F04DC143
:10239800B3F04EC1B4F04FC1B5F06BEC4EF050EF56
:1023A80012F03B0E0001B06FFA0EB16F4CC1B2F0E3
:1023B8004DC1B3F04EC1B4F04FC1B5F06BEC4EF067
:1023C80050EF12F08F0E0001B06FF80EB16F6BEC8A
:1023D8004EF050EF12F0CE0E0001B06FF90EB16F53
:1023E8006BEC4EF050EF12F0190E0001B06FF80EC2
:1023F800B16F6BEC4EF050EF12F03F0E0001B06F72
:10240800FD0EB16F6BEC4EF050EF12F0580E00015C
:10241800B06FFE0EB16F6BEC4EF050EF12F06F0E16
:102428000001B06FFA0EB16F6BEC4EF050EF12F086
:10243800510E0001B06FFA0EB16F98C1B2F0B36BD4
:102448006BEC4EF050EF12F001019851000AD8B42D
:10245800BBEF11F0010AD8B4C4EF11F0030AD8B4E5
:10246800D5EF11F0010AD8B4E6EF11F0070AD8B495
:10247800EFEF11F0010AD8B4F8EF11F0030AD8B45D
:1024880001EF12F0010AD8B40AEF12F00F0AD8B41B
:1024980013EF12F01CEF12F0550E0001B06FFA0E98
:1024A800B16F97C1B2F0B36B6BEC4EF01E0E00012A
:1024B800B06FFA0EB16F6BEC4EF0F28E6EEF17F054
:1024C800D4C072F0D5C073F0F00E746FFF0E756F44
:1024D800E8EC4AF0000172517311D8A476EF12F0BB
:1024E80078EF12F0F9EF12F0F29E4F0EB06FFD0E7A
:1024F800B16F92C1B2F0B36B6BEC4EF0700E00018D
:10250800B06FFB0EB16F91C1B2F0B36B6BEC4EF0D4
:102518005E0E0001B06FFC0EB16F6CC1B2F06DC100
:10252800B3F06BEC4EF0010E0001E66F000EE76FA2
:10253800000EE86F000EE96FE951E811E71109E1B3
:10254800830EE65DD8A0ABEF12F0ADEF12F0AFEF5F
:1025580012F0DAEF12F0B80EB06FFF0EB16FE6C0EE
:10256800B2F0E7C0B3F0E8C0B4F0E9C0B5F06BEC86
:102578004EF0B00E0001B06FFF0EB16F000EE625F1
:10258800D96E050EE721DA6EDF500101C66FC6511C
:102598000001B26FB36B6BEC4EF0010E0001E62741
:1025A800000EE723E823E923A0EF12F01E0EB06F18
:1025B800FA0EB16F6BEC4EF0DC0E0001B06FFC0E42
:1025C800B16F6AC1B2F06BC1B3F06BEC4EF07C0E28
:1025D8000001B06FFD0EB16F68C1B2F069C1B3F010
:1025E8006BEC4EF0F28E6EEF17F0D4C072F0D5C0DF
:1025F80073F0F20E746FFF0E756FE8EC4AF000018D
:1026080072517311D8A40BEF13F00DEF13F086EF8E
:1026180013F0F29E000EE66F000EE76F000EE86FF3
:10262800000EE96FE951E811E71109E1C80EE65D0E
:10263800D8A021EF13F023EF13F025EF13F083EF69
:1026480013F0E6C0BBF0E7C0BCF0E8C0BDF0E9C0DD
:10265800BEF033EC3AF0B80E0001B06FFF0EB16F68
:10266800E6C0B2F0E7C0B3F0E8C0B4F0E9C0B5F036
:102678006BEC4EF08D0E0001B06FFF0EB16F00C312
:10268800B2F0B36B6BEC4EF0010E0001E6250101D0
:10269800C66F000E0001E7210101C76F000E00019F
:1026A800E8210101C86F000E0001E9210101C96F8D
:1026B8000F0EC615CA6F000EC715CB6F000EC815D2
:1026C800CC6F000EC915CD6FCA51CB11CC11CD11ED
:1026D800D8A471EF13F073EF13F07AEF13F01E0E16
:1026E8000001B06FFA0EB16F6BEC4EF0010E0001F5
:1026F800E627000EE723E823E92316EF13F0F28E0E
:102708006EEF17F0D4C072F0D5C073F02C0E746F52
:10271800FB0E756FE8EC4AF0000172517311D8A4F2
:1027280098EF13F09AEF13F030EF14F0F29E000ECA
:10273800E66F000EE76F000EE86F000EE96FE951D3
:10274800E8110AE1E629030EE759D8A0AEEF13F025
:10275800B0EF13F0B2EF13F02DEF14F0E6C072F003
:10276800E7C073F093EC4EF00101D96F0F0E000132
:10277800E6150101C66F000E0001E7150101C76FDC
:10278800000E0001E8150101C86F000E0001E915EF
:102798000101C96FC651C711C811C911D8A4D7EF13
:1027A80013F0D9EF13F0E8EF13F0BC0E0001B06F8F
:1027B800FF0EB16FE6C0B2F0E7C0B3F0E8C0B4F006
:1027C800E9C0B5F06BEC4EF08D0E0001B06FFF0E56
:1027D800B16FD9C1B2F0B36B6BEC4EF0010E0001D2
:1027E800E6250101C66F000E0001E7210101C76F50
:1027F800000E0001E8210101C86F000E0001E92167
:102808000101C96F0F0EC615CA6F000EC715CB6F31
:10281800000EC815CC6F000EC915CD6FCA51CB116B
:10282800CC11CD11D8A41BEF14F01DEF14F024EF38
:1028380014F01E0E0001B06FFA0EB16F6BEC4EF083
:10284800010E0001E627000EE723E823E923A3EFA2
:1028580013F0F28E6EEF17F0D4C072F0D5C073F09B
:10286800F40E746FFF0E756FE8EC4AF000017251B8
:102878007311D8A442EF14F044EF14F0F3EF14F0FE
:102888000101DE6BF29E4C0E0001B06FFC0EB16FC1
:102898006BEC4EF0000E0001E66F000EE76F000EC5
:1028A800E86F000EE96F9BEF14F0E6C0BBF0E7C0DD
:1028B800BCF0E8C0BDF0E9C0BEF0800EBF6FF9EC17
:1028C8003AF0800E0001E625E66F000EE721E76F7B
:1028D800000EE821E86F000EE921E96F000E010102
:1028E800DA6F000EDB6F000EDC6F000EDD6FDD515E
:1028F800DC11DB1109E1800EDA5DD8A086EF14F057
:1029080088EF14F08AEF14F09BEF14F0000EDA252C
:10291800D96E030EDB21DA6EDF50DE19DE6F010E91
:10292800DA27000EDB23DC23DD237BEF14F0000124
:10293800E9510CE1E629FF0EE759010EE859D8A044
:10294800A8EF14F0AAEF14F059EF14F0000EBB6FC3
:10295800000EBC6F000EBD6F000EBE6F33EC3AF078
:10296800030100510001E66FE76BE86BE96B030EAA
:10297800E619E711E811E911D8B4C5EF14F0C7EF6B
:1029880014F0CDEF14F0EF0EB06FF70EB16F6BECE3
:102998004EF0890E0001B06FFA0EB16FDEC1B2F0D1
:1029A800B36B6BEC4EF00101DE51D8A4DEEF14F0EE
:1029B800E0EF14F0E9EF14F0830E0001B06FFF0EA2
:1029C800B16F6BEC4EF0F0EF14F0C90E0001B06F70
:1029D800FE0EB16F6BEC4EF0F28E6EEF17F0D4C0B6
:1029E80072F0D5C073F0F60E746FFF0E756FE8ECD9
:1029F8004AF0000172517311D8A405EF15F007EFE2
:102A080015F0FCEF15F0000E0101DF6F000EE06F0E
:102A1800000EE16F000EE26FF29EEBEF15F0DFC1E2
:102A2800BBF0E0C1BCF0E1C1BDF0E2C1BEF0800E78
:102A38000001BF6FF9EC3AF0000E0001E66F000EDE
:102A4800E76F000EE86F000EE96FE951E811E71132
:102A580009E1800EE65DD8A034EF15F036EF15F0E9
:102A680038EF15F0DEEF15F00101DF510001E62522
:102A78000101D56FE0510001E7210101D66FE15155
:102A88000001E8210101D76FE2510001E9210101AC
:102A9800D86F0F0E0001E6150101C66F000E000188
:102AA800E7150101C76F000E0001E8150101C86FA5
:102AB800000E0001E9150101C96FC651C711C811FF
:102AC800C911D8A46AEF15F06CEF15F088EF15F06E
:102AD800D5510001BB6F0101D6510001BC6F010146
:102AE800D7510001BD6F0101D8510001BE6FBF6B06
:102AF800C06BC16BC26BC8EC4DF0FD0E0001B06F2E
:102B0800FE0EB16F6BEC4EF0B40E0001B06FFF0E0D
:102B1800B16F000EE625D96E030EE721DA6EDF509D
:102B28000101C66FC6510001B26FB36B6BEC4EF07A
:102B3800010E0001E6250101C66F000E0001E72124
:102B48000101C76F000E0001E8210101C86F000EE6
:102B58000001E9210101C96F0F0EC615CA6F000EE9
:102B6800C715CB6F000EC815CC6F000EC915CD6FF9
:102B7800CA51CB11CC11CD11D8A4C5EF15F0C7EFB0
:102B880015F0CEEF15F01E0E0001B06FFA0EB16F02
:102B98006BEC4EF0E40E00D000D0E82EFCD700D04D
:102BA80000D0010E0001E627000EE723E823E92301
:102BB80029EF15F0800E0101DF25DF6F000EE021FF
:102BC800E06F000EE121E16F000EE221E26FE251B9
:102BD8000CE1DF29FF0EE059010EE159D8A0F7EF0B
:102BE80015F0F9EF15F013EF15F0F28E6EEF17F000
:102BF800D4C072F0D5C073F0F80E746FFF0E756F05
:102C0800E8EC4AF0000172517311D8A40EEF16F0E7
:102C180010EF16F052EF17F0000EE66F000EE76F98
:102C2800000EE86F000EE96FE6C0C6F1E7C0C7F115
:102C38000101D890C637C737D890C637C737000EB6
:102C4800C6250001726F010E0101C7210001736FD3
:102C580093EC4EF00101C86FC851E36FE46BE56B6C
:102C6800E66BE76BE86BE96BEA6BE6C0C6F1E7C0B9
:102C7800C7F1D890C637C737D890C637C737010EBF
:102C8800C6250001726F010E0101C7210001736F93
:102C980093EC4EF00101C86FC8C1C9F1CA6BCB6B88
:102CA800CC6BCBC1CCF1CAC1CBF1C9C1CAF1C96BDC
:102CB800C951CD6FCA51CE6FCB51CF6FCC51D06FA8
:102CC800D16BD26BD36BD46BE351CD25E36FE45159
:102CD800CE21E46FE551CF21E56FE651D021E66FB3
:102CE800E751D121E76FE851D221E86FE951D321AB
:102CF800E96FEA51D421EA6FE6C0C6F1E7C0C7F12F
:102D0800D890C637C737D890C637C737020EC625FA
:102D18000001726F010E0101C7210001736F93EC6E
:102D28004EF00101C86FC8C1C9F1CA6BCB6BCC6B3F
:102D3800CAC1CCF1C9C1CBF1CA6BC96BC951CD6F3E
:102D4800CA51CE6FCB51CF6FCC51D06FD16BD26BF4
:102D5800D36BD46BE351CD25E36FE451CE21E46FFF
:102D6800E551CF21E56FE651D021E66FE751D1213A
:102D7800E76FE851D221E86FE951D321E96FEA51B1
:102D8800D421EA6FE6C0C6F1E7C0C7F1D890C637CC
:102D9800C737D890C637C737030EC6250001726FEC
:102DA800010E0101C7210001736F93EC4EF0010180
:102DB800C86FC8C1C9F1CA6BCB6BCC6BC9C1CCF1A8
:102DC800CB6BCA6BC96BC951CD6FCA51CE6FCB5192
:102DD800CF6FCC51D06FD16BD26BD36BD46BE35127
:102DE800CD25E36FE451CE21E46FE551CF21E56FA6
:102DF800E651D021E66FE751D121E76FE851D221A2
:102E0800E86FE951D321E96FEA51D421EA6F820EC4
:102E18000001B06FFC0EB16F010EE625B26F000E17
:102E2800E721B36F000EE821B46F000EE921B56FFA
:102E38006BEC4EF0E3C1BBF0E4C1BCF0E5C1BDF002
:102E4800E6C1BEF0E7C1BFF0E8C1C0F0E9C1C1F01A
:102E5800EAC1C2F0C8EC4DF01E0E0001B06FFA0EC8
:102E6800B16F6BEC4EF0010E0001E627000EE72370
:102E7800E823E923E951E811E71109E1140EE65DB9
:102E8800D8A049EF17F04BEF17F018EF16F0E60748
:102E9800000EE75BE85BE95B6EEF17F0D4C072F0F9
:102EA800D5C073F0FC0E746FFF0E756FE8EC4AF036
:102EB800000172517311D8A464EF17F066EF17F090
:102EC80068EF17F06EEF17F0D20EB06FFA0EB16F11
:102ED8006BEC4EF01200F29E0101876BFD0E0001B3
:102EE800B06FFD0EB16F5EC1B2F05FC1B3F06BECB5
:102EF8004EF04950D8A483EF17F085EF17F08CEF08
:102F080017F0C40E0001B06FFB0EB16F6BEC4EF002
:102F1800020E4918D8A493EF17F095EF17F09CEF1D
:102F280017F02F0E0001B06FFD0EB16F6BEC4EF075
:102F3800040E4918D8A4A3EF17F0A5EF17F0ACEFCB
:102F480017F0FE0E0001B06FFC0EB16F6BEC4EF087
:102F5800030E4918D8A4B3EF17F0B5EF17F0BCEF7C
:102F680017F0170E0001B06FFB0EB16F6BEC4EF04F
:102F7800050E4918D8A4C3EF17F0C5EF17F0CCEF2A
:102F880017F0390E0001B06FFC0EB16F6BEC4EF00C
:102F98004904D8A4D2EF17F0D4EF17F0DBEF17F0FD
:102FA8009A0E0001B06FFB0EB16F6BEC4EF0070E7E
:102FB8004918D8A4E2EF17F0E4EF17F0EBEF17F099
:102FC800000E0001B06FFC0EB16F6BEC4EF01E0EE0
:102FD8000001B06FFA0EB16F6BEC4EF0010E0001FC
:102FE800C26F010EC16FFF0EC225726F736BFF0EA9
:102FF8007323000E756F160E746F37EC46F00001E0
:10300800C151160DF3CFBBF0F4CFBCF07251BB2504
:10301800BD6F7351BC21BE6FEA0EBD25BF6FFF0E99
:10302800BE21C06FBFC0E6F0C0C0E7F0000EE7BF2A
:10303800FF0EE86FE96F01015E510001BB6F0101EE
:103048005F510001BC6FBD6BBE6BE651BB5DE751C4
:10305800BC59E851BD59E951BE59D8A036EF18F00E
:1030680038EF18F035EF1CF0C40EB06FFF0EB16FDB
:10307800E6C0B2F0E7C0B3F0E8C0B4F0E9C0B5F01C
:103088006BEC4EF07E0E0001BB6F050EBC6FD89046
:10309800E635D96EE735DA6ED890D936DA36BB51CF
:1030A800D926BC51DA22DECFC3F0DDCFC4F0820EC0
:1030B800BB6F050EBC6FD890E635D96EE735DA6E72
:1030C800D890D936DA36BB51D926BC51DA22DECFB0
:1030D800EAF0DECFEBF0DECFECF0DECFEDF0AB0EBA
:1030E800B06FFF0EB16FEAC0B2F0EBC0B3F0ECC046
:1030F800B4F0EDC0B5F06BEC4EF04950D8A487EFB2
:1031080018F089EF18F090EF18F0FC0E0001B06F7E
:10311800FE0EB16F6BEC4EF04904D8A496EF18F090
:1031280098EF18F04FEF19F00001ED51EC110BE199
:10313800A90EEA5D8F0EEB59D8A0A5EF18F0A7EFFE
:1031480018F0BDEF18F0ED51EC1109E1780EEA5DC9
:10315800970EEB59D8B0B3EF18F0B5EF18F0BDEFF4
:1031680018F0E10EB06FFF0EB16F6BEC4EF02FEF61
:1031780019F0ED51EC110BE1A70EEA5D020EEB59C7
:10318800D8A0C9EF18F0CBEF18F0E1EF18F0ED5127
:10319800EC1109E1D60EEA5D040EEB59D8B0D7EF71
:1031A80018F0D9EF18F0E1EF18F0D50EB06FFF0E58
:1031B800B16F6BEC4EF02FEF19F0ED51EC110BE104
:1031C800930EEA5D060EEB59D8A0EDEF18F0EFEF7D
:1031D80018F005EF19F0ED51EC1109E1C20EEA5DA6
:1031E800080EEB59D8B0FBEF18F0FDEF18F005EF1B
:1031F80019F0D80EB06FFF0EB16F6BEC4EF02FEFD9
:1032080019F0ED51EC110BE18C0EEA5D0A0EEB5949
:10321800D8A011EF19F013EF19F029EF19F0ED51BB
:10322800EC1109E1BB0EEA5D0C0EEB59D8B01FEFAB
:1032380019F021EF19F029EF19F0DE0EB06FFF0E2B
:10324800B16F6BEC4EF02FEF19F0DB0EB06FFF0E85
:10325800B16F6BEC4EF0000E0001E625D96E020E40
:10326800E721DA6EDF50D8B43CEF19F03EEF19F0E1
:103278004FEF19F0310EB06FFF0EB16F000EE6255B
:10328800D96E020EE721DA6EDF50BB6FBB51B26F09
:10329800B36B6BEC4EF0020E4918D8A456EF19F038
:1032A80058EF19F0EBEF19F00001ED51EC110BE1BB
:1032B800130EEA5D700EEB59D8A065EF19F067EFB1
:1032C80019F07DEF19F0ED51EC1109E1E20EEA5D1C
:1032D800770EEB59D8B073EF19F075EF19F07DEF51
:1032E80019F0E10EB06FFF0EB16F6BEC4EF0CBEF43
:1032F80019F0ED51EC110BE1D70EEA5D010EEB5917
:10330800D8A089EF19F08BEF19F0A1EF19F0ED5162
:10331800EC1109E12A0EEA5D030EEB59D8B097EFDC
:1033280019F099EF19F0A1EF19F0D50EB06FFF0E53
:10333800B16F6BEC4EF0CBEF19F0ED51EC110BE1E6
:10334800570EEA5D040EEB59D8A0ADEF19F0AFEFB8
:1033580019F0C5EF19F0ED51EC1109E1AA0EEA5D7B
:10336800050EEB59D8B0BBEF19F0BDEF19F0C5EF5A
:1033780019F0D80EB06FFF0EB16F6BEC4EF0CBEFBB
:1033880019F0DB0EB06FFF0EB16F6BEC4EF0000E54
:103398000001E625D96E020EE721DA6EDF50D8B4B7
:1033A800D8EF19F0DAEF19F0EBEF19F0310EB06F32
:1033B800FF0EB16F000EE625D96E020EE721DA6E18
:1033C800DF50BB6FBB51B26FB36B6BEC4EF0040EAA
:1033D8004918D8A4F2EF19F0F4EF19F0AAEF1AF08F
:1033E8000001ED51EC110BE1F50EEA5D0F0EEB5902
:1033F800D8A001EF1AF003EF1AF019EF1AF0ED5107
:10340800EC1109E1C40EEA5D170EEB59D8B00FEFC5
:103418001AF011EF1AF019EF1AF0E10EB06FFF0E63
:10342800B16F6BEC4EF08AEF1AF0ED51EC110BE135
:103438004A0EEA5D040EEB59D8A025EF1AF027EFE3
:103448001AF03CEF1AF0ED51EC1108E1EA05060E0E
:10345800EB59D8B032EF1AF034EF1AF03CEF1AF00B
:10346800D50EB06FFF0EB16F6BEC4EF08AEF1AF00D
:10347800ED51EC110BE15B0EEA5D090EEB59D8A09A
:1034880048EF1AF04AEF1AF060EF1AF0ED51EC111C
:1034980009E1120EEA5D0B0EEB59D8B056EF1AF09F
:1034A80058EF1AF060EF1AF0D80EB06FFF0EB16F38
:1034B8006BEC4EF08AEF1AF0ED51EC110BE1A50E12
:1034C800EA5D240EEB59D8A06CEF1AF06EEF1AF0F3
:1034D80084EF1AF0ED51EC1109E15C0EEA5D260E5D
:1034E800EB59D8B07AEF1AF07CEF1AF084EF1AF0A3
:1034F800DE0EB06FFF0EB16F6BEC4EF08AEF1AF074
:10350800DB0EB06FFF0EB16F6BEC4EF0000E0001DA
:10351800E625D96E020EE721DA6EDF50D8B497EFB0
:103528001AF099EF1AF0AAEF1AF0310EB06FFF0EE9
:10353800B16F000EE625D96E020EE721DA6EDF5074
:10354800BB6FBB51B26FB36B6BEC4EF0030E4918F7
:10355800D8A4B1EF1AF0B3EF1AF09EEF1BF00001F8
:10356800ED51EC110BE1C30EEA5D7E0EEB59D8A0CC
:10357800C0EF1AF0C2EF1AF0D8EF1AF0ED51EC11C3
:1035880009E10E0EEA5D830EEB59D8B0CEEF1AF0C2
:10359800D0EF1AF0D8EF1AF0E10EB06FFF0EB16F4E
:1035A8006BEC4EF07EEF1BF0ED51EC110BE1F70EDA
:1035B800EA5D1D0EEB59D8A0E4EF1AF0E6EF1AF019
:1035C800FCEF1AF0ED51EC1109E1B20EEA5D200EA4
:1035D800EB59D8B0F2EF1AF0F4EF1AF0FCEF1AF04A
:1035E800DE0EB06FFF0EB16F6BEC4EF07EEF1BF08E
:1035F800E6B101EF1BF003EF1BF076EF1BF0E30ED3
:10360800C35D040EC459D8A00CEF1BF00EEF1BF0DD
:103618003BEF1BF09E0EC35D070EC459D8B017EFE1
:103628001BF019EF1BF03BEF1BF0ED51EC110BE118
:10363800F50EEA5D010EEB59D8A025EF1BF027EF38
:103648001BF03BEF1BF0ED51EC1109E1B00EEA5D08
:10365800040EEB59D8B033EF1BF035EF1BF03BEFFE
:103668001BF0D80EB06FFF0EB16F6BEC4EF0F50E7D
:103678000001C35D010EC459D8A045EF1BF047EF08
:103688001BF07EEF1BF0B00EC35D040EC459D8B01A
:1036980050EF1BF052EF1BF07EEF1BF0ED51EC11D9
:1036A8000BE1E30EEA5D040EEB59D8A05EEF1BF0C8
:1036B80060EF1BF07EEF1BF0ED51EC1109E19E0E5F
:1036C800EA5D070EEB59D8B06CEF1BF06EEF1BF0FC
:1036D8007EEF1BF0D50EB06FFF0EB16F6BEC4EF0A6
:1036E8007EEF1BF0FC0EB06FFE0EB16F6BEC4EF070
:1036F8007EEF1BF0000E0001E625D96E020EE721D1
:10370800DA6EDF50D8B48BEF1BF08DEF1BF09EEF15
:103718001BF0310EB06FFF0EB16F000EE625D96EAB
:10372800020EE721DA6EDF50BB6FBB51B26FB36B8D
:103738006BEC4EF0050E4918D8A4A5EF1BF0A7EFC7
:103748001BF02CEF1CF00001ED51EC110BE16B0E9E
:10375800EA5D180EEB59D8A0B4EF1BF0B6EF1BF0DA
:10376800CCEF1BF0ED51EC1109E1B60EEA5D1C0E31
:10377800EB59D8B0C2EF1BF0C4EF1BF0CCEF1BF035
:10378800E10EB06FFF0EB16F6BEC4EF00CEF1CF05A
:10379800ED51EC110BE1AF0EEA5D0B0EEB59D8A021
:1037A800D8EF1BF0DAEF1BF0F0EF1BF0ED51EC1146
:1037B80009E1DA0EEA5D0C0EEB59D8B0E6EF1BF022
:1037C800E8EF1BF0F0EF1BF0DE0EB06FFF0EB16FED
:1037D8006BEC4EF00CEF1CF0ED51EC1109E19C0E76
:1037E800EA5D040EEB59D8B0FCEF1BF0FEEF1BF0BE
:1037F80006EF1CF0D50EB06FFF0EB16F6BEC4EF0FC
:103808000CEF1CF0D80EB06FFF0EB16F6BEC4EF0E2
:10381800000E0001E625D96E020EE721DA6EDF50B0
:10382800D8B419EF1CF01BEF1CF02CEF1CF0310E74
:10383800B06FFF0EB16F000EE625D96E020EE721BC
:10384800DA6EDF50BB6FBB51B26FB36B6BEC4EF0EF
:10385800D20E0001B06FFF0EB16F6BEC4EF03BEF74
:103868001CF0F60EB06FFE0EB16F6BEC4EF000015F
:10387800C12B090EC16543EF1CF045EF1CF0F7EFB3
:1038880017F01E0EB06FFA0EB16F6BEC4EF0000120
:10389800C22B160EC26553EF1CF055EF1CF0F5EF66
:1038A80017F082EC4FF0F28E120079EC4EF0809611
:1038B800809A0101986B0F015D6B5C6BD08EF19E55
:1038C800F180F290F286F28EF294F28A5A89010E11
:1038D8000101906F9051D8A474EF1CF076EF1CF0A2
:1038E8007AEF1CF0060E7D6E820EAF6E9005D8A49E
:1038F80080EF1CF082EF1CF085EF1CF07D6A440E0F
:10390800AF6E920ED56EAB0E0001766FF50E776F27
:10391800B7EC42F0A60E0001766FFD0E776FB7EC9C
:1039280042F0A90E0001766FF60E776FB7EC42F001
:10393800A60E0001766FFD0E776FB7EC42F082900D
:10394800DDEC40F08280010E0001E66F000EE76FAB
:10395800000EE86F000EE96FE951E811E71109E17F
:103968000A0EE65DD8A0BBEF1CF0BDEF1CF0BFEF60
:103978001CF0E4EF1CF0090E0301836F1E0E826F2A
:10398800E40EE82EFED7822FFCD7832FFAD700004B
:103998008290090E0301836F1E0E826FE40EE82EDB
:1039A800FED7822FFCD7832FFAD700008280010E22
:1039B8000001E627000EE723E823E923B0EF1CF017
:1039C8004A6AB8EC4FF0F28E000E0001736F000ED9
:1039D800726F93EC4EF00301826F82510001E66F23
:1039E800E76BE86BE96B210EE619E711E811E911BD
:1039F800D8B401EF1DF003EF1DF009EF1DF02D0EF7
:103A0800B06FF60EB16F6BEC4EF0000E0001BB6F9D
:103A1800000EBC6F000EBD6F000EBE6F33EC3AF0A7
:103A2800030100510001E66FE76BE86BE96B030ED9
:103A3800E619E711E811E911D8B425EF1DF027EFD1
:103A48001DF02DEF1DF06B0EB06FF60EB16F6BEC25
:103A58004EF0808681B433EF1DF035EF1DF098EFFE
:103A68001DF0150E0301826FC60EE82EFED7822FB9
:103A7800FCD70000010E01014827000E49234A2304
:103A88004B234B514A110BE1890E485D130E4959DE
:103A9800D8A051EF1DF053EF1DF098EF1DF0829064
:103AA800000E486F000E496F000E4A6F000E4B6FF4
:103AB800D60E0001B06FF80EB16F6BEC4EF0010E30
:103AC80001016B6F000E6A6F510E6A5D010E6B5932
:103AD800D8A071EF1DF073EF1DF075EF1DF083EFA7
:103AE8001DF06AC172F06BC173F0FF0E0001746FB4
:103AF800E4EC4BF001016A4B6B2B68EF1DF0520EA2
:103B08000301836F2B0E826F000EE82EFED7822FE3
:103B1800FCD7832FFAD70000828081A496EF1DF08E
:103B280098EF1DF091EF1DF001018A51D8A49FEF85
:103B38001DF0A1EF1DF0DAEF1DF081A4A6EF1DF036
:103B4800A8EF1DF0DAEF1DF04B514A11491109E1B8
:103B5800C90E485DD8A0B3EF1DF0B5EF1DF0DAEF40
:103B68001DF04B514A1109E1E80E485D030E495911
:103B7800D8B0C1EF1DF0C3EF1DF0DAEF1DF0500E05
:103B8800406FC30E416F000E426F000E436F000E70
:103B9800446F000E456F000E466F000E476F1A0EF9
:103BA8000001B06FF90EB16F6BEC4EF0010140519E
:103BB8004111421143114411451146114711D8B41E
:103BC800E8EF1DF0EAEF1DF058EF1EF04007000E79
:103BD800415B425B435B445B455B465B475B40C183
:103BE80072F041C173F042C174F043C175F044C131
:103BF80076F045C177F046C178F047C179F0E80E14
:103C080000017A6F030E7B6F000E7C6F000E7D6FD4
:103C1800000E7E6F000E7F6F000E806F000E816FAA
:103C280027EC43F072C082F373C083F374C084F34B
:103C380075C085F376C086F377C087F378C088F3BC
:103C480079C089F30301825183118411851186118A
:103C5800871188118911D8A434EF1EF036EF1EF0B1
:103C68003FEF1EF082A03BEF1EF03EEF1EF0828079
:103C78003FEF1EF082900101405141114211431162
:103C88004411451146114711D8A44DEF1EF04FEFCE
:103C98001EF058EF1EF0816BE90E0001B06FFA0EAE
:103CA800B16F6BEC4EF08280000E81B4010E010101
:103CB8008A6F81A462EF1EF064EF1EF06CEF1EF0B5
:103CC800000E486F000E496F000E4A6F000E4B6FD2
:103CD8008D51D8A472EF1EF074EF1EF076EF1EF02F
:103CE80055EC41F001018751D8B47DEF1EF07FEF0C
:103CF8001EF081EF1EF06FEC17F001018D51D8B462
:103D080088EF1EF08AEF1EF02EEF1DF00001DE5145
:103D1800DF11E011E111E211E311E411E511D8B46A
:103D280098EF1EF09AEF1EF02EEF1DF001018D6B3B
:103D3800F29E020E4A18D8A4A4EF1EF0A6EF1EF0B9
:103D4800A8EF1EF06FEC17F04904D8A4AEEF1EF0F0
:103D5800B0EF1EF0DFEF1EF04A50D8B4B6EF1EF0F9
:103D6800B8EF1EF0D1EF1EF0DEC0BBF0DFC0BCF034
:103D7800E0C0BDF0E1C0BEF0E2C0BFF0E3C0C0F0FB
:103D8800E4C0C1F0E5C0C2F065EC40F0FD0E0001F2
:103D9800B06FFE0EB16F6BEC4EF015EC20F0000921
:103DA800D8B4D9EF1EF0DBEF1EF0DFEF1EF0D4EC35
:103DB80034F0DDEC36F0020E4918D8A4E6EF1EF018
:103DC800E8EF1EF013EF1FF0DEC038F1DFC039F165
:103DD800E0C03AF1E1C03BF1E2C03CF1E3C03DF1A3
:103DE800E4C03EF1E5C03FF1940E0001B06FFC0E57
:103DF800B16F6BEC4EF0DEC0BBF0DFC0BCF0E0C0D2
:103E0800BDF0E1C0BEF0E2C0BFF0E3C0C0F0E4C066
:103E1800C1F0E5C0C2F0C8EC4DF0DDEC36F0040EA0
:103E28004918D8A41AEF1FF01CEF1FF04BEF1FF032
:103E380077EC26F0E806D8A424EF1FF026EF1FF051
:103E48004BEF1FF0B80E0001B06FFC0EB16F6BECBA
:103E58004EF038C1BBF039C1BCF03AC1BDF03BC12E
:103E6800BEF03CC1BFF03DC1C0F03EC1C1F03FC192
:103E7800C2F0C8EC4DF06E0E0001B06FFE0EB16FCF
:103E880048C0B2F0B36B6BEC4EF0DDEC36F0030ECD
:103E98004918D8A452EF1FF054EF1FF0B2EF1FF0EB
:103EA80065EC39F00101385139113A113B113C11D7
:103EB8003D113E113F11D8B464EF1FF066EF1FF0BB
:103EC800B2EF1FF0A60E0001B06FFC0EB16F6BECE5
:103ED8004EF038C1BBF039C1BCF03AC1BDF03BC1AE
:103EE800BEF03CC1BFF03DC1C0F03EC1C1F03FC112
:103EF800C2F0C8EC4DF0A60E0001B06FFF0EB16F16
:103F080038C1B2F039C1B3F03AC1B4F03BC1B5F031
:103F18006BEC4EF0FF0E0001B06FFE0EB16F6BEC54
:103F28004EF0050E48609BEF1FF09DEF1FF0A9EFC4
:103F38001FF09E0E0001B06FFA0EB16F48C0B2F0CC
:103F4800B36B6BEC4EF0B0EF1FF0CF0E0001B06F0B
:103F5800FF0EB16F6BEC4EF0DDEC36F0050E491834
:103F6800D8A4B9EF1FF0BBEF1FF0C4EF1FF0260E67
:103F78000001B06FFC0EB16F6BEC4EF05DEC49F0D8
:103F8800060E4918D8A4CBEF1FF0CDEF1FF0E8EFCD
:103F98001FF0130E0001B06FFC0EB16F6BEC4EF00A
:103FA8000101385139113A113B113C113D113E11B3
:103FB8003F11D8B4E2EF1FF0E4EF1FF0E8EF1FF075
:103FC8003AEC47F0DDEC36F0070E4918D8A4EFEFCD
:103FD8001FF0F1EF1FF00CEF20F0D90E0001B06FC9
:103FE800FB0EB16F6BEC4EF0E7EC46F00101385177
:103FF80039113A113B113C113D113E113F11D8B412
:1040080008EF20F00AEF20F00CEF20F0DDEC36F09E
:10401800000E476E000E466EF28E2EEF1DF003EF77
:1040280010F0DEC0BBF0DFC0BCF0E0C0BDF0E1C006
:10403800BEF0E2C0BFF0E3C0C0F0E4C0C1F0E5C02C
:10404800C2F0040ED8900001BB37BC37BD37BE376D
:10405800BF37C037C137C237E82E26EF20F0BBC0C4
:10406800C5F0BCC0C6F0BDC0C7F0BEC0C8F0BFC078
:10407800C9F0C0C0CAF0C1C0CBF0C2C0CCF020EEBD
:10408800C5F0F00EDE18C56FFF0EDE18C66FFF0E06
:10409800DE18C76FFF0EDE18C86FFF0EDE18C96F77
:1040A800FF0EDE18CA6FFF0EDE18CB6F000EDE188B
:1040B800CC6FC5C0BBF0C6C0BCF0C7C0BDF0C8C09F
:1040C800BEF0C9C0BFF0CAC0C0F0CBC0C1F0CCC000
:1040D800C2F0310E79EF20F0D890C233C133C0332B
:1040E800BF33BE33BD33BC33BB33E82E70EF20F093
:1040F800BBC0CDF0BCC0CEF0BDC0CFF0BEC0D0F0CC
:10410800BFC0D1F0C0C0D2F0C1C0D3F0C2C0D4F09B
:10411800CD39F00BF00B4D6E040EBB6FCDC0BCF06B
:10412800CEC0BDF0CFC0BEF0D0C0BFF0D1C0C0F08F
:10413800D2C0C1F0D3C0C2F0D4C0C3F0BB67A7EFF0
:1041480020F0B3EF20F0C335C333C233C133C033DB
:10415800BF33BE33BD33BC33BB2FA2EF20F0000109
:10416800BC510F0B4E6EC5C0BBF0C6C0BCF0C7C07B
:10417800BDF0C8C0BEF0C9C0BFF0CAC0C0F0CBC057
:10418800C1F0CCC0C2F0290ED3EF20F0D890C233D2
:10419800C133C033BF33BE33BD33BC33BB33E82E6A
:1041A800CAEF20F0BBC0CDF0BCC0CEF0BDC0CFF090
:1041B800BEC0D0F0BFC0D1F0C0C0D2F0C1C0D3F0F3
:1041C800C2C0D4F0040EBB6FCDC0BCF0CEC0BDF0F1
:1041D800CFC0BEF0D0C0BFF0D1C0C0F0D2C0C1F0D7
:1041E800D3C0C2F0D4C0C3F0BB67FDEF20F009EF25
:1041F80021F0C335C333C233C133C033BF33BE33F9
:10420800BD33BC33BB2FF8EF20F00001BC510F0BBE
:104218004D104D6ECD39F00BF00B4C6EC5C0BBF098
:10422800C6C0BCF0C7C0BDF0C8C0BEF0C9C0BFF0B2
:10423800CAC0C0F0CBC0C1F0CCC0C2F0210E2EEF76
:1042480021F0D890C233C133C033BF33BE33BD333E
:10425800BC33BB33E82E25EF21F0BBC0CDF0BCC08A
:10426800CEF0BDC0CFF0BEC0D0F0BFC0D1F0C0C04E
:10427800D2F0C1C0D3F0C2C0D4F0040EBB6FCDC021
:10428800BCF0CEC0BDF0CFC0BEF0D0C0BFF0D1C032
:10429800C0F0D2C0C1F0D3C0C2F0D4C0C3F0BB6775
:1042A80058EF21F064EF21F0C335C333C233C13373
:1042B800C033BF33BE33BD33BC33BB2F53EF21F004
:1042C8000001BC510F0B4C104C6ECD39F00BF00BAC
:1042D8004B6EC5C0BBF0C6C0BCF0C7C0BDF0C8C0FF
:1042E800BEF0C9C0BFF0CAC0C0F0CBC0C1F0CCC0DE
:1042F800C2F0190E89EF21F0D890C233C133C03310
:10430800BF33BE33BD33BC33BB33E82E80EF21F05F
:10431800BBC0CDF0BCC0CEF0BDC0CFF0BEC0D0F0A9
:10432800BFC0D1F0C0C0D2F0C1C0D3F0C2C0D4F079
:10433800040EBB6FCDC0BCF0CEC0BDF0CFC0BEF088
:10434800D0C0BFF0D1C0C0F0D2C0C1F0D3C0C2F05D
:10435800D4C0C3F0BB67B3EF21F0BFEF21F0C33582
:10436800C333C233C133C033BF33BE33BD33BC33B1
:10437800BB2FAEEF21F00001BC510F0B4B104B6E61
:10438800CD39F00BF00B01019D6FC5C0BBF0C6C065
:10439800BCF0C7C0BDF0C8C0BEF0C9C0BFF0CAC03D
:1043A800C0F0CBC0C1F0CCC0C2F0110EE6EF21F0D6
:1043B8000001D890C233C133C033BF33BE33BD33DD
:1043C800BC33BB33E82EDCEF21F0BBC0CDF0BCC062
:1043D800CEF0BDC0CFF0BEC0D0F0BFC0D1F0C0C0DD
:1043E800D2F0C1C0D3F0C2C0D4F0040EBB6FCDC0B0
:1043F800BCF0CEC0BDF0CFC0BEF0D0C0BFF0D1C0C1
:10440800C0F0D2C0C1F0D3C0C2F0D4C0C3F0BB6703
:1044180010EF22F01CEF22F0C335C333C233C1338F
:10442800C033BF33BE33BD33BC33BB2F0BEF22F0D9
:104438000001BC510F0B01019D119D6F0001CD3989
:10444800F00BF00B01019C6FC5C0BBF0C6C0BCF0FF
:10445800C7C0BDF0C8C0BEF0C9C0BFF0CAC0C0F078
:10446800CBC0C1F0CCC0C2F0BCC0BBF0BDC0BCF07A
:10447800BEC0BDF0BFC0BEF0C0C0BFF0C1C0C0F07C
:10448800C2C0C1F00001C26BBBC0CDF0BCC0CEF051
:10449800BDC0CFF0BEC0D0F0BFC0D1F0C0C0D2F018
:1044A800C1C0D3F0C2C0D4F0040EBB6FCDC0BCF005
:1044B800CEC0BDF0CFC0BEF0D0C0BFF0D1C0C0F0FC
:1044C800D2C0C1F0D3C0C2F0D4C0C3F0BB676FEF95
:1044D80022F07BEF22F0C335C333C233C133C0337C
:1044E800BF33BE33BD33BC33BB2F6AEF22F00001AC
:1044F800BC510F0B01019C119C6F0001CD39F00BD1
:10450800F00B01019B6FC5C0CDF0C6C0CEF0C7C08F
:10451800CFF0C8C0D0F0C9C0D1F0CAC0D2F0CBC06B
:10452800D3F0CCC0D4F0040E0001BB6FCDC0BCF0FA
:10453800CEC0BDF0CFC0BEF0D0C0BFF0D1C0C0F07B
:10454800D2C0C1F0D3C0C2F0D4C0C3F0BB67AFEFD4
:1045580022F0BBEF22F0C335C333C233C133C033BB
:10456800BF33BE33BD33BC33BB2FAAEF22F00001EB
:10457800BC510F0B01019B119B6F36EC4CF00001F5
:10458800C46F4A50D8B4CBEF22F0CDEF22F069EFD8
:1045980023F0C451D8B4D3EF22F0D5EF22F0DDEFE9
:1045A80022F0880EB06FFF0EB16F6BEC4EF0E3EFA8
:1045B80022F0970EB06FFF0EB16F6BEC4EF0800ECD
:1045C8000001B06FFF0EB16F4EC0B2F0B36B6BEC71
:1045D8004EF0E40E0001B06FFF0EB16F6BEC4EF0C1
:1045E800800E0001B06FFF0EB16F4DC0B2F0B36B1B
:1045F8006BEC4EF0E40E0001B06FFF0EB16F6BEC88
:104608004EF0800E0001B06FFF0EB16F4CC0B2F0DB
:10461800B36B6BEC4EF0E40E0001B06FFF0EB16FA0
:104628006BEC4EF0800E0001B06FFF0EB16F4BC007
:10463800B2F0B36B6BEC4EF0E40E0001B06FFF0EFE
:10464800B16F6BEC4EF0800E0001B06FFF0EB16FD2
:104658009DC1B2F0B36B6BEC4EF0E40E0001B06F8D
:10466800FF0EB16F6BEC4EF0800E0001B06FFF0EC5
:10467800B16F9CC1B2F0B36B6BEC4EF0E40E00016D
:10468800B06FFF0EB16F6BEC4EF0800E0001B06F93
:10469800FF0EB16F9BC1B2F0B36B6BEC4EF0CC0E5A
:1046A8000001B06FFF0EB16F6BEC4EF00001C4510A
:1046B800D8A461EF23F063EF23F069EF23F01E0E17
:1046C800B06FFA0EB16F6BEC4EF00001C4511200DE
:1046D800D890000172357A6F73357B6F74357C6FB3
:1046E80075357D6F76357E6F77357F6F7835806F5E
:1046F8007935816FAA0E7A15826FAA0E7B15836FA2
:10470800AA0E7C15846FAA0E7D15856FAA0E7E15DC
:10471800866FAA0E7F15876FAA0E8015886FAA0E5E
:104728008115896F72C08AF073C08BF074C08CF0E9
:1047380075C08DF076C08EF077C08FF078C090F09D
:1047480079C091F0D890913390338F338E338D3375
:104758008C338B338A33550E8A15926F550E8B1511
:10476800936F550E8C15946F550E8D15956F550ECC
:104778008E15966F550E8F15976F550E9015986F6D
:10478800550E9115996F82519211726F8351931141
:10479800736F84519411746F85519511756F86519B
:1047A8009611766F87519711776F88519811786FA6
:1047B80089519911796F72C07AF073C07BF074C017
:1047C8007CF075C07DF076C07EF077C07FF078C051
:1047D80080F079C081F0020ED8907A377B377C3729
:1047E8007D377E377F3780378137E82EF0EF23F02B
:1047F800CC0E7A15826FCC0E7B15836FCC0E7C1590
:10480800846FCC0E7D15856FCC0E7E15866FCC0E11
:104818007F15876FCC0E8015886FCC0E8115896F38
:1048280072C08AF073C08BF074C08CF075C08DF0C4
:1048380076C08EF077C08FF078C090F079C091F094
:10484800030E30EF24F0D890913390338F338E33AA
:104858008D338C338B338A33E82E27EF24F0330ED5
:104868008A15926F330E8B15936F330E8C15946FD8
:10487800330E8D15956F330E8E15966F330E8F157B
:10488800976F330E9015986F330E9115996F82516B
:104898009211726F83519311736F84519411746FD5
:1048A80085519511756F86519611766F87519711BD
:1048B800776F88519811786F89519911796F72C003
:1048C8007AF073C07BF074C07CF075C07DF076C060
:1048D8007EF077C07FF078C080F079C081F0040E58
:1048E800D8907A377B377C377D377E377F3780376C
:1048F8008137E82E74EF24F0F00E7A15826FF00EEF
:104908007B15836FF00E7C15846FF00E7D15856F17
:10491800F00E7E15866FF00E7F15876FF00E8015EE
:10492800886FF00E8115896F72C08AF073C08BF0A2
:1049380074C08CF075C08DF076C08EF077C08FF0A3
:1049480078C090F079C091F0050EB4EF24F0D890BB
:10495800913390338F338E338D338C338B338A334B
:10496800E82EABEF24F00F0E8A15926F0F0E8B1501
:10497800936F0F0E8C15946F0F0E8D15956F0F0E8C
:104988008E15966F0F0E8F15976F0F0E9015986FE7
:104998000F0E9115996F82519211726F8351931175
:1049A800736F84519411746F85519511756F865189
:1049B8009611766F87519711776F88519811786F94
:1049C80089519911796F72C07BF073C07CF074C003
:1049D8007DF075C07EF076C07FF077C080F078C03B
:1049E80081F07A6B000E7A15826FFF0E7B15836F4C
:1049F800000E7C15846FFF0E7D15856F000E7E15E9
:104A0800866FFF0E7F15876F000E8015886FFF0E6B
:104A18008115896F72C08AF073C08BF074C08CF0F6
:104A280075C08DF076C08EF077C08FF078C090F0AA
:104A380079C091F08BC08AF08CC08BF08DC08CF05F
:104A48008EC08DF08FC08EF090C08FF091C090F026
:104A5800916BFF0E8A15926F000E8B15936FFF0EE8
:104A68008C15946F000E8D15956FFF0E8E15966F31
:104A7800000E8F15976FFF0E9015986F000E911509
:104A8800996F82519211726F83519311736F845190
:104A98009411746F85519511756F86519611766FC3
:104AA80087519711776F88519811786F89519911AB
:104AB800796F72C07AF073C07BF074C07CF075C0F7
:104AC8007DF076C07EF077C07FF078C080F079C046
:104AD80081F07FC081F07EC080F07DC07FF07CC017
:104AE8007EF07BC07DF07AC07CF07B6B7A6B000E29
:104AF8007A15826F000E7B15836FFF0E7C15846F0D
:104B0800FF0E7D15856F000E7E15866F000E7F15D2
:104B1800876FFF0E8015886FFF0E8115896F72C031
:104B28008AF073C08BF074C08CF075C08DF076C0BD
:104B38008EF077C08FF078C090F079C091F0110EA8
:104B4800AFEF25F0D890913390338F338E338D3378
:104B58008C338B338A33E82EA6EF25F0FF0E8A15A7
:104B6800926FFF0E8B15936F000E8C15946F000ECD
:104B78008D15956FFF0E8E15966FFF0E8F15976F1B
:104B8800000E9015986F000E9115996F8251921131
:104B9800726F83519311736F84519411746F85519F
:104BA8009511756F86519611766F87519711776FAA
:104BB80088519811786F89519911796F72C07AF07C
:104BC80073C07BF074C07CF075C07DF076C07EF059
:104BD80077C07FF078C080F079C081F0200ED8903F
:104BE8007A377B377C377D377E377F378037813719
:104BF800E82EF3EF25F0000E7A15826F000E7B1574
:104C0800836F000E7C15846F000E7D15856FFF0E77
:104C18007E15866FFF0E7F15876FFF0E8015886FD4
:104C2800FF0E8115896F72C08AF073C08BF074C053
:104C38008CF075C08DF076C08EF077C08FF078C09C
:104C480090F079C091F0210E33EF26F0D89091338F
:104C580090338F338E338D338C338B338A33E82EF6
:104C68002AEF26F0FF0E8A15926FFF0E8B15936FB1
:104C7800FF0E8C15946FFF0E8D15956F000E8E1517
:104C8800966F000E8F15976F000E9015986F000E97
:104C98009115996F82519211726F83519311736FAD
:104CA80084519411746F85519511756F86519611C1
:104CB800766F87519711776F88519811786F89515E
:104CC8009911796F72C072F073C073F074C074F088
:104CD80075C075F076C076F077C077F078C078F058
:104CE80079C079F012004A04D8A47DEF26F07FEF4E
:104CF80026F098EF26F0DEC0BBF0DFC0BCF0E0C0C5
:104D0800BDF0E1C0BEF0E2C0BFF0E3C0C0F0E4C057
:104D1800C1F0E5C0C2F065EC40F01E0E0001B06FB6
:104D2800FA0EB16F6BEC4EF0E4C04EF0E3C04DF0FC
:104D3800DEC0D3F0DFC0D4F0E0C0D5F0E1C0D6F0DB
:104D4800E2C0D7F0E3C0D8F0E4C0D9F0E5C0DAF0AB
:104D5800210EB9EF26F00001D890DA33D933D833D1
:104D6800D733D633D533D433D333E82EAFEF26F049
:104D7800D3514C6EDEC0D3F0DFC0D4F0E0C0D5F024
:104D8800E1C0D6F0E2C0D7F0E3C0D8F0E4C0D9F073
:104D9800E5C0DAF0190EDAEF26F0D890DA33D93315
:104DA800D833D733D633D533D433D333E82ED1EFF2
:104DB80026F0D3514B6EDEC0D3F0DFC0D4F0E0C094
:104DC800D5F0E1C0D6F0E2C0D7F0E3C0D8F0E4C037
:104DD800D9F0E5C0DAF0110EFBEF26F0D890DA33FF
:104DE800D933D833D733D633D533D433D333E82E66
:104DF800F2EF26F0D35101019D6FDEC0D3F0DFC082
:104E0800D4F0E0C0D5F0E1C0D6F0E2C0D7F0E3C0FE
:104E1800D8F0E4C0D9F0E5C0DAF0D4C0D3F0D5C0FA
:104E2800D4F0D6C0D5F0D7C0D6F0D8C0D7F0D9C006
:104E3800D8F0DAC0D9F00001DA6BD35101019C6FC8
:104E4800DEC09BF19B519C199B6F9C519D199C6FD7
:104E58009D514B189D6F4B504C184B6E4C504D1834
:104E68004C6E4D504E184D6E4A04D8A43EEF27F0B4
:104E780040EF27F08DEF27F0CD0E0001B06FFD0E4B
:104E8800B16F6BEC4EF07D0E0001B06FFF0EB16F8D
:104E98004EC0B2F0B36B6BEC4EF0480E0001B06F31
:104EA800FF0EB16F4DC0B2F0B36B6BEC4EF04F0E0E
:104EB8000001B06FFF0EB16F4CC0B2F0B36B6BEC7A
:104EC8004EF0560E0001B06FFF0EB16F4BC0B2F03E
:104ED800B36B6BEC4EF05D0E0001B06FFF0EB16F5F
:104EE8009DC1B2F0B36B6BEC4EF0640E0001B06F75
:104EF800FF0EB16F9CC1B2F0B36B6BEC4EF0E40ED9
:104F08000001B06FFE0EB16F9BC1B2F0B36B6BECDA
:104F18004EF04E380F0B4E180001DB6F4D380F0B5B
:104F2800DB194D18DB6F4C380F0BDB194C18DB6F96
:104F38004B380F0BDB194B18DB6F01019D390F0B39
:104F48000001DB1901019D190001DB6F01019C398A
:104F58000F0B0001DB1901019C190001DB6F010136
:104F68009B390F0B0001DB1901019B190001DB6F55
:104F7800DB510F0BDB6F4D380F0B0F0B486E080E14
:104F88004818D8B4CAEF27F0CDEF27F0010ECEEFBE
:104F980027F0000E0101816F4C500001D46FD36BD4
:104FA8004B50D3250101666F000E0001D421010189
:104FB800676F9DC1D3F00001D46BD56BD66BD76BEF
:104FC800D86BD96BDA6BD8C0DAF0D7C0D9F0D6C0B5
:104FD800D8F0D5C0D7F0D4C0D6F0D3C0D5F0D46BB4
:104FE800D36BD3C038F1D4C039F1D5C03AF1D6C0AB
:104FF8003BF1D7C03CF1D8C03DF1D9C03EF1DAC091
:105008003FF19CC1D3F0D46BD56BD66BD76BD86B03
:10501800D96BDA6BD9C0DAF0D8C0D9F0D7C0D8F0DC
:10502800D6C0D7F0D5C0D6F0D4C0D5F0D3C0D4F010
:10503800D36B010138510001D3110101386F395187
:105048000001D4110101396F3A510001D511010154
:105058003A6F3B510001D61101013B6F3C510001F1
:10506800D71101013C6F3D510001D81101013D6F7D
:105078003E510001D91101013E6F3F510001DA1183
:1050880001013F6F9B513825386F000E3921396F68
:10509800000E3A213A6F000E3B213B6F000E3C2177
:1050A8003C6F000E3D213D6F000E3E213E6F000E0D
:1050B8003F213F6F4A04D8A464EF28F066EF28F038
:1050C800F9EF28F0090E0001B06FFE0EB16FDBC0DA
:1050D800B2F0B36B6BEC4EF00001DB51D8B477EF54
:1050E80028F079EF28F07FEF28F0390EB06FFF0E27
:1050F800B16F6BEC4EF01E0E0001B06FFA0EB16F7F
:105108006BEC4EF0150E0001B06FFE0EB16F4EC085
:10511800B2F0B36B6BEC4EF04E50F00BA00AD8B463
:1051280098EF28F09AEF28F0A1EF28F0830E0001FD
:10513800B06FFE0EB16F6BEC4EF01E0E0001B06F3B
:10514800FA0EB16F6BEC4EF01F0E0001B06FFD0E42
:10515800B16F4EC0D3F00F0ED317D351B26FB36BEC
:105168006BEC4EF08A0E0001B06FFD0EB16F48C0B7
:10517800B2F0B36B6BEC4EF0ED0E0001B06FFE0EAB
:10518800B16F4DC0D3F00F0ED317D351B26FB36BBD
:105198006BEC4EF0E50E0001B06FFD0EB16F66C10D
:1051A800B2F067C1B3F06BEC4EF0BF0E0001B06F08
:1051B800FE0EB16F6BEC4EF038C1BBF039C1BCF0DC
:1051C8003AC1BDF03BC1BEF03CC1BFF03DC1C0F02B
:1051D8003EC1C1F03FC1C2F0C8EC4DF01E0E000147
:1051E800B06FFA0EB16F6BEC4EF00001DB51D8B422
:1051F80000EF29F003EF29F0010E04EF29F0000E6B
:105208001200000E0001E66F000EE76F000EE86F57
:10521800000EE96FE6C0C7F0E7C0C8F0D890C737FE
:10522800C837D890C737C837000EC725726F010E28
:10523800C821736F93EC4EF00001C96FC951D36F49
:10524800D46BD56BD66BE6C0C7F0E7C0C8F0D89072
:10525800C737C837D890C737C837010EC725726F08
:10526800010EC821736F93EC4EF00001C96FC9C0DD
:10527800CAF0CB6BCC6BCD6BCCC0CDF0CBC0CCF037
:10528800CAC0CBF0CA6BD351CA25D36FD451CB2136
:10529800D46FD551CC21D56FD651CD21D66FE6C06C
:1052A800C7F0E7C0C8F0D890C737C837D890C73715
:1052B800C837020EC725726F010EC821736F93ECB1
:1052C8004EF00001C96FC9C0CAF0CB6BCC6BCD6B77
:1052D800CBC0CDF0CAC0CCF0CB6BCA6BD351CA25BA
:1052E800D36FD451CB21D46FD551CC21D56FD651A2
:1052F800CD21D66FE6C0C7F0E7C0C8F0D890C73751
:10530800C837D890C737C837030EC725726F010E44
:10531800C821736F93EC4EF00001C96FC9C0CAF081
:10532800CB6BCC6BCD6BCAC0CDF0CC6BCB6BCA6BE7
:10533800D351CA25D36FD451CB21D46FD551CC21A9
:10534800D56FD651CD21D66F010EE627000EE72383
:10535800E823E923D3290CE1D4290AE1D52908E176
:10536800D629D8B4BAEF29F0BCEF29F0C9EF29F053
:10537800E951E811E71109E1140EE65DD8A0C7EF7D
:1053880029F0C9EF29F00EEF29F0E607000EE75BD8
:10539800E85BE95BE951E811E71109E1150EE65D03
:1053A800D8A0D9EF29F0DBEF29F0E3EF29F00F0EB1
:1053B800B06FFD0EB16F6BEC4EF075EF2BF0E6C0E1
:1053C800C7F0E7C0C8F0D890C737C837D890C737F4
:1053D800C837000EC725726F010EC821736F38C118
:1053E80074F0E4EC4BF0E6C0C7F0E7C0C8F0000189
:1053F800D890C737C837D890C737C837010EC725E0
:10540800726F010EC821736F38C1C9F039C1CAF073
:105418003AC1CBF03BC1CCF03CC1CDF03DC1CEF0A0
:105428003EC1CFF03FC1D0F0CAC0C9F0CBC0CAF06E
:10543800CCC0CBF0CDC0CCF0CEC0CDF0CFC0CEF03C
:10544800D0C0CFF0D06BC951746FE4EC4BF0E6C01C
:10545800C7F0E7C0C8F00001D890C737C837D89060
:10546800C737C837020EC725726F010EC821736F80
:1054780038C1C9F039C1CAF03AC1CBF03BC1CCF050
:105488003CC1CDF03DC1CEF03EC1CFF03FC1D0F020
:10549800110E58EF2AF0D890D033CF33CE33CD3316
:1054A800CC33CB33CA33C933E82E4FEF2AF0C95176
:1054B800746FE4EC4BF04904D8A465EF2AF067EF69
:1054C8002AF0A3EF2AF0E6C0C7F0E7C0C8F0000151
:1054D800D890C737C837D890C737C837030EC725FD
:1054E800726F010EC821736F48C0C9F0C93BF00E36
:1054F800C91738C1CAF039C1CBF03AC1CCF03BC1A9
:10550800CDF03CC1CEF03DC1CFF03EC1D0F03FC19F
:10551800D1F0190E99EF2AF0D890D133D033CF3388
:10552800CE33CD33CC33CB33CA33E82E90EF2AF0C9
:10553800CA51C911746FE4EC4BF0EDEF2AF0030E79
:105548004918D8A4AAEF2AF0ACEF2AF0AEEF2AF057
:1055580067EF2AF0040E4918D8A4B5EF2AF0B7EF80
:105568002AF0B9EF2AF067EF2AF0E6C0C7F0E7C0E3
:10557800C8F00001D890C737C837D890C737C837A0
:10558800030EC725726F010EC821736F38C1C9F0A9
:1055980039C1CAF03AC1CBF03BC1CCF03CC1CDF027
:1055A8003DC1CEF03EC1CFF03FC1D0F0190EE6EFBD
:1055B8002AF0D890D033CF33CE33CD33CC33CB335E
:1055C800CA33C933E82EDDEF2AF0C951746FE4EC11
:1055D8004BF0980E0001B06FFD0EB16F6BEC4EF002
:1055E80038C1BBF039C1BCF03AC1BDF03BC1BEF017
:1055F8003CC1BFF03DC1C0F03EC1C1F03FC1C2F0E7
:10560800C8EC4DF0210E0001B06FFE0EB16F6BECCF
:105618004EF0000E0001E66F000EE76F000EE86F17
:10562800000EE96FE951E811E71109E10A0EE65D9C
:10563800D8A021EF2BF023EF2BF025EF2BF048EF2C
:105648002BF0050E0001C86F0F0EC76FF10EE82E84
:10565800FED7C72FFCD7C82FFAD78290050E0001B6
:10566800C86F0F0EC76FF10EE82EFED7C72FFCD7F5
:10567800C82FFAD78280010E0001E627000EE72323
:10568800E823E92316EF2BF038C174F039C175F01F
:105698003AC176F03BC177F09DEC33F00001D26F50
:1056A800D251D8B45AEF2BF05CEF2BF068EF2BF007
:1056B800D251020D000EF324D96E010EF420DA6ED9
:1056C80066C1DEFF67C1DDFF520E0001C86F2B0EF9
:1056D800C76F000EE82EFED7C72FFCD7C82FFAD702
:1056E8000000120000019E51D96EDA6ADECFF6FF83
:1056F800DDCFF7FFF86A0800F550250AD8A487EF30
:105708002BF089EF2BF02EEF2DF09E51D96EDA6A2F
:10571800DE2A000EDD22000E0101596F000E586FBF
:1057280058C180F15A695B690001A26BBBEF2BF08D
:105738000101808300019E51D96EDA6ADE2A000ECB
:10574800DD22BBEF2BF0010EA26FBBEF2BF09E51B9
:10575800D96EDA6ADECFF6FFDDCFF7FFF86A080008
:10576800F550300AD8B49CEF2BF0A7EF2BF0A251DC
:10577800D8B4C1EF2BF0C3EF2BF0ABEF2BF09EC0EA
:1057880072F09FC073F0DEEC45F072C058F173C040
:1057980059F1010159BFD5EF2BF0D3EF2BF0DAEF18
:1057A8002BF08081586D591FD8B0592B00019E519C
:1057B800D96EDA6ADECFA8F0DDCFA9F0A8C0F6FF6F
:1057C800A9C0F7FFF86A0800F5CFA7F0F7EF2BF0AC
:1057D800A84BA92B12EF2CF0690EA76F12EF2CF033
:1057E800A76B12EF2CF0A751580AD8B4F0EF2BF0A2
:1057F8003C0AD8B4F0EF2BF00D0AD8B4F0EF2BF038
:10580800050AD8B4ECEF2BF0190AD8B4F0EF2BF056
:105818000D0AD8B4F0EF2BF0F4EF2BF0A8C0F6FF88
:10582800A9C0F7FFF86A0800F550640AD8B41FEF5A
:105838002CF021EF2CF057EF2CF0A8C0F6FFA9C0F0
:10584800F7FFF86A0800F550690AD8A42EEF2CF083
:1058580030EF2CF07DEF2CF057EF2CF09F51D96EE4
:10586800DA6ADF50DF2ADF2AD96EDA6ADECFA3F0E0
:10587800DDCFA4F0000EA4BFFF0EA56FA66F62EFE8
:105888002CF09F51D96EDA6A040EDF26DF5CD96EE0
:10589800DA6ADECFA3F0DECFA4F0DECFA5F0DECF4C
:1058A800A6F062EF2CF0A751690AD8B432EF2CF0B9
:1058B800050AD8B445EF2CF062EF2CF0010EA825AC
:1058C800A06F000EA921A16F9E51D96EDA6AA0C0FF
:1058D800DEFFA1C0DDFF9DC08AF0A3C08BF0A4C08D
:1058E8008CF0A5C08DF0A6C08EF0C0EC37F040EF6C
:1058F8002DF0A8C0F6FFA9C0F7FFF86A0800F55018
:10590800780AD8B48AEF2CF08CEF2CF0D2EF2CF078
:10591800A8C0F6FFA9C0F7FFF86A0800F550580AB2
:10592800D8B499EF2CF09BEF2CF0D2EF2CF0A8C054
:10593800F6FFA9C0F7FFF86A0800F550750AD8A461
:10594800A8EF2CF0AAEF2CF025EF2DF0D2EF2CF0D9
:105958009F51D96EDA6ADF50DF2ADF2AD96EDA6AF8
:10596800DECFA0F0DDCFA1F0A0C0A3F0A1C0A4F0CD
:10597800A56BA66BDDEF2CF09F51D96EDA6A040E89
:10598800DF26DF5CD96EDA6ADECFA3F0DECFA4F0C3
:10599800DECFA5F0DECFA6F0DDEF2CF0A751690A27
:1059A800D8B4ACEF2CF0050AD8B4C0EF2CF0DDEF7A
:1059B8002CF0010EA825A06F000EA921A16F9E5101
:1059C800D96EDA6AA0C0DEFFA1C0DDFF10EF2DF0AE
:1059D8009DC08AF0A3C08BF0A4C08CF0A5C08DF048
:1059E800A6C08EF0B5EC3DF040EF2DF09DC08AF0DA
:1059F800A3C08BF0A4C08CF0A5C08DF0A6C08EF01B
:105A0800A8C0F6FFA9C0F7FFF86A0800F5CF8FF025
:105A180069EC3CF040EF2DF0A8C0F6FFA9C0F7FFF5
:105A2800F86A0800F550580AD8B4FAEF2CF02D0A95
:105A3800D8B4ECEF2CF00D0AD8B4FAEF2CF025EF1F
:105A48002DF000019E51D96EDA6ADE2A000EDD22A1
:105A580040EF2DF09E51D96EDA6ADECFF6FFDDCF2A
:105A6800F7FFF86A0800F550746F756B9DC076F003
:105A780023EC45F025EF2DF012002D50D96EDA6A8F
:105A8800DECFF6FFDDCFF7FFF86A0800F550250AEC
:105A9800D8A451EF2DF053EF2DF0F4EF2EF02D5048
:105AA800D96EDA6ADE2A000EDD22000E0101596F76
:105AB800000E586F58C180F15A695B69316A83EFEB
:105AC8002DF0010180832D50D96EDA6ADE2A000E8E
:105AD800DD2283EF2DF0010E316E83EF2DF02D5076
