:040000008FEF04F08A
:100008005382E1CF64F0E2CF65F0D9CF66F0DACF62
:1000180067F0F3CF68F0F4CF69F0F6CF6AF0F7CF66
:100028006BF0F8CF6CF0F5CF6DF0F2A61EEF00F094
:1000380020EF00F079EF04F0F2A025EF00F027EFB1
:1000480000F079EF04F08150D650D7CF60F000016E
:10005800616B626B636B62C063F061C062F060C029
:1000680061F0606B6025E76F000E6121E86F000E9C
:100078006221E96F000E6321EA6FD76AD66A030E20
:10008800ED19D8A44AEF00F04CEF00F06CEF00F047
:10009800EA51E9110BE12D0EE75D010EE859D8A0F0
:1000A80058EF00F05AEF00F078EF04F0700E3F6E52
:1000B800FF0E406EE7C041F0E8C042F0E9C043F0EF
:1000C800EAC044F0D4EC31F078EF04F078EF04F0B3
:1000D800484A492A4B50D8A474EF00F076EF00F054
:1000E800C5EF00F0EA51E9110BE1790EE75D920ED8
:1000F800E859D8A082EF00F084EF00F0C5EF00F0D7
:10010800EA51E91109E1A80EE75D940EE859D8B063
:1001180090EF00F092EF00F0C5EF00F0000E496E8E
:10012800010E486E010E01015C6FE7C03CF1E8C0AA
:100138003DF1020E0001ED19D8A4A5EF00F0A7EFDC
:1001480000F0B5EF00F06C0E3F6EFE0E406EE7C09B
:1001580041F0E8C042F0E9C043F0EAC044F0D4EC12
:1001680031F0010E4B6E010E0001EC6F20EED7F05E
:10017800070EDE6AE806FDE2010E01015B6F78EF0B
:1001880004F04B50D8A4CBEF00F0CDEF00F017EF00
:1001980001F0EA51E9110BE1330EE75D730EE859FE
:1001A800D8A0D9EF00F0DBEF00F017EF01F0EA512B
:1001B800E91109E1C20EE75D740EE859D8B0E7EF1E
:1001C80000F0E9EF00F017EF01F0000E496E010EA4
:1001D800486E020EEC6FD8904834D96E4934DA6E06
:1001E800820ED926050EDA22E7C0DEFFE8C0DDFF61
:1001F800020EED19D8A403EF01F005EF01F013EF9B
:1002080001F0C80E3F6EFE0E406EE7C041F0E8C038
:1002180042F0E9C043F0EAC044F0D4EC31F0010EFA
:100228004B6EBAEF00F0020EEC19D8A41EEF01F0E5
:1002380020EF01F033EF02F04B50D8B426EF01F075
:1002480028EF01F033EF02F0EA51E9110BE1570E04
:10025800E75D040EE859D8A034EF01F036EF01F05D
:10026800A9EF01F0EA51E91109E1AA0EE75D050ECF
:10027800E859D8B042EF01F044EF01F0A9EF01F0DE
:10028800D890D735D76FD835D86FD935D96FDA35F3
:10029800DA6FDB35DB6FDC35DC6FDD35DD6FDE35E6
:1002A800DE6F010ED711D76FD851D86FD951D96FDA
:1002B800DA51DA6FDB51DB6FDC51DC6FDD51DD6F5A
:1002C800DE51DE6F49BE74EF01F0495007E1960E2A
:1002D800485CD8B072EF01F074EF01F088EF01F0DC
:1002E800D8904834D96E4934DA6E820ED926050E74
:1002F800DA22E7C0DEFFE8C0DDFF000E4824D96E31
:10030800020E4920DA6EDF6A1A0E48184910D8A47E
:1003180090EF01F092EF01F078EF04F0E1EC31F0AA
:1003280078EF04F0010ED711D76FD851D86FD95193
:10033800D96FDA51DA6FDB51DB6FDC51DC6FDD51DD
:10034800DD6FDE51DE6F78EF04F0EA51E9110BE161
:10035800D70EE75D010EE859D8A0B5EF01F0B7EF69
:1003680001F018EF02F0EA51E91109E12A0EE75D00
:10037800030EE859D8B0C3EF01F0C5EF01F018EF4C
:1003880002F0D890D735D76FD835D86FD935D96F0F
:10039800DA35DA6FDB35DB6FDC35DC6FDD35DD6FE9
:1003A800DE35DE6F49BEE4EF01F0495007E1960EF5
:1003B800485CD8B0E2EF01F0E4EF01F0F8EF01F0AB
:1003C800D8904834D96E4934DA6E820ED926050E93
:1003D800DA22E7C0DEFFE8C0DDFF000E4824D96E50
:1003E800020E4920DA6EDF6A1A0E48184910D8A49E
:1003F80000EF02F002EF02F078EF04F092EF01F064
:10040800D8900001D735D76FD835D86FD935D96F7F
:10041800DA35DA6FDB35DB6FDC35DC6FDD35DD6F68
:10042800DE35DE6F78EF04F08FEC32F048C036F13D
:1004380049C037F10001ED05D8A425EF02F027EFF8
:1004480002F078EF04F0600E3F6EFF0E406E48C079
:1004580041F049C042F0D4EC31F078EF04F0EC05FB
:10046800D8A439EF02F03BEF02F078EF04F0EA513C
:10047800E9110BE18C0EE75D0A0EE859D8A047EFA9
:1004880002F049EF02F04AEF03F0EA51E91109E1FD
:10049800BB0EE75D0C0EE859D8B055EF02F057EFE8
:1004A80002F04AEF03F04B50D8A45DEF02F05FEF83
:1004B80002F061EF02F078EF04F06C0E4818491072
:1004C800D8A469EF02F06BEF02F098EF02F0010197
:1004D8005C6B5B6BD8904834D96E4934DA6E820E07
:1004E800D926050EDA22E7C0DEFFE8C0DDFF000EE0
:1004F8004824D96E020E4920DA6EDF6A48C036F108
:1005080049C037F14B6A5C6B596B5B6B6C0E4818D2
:100518004910D8A492EF02F094EF02F078EF04F0BB
:10052800010E5D6F78EF04F0020E48184910D8B438
:10053800A0EF02F0A2EF02F0ACEF02F0030E4818B1
:100548004910D8A4AAEF02F0ACEF02F00CEF03F0C8
:10055800020E48184910D8A4B4EF02F0B6EF02F022
:10056800BCEF02F0E7C03AF1E8C03BF178EF04F0E5
:10057800030E48184910D8A4C4EF02F0C6EF02F0E1
:100588000CEF03F0D8904834D96E4934DA6E7E0EF9
:10059800D926050EDA223CC1DEFF3DC1DDFFFE0E85
:1005A8004824D96E010E4920DA6EDF6AD8904834A3
:1005B800D96E4934DA6E800ED926050EDA223AC190
:1005C800DEFF3BC1DDFFFF0E4824D96E010E492036
:1005D800DA6EDF6AD8904834D96E4934DA6E820E02
:1005E800D926050EDA22E7C0DEFFE8C0DDFF000EDF
:1005F8004824D96E020E4920DA6EDF6A010E010125
:10060800596F000E396F000E386F5B6B78EF04F08E
:1006180049BE1AEF03F0495007E16C0E485CD8B0A8
:1006280018EF03F01AEF03F02FEF03F0D8904834D7
:10063800D96E4934DA6E820ED926050EDA22E7C061
:10064800DEFFE8C0DDFF000E4824D96E020E492007
:10065800DA6E030EDF6E8FEC32F048C036F149C017
:1006680037F10001ED05D8A43CEF03F03EEF03F0AD
:1006780078EF04F0800E3F6EFF0E406E48C041F0E8
:1006880049C042F0D4EC31F078EF04F0010159513F
:10069800D8B451EF03F053EF03F078EF04F0000102
:1006A800EA51E9110BE1930EE75D060EE859D8A06F
:1006B80060EF03F062EF03F0E3EF03F0EA51E911B2
:1006C80009E1C20EE75D080EE859D8B06EEF03F0F5
:1006D80070EF03F0E3EF03F049BE7EEF03F04950FB
:1006E80007E1960E485CD8B07CEF03F07EEF03F08C
:1006F80092EF03F0D8904834D96E4934DA6E820EFE
:10070800D926050EDA22E7C0DEFFE8C0DDFF000EBD
:100718004824D96E020E4920DA6EDF6A48B097EF96
:1007280003F099EF03F09DEF03F0010E4C6E78EFA4
:1007380004F04C50D8A4A3EF03F0A5EF03F0BCEFEE
:1007480003F00101384B392BD8900001D735D76F0A
:10075800D835D86FD935D96FDA35DA6FDB35DB6F35
:10076800DC35DC6FDD35DD6FDE35DE6F96EF01F0F1
:10077800000E496E000E486E8FEC32F00001ED0558
:10078800D8A4C9EF03F0CBEF03F06AEF00F0000E36
:100798004824D96E020E4920DA6E020EDF6EFE0E74
:1007A8003F6EFE0E406EE7C041F0E8C042F0E9C07F
:1007B80043F0EAC044F0D4EC31F078EF04F0EA51A9
:1007C800E9110BE1A70EE75D020EE859D8A0EFEF9B
:1007D80003F0F1EF03F05FEF04F0EA51E91109E1EA
:1007E800D60EE75D040EE859D8B0FDEF03F0FFEF31
:1007F80003F05FEF04F049BE0DEF04F0495007E144
:10080800960E485CD8B00BEF04F00DEF04F021EF22
:1008180004F0D8904834D96E4934DA6E820ED9265D
:10082800050EDA22E7C0DEFFE8C0DDFF000E48242F
:10083800D96E020E4920DA6EDF6A48B026EF04F05E
:1008480028EF04F02BEF04F04C6A78EF04F04C0426
:10085800D8A431EF04F033EF04F038EF04F00101CD
:10086800384B392B04EF02F0000E496E000E486E2B
:100878008FEC32F00001ED05D8A445EF04F047EF06
:1008880004F06AEF00F0000E4824D96E020E4920E9
:10089800DA6E030EDF6EBD0E3F6EFE0E406EE7C0D1
:1008A80041F0E8C042F0E9C043F0EAC044F0D4ECBB
:1008B80031F078EF04F08FEC32F048C036F149C0DF
:1008C80037F10001ED05D8A46CEF04F06EEF04F0E9
:1008D8006AEF00F0680E3F6EFF0E406E48C041F0B0
:1008E80049C042F0D4EC31F0F2906DC0F5FF6CC015
:1008F800F8FF6BC0F7FF6AC0F6FF69C0F4FF68C075
:10090800F3FF67C0DAFF66C0D9FF65C0E2FF64C0C5
:10091800E1FF5392110060EF2CF0C5C06EF0C6C025
:100928006FF0F50E0001706FFF0E716F38EC2EF04E
:1009380000016E516F11D8A4A4EF04F0A6EF04F0E3
:10094800AAEF04F083EC21F089EF0BF0C5C06EF03C
:10095800C6C06FF0E30E706FFF0E716F38EC2EF0AB
:1009680000016E516F11D8A4BCEF04F0BEEF04F083
:1009780011EF05F0ED2B030EED65C5EF04F0C7EFA1
:1009880004F0C8EF04F0ED6B260EAC6FFF0EAD6FF0
:10099800EDC0AEF0AF6BB9EC31F00001ED51D8A469
:1009A800D8EF04F0DAEF04F0E0EF04F01A0EAC6FC1
:1009B800FE0EAD6FB9EC31F00001ED05D8A4E7EFFC
:1009C80004F0E9EF04F0EFEF04F0F20EAC6FFC0E68
:1009D800AD6FB9EC31F0020E0001ED19D8A4F7EFB4
:1009E80004F0F9EF04F0FFEF04F0950EAC6FFD0E84
:1009F800AD6FB9EC31F0030E0001ED19D8A407EF83
:100A080005F009EF05F089EF0BF09B0EAC6FFA0EBD
:100A1800AD6FB9EC31F089EF0BF0C5C06EF0C6C010
:100A28006FF0E50E706FFF0E716F38EC2EF000015D
:100A38006E516F11D8A423EF05F025EF05F06DEF87
:100A480005F0EB2B020EEB19D8A42DEF05F02FEFD4
:100A580005F030EF05F0EB6B950EAC6FFC0EAD6F4B
:100A6800EB51040DE30EF324D96E010EF420DA6E77
:100A7800DECFAEF0DECFAFF0DECFB0F0DECFB1F03C
:100A8800B9EC31F00001EB51D8A44DEF05F04FEF70
:100A980005F059EF05F07D0EAC6FFC0EAD6FB9ECAB
:100AA80031F0060E7D6E820EAF6E0001EB05D8A404
:100AB80060EF05F062EF05F089EF0BF05F0EAC6FA9
:100AC800FE0EAD6FB9EC31F07D6A440EAF6E89EF62
:100AD8000BF0C5C06EF0C6C06FF0E70E706FFF0E6A
:100AE800716F38EC2EF000016E516F11D8A47FEFB2
:100AF80005F081EF05F09FEF05F0EB51D8B487EFD3
:100B080005F089EF05F08FEF05F02D0EAC6FF90EAB
:100B1800AD6FB9EC31F04E0E0001AC6FF70EAD6F52
:100B2800B9EC31F0000E0001836F010E826FF8EC12
:100B380018F089EF0BF0C5C06EF0C6C06FF0E90E73
:100B4800706FFF0E716F38EC2EF000016E516F114F
:100B5800D8A4B1EF05F0B3EF05F0D1EF05F0EB51F4
:100B6800D8B4B9EF05F0BBEF05F0C1EF05F02D0ED5
:100B7800AC6FF90EAD6FB9EC31F0AB0E0001AC6F94
:100B8800F70EAD6FB9EC31F0000E0001836F020E65
:100B9800826FF8EC18F089EF0BF0C5C06EF0C6C094
:100BA8006FF0EB0E706FFF0E716F38EC2EF00001D6
:100BB8006E516F11D8A4E3EF05F0E5EF05F0E9EF0A
:100BC80005F0D4EC0EF089EF0BF0C5C06EF0C6C08E
:100BD8006FF0ED0E706FFF0E716F38EC2EF00001A4
:100BE8006E516F11D8A4FBEF05F0FDEF05F0AFEFE4
:100BF80006F0F29E700EAC6FFD0EAD6FB9EC31F0E1
:100C080073EF06F0870E0001AC6FFF0EAD6FB9EC05
:100C180031F09BEF06F0CA0E0001AC6FFD0EAD6F10
:100C28002EC1AEF02FC1AFF030C1B0F031C1B1F07C
:100C3800B9EC31F09BEF06F0300E0001AC6FFC0E02
:100C4800AD6F2EC1AEF02FC1AFF030C1B0F031C1E1
:100C5800B1F0B9EC31F09BEF06F0C10E0001AC6FBA
:100C6800FA0EAD6FB9EC31F09BEF06F0C30E000140
:100C7800AC6FFB0EAD6FB9EC31F09BEF06F0FA0EDE
:100C88000001AC6FF90EAD6FB9EC31F09BEF06F0D7
:100C9800FB0E0001AC6FFD0EAD6FB9EC31F09BEFB0
:100CA80006F0DE0E0001AC6FFE0EAD6FB9EC31F050
:100CB8009BEF06F04A0E0001AC6FFC0EAD6FB9EC6D
:100CC80031F09BEF06F0460E0001AC6FFC0EAD6FE5
:100CD80067C1AEF0AF6BB9EC31F09BEF06F00101E4
:100CE8006751000AD8B406EF06F0010AD8B40FEF2E
:100CF80006F0030AD8B420EF06F0010AD8B431EFA1
:100D080006F0070AD8B43AEF06F0010AD8B443EF60
:100D180006F0030AD8B44CEF06F0010AD8B455EF30
:100D280006F00F0AD8B45EEF06F067EF06F0AD0ED6
:100D38000001AC6FFC0EAD6F66C1AEF0AF6BB9ECE5
:100D480031F0130E0001AC6FFC0EAD6FB9EC31F051
:100D5800F28E89EF0BF0C5C06EF0C6C06FF0EF0ED3
:100D6800706FFF0E716F38EC2EF000016E516F112D
:100D7800D8A4C1EF06F0C3EF06F042EF07F0F29EE9
:100D88000B0EAC6FFE0EAD6F4EC0AEF0AF6BB9EC94
:100D980031F0330E0001AC6FFD0EAD6F60C1AEF0E7
:100DA800AF6BB9EC31F0830E0001AC6FFD0EAD6F87
:100DB80044C1AEF045C1AFF0B9EC31F0010E00010D
:100DC800E36F000EE46F000EE56F000EE66FE6516C
:100DD800E511E41109E1830EE35DD8A0F6EF06F012
:100DE800F8EF06F0FAEF06F023EF07F0CB0EAC6F42
:100DF800FF0EAD6FE3C0AEF0E4C0AFF0E5C0B0F0F9
:100E0800E6C0B1F0B9EC31F0C30E0001AC6FFF0ED3
:100E1800AD6F000EE325D96E050EE421DA6EDF50C2
:100E2800C76FC751AE6FAF6BB9EC31F0010E00015F
:100E3800E327000EE423E523E623EBEF06F0130E89
:100E4800AC6FFC0EAD6FB9EC31F0B90E0001AC6FB0
:100E5800FD0EAD6F42C1AEF043C1AFF0B9EC31F059
:100E6800290E0001AC6FFE0EAD6F40C1AEF041C15E
:100E7800AFF0B9EC31F0F28E89EF0BF0C5C06EF02F
:100E8800C6C06FF0F10E706FFF0E716F38EC2EF068
:100E980000016E516F11D8A454EF07F056EF07F018
:100EA800C7EF07F0F29E000EE36F000EE46F000E2E
:100EB800E56F000EE66FE651E511E41109E1C80E91
:100EC800E35DD8A06AEF07F06CEF07F06EEF07F06C
:100ED800C4EF07F0E3C0B7F0E4C0B8F0E5C0B9F07C
:100EE800E6C0BAF0ACEC1EF0CB0E0001AC6FFF0E02
:100EF800AD6FE3C0AEF0E4C0AFF0E5C0B0F0E6C05F
:100F0800B1F0B9EC31F0AA0E0001AC6FFF0EAD6F75
:100F180000C4AEF0AF6BB9EC31F0010E0001E3256F
:100F2800C76F000EE421C86F000EE521C96F000EDF
:100F3800E621CA6F0F0EC715CB6F000EC815CC6F10
:100F4800000EC915CD6F000ECA15CE6FCB51CC114E
:100F5800CD11CE11D8A4B3EF07F0B5EF07F0BBEF72
:100F680007F0130EAC6FFC0EAD6FB9EC31F0010E4B
:100F78000001E327000EE423E523E6235FEF07F0F3
:100F8800F28E89EF0BF0C5C06EF0C6C06FF0F30E9D
:100F9800706FFF0E716F38EC2EF000016E516F11FB
:100FA800D8A4D9EF07F0DBEF07F061EF08F0F29E65
:100FB800000EE36F000EE46F000EE56F000EE66FA3
:100FC800E651E5110AE1E329030EE459D8A0EFEF51
:100FD80007F0F1EF07F0F3EF07F05EEF08F0E3C07A
:100FE8006EF0E4C06FF0EDEC31F00101C76F0F0E49
:100FF8000001E315C76F000EE415C86F000EE51574
:10100800C96F000EE615CA6FC751C811C911CA11B8
:10101800D8A411EF08F013EF08F021EF08F0CF0E75
:10102800AC6FFF0EAD6FE3C0AEF0E4C0AFF0E5C04B
:10103800B0F0E6C0B1F0B9EC31F0AA0E0001AC6F27
:10104800FF0EAD6FC7C1AEF0AF6BB9EC31F0010E5A
:101058000001E325C76F000EE421C86F000EE521EB
:10106800C96F000EE621CA6F0F0EC715CB6F000EB1
:10107800C815CC6F000EC915CD6F000ECA15CE6FFE
:10108800CB51CC11CD11CE11D8A44DEF08F04FEFB4
:1010980008F055EF08F0130EAC6FFC0EAD6FB9EC0D
:1010A80031F0010E0001E327000EE423E523E623D7
:1010B800E4EF07F0F28E89EF0BF0C5C06EF0C6C002
:1010C8006FF0F70E706FFF0E716F38EC2EF00001A5
:1010D8006E516F11D8A473EF08F075EF08F000EFA8
:1010E80009F00101CC6BF29E450E0001AC6FFE0EBB
:1010F800AD6FB9EC31F0000E0001E36F000EE46F44
:10110800000EE56F000EE66FCCEF08F0E3C0B7F015
:10111800E4C0B8F0E5C0B9F0E6C0BAF0800EBB6F25
:1011280074EC1FF0800E0001E325E36F000EE4214C
:10113800E46F000EE521E56F000EE621E66F000E74
:101148000101C86F000EC96F000ECA6F000ECB6F89
:10115800CB51CA11C91109E1800EC85DD8A0B7EFFB
:1011680008F0B9EF08F0BBEF08F0CCEF08F0000E7C
:10117800C825D96E040EC921DA6EDF50CC19CC6FA0
:10118800010EC827000EC923CA23CB23ACEF08F0F1
:101198000001E6510CE1E329FF0EE459010EE5597F
:1011A800D8A0D9EF08F0DBEF08F08AEF08F0640E5A
:1011B800AC6FFC0EAD6FCCC1AEF0AF6BB9EC31F0DB
:1011C8000101CC51D8A4EBEF08F0EDEF08F0F6EFF1
:1011D80008F0A00E0001AC6FFF0EAD6FB9EC31F056
:1011E800FDEF08F04E0E0001AC6FFF0EAD6FB9ECCD
:1011F80031F0F28E89EF0BF0C5C06EF0C6C06FF00B
:10120800F90E706FFF0E716F38EC2EF000016E5101
:101218006F11D8A412EF09F014EF09F0EDEF09F0FF
:10122800000E0101CD6F000ECE6F000ECF6F000EC5
:10123800D06FF29EDCEF09F0CDC1B7F0CEC1B8F0A7
:10124800CFC1B9F0D0C1BAF0800E0001BB6F74EC09
:101258001FF0000E0001E36F000EE46F000EE56F53
:10126800000EE66FE651E511E41109E1800EE35D39
:10127800D8A041EF09F043EF09F045EF09F0CFEFAF
:1012880009F00101CD510001E3250101C36FCE51E1
:101298000001E4210101C46FCF510001E5210101E2
:1012A800C56FD0510001E6210101C66F0F0E000184
:1012B800E315C76F000EE415C86F000EE515C96F7A
:1012C800000EE615CA6FC751C811C911CA11D8A4B2
:1012D80070EF09F072EF09F083EF09F0C3C1B7F0BE
:1012E800C4C1B8F0C5C1B9F0C6C1BAF0FEEC30F05F
:1012F8005E0E0001AC6FFF0EAD6FB9EC31F0C70E9A
:101308000001AC6FFF0EAD6F000EE325D96E040E21
:10131800E421DA6EDF50C76FC751AE6FAF6BB9EC1F
:1013280031F0010E0001E325C76F000EE421C86FFC
:10133800000EE521C96F000EE621CA6F0F0EC71512
:10134800CB6F000EC815CC6F000EC915CD6F000EFF
:10135800CA15CE6FCB51CC11CD11CE11D8A4B7EF91
:1013680009F0B9EF09F0BFEF09F0130EAC6FFC0EEE
:10137800AD6FB9EC31F0E40E00D000D0E82EFCD708
:1013880000D000D0010E0001E327000EE423E5237E
:10139800E62336EF09F0800E0101CD25CD6F000E52
:1013A800CE21CE6F000ECF21CF6F000ED021D06F8F
:1013B800D0510CE1CD29FF0ECE59010ECF59D8A03E
:1013C800E8EF09F0EAEF09F020EF09F0F28E89EF73
:1013D8000BF0C5C06EF0C6C06FF0FB0E706FFF0E4D
:1013E800716F38EC2EF000016E516F11D8A4FFEF29
:1013F80009F001EF0AF06DEF0BF0000EE36F000E3D
:10140800E46F000EE56F000EE66FE3C0C7F0E4C0BE
:10141800C8F0D890C737C837D890C737C837000E34
:10142800C7256E6F010EC8216F6FEDEC31F000011A
:10143800C96FC9510101D16FD26BD36BD46BD56B16
:10144800D66BD76BD86BE3C0C7F0E4C0C8F0000117
:10145800D890C737C837D890C737C837010EC725BF
:101468006E6F010EC8216F6FEDEC31F00001C96F8E
:10147800C9C0CAF0CB6BCC6BCD6BCCC0CDF0CBC0A8
:10148800CCF0CAC0CBF0CA6BCA51CE6FCB51CF6F6C
:10149800CC51D06FCD51D16FD26BD36BD46BD56B90
:1014A8000101D1510001CE250101D16FD2510001B6
:1014B800CF210101D26FD3510001D0210101D36F97
:1014C800D4510001D1210101D46FD5510001D2219D
:1014D8000101D56FD6510001D3210101D66FD75133
:1014E8000001D4210101D76FD8510001D521010194
:1014F800D86FE3C0C7F0E4C0C8F00001D890C73780
:10150800C837D890C737C837020EC7256E6F010E87
:10151800C8216F6FEDEC31F00001C96FC9C0CAF086
:10152800CB6BCC6BCD6BCBC0CDF0CAC0CCF0CB6B4A
:10153800CA6BCA51CE6FCB51CF6FCC51D06FCD5142
:10154800D16FD26BD36BD46BD56B0101D151000134
:10155800CE250101D16FD2510001CF210101D26FF7
:10156800D3510001D0210101D36FD4510001D12101
:101578000101D46FD5510001D2210101D56FD65197
:101588000001D3210101D66FD7510001D4210101F7
:10159800D76FD8510001D5210101D86FE3C0C7F03A
:1015A800E4C0C8F00001D890C737C837D890C7370B
:1015B800C837030EC7256E6F010EC8216F6FEDEC9B
:1015C80031F00001C96FC9C0CAF0CB6BCC6BCD6BD1
:1015D800CAC0CDF0CC6BCB6BCA6BCA51CE6FCB51A6
:1015E800CF6FCC51D06FCD51D16FD26BD36BD46B41
:1015F800D56B0101D1510001CE250101D16FD25126
:101608000001CF210101D26FD3510001D021010186
:10161800D36FD4510001D1210101D46FD5510001FC
:10162800D2210101D56FD6510001D3210101D66F16
:10163800D7510001D4210101D76FD8510001D5211C
:101648000101D86FAF0E0001AC6FFF0EAD6F010E38
:10165800E325AE6F000EE421AF6F000EE521B06FF9
:10166800000EE621B16FB9EC31F0D1C1B7F0D2C1AB
:10167800B8F0D3C1B9F0D4C1BAF0D5C1BBF0D6C166
:10168800BCF0D7C1BDF0D8C1BEF016EC31F0130ED6
:101698000001AC6FFC0EAD6FB9EC31F0010E00012A
:1016A800E327000EE423E523E623E651E511E411E0
:1016B80009E10A0EE35DD8A064EF0BF066EF0BF0CA
:1016C80009EF0AF0E307000EE45BE55BE65B89EFF0
:1016D8000BF0C5C06EF0C6C06FF0FD0E706FFF0E48
:1016E800716F38EC2EF000016E516F11D8A47FEFA6
:1016F8000BF081EF0BF083EF0BF089EF0BF01E0E70
:10170800AC6FFD0EAD6FB9EC31F01200D7C0B7F079
:10171800D8C0B8F0D9C0B9F0DAC0BAF0DBC0BBF0B5
:10172800DCC0BCF0DDC0BDF0DEC0BEF0040ED89059
:101738000001B737B837B937BA37BB37BC37BD3709
:10174800BE37E82E9BEF0BF0B7C0C1F0B8C0C2F0AF
:10175800B9C0C3F0BAC0C4F0BBC0C5F0BCC0C6F0C5
:10176800BDC0C7F0BEC0C8F020EEC1F0F00EDE1854
:10177800C16FFF0EDE18C26FFF0EDE18C36FFF0EBB
:10178800DE18C46FFF0EDE18C56FFF0EDE18C66FB9
:10179800FF0EDE18C76F000EDE18C86FC1C0B7F0A5
:1017A800C2C0B8F0C3C0B9F0C4C0BAF0C5C0BBF07D
:1017B800C6C0BCF0C7C0BDF0C8C0BEF0310EEEEF69
:1017C8000BF0D890BE33BD33BC33BB33BA33B93317
:1017D800B833B733E82EE5EF0BF0B7C0C9F0B8C09F
:1017E800CAF0B9C0CBF0BAC0CCF0BBC0CDF0BCC019
:1017F800CEF0BDC0CFF0BEC0D0F0C939F00BF00BB1
:10180800F06F040EB76FC9C0B8F0CAC0B9F0CBC04A
:10181800BAF0CCC0BBF0CDC0BCF0CEC0BDF0CFC0DC
:10182800BEF0D0C0BFF0B7671CEF0CF028EF0CF08B
:10183800BF35BF33BE33BD33BC33BB33BA33B93323
:10184800B833B72F17EF0CF00001B8510F0BF16F39
:10185800C1C0B7F0C2C0B8F0C3C0B9F0C4C0BAF0D4
:10186800C5C0BBF0C6C0BCF0C7C0BDF0C8C0BEF0A4
:10187800290E48EF0CF0D890BE33BD33BC33BB33D0
:10188800BA33B933B833B733E82E3FEF0CF0B7C0EB
:10189800C9F0B8C0CAF0B9C0CBF0BAC0CCF0BBC070
:1018A800CDF0BCC0CEF0BDC0CFF0BEC0D0F0040EAD
:1018B800B76FC9C0B8F0CAC0B9F0CBC0BAF0CCC0D5
:1018C800BBF0CDC0BCF0CEC0BDF0CFC0BEF0D0C024
:1018D800BFF0B76772EF0CF07EEF0CF0BF35BF3387
:1018E800BE33BD33BC33BB33BA33B933B833B72F88
:1018F8006DEF0CF00001B8510F0BF011F06FC93902
:10190800F00BF00BEF6FC1C0B7F0C2C0B8F0C3C0A6
:10191800B9F0C4C0BAF0C5C0BBF0C6C0BCF0C7C0FF
:10192800BDF0C8C0BEF0210EA3EF0CF0D890BE33B6
:10193800BD33BC33BB33BA33B933B833B733E82E0E
:101948009AEF0CF0B7C0C9F0B8C0CAF0B9C0CBF074
:10195800BAC0CCF0BBC0CDF0BCC0CEF0BDC0CFF09B
:10196800BEC0D0F0040EB76FC9C0B8F0CAC0B9F095
:10197800CBC0BAF0CCC0BBF0CDC0BCF0CEC0BDF07F
:10198800CFC0BEF0D0C0BFF0B767CDEF0CF0D9EF35
:101998000CF0BF35BF33BE33BD33BC33BB33BA33B2
:1019A800B933B833B72FC8EF0CF00001B8510F0B9B
:1019B800EF11EF6FC939F00BF00BEE6FC1C0B7F044
:1019C800C2C0B8F0C3C0B9F0C4C0BAF0C5C0BBF05B
:1019D800C6C0BCF0C7C0BDF0C8C0BEF0190EFEEF4F
:1019E8000CF0D890BE33BD33BC33BB33BA33B933F4
:1019F800B833B733E82EF5EF0CF0B7C0C9F0B8C06C
:101A0800CAF0B9C0CBF0BAC0CCF0BBC0CDF0BCC0F6
:101A1800CEF0BDC0CFF0BEC0D0F0040EB76FC9C0C5
:101A2800B8F0CAC0B9F0CBC0BAF0CCC0BBF0CDC0DA
:101A3800BCF0CEC0BDF0CFC0BEF0D0C0BFF0B7671D
:101A480028EF0DF034EF0DF0BF35BF33BE33BD3393
:101A5800BC33BB33BA33B933B833B72F23EF0DF0E8
:101A68000001B8510F0BEE11EE6FC939F00BF00BF6
:101A7800526EC1C0B7F0C2C0B8F0C3C0B9F0C4C09C
:101A8800BAF0C5C0BBF0C6C0BCF0C7C0BDF0C8C086
:101A9800BEF0110E59EF0DF0D890BE33BD33BC33F4
:101AA800BB33BA33B933B833B733E82E50EF0DF040
:101AB800B7C0C9F0B8C0CAF0B9C0CBF0BAC0CCF052
:101AC800BBC0CDF0BCC0CEF0BDC0CFF0BEC0D0F022
:101AD800040EB76FC9C0B8F0CAC0B9F0CBC0BAF02D
:101AE800CCC0BBF0CDC0BCF0CEC0BDF0CFC0BEF006
:101AF800D0C0BFF0B76783EF0DF08FEF0DF0BF35A3
:101B0800BF33BE33BD33BC33BB33BA33B933B83359
:101B1800B72F7EEF0DF00001B8510F0B5210526E27
:101B2800C939F00BF00B516EC1C0B7F0C2C0B8F0A4
:101B3800C3C0B9F0C4C0BAF0C5C0BBF0C6C0BCF0E1
:101B4800C7C0BDF0C8C0BEF0B8C0B7F0B9C0B8F0E3
:101B5800BAC0B9F0BBC0BAF0BCC0BBF0BDC0BCF0E5
:101B6800BEC0BDF0BE6BB7C0C9F0B8C0CAF0B9C03E
:101B7800CBF0BAC0CCF0BBC0CDF0BCC0CEF0BDC07D
:101B8800CFF0BEC0D0F0040EB76FC9C0B8F0CAC05D
:101B9800B9F0CBC0BAF0CCC0BBF0CDC0BCF0CEC061
:101BA800BDF0CFC0BEF0D0C0BFF0B767DEEF0DF01C
:101BB800EAEF0DF0BF35BF33BE33BD33BC33BB33A3
:101BC800BA33B933B833B72FD9EF0DF00001B85194
:101BD8000F0B5110516EC939F00BF00B506EC1C08C
:101BE800C9F0C2C0CAF0C3C0CBF0C4C0CCF0C5C0F5
:101BF800CDF0C6C0CEF0C7C0CFF0C8C0D0F0040E3C
:101C0800B76FC9C0B8F0CAC0B9F0CBC0BAF0CCC081
:101C1800BBF0CDC0BCF0CEC0BDF0CFC0BEF0D0C0D0
:101C2800BFF0B7671AEF0EF026EF0EF0BF35BF33DF
:101C3800BE33BD33BC33BB33BA33B933B833B72F34
:101C480015EF0EF00001B8510F0B5010506E86ECD6
:101C58002FF00001C06FED51D8B435EF0EF037EF1B
:101C68000EF0D3EF0EF0C051D8B43DEF0EF03FEFB9
:101C78000EF047EF0EF0A50EAC6FFF0EAD6FB9EC8E
:101C880031F04DEF0EF0B40EAC6FFF0EAD6FB9EC46
:101C980031F0DE0E0001AC6FFF0EAD6FF1C0AEF09B
:101CA800AF6BB9EC31F0E10E0001AC6FFF0EAD6F18
:101CB800B9EC31F0DE0E0001AC6FFF0EAD6FF0C075
:101CC800AEF0AF6BB9EC31F0E10E0001AC6FFF0E76
:101CD800AD6FB9EC31F0DE0E0001AC6FFF0EAD6FE9
:101CE800EFC0AEF0AF6BB9EC31F0E10E0001AC6FB4
:101CF800FF0EAD6FB9EC31F0DE0E0001AC6FFF0ED8
:101D0800AD6FEEC0AEF0AF6BB9EC31F0E10E000193
:101D1800AC6FFF0EAD6FB9EC31F0DE0E0001AC6FA9
:101D2800FF0EAD6F52C0AEF0AF6BB9EC31F0E10E03
:101D38000001AC6FFF0EAD6FB9EC31F0DE0E0001A3
:101D4800AC6FFF0EAD6F51C0AEF0AF6BB9EC31F0B8
:101D5800E10E0001AC6FFF0EAD6FB9EC31F0DE0E95
:101D68000001AC6FFF0EAD6F50C0AEF0AF6BB9ECB9
:101D780031F0DB0E0001AC6FFF0EAD6FB9EC31F046
:101D88000001C051D8A4CBEF0EF0CDEF0EF0D3EF89
:101D98000EF0130EAC6FFC0EAD6FB9EC31F0120003
:101DA800F29E0101586B900E0001AC6FFE0EAD6FF4
:101DB80036C1AEF037C1AFF0B9EC31F00001EC0537
:101DC800D8A4E9EF0EF0EBEF0EF004EF0FF06C0E75
:101DD800010136193711D8B4F4EF0EF0F6EF0EF012
:101DE800FDEF0EF05D0E0001AC6FFD0EAD6FB9ECAE
:101DF80031F0480E0001AC6FFD0EAD6FB9EC31F05B
:101E0800020E0001EC19D8A40CEF0FF00EEF0FF042
:101E180014EF0FF0EB0EAC6FFD0EAD6FB9EC31F0B7
:101E2800130E0001AC6FFC0EAD6FB9EC31F0010E72
:101E38000001BD6F010EBC6FBC51B76FB86BB73BEB
:101E4800B83BF00EB817B7510F0BB813F00EB71711
:101E5800BDC0B9F0FF0EB9270F0EB917B951B72792
:101E6800000EB823F10EB725BA6FFF0EB821BB6F6D
:101E7800BAC0E3F0BBC0E4F0000EE4BFFF0EE56FAC
:101E8800E66F36C1B7F037C1B8F0000EB8BFFF0E25
:101E9800B96FBA6FE351B75DE451B859E551B95913
:101EA800E651BA59D8A05BEF0FF05DEF0FF015EFD0
:101EB80011F0D30EAC6FFF0EAD6FE3C0AEF0E4C00F
:101EC800AFF0E5C0B0F0E6C0B1F0B9EC31F0D890B1
:101ED8000001E335D96EE435DA6E820ED926050E97
:101EE800DA22DECFB7F0DDCFB8F0B7C0E7F0B8C080
:101EF800E8F0E96BEA6BBE0EAC6FFF0EAD6FE7C0A2
:101F0800AEF0E8C0AFF0E9C0B0F0EAC0B1F0B9ECAB
:101F180031F00001EC05D8A494EF0FF096EF0FF024
:101F28004CEF10F0EA51E9110BE1A90EE75D8F0EB5
:101F3800E859D8A0A2EF0FF0A4EF0FF0BAEF0FF016
:101F4800EA51E91109E1780EE75D970EE859D8B032
:101F5800B0EF0FF0B2EF0FF0BAEF0FF0780EAC6FF2
:101F6800FE0EAD6FB9EC31F02CEF10F0EA51E9112B
:101F78000BE1A70EE75D020EE859D8A0C6EF0FF0F7
:101F8800C8EF0FF0DEEF0FF0EA51E91109E1D60EC4
:101F9800E75D040EE859D8B0D4EF0FF0D6EF0FF094
:101FA800DEEF0FF0080EAC6FFF0EAD6FB9EC31F03D
:101FB8002CEF10F0EA51E9110BE1930EE75D060EE4
:101FC800E859D8A0EAEF0FF0ECEF0FF002EF10F0AD
:101FD800EA51E91109E1C20EE75D080EE859D8B0E7
:101FE800F8EF0FF0FAEF0FF002EF10F0120EAC6FEF
:101FF800FF0EAD6FB9EC31F02CEF10F0EA51E9119A
:102008000BE18C0EE75D0A0EE859D8A00EEF10F030
:1020180010EF10F026EF10F0EA51E91109E1BB0EBC
:10202800E75D0C0EE859D8B01CEF10F01EEF10F069
:1020380026EF10F03A0EAC6FFF0EAD6FB9EC31F031
:102048002CEF10F01C0EAC6FFF0EAD6FB9EC31F039
:10205800000E0001E325D96E020EE421DA6EDF508E
:10206800D8B439EF10F03BEF10F04CEF10F0780EC9
:10207800AC6FFF0EAD6F000EE325D96E020EE421A2
:10208800DA6EDF50B76FB751AE6FAF6BB9EC31F0A6
:10209800020E0001EC19D8A454EF10F056EF10F01E
:1020A8000CEF11F0EA51E9110BE1130EE75D700E28
:1020B800E859D8A062EF10F064EF10F07AEF10F052
:1020C800EA51E91109E1E20EE75D770EE859D8B067
:1020D80070EF10F072EF10F07AEF10F0300EAC6F76
:1020E800FF0EAD6FB9EC31F0ECEF10F0EA51E911E9
:1020F8000BE1D70EE75D010EE859D8A086EF10F086
:1021080088EF10F09EEF10F0EA51E91109E12A0E6C
:10211800E75D030EE859D8B094EF10F096EF10F091
:102128009EEF10F0080EAC6FFF0EAD6FB9EC31F0FA
:10213800ECEF10F0EA51E9110BE1570EE75D040EE0
:10214800E859D8A0AAEF10F0ACEF10F0C2EF10F0E9
:10215800EA51E91109E1AA0EE75D050EE859D8B080
:10216800B8EF10F0BAEF10F0C2EF10F0120EAC6F2B
:10217800FF0EAD6FB9EC31F0ECEF10F0EA51E91158
:102188000BE1BB0EE75D090EE859D8A0CEEF10F0C1
:10219800D0EF10F0E6EF10F0EA51E91109E10E0E68
:1021A800E75D0B0EE859D8B0DCEF10F0DEEF10F069
:1021B800E6EF10F0940EAC6FFF0EAD6FB9EC31F096
:1021C800ECEF10F01C0EAC6FFF0EAD6FB9EC31F0F8
:1021D800000E0001E325D96E020EE421DA6EDF500D
:1021E800D8B4F9EF10F0FBEF10F00CEF11F0780E07
:1021F800AC6FFF0EAD6F000EE325D96E020EE42121
:10220800DA6EDF50B76FB751AE6FAF6BB9EC31F024
:102218005E0E0001AC6FFF0EAD6FB9EC31F01BEF35
:1022280011F0570EAC6FFF0EAD6FB9EC31F0000135
:10223800BC2B070EBC6523EF11F025EF11F020EF42
:102248000FF0130EAC6FFC0EAD6FB9EC31F000015E
:10225800BD2B100EBD6533EF11F035EF11F01EEFF9
:102268000FF083EC32F0F28E1200C7EC31F0808A66
:102278000101676B0F015D6B5C6BD08EF19EF18085
:10228800F290F286F28E5A89010E0001EB6FEB5143
:10229800D8A451EF11F053EF11F057EF11F0060EDB
:1022A8007D6E820EAF6EEB05D8A45DEF11F05FEF87
:1022B80011F062EF11F07D6A440EAF6E920ED56E8A
:1022C800CE0E726FF90E736F50EC27F0520E0001AC
:1022D800726FFE0E736F50EC27F0230E0001726FC1
:1022E800FA0E736F50EC27F0520E0001726FFE0E5B
:1022F800736F50EC27F0829083EC21F0828000010C
:10230800ED6BCAEC32F0F28E81B48DEF11F08FEFE5
:1023180011F0F2EF11F0150E0101DB6FC60EE82E79
:10232800FED7DB2FFCD70000010E01012A27000E83
:102338002B232C232D232D512C110BE1890E2A5DE3
:10234800130E2B59D8A0ABEF11F0ADEF11F0F2EF4F
:1023580011F08290000E2A6F000E2B6F000E2C6F6A
:10236800000E2D6F080E0001AC6FFB0EAD6FB9ECBF
:1023780031F0010E0101436F000E426F280E425DDD
:10238800010E4359D8A0CBEF11F0CDEF11F0CFEFEC
:1023980011F0DDEF11F042C16EF043C16FF0FF0E96
:1023A8000001706F34EC2FF00101424B432BC2EF58
:1023B80011F0520E0101DC6F2B0EDB6F000EE82EC0
:1023C800FED7DB2FFCD7DC2FFAD70000828081A450
:1023D800F0EF11F0F2EF11F0EBEF11F001015A51AB
:1023E800D8B4F9EF11F0FCEF11F0010EFDEF11F088
:1023F800000EDB6FDC6B81B404EF12F007EF12F014
:10240800010E08EF12F0000EDB17000EDC172D513D
:102418002C112B1107E1C90E2A5DD8B016EF12F066
:1024280019EF12F0010E1AEF12F0000EDB17000E72
:10243800DC172D512C110CE1E80E2A5D030E2B59E7
:10244800D8A029EF12F02CEF12F0010E2DEF12F0A8
:10245800000EDB17000EDC17DB51DC11D8B437EFA8
:1024680012F039EF12F051EF12F0F40E0001AC6FD8
:10247800FE0EAD6FB9EC31F0500E0101226FC30EA4
:10248800236F000E246F000E256F000E266F000EBE
:10249800276F000E286F000E296F22512311241177
:1024A80025112611271128112911D8B45EEF12F031
:1024B80060EF12F0C6EF12F02207000E235B245BD8
:1024C800255B265B275B285B295B22C16EF023C155
:1024D8006FF024C170F025C171F026C172F027C1D8
:1024E80073F028C174F029C175F0E80E0001766F09
:1024F800030E776F000E786F000E796F000E7A6FFB
:10250800000E7B6F000E7C6F000E7D6FC0EC27F015
:102518006EC0DBF16FC0DCF170C0DDF171C0DEF1BF
:1025280072C0DFF173C0E0F174C0E1F175C0E2F18F
:102538000101DB51DC11DD11DE11DF11E011E111C8
:10254800E211D8A4AAEF12F0ACEF12F0B5EF12F036
:1025580082A0B1EF12F0B4EF12F08280B5EF12F062
:1025680082900101225123112411251126112711CE
:1025780028112911D8A4C3EF12F0C5EF12F0C6EF45
:1025880012F08280000E81B4010E5A6F81A4CFEF41
:1025980012F0D1EF12F0D9EF12F0000E2A6F000EF0
:1025A8002B6F000E2C6F000E2D6F5D51D8A4DFEF3E
:1025B80012F0E1EF12F0E3EF12F075EC25F00101F3
:1025C8005851D8B4EAEF12F0ECEF12F0EEEF12F037
:1025D800D4EC0EF001015D51D8B4F5EF12F0F7EF2D
:1025E80012F088EF11F05D6BF29E020E0001ED19FA
:1025F800D8A401EF13F003EF13F005EF13F0D4ECB8
:102608000EF00001EC05D8A40CEF13F00EEF13F058
:102618003FEF13F0ED51D8B414EF13F016EF13F0A9
:102628002FEF13F0D7C0B7F0D8C0B8F0D9C0B9F0C1
:10263800DAC0BAF0DBC0BBF0DCC0BCF0DDC0BDF076
:10264800DEC0BEF0EDEC25F05E0E0001AC6FFF0EB3
:10265800AD6FB9EC31F08AEC0BF086EC2FF0000985
:10266800D8B439EF13F03BEF13F03FEF13F064ECFD
:102678001AF081EC13F0020E0001EC19D8A447EF10
:1026880013F049EF13F06BEF13F0D7C0DFF0D8C0A9
:10269800E0F0D9C0E1F0DAC0E2F0D30EAC6FFE0E84
:1026A800AD6FB9EC31F0D7C0B7F0D8C0B8F0D9C029
:1026B800B9F0DAC0BAF0DBC0BBF0DCC0BCF0DDC0FA
:1026C800BDF0DEC0BEF016EC31F081EC13F0000E68
:1026D800496E000E486E520E0101DC6F2B0EDB6F47
:1026E800000EE82EFED7DB2FFCD7DC2FFAD7000030
:1026F800F28E88EF11F08FEF04F0DFC070F0E0C0C9
:1027080071F0E1C072F0E2C073F0DEEC1DF0000180
:10271800CE6FB90EAC6FFF0EAD6FCEC0AEF0AF6B23
:10272800B9EC31F00001CE51D8B49DEF13F09FEF12
:1027380013F0C1EF13F0D70EAC6FFF0EAD6FB9EC0D
:1027480031F00001CE51020D000EF324D96E010EB6
:10275800F420DA6E3EC1DEFF3FC1DDFF809A520EE3
:102768000001C46F2B0EC36F000EE82EFED7C32FD7
:10277800FCD7C42FFAD70000808A130E0001AC6F73
:10278800FC0EAD6FB9EC31F0010122512311241177
:1027980025112611271128112911D8B4D6EF13F0C5
:1027A800D8EF13F06BEF15F021EE22F0070EDE6A7A
:1027B800E806FDE20001CE51D8A4E5EF13F0E7EFFB
:1027C80013F063EF15F0000EE36F000EE46F000ED8
:1027D800E56F000EE66FE3C0C3F0E4C0C4F0D89024
:1027E800C337C437D890C337C437000EC3256E6FBC
:1027F800010EC4216F6FEDEC31F00001C56FC551BA
:10280800CA6FCB6BCC6BCD6BE3C0C3F0E4C0C4F034
:10281800D890C337C437D890C337C437010EC325FF
:102828006E6F010EC4216F6FEDEC31F00001C56FC2
:10283800C5C0C6F0C76BC86BC96BC8C0C9F0C7C0F4
:10284800C8F0C6C0C7F0C66BCA51C625CA6FCB51FF
:10285800C721CB6FCC51C821CC6FCD51C921CD6FC9
:10286800E3C0C3F0E4C0C4F0D890C337C437D890ED
:10287800C337C437020EC3256E6F010EC4216F6FB4
:10288800EDEC31F00001C56FC5C0C6F0C76BC86B71
:10289800C96BC7C0C9F0C6C0C8F0C76BC66BCA5100
:1028A800C625CA6FCB51C721CB6FCC51C821CC6F7D
:1028B800CD51C921CD6FE3C0C3F0E4C0C4F0D890B6
:1028C800C337C437D890C337C437030EC3256E6FD8
:1028D800010EC4216F6FEDEC31F00001C56FC5C06A
:1028E800C6F0C76BC86BC96BC6C0C9F0C86BC76BED
:1028F800C66BCA51C625CA6FCB51C721CB6FCC5105
:10290800C821CC6FCD51C921CD6F010EE327000E30
:10291800E423E523E623CA290CE1CB290AE1CC29E3
:1029280008E1CD29D8B49BEF14F09DEF14F0AAEF7D
:1029380014F0E651E511E41109E10A0EE35DD8A0AF
:10294800A8EF14F0AAEF14F0EFEF13F0E307000E6E
:10295800E45BE55BE65BE651E511E41109E10B0E8A
:10296800E35DD8A0BAEF14F0BCEF14F0C4EF14F094
:10297800DB0EAC6FFD0EAD6FB9EC31F06BEF15F0FF
:10298800E3C0C3F0E4C0C4F0D890C337C437D890CC
:10299800C337C437000EC3256E6F010EC4216F6F95
:1029A800DFC070F034EC2FF0E3C0C3F0E4C0C4F033
:1029B8000001D890C337C437D890C337C437010E45
:1029C800C3256E6F010EC4216F6FE0C070F034EC48
:1029D8002FF0E3C0C3F0E4C0C4F00001D890C337BF
:1029E800C437D890C337C437020EC3256E6F010EA3
:1029F800C4216F6FE1C070F034EC2FF0E3C0C3F076
:102A0800E4C0C4F00001D890C337C437D890C337A6
:102A1800C437030EC3256E6F010EC4216F6FE2C069
:102A280070F034EC2FF0370E0001AC6FFE0EAD6F76
:102A3800B9EC31F00001DF51B76FE051B86FE151E7
:102A4800B96FE251BA6FBB6BBC6BBD6BBE6B16EC5A
:102A580031F09C0E0001AC6FFE0EAD6FB9EC31F099
:102A6800DFC070F0E0C071F0E1C072F0E2C073F056
:102A7800DEEC1DF00001CE6FCE51D8B446EF15F054
:102A880048EF15F054EF15F0CE51020D000EF32467
:102A9800D96E010EF420DA6E3EC1DEFF3FC1DDFFC4
:102AA800520E0001C46F2B0EC36F000EE82EFED726
:102AB800C32FFCD7C42FFAD700006BEF15F0E00E38
:102AC800AC6FFB0EAD6FB9EC31F054EF15F012009E
:102AD80000019A51D96EDA6ADECFF6FFDDCFF7FF33
:102AE800F86A0800F550250AD8A47DEF15F07FEFA5
:102AF80015F021EF17F09A51D96EDA6ADE2A000E26
:102B0800DD22000E476E000E466E46C04AF00101F7
:102B18003269336900019E6BAFEF15F04A829A5112
:102B2800D96EDA6ADE2A000EDD22AFEF15F0010E4B
:102B38009E6FAFEF15F09A51D96EDA6ADECFF6FFC5
:102B4800DDCFF7FFF86A0800F550300AD8B492EFE5
:102B580015F09BEF15F09E51D8B4B5EF15F0B7EF0F
:102B680015F09FEF15F09AC06EF09BC06FF075ECF2
:102B78002AF06EC046F06FC047F047BEC8EF15F0A8
:102B8800C6EF15F0CDEF15F04A80466C471ED8B059
:102B9800472A00019A51D96EDA6ADECFA4F0DDCF58
:102BA800A5F0A4C0F6FFA5C0F7FFF86A0800F5CFA6
:102BB800A3F0EAEF15F0A44BA52B05EF16F0690E6C
:102BC800A36F05EF16F0A36B05EF16F0A351580A93
:102BD800D8B4E3EF15F03C0AD8B4E3EF15F00D0ACA
:102BE800D8B4E3EF15F0050AD8B4DFEF15F0190AE9
:102BF800D8B4E3EF15F00D0AD8B4E3EF15F0E7EF1A
:102C080015F0A4C0F6FFA5C0F7FFF86A0800F55054
:102C1800640AD8B412EF16F014EF16F04AEF16F063
:102C2800A4C0F6FFA5C0F7FFF86A0800F550690AC6
:102C3800D8A421EF16F023EF16F070EF16F04AEF44
:102C480016F09B51D96EDA6ADF50DF2ADF2AD96E77
:102C5800DA6ADECF9FF0DDCFA0F0000EA0BFFF0E36
:102C6800A16FA26F55EF16F09B51D96EDA6A040E68
:102C7800DF26DF5CD96EDA6ADECF9FF0DECFA0F008
:102C8800DECFA1F0DECFA2F055EF16F0A351690A0E
:102C9800D8B425EF16F0050AD8B438EF16F055EF7A
:102CA80016F0010EA4259C6F000EA5219D6F9A5168
:102CB800D96EDA6A9CC0DEFF9DC0DDFF99C086F040
:102CC8009FC087F0A0C088F0A1C089F0A2C08AF098
:102CD8003DEC1CF033EF17F0A4C0F6FFA5C0F7FFDA
:102CE800F86A0800F550780AD8B47DEF16F07FEF3F
:102CF80016F0C5EF16F0A4C0F6FFA5C0F7FFF86AF6
:102D08000800F550580AD8B48CEF16F08EEF16F07C
:102D1800C5EF16F0A4C0F6FFA5C0F7FFF86A0800D3
:102D2800F550750AD8A49BEF16F09DEF16F018EF32
:102D380017F0C5EF16F09B51D96EDA6ADF50DF2A1B
:102D4800DF2AD96EDA6ADECF9CF0DDCF9DF09CC019
:102D58009FF09DC0A0F0A16BA26BD0EF16F09B5125
:102D6800D96EDA6A040EDF26DF5CD96EDA6ADECF46
:102D78009FF0DECFA0F0DECFA1F0DECFA2F0D0EF43
:102D880016F0A351690AD8B49FEF16F0050AD8B413
:102D9800B3EF16F0D0EF16F0010EA4259C6F000ECD
:102DA800A5219D6F9A51D96EDA6A9CC0DEFF9DC03D
:102DB800DDFF03EF17F099C086F09FC087F0A0C031
:102DC80088F0A1C089F0A2C08AF055EC23F033EF57
:102DD80017F099C086F09FC087F0A0C088F0A1C006
:102DE80089F0A2C08AF0A4C0F6FFA5C0F7FFF86A70
:102DF8000800F5CF8BF0DEEC20F033EF17F0A4C01D
:102E0800F6FFA5C0F7FFF86A0800F550580AD8B4CD
:102E1800EDEF16F02D0AD8B4DFEF16F00D0AD8B48E
:102E2800EDEF16F018EF17F000019A51D96EDA6A33
:102E3800DE2A000EDD2233EF17F09A51D96EDA6AD6
:102E4800DECFF6FFDDCFF7FFF86A0800F550706FA8
:102E5800716B99C072F0BAEC29F018EF17F01200F4
:102E68002D50D96EDA6ADECFF6FFDDCFF7FFF86AAC
:102E78000800F550250AD8A444EF17F046EF17F0DC
:102E8800E5EF18F02D50D96EDA6ADE2A000EDD2241
:102E9800000E476E000E466E46C04AF001013269C8
:102EA8003369316A75EF17F04A822D50D96EDA6AA4
:102EB800DE2A000EDD2275EF17F0010E316E75EF78
:102EC80017F02D50D96EDA6ADECFF6FFDDCFF7FFA7
:102ED800F86A0800F550300AD8B458EF17F061EFD7
:102EE80017F03150D8B47BEF17F07DEF17F065EF8E
:102EF80017F02DC001F02EC002F0CEEC2AF001C070
:102F080046F002C047F047BE8EEF17F08CEF17F07F
:102F180093EF17F04A80466C471ED8B0472A2D50C9
:102F2800D96EDA6ADECF37F0DDCF38F037C0F6FF7A
:102F380038C0F7FFF86A0800F5CF36F0AFEF17F0A2
:102F4800374A382ACAEF17F0690E366ECAEF17F0FB
:102F5800366ACAEF17F03650580AD8B4A8EF17F0F7
:102F68003C0AD8B4A8EF17F00D0AD8B4A8EF17F0A8
:102F7800050AD8B4A4EF17F0190AD8B4A8EF17F0C7
:102F88000D0AD8B4A8EF17F0ACEF17F037C0F6FF6A
:102F980038C0F7FFF86A0800F550640AD8B4D7EFCC
:102FA80017F0D9EF17F00FEF18F037C0F6FF38C059
:102FB800F7FFF86A0800F550690AD8A4E6EF17F099
:102FC800E8EF17F035EF18F00FEF18F02E50D96E24
:102FD800DA6ADF50DF2ADF2AD96EDA6ADECF32F00A
:102FE800DDCF33F0000E33BEFF0E346E356E1AEFB0
:102FF80018F02E50D96EDA6A040EDF26DF5CD96E1F
:10300800DA6ADECF32F0DECF33F0DECF34F0DECF57
:1030180035F01AEF18F03650690AD8B4EAEF17F00D
:10302800050AD8B4FDEF17F01AEF18F0010E37248F
:103038002F6E000E3820306E2D50D96EDA6A2FC0F0
:10304800DEFF30C0DDFF2CC019F032C01AF033C0EB
:103058001BF034C01CF035C01DF00FEC1DF0F7EF6D
:1030680018F037C0F6FF38C0F7FFF86A0800F550C7
:10307800780AD8B442EF18F044EF18F08AEF18F045
:1030880037C0F6FF38C0F7FFF86A0800F550580A4D
:10309800D8B451EF18F053EF18F08AEF18F037C092
:1030A800F6FF38C0F7FFF86A0800F550750AD8A48B
:1030B80060EF18F062EF18F0DDEF18F08AEF18F003
:1030C8002E50D96EDA6ADF50DF2ADF2AD96EDA6A23
:1030D800DECF2FF0DDCF30F02FC032F030C033F02C
:1030E800346A356A95EF18F02E50D96EDA6A040EF4
:1030F800DF26DF5CD96EDA6ADECF32F0DECF33F05E
:10310800DECF34F0DECF35F095EF18F03650690A8F
:10311800D8B464EF18F0050AD8B478EF18F095EF32
:1031280018F0010E37242F6E000E3820306E2D5007
:10313800D96EDA6A2FC0DEFF30C0DDFFC8EF18F0A5
:103148002CC019F032C01AF033C01BF034C01CF088
:1031580035C01DF0E1EC23F0F7EF18F02CC019F0A2
:1031680032C01AF033C01BF034C01CF035C01DF05B
:1031780037C0F6FF38C0F7FFF86A0800F5CF1EF031
:1031880026EC22F0F7EF18F037C0F6FF38C0F7FF4B
:10319800F86A0800F550580AD8B4B2EF18F02D0AAA
:1031A800D8B4A4EF18F00D0AD8B4B2EF18F0DDEFD8
:1031B80018F02D50D96EDA6ADE2A000EDD22F7EFFC
:1031C80018F02D50D96EDA6ADECFF6FFDDCFF7FFA3
:1031D800F86A0800F550036E046A2CC005F018EC74
:1031E8002AF0DDEF18F01200010E00018A6F8280CC
:1031F800000E896F000E886F4E6A0101606BF29EA7
:10320800290E0001856F960E846F7F0EE82EFED77B
:10321800842FFCD7852FFAD7000E01012E6F000EE0
:103228002F6F000E306F000E316F4EC08BF0000113
:103238008A51D8B422EF19F024EF19F02AEF19F0C7
:1032480029EC28F000018C6F2EEF19F0F5EC28F02E
:1032580000018C6F8A6B4F50D8B435EF19F037EFF7
:1032680019F03CEF19F0010E3EEC32F063EF1AF062
:103278008C05D8B442EF19F044EF19F05BEF19F060
:10328800040E8C19D8B44BEF19F04DEF19F05BEF21
:1032980019F0170E8C19D8B454EF19F056EF19F02D
:1032A8005BEF19F0020E3EEC32F063EF1AF08C057A
:1032B800D8A461EF19F063EF19F041EF1AF0F5ECBB
:1032C80028F04E6E4F50D8B46CEF19F06EEF19F02D
:1032D80073EF19F0040E3EEC32F063EF1AF00001C0
:1032E8008B29D8A47AEF19F07CEF19F07DEF19F04B
:1032F8008B69F5EC28F00101606F4F50D8B487EF67
:1033080019F089EF19F08EEF19F0050E3EEC32F046
:1033180063EF1AF06051FF0A4E18D8B496EF19F00F
:1033280098EF19F09DEF19F0150EFCEC2DF01BEF3E
:1033380019F0010E0001E36F000EE46F000EE56F57
:10334800000EE66FC7EF19F0F5EC28F000018C6F5E
:103358004F50D8B4B2EF19F0B4EF19F0B9EF19F033
:10336800060E3EEC32F063EF1AF0000EE325D96E3C
:10337800050EE421DA6E8CC0DFFF010EE327000E94
:10338800E423E523E623E651E511E41109E1830E80
:10339800E35DD8A0D2EF19F0D4EF19F0A8EF19F037
:1033A800000E6F6F800E6E6F16EC2CF06EC042F13F
:1033B8006FC043F1050181510001856F846B0501E0
:1033C8008251000184250101406F0501000E0001B2
:1033D80085210101416F4051421909E141514319C9
:1033E800D8B4F9EF19F0FBEF19F000EF1AF0070E57
:1033F8003EEC32F063EF1AF0000182058311D8A485
:1034080008EF1AF00AEF1AF025EF1AF02EC184F02F
:103418002FC185F030C186F031C187F0070ED890F2
:103428008437853786378737E82E13EF1AF084C03C
:1034380076F085C077F086C078F087C079F05FECC9
:103448001BF0020E000182198311D8A42EEF1AF086
:1034580030EF1AF041EF1AF02EC184F02FC185F039
:10346800070ED89084378537E82E35EF1AF084C0D8
:1034780072F085C073F073EC2EF0010E01012E2757
:10348800000E2F2330233123060EFCEC2DF082A0F2
:1034980050EF1AF053EF1AF0828054EF1AF082902E
:1034A80001013151301109E1040E2F5DD8A05FEF01
:1034B8001AF061EF1AF019EF19F0F28E82901200EB
:1034C8000001EF510101CE6FCD6B0001EE510101FA
:1034D800CD25D56F0001000E0101CE21D66F000E5B
:1034E8003F6F000E3E6FD5C1D5F0D6C1D6F032EC95
:1034F80020F0D5C03EF1D6C03FF101013E51000198
:103508006E6F6F6BEDEC31F00101D76FD751D519A4
:10351800D76F0001F0510101D7190F0BD16F52502D
:10352800D719D26F5150D719D36F5050D719D46FBC
:10353800000E0001DF6F000EE06F000EE16F000E5D
:10354800E26F0101D4510001DF25DF6F000EE02199
:10355800E06F000EE121E16F000EE221E26FD3C1BE
:10356800CDF10101CE6BCF6BD06BCFC1D0F1CEC105
:10357800CFF1CDC1CEF1CD6B0001DF510101CD25D9
:103588000001DF6FE0510101CE210001E06FE15140
:103598000101CF210001E16FE2510101D0210001B9
:1035A800E26FD2C1CDF10101CE6BCF6BD06BCEC132
:1035B800D0F1CDC1CFF1CE6BCD6B0001DF51010150
:1035C800CD250001DF6FE0510101CE210001E06F40
:1035D800E1510101CF210001E16FE2510101D02148
:1035E8000001E26FD1C1CDF10101CE6BCF6BD06B81
:1035F800CDC1D0F1CF6BCE6BCD6B0001DF51010196
:10360800CD250001DF6FE0510101CE210001E06FFF
:10361800E1510101CF210001E16FE2510101D02107
:103628000001E26FF1510F0B01015F6F0001F039EA
:103638000F0B01015F190F0A656FA70E0001AC6F30
:10364800FD0EAD6FB9EC31F00001DF51B76FE051FD
:10365800B86FE151B96FE251BA6FBB6BBC6BBD6B10
:10366800BE6B16EC31F0E90E0001AC6FFE0EAD6FCB
:103678005FC1AEF0AF6BB9EC31F00001ED51D8B4D9
:1036880048EF1BF04AEF1BF05EEF1BF0440EAC6FE7
:10369800FF0EAD6F3EC1AEF03FC1AFF0B9EC31F0F7
:1036A800840E0001AC6FFE0EAD6F65C1AEF0AF6B5E
:1036B800B9EC31F012000001795108E17805D8A081
:1036C80068EF1BF06AEF1BF074EF1BF0010E7C6FC4
:1036D800000E7D6F000E7E6F000E7F6F7CEF1BF07B
:1036E800000E7C6F000E7D6F000E7E6F000E7F6FE8
:1036F80077C000F376C001F3000E816F010E806F72
:10370800000E8025D96E050E8121DA6E010E802506
:10371800E16E030E8121E26EDFCFE7FF804B812B44
:1037280081BFA0EF1BF0815109E1810E805DD8A017
:10373800A0EF1BF0A2EF1BF084EF1BF0500E7C11E2
:103748006F6F7D51706F000E716F030E726F000EF8
:10375800746F820E736FF10EF66EF60EF76EF86ADE
:103768000900F5CF7AF00900F5CF7BF002D8C6EF53
:103778001BF00500FA6E7A51FD6E7B51FE6EFF6AF2
:10378800FA5012000009D8B4CCEF1BF0CEEF1BF0B2
:103798003CEF1CF0640E0101616FF6EF1BF0FF0EA9
:1037A800F66EF60EF76EF86A0900F5CF7AF00900A2
:1037B800F5CF7BF002D8EBEF1BF00500FA6E0001A5
:1037C8007A51FD6E7B51FE6EFF6AFA501200680E48
:1037D80000017A6FE40EE82EFED77A2FFCD700009E
:1037E80001016107FB0EF66EF60EF76EF86A090026
:1037F800F5CF7AF00900F5CF7BF002D80EEF1CF078
:103808000500FA6E00017A51FD6E7B51FE6EFF6A6B
:10381800FA5012000009D8A414EF1CF016EF1CF09F
:10382800D3EF1BF0F90EF66EF60EF76EF86A090084
:10383800F5CF7AF00900F5CF7BF002D82EEF1CF017
:103848000500FA6E00017A51FD6E7B51FE6EFF6A2B
:10385800FA5012000101666F6651D8A436EF1CF0C9
:1038680038EF1CF03AEF1CF03CEF1CF0080E676FC5
:103878001200010E00018D6F8ABF45EF1CF048EF62
:103888001CF0010E49EF1CF0000E906F46C08EF040
:1038980047C08FF09051D8B454EF1CF056EF1CF08D
:1038A8006DEF1CF08E07D8A08F079051D8A45FEF5A
:1038B8001CF061EF1CF067EF1CF0000E8C6F2B0EF4
:1038C8008B6F6BEF1CF0000E8C6F2D0E8B6F8BC007
:1038D80090F0000E926F1F0E916F0101BA6BB8EF56
:1038E8001CF09107D8A092079B0E9125D96E010E66
:1038F8009221DA6E87C06EF088C06FF089C070F0D0
:103908008AC071F00A0E726F000E736F000E746F2A
:10391800000E756F65EC26F06EC078F06FC079F018
:1039280098EC30F000017851300FDF6E8D6B8E0708
:10393800D8A08F0787C06EF088C06FF089C070F07C
:103948008AC071F00A0E726F000E736F000E746FEA
:10395800000E756F6AEC24F06EC087F06FC088F0B7
:1039680070C089F071C08AF0000192BFC4EF1CF0EA
:10397800925108E19105D8A0C4EF1CF0C6EF1CF0E5
:10398800EDEF1CF08751881189118A11D8A4CFEF67
:103998001CF0D1EF1CF075EF1CF08D51D8A4D7EFB7
:1039A8001CF0D9EF1CF075EF1CF08FBFE4EF1CF092
:1039B8008F5108E18E05D8A0E4EF1CF0E6EF1CF06B
:1039C800EDEF1CF04AB2EBEF1CF0EDEF1CF075EFD9
:1039D8001CF09051D8B4F3EF1CF0F5EF1CF000EF99
:1039E8001DF09107D8A092079B0E9125D96E010E64
:1039F8009221DA6E90C0DFFF86C07EF09B0E912583
:103A08007F6F010E9221806F8EC081F08FC082F08F
:103A1800CBEC2BF01200010E206E1DBE16EF1DF030
:103A280019EF1DF0010E1AEF1DF0000E236E46C0AF
:103A380021F047C022F02350D8B425EF1DF027EF1E
:103A48001DF03EEF1DF02106D8A022062350D8A471
:103A580030EF1DF032EF1DF038EF1DF0000E1F6E35
:103A68002B0E1E6E3CEF1DF0000E1F6E2D0E1E6EEF
:103A78001EC023F0000E256E1F0E246E0101BA6BC6
:103A880088EF1DF02406D8A025069B0E2424D96EA5
:103A9800010E2520DA6E1AC001F01BC002F01CC00E
:103AA80003F01DC004F00A0E056E000E066E000E2F
:103AB800076E000E086EDBEC26F001C00BF002C0AA
:103AC8000CF0B3EC30F00B50300FDF6E206A21069B
:103AD800D8A022061AC001F01BC002F01CC003F0D7
:103AE8001DC004F00A0E056E000E066E000E076E6D
:103AF800000E086EF0EC24F001C01AF002C01BF0B2
:103B080003C01CF004C01DF025BE93EF1DF0255026
:103B180008E12404D8A093EF1DF095EF1DF0BCEF49
:103B28001DF01A501B101C101D10D8A49EEF1DF07C
:103B3800A0EF1DF046EF1DF02050D8A4A6EF1DF011
:103B4800A8EF1DF046EF1DF022BEB3EF1DF0225086
:103B580008E12104D8A0B3EF1DF0B5EF1DF0BCEFCC
:103B68001DF04AB2BAEF1DF0BCEF1DF046EF1DF094
:103B78002350D8B4C2EF1DF0C4EF1DF0CFEF1DF0F5
:103B88002406D8A025069B0E2424D96E010E2520D4
:103B9800DA6E23C0DFFF19C011F09B0E2424126EC9
:103BA800010E2520136E21C014F022C015F0A9ECD7
:103BB8002CF01200000E0001806F000E7F6F7FC096
:103BC80074F080C075F0D89074377537D890743712
:103BD8007537000E74256E6F010E75216F6FEDEC51
:103BE80031F00001766F76517B6F7C6B7D6B7E6B5D
:103BF8007FC074F080C075F0D89074377537D8904E
:103C080074377537010E74256E6F010E75216F6F4D
:103C1800EDEC31F00001766F76C077F0786B796B58
:103C28007A6B79C07AF078C079F077C078F0776BE2
:103C38007B5177257B6F7C5178217C6F7D51792171
:103C48007D6F7E517A217E6F7FC074F080C075F0E1
:103C5800D89074377537D89074377537020E742535
:103C68006E6F010E75216F6FEDEC31F00001766F0C
:103C780076C077F0786B796B7A6B78C07AF077C01A
:103C880079F0786B776B7B5177257B6F7C51782146
:103C98007C6F7D5179217D6F7E517A217E6F7FC047
:103CA80074F080C075F0D89074377537D890743731
:103CB8007537030E74256E6F010E75216F6FEDEC6D
:103CC80031F00001766F76C077F0786B796B7A6B9C
:103CD80077C07AF0796B786B776B7B5177257B6F40
:103CE8007C5178217C6F7D5179217D6F7E517A21BD
:103CF8007E6F7F4B802B7B5170190FE17C517119BE
:103D08000CE17D51721909E17E517319D8B48FEF16
:103D18001EF091EF1EF09CEF1EF0805109E10B0E92
:103D28007F5DD8A09AEF1EF09CEF1EF0E3EF1DF028
:103D38000B0E7F198011D8A4A4EF1EF0A6EF1EF079
:103D4800AAEF1EF0000E806F000E7F6F7F511200E9
:103D58000001BA5108E1B905D8A0B5EF1EF0B7EFD8
:103D68001EF0C1EF1EF0010EBE6F000EBF6F000EF9
:103D7800C06F000EC16FC9EF1EF0000EBE6F000EBF
:103D8800BF6F000EC06F000EC16FB8C000F3B7C0A0
:103D980001F3500EBE116F6FBF51706F000E716F3F
:103DA800030E726F000E746F020E736F000E756F44
:103DB800040E766F000E786F010E776FF50EF66EB3
:103DC800F60EF76EF86A0900F5CFBBF00900F5CFDB
:103DD800BCF002D8F9EF1EF00500FA6EBB51FD6E7B
:103DE800BC51FE6EFF6AFA501200E80E0101616FC5
:103DF80021EF1FF0FF0EF66EF60EF76EF86A090057
:103E0800F5CFBBF00900F5CFBCF002D816EF1FF0D4
:103E18000500FA6E0001BB51FD6EBC51FE6EFF6AD3
:103E2800FA50120001016107150E0001BB6FC60EA2
:103E3800E82EFED7BB2FFCD70000FB0EF66EF60E61
:103E4800F76EF86A0900F5CFBBF00900F5CFBCF0B2
:103E580002D839EF1FF00500FA6E0001BB51FD6E64
:103E6800BC51FE6EFF6AFA5012000009D8A43FEF59
:103E78001FF041EF1FF0FEEF1EF0F90EF66EF60E82
:103E8800F76EF86A0900F5CFBBF00900F5CFBCF072
:103E980002D859EF1FF00500FA6E0001BB51FD6E04
:103EA800BC51FE6EFF6AFA5012000001BD6FBD5191
:103EB800C26FC36BC251C311D8A465EF1FF067EF7F
:103EC8001FF069EF1FF073EF1FF0160EAC6FFC0EBA
:103ED800AD6FC2C0AEF0C3C0AFF0B9EC31F01200A4
:103EE8000001BA5108E1B905D8A07DEF1FF07FEFB6
:103EF8001FF089EF1FF0010EBF6F000EC06F000E9C
:103F0800C16F000EC26F91EF1FF0000EBF6F000E61
:103F1800C06F000EC16F000EC26FB8C000F3B7C00B
:103F280001F3500EBF116F6FC051706F000E716FAB
:103F3800030E726F000E746F020E736F000E756FB2
:103F4800040E766FBBC077F0786BF50EF66EF60E42
:103F5800F76EF86A0900F5CFBCF00900F5CFBDF09F
:103F680002D8C0EF1FF00500FA6EBC51FD6EBD51BE
:103F7800FE6EFF6AFA501200E80E0101616FDFEF72
:103F88001FF0FF0EF66EF60EF76EF86A0900F5CF11
:103F9800BCF00900F5CFBDF002D8DDEF1FF0050039
:103FA800FA6E0001BC51FD6EBD51FE6EFF6AFA50FB
:103FB800120001016107FB0EF66EF60EF76EF86A45
:103FC8000900F5CFBCF00900F5CFBDF002D8F7EF36
:103FD8001FF00500FA6E0001BC51FD6EBD51FE6E6A
:103FE800FF6AFA5012000009D8A4FDEF1FF0FFEF96
:103FF8001FF0C5EF1FF0F90EF66EF60EF76EF86AB1
:104008000900F5CFBCF00900F5CFBDF002D817EFD5
:1040180020F00500FA6E0001BC51FD6EBD51FE6E28
:10402800FF6AFA5012000001BE6FBE51C36FC46B25
:10403800C351C411D8A423EF20F025EF20F027EFB7
:1040480020F031EF20F0160EAC6FFC0EAD6FC3C040
:10405800AEF0C4C0AFF0B9EC31F01200010E0101AE
:10406800C86FC851020D000EF324D96E010EF4205A
:10407800DA6EDECFC9F1DDCFCAF1C9C1C3F1CAC159
:10408800C4F1D890C337C437C3C1B7F0C4C1B8F0BE
:104098000001B96BBA6B800EBB6F74EC1FF00101A5
:1040A800CC6B000ECC25D96EDA6A040EDA22DF500A
:1040B800C36FC351C66FC76B010ECC25D96EDA6AC0
:1040C800040EDA22DF50C36FC351C56FC46BC651EB
:1040D800C425C66FC751C521C76FC6510001D51980
:1040E8000CE10101C7510001D619D8B47EEF20F0C8
:1040F80081EF20F0010E82EF20F0000E0101CB6F5E
:10410800CB51D8A48AEF20F08CEF20F08FEF20F06D
:10411800CC51020FCC6FCB51D8A495EF20F097EF7C
:1041280020F09FEF20F07F0ECC659DEF20F09FEFF1
:1041380020F055EF20F0C82BCB51D8A4A6EF20F0E3
:10414800A8EF20F0B0EF20F0090EC865AEEF20F020
:10415800B0EF20F035EF20F0CB51D8A4B6EF20F027
:10416800B8EF20F0C4EF20F0D5C0C5F0D6C0C6F037
:10417800C9EC22F0C5C0C9F1C6C0CAF1D9EF20F018
:10418800CCC16EF000016F6B000E716F020E706F84
:1041980058EC29F00101C95100016E250101C96FD0
:1041A800CA5100016F210101CA6FC9C1D5F0CAC146
:1041B800D6F01200010E0001936F46C094F047C07C
:1041C80095F0780E8B19D8B4ECEF20F0EEEF20F0D4
:1041D800F4EF20F0000E926F410E916FF8EF20F08F
:1041E800000E926F610E916F91C090F0000E986F63
:1041F8001F0E976F0101BA6B3EEF21F09707D8A009
:10420800980787510F0B966F0A0E96610EEF21F0F3
:1042180010EF21F014EF21F0300E962717EF21F060
:104228009051F60F96279B0E9725D96E010E98216F
:10423800DA6E96C0DFFF936B9407D8A0950787C006
:104248008CF088C08DF089C08EF08AC08FF0050E82
:1042580033EF21F0D8908F338E338D338C33E82EA3
:104268002EEF21F08CC087F08DC088F08EC089F0C9
:104278008FC08AF0000198BF4BEF21F0985109E1F7
:10428800020E975DD8A04BEF21F04DEF21F074EFAF
:1042980021F08751881189118A11D8A456EF21F08D
:1042A80058EF21F002EF21F09351D8A45EEF21F0EE
:1042B80060EF21F002EF21F095BF6BEF21F09551EF
:1042C80008E19405D8A06BEF21F06DEF21F074EFB1
:1042D80021F04AB272EF21F074EF21F002EF21F0E1
:1042E80086C07EF09B0E97257F6F010E9821806F08
:1042F80094C081F095C082F0CBEC2BF01200080E30
:104308000001AC6FFD0EAD6FB9EC31F0C50E0001C8
:10431800AC6FFC0EAD6FB9EC31F0FC0E0001AC6F68
:10432800FB0EAD6FB9EC31F0A60E0001AC6FFB0EC1
:10433800AD6FB9EC31F0060E0001AC6FF80EAD6F41
:10434800B9EC31F05E0E0001AC6FF80EAD6FB9EC50
:1043580031F09C0E0001AC6FF90EAD6FB9EC31F085
:10436800E60E0001AC6FFA0EAD6FB9EC31F04C0EF1
:104378000001AC6FFB0EAD6FB9EC31F0F30E00012C
:10438800AC6FF80EAD6FB9EC31F0890E0001AC6F6F
:10439800FB0EAD6FB9EC31F02A0E0001AC6FFB0ECD
:1043A800AD6FB9EC31F0B20E0001AC6FF80EAD6F25
:1043B800B9EC31F0740E0001AC6FFA0EAD6FB9ECC8
:1043C80031F0000E00016F6F000E6E6FEDEC31F0F2
:1043D8000001B76FB751E36FE46BE56BE66BE32958
:1043E800E411E511E611D8A4FCEF21F0FEEF21F06D
:1043F80004EF22F04C0EAC6FFA0EAD6FB9EC31F051
:10440800210E0001E319E411E511E611D8B40FEF0C
:1044180022F011EF22F017EF22F0660EAC6FF90EC2
:10442800AD6FB9EC31F0130E0001AC6FFC0EAD6F3F
:10443800B9EC31F06B0E0001AC6FFB0EAD6FB9EC4F
:1044480031F01200010E266E46C027F047C028F052
:10445800780E1E18D8B433EF22F035EF22F03BEF78
:1044680022F0000E246E410E236E3FEF22F0000E64
:10447800246E610E236E23C025F0000E2B6E1F0ED6
:104488002A6E0101BA6B85EF22F02A06D8A02B0606
:104498001A500F0B296E0A0E296055EF22F057EFBC
:1044A80022F05BEF22F0300E29265EEF22F0255035
:1044B800F60F29269B0E2A24D96E010E2B20DA6EC0
:1044C80029C0DFFF266A2706D8A028061AC01FF0D1
:1044D8001BC020F01CC021F01DC022F0050E7AEF91
:1044E80022F0D8902232213220321F32E82E75EF86
:1044F80022F01FC01AF020C01BF021C01CF022C0FF
:104508001DF02BBE91EF22F02B5009E1020E2A5C20
:10451800D8A091EF22F093EF22F0BAEF22F01A50D0
:104528001B101C101D10D8A49CEF22F09EEF22F047
:1045380049EF22F02650D8A4A4EF22F0A6EF22F0EB
:1045480049EF22F028BEB1EF22F0285008E12704F5
:10455800D8A0B1EF22F0B3EF22F0BAEF22F04AB2BE
:10456800B8EF22F0BAEF22F049EF22F019C011F0AB
:104578009B0E2A24126E010E2B20136E27C014F0F6
:1045880028C015F0A9EC2CF01200000E0001D06F25
:10459800000ED16F000ED26F000ED36FD0C0B7F0EF
:1045A800D1C0B8F0D2C0B9F0D3C0BAF0800EBB6F9A
:1045B80074EC1FF0800E0001D025D06F000ED121C1
:1045C800D16F000ED221D26F000ED321D36FD46BDE
:1045D800000ED425D96EDA6A040EDA22DF50C76FCE
:1045E800010ED425D96EDA6A040EDA22DF50C96FBB
:1045F800C751C86FC551C8190AE1C651C919D8B4FD
:1046080008EF23F00BEF23F0010E0CEF23F0000E60
:10461800CF6FD451020FD46FCF51D8A416EF23F027
:1046280018EF23F020EF23F07F0ED4651EEF23F060
:1046380020EF23F0ECEF22F0CF51D8A426EF23F09F
:1046480028EF23F033EF23F0D35109E1020ED25DB6
:10465800D8A031EF23F033EF23F0D2EF22F0D4517A
:10466800D025C76F000ED121C86F000ED221C96FA7
:10467800000ED321CA6F7E0EC725CB6FFF0EC8214F
:10468800CC6FFF0EC921CD6FFF0ECA21CE6FD89017
:10469800CE33CD33CC33CB33CBC0C5F0CCC0C6F092
:1046A8001200010E00018B6F46C08CF047C08DF0E0
:1046B800000E8F6F1F0E8E6F0101BA6BA1EF23F0F2
:1046C8008E07D8A08F079B0E8E25D96E010E8F21DD
:1046D800DA6E87C06EF088C06FF089C070F08AC04B
:1046E80071F00A0E726F000E736F000E746F000E79
:1046F800756FF2EC2CF000016E51300FDF6E8B6B92
:104708008C07D8A08D0787C06EF088C06FF089C06D
:1047180070F08AC071F00A0E726F000E736F000E8F
:10472800746F000E756F26EC2BF06EC087F06FC0AB
:1047380088F070C089F071C08AF000018E518F1125
:10474800D8B4A9EF23F0ABEF23F0D2EF23F08751D1
:10475800881189118A11D8A4B4EF23F0B6EF23F099
:1047680064EF23F08B51D8A4BCEF23F0BEEF23F005
:1047780064EF23F08DBFC9EF23F08D5108E18C055C
:10478800D8A0C9EF23F0CBEF23F0D2EF23F04AB241
:10479800D0EF23F0D2EF23F064EF23F086C07EF051
:1047A8009B0E8E257F6F010E8F21806F8CC081F04C
:1047B8008DC082F0CBEC2BF01200010E1E6E46C0AD
:1047C8001FF047C020F0000E226E1F0E216E01015F
:1047D800BA6B2BEF24F02106D8A022069B0E2124C9
:1047E800D96E010E2220DA6E1AC001F01BC002F049
:1047F8001CC003F01DC004F00A0E056E000E066E04
:10480800000E076E000E086E37EC2DF00150300FC9
:10481800DF6E1E6A1F06D8A020061AC001F01BC052
:1048280002F01CC003F01DC004F00A0E056E000E55
:10483800066E000E076E000E086E79EC2BF001C0B4
:104848001AF002C01BF003C01CF004C01DF0215078
:104858002210D8B432EF24F034EF24F05BEF24F0C8
:104868001A501B101C101D10D8A43DEF24F03FEF68
:1048780024F0EFEF23F01E50D8A445EF24F047EFC3
:1048880024F0EFEF23F020BE52EF24F0205008E18F
:104898001F04D8A052EF24F054EF24F05BEF24F06B
:1048A8004AB259EF24F05BEF24F0EFEF23F019C080
:1048B80011F09B0E2124126E010E2220136E1FC0D0
:1048C80014F020C015F0A9EC2CF012000001776B51
:1048D80075BF73EF24F071EF24F07DEF24F0751F9E
:1048E800741F731F726D000E732374237523010EDA
:1048F800776F71BF84EF24F082EF24F08EEF24F0FD
:10490800711F701F6F1F6E6D000E6F237023712350
:10491800010E771B000E786F000E796F000E7A6F0C
:10492800000E7B6F7251731174117511D8B49FEF1B
:1049380024F0A1EF24F0D7EF24F0010E766FABEF4F
:1049480024F0D8907237733774377537762B75AF74
:10495800B0EF24F0B2EF24F0A5EF24F0D890783728
:1049680079377A377B3772516E5D73516F5974514D
:10497800705975517159D8A0C4EF24F0C6EF24F0CE
:10498800CFEF24F072516E5F73516F5B7451705B9F
:104998007551715B7881D890753374337333723382
:1049A800762FB2EF24F07751D8B4DDEF24F0DFEFA3
:1049B80024F0E7EF24F07B1F7A1F791F786D000E33
:1049C80079237A237B2378C06EF079C06FF07AC0A0
:1049D80070F07BC071F012000A6A08BEF8EF24F08C
:1049E800F6EF24F002EF25F0081E071E061E056CE0
:1049F800000E062207220822010E0A6E04BE09EFE5
:104A080025F007EF25F013EF25F0041E031E021E04
:104A1800016C000E022203220422010E0A1A000E63
:104A28000B6E000E0C6E000E0D6E000E0E6E055015
:104A3800061007100810D8B424EF25F026EF25F04B
:104A48005CEF25F0010E096E30EF25F0D8900536A1
:104A5800063607360836092A08AE35EF25F037EF4F
:104A680025F02AEF25F0D8900B360C360D360E3689
:104A78000550015C06500258075003580850045866
:104A8800D8A049EF25F04BEF25F054EF25F005505D
:104A9800015E0650025A0750035A0850045A0B8008
:104AA800D8900832073206320532092E37EF25F042
:104AB8000A50D8B462EF25F064EF25F06CEF25F0CA
:104AC8000E1E0D1E0C1E0B6C000E0C220D220E224B
:104AD8000BC001F00CC002F00DC003F00EC004F0D2
:104AE8001200AF0EF66EF60EF76EF86A0900F5CFF3
:104AF800D9F10900F5CFDAF102D88DEF25F00500DC
:104B0800FA6E0101D951FD6EDA51FE6EFF6AFA5054
:104B180012000009D8B493EF25F095EF25F0ECEFDB
:104B280025F0AB0EF66EF60EF76EF86A0900F5CFB3
:104B3800D9F10900F5CFDAF102D8ADEF25F005007B
:104B4800FA6E0101D951FD6EDA51FE6EFF6AFA5014
:104B580012004D6E0A0E4D18D8B4B5EF25F0B7EF18
:104B680025F0D3EF25F00D0E4D18D8B4BEEF25F083
:104B7800C0EF25F0D3EF25F0BB0E01015E25D96EFD
:104B8800DA6A010EDA224DC0DFFF5E2B080E5E6581
:104B9800D0EF25F0D2EF25F0D3EF25F05E6B0D0EA8
:104BA8004D18D8A4DAEF25F0DCEF25F0ECEF25F06E
:104BB800BB0E01015E25D96EDA6A010EDA22DF6AC0
:104BC8005E6BBB0E0001C56F010EC66F91EC04F061
:104BD8001200B7C0BFF0B8C0C0F0B9C0C1F0BAC0C9
:104BE800C2F0BBC0C3F0BCC0C4F0BDC0C5F0BEC0FD
:104BF800C6F0210E0AEF26F00001D890C633C5335F
:104C0800C433C333C233C133C033BF33E82E00EFDC
:104C180026F0BFC0C7F0C0C0C8F0C1C0C9F0C2C04C
:104C2800CAF0C3C0CBF0C4C0CCF0C5C0CDF0C6C07C
:104C3800CEF09A0EAC6FFF0EAD6FC7C0AEF0C8C015
:104C4800AFF0C9C0B0F0CAC0B1F0CBC0B2F0CCC0B0
:104C5800B3F0CDC0B4F0CEC0B5F0B9EC31F020EE71
:104C6800B7F0FF0EDE140001C76FFF0EDE14C86F29
:104C7800FF0EDE14C96FFF0EDE14CA6F000EDE14BD
:104C8800CB6F000EDE14CC6F000EDE14CD6F000E5D
:104C9800DE14CE6F9A0EAC6FFF0EAD6FC7C0AEF0CC
:104CA800C8C0AFF0C9C0B0F0CAC0B1F0CBC0B2F054
:104CB800CCC0B3F0CDC0B4F0CEC0B5F0B9EC31F093
:104CC80012000001776B71BF6EEF26F06CEF26F0D3
:104CD80078EF26F0711F701F6F1F6E6D000E6F2327
:104CE80070237123010E776F75BF7FEF26F07DEF7C
:104CF80026F087EF26F0751F741F731F726D000E64
:104D08007323742375237251731174117511D8B4F8
:104D180090EF26F092EF26F0C2EF26F0010E766FA4
:104D28009CEF26F0D8907237733774377537762B27
:104D380075AFA1EF26F0A3EF26F096EF26F072519B
:104D48006E5D73516F597451705975517159D8A06E
:104D5800B0EF26F0B2EF26F0BAEF26F072516E5F90
:104D680073516F5B7451705B7551715BD89075337B
:104D7800743373337233762FA3EF26F07751D8B498
:104D8800C8EF26F0CAEF26F0D2EF26F0711F701F89
:104D98006F1F6E6D000E6F23702371236EC06EF04F
:104DA8006FC06FF070C070F071C071F012000A6AC5
:104DB80004BEE3EF26F0E1EF26F0EDEF26F0041E47
:104DC800031E021E016C000E022203220422010EA1
:104DD8000A6E08BEF4EF26F0F2EF26F0FCEF26F09C
:104DE800081E071E061E056C000E06220722082252
:104DF8000550061007100810D8B405EF27F007EF84
:104E080027F037EF27F0010E096E11EF27F0D89041
:104E18000536063607360836092A08AE16EF27F093
:104E280018EF27F00BEF27F00550015C06500258E9
:104E38000750035808500458D8A025EF27F027EF4B
:104E480027F02FEF27F00550015E0650025A075051
:104E5800035A0850045AD8900832073206320532ED
:104E6800092E18EF27F00A50D8B43DEF27F03FEF8E
:104E780027F047EF27F0041E031E021E016C000EE8
:104E880002220322042201C001F002C002F003C082
:104E980003F004C004F01200000E0001796F000E48
:104EA800786FA9EF27F0B10EF66EF60EF76EF86A76
:104EB8000900F5CF74F00900F5CF75F002D86FEF4F
:104EC80027F00500FA6E00017451FD6E7551FE6EF3
:104ED800FF6AFA5012000009D8B475EF27F077EF8F
:104EE80027F057EF27F0AD0EF66EF60EF76EF86A5C
:104EF8000900F5CF74F00900F5CF75F002D8A6EFD8
:104F080027F00500FA6E00017451FD6E7551FE6EB2
:104F1800FF6AFA5078517225766F79517321776F4D
:104F280076C0F6FF77C0F7FF000EF86E0F0EF76435
:104F380003D00800F55005D0F6CFE9FFF7CFEAFF18
:104F4800EF5012000001784B792B72C06EF073C0DD
:104F58006FF00AEC2FF000016E51785D7951800AEC
:104F6800746F6F51800A7459D8A0BDEF27F0BFEF56
:104F780027F057EF27F012000001765177117811CA
:104F880079117A117B117C117D11D8B4CEEF27F0FD
:104F9800D0EF27F018EF28F0010E7E6FDEEF27F034
:104FA800D89076377737783779377A377B377C37C1
:104FB8007D377E2B7DAFE3EF27F0E5EF27F0D4EFC9
:104FC80027F076516E5D77516F5978517059795144
:104FD80071597A5172597B5173597C5174597D5169
:104FE8007559D8A0FAEF27F0FCEF27F00CEF28F05E
:104FF80076516E5F77516F5B7851705B7951715B59
:105008007A51725B7B51735B7C51745B7D51755B2C
:10501800D8907D337C337B337A3379337833773365
:1050280076337E2FE5EF27F06EC06EF06FC06FF01D
:1050380070C070F071C071F072C072F073C073F01C
:1050480074C074F075C075F01200400E0001776FDF
:105058000D0E786F030E796F000E7A6F7BEC2DF0D2
:105068006AEF28F0A00E00D0E82EFDD700017707E0
:10507800000E785B795B7A5B77C06EF078C06FF072
:1050880079C070F07AC071F0D00E726F070E736F2E
:10509800000E746F000E756FF2EC2CF000016E516B
:1050A8006F1170117111D8A45CEF28F05EEF28F031
:1050B8006AEF28F082A063EF28F066EF28F082807C
:1050C80067EF28F08290430EFCEC2DF09EBA6FEF4C
:1050D80028F071EF28F07DEF28F000017751781162
:1050E80079117A11D8A47BEF28F07DEF28F036EFFC
:1050F80028F0828000017751781179117A11D8B49B
:1051080088EF28F08BEF28F0010E8CEF28F0000EC6
:105118004F6E7BEC2DF01200C6EC32F0C7A897EF6B
:1051280028F099EF28F09DEF28F02EEC31F0D3EF1E
:1051380028F00CEC32F00009D8B4A5EF28F0A7EF5E
:1051480028F0B8EF28F0F8EC31F00009D8B4AFEF48
:1051580028F0B1EF28F0B8EF28F0050E0101216F13
:10516800010E206FD3EF28F002EC32F00009D8B41A
:10517800C0EF28F0C2EF28F0D3EF28F0F8EC31F0B8
:105188000009D8B4CAEF28F0CCEF28F0D3EF28F004
:10519800050E0101216F020E206FD3EF28F00101E7
:1051A8002151020D010EF324F66EF70EF420F76E6E
:1051B800F86A000EF8220900F5CF70F00900F5CF63
:1051C80071F002D8F2EF28F00500FA6E0001705174
:1051D800FD6E7151FE6EFF6AFA5012000101216FD7
:1051E8001200000E0001736F000E726F3A0E01017B
:1051F800456F980E446F24EF29F001014407D8A0A9
:10520800450744514511D8B40CEF29F00FEF29F0A8
:10521800010E10EF29F0000E4F6E4F50D8B417EF63
:1052280029F019EF29F024EF29F0150EFCEC2DF0E8
:105238000001724B732B3A0E0101456F980E446FB3
:105248009EBA29EF29F02BEF29F043EF29F04451BA
:105258004511D8B432EF29F034EF29F043EF29F0A3
:10526800000173BF41EF29F0735109E1030E725D2C
:10527800D8A041EF29F043EF29F001EF29F0000110
:1052880073BF53EF29F0735107E1030E725DD8B075
:1052980050EF29F053EF29F0010E54EF29F0000EDA
:1052A8004F6E7BEC2DF012000001736B71BF61EF44
:1052B80029F05FEF29F067EF29F0706D711FD8B002
:1052C800712B010E736F6FBF6EEF29F06CEF29F031
:1052D80074EF29F06E6D6F1FD8B06F2B010E731B22
:1052E800000E756F000E746F70517111D8B47FEF96
:1052F80029F081EF29F0A9EF29F0010E726F89EFEB
:1053080029F0D89070377137722B71AF8EEF29F072
:1053180090EF29F085EF29F0D890743775377051E0
:105328006E5D71516F59D8A09CEF29F09EEF29F05E
:10533800A3EF29F070516E5F71516F5B7481D89043
:1053480071337033722F90EF29F07351D8B4AFEFE7
:1053580029F0B1EF29F0B5EF29F0746D751FD8B0B9
:10536800752B74C06EF075C06FF012000001725199
:10537800D8B4C1EF29F0C3EF29F0CBEF29F072516F
:10538800D8A4C9EF29F0CBEF29F0D0EF29F070515C
:105398006BEC31F017EF2AF07251D96EDA6A090E08
:1053A800D926DE50DE10D8B4DCEF29F0DEEF29F084
:1053B800F7EF29F07251D96EDA6A090ED9267251BF
:1053C800E16EE26A020EE126DE50E65CE650800AF3
:1053D800776FDE50800A7759D8B0F5EF29F0F7EFEC
:1053E80029F017EF2AF07251D96EDA6A020ED9261F
:1053F800DECF73F0DDCF74F07251D96EDA6ADECF8A
:1054080075F0DDCF76F073517525D96E745176211C
:10541800DA6E70C0DFFF7251D96EDA6A020ED926D1
:10542800DE2A000EDD2212000550D8B41EEF2AF045
:1054380020EF2AF028EF2AF00550D8A426EF2AF00A
:1054480028EF2AF02DEF2AF00350AAEC31F074EF80
:105458002AF00550D96EDA6A090ED926DE50DE1018
:10546800D8B439EF2AF03BEF2AF054EF2AF0055070
:10547800D96EDA6A090ED9260550E16EE26A020E83
:10548800E126DE50E65CE650800A0A6EDE50800AAD
:105498000A58D8B052EF2AF054EF2AF074EF2AF0E5
:1054A8000550D96EDA6A020ED926DECF06F0DDCFB6
:1054B80007F00550D96EDA6ADECF08F0DDCF09F0C3
:1054C80006500824D96E07500920DA6E03C0DFFFA2
:1054D8000550D96EDA6A020ED926DE2A000EDD22C0
:1054E8001200000E0001746F000E736F6E51D96EBA
:1054F800DA6ADECFF6FFDDCFF7FFF86A0800F5506D
:105508002A0AD8A48AEF2AF08CEF2AF0B5EF2AF0FD
:105518006E51D96EDA6ADE2A000EDD226F51D96E1D
:10552800DA6A020EDF26DF5CD96EDA6ADECF73F044
:10553800DECF74F0C9EF2AF00A0E7303F3CF70F0D0
:10554800F4CF71F07403F350712772517025736FA3
:10555800000E7121746F6E51D96EDA6ADE2A000E60
:10556800DD226E51D96EDA6ADECFF6FFDDCFF7FFA6
:10557800F86A0800F550D00F726F090E7265C7EF10
:105588002AF0C9EF2AF0A0EF2AF073C06EF074C0B9
:105598006FF01200000E076E000E066E0150D96EF5
:1055A800DA6ADECFF6FFDDCFF7FFF86A0800F550BC
:1055B8002A0AD8A4E2EF2AF0E4EF2AF00DEF2BF044
:1055C8000150D96EDA6ADE2A000EDD220250D96E49
:1055D800DA6A020EDF26DF5CD96EDA6ADECF06F001
:1055E800DECF07F021EF2BF00A0E0602F3CF03F00F
:1055F800F4CF04F00702F350042605500324066E86
:10560800000E0420076E0150D96EDA6ADE2A000EF9
:10561800DD220150D96EDA6ADECFF6FFDDCFF7FF63
:10562800F86A0800F550D00F056E090E05641FEFE3
:105638002BF021EF2BF0F8EF2AF006C001F007C09D
:1056480002F01200000E0001766F000E776F000E58
:10565800786F000E796F7251731174117511D8B487
:1056680038EF2BF03AEF2BF070EF2BF0010E7A6F3A
:1056780044EF2BF0D89072377337743775377A2B1D
:1056880075AF49EF2BF04BEF2BF03EEF2BF0D89096
:10569800763777377837793772516E5D73516F592E
:1056A8007451705975517159D8A05DEF2BF05FEFA7
:1056B8002BF068EF2BF072516E5F73516F5B745172
:1056C800705B7551715B7681D89075337433733321
:1056D80072337A2F4BEF2BF076C06EF077C06FF0F5
:1056E80078C070F079C071F01200000E096E000EDB
:1056F8000A6E000E0B6E000E0C6E05500610071099
:105708000810D8B48AEF2BF08CEF2BF0C2EF2BF0F7
:10571800010E0D6E96EF2BF0D8900536063607363B
:1057280008360D2A08AE9BEF2BF09DEF2BF090EF7B
:105738002BF0D89009360A360B360C360550015C2A
:10574800065002580750035808500458D8A0AFEF25
:105758002BF0B1EF2BF0BAEF2BF00550015E06509D
:10576800025A0750035A0850045A0980D890083240
:105778000732063205320D2E9DEF2BF009C001F0DD
:105788000AC002F00BC003F00CC004F012004AA0DB
:10579800D0EF2BF0D2EF2BF0DAEF2BF07FC078F0C0
:1057A80080C079F07EC07AF0F8EC2FF0000182BF5B
:1057B800E2EF2BF0E0EF2BF0E6EF2BF0000E826F1C
:1057C800000E816F000E856F000E846FF7EF2BF0CF
:1057D800000E716F200E706F7EC072F0BAEC29F067
:1057E8000001844B852B8151845D8551800A836F2C
:1057F8008251800A8359D8A004EF2CF006EF2CF0D0
:10580800ECEF2BF04AB00BEF2CF00DEF2CF015EF6E
:105818002CF07FC078F080C079F07EC07AF0F8EC88
:105828002FF01200010E0001746F000E766F000E4B
:10583800756F51EF2CF0000E7425D96EDA6A050EDB
:10584800DA22DF50706F7051726F716B7551711978
:10585800756F76517219766F742B080E736F76AF69
:1058680038EF2CF03AEF2CF049EF2CF075C070F0BF
:1058780076C071F0D89070377137210E7019756F36
:10588800100E7119766F4EEF2CF0D8907535756F34
:105898007635766F732F33EF2CF06E07D8A06F072D
:1058A8006FBF5BEF2CF059EF2CF01FEF2CF075C099
:1058B8006EF076C06FF012003E0EF66E650EF76E53
:1058C800000EF86E01EEE3F010EE08F00900F5CFD7
:1058D800EEFFE550E150FAE105EE82F011EE2CF012
:1058E800EE6AE550E150FCE1E250FAE105EE00F025
:1058F800820EEE6AE806FDE104EE00F0820EEE6A22
:10590800E806FDE103EE00F0820EEE6AE806FDE12E
:1059180002EE00F0960EEE6AE806FDE101EE00F0F8
:10592800C30EEE6AE806FDE100EED7F01B0EEE6A44
:10593800E806FDE100EE46F00D0EEE6AE806FDE130
:1059480053905392000139EF11F04AA0AEEF2CF0BA
:10595800B0EF2CF0B8EF2CF012C00BF013C00CF025
:1059680011C00DF03CEC30F015BEBFEF2CF0BDEFD0
:105978002CF0C3EF2CF0000E156E000E146E000E06
:10598800186E000E176ED3EF2CF0000E046E200E6A
:10599800036E11C005F018EC2AF0174A182A1450A3
:1059A800175C1850800A166E1550800A1658D8A031
:1059B800E0EF2CF0E2EF2CF0C9EF2CF04AB0E7EF63
:1059C8002CF0E9EF2CF0F1EF2CF012C00BF013C023
:1059D8000CF011C00DF03CEC30F0120000017251D7
:1059E800731174117511D8B4FCEF2CF0FEEF2CF084
:1059F8002EEF2DF0010E766F08EF2DF0D89072374C
:105A0800733774377537762B75AF0DEF2DF00FEFB1
:105A18002DF002EF2DF072516E5D73516F59745174
:105A2800705975517159D8A01CEF2DF01EEF2DF04B
:105A380026EF2DF072516E5F73516F5B7451705B7E
:105A48007551715BD8907533743373337233762F15
:105A58000FEF2DF06EC06EF06FC06FF070C070F079
:105A680071C071F012000550061007100810D8B464
:105A780040EF2DF042EF2DF072EF2DF0010E096E80
:105A88004CEF2DF0D8900536063607360836092A29
:105A980008AE51EF2DF053EF2DF046EF2DF00550E5
:105AA800015C065002580750035808500458D8A003
:105AB80060EF2DF062EF2DF06AEF2DF00550015EDA
:105AC8000650025A0750035A0850045AD890083210
:105AD800073206320532092E53EF2DF001C001F0CE
