:04000000CFEF0DF041
:100008004F82E1CF68F0E2CF69F0D9CF6AF0DACF5A
:100018006BF0F3CF6CF0F4CF6DF0F6CF6EF0F7CF56
:100028006FF0F8CF70F0F5CF71F0F2A41EEF00F08A
:1000380020EF00F02EEF00F0000E01015425546F60
:10004800000E5521556F010E5621566F000E57218F
:10005800576FF294F2A633EF00F035EF00F0B9EFE6
:100068000DF0F2A03AEF00F03CEF00F0B9EF0DF020
:1000780081A841EF00F044EF00F0010E45EF00F0D9
:10008800000E0101866F86B102D0829001D0828075
:10009800E8C050F1E9C051F1EAC052F1EBC053F1A8
:1000A800D650010154250001E86FD75001015521B0
:1000B8000001E96F000E010156210001EA6F000EF0
:1000C800010157210001EB6F000E0101546F000E72
:1000D800556F000E566F000E576F000ED76E000E4C
:1000E800D66E464A472A030E0001ED19D8A47FEFC1
:1000F80000F081EF00F0ADEF00F0EB51EA110BE1F9
:100108002D0EE85D010EE959D8A08DEF00F08FEFB4
:1001180000F09DEF00F0250E3F6EFF0E406EE8C028
:1001280041F0E9C042F0EAC043F0EBC044F05EECB5
:100138004BF0140E46184710D8A4A5EF00F0A7EF0F
:1001480000F0B8EF0DF00001ED6BB8EF0DF0B8EF6F
:100158000DF001018251D8B4B4EF00F0B6EF00F011
:10016800F4EF00F0475007E1C80E465CD8B0BFEF87
:1001780000F0C1EF00F0E3EF00F0820E0001606FC5
:10018800050E616FD8904634D96E4734DA6ED89030
:10019800D936DA366051D9266151DA22E8C0DEFF55
:1001A800E9C0DEFFEAC0DEFFEBC0DEFF000E46243A
:1001B800D96E020E4720DA6EDF6AB8EF0DF0000E36
:1001C8005F6FC80E5E6F0001ED6B0101826B00016D
:1001D800EC6B5AEC4CF0010E0101876FB8EF0DF093
:1001E8008C51D8A4FAEF00F0FCEF00F067EF01F0B3
:1001F8000001EB51EA110BE1FB0EE85D190EE9591C
:10020800D8A009EF01F00BEF01F067EF01F0EB5117
:10021800EA1109E1260EE85D1B0EE959D8B017EF7F
:1002280001F019EF01F067EF01F0000E476E000EC4
:10023800466E820E606F050E616FD8904634D96E97
:100248004734DA6ED890D936DA366051D9266151FA
:10025800DA22E8C0DEFFE9C0DEFFEAC0DEFFEBC05D
:10026800DEFF000E4624D96E020E4720DA6EDF6AE2
:10027800020EED19D8A443EF01F045EF01F04BEF62
:1002880001F0FA0E3F6EFF0E406E5EEC4BF0050E6D
:100298000001EC6F01018351D8B455EF01F057EF1D
:1002A80001F05CEF01F0010E826F836BB8EF0DF087
:1002B80020EEDCF0070EDE6AE806FDE2010E8C6F28
:1002C800896BB8EF0DF001018C51D8B46EEF01F0D5
:1002D80070EF01F0EAEF01F0050E0001EC19D8A467
:1002E80078EF01F07AEF01F0EAEF01F0EB51EA1153
:1002F8000BE1AF0EE85D0B0EE959D8A086EF01F0CF
:1003080088EF01F0EAEF01F0EB51EA1109E1DA0EAA
:10031800E85D0C0EE959D8B094EF01F096EF01F0C2
:10032800EAEF01F0020EED19D8A49DEF01F09FEF5E
:1003380001F0A5EF01F0E20E3F6EFF0E406E5EEC9D
:100348004BF02C0E46184710D8B4ADEF01F0AFEFC4
:1003580001F0B5EF01F001018C6B0001EC6BB8EF17
:100368000DF0000E476E000E466E050E0001EC6F94
:10037800820E606F050E616FD8904634D96E47348F
:10038800DA6ED890D936DA366051D9266151DA2238
:10039800E8C0DEFFE9C0DEFFEAC0DEFFEBC0DEFF3B
:1003A800000E4624D96E020E4720DA6EDF6A000E70
:1003B8000101616F000E606F010E896F20EEDCF0A5
:1003C800070EDE6AE806FDE2B8EF0DF001018C5178
:1003D800D8A4F1EF01F0F3EF01F05EEF02F00001B5
:1003E800EB51EA110BE16D0EE85D750EE959D8A0E5
:1003F80000EF02F002EF02F05EEF02F0EB51EA11BB
:1004080009E1340EE85D760EE959D8B00EEF02F036
:1004180010EF02F05EEF02F0000E476E000E466E1F
:10042800820E606F050E616FD8904634D96E4734DE
:10043800DA6ED890D936DA366051D9266151DA2287
:10044800E8C0DEFFE9C0DEFFEAC0DEFFEBC0DEFF8A
:10045800000E4624D96E020E4720DA6EDF6A020EBD
:10046800ED19D8A43AEF02F03CEF02F04AEF02F09F
:10047800E20E3F6EFF0E406EE8C041F0E9C042F068
:10048800EAC043F0EBC044F05EEC4BF0060E00010E
:10049800EC6F20EEDCF0070EDE6AE806FDE2010EE6
:1004A80001018C6F000E616F000E606F010E896F85
:1004B800B8EF0DF001018C51D8A465EF02F067EF99
:1004C80002F0D8EF02F00001EB51EA110BE18B0EBC
:1004D800E85D7F0EE959D8A074EF02F076EF02F0DC
:1004E800D8EF02F0EB51EA1109E1460EE85D820E01
:1004F800E959D8B082EF02F084EF02F0D8EF02F0A9
:10050800000E476E000E466E820E606F050E616F1C
:10051800D8904634D96E4734DA6ED890D936DA3660
:100528006051D9266151DA22E8C0DEFFE9C0DEFF5A
:10053800EAC0DEFFEBC0DEFF000E4624D96E020ED5
:100548004720DA6EDF6A030EEC6F020EED19D8A4AD
:10055800B0EF02F0B2EF02F0C0EF02F0B30E3F6E60
:10056800FD0E406EE8C041F0E9C042F0EAC043F039
:10057800EBC044F05EEC4BF001018451D8B4C7EFF6
:1005880002F0C9EF02F0CEEF02F0010E826F846B29
:10059800B8EF0DF020EEDCF0070EDE6AE806FDE2AB
:1005A800010E8C6FB8EF0DF001018C51D8B4DFEF5C
:1005B80002F0E1EF02F02CEF03F00001EB51EA1139
:1005C8000BE1F70EE85D1D0EE959D8A0EEEF02F039
:1005D800F0EF02F02CEF03F0EB51EA1109E1B20E53
:1005E800E85D200EE959D8B0FCEF02F0FEEF02F00A
:1005F8002CEF03F0000E476E000E466E820E606F01
:10060800050E616FD8904634D96E4734DA6ED890AB
:10061800D936DA366051D9266151DA22E8C0DEFFD0
:10062800E9C0DEFFEAC0DEFFEBC0DEFF000E4624B5
:10063800D96E020E4720DA6EDF6A030EEC6F000EE9
:100648000101616F000E606F010E896FE2EF01F02A
:1006580001018C51D8A433EF03F035EF03F07AEFA2
:1006680003F00001EB51EA110BE1790EE85D920EFF
:10067800E959D8A042EF03F044EF03F07AEF03F012
:10068800EB51EA1109E1A80EE85D940EE959D8B0DA
:1006980050EF03F052EF03F07AEF03F0000E476ECD
:1006A800010E466E010E01018C6FE8C064F1E9C0CD
:1006B80065F1020E0001ED19D8A465EF03F067EFAC
:1006C80003F075EF03F0CC0E3F6EFD0E406EE8C0F0
:1006D80041F0E9C042F0EAC043F0EBC044F05EEC00
:1006E8004BF0010E0001EC6FE2EF01F001018C51BB
:1006F800D8A481EF03F083EF03F0D4EF03F00001F7
:10070800EB51EA110BE1510EE85D730EE959D8A0DF
:1007180090EF03F092EF03F0D4EF03F0EB51EA11FE
:1007280009E1A40EE85D740EE959D8B09EEF03F014
:10073800A0EF03F0D4EF03F0000E476E010E466EF3
:10074800020EEC6F820E606F050E616FD890463412
:10075800D96E4734DA6ED890D936DA366051D92650
:100768006151DA22E8C0DEFFE9C0DEFFEAC0DEFF41
:10077800EBC0DEFF020EED19D8A4C5EF03F0C7EFFA
:1007880003F0CDEF03F0A50E3F6EFF0E406E5EEC5A
:100798004BF0010E01018C6F010E896FE2EF01F041
:1007A8000101535152110AE15005130E5159D8A0B5
:1007B800E0EF03F0E2EF03F062EF04F0535152115F
:1007C80009E1B80E505D140E5159D8B0EEEF03F0A0
:1007D800F0EF03F062EF04F08651D8B4F6EF03F0BF
:1007E800F8EF03F062EF04F08C51D8A4FEEF03F0A9
:1007F80000EF04F062EF04F00001EB51EA110BE1A5
:10080800A50EE85D240EE959D8A00DEF04F00FEF0E
:1008180004F062EF04F0EB51EA1109E15C0EE85DC7
:10082800260EE959D8B01BEF04F01DEF04F062EF73
:1008380004F0000E476E010E466E010E01018C6F2A
:10084800040E0001EC6F020EED19D8A42EEF04F08F
:1008580030EF04F03EEF04F0400E3F6EFE0E406EA7
:10086800E8C041F0E9C042F0EAC043F0EBC044F010
:100878005EEC4BF0820E0001606F050E616FD89040
:100888004634D96E4734DA6ED890D936DA366051A4
:10089800D9266151DA22E8C0DEFFE9C0DEFFEAC0EE
:1008A800DEFFEBC0DEFF000E0101616F000E606F1E
:1008B800000E5D6F000E5C6FD0EF03F0040E0001B8
:1008C800EC19D8B46AEF04F06DEF04F0010E6EEF86
:1008D80004F0000E606F616B01018951000160171F
:1008E800000E611760516111D8B47DEF04F07FEFFD
:1008F80004F0D6EF05F0475007E1960E465CD8B0F5
:1009080088EF04F08AEF04F0A9EF04F0820E606F1C
:10091800050E616FD8904634D96E4734DA6ED89098
:10092800D936DA366051D9266151DA22E8C0DEFFBD
:10093800E9C0DEFFEAC0DEFFEBC0DEFF000E4624A2
:10094800D96E020E4720DA6EDF6AEB51EA110BE12D
:100958005B0EE85D090EE959D8A0B5EF04F0B7EFD2
:1009680004F01CEF05F0EB51EA1109E1120EE85D05
:100978000B0EE959D8B0C3EF04F0C5EF04F01CEF33
:1009880005F0000E01015D6F000E5C6F8651D8B452
:10099800D0EF04F0D2EF04F0E8EF04F0604B612BE5
:1009A800D8900001DC35DC6FDD35DD6FDE35DE6FBC
:1009B800DF35DF6FE035E06FE135E16FE235E26F9B
:1009C800E335E36F0DEF05F0604B612BD890000124
:1009D800DC35DC6FDD35DD6FDE35DE6FDF35DF6F93
:1009E800E035E06FE135E16FE235E26FE335E36F63
:1009F800010EDC11DC6FDD51DD6FDE51DE6FDF5182
:100A0800DF6FE051E06FE151E16FE251E26FE351D6
:100A1800E36F380E010160196111D8A416EF05F0D3
:100A280018EF05F0B8EF0DF0BCEC4BF0B8EF0DF097
:100A3800EB51EA110BE14A0EE85D040EE959D8A022
:100A480028EF05F02AEF05F099EF05F0EB51EA11D0
:100A580008E1E805060EE959D8B035EF05F037EF9B
:100A680005F099EF05F001015C4B5D2B5C055D110C
:100A7800D8A441EF05F043EF05F045EF05F0B8EFD6
:100A88000DF0000E5D6F000E5C6F8651D8A44FEF1D
:100A980005F051EF05F078EF05F0604B612BD89029
:100AA8000001DC35DC6FDD35DD6FDE35DE6FDF350F
:100AB800DF6FE035E06FE135E16FE235E26FE33596
:100AC800E36F010EDC11DC6FDD51DD6FDE51DE6F8F
:100AD800DF51DF6FE051E06FE151E16FE251E26F0A
:100AE800E351E36F8CEF05F0604B612BD890000168
:100AF800DC35DC6FDD35DD6FDE35DE6FDF35DF6F72
:100B0800E035E06FE135E16FE235E26FE335E36F41
:100B1800380E010160196111D8A495EF05F097EF1F
:100B280005F0B8EF0DF018EF05F0750E3F6EFF0EEB
:100B3800406EE8C041F0E9C042F0EAC043F0EBC0C3
:100B480044F05EEC4BF0475007E1C80E465CD8B065
:100B5800B0EF05F0B2EF05F0D2EF05F0820E00011C
:100B6800606F050E616FD8904634D96E4734DA6EDF
:100B7800D890D936DA366051D9266151DA22E8C0E0
:100B8800DEFFE9C0DEFFEAC0DEFFEBC0DEFF000EDD
:100B98004624D96E020E4720DA6EDF6A5AEC4CF012
:100BA800B8EF0DF001018951D8B4DDEF05F0DFEFA2
:100BB80005F030EF07F0030E0001EC19D8A4E7EFB9
:100BC80005F0E9EF05F030EF07F0475007E1C80EF0
:100BD800465CD8B0F2EF05F0F4EF05F013EF06F03D
:100BE800820E606F050E616FD8904634D96E473417
:100BF800DA6ED890D936DA366051D9266151DA22C0
:100C0800E8C0DEFFE9C0DEFFEAC0DEFFEBC0DEFFC2
:100C1800000E4624D96E020E4720DA6EDF6AEB51C9
:100C2800EA110BE1CA0EE85D040EE959D8A01FEFDE
:100C380006F021EF06F0BBEF06F0010E4624606FC8
:100C4800000E4720616F60B12CEF06F02EEF06F022
:100C580033EF06F0010E01018B6FB8EF0DF00101C3
:100C68008B51D8A43AEF06F03CEF06F092EF06F06D
:100C7800604B612BDCC060F0DDC061F0DEC062F06B
:100C8800DFC063F0E0C064F0E1C065F0E2C066F088
:100C9800E3C067F00001D890673366336533643387
:100CA800633362336133603360C0DCF061C0DDF010
:100CB80062C0DEF063C0DFF064C0E0F065C0E1F060
:100CC80066C0E2F067C0E3F020EEDCF0000EDE1054
:100CD800DC6F000EDE10DD6F000EDE10DE6F000E22
:100CE800DE10DF6F000EDE10E06F000EDE10E16F29
:100CF800000EDE10E26F800EDE10E36F010161511D
:100D080009E1400E605DD8A08CEF06F08EEF06F08A
:100D1800B8EF0DF0DAEC4BF0B8EF0DF0000E46240A
:100D2800D96E020E4720DA6E020EDF6E0001ED0565
:100D3800D8A4A1EF06F0A3EF06F0B1EF06F01F0E5E
:100D48003F6EFE0E406EE8C041F0E9C042F0EAC0D6
:100D580043F0EBC044F05EEC4BF046C05EF147C098
:100D68005FF1000E476E000E466ED2EF05F0010EE1
:100D78004624606F000E4720616F60B1C6EF06F031
:100D8800C8EF06F0CCEF06F001018B6BB8EF0DF061
:100D980001018B05D8A4D3EF06F0D5EF06F00FEFCD
:100DA80007F0604B612BDCC060F0DDC061F0DEC095
:100DB80062F0DFC063F0E0C064F0E1C065F0E2C05B
:100DC80066F0E3C067F00001D89067336633653397
:100DD8006433633362336133603360C0DCF061C015
:100DE800DDF062C0DEF063C0DFF064C0E0F065C033
:100DF800E1F066C0E2F067C0E3F00101615109E18A
:100E0800400E605DD8A00BEF07F00DEF07F0B8EFCC
:100E18000DF08EEF06F0000E4624D96E020E472024
:100E2800DA6E020EDF6E0001ED05D8A41EEF07F0A2
:100E380020EF07F0B1EF06F02A0E3F6EFE0E406E6F
:100E4800E8C041F0E9C042F0EAC043F0EBC044F02A
:100E58005EEC4BF0B1EF06F001018951D8B437EFE1
:100E680007F039EF07F07DEF08F0060E0001EC19E6
:100E7800D8A441EF07F043EF07F07DEF08F04750A3
:100E880007E1C80E465CD8B04CEF07F04EEF07F00C
:100E98006DEF07F0820E606F050E616FD8904634D3
:100EA800D96E4734DA6ED890D936DA366051D926F9
:100EB8006151DA22E8C0DEFFE9C0DEFFEAC0DEFFEA
:100EC800EBC0DEFF000E4624D96E020E4720DA6E14
:100ED800DF6AEB51EA110BE1D30EE85D050EE95923
:100EE800D8A079EF07F07BEF07F0F0EF07F0010EDD
:100EF8004624606F000E4720616F60B186EF07F0EF
:100F080088EF07F08AEF07F02EEF06F001018B510A
:100F1800D8A491EF07F093EF07F0CFEF07F0604BFD
:100F2800612BDCC060F0DDC061F0DEC062F0DFC0C4
:100F380063F0E0C064F0E1C065F0E2C066F0E3C0D1
:100F480067F00001D89067336633653364336333E1
:100F580062336133603360C0DCF061C0DDF062C0D1
:100F6800DEF063C0DFF064C0E0F065C0E1F066C0A9
:100F7800E2F067C0E3F00101615109E1180E605D1C
:100F8800D8A0C9EF07F0CBEF07F0B8EF0DF0EEEC03
:100F98004BF0B8EF0DF0000E4624D96E020E472034
:100FA800DA6E020EDF6E0001ED05D8A4DEEF07F061
:100FB800E0EF07F0B1EF06F0C50E3F6EFE0E406E93
:100FC800E8C041F0E9C042F0EAC043F0EBC044F0A9
:100FD8005EEC4BF0B1EF06F0010E4624606F000E98
:100FE8004720616F60B1FBEF07F0FDEF07F0FFEFFF
:100FF80007F0C8EF06F001018B05D8A406EF08F04A
:1010080008EF08F05CEF08F0604B612BDCC060F083
:10101800DDC061F0DEC062F0DFC063F0E0C064F004
:10102800E1C065F0E2C066F0E3C067F00001D89067
:1010380067336633653364336333623361336033F4
:1010480060C0DCF061C0DDF062C0DEF063C0DFF0DC
:1010580064C0E0F065C0E1F066C0E2F067C0E3F0AC
:1010680020EEDCF0000EDE10DC6F000EDE10DD6F0F
:10107800000EDE10DE6F000EDE10DF6F000EDE10D9
:10108800E06F000EDE10E16F000EDE10E26F800EE2
:10109800DE10E36F0101615109E1180E605DD8A00F
:1010A80058EF08F05AEF08F0B8EF0DF0CBEF07F063
:1010B800000E4624D96E020E4720DA6E020EDF6E4D
:1010C8000001ED05D8A46BEF08F06DEF08F0B1EF63
:1010D80006F0CE0E3F6EFE0E406EE8C041F0E9C04D
:1010E80042F0EAC043F0EBC044F05EEC4BF0B1EFE5
:1010F80006F001018951D8B484EF08F086EF08F0B2
:10110800F0EF09F0050E0001EC19D8A48EEF08F0F5
:1011180090EF08F0F0EF09F0EB51EA110BE18D0EBA
:10112800E85D050EE959D8A09CEF08F09EEF08F09D
:1011380027EF09F0EB51EA1109E1B80EE85D060E58
:10114800E959D8B0AAEF08F0ACEF08F027EF09F09A
:10115800DCC060F0DDC061F0DEC062F0DFC063F0CB
:10116800E0C064F0E1C065F0E2C066F0E3C067F09B
:10117800D8906733663365336433633362336133DE
:10118800603360C0DCF061C0DDF062C0DEF063C0D7
:10119800DFF064C0E0F065C0E1F066C0E2F067C06F
:1011A800E3F020EEDCF0000EDE10DC6F000EDE1047
:1011B800DD6F000EDE10DE6F000EDE10DF6F000E3A
:1011C800DE10E06F000EDE10E16F000EDE10E26F41
:1011D800800EDE10E36F475007E1960E465CD8B0EC
:1011E800F8EF08F0FAEF08F019EF09F0820E606FD7
:1011F800050E616FD8904634D96E4734DA6ED890B0
:10120800D936DA366051D9266151DA22E8C0DEFFD4
:10121800E9C0DEFFEAC0DEFFEBC0DEFF000E4624B9
:10122800D96E020E4720DA6EDF6A400E4618471064
:10123800D8A421EF09F023EF09F0B8EF0DF0D0ECB6
:101248004BF0B8EF0DF0EB51EA110BE1810EE85DC0
:10125800020EE959D8A033EF09F035EF09F0A2EFF3
:1012680009F0EB51EA1109E1AC0EE85D030EE9590A
:10127800D8B041EF09F043EF09F0A2EF09F0DCC064
:1012880060F0DDC061F0DEC062F0DFC063F0E0C096
:1012980064F0E1C065F0E2C066F0E3C067F0D890A2
:1012A8006733663365336433633362336133603382
:1012B80060C0DCF061C0DDF062C0DEF063C0DFF06A
:1012C80064C0E0F065C0E1F066C0E2F067C0E3F03A
:1012D800475007E1960E465CD8B075EF09F077EFF6
:1012E80009F096EF09F0820E606F050E616FD890D5
:1012F8004634D96E4734DA6ED890D936DA3660512A
:10130800D9266151DA22E8C0DEFFE9C0DEFFEAC073
:10131800DEFFEBC0DEFF000E4624D96E020E47202A
:10132800DA6EDF6A400E46184710D8A49EEF09F01F
:10133800A0EF09F0B8EF0DF023EF09F0ED05D8A400
:10134800A8EF09F0AAEF09F0B8EF09F0960E3F6E82
:10135800FF0E406EE8C041F0E9C042F0EAC043F039
:10136800EBC044F05EEC4BF0475007E1960E465C4C
:10137800D8B0C1EF09F0C3EF09F0DCEF09F0820E35
:101388000001606F050E616FD8904634D96E4734FE
:10139800DA6ED890D936DA366051D9266151DA2218
:1013A800E8C0DEFFE9C0DEFFEAC0DEFFEBC0DEFF1B
:1013B800000E4624D96E020E4720DA6EDF6A4750C7
:1013C80009E1400E465CD8A0ECEF09F0EEEF09F019
:1013D800B8EF0DF023EF09F0020E0001EC19D8A4C4
:1013E800F8EF09F0FAEF09F053EF0BF0010189511A
:1013F800D8B401EF0AF003EF0AF053EF0BF089516C
:10140800D8B409EF0AF00BEF0AF053EF0BF0000124
:10141800EB51EA110BE1570EE85D040EE959D8A02B
:1014280018EF0AF01AEF0AF095EF0AF0EB51EA11FB
:1014380009E1AA0EE85D050EE959D8B026EF0AF0D1
:1014480028EF0AF095EF0AF0D890DC35DC6FDD352F
:10145800DD6FDE35DE6FDF35DF6FE035E06FE135FC
:10146800E16FE235E26FE335E36F010EDC11DC6F0B
:10147800DD51DD6FDE51DE6FDF51DF6FE051E06F70
:10148800E151E16FE251E26FE351E36F475007E149
:10149800960E465CD8B053EF0AF055EF0AF074EF99
:1014A8000AF0820E606F050E616FD8904634D96ECF
:1014B8004734DA6ED890D936DA366051D926615178
:1014C800DA22E8C0DEFFE9C0DEFFEAC0DEFFEBC0DB
:1014D800DEFF000E4624D96E020E4720DA6EDF6A60
:1014E8001A0E46184710D8A47CEF0AF07EEF0AF0CF
:1014F800B8EF0DF0E4EC4BF0B8EF0DF0010EDC1195
:10150800DC6FDD51DD6FDE51DE6FDF51DF6FE051E3
:10151800E06FE151E16FE251E26FE351E36FB8EF41
:101528000DF0EB51EA110BE1D70EE85D010EE95918
:10153800D8A0A1EF0AF0A3EF0AF00CEF0BF0EB51E3
:10154800EA1109E12A0EE85D030EE959D8B0AFEFB8
:101558000AF0B1EF0AF00CEF0BF0D890DC35DC6F35
:10156800DD35DD6FDE35DE6FDF35DF6FE035E06FEF
:10157800E135E16FE235E26FE335E36F475007E1AC
:10158800960E465CD8B0CBEF0AF0CDEF0AF0ECEF40
:101598000AF0820E606F050E616FD8904634D96EDE
:1015A8004734DA6ED890D936DA366051D926615187
:1015B800DA22E8C0DEFFE9C0DEFFEAC0DEFFEBC0EA
:1015C800DEFF000E4624D96E020E4720DA6EDF6A6F
:1015D8001A0E46184710D8A4F4EF0AF0F6EF0AF0EE
:1015E800B8EF0DF07EEF0AF0D8900001DC35DC6F23
:1015F800DD35DD6FDE35DE6FDF35DF6FE035E06F5F
:10160800E135E16FE235E26FE335E36FB8EF0DF0F6
:101618005AEC4CF046C05EF147C05FF1475007E115
:10162800C80E465CD8B01BEF0BF01DEF0BF03EEF79
:101638000BF0820E0001606F050E616FD890463482
:10164800D96E4734DA6ED890D936DA366051D92651
:101658006151DA22E8C0DEFFE9C0DEFFEAC0DEFF42
:10166800EBC0DEFF000E4624D96E020E4720DA6E6C
:10167800030EDF6E0001ED05D8A445EF0BF047EF30
:101688000BF0B8EF0DF00D0E3F6EFF0E406E46C02A
:1016980041F047C042F05EEC4BF0B8EF0DF00001AE
:1016A800EC05D8A45AEF0BF05CEF0BF0B8EF0DF097
:1016B800EB51EA110BE18C0EE85D0A0EE959D8A04E
:1016C80068EF0BF06AEF0BF051EF0CF0EB51EA11F9
:1016D80009E1BB0EE85D0C0EE959D8B076EF0BF0C6
:1016E80078EF0BF051EF0CF06C0E46184710D8A4A9
:1016F80080EF0BF082EF0BF0A8EF0BF001018C6B81
:10170800820E0001606F050E616FD8904634D96E65
:101718004734DA6ED890D936DA366051D926615115
:10172800DA22E8C0DEFFE9C0DEFFEAC0DEFFEBC078
:10173800DEFF000E4624D96E020E4720DA6EDF6AFD
:10174800C6EC4BF0B8EF0DF0020E46184710D8B4AF
:10175800B0EF0BF0B2EF0BF0BCEF0BF0030E461836
:101768004710D8A4BAEF0BF0BCEF0BF0D2EF05F09E
:10177800020E46184710D8A4C4EF0BF0C6EF0BF0C2
:10178800CCEF0BF0E8C062F1E9C063F1B8EF0DF0FF
:10179800030E46184710D8A4D4EF0BF0D6EF0BF081
:1017A800D2EF05F0010164510001606F010165513C
:1017B8000001616F626B636B7A0E646F050E656F73
:1017C800D8904634D96E4734DA6ED890D936DA369E
:1017D8006451D9266551DA2260C0DEFF61C0DEFFA0
:1017E80062C0DEFF63C0DEFFFE0E4624D96E010E26
:1017F8004720DA6EDF6A010162510001606F010162
:1018080063510001616F626B636B7E0E646F050E3E
:10181800656FD8904634D96E4734DA6ED890D93689
:10182800DA366451D9266551DA2260C0DEFF61C01C
:10183800DEFF62C0DEFF63C0DEFFFF0E4624D96E06
:10184800010E4720DA6EDF6A820E606F050E616F47
:10185800D8904634D96E4734DA6ED890D936DA360D
:101868006051D9266151DA22E8C0DEFFE9C0DEFF07
:10187800EAC0DEFFEBC0DEFF000E4624D96E020E82
:101888004720DA6EDF6A010E0101886F000E616F72
:10189800000E606F8C6BB8EF0DF001018851D8B461
:1018A80058EF0CF05AEF0CF0B8EF0DF00001EB51C7
:1018B800EA110BE1930EE85D060EE959D8A067EF2F
:1018C8000CF069EF0CF0F0EF0CF0EB51EA1109E1C4
:1018D800C20EE85D080EE959D8B075EF0CF077EF45
:1018E8000CF0F0EF0CF0475007E1960E465CD8B0CC
:1018F80080EF0CF082EF0CF0A1EF0CF0820E606F1D
:10190800050E616FD8904634D96E4734DA6ED89098
:10191800D936DA366051D9266151DA22E8C0DEFFBD
:10192800E9C0DEFFEAC0DEFFEBC0DEFF000E4624A2
:10193800D96E020E4720DA6EDF6A46B0A6EF0CF0C9
:10194800A8EF0CF0AAEF0CF02EEF06F001018B5176
:10195800D8A4B1EF0CF0B3EF0CF0C9EF0CF0604B6A
:10196800612BD8900001DC35DC6FDD35DD6FDE35AD
:10197800DE6FDF35DF6FE035E06FE135E16FE235CF
:10198800E26FE335E36F82EF0AF0000E476E000E58
:10199800466E5AEC4CF00001ED05D8A4D6EF0CF0D9
:1019A800D8EF0CF0ABEF00F0000E4624D96E020E13
:1019B8004720DA6E020EDF6E800E3F6EFE0E406E1E
:1019C800E8C041F0E9C042F0EAC043F0EBC044F09F
:1019D8005EEC4BF0B8EF0DF0EB51EA110BE1A70EFE
:1019E800E85D020EE959D8A0FCEF0CF0FEEF0CF010
:1019F80073EF0DF0EB51EA1109E1D60EE85D040E24
:101A0800E959D8B00AEF0DF00CEF0DF073EF0DF0B7
:101A1800475007E1960E465CD8B015EF0DF017EF6A
:101A28000DF036EF0DF0820E606F050E616FD890E5
:101A38004634D96E4734DA6ED890D936DA366051E2
:101A4800D9266151DA22E8C0DEFFE9C0DEFFEAC02C
:101A5800DEFFEBC0DEFF000E4624D96E020E4720E3
:101A6800DA6EDF6A46B03BEF0DF03DEF0DF03FEF69
:101A78000DF0C8EF06F001018B05D8A446EF0DF074
:101A880048EF0DF04CEF0DF0604B612BF8EF0AF0CA
:101A9800000E476E000E466E5AEC4CF00001ED0544
:101AA800D8A459EF0DF05BEF0DF0ABEF00F0000E8E
:101AB8004624D96E020E4720DA6E020EDF6E350E0E
:101AC8003F6EFE0E406EE8C041F0E9C042F0EAC049
:101AD80043F0EBC044F05EEC4BF0B8EF0DF05AEC7D
:101AE8004CF046C05EF147C05FF1475007E1C80EB1
:101AF800465CD8B082EF0DF084EF0DF0A5EF0DF045
:101B0800820E0001606F050E616FD8904634D96E61
:101B18004734DA6ED890D936DA366051D926615111
:101B2800DA22E8C0DEFFE9C0DEFFEAC0DEFFEBC074
:101B3800DEFF000E4624D96E020E4720DA6E030E31
:101B4800DF6E0001ED05D8A4ACEF0DF0AEEF0DF09F
:101B5800ABEF00F01D0E3F6EFF0E406E46C041F029
:101B680047C042F05EEC4BF0F29071C0F5FF70C0D8
:101B7800F8FF6FC0F7FF6EC0F6FF6DC0F4FF6CC0D2
:101B8800F3FF6BC0DAFF6AC0D9FF69C0E2FF68C023
:101B9800E1FF4F921100ECEF45F0D2C072F0D3C0D4
:101BA80073F0DC0E0001746FFF0E756FC0EC47F028
:101BB800000172517311D8A4E4EF0DF0E6EF0DF0B7
:101BC800EAEF0DF008EC3EF03BEF15F0D2C072F0F2
:101BD800D3C073F0D60E746FFF0E756FC0EC47F06C
:101BE800000172517311D8A4FCEF0DF0FEEF0DF057
:101BF8000CEF0EF0ED6B0101836B846B826B6C0E46
:101C08000001B06FFE0EB16F43EC4BF03BEF15F0E7
:101C1800D2C072F0D3C073F0D90E746FFF0E756F17
:101C2800C0EC47F0000172517311D8A41EEF0EF0FA
:101C380020EF0EF08AEF0EF0ED2B040EED6527EF86
:101C48000EF029EF0EF02AEF0EF0ED6B8A0EB06F52
:101C5800FE0EB16FEDC0B2F0B36B43EC4BF0000178
:101C6800ED51D8A43AEF0EF03CEF0EF044EF0EF031
:101C7800600EB06FFD0EB16F43EC4BF00101846B49
:101C88000001ED05D8A44BEF0EF04DEF0EF053EF29
:101C98000EF0140EB06FF80EB16F43EC4BF0020E5D
:101CA8000001ED19D8A45BEF0EF05DEF0EF063EFC5
:101CB8000EF0720EB06FFC0EB16F43EC4BF0030EDA
:101CC8000001ED19D8A46BEF0EF06DEF0EF073EF75
:101CD8000EF0BA0EB06FF80EB16F43EC4BF0040E75
:101CE8000001ED19D8A47BEF0EF07DEF0EF03BEF6D
:101CF80015F0D40EB06FFB0EB16F43EC4BF0010E34
:101D08000101836F0001ED6B3BEF15F0D2C072F05B
:101D1800D3C073F0E60E746FFF0E756FC0EC47F01A
:101D2800000172517311D8A49CEF0EF09EEF0EF0D3
:101D3800EBEF0EF00101902B020E9019D8A4A7EF3B
:101D48000EF0A9EF0EF0AAEF0EF0906BF10E000165
:101D5800B06FFA0EB16F01019051040DE90EF32432
:101D6800D96E010EF420DA6EDECFB2F0DECFB3F01A
:101D7800DECFB4F0DECFB5F043EC4BF0010190516B
:101D8800D8A4C9EF0EF0CBEF0EF0D6EF0EF0D90EB7
:101D98000001B06FFA0EB16F43EC4BF0060E7D6E8A
:101DA800820EAF6E01019005D8A4DDEF0EF0DFEFD3
:101DB8000EF03BEF15F0A60E0001B06FFD0EB16FEF
:101DC80043EC4BF07D6A440EAF6E3BEF15F0D2C08A
:101DD80072F0D3C073F0E80E746FFF0E756FC0EC2D
:101DE80047F0000172517311D8A4FDEF0EF0FFEF18
:101DF8000EF01FEF0FF001019051D8B406EF0FF06D
:101E080008EF0FF00FEF0FF0720E0001B06FF70E32
:101E1800B16F43EC4BF0980E0001B06FF40EB16F48
:101E280043EC4BF0000E0001C86F010EC76F14ECB5
:101E38002EF03BEF15F0D2C072F0D3C073F0EA0E6B
:101E4800746FFF0E756FC0EC47F00001725173118B
:101E5800D8A431EF0FF033EF0FF053EF0FF001017B
:101E68009051D8B43AEF0FF03CEF0FF043EF0FF07A
:101E7800720E0001B06FF70EB16F43EC4BF0F50E28
:101E88000001B06FF40EB16F43EC4BF0000E00018F
:101E9800C86F020EC76F14EC2EF03BEF15F0D2C0DE
:101EA80072F0D3C073F0EC0E746FFF0E756FC0EC58
:101EB80047F0000172517311D8A465EF0FF067EF76
:101EC8000FF06BEF0FF03CEC15F03BEF15F0D2C0C4
:101ED80072F0D3C073F0EE0E746FFF0E756FC0EC26
:101EE80047F0000172517311D8A47DEF0FF07FEF16
:101EF8000FF031EF10F0F29E280EB06FFC0EB16FAC
:101F080043EC4BF0F5EF0FF0450E0001B06FFF0EFC
:101F1800B16F43EC4BF01DEF10F0EF0E0001B06F06
:101F2800FC0EB16F4CC1B2F04DC1B3F04EC1B4F06C
:101F38004FC1B5F043EC4BF01DEF10F08C0E0001D3
:101F4800B06FFA0EB16F4CC1B2F04DC1B3F04EC1D3
:101F5800B4F04FC1B5F043EC4BF01DEF10F0E00EBC
:101F68000001B06FF80EB16F43EC4BF01DEF10F0AD
:101F78001F0E0001B06FFA0EB16F43EC4BF01DEF6E
:101F880010F06A0E0001B06FF80EB16F43EC4BF021
:101F98001DEF10F0410E0001B06FFD0EB16F43EC64
:101FA8004BF01DEF10F04B0E0001B06FFE0EB16F3D
:101FB80043EC4BF01DEF10F0A60E0001B06FFA0EC7
:101FC800B16F43EC4BF01DEF10F0A20E0001B06FA3
:101FD800FA0EB16F98C1B2F0B36B43EC4BF01DEF42
:101FE80010F001019851000AD8B488EF0FF0010AE7
:101FF800D8B491EF0FF0030AD8B4A2EF0FF0010A9A
:10200800D8B4B3EF0FF0070AD8B4BCEF0FF0010A49
:10201800D8B4C5EF0FF0030AD8B4CEEF0FF0010A19
:10202800D8B4D7EF0FF00F0AD8B4E0EF0FF0E9EF0C
:102038000FF0090E0001B06FFB0EB16F97C1B2F03F
:10204800B36B43EC4BF06F0E0001B06FFA0EB16F3B
:1020580043EC4BF0F28E3BEF15F0D2C072F0D3C0D8
:1020680073F0F00E746FFF0E756FC0EC47F000014F
:1020780072517311D8A443EF10F045EF10F0C6EF7A
:1020880010F0F29E510EB06FFD0EB16F92C1B2F01A
:10209800B36B43EC4BF0BF0E0001B06FFB0EB16F9A
:1020A80091C1B2F0B36B43EC4BF0600E0001B06F1E
:1020B800FC0EB16F6CC1B2F06DC1B3F043EC4BF0E4
:1020C800010E0001E46F000EE56F000EE66F000ED2
:1020D800E76FE751E611E51109E1830EE45DD8A049
:1020E80078EF10F07AEF10F07CEF10F0A7EF10F017
:1020F800BC0EB06FFF0EB16FE4C0B2F0E5C0B3F034
:10210800E6C0B4F0E7C0B5F043EC4BF0B40E000104
:10211800B06FFF0EB16F000EE425D96E050EE521F4
:10212800DA6EDF500101C46FC4510001B26FB36BA6
:1021380043EC4BF0010E0001E427000EE523E623F3
:10214800E7236DEF10F06F0EB06FFA0EB16F43EC2E
:102158004BF0DE0E0001B06FFC0EB16F6AC1B2F039
:102168006BC1B3F043EC4BF06F0E0001B06FFD0E86
:10217800B16F68C1B2F069C1B3F043EC4BF0F28EB5
:102188003BEF15F0D2C072F0D3C073F0F20E746F4B
:10219800FF0E756FC0EC47F0000172517311D8A49F
:1021A800D8EF10F0DAEF10F053EF11F0F29E000EB6
:1021B800E46F000EE56F000EE66F000EE76FE75163
:1021C800E611E51109E1C80EE45DD8A0EEEF10F0C4
:1021D800F0EF10F0F2EF10F050EF11F0E4C0BBF0A8
:1021E800E5C0BCF0E6C0BDF0E7C0BEF066EC37F075
:1021F800BC0E0001B06FFF0EB16FE4C0B2F0E5C0D5
:10220800B3F0E6C0B4F0E7C0B5F043EC4BF0910E84
:102218000001B06FFF0EB16F00C3B2F0B36B43ECB7
:102228004BF0010E0001E4250101C46F000E00010E
:10223800E5210101C56F000E0001E6210101C66F0D
:10224800000E0001E7210101C76F0F0EC415C86F0A
:10225800000EC515C96F000EC615CA6F000EC7154A
:10226800CB6FC851C911CA11CB11D8A43EEF11F0D8
:1022780040EF11F047EF11F06F0E0001B06FFA0E4A
:10228800B16F43EC4BF0010E0001E427000EE5238B
:10229800E623E723E3EF10F0F28E3BEF15F0D2C010
:1022A80072F0D3C073F07B0E746FFB0E756FC0ECC9
:1022B80047F0000172517311D8A465EF11F067EF70
:1022C80011F0FDEF11F0F29E000EE46F000EE56FC5
:1022D800000EE66F000EE76FE751E6110AE1E42908
:1022E800030EE559D8A07BEF11F07DEF11F07FEFD9
:1022F80011F0FAEF11F0E4C072F0E5C073F06BEC86
:102308004BF00101D76F0F0E0001E4150101C46FF6
:10231800000E0001E5150101C56F000E0001E6156C
:102328000101C66F000E0001E7150101C76FC45116
:10233800C511C611C711D8A4A4EF11F0A6EF11F06A
:10234800B5EF11F0C00E0001B06FFF0EB16FE4C021
:10235800B2F0E5C0B3F0E6C0B4F0E7C0B5F043ECC6
:102368004BF0910E0001B06FFF0EB16FD7C1B2F004
:10237800B36B43EC4BF0010E0001E4250101C46F7F
:10238800000E0001E5210101C56F000E0001E621E4
:102398000101C66F000E0001E7210101C76F0F0E92
:1023A800C415C86F000EC515C96F000EC615CA6FD3
:1023B800000EC715CB6FC851C911CA11CB11D8A4CB
:1023C800E8EF11F0EAEF11F0F1EF11F06F0E0001F4
:1023D800B06FFA0EB16F43EC4BF0010E0001E42729
:1023E800000EE523E623E72370EF11F0F28E3BEFB2
:1023F80015F0D2C072F0D3C073F0F40E746FFF0EF4
:10240800756FC0EC47F0000172517311D8A40FEF3B
:1024180012F011EF12F0C0EF12F00101DC6BF29E26
:102428004E0E0001B06FFC0EB16F43EC4BF0000E86
:102438000001E46F000EE56F000EE66F000EE76F17
:1024480068EF12F0E4C0BBF0E5C0BCF0E6C0BDF038
:10245800E7C0BEF0800EBF6F2CEC38F0800E000194
:10246800E425E46F000EE521E56F000EE621E66F36
:10247800000EE721E76F000E0101D86F000ED96F3B
:10248800000EDA6F000EDB6FDB51DA11D91109E1AA
:10249800800ED85DD8A053EF12F055EF12F057EF29
:1024A80012F068EF12F0000ED825D96E030ED9216C
:1024B800DA6EDF50DC19DC6F010ED827000ED92345
:1024C800DA23DB2348EF12F00001E7510CE1E4299D
:1024D800FF0EE559010EE659D8A075EF12F077EF17
:1024E80012F026EF12F0000EBB6F000EBC6F000E4C
:1024F800BD6F000EBE6F66EC37F00301005100019E
:10250800E46FE56BE66BE76B030EE419E511E61182
:10251800E711D8B492EF12F094EF12F09AEF12F09C
:10252800400EB06FF80EB16F43EC4BF0C00E0001D7
:10253800B06FFA0EB16FDCC1B2F0B36B43EC4BF085
:102548000101DC51D8A4ABEF12F0ADEF12F0B6EFF9
:1025580012F0870E0001B06FFF0EB16F43EC4BF025
:10256800BDEF12F0BC0E0001B06FFE0EB16F43EC70
:102578004BF0F28E3BEF15F0D2C072F0D3C073F07F
:10258800F60E746FFF0E756FC0EC47F000017251C4
:102598007311D8A4D2EF12F0D4EF12F0C9EF13F0F0
:1025A800000E0101DD6F000EDE6F000EDF6F000E02
:1025B800E06FF29EB8EF13F0DDC1BBF0DEC1BCF0F6
:1025C800DFC1BDF0E0C1BEF0800E0001BF6F2CEC92
:1025D80038F0000E0001E46F000EE56F000EE66FA4
:1025E800000EE76FE751E611E51109E1800EE45DA1
:1025F800D8A001EF13F003EF13F005EF13F0ABEFE2
:1026080013F00101DD510001E4250101D36FDE5112
:102618000001E5210101D46FDF510001E62101012C
:10262800D56FE0510001E7210101D66F0F0E0001BF
:10263800E4150101C46F000E0001E5150101C56F25
:10264800000E0001E6150101C66F000E0001E71536
:102658000101C76FC451C511C611C711D8A437EFFE
:1026680013F039EF13F055EF13F0D3510001BB6F9E
:102678000101D4510001BC6F0101D5510001BD6FAA
:102688000101D6510001BE6FBF6BC06BC16BC26B3D
:10269800A0EC4AF0F00E0001B06FFE0EB16F43ECF3
:1026A8004BF0B80E0001B06FFF0EB16F000EE425BD
:1026B800D96E030EE521DA6EDF500101C46FC451F3
:1026C8000001B26FB36B43EC4BF0010E0001E4253F
:1026D8000101C46F000E0001E5210101C56F000E64
:1026E8000001E6210101C66F000E0001E72101018A
:1026F800C76F0F0EC415C86F000EC515C96F000E41
:10270800C615CA6F000EC715CB6FC851C911CA11BB
:10271800CB11D8A492EF13F094EF13F09BEF13F0C2
:102728006F0E0001B06FFA0EB16F43EC4BF0E40E80
:1027380000D000D0E82EFCD700D000D0010E000158
:10274800E427000EE523E623E723F6EF12F0800ED8
:102758000101DD25DD6F000EDE21DE6F000EDF21B9
:10276800DF6F000EE021E06FE0510CE1DD29FF0E84
:10277800DE59010EDF59D8A0C4EF13F0C6EF13F0ED
:10278800E0EF12F0F28E3BEF15F0D2C072F0D3C03A
:1027980073F0F80E746FFF0E756FC0EC47F0000110
:1027A80072517311D8A4DBEF13F0DDEF13F01FEFB4
:1027B80015F0000EE46F000EE56F000EE66F000ED8
:1027C800E76FE4C0C4F1E5C0C5F10101D890C43792
:1027D800C537D890C437C537000EC4250001726FBD
:1027E800010E0101C5210001736F6BEC4BF0010173
:1027F800C66FC651E16FE26BE36BE46BE56BE66BAA
:10280800E76BE86BE4C0C4F1E5C0C5F1D890C43704
:10281800C537D890C437C537010EC4250001726F7B
:10282800010E0101C5210001736F6BEC4BF0010132
:10283800C66FC6C1C7F1C86BC96BCA6BC9C1CAF13B
:10284800C8C1C9F1C7C1C8F1C76BC751CB6FC8515F
:10285800CC6FC951CD6FCA51CE6FCF6BD06BD16BD6
:10286800D26BE151CB25E16FE251CC21E26FE3510C
:10287800CD21E36FE451CE21E46FE551CF21E56F1F
:10288800E651D021E66FE751D121E76FE851D22117
:10289800E86FE4C0C4F1E5C0C5F1D890C437C537C6
:1028A800D890C437C537020EC4250001726F010ED7
:1028B8000101C5210001736F6BEC4BF00101C66F7C
:1028C800C6C1C7F1C86BC96BCA6BC8C1CAF1C7C159
:1028D800C9F1C86BC76BC751CB6FC851CC6FC95111
:1028E800CD6FCA51CE6FCF6BD06BD16BD26BE1512C
:1028F800CB25E16FE251CC21E26FE351CD21E36FAB
:10290800E451CE21E46FE551CF21E56FE651D021A6
:10291800E66FE751D121E76FE851D221E86FE4C0B3
:10292800C4F1E5C0C5F1D890C437C537D890C437CD
:10293800C537030EC4250001726F010E0101C521C0
:102948000001736F6BEC4BF00101C66FC6C1C7F194
:10295800C86BC96BCA6BC7C1CAF1C96BC86BC76BF7
:10296800C751CB6FC851CC6FC951CD6FCA51CE6F0B
:10297800CF6BD06BD16BD26BE151CB25E16FE251BC
:10298800CC21E26FE351CD21E36FE451CE21E46F16
:10299800E551CF21E56FE651D021E66FE751D1210E
:1029A800E76FE851D221E86F840E0001B06FFC0E8A
:1029B800B16F010EE425B26F000EE521B36F000E72
:1029C800E621B46F000EE721B56F43EC4BF0E1C18F
:1029D800BBF0E2C1BCF0E3C1BDF0E4C1BEF0E5C1AB
:1029E800BFF0E6C1C0F0E7C1C1F0E8C1C2F0A0EC99
:1029F8004AF06F0E0001B06FFA0EB16F43EC4BF066
:102A0800010E0001E427000EE523E623E723E75142
:102A1800E611E51109E1140EE45DD8A016EF15F0F2
:102A280018EF15F0E5EF13F0E407000EE55BE65B41
:102A3800E75B3BEF15F0D2C072F0D3C073F0FC0E29
:102A4800746FFF0E756FC0EC47F00001725173117F
:102A5800D8A431EF15F033EF15F035EF15F03BEF53
:102A680015F0210EB06FFB0EB16F43EC4BF0120066
:102A7800F29E0101876BF00E0001B06FFD0EB16F81
:102A88005EC1B2F05FC1B3F043EC4BF00001EC5112
:102A9800D8A451EF15F053EF15F059EF15F0130EB8
:102AA800B06FFC0EB16F43EC4BF0020E0001EC1955
:102AB800D8A461EF15F063EF15F069EF15F0310E4A
:102AC800B06FFD0EB16F43EC4BF0040E0001EC1932
:102AD800D8A471EF15F073EF15F079EF15F0000E2B
:102AE800B06FFD0EB16F43EC4BF0030E0001EC1913
:102AF800D8A481EF15F083EF15F089EF15F0660E75
:102B0800B06FFB0EB16F43EC4BF0050E0001EC19F2
:102B1800D8A491EF15F093EF15F099EF15F03B0E4F
:102B2800B06FFC0EB16F43EC4BF00001EC05D8A47C
:102B3800A0EF15F0A2EF15F0A8EF15F0E90EB06FB1
:102B4800FB0EB16F43EC4BF06F0E0001B06FFA0E45
:102B5800B16F43EC4BF0010E0001C26F010EC16F63
:102B6800FF0EC225726F736BFF0E7323000E756F15
:102B7800160E746F62EC43F00001C151160DF3CFCD
:102B8800BBF0F4CFBCF07251BB25BD6F7351BC21B3
:102B9800BE6FEA0EBD25BF6FFF0EBE21C06FBFC05E
:102BA800E4F0C0C0E5F0000EE5BFFF0EE66FE76F8A
:102BB80001015E510001BB6F01015F510001BC6F53
:102BC800BD6BBE6BE451BB5DE551BC59E651BD59C7
:102BD800E751BE59D8A0F3EF15F0F5EF15F0F2EF75
:102BE80019F0C40EB06FFF0EB16FE4C0B2F0E5C0CB
:102BF800B3F0E6C0B4F0E7C0B5F043EC4BF07E0E9E
:102C08000001BB6F050EBC6FD890E435D96EE53571
:102C1800DA6ED890D936DA36BB51D926BC51DA22C9
:102C2800DECFC3F0DDCFC4F0820EBB6F050EBC6FE4
:102C3800D890E435D96EE535DA6ED890D936DA36DB
:102C4800BB51D926BC51DA22DECFE8F0DECFE9F05D
:102C5800DECFEAF0DECFEBF0AF0EB06FFF0EB16F54
:102C6800E8C0B2F0E9C0B3F0EAC0B4F0EBC0B5F028
:102C780043EC4BF00001EC51D8A445EF16F047EFB8
:102C880016F04DEF16F0EF0EB06FFE0EB16F43EC7D
:102C98004BF00001EC05D8A454EF16F056EF16F0EF
:102CA8000CEF17F0EB51EA110BE1A90EE85D8F0E5E
:102CB800E959D8A062EF16F064EF16F07AEF16F033
:102CC800EB51EA1109E1780EE85D970EE959D8B0A1
:102CD80070EF16F072EF16F07AEF16F0E10EB06FA3
:102CE800FF0EB16F43EC4BF0ECEF16F0EB51EA112D
:102CF8000BE1A70EE85D020EE959D8A086EF16F0A1
:102D080088EF16F09EEF16F0EB51EA1109E1D60EA6
:102D1800E85D040EE959D8B094EF16F096EF16F076
:102D28009EEF16F0D50EB06FFF0EB16F43EC4BF06F
:102D3800ECEF16F0EB51EA110BE1930EE85D060E8D
:102D4800E959D8A0AAEF16F0ACEF16F0C2EF16F0CA
:102D5800EB51EA1109E1C20EE85D080EE959D8B055
:102D6800B8EF16F0BAEF16F0C2EF16F0D80EB06F43
:102D7800FF0EB16F43EC4BF0ECEF16F0EB51EA119C
:102D88000BE18C0EE85D0A0EE959D8A0CEEF16F0DB
:102D9800D0EF16F0E6EF16F0EB51EA1109E1BB0EA1
:102DA800E85D0C0EE959D8B0DCEF16F0DEEF16F04E
:102DB800E6EF16F0DE0EB06FFF0EB16F43EC4BF08E
:102DC800ECEF16F0DB0EB06FFF0EB16F43EC4BF07B
:102DD800000E0001E425D96E020EE521DA6EDF50FF
:102DE800D8B4F9EF16F0FBEF16F00CEF17F0350E2C
:102DF800B06FFF0EB16F000EE425D96E020EE5210B
:102E0800DA6EDF50BB6FBB51B26FB36B43EC4BF064
:102E1800020E0001EC19D8A414EF17F016EF17F002
:102E2800A8EF17F0EB51EA110BE1130EE85D700EF5
:102E3800E959D8A022EF17F024EF17F03AEF17F06E
:102E4800EB51EA1109E1E20EE85D770EE959D8B0D5
:102E580030EF17F032EF17F03AEF17F0E10EB06FDE
:102E6800FF0EB16F43EC4BF088EF17F0EB51EA110E
:102E78000BE1D70EE85D010EE959D8A046EF17F02F
:102E880048EF17F05EEF17F0EB51EA1109E12A0E4F
:102E9800E85D030EE959D8B054EF17F056EF17F074
:102EA8005EEF17F0D50EB06FFF0EB16F43EC4BF02D
:102EB80088EF17F0EB51EA110BE1570EE85D040EAD
:102EC800E959D8A06AEF17F06CEF17F082EF17F006
:102ED800EB51EA1109E1AA0EE85D050EE959D8B0EF
:102EE80078EF17F07AEF17F082EF17F0D80EB06F7F
:102EF800FF0EB16F43EC4BF088EF17F0DB0EB06FAD
:102F0800FF0EB16F43EC4BF0000E0001E425D96EC3
:102F1800020EE521DA6EDF50D8B495EF17F097EF7F
:102F280017F0A8EF17F0350EB06FFF0EB16F000E57
:102F3800E425D96E020EE521DA6EDF50BB6FBB5176
:102F4800B26FB36B43EC4BF0040E0001EC19D8A43C
:102F5800B0EF17F0B2EF17F067EF18F0EB51EA1186
:102F68000BE1F50EE85D0F0EE959D8A0BEEF17F09A
:102F7800C0EF17F0D6EF17F0EB51EA1109E1C40ED4
:102F8800E85D170EE959D8B0CCEF17F0CEEF17F07F
:102F9800D6EF17F0E10EB06FFF0EB16F43EC4BF0B8
:102FA80047EF18F0EB51EA110BE14A0EE85D040E09
:102FB800E959D8A0E2EF17F0E4EF17F0F9EF17F0AE
:102FC800EB51EA1108E1E805060EE959D8B0EFEF30
:102FD80017F0F1EF17F0F9EF17F0D50EB06FFF0EFD
:102FE800B16F43EC4BF047EF18F0EB51EA110BE1EE
:102FF8005B0EE85D090EE959D8A005EF18F007EF58
:1030080018F01DEF18F0EB51EA1109E1120EE85D16
:103018000B0EE959D8B013EF18F015EF18F01DEFA3
:1030280018F0D80EB06FFF0EB16F43EC4BF047EFBE
:1030380018F0EB51EA110BE1A50EE85D240EE959F1
:10304800D8A029EF18F02BEF18F041EF18F0EB514A
:10305800EA1109E15C0EE85D260EE959D8B037EFB0
:1030680018F039EF18F041EF18F0DE0EB06FFF0ED0
:10307800B16F43EC4BF047EF18F0DB0EB06FFF0E6B
:10308800B16F43EC4BF0000E0001E425D96E020E3F
:10309800E521DA6EDF50D8B454EF18F056EF18F087
:1030A80067EF18F0350EB06FFF0EB16F000EE42514
:1030B800D96E020EE521DA6EDF50BB6FBB51B26FDD
:1030C800B36B43EC4BF0030E0001EC19D8A46FEF7F
:1030D80018F071EF18F05BEF19F0EB51EA110BE102
:1030E800C30EE85D7E0EE959D8A07DEF18F07FEF9A
:1030F80018F095EF18F0EB51EA1109E10E0EE85DB2
:10310800830EE959D8B08BEF18F08DEF18F095EFD2
:1031180018F0E10EB06FFF0EB16F43EC4BF03BEFD0
:1031280019F0EB51EA110BE1F70EE85D1D0EE959B4
:10313800D8A0A1EF18F0A3EF18F0B9EF18F0EB51F1
:10314800EA1109E1B20EE85D200EE959D8B0AFEFF7
:1031580018F0B1EF18F0B9EF18F0DE0EB06FFF0EEF
:10316800B16F43EC4BF03BEF19F0E4B1BEEF18F050
:10317800C0EF18F033EF19F0E30EC35D040EC45925
:10318800D8A0C9EF18F0CBEF18F0F8EF18F09E0EA2
:10319800C35D070EC459D8B0D4EF18F0D6EF18F0B5
:1031A800F8EF18F0EB51EA110BE1F50EE85D010EAE
:1031B800E959D8A0E2EF18F0E4EF18F0F8EF18F0AA
:1031C800EB51EA1109E1B00EE85D040EE959D8B0F7
:1031D800F0EF18F0F2EF18F0F8EF18F0D80EB06F23
:1031E800FF0EB16F43EC4BF0F50E0001C35D010E0D
:1031F800C459D8A002EF19F004EF19F03BEF19F009
:10320800B00EC35D040EC459D8B00DEF19F00FEF1E
:1032180019F03BEF19F0EB51EA110BE1E30EE85D11
:10322800040EE959D8A01BEF19F01DEF19F03BEF78
:1032380019F0EB51EA1109E19E0EE85D070EE95914
:10324800D8B029EF19F02BEF19F03BEF19F0D50E94
:10325800B06FFF0EB16F43EC4BF03BEF19F0EF0E80
:10326800B06FFE0EB16F43EC4BF03BEF19F0000E60
:103278000001E425D96E020EE521DA6EDF50D8B4DC
:1032880048EF19F04AEF19F05BEF19F0350EB06FFF
:10329800FF0EB16F000EE425D96E020EE521DA6E3D
:1032A800DF50BB6FBB51B26FB36B43EC4BF0050EF5
:1032B8000001EC19D8A463EF19F065EF19F0E9EFF4
:1032C80019F0EB51EA110BE16B0EE85D180EE959A4
:1032D800D8A071EF19F073EF19F089EF19F0EB51DD
:1032E800EA1109E1B60EE85D1C0EE959D8B07FEF86
:1032F80019F081EF19F089EF19F0E10EB06FFF0EA8
:10330800B16F43EC4BF0C9EF19F0EB51EA110BE147
:10331800AF0EE85D0B0EE959D8A095EF19F097EFBD
:1033280019F0ADEF19F0EB51EA1109E1DA0EE85D99
:103338000C0EE959D8B0A3EF19F0A5EF19F0ADEFCD
:1033480019F0DE0EB06FFF0EB16F43EC4BF0C9EF12
:1033580019F0EB51EA1109E19C0EE85D040EE959F8
:10336800D8B0B9EF19F0BBEF19F0C3EF19F0D50ECB
:10337800B06FFF0EB16F43EC4BF0C9EF19F0D80EE8
:10338800B06FFF0EB16F43EC4BF0000E0001E42567
:10339800D96E020EE521DA6EDF50D8B4D6EF19F0F7
:1033A800D8EF19F0E9EF19F0350EB06FFF0EB16FD5
:1033B800000EE425D96E020EE521DA6EDF50BB6FF0
:1033C800BB51B26FB36B43EC4BF0D20E0001B06F40
:1033D800FF0EB16F43EC4BF0F8EF19F0E90EB06F48
:1033E800FE0EB16F43EC4BF00001C12B090EC16515
:1033F80000EF1AF002EF1AF0B4EF15F06F0EB06F8D
:10340800FA0EB16F43EC4BF00001C22B160EC265E9
:1034180010EF1AF012EF1AF0B2EF15F050EC4CF072
:10342800F28E120051EC4BF08096808A0101986B65
:103438000F015D6B5C6BD08EF19EF180F290F2868D
:10344800F28EF294F28A5A89010E0101906F90511E
:10345800D8A431EF1AF033EF1AF037EF1AF0060E4E
:103468007D6E820EAF6E9005D8A43DEF1AF03FEF47
:103478001AF042EF1AF07D6A440EAF6E920ED56EC6
:10348800FC0E0001766FF50E776FE2EC3FF0990EB7
:103498000001766FFD0E776FE2EC3FF0FA0E000147
:1034A800766FF60E776FE2EC3FF0990E0001766FBB
:1034B800FD0E776FE2EC3FF0829008EC3EF08280E0
:1034C800010E0001E46F000EE56F000EE66F000EBE
:1034D800E76FE751E611E51109E10A0EE45DD8A0AE
:1034E80078EF1AF07AEF1AF07CEF1AF0A1EF1AF0E1
:1034F800090E0301836F1E0E826FE40EE82EFED7BD
:10350800822FFCD7832FFAD700008290090E03017F
:10351800836F1E0E826FE40EE82EFED7822FFCD733
:10352800832FFAD700008280010E0001E427000EE5
:10353800E523E623E7236DEF1AF0ED6B86EC4CF0FC
:10354800F28E000E0001736F000E726F6BEC4BF081
:103558000301826F82510001E46FE56BE66BE76B54
:10356800210EE419E511E611E711D8B4BEEF1AF0FF
:10357800C0EF1AF0C6EF1AF07E0EB06FF60EB16FFC
:1035880043EC4BF0000E0001BB6F000EBC6F000E49
:10359800BD6F000EBE6F66EC37F0030100510001ED
:1035A800E46FE56BE66BE76B030EE419E511E611D2
:1035B800E711D8B4E2EF1AF0E4EF1AF0EAEF1AF0E4
:1035C800BC0EB06FF60EB16F43EC4BF0808681B441
:1035D800F0EF1AF0F2EF1AF055EF1BF0150E030199
:1035E800826FC60EE82EFED7822FFCD70000010E90
:1035F80001014827000E49234A234B234B514A1106
:103608000BE1890E485D130E4959D8A00EEF1BF047
:1036180010EF1BF055EF1BF08290000E486F000E64
:10362800496F000E4A6F000E4B6F270E0001B06FF6
:10363800F90EB16F43EC4BF0010E01016B6F000EF8
:103648006A6F510E6A5D010E6B59D8A02EEF1BF000
:1036580030EF1BF032EF1BF040EF1BF06AC172F045
:103668006BC173F0FF0E0001746FBCEC48F00101F0
:103678006A4B6B2B25EF1BF0520E0301836F2B0E49
:10368800826F000EE82EFED7822FFCD7832FFAD741
:103698000000828081A453EF1BF055EF1BF04EEF22
:1036A8001BF001018A51D8B45CEF1BF05FEF1BF0EF
:1036B800010E60EF1BF0000E0301826F836B81B473
:1036C80068EF1BF06BEF1BF0010E6CEF1BF0000EA8
:1036D8008217000E831701014B514A11491107E166
:1036E800C90E485DD8B07BEF1BF07EEF1BF0010ED2
:1036F8007FEF1BF0000E03018217000E83170101F4
:103708004B514A110CE1E80E485D030E4959D8A007
:1037180090EF1BF093EF1BF0010E94EF1BF0000EDF
:1037280003018217000E831782518311D8B49FEFCB
:103738001BF0A1EF1BF0B9EF1BF0500E0101406F19
:10374800C30E416F000E426F000E436F000E446FB0
:10375800000E456F000E466F000E476F6B0E00019E
:10376800B06FF90EB16F43EC4BF0010140514111BC
:10377800421143114411451146114711D8B4C7EFFE
:103788001BF0C9EF1BF037EF1CF04007000E415B40
:10379800425B435B445B455B465B475B40C172F001
:1037A80041C173F042C174F043C175F044C176F071
:1037B80045C177F046C178F047C179F0E80E0001BD
:1037C8007A6F030E7B6F000E7C6F000E7D6F000E0C
:1037D8007E6F000E7F6F000E806F000E816F52ECBF
:1037E80040F072C082F373C083F374C084F375C071
:1037F80085F376C086F377C087F378C088F379C0FD
:1038080089F303018251831184118511861187116F
:1038180088118911D8A413EF1CF015EF1CF01EEFC6
:103828001CF082A01AEF1CF01DEF1CF082801EEF26
:103838001CF0829001014051411142114311441181
:10384800451146114711D8A42CEF1CF02EEF1CF09F
:1038580037EF1CF0816B380E0001B06FFB0EB16FB3
:1038680043EC4BF08280000E81B4010E01018A6F97
:1038780081A441EF1CF043EF1CF04BEF1CF0000E4D
:10388800486F000E496F000E4A6F000E4B6F8D5146
:10389800D8A451EF1CF053EF1CF055EF1CF080EC4E
:1038A8003EF001018751D8B45CEF1CF05EEF1CF0CC
:1038B80060EF1CF03CEC15F001018D51D8B467EFB6
:1038C8001CF069EF1CF0EBEF1AF08D6BF29E020E04
:1038D8000001ED19D8A473EF1CF075EF1CF077EF19
:1038E8001CF03CEC15F00001EC05D8A47EEF1CF0B0
:1038F80080EF1CF0AFEF1CF0ED51D8B486EF1CF050
:1039080088EF1CF0A1EF1CF0DCC0BBF0DDC0BCF000
:10391800DEC0BDF0DFC0BEF0E0C0BFF0E1C0C0F067
:10392800E2C0C1F0E3C0C2F090EC3DF0F00E00013F
:10393800B06FFE0EB16F43EC4BF0A3EC1DF0000925
:10394800D8B4A9EF1CF0ABEF1CF0AFEF1CF006ECFD
:1039580032F00FEC34F0020E0001EC19D8A4B7EFE6
:103968001CF0B9EF1CF0E3EF1CF0DCC038F1DDC04F
:1039780039F1DEC03AF1DFC03BF1E0C03CF1E1C013
:103988003DF1E2C03EF1E3C03FF1960EB06FFC0E90
:10399800B16F43EC4BF0DCC0BBF0DDC0BCF0DEC067
:1039A800BDF0DFC0BEF0E0C0BFF0E1C0C0F0E2C0D3
:1039B800C1F0E3C0C2F0A0EC4AF00FEC34F0040E02
:1039C8000001EC19D8A4EBEF1CF0EDEF1CF01CEF94
:1039D8001DF0FDEC23F0E806D8A4F5EF1CF0F7EF96
:1039E8001CF01CEF1DF0BA0E0001B06FFC0EB16F99
:1039F80043EC4BF038C1BBF039C1BCF03AC1BDF063
:103A08003BC1BEF03CC1BFF03DC1C0F03EC1C1F0FA
:103A18003FC1C2F0A0EC4AF0610E0001B06FFE0E8B
:103A2800B16F48C0B2F0B36B43EC4BF00FEC34F01D
:103A3800030E0001EC19D8A424EF1DF026EF1DF0A9
:103A480074EF1DF097EC36F0A80E0001B06FFC0E75
:103A5800B16F43EC4BF038C1BBF039C1BCF03AC18F
:103A6800BDF03BC1BEF03CC1BFF03DC1C0F03EC19E
:103A7800C1F03FC1C2F0A0EC4AF0AA0E0001B06F3D
:103A8800FF0EB16F38C1B2F039C1B3F03AC1B4F02A
:103A98003BC1B5F043EC4BF0FB0E0001B06FFE0EDE
:103AA800B16F43EC4BF0050E48605DEF1DF05FEF22
:103AB8001DF06BEF1DF0D50E0001B06FFA0EB16F5F
:103AC80048C0B2F0B36B43EC4BF072EF1DF0CF0E71
:103AD8000001B06FFF0EB16F43EC4BF00FEC34F008
:103AE800050E0001EC19D8A47CEF1DF07EEF1DF047
:103AF80086EF1DF0F20EB06FFE0EB16F43EC4BF087
:103B080035EC46F0060E0001EC19D8A48EEF1DF036
:103B180090EF1DF09AEF1DF02D0EB06FFF0EB16FF4
:103B280043EC4BF012EC44F00FEC34F0000E476E0F
:103B3800000E466EF28EEBEF1AF0CFEF0DF0DCC000
:103B4800BBF0DDC0BCF0DEC0BDF0DFC0BEF0E0C041
:103B5800BFF0E1C0C0F0E2C0C1F0E3C0C2F0040EA3
:103B6800D8900001BB37BC37BD37BE37BF37C03729
:103B7800C137C237E82EB4EF1DF0BBC0C5F0BCC0DA
:103B8800C6F0BDC0C7F0BEC0C8F0BFC0C9F0C0C055
:103B9800CAF0C1C0CBF0C2C0CCF020EEC5F0F00E28
:103BA800DE18C56FFF0EDE18C66FFF0EDE18C76F72
:103BB800FF0EDE18C86FFF0EDE18C96FFF0EDE1885
:103BC800CA6FFF0EDE18CB6F000EDE18CC6FC5C0B3
:103BD800BBF0C6C0BCF0C7C0BDF0C8C0BEF0C9C00D
:103BE800BFF0CAC0C0F0CBC0C1F0CCC0C2F0310E2B
:103BF80007EF1EF0D890C233C133C033BF33BE3392
:103C0800BD33BC33BB33E82EFEEF1DF0BBC0CDF097
:103C1800BCC0CEF0BDC0CFF0BEC0D0F0BFC0D1F0A8
:103C2800C0C0D2F0C1C0D3F0C2C0D4F0CD39F00BBF
:103C3800F00B4D6E040EBB6FCDC0BCF0CEC0BDF016
:103C4800CFC0BEF0D0C0BFF0D1C0C0F0D2C0C1F06C
:103C5800D3C0C2F0D4C0C3F0BB6735EF1EF041EF4C
:103C68001EF0C335C333C233C133C033BF33BE3391
:103C7800BD33BC33BB2F30EF1EF00001BC510F0B1E
:103C88004E6EC5C0BBF0C6C0BCF0C7C0BDF0C8C052
:103C9800BEF0C9C0BFF0CAC0C0F0CBC0C1F0CCC034
:103CA800C2F0290E61EF1EF0D890C233C133C03381
:103CB800BF33BE33BD33BC33BB33E82E58EF1EF0E1
:103CC800BBC0CDF0BCC0CEF0BDC0CFF0BEC0D0F000
:103CD800BFC0D1F0C0C0D2F0C1C0D3F0C2C0D4F0D0
:103CE800040EBB6FCDC0BCF0CEC0BDF0CFC0BEF0DF
:103CF800D0C0BFF0D1C0C0F0D2C0C1F0D3C0C2F0B4
:103D0800D4C0C3F0BB678BEF1EF097EF1EF0C3352E
:103D1800C333C233C133C033BF33BE33BD33BC3307
:103D2800BB2F86EF1EF00001BC510F0B4D104D6EDE
:103D3800CD39F00BF00B4C6EC5C0BBF0C6C0BCF063
:103D4800C7C0BDF0C8C0BEF0C9C0BFF0CAC0C0F08F
:103D5800CBC0C1F0CCC0C2F0210EBCEF1EF0D89091
:103D6800C233C133C033BF33BE33BD33BC33BB33BF
:103D7800E82EB3EF1EF0BBC0CDF0BCC0CEF0BDC086
:103D8800CFF0BEC0D0F0BFC0D1F0C0C0D2F0C1C02B
:103D9800D3F0C2C0D4F0040EBB6FCDC0BCF0CEC00F
:103DA800BDF0CFC0BEF0D0C0BFF0D1C0C0F0D2C00F
:103DB800C1F0D3C0C2F0D4C0C3F0BB67E6EF1EF0B9
:103DC800F2EF1EF0C335C333C233C133C033BF3340
:103DD800BE33BD33BC33BB2FE1EF1EF00001BC5135
:103DE8000F0B4C104C6ECD39F00BF00B4B6EC5C061
:103DF800BBF0C6C0BCF0C7C0BDF0C8C0BEF0C9C0EB
:103E0800BFF0CAC0C0F0CBC0C1F0CCC0C2F0190E20
:103E180017EF1FF0D890C233C133C033BF33BE335E
:103E2800BD33BC33BB33E82E0EEF1FF0BBC0CDF063
:103E3800BCC0CEF0BDC0CFF0BEC0D0F0BFC0D1F086
:103E4800C0C0D2F0C1C0D3F0C2C0D4F0040EBB6F62
:103E5800CDC0BCF0CEC0BDF0CFC0BEF0D0C0BFF06A
:103E6800D1C0C0F0D2C0C1F0D3C0C2F0D4C0C3F03A
:103E7800BB6741EF1FF04DEF1FF0C335C333C233AB
:103E8800C133C033BF33BE33BD33BC33BB2F3CEF6C
:103E98001FF00001BC510F0B4B104B6ECD39F00BCE
:103EA800F00B4A6EC5C0BBF0C6C0BCF0C7C0BDF0C1
:103EB800C8C0BEF0C9C0BFF0CAC0C0F0CBC0C1F016
:103EC800CCC0C2F0110E72EF1FF0D890C233C133CC
:103ED800C033BF33BE33BD33BC33BB33E82E69EFC9
:103EE8001FF0BBC0CDF0BCC0CEF0BDC0CFF0BEC08F
:103EF800D0F0BFC0D1F0C0C0D2F0C1C0D3F0C2C0B2
:103F0800D4F0040EBB6FCDC0BCF0CEC0BDF0CFC0A6
:103F1800BEF0D0C0BFF0D1C0C0F0D2C0C1F0D3C095
:103F2800C2F0D4C0C3F0BB679CEF1FF0A8EF1FF02E
:103F3800C335C333C233C133C033BF33BE33BD33DC
:103F4800BC33BB2F97EF1FF00001BC510F0B4A1079
:103F58004A6ECD39F00BF00B496EC5C0BBF0C6C038
:103F6800BCF0C7C0BDF0C8C0BEF0C9C0BFF0CAC071
:103F7800C0F0CBC0C1F0CCC0C2F0BCC0BBF0BDC06B
:103F8800BCF0BEC0BDF0BFC0BEF0C0C0BFF0C1C075
:103F9800C0F0C2C0C1F0C26BBBC0CDF0BCC0CEF097
:103FA800BDC0CFF0BEC0D0F0BFC0D1F0C0C0D2F00D
:103FB800C1C0D3F0C2C0D4F0040EBB6FCDC0BCF0FA
:103FC800CEC0BDF0CFC0BEF0D0C0BFF0D1C0C0F0F1
:103FD800D2C0C1F0D3C0C2F0D4C0C3F0BB67F7EF02
:103FE8001FF003EF20F0C335C333C233C133C033EE
:103FF800BF33BE33BD33BC33BB2FF2EF1FF000011C
:10400800BC510F0B4910496ECD39F00BF00B010173
:104018009B6FC5C0CDF0C6C0CEF0C7C0CFF0C8C03A
:10402800D0F0C9C0D1F0CAC0D2F0CBC0D3F0CCC058
:10403800D4F0040E0001BB6FCDC0BCF0CEC0BDF003
:10404800CFC0BEF0D0C0BFF0D1C0C0F0D2C0C1F068
:10405800D3C0C2F0D4C0C3F0BB6735EF20F041EF46
:1040680020F0C335C333C233C133C033BF33BE338B
:10407800BD33BC33BB2F30EF20F00001BC510F0B18
:1040880001019B119B6F0EEC49F00001C46FED51CB
:10409800D8B451EF20F053EF20F0EFEF20F0C451E7
:1040A800D8B459EF20F05BEF20F063EF20F08C0ECE
:1040B800B06FFF0EB16F43EC4BF069EF20F09B0E31
:1040C800B06FFF0EB16F43EC4BF0840E0001B06F80
:1040D800FF0EB16F4EC0B2F0B36B43EC4BF0E40E81
:1040E8000001B06FFF0EB16F43EC4BF0840E00017E
:1040F800B06FFF0EB16F4DC0B2F0B36B43EC4BF035
:10410800E40E0001B06FFF0EB16F43EC4BF0840E6C
:104118000001B06FFF0EB16F4CC0B2F0B36B43EC4F
:104128004BF0E40E0001B06FFF0EB16F43EC4BF0A3
:10413800840E0001B06FFF0EB16F4BC0B2F0B36BCD
:1041480043EC4BF0E40E0001B06FFF0EB16F43EC8F
:104158004BF0840E0001B06FFF0EB16F4AC0B2F091
:10416800B36B43EC4BF0E40E0001B06FFF0EB16F80
:1041780043EC4BF0840E0001B06FFF0EB16F49C0E5
:10418800B2F0B36B43EC4BF0E40E0001B06FFF0EDE
:10419800B16F43EC4BF0840E0001B06FFF0EB16FAE
:1041A8009BC1B2F0B36B43EC4BF0CC0E0001B06F87
:1041B800FF0EB16F43EC4BF00001C451D8A4E7EFF8
:1041C80020F0E9EF20F0EFEF20F06F0EB06FFA0E5D
:1041D800B16F43EC4BF00001C4511200D8900001BC
:1041E80072357A6F73357B6F74357C6F75357D6F7B
:1041F80076357E6F77357F6F7835806F7935816F4B
:10420800AA0E7A15826FAA0E7B15836FAA0E7C15EB
:10421800846FAA0E7D15856FAA0E7E15866FAA0E6D
:104228007F15876FAA0E8015886FAA0E8115896F72
:1042380072C08AF073C08BF074C08CF075C08DF0BA
:1042480076C08EF077C08FF078C090F079C091F08A
:10425800D890913390338F338E338D338C338B33A7
:104268008A33550E8A15926F550E8B15936F550E1E
:104278008C15946F550E8D15956F550E8E15966F7E
:10428800550E8F15976F550E9015986F550E911501
:10429800996F82519211726F83519311736F845188
:1042A8009411746F85519511756F86519611766FBB
:1042B80087519711776F88519811786F89519911A3
:1042C800796F72C07AF073C07BF074C07CF075C0EF
:1042D8007DF076C07EF077C07FF078C080F079C03E
:1042E80081F0020ED8907A377B377C377D377E375E
:1042F8007F3780378137E82E76EF21F0CC0E7A159C
:10430800826FCC0E7B15836FCC0E7C15846FCC0E20
:104318007D15856FCC0E7E15866FCC0E7F15876F49
:10432800CC0E8015886FCC0E8115896F72C08AF00B
:1043380073C08BF074C08CF075C08DF076C08EF0B1
:1043480077C08FF078C090F079C091F0030EB6EF87
:1043580021F0D890913390338F338E338D338C3353
:104368008B338A33E82EADEF21F0330E8A15926F26
:10437800330E8B15936F330E8C15946F330E8D158A
:10438800956F330E8E15966F330E8F15976F330E0C
:104398009015986F330E9115996F82519211726F23
:1043A80083519311736F84519411746F85519511D2
:1043B800756F86519611766F87519711776F88516F
:1043C8009811786F89519911796F72C07AF073C01A
:1043D8007BF074C07CF075C07DF076C07EF077C04D
:1043E8007FF078C080F079C081F0040ED8907A37D9
:1043F8007B377C377D377E377F3780378137E82EAC
:10440800FAEF21F0F00E7A15826FF00E7B15836FAC
:10441800F00E7C15846FF00E7D15856FF00E7E15FD
:10442800866FF00E7F15876FF00E8015886FF00E7F
:104438008115896F72C08AF073C08BF074C08CF0DC
:1044480075C08DF076C08EF077C08FF078C090F090
:1044580079C091F0050E3AEF22F0D890913390335D
:104468008F338E338D338C338B338A33E82E31EF91
:1044780022F00F0E8A15926F0F0E8B15936F0F0E89
:104488008C15946F0F0E8D15956F0F0E8E15966FF8
:104498000F0E8F15976F0F0E9015986F0F0E9115C1
:1044A800996F82519211726F83519311736F845176
:1044B8009411746F85519511756F86519611766FA9
:1044C80087519711776F88519811786F8951991191
:1044D800796F72C07BF073C07CF074C07DF075C0DA
:1044E8007EF076C07FF077C080F078C081F07A6B7C
:1044F800000E7A15826FFF0E7B15836F000E7C15F8
:10450800846FFF0E7D15856F000E7E15866FFF0E7A
:104518007F15876F000E8015886FFF0E8115896FD4
:1045280072C08AF073C08BF074C08CF075C08DF0C7
:1045380076C08EF077C08FF078C090F079C091F097
:104548008BC08AF08CC08BF08DC08CF08EC08DF043
:104558008FC08EF090C08FF091C090F0916BFF0EDD
:104568008A15926F000E8B15936FFF0E8C15946F42
:10457800000E8D15956FFF0E8E15966F000E8F1518
:10458800976FFF0E9015986F000E9115996F8251D5
:104598009211726F83519311736F84519411746FD8
:1045A80085519511756F86519611766F87519711C0
:1045B800776F88519811786F89519911796F72C006
:1045C8007AF073C07BF074C07CF075C07DF076C063
:1045D8007EF077C07FF078C080F079C081F07FC02E
:1045E80081F07EC080F07DC07FF07CC07EF07BC013
:1045F8007DF07AC07CF07B6B7A6B000E7A15826F47
:10460800000E7B15836FFF0E7C15846FFF0E7D15E2
:10461800856F000E7E15866F000E7F15876FFF0E63
:104628008015886FFF0E8115896F72C08AF073C07C
:104638008BF074C08CF075C08DF076C08EF077C0AA
:104648008FF078C090F079C091F0110E35EF23F01B
:10465800D890913390338F338E338D338C338B33A3
:104668008A33E82E2CEF23F0FF0E8A15926FFF0E87
:104678008B15936F000E8C15946F000E8D15956F2A
:10468800FF0E8E15966FFF0E8F15976F000E901503
:10469800986F000E9115996F82519211726F835124
:1046A8009311736F84519411746F85519511756FBF
:1046B80086519611766F87519711776F88519811A7
:1046C800786F89519911796F72C07AF073C07BF055
:1046D80074C07CF075C07DF076C07EF077C07FF046
:1046E80078C080F079C081F0200ED8907A377B3777
:1046F8007C377D377E377F3780378137E82E79EFF3
:1047080023F0000E7A15826F000E7B15836F000E62
:104718007C15846F000E7D15856FFF0E7E15866FE4
:10472800FF0E7F15876FFF0E8015886FFF0E8115AE
:10473800896F72C08AF073C08BF074C08CF075C03A
:104748008DF076C08EF077C08FF078C090F079C089
:1047580091F0210EB9EF23F0D890913390338F3335
:104768008E338D338C338B338A33E82EB0EF23F0BE
:10477800FF0E8A15926FFF0E8B15936FFF0E8C1527
:10478800946FFF0E8D15956F000E8E15966F000EA7
:104798008F15976F000E9015986F000E9115996FF1
:1047A80082519211726F83519311736F84519411D6
:1047B800746F85519511756F86519611766F875173
:1047C8009711776F88519811786F89519911796F7E
:1047D80072C072F073C073F074C074F075C075F075
:1047E80076C076F077C077F078C078F079C079F045
:1047F80012000001ED05D8A404EF24F006EF24F020
:104808001FEF24F0DCC0BBF0DDC0BCF0DEC0BDF0A3
:10481800DFC0BEF0E0C0BFF0E1C0C0F0E2C0C1F050
:10482800E3C0C2F090EC3DF06F0E0001B06FFA0EDD
:10483800B16F43EC4BF0E2C04EF0E1C04DF0DCC08C
:10484800D3F0DDC0D4F0DEC0D5F0DFC0D6F0E0C0D4
:10485800D7F0E1C0D8F0E2C0D9F0E3C0DAF0210E19
:1048680040EF24F00001D890DA33D933D833D73366
:10487800D633D533D433D333E82E36EF24F0D3519F
:104888004C6EDCC0D3F0DDC0D4F0DEC0D5F0DFC0A4
:10489800D6F0E0C0D7F0E1C0D8F0E2C0D9F0E3C06C
:1048A800DAF0190E61EF24F0D890DA33D933D8331F
:1048B800D733D633D533D433D333E82E58EF24F057
:1048C800D3514B6EDCC0D3F0DDC0D4F0DEC0D5F0E0
:1048D800DFC0D6F0E0C0D7F0E1C0D8F0E2C0D9F030
:1048E800E3C0DAF0110E82EF24F0D890DA33D9332E
:1048F800D833D733D633D533D433D333E82E79EFFF
:1049080024F0D3514A6EDCC0D3F0DDC0D4F0DEC051
:10491800D5F0DFC0D6F0E0C0D7F0E1C0D8F0E2C0F3
:10492800D9F0E3C0DAF0D4C0D3F0D5C0D4F0D6C003
:10493800D5F0D7C0D6F0D8C0D7F0D9C0D8F0DAC0F3
:10494800D9F0DA6BD351496EDCC09BF101019B5160
:1049580049189B6F49504A18496E4A504B184A6E7D
:104968004B504C184B6E4C504D184C6E4D504E18C9
:104978004D6E0001ED05D8A4C4EF24F0C6EF24F075
:1049880012EF25F0C00EB06FFD0EB16F43EC4BF087
:10499800810E0001B06FFF0EB16F4EC0B2F0B36B65
:1049A80043EC4BF04C0E0001B06FFF0EB16F4DC0E1
:1049B800B2F0B36B43EC4BF0530E0001B06FFF0E37
:1049C800B16F4CC0B2F0B36B43EC4BF05A0E000120
:1049D800B06FFF0EB16F4BC0B2F0B36B43EC4BF04E
:1049E800610E0001B06FFF0EB16F4AC0B2F0B36B39
:1049F80043EC4BF0680E0001B06FFF0EB16F49C079
:104A0800B2F0B36B43EC4BF0D70E0001B06FFE0E63
:104A1800B16F9BC1B2F0B36B43EC4BF04E380F0B48
:104A28004E180001DB6F4D380F0BDB194D18DB6F8B
:104A38004C380F0BDB194C18DB6F4B380F0BDB199D
:104A48004B18DB6F4A380F0BDB194A18DB6F4938F4
:104A58000F0BDB194918DB6F01019B390F0B0001A4
:104A6800DB1901019B190001DB6FDB510F0BDB6FB9
:104A78004D380F0B0F0B486E080E4818D8B447EF87
:104A880025F04AEF25F0010E4BEF25F0000E01014D
:104A9800816F4C500001D46FD36B4B50D32501016B
:104AA800666F000E0001D4210101676F4AC0D3F080
:104AB8000001D46BD56BD66BD76BD86BD96BDA6B1F
:104AC800D8C0DAF0D7C0D9F0D6C0D8F0D5C0D7F062
:104AD800D4C0D6F0D3C0D5F0D46BD36BD3C038F1E3
:104AE800D4C039F1D5C03AF1D6C03BF1D7C03CF1BA
:104AF800D8C03DF1D9C03EF1DAC03FF149C0D3F08A
:104B0800D46BD56BD66BD76BD86BD96BDA6BD9C036
:104B1800DAF0D8C0D9F0D7C0D8F0D6C0D7F0D5C011
:104B2800D6F0D4C0D5F0D3C0D4F0D36B010138513E
:104B38000001D3110101386F39510001D41101016D
:104B4800396F3A510001D51101013A6F3B5100010B
:104B5800D61101013B6F3C510001D71101013C6F97
:104B68003D510001D81101013D6F3E510001D9119D
:104B780001013E6F3F510001DA1101013F6F9B5166
:104B88003825386F000E3921396F000E3A213A6FF7
:104B9800000E3B213B6F000E3C213C6F000E3D2177
:104BA8003D6F000E3E213E6F000E3F213F6F00011A
:104BB800ED05D8A4E2EF25F0E4EF25F076EF26F036
:104BC800FC0EB06FFD0EB16FDBC0B2F0B36B43ECFF
:104BD8004BF00001DB51D8B4F4EF25F0F6EF25F0E7
:104BE800FCEF25F03D0EB06FFF0EB16F43EC4BF0BC
:104BF8006F0E0001B06FFA0EB16F43EC4BF0080E68
:104C08000001B06FFE0EB16F4EC0B2F0B36B43EC53
:104C18004BF04E50F00BA00AD8B415EF26F017EF62
:104C280026F01EEF26F0760E0001B06FFE0EB16F73
:104C380043EC4BF06F0E0001B06FFA0EB16F43EC0E
:104C48004BF0210E0001B06FFD0EB16F4EC0D3F0D6
:104C58000F0ED317D351B26FB36B43EC4BF07D0EED
:104C68000001B06FFD0EB16F48C0B2F0B36B43ECFA
:104C78004BF0E00E0001B06FFE0EB16F4DC0D3F0E7
:104C88000F0ED317D351B26FB36B43EC4BF0D80E62
:104C98000001B06FFD0EB16F66C1B2F067C1B3F02D
:104CA80043EC4BF0B20E0001B06FFE0EB16F43EC57
:104CB8004BF038C1BBF039C1BCF03AC1BDF03BC1C3
:104CC800BEF03CC1BFF03DC1C0F03EC1C1F03FC124
:104CD800C2F0A0EC4AF06F0E0001B06FFA0EB16F8F
:104CE80043EC4BF00001DB51D8B47DEF26F080EFA8
:104CF80026F0010E81EF26F0000E1200000E0001D2
:104D0800E46F000EE56F000EE66F000EE76FE4C07B
:104D1800C7F0E5C0C8F0D890C737C837D890C737AC
:104D2800C837000EC725726F010EC821736F6BEC70
:104D38004BF00001C96FC951D36FD46BD56BD66BDB
:104D4800E4C0C7F0E5C0C8F0D890C737C837D890D6
:104D5800C737C837010EC725726F010EC821736F98
:104D68006BEC4BF00001C96FC9C0CAF0CB6BCC6BC0
:104D7800CD6BCCC0CDF0CBC0CCF0CAC0CBF0CA6BE9
:104D8800D351CA25D36FD451CB21D46FD551CC215F
:104D9800D56FD651CD21D66FE4C0C7F0E5C0C8F0B5
:104DA800D890C737C837D890C737C837020EC72535
:104DB800726F010EC821736F6BEC4BF00001C96F65
:104DC800C9C0CAF0CB6BCC6BCD6BCBC0CDF0CAC021
:104DD800CCF0CB6BCA6BD351CA25D36FD451CB213E
:104DE800D46FD551CC21D56FD651CD21D66FE4C023
:104DF800C7F0E5C0C8F0D890C737C837D890C737CC
:104E0800C837030EC725726F010EC821736F6BEC8C
:104E18004BF00001C96FC9C0CAF0CB6BCC6BCD6B2E
:104E2800CAC0CDF0CC6BCB6BCA6BD351CA25D36F3C
:104E3800D451CB21D46FD551CC21D56FD651CD21AA
:104E4800D66F010EE427000EE523E623E723D329D6
:104E58000CE1D4290AE1D52908E1D629D8B437EFDD
:104E680027F039EF27F046EF27F0E751E611E51173
:104E780009E1140EE45DD8A044EF27F046EF27F0CF
:104E88008BEF26F0E407000EE55BE65BE75BE75196
:104E9800E611E51109E1150EE45DD8A056EF27F0FB
:104EA80058EF27F060EF27F0110EB06FFD0EB16FCD
:104EB80043EC4BF0F1EF28F0E4C0C7F0E5C0C8F0D0
:104EC800D890C737C837D890C737C837000EC72516
:104ED800726F010EC821736F38C174F0BCEC48F0D2
:104EE800E4C0C7F0E5C0C8F00001D890C737C8379C
:104EF800D890C737C837010EC725726F010EC82171
:104F0800736F38C1C9F039C1CAF03AC1CBF03BC19F
:104F1800CCF03CC1CDF03DC1CEF03EC1CFF03FC199
:104F2800D0F0CAC0C9F0CBC0CAF0CCC0CBF0CDC05D
:104F3800CCF0CEC0CDF0CFC0CEF0D0C0CFF0D06B8B
:104F4800C951746FBCEC48F0E4C0C7F0E5C0C8F0C4
:104F58000001D890C737C837D890C737C837020E6E
:104F6800C725726F010EC821736F38C1C9F039C1E6
:104F7800CAF03AC1CBF03BC1CCF03CC1CDF03DC149
:104F8800CEF03EC1CFF03FC1D0F0110ED5EF27F0E3
:104F9800D890D033CF33CE33CD33CC33CB33CA33A1
:104FA800C933E82ECCEF27F0C951746FBCEC48F038
:104FB8000001EC05D8A4E3EF27F0E5EF27F020EF98
:104FC80028F0E4C0C7F0E5C0C8F0D890C737C837A4
:104FD800D890C737C837030EC725726F010EC8218E
:104FE800736F48C0C9F0C93BF00EC91738C1CAF081
:104FF80039C1CBF03AC1CCF03BC1CDF03CC1CEF0C9
:105008003DC1CFF03EC1D0F03FC1D1F0190E16EF2F
:1050180028F0D890D133D033CF33CE33CD33CC33FF
:10502800CB33CA33E82E0DEF28F0CA51C911746F7B
:10503800BCEC48F069EF28F0030EEC19D8A427EF70
:1050480028F029EF28F02BEF28F0E5EF27F0040EE1
:10505800EC19D8A432EF28F034EF28F036EF28F016
:10506800E5EF27F0E4C0C7F0E5C0C8F0D890C7372F
:10507800C837D890C737C837030EC725726F010ED7
:10508800C821736F38C1C9F039C1CAF03AC1CBF031
:105098003BC1CCF03CC1CDF03DC1CEF03EC1CFF01C
:1050A8003FC1D0F0190E62EF28F0D890D033CF333B
:1050B800CE33CD33CC33CB33CA33C933E82E59EF93
:1050C80028F0C951746FBCEC48F08B0E0001B06F2A
:1050D800FD0EB16F43EC4BF038C1BBF039C1BCF0E9
:1050E8003AC1BDF03BC1BEF03CC1BFF03DC1C0F00C
:1050F8003EC1C1F03FC1C2F0A0EC4AF0140E00015D
:10510800B06FFE0EB16F43EC4BF0000E0001E46F80
:10511800000EE56F000EE66F000EE76FE751E6112F
:10512800E51109E10A0EE45DD8A09DEF28F09FEF94
:1051380028F0A1EF28F0C4EF28F0050E0001C86F91
:105148000F0EC76FF10EE82EFED7C72FFCD7C82F5A
:10515800FAD78290050E0001C86F0F0EC76FF10EC7
:10516800E82EFED7C72FFCD7C82FFAD78280010EAA
:105178000001E427000EE523E623E72392EF28F059
:1051880038C174F039C175F03AC176F03BC177F097
:10519800CFEC30F00001D26FD251D8B4D6EF28F05E
:1051A800D8EF28F0E4EF28F0D251020D000EF324D6
:1051B800D96E010EF420DA6E66C1DEFF67C1DDFF2D
:1051C800520E0001C86F2B0EC76F000EE82EFED7D7
:1051D800C72FFCD7C82FFAD70000120000019E5134
:1051E800D96EDA6ADECFF6FFDDCFF7FFF86A08007E
:1051F800F550250AD8A403EF29F005EF29F0AAEF06
:105208002AF09E51D96EDA6ADE2A000EDD22000EDF
:105218000101596F000E586F58C180F15A695B69D6
:105228000001A26B37EF29F00101808300019E5134
:10523800D96EDA6ADE2A000EDD2237EF29F0010E78
:10524800A26F37EF29F09E51D96EDA6ADECFF6FFEA
:10525800DDCFF7FFF86A0800F550300AD8B418EF28
:1052680029F023EF29F0A251D8B43DEF29F03FEF00
:1052780029F027EF29F09EC072F09FC073F009EC67
:1052880043F072C058F173C059F1010159BF51EF91
:1052980029F04FEF29F056EF29F08081586D591FFA
:1052A800D8B0592B00019E51D96EDA6ADECFA8F02A
:1052B800DDCFA9F0A8C0F6FFA9C0F7FFF86A08007B
:1052C800F5CFA7F073EF29F0A84BA92B8EEF29F0A3
:1052D800690EA76F8EEF29F0A76B8EEF29F0A75103
:1052E800580AD8B46CEF29F03C0AD8B46CEF29F00E
:1052F8000D0AD8B46CEF29F0050AD8B468EF29F084
:10530800190AD8B46CEF29F00D0AD8B46CEF29F05B
:1053180070EF29F0A8C0F6FFA9C0F7FFF86A0800E7
:10532800F550640AD8B49BEF29F09DEF29F0D3EF2C
:1053380029F0A8C0F6FFA9C0F7FFF86A0800F550E1
:10534800690AD8A4AAEF29F0ACEF29F0F9EF29F0FF
:10535800D3EF29F09F51D96EDA6ADF50DF2ADF2AAE
:10536800D96EDA6ADECFA3F0DDCFA4F0000EA4BFB9
:10537800FF0EA56FA66FDEEF29F09F51D96EDA6A8E
:10538800040EDF26DF5CD96EDA6ADECFA3F0DECF4B
:10539800A4F0DECFA5F0DECFA6F0DEEF29F0A7510E
:1053A800690AD8B4AEEF29F0050AD8B4C1EF29F0DC
:1053B800DEEF29F0010EA825A06F000EA921A16F2C
:1053C8009E51D96EDA6AA0C0DEFFA1C0DDFF9DC084
:1053D8008AF0A3C08BF0A4C08CF0A5C08DF0A6C045
:1053E8008EF0F2EC34F0BCEF2AF0A8C0F6FFA9C0AA
:1053F800F7FFF86A0800F550780AD8B406EF2AF0E3
:1054080008EF2AF04EEF2AF0A8C0F6FFA9C0F7FF70
:10541800F86A0800F550580AD8B415EF2AF017EFC3
:105428002AF04EEF2AF0A8C0F6FFA9C0F7FFF86AE5
:105438000800F550750AD8A424EF2AF026EF2AF0C0
:10544800A1EF2AF04EEF2AF09F51D96EDA6ADF50A9
:10545800DF2ADF2AD96EDA6ADECFA0F0DDCFA1F02D
:10546800A0C0A3F0A1C0A4F0A56BA66B59EF2AF0C9
:105478009F51D96EDA6A040EDF26DF5CD96EDA6ACC
:10548800DECFA3F0DECFA4F0DECFA5F0DECFA6F00E
:1054980059EF2AF0A751690AD8B428EF2AF0050A6B
:1054A800D8B43CEF2AF059EF2AF0010EA825A06FD6
:1054B800000EA921A16F9E51D96EDA6AA0C0DEFF45
:1054C800A1C0DDFF8CEF2AF09DC08AF0A3C08BF04D
:1054D800A4C08CF0A5C08DF0A6C08EF0E0EC3AF028
:1054E800BCEF2AF09DC08AF0A3C08BF0A4C08CF05A
:1054F800A5C08DF0A6C08EF0A8C0F6FFA9C0F7FF22
:10550800F86A0800F5CF8FF094EC39F0BCEF2AF078
:10551800A8C0F6FFA9C0F7FFF86A0800F550580AB6
:10552800D8B476EF2AF02D0AD8B468EF2AF00D0A1D
:10553800D8B476EF2AF0A1EF2AF000019E51D96E77
:10554800DA6ADE2A000EDD22BCEF2AF09E51D96EFF
:10555800DA6ADECFF6FFDDCFF7FFF86A0800F5500C
:10556800746F756B9DC076F04EEC42F0A1EF2AF097
:1055780012002D50D96EDA6ADECFF6FFDDCFF7FFC5
:10558800F86A0800F550250AD8A4CDEF2AF0CFEF25
:105598002AF070EF2CF02D50D96EDA6ADE2A000E50
:1055A800DD22000E0101596F000E586F58C180F1BD
:1055B8005A695B69316AFFEF2AF0010180832D5037
:1055C800D96EDA6ADE2A000EDD22FFEF2AF0010E1C
:1055D800316EFFEF2AF02D50D96EDA6ADECFF6FF72
:1055E800DDCFF7FFF86A0800F550300AD8B4E1EFCC
:1055F8002AF0EBEF2AF03150D8B405EF2BF007EF83
:105608002BF0EFEF2AF02DC001F02EC002F0BAEC1B
:1056180043F001C058F102C059F1010159BF19EF17
:105628002BF017EF2BF01EEF2BF08081586D591FD0
:10563800D8B0592B2D50D96EDA6ADECF37F0DDCFCE
:1056480038F037C0F6FF38C0F7FFF86A0800F5CF22
:1056580036F03AEF2BF0374A382A55EF2BF0690E1F
:10566800366E55EF2BF0366A55EF2BF03650580A48
:10567800D8B433EF2BF03C0AD8B433EF2BF00D0A33
:10568800D8B433EF2BF0050AD8B42FEF2BF0190A52
:10569800D8B433EF2BF00D0AD8B433EF2BF037EF33
:1056A8002BF037C0F6FF38C0F7FFF86A0800F5504E
:1056B800640AD8B462EF2BF064EF2BF09AEF2BF06A
:1056C80037C0F6FF38C0F7FFF86A0800F550690AD6
:1056D800D8A471EF2BF073EF2BF0C0EF2BF09AEFFB
:1056E8002BF02E50D96EDA6ADF50DF2ADF2AD96E06
:1056F800DA6ADECF32F0DDCF33F0000E33BEFF0EB4
:10570800346E356EA5EF2BF02E50D96EDA6A040E82
:10571800DF26DF5CD96EDA6ADECF32F0DECF33F017
:10572800DECF34F0DECF35F0A5EF2BF03650690A26
:10573800D8B475EF2BF0050AD8B488EF2BF0A5EF95
:105748002BF0010E37242F6E000E3820306E2D50AE
:10575800D96EDA6A2FC0DEFF30C0DDFF2CC019F029
:1057680032C01AF033C01BF034C01CF035C01DF035
:10577800C7EC35F082EF2CF037C0F6FF38C0F7FFE2
:10578800F86A0800F550780AD8B4CDEF2BF0CFEFBF
:105798002BF015EF2CF037C0F6FF38C0F7FFF86A8A
:1057A8000800F550580AD8B4DCEF2BF0DEEF2BF0E8
:1057B80015EF2CF037C0F6FF38C0F7FFF86A08007D
:1057C800F550750AD8A4EBEF2BF0EDEF2BF068EF4E
:1057D8002CF015EF2CF02E50D96EDA6ADF50DF2A44
:1057E800DF2AD96EDA6ADECF2FF0DDCF30F02FC096
:1057F80032F030C033F0346A356A20EF2CF02E5086
:10580800D96EDA6A040EDF26DF5CD96EDA6ADECF7B
:1058180032F0DECF33F0DECF34F0DECF35F020EFDC
:105828002CF03650690AD8B4EFEF2BF0050AD8B43B
:1058380003EF2CF020EF2CF0010E37242F6E000E12
:105848003820306E2D50D96EDA6A2FC0DEFF30C096
:10585800DDFF53EF2CF02CC019F032C01AF033C022
:105868001BF034C01CF035C01DF0FBEC3BF082EFA0
:105878002CF02CC019F032C01AF033C01BF034C021
:105888001CF035C01DF037C0F6FF38C0F7FFF86AC6
:105898000800F5CF1EF03CEC3AF082EF2CF037C050
:1058A800F6FF38C0F7FFF86A0800F550580AD8B470
:1058B8003DEF2CF02D0AD8B42FEF2CF00D0AD8B4F8
:1058C8003DEF2CF068EF2CF02D50D96EDA6ADE2A05
:1058D800000EDD2282EF2CF02D50D96EDA6ADECF71
:1058E800F6FFDDCFF7FFF86A0800F550036E046A8B
:1058F8002CC005F0ACEC42F068EF2CF01200000E62
:105908000001B16F000EB06F84518511D8A48FEFDC
:105918002CF091EF2CF093EF2CF003EF2EF07CC0DD
:1059280086F0010E86177CC087F07DC088F07EC0A7
:1059380089F07FC08AF080C08BF081C08CF082C073
:105948008DF083C08EF088C087F089C088F08AC047
:1059580089F08BC08AF08CC08BF08DC08CF08EC023
:105968008DF08E6B010E8717D89087358F6F7CC0AE
:1059780090F07DC091F07EC092F07FC093F080C01F
:1059880094F081C095F082C096F083C097F0140E11
:10599800D7EF2CF0D89097339633953394339333CD
:1059A800923391339033E82ECEEF2CF0010E9017FE
:1059B800D8909037D89090377CC098F07DC099F0F7
:1059C8007EC09AF07FC09BF080C09CF081C09DF0A3
:1059D80082C09EF083C09FF01A0EFCEF2CF0D89086
:1059E8009F339E339D339C339B339A33993398333B
:1059F800E82EF3EF2CF0010E9817D8909837D8902E
:105A08009837D89098377CC0A0F07DC0A1F07EC0B0
:105A1800A2F07FC0A3F080C0A4F081C0A5F082C02E
:105A2800A6F083C0A7F01F0E23EF2DF0D890A73360
:105A3800A633A533A433A333A233A133A033E82E6E
:105A48001AEF2DF0010EA017A039F00B9811901144
:105A58008F118611AD6FAD513BEC4AF00001AC6F70
:105A6800B0510F083F0BAF6FAFC086F0070E861717
:105A7800AFC072F0736B000E756F080E746FECECAC
:105A880041F0000172517A25D96E73517B21DA6E8B
:105A9800DF50876F862B53EF2DF0D8908733862FF2
:105AA80051EF2DF000018751AE6F7CC086F07DC0AC
:105AB80087F07EC088F07FC089F080C08AF081C0FE
:105AC8008BF082C08CF083C08DF0100E75EF2DF036
:105AD800D8908D338C338B338A338933883387332B
