:040000006DEF06F0AA
:100008005382E1CF64F0E2CF65F0D9CF66F0DACF62
:1000180067F0F3CF68F0F4CF69F0F6CF6AF0F7CF66
:100028006BF0F8CF6CF0F5CF6DF0F2A61EEF00F094
:1000380020EF00F057EF06F0F2A025EF00F027EFD1
:1000480000F057EF06F081A82CEF00F02FEF00F03A
:10005800010E30EF00F0000E0101546FEAC024F1E8
:10006800EBC025F1ECC026F1EDC027F1D650D7CF73
:1000780060F00001616B626B636B62C063F061C02A
:1000880062F060C061F0606B6025EA6F000E61216C
:10009800EB6F000E6221EC6F000E6321ED6FD76AE3
:1000A800D66A030EEF19D8A45CEF00F05EEF00F0FB
:1000B80087EF00F0ED51EC110BE12D0EEA5D010E1A
:1000C800EB59D8A06AEF00F06CEF00F056EF06F09D
:1000D800710E3F6EFB0E406E54C141F0426A10EC47
:1000E80038F0680E3F6EFF0E406EEAC041F0EBC07C
:1000F80042F0ECC043F0EDC044F010EC38F056EF9D
:1001080006F056EF06F04E4A4F2A01015751D8A47F
:1001180090EF00F092EF00F0E3EF00F00001ED51F6
:10012800EC110BE1790EEA5D920EEB59D8A09FEF26
:1001380000F0A1EF00F0E3EF00F0ED51EC1109E160
:10014800A80EEA5D940EEB59D8B0ADEF00F0AFEF12
:1001580000F0E3EF00F0000E4F6E010E4E6E010E40
:1001680001015B6FEAC036F1EBC037F1020E000106
:10017800EF19D8A4C2EF00F0C4EF00F0D2EF00F0FE
:10018800E90E3F6EFD0E406EEAC041F0EBC042F052
:10019800ECC043F0EDC044F010EC38F0010E010162
:1001A800576F010E0001EE6F20EEDEF0070EDE6ADB
:1001B800E806FDE2010E01015A6F56EF06F0010153
:1001C8005751D8A4EAEF00F0ECEF00F038EF01F057
:1001D8000001ED51EC110BE1330EEA5D730EEB59A2
:1001E800D8A0F9EF00F0FBEF00F038EF01F0ED5187
:1001F800EC1109E1C20EEA5D740EEB59D8B007EFB5
:1002080001F009EF01F038EF01F0000E4F6E010E1A
:100218004E6E020EEE6FD8904E34D96E4F34DA6EB1
:10022800820ED926050EDA22EAC0DEFFEBC0DDFF1A
:10023800020EEF19D8A423EF01F025EF01F033EFF8
:1002480001F0750E3F6EFE0E406EEAC041F0EBC045
:1002580042F0ECC043F0EDC044F010EC38F0010E71
:100268000101576FD8EF00F00101275126110AE16B
:100278002405130E2559D8A044EF01F046EF01F0EC
:10028800C2EF01F02751261109E1B80E245D140EC2
:100298002559D8B052EF01F054EF01F0C2EF01F048
:1002A8005451D8B45AEF01F05CEF01F0C2EF01F0FD
:1002B8005751D8A462EF01F064EF01F0C2EF01F0EA
:1002C8000001ED51EC110BE1A50EEA5D240EEB598E
:1002D800D8A071EF01F073EF01F0C2EF01F0ED511A
:1002E800EC1109E15C0EEA5D260EEB59D8B07FEF00
:1002F80001F081EF01F0C2EF01F0000E4F6E010E28
:100308004E6E010E0101536F040E0001EE6F020ED6
:10031800EF19D8A492EF01F094EF01F0A2EF01F0E9
:10032800800E3F6EFE0E406EEAC041F0EBC042F018
:10033800ECC043F0EDC044F010EC38F0D8904E34E7
:10034800D96E4F34DA6E820ED926050EDA22EAC04B
:10035800DEFFEBC0DDFF000E0101336F000E326FD0
:10036800000E2F6F000E2E6F010E576F20EEDEF07D
:10037800070EDE6AE806FDE256EF06F0040E0001FD
:10038800EE19D8B4CAEF01F0CDEF01F0010ECEEFAF
:1003980001F0000E606F616B010157510001601799
:1003A800000E611760516111D8B4DDEF01F0DFEF85
:1003B80001F000EF03F04F5007E1960E4E5CD8B005
:1003C800E8EF01F0EAEF01F0FEEF01F0D8904E34CB
:1003D800D96E4F34DA6E820ED926050EDA22EAC0BB
:1003E800DEFFEBC0DDFF000E4E24D96E020E4F205B
:1003F800DA6EDF6AED51EC110BE15B0EEA5D090E76
:10040800EB59D8A00AEF02F00CEF02F071EF02F0FE
:10041800ED51EC1109E1120EEA5D0B0EEB59D8B063
:1004280018EF02F01AEF02F071EF02F0000E01016E
:100438002F6F000E2E6F5451D8B425EF02F027EF1E
:1004480002F03DEF02F0324B332BD8900001DE353D
:10045800DE6FDF35DF6FE035E06FE135E16FE23504
:10046800E26FE335E36FE435E46FE535E56F62EF9E
:1004780002F0324B332BD8900001DE35DE6FDF35CA
:10048800DF6FE035E06FE135E16FE235E26FE335CC
:10049800E36FE435E46FE535E56F010EDE11DE6FDD
:1004A800DF51DF6FE051E06FE151E16FE251E26F40
:1004B800E351E36FE451E46FE551E56F380E010154
:1004C80032193311D8A46BEF02F06DEF02F056EF3A
:1004D80006F01DEC38F056EF06F0ED51EC110BE18B
:1004E8004A0EEA5D040EEB59D8A07DEF02F07FEFCB
:1004F80002F0EEEF02F0ED51EC1108E1EA05060E0C
:10050800EB59D8B08AEF02F08CEF02F0EEEF02F070
:1005180001012E4B2F2B2E052F11D8A496EF02F098
:1005280098EF02F09AEF02F056EF06F0000E2F6FE8
:10053800000E2E6F5451D8A4A4EF02F0A6EF02F0DB
:10054800CDEF02F0324B332BD8900001DE35DE6F51
:10055800DF35DF6FE035E06FE135E16FE235E26FFF
:10056800E335E36FE435E46FE535E56F010EDE1141
:10057800DE6FDF51DF6FE051E06FE151E16FE25173
:10058800E26FE351E36FE451E46FE551E56FE1EFAA
:1005980002F0324B332BD8900001DE35DE6FDF35A9
:1005A800DF6FE035E06FE135E16FE235E26FE335AB
:1005B800E36FE435E46FE535E56F380E0101321974
:1005C8003311D8A4EAEF02F0ECEF02F056EF06F090
:1005D8006DEF02F0EF05D8A4F4EF02F0F6EF02F0A9
:1005E800FCEF02F0FA0E3F6EFF0E406E10EC38F092
:1005F800D6EC38F056EF06F0020EEE19D8A407EF45
:1006080003F009EF03F018EF04F001015751D8B4D3
:1006180010EF03F012EF03F018EF04F00001ED51B2
:10062800EC110BE1570EEA5D040EEB59D8A01FEF51
:1006380003F021EF03F091EF03F0ED51EC1109E124
:10064800AA0EEA5D050EEB59D8B02DEF03F02FEF97
:1006580003F091EF03F0D890DE35DE6FDF35DF6F02
:10066800E035E06FE135E16FE235E26FE335E36FE6
:10067800E435E46FE535E56F010EDE11DE6FDF511D
:10068800DF6FE051E06FE151E16FE251E26FE3515A
:10069800E36FE451E46FE551E56F4F5007E1960EC3
:1006A8004E5CD8B05AEF03F05CEF03F070EF03F044
:1006B800D8904E34D96E4F34DA6E820ED926050E94
:1006C800DA22EAC0DEFFEBC0DDFF000E4E24D96E51
:1006D800020E4F20DA6EDF6A1A0E4E184F10D8A499
:1006E80078EF03F07AEF03F056EF06F029EC38F0D4
:1006F80056EF06F0010EDE11DE6FDF51DF6FE051BD
:10070800E06FE151E16FE251E26FE351E36FE451D1
:10071800E46FE551E56F56EF06F0ED51EC110BE192
:10072800D70EEA5D010EEB59D8A09DEF03F09FEFBD
:1007380003F0FDEF03F0ED51EC1109E12A0EEA5D3B
:10074800030EEB59D8B0ABEF03F0ADEF03F0FDEFBC
:1007580003F0D890DE35DE6FDF35DF6FE035E06F10
:10076800E135E16FE235E26FE335E36FE435E46FDD
:10077800E535E56F4F5007E1960E4E5CD8B0C7EFF0
:1007880003F0C9EF03F0DDEF03F0D8904E34D96ED3
:100798004F34DA6E820ED926050EDA22EAC0DEFF61
:1007A800EBC0DDFF000E4E24D96E020E4F20DA6E2C
:1007B800DF6A1A0E4E184F10D8A4E5EF03F0E7EFE2
:1007C80003F056EF06F07AEF03F0D8900001DE351B
:1007D800DE6FDF35DF6FE035E06FE135E16FE23581
:1007E800E26FE335E36FE435E46FE535E56F56EF27
:1007F80006F0D6EC38F04EC030F14FC031F10001B0
:10080800EF05D8A40AEF04F00CEF04F056EF06F059
:10081800200E3F6EFF0E406E4EC041F04FC042F0BA
:1008280010EC38F056EF06F00001EE05D8A41FEFE3
:1008380004F021EF04F056EF06F0ED51EC110BE156
:100848008C0EEA5D0A0EEB59D8A02DEF04F02FEFBD
:1008580004F02CEF05F0ED51EC1109E1BB0EEA5D57
:100868000C0EEB59D8B03BEF04F03DEF04F02CEF41
:1008780005F001015751D8A444EF04F046EF04F005
:1008880048EF04F056EF06F06C0E4E184F10D8A43F
:1008980050EF04F052EF04F07EEF04F05B6B5A6BFC
:1008A800D8904E34D96E4F34DA6E820ED926050EA2
:1008B800DA22EAC0DEFFEBC0DDFF000E4E24D96E5F
:1008C800020E4F20DA6EDF6A4EC030F14FC031F1B0
:1008D800576B5B6B566B5A6B6C0E4E184F10D8A447
:1008E80078EF04F07AEF04F056EF06F0010E5C6F33
:1008F80056EF06F0020E4E184F10D8B486EF04F0EB
:1009080088EF04F092EF04F0030E4E184F10D8A4AD
:1009180090EF04F092EF04F0F1EF04F0020E4E189D
:100928004F10D8A49AEF04F09CEF04F0A2EF04F063
:10093800EAC034F1EBC035F156EF06F0030E4E185D
:100948004F10D8A4AAEF04F0ACEF04F0F1EF04F0D4
:10095800D8904E34D96E4F34DA6E7E0ED926050EF5
:10096800DA2236C1DEFF37C1DDFFFE0E4E24D96E16
:10097800010E4F20DA6EDF6AD8904E34D96E4F34AC
:10098800DA6E800ED926050EDA2234C1DEFF35C1B3
:10099800DDFFFF0E4E24D96E010E4F20DA6EDF6A9E
:1009A800D8904E34D96E4F34DA6E820ED926050EA1
:1009B800DA22EAC0DEFFEBC0DDFF000E4E24D96E5E
:1009C800020E4F20DA6EDF6A010E566F000E336F8B
:1009D800000E326F5A6B56EF06F04F5007E16C0E5F
:1009E8004E5CD8B0FAEF04F0FCEF04F011EF05F01C
:1009F800D8904E34D96E4F34DA6E820ED926050E51
:100A0800DA22EAC0DEFFEBC0DDFF000E4E24D96E0D
:100A1800020E4F20DA6E030EDF6ED6EC38F04EC0B1
:100A280030F14FC031F10001EF05D8A41EEF05F0F9
:100A380020EF05F056EF06F0800E3F6EFF0E406E79
:100A48004EC041F04FC042F010EC38F056EF06F0BF
:100A580001015651D8B433EF05F035EF05F056EFE4
:100A680006F00001ED51EC110BE1930EEA5D060E64
:100A7800EB59D8A042EF05F044EF05F0C3EF05F0BD
:100A8800ED51EC1109E1C20EEA5D080EEB59D8B040
:100A980050EF05F052EF05F0C3EF05F04F5007E1B6
:100AA800960E4E5CD8B05BEF05F05DEF05F071EF88
:100AB80005F0D8904E34D96E4F34DA6E820ED926AE
:100AC800050EDA22EAC0DEFFEBC0DDFF000E4E2481
:100AD800D96E020E4F20DA6EDF6A4EB076EF05F05F
:100AE80078EF05F07DEF05F0010E0101596F56EF23
:100AF80006F001015951D8A484EF05F086EF05F0FE
:100B08009CEF05F0324B332BD8900001DE35DE6FB9
:100B1800DF35DF6FE035E06FE135E16FE235E26F39
:100B2800E335E36FE435E46FE535E56F7EEF03F019
:100B3800000E4F6E000E4E6ED6EC38F00001EF0539
:100B4800D8A4A9EF05F0ABEF05F085EF00F0000E93
:100B58004E24D96E020E4F20DA6E020EDF6EAB0EF7
:100B68003F6EFE0E406EEAC041F0EBC042F0ECC0B2
:100B780043F0EDC044F010EC38F056EF06F0ED51BC
:100B8800EC110BE1A70EEA5D020EEB59D8A0CFEFEE
:100B980005F0D1EF05F03DEF06F0ED51EC1109E15C
:100BA800D60EEA5D040EEB59D8B0DDEF05F0DFEFA5
:100BB80005F03DEF06F04F5007E1960E4E5CD8B0B9
:100BC800E8EF05F0EAEF05F0FEEF05F0D8904E34B7
:100BD800D96E4F34DA6E820ED926050EDA22EAC0B3
:100BE800DEFFEBC0DDFF000E4E24D96E020E4F2053
:100BF800DA6EDF6A4EB003EF06F005EF06F009EF94
:100C080006F00101596B56EF06F001015905D8A409
:100C180010EF06F012EF06F016EF06F0324B332B0A
:100C2800E9EF03F0000E4F6E000E4E6ED6EC38F072
:100C38000001EF05D8A423EF06F025EF06F085EFB5
:100C480000F0000E4E24D96E020E4F20DA6E030E0D
:100C5800DF6E6A0E3F6EFE0E406EEAC041F0EBC0DA
:100C680042F0ECC043F0EDC044F010EC38F056EF21
:100C780006F0D6EC38F04EC030F14FC031F100012B
:100C8800EF05D8A44AEF06F04CEF06F085EF00F028
:100C9800280E3F6EFF0E406E4EC041F04FC042F02E
:100CA80010EC38F0F2906DC0F5FF6CC0F8FF6BC027
:100CB800F7FF6AC0F6FF69C0F4FF68C0F3FF67C0BA
:100CC800DAFF66C0D9FF65C0E2FF64C0E1FF539256
:100CD8001100EAEF32F0C5C06EF0C6C06FF0F20E38
:100CE8000001706FFF0E716F79EC34F000016E51E6
:100CF8006F11D8A482EF06F084EF06F088EF06F0B3
:100D080053EC28F071EF0DF0C5C06EF0C6C06FF05F
:100D1800E00E706FFF0E716F79EC34F000016E51C8
:100D28006F11D8A49AEF06F09CEF06F0EFEF06F0EB
:100D3800EF2B030EEF65A3EF06F0A5EF06F0A6EF85
:100D480006F0EF6BD30EAC6FFE0EAD6FEFC0AEF0DA
:100D5800AF6BF5EC37F00001EF51D8A4B6EF06F011
:100D6800B8EF06F0BEEF06F08B0EAC6FFD0EAD6F60
:100D7800F5EC37F00001EF05D8A4C5EF06F0C7EF92
:100D880006F0CDEF06F0330EAC6FFC0EAD6FF5EC50
:100D980037F0020E0001EF19D8A4D5EF06F0D7EF0F
:100DA80006F0DDEF06F0C10EAC6FFC0EAD6FF5EC92
:100DB80037F0030E0001EF19D8A4E5EF06F0E7EFCE
:100DC80006F071EF0DF0C50EAC6FF90EAD6FF5ECD6
:100DD80037F071EF0DF0C5C06EF0C6C06FF0E20ECF
:100DE800706FFF0E716F79EC34F000016E516F1166
:100DF800D8A401EF07F003EF07F050EF07F0010167
:100E0800602B020E6019D8A40CEF07F00EEF07F064
:100E18000FEF07F0606BBF0E0001AC6FFB0EAD6FFC
:100E280001016051040DF50EF324D96E010EF42072
:100E3800DA6EDECFAEF0DECFAFF0DECFB0F0DECFD1
:100E4800B1F0F5EC37F001016051D8A42EEF07F0AE
:100E580030EF07F03BEF07F0A70E0001AC6FFB0E79
:100E6800AD6FF5EC37F0060E7D6E820EAF6E0101A8
:100E78006005D8A442EF07F044EF07F071EF0DF0DA
:100E8800D00E0001AC6FFD0EAD6FF5EC37F07D6A4A
:100E9800440EAF6E71EF0DF0C5C06EF0C6C06FF0B6
:100EA800E40E706FFF0E716F79EC34F000016E5133
:100EB8006F11D8A462EF07F064EF07F084EF07F032
:100EC80001016051D8B46BEF07F06DEF07F074EFD4
:100ED80007F0570E0001AC6FF80EAD6FF5EC37F068
:100EE800780E0001AC6FF60EAD6FF5EC37F0000E22
:100EF8000001836F010E826FC9EC1EF071EF0DF0D7
:100F0800C5C06EF0C6C06FF0E60E706FFF0E716F51
:100F180079EC34F000016E516F11D8A496EF07F008
:100F280098EF07F0B8EF07F001016051D8B49FEFD0
:100F380007F0A1EF07F0A8EF07F0570E0001AC6F1C
:100F4800F80EAD6FF5EC37F0D50E0001AC6FF60E6C
:100F5800AD6FF5EC37F0000E0001836F020E826F63
:100F6800C9EC1EF071EF0DF0C5C06EF0C6C06FF091
:100F7800E80E706FFF0E716F79EC34F000016E515E
:100F88006F11D8A4CAEF07F0CCEF07F0D0EF07F045
:100F980058EC16F071EF0DF0C5C06EF0C6C06FF0DA
:100FA800EA0E706FFF0E716F79EC34F000016E512C
:100FB8006F11D8A4E2EF07F0E4EF07F096EF08F01E
:100FC800F29E9C0EAC6FFC0EAD6FF5EC37F05AEF4D
:100FD80008F0870E0001AC6FFF0EAD6FF5EC37F02F
:100FE80082EF08F01A0E0001AC6FFD0EAD6F20C144
:100FF800AEF021C1AFF022C1B0F023C1B1F0F5ECE1
:1010080037F082EF08F05A0E0001AC6FFB0EAD6F9F
:1010180020C1AEF021C1AFF022C1B0F023C1B1F0C0
:10102800F5EC37F082EF08F0EB0E0001AC6FF90E2B
:10103800AD6FF5EC37F082EF08F0ED0E0001AC6F04
:10104800FA0EAD6FF5EC37F082EF08F0240E0001D0
:10105800AC6FF90EAD6FF5EC37F082EF08F06C0E5F
:101068000001AC6FFD0EAD6FF5EC37F082EF08F0C4
:101078008B0E0001AC6FFE0EAD6FF5EC37F082EF12
:1010880008F0740E0001AC6FFB0EAD6FF5EC37F095
:1010980082EF08F0700E0001AC6FFB0EAD6F69C1F6
:1010A800AEF0AF6BF5EC37F082EF08F00101695153
:1010B800000AD8B4EDEF07F0010AD8B4F6EF07F04C
:1010C800030AD8B407EF08F0010AD8B418EF08F0FB
:1010D800070AD8B421EF08F0010AD8B42AEF08F0BB
:1010E800030AD8B433EF08F0010AD8B43CEF08F08B
:1010F8000F0AD8B445EF08F04EEF08F0D70E0001FC
:10110800AC6FFB0EAD6F68C1AEF0AF6BF5EC37F0AE
:101118003D0E0001AC6FFB0EAD6FF5EC37F0F28EB3
:1011280071EF0DF0C5C06EF0C6C06FF0EC0E706FB9
:10113800FF0E716F79EC34F000016E516F11D8A475
:10114800A8EF08F0AAEF08F02BEF09F0F29E7C0E4A
:10115800AC6FFD0EAD6F62C1AEF0AF6BF5EC37F062
:101168005F0E0001AC6FFC0EAD6F61C1AEF0AF6BEE
:10117800F5EC37F0AF0E0001AC6FFC0EAD6F3EC161
:10118800AEF03FC1AFF0F5EC37F0010E0001E66FAD
:10119800000EE76F000EE86F000EE96FE951E811E5
:1011A800E71109E1830EE65DD8A0DDEF08F0DFEF77
:1011B80008F0E1EF08F00CEF09F0CB0EAC6FFF0E72
:1011C800AD6FE6C0AEF0E7C0AFF0E8C0B0F0E9C080
:1011D800B1F0F5EC37F0C30E0001AC6FFF0EAD6F48
:1011E800000EE625D96E050EE721DA6EDF50010103
:1011F800C86FC8510001AE6FAF6BF5EC37F0010E48
:101208000001E627000EE723E823E923D2EF08F0E0
:101218003D0EAC6FFB0EAD6FF5EC37F0090E00011B
:10122800AC6FFD0EAD6F3CC1AEF03DC1AFF0F5EC5B
:1012380037F09A0E0001AC6FFD0EAD6F3AC1AEF0FB
:101248003BC1AFF0F5EC37F0F28E71EF0DF0C5C091
:101258006EF0C6C06FF0EE0E706FFF0E716F79EC16
:1012680034F000016E516F11D8A43DEF09F03FEF43
:1012780009F0B8EF09F0F29E000EE66F000EE76F76
:10128800000EE86F000EE96FE951E811E71109E176
:10129800C80EE65DD8A053EF09F055EF09F057EFF7
:1012A80009F0B5EF09F0E6C0B7F0E7C0B8F0E8C05C
:1012B800B9F0E9C0BAF0D9EC24F0CB0E0001AC6F5C
:1012C800FF0EAD6FE6C0AEF0E7C0AFF0E8C0B0F01B
:1012D800E9C0B1F0F5EC37F0AA0E0001AC6FFF0ED3
:1012E800AD6F00C4AEF0AF6BF5EC37F0010E000146
:1012F800E6250101C86F000E0001E7210101C96F51
:10130800000E0001E8210101CA6F000E0001E92169
:101318000101CB6F0F0EC815CC6F000EC915CD6F2C
:10132800000ECA15CE6F000ECB15CF6FCC51CD1164
:10133800CE11CF11D8A4A3EF09F0A5EF09F0ACEFB7
:1013480009F03D0E0001AC6FFB0EAD6FF5EC37F008
:10135800010E0001E627000EE723E823E92348EF02
:1013680009F0F28E71EF0DF0C5C06EF0C6C06FF0D7
:10137800F00E706FFF0E716F79EC34F000016E5152
:101388006F11D8A4CAEF09F0CCEF09F062EF0AF0A8
:10139800F29E000EE66F000EE76F000EE86F000E7B
:1013A800E96FE951E8110AE1E629030EE759D8A0E7
:1013B800E0EF09F0E2EF09F0E4EF09F05FEF0AF07F
:1013C800E6C06EF0E7C06FF035EC38F00101DB6F76
:1013D8000F0E0001E6150101C86F000E0001E715A8
:1013E8000101C96F000E0001E8150101CA6F000E66
:1013F8000001E9150101CB6FC851C911CA11CB1100
:10140800D8A409EF0AF00BEF0AF01AEF0AF0CF0E92
:101418000001AC6FFF0EAD6FE6C0AEF0E7C0AFF0F5
:10142800E8C0B0F0E9C0B1F0F5EC37F0AA0E000161
:10143800AC6FFF0EAD6FDBC1AEF0AF6BF5EC37F004
:10144800010E0001E6250101C86F000E0001E72129
:101458000101C96F000E0001E8210101CA6F000EE9
:101468000001E9210101CB6F0F0EC815CC6F000EEA
:10147800C915CD6F000ECA15CE6F000ECB15CF6FF4
:10148800CC51CD11CE11CF11D8A44DEF0AF04FEFAA
:101498000AF056EF0AF03D0E0001AC6FFB0EAD6F7F
:1014A800F5EC37F0010E0001E627000EE723E823EC
:1014B800E923D5EF09F0F28E71EF0DF0C5C06EF09B
:1014C800C6C06FF0F40E706FFF0E716F79EC34F0D8
:1014D80000016E516F11D8A474EF0AF076EF0AF08C
:1014E80001EF0BF00101E06BF29EB60E0001AC6F4C
:1014F800FD0EAD6FF5EC37F0000E0001E66F000E43
:10150800E76F000EE86F000EE96FCDEF0AF0E6C056
:10151800B7F0E7C0B8F0E8C0B9F0E9C0BAF0800E9B
:10152800BB6FA1EC25F0800E0001E625E66F000EEA
:10153800E721E76F000EE821E86F000EE921E96F67
:10154800000E0101DC6F000EDD6F000EDE6F000E75
:10155800DF6FDF51DE11DD1109E1800EDC5DD8A0FF
:10156800B8EF0AF0BAEF0AF0BCEF0AF0CDEF0AF0D4
:10157800000EDC25D96E040EDD21DA6EDF50E0198D
:10158800E06F010EDC27000EDD23DE23DF23ADEF45
:101598000AF00001E9510CE1E629FF0EE759010EB6
:1015A800E859D8A0DAEF0AF0DCEF0AF08BEF0AF07E
:1015B8008E0EAC6FFB0EAD6FE0C1AEF0AF6BF5EC0D
:1015C80037F00101E051D8A4ECEF0AF0EEEF0AF091
:1015D800F7EF0AF0A00E0001AC6FFF0EAD6FF5EC4F
:1015E80037F0FEEF0AF0050E0001AC6FFF0EAD6F8D
:1015F800F5EC37F0F28E71EF0DF0C5C06EF0C6C095
:101608006FF0F60E706FFF0E716F79EC34F0000119
:101618006E516F11D8A413EF0BF015EF0BF0FFEF1D
:101628000BF0000E0101E16F000EE26F000EE36F98
:10163800000EE46FF29EEEEF0BF0E1C1B7F0E2C1ED
:10164800B8F0E3C1B9F0E4C1BAF0800E0001BB6F95
:10165800A1EC25F0000E0001E66F000EE76F000E0A
:10166800E86F000EE96FE951E811E71109E1800E12
:10167800E65DD8A042EF0BF044EF0BF046EF0BF01D
:10168800E1EF0BF00101E1510001E6250101D76FFF
:10169800E2510001E7210101D86FE3510001E8217F
:1016A8000101D96FE4510001E9210101DA6F0F0E40
:1016B8000001E6150101C86F000E0001E7150101E0
:1016C800C96F000E0001E8150101CA6F000E000184
:1016D800E9150101CB6FC851C911CA11CB11D8A4A2
:1016E80078EF0BF07AEF0BF08BEF0BF0D7C1B7F078
:1016F800D8C1B8F0D9C1B9F0DAC1BAF025EC37F0E1
:101708001E0E0001AC6FFF0EAD6FF5EC37F0C70E83
:101718000001AC6FFF0EAD6F000EE625D96E040E0A
:10172800E721DA6EDF500101C86FC8510001AE6FC2
:10173800AF6BF5EC37F0010E0001E6250101C86F2B
:10174800000E0001E7210101C96F000E0001E82128
:101758000101CA6F000E0001E9210101CB6F0F0ED4
:10176800C815CC6F000EC915CD6F000ECA15CE6F07
:10177800000ECB15CF6FCC51CD11CE11CF11D8A4FF
:10178800C8EF0BF0CAEF0BF0D1EF0BF03D0E0001E4
:10179800AC6FFB0EAD6FF5EC37F0E40E00D000D067
:1017A800E82EFCD700D000D0010E0001E627000E7D
:1017B800E723E823E92337EF0BF0800E0101E12549
:1017C800E16F000EE221E26F000EE321E36F000EED
:1017D800E421E46FE4510CE1E129FF0EE259010E26
:1017E800E359D8A0FAEF0BF0FCEF0BF021EF0BF068
:1017F800F28E71EF0DF0C5C06EF0C6C06FF0F80E36
:10180800706FFF0E716F79EC34F000016E516F113B
:10181800D8A411EF0CF013EF0CF055EF0DF0000EFB
:10182800E66F000EE76F000EE86F000EE96FE6C086
:10183800C8F1E7C0C9F10101D890C837C937D890B5
:10184800C837C937000EC82500016E6F010E0101A7
:10185800C92100016F6F35EC38F00101CA6FCA5118
:10186800E56FE66BE76BE86BE96BEA6BEB6BEC6BD0
:10187800E6C0C8F1E7C0C9F1D890C837C937D890D1
:10188800C837C937010EC82500016E6F010E010166
:10189800C92100016F6F35EC38F00101CA6FCAC168
:1018A800CBF1CC6BCD6BCE6BCDC1CEF1CCC1CDF134
:1018B800CBC1CCF1CB6BCB51CF6FCC51D06FCD51CD
:1018C800D16FCE51D26FD36BD46BD56BD66BE5513C
:1018D800CF25E56FE651D021E66FE751D121E76FBB
:1018E800E851D221E86FE951D321E96FEA51D421B7
:1018F800EA6FEB51D521EB6FEC51D621EC6FE6C0C6
:10190800C8F1E7C0C9F1D890C837C937D890C837E7
:10191800C937020EC82500016E6F010E0101C921E9
:1019280000016F6F35EC38F00101CA6FCAC1CBF105
:10193800CC6BCD6BCE6BCCC1CEF1CBC1CDF1CC6B2A
:10194800CB6BCB51CF6FCC51D06FCD51D16FCE5126
:10195800D26FD36BD46BD56BD66BE551CF25E56FC2
:10196800E651D021E66FE751D121E76FE851D22146
:10197800E86FE951D321E96FEA51D421EA6FEB51BD
:10198800D521EB6FEC51D621EC6FE6C0C8F1E7C06A
:10199800C9F1D890C837C937D890C837C937030EA6
:1019A800C82500016E6F010E0101C92100016F6F8A
:1019B80035EC38F00101CA6FCAC1CBF1CC6BCD6BE5
:1019C800CE6BCBC1CEF1CD6BCC6BCB6BCB51CF6F8C
:1019D800CC51D06FCD51D16FCE51D26FD36BD46B68
:1019E800D56BD66BE551CF25E56FE651D021E66F73
:1019F800E751D121E76FE851D221E86FE951D321AE
:101A0800E96FEA51D421EA6FEB51D521EB6FEC5124
:101A1800D621EC6FAF0E0001AC6FFF0EAD6F010E5B
:101A2800E625AE6F000EE721AF6F000EE821B06F1C
:101A3800000EE921B16FF5EC37F0E5C1B7F0E6C16A
:101A4800B8F0E7C1B9F0E8C1BAF0E9C1BBF0EAC142
:101A5800BCF0EBC1BDF0ECC1BEF03DEC37F03D0E83
:101A68000001AC6FFB0EAD6FF5EC37F0010E000115
:101A7800E627000EE723E823E923E951E811E711F7
:101A880009E10A0EE65DD8A04CEF0DF04EEF0DF01F
:101A98001BEF0CF0E607000EE75BE85BE95B71EF14
:101AA8000DF0C5C06EF0C6C06FF0FC0E706FFF0E73
:101AB800716F79EC34F000016E516F11D8A467EFA3
:101AC8000DF069EF0DF06BEF0DF071EF0DF0EF0E0B
:101AD800AC6FFB0EAD6FF5EC37F01200DEC0B7F05F
:101AE800DFC0B8F0E0C0B9F0E1C0BAF0E2C0BBF0C6
:101AF800E3C0BCF0E4C0BDF0E5C0BEF0040ED89071
:101B08000001B737B837B937BA37BB37BC37BD3735
:101B1800BE37E82E83EF0DF0B7C0C9F1B8C0CAF1DF
:101B2800B9C0CBF1BAC0CCF1BBC0CDF1BCC0CEF1CD
:101B3800BDC0CFF1BEC0D0F121EEC9F0F00EDE1865
:101B48000101C96FFF0EDE18CA6FFF0EDE18CB6FDA
:101B5800FF0EDE18CC6FFF0EDE18CD6FFF0EDE18FD
:101B6800CE6FFF0EDE18CF6F000EDE18D06FC9C122
:101B7800B7F0CAC1B8F0CBC1B9F0CCC1BAF0CDC189
:101B8800BBF0CEC1BCF0CFC1BDF0D0C1BEF0310EAC
:101B9800D8EF0DF00001D890BE33BD33BC33BB3352
:101BA800BA33B933B833B733E82ECEEF0DF0B7C038
:101BB800D1F1B8C0D2F1B9C0D3F1BAC0D4F1BBC029
:101BC800D5F1BCC0D6F1BDC0D7F1BEC0D8F1010176
:101BD800D139F00BF00B0001F06F040EB76FD1C1D3
:101BE800B8F0D2C1B9F0D3C1BAF0D4C1BBF0D5C1F5
:101BF800BCF0D6C1BDF0D7C1BEF0D8C1BFF0B76741
:101C080008EF0EF014EF0EF0BF35BF33BE33BD330F
:101C1800BC33BB33BA33B933B833B72F03EF0EF045
:101C28000001B8510F0BF16FC9C1B7F0CAC1B8F0C4
:101C3800CBC1B9F0CCC1BAF0CDC1BBF0CEC1BCF0BC
:101C4800CFC1BDF0D0C1BEF0290E34EF0EF0D89050
:101C5800BE33BD33BC33BB33BA33B933B833B73310
:101C6800E82E2BEF0EF0B7C0D1F1B8C0D2F1B9C051
:101C7800D3F1BAC0D4F1BBC0D5F1BCC0D6F1BDC058
:101C8800D7F1BEC0D8F1040EB76FD1C1B8F0D2C138
:101C9800B9F0D3C1BAF0D4C1BBF0D5C1BCF0D6C13C
:101CA800BDF0D7C1BEF0D8C1BFF0B7675EEF0EF088
:101CB8006AEF0EF0BF35BF33BE33BD33BC33BB3321
:101CC800BA33B933B833B72F59EF0EF00001B85112
:101CD8000F0BF011F06F0101D139F00BF00B526EC0
:101CE800C9C1B7F0CAC1B8F0CBC1B9F0CCC1BAF01C
:101CF800CDC1BBF0CEC1BCF0CFC1BDF0D0C1BEF0EC
:101D0800210E91EF0EF00001D890BE33BD33BC33E5
:101D1800BB33BA33B933B833B733E82E87EF0EF095
:101D2800B7C0D1F1B8C0D2F1B9C0D3F1BAC0D4F1BB
:101D3800BBC0D5F1BCC0D6F1BDC0D7F1BEC0D8F18B
:101D4800040EB76FD1C1B8F0D2C1B9F0D3C1BAF09F
:101D5800D4C1BBF0D5C1BCF0D6C1BDF0D7C1BEF06F
:101D6800D8C1BFF0B767BBEF0EF0C7EF0EF0BF35B5
:101D7800BF33BE33BD33BC33BB33BA33B933B833E7
:101D8800B72FB6EF0EF00001B8510F0B5210526E7C
:101D98000101D139F00BF00B516EC9C1B7F0CAC1BE
:101DA800B8F0CBC1B9F0CCC1BAF0CDC1BBF0CEC14F
:101DB800BCF0CFC1BDF0D0C1BEF0190EEEEF0EF0F1
:101DC8000001D890BE33BD33BC33BB33BA33B9330B
:101DD800B833B733E82EE4EF0EF0B7C0D1F1B8C08E
:101DE800D2F1B9C0D3F1BAC0D4F1BBC0D5F1BCC0EF
:101DF800D6F1BDC0D7F1BEC0D8F1040EB76FD1C1BE
:101E0800B8F0D2C1B9F0D3C1BAF0D4C1BBF0D5C1D2
:101E1800BCF0D6C1BDF0D7C1BEF0D8C1BFF0B7671E
:101E280018EF0FF024EF0FF0BF35BF33BE33BD33CB
:101E3800BC33BB33BA33B933B833B72F13EF0FF012
:101E48000001B8510F0B5110516E0101D139F00B3F
:101E5800F00B506EC9C1B7F0CAC1B8F0CBC1B9F028
:101E6800CCC1BAF0CDC1BBF0CEC1BCF0CFC1BDF082
:101E7800D0C1BEF0110E4BEF0FF00001D890BE3369
:101E8800BD33BC33BB33BA33B933B833B733E82EB9
:101E980041EF0FF0B7C0D1F1B8C0D2F1B9C0D3F15A
:101EA800BAC0D4F1BBC0D5F1BCC0D6F1BDC0D7F122
:101EB800BEC0D8F1040EB76FD1C1B8F0D2C1B9F025
:101EC800D3C1BAF0D4C1BBF0D5C1BCF0D6C1BDF006
:101ED800D7C1BEF0D8C1BFF0B76775EF0FF081EF7B
:101EE8000FF0BF35BF33BE33BD33BC33BB33BA335A
:101EF800B933B833B72F70EF0FF00001B8510F0B9B
:101F08005010506E0101D139F00BF00B6D6FC9C143
:101F1800B7F0CAC1B8F0CBC1B9F0CCC1BAF0CDC1E5
:101F2800BBF0CEC1BCF0CFC1BDF0D0C1BEF0B8C0CF
:101F3800B7F0B9C0B8F0BAC0B9F0BBC0BAF0BCC00D
:101F4800BBF0BDC0BCF0BEC0BDF00001BE6BB7C0E9
:101F5800D1F1B8C0D2F1B9C0D3F1BAC0D4F1BBC085
:101F6800D5F1BCC0D6F1BDC0D7F1BEC0D8F1040EC2
:101F7800B76FD1C1B8F0D2C1B9F0D3C1BAF0D4C1EA
:101F8800BBF0D5C1BCF0D6C1BDF0D7C1BEF0D8C139
:101F9800BFF0B767D2EF0FF0DEEF0FF0BF35BF33FA
:101FA800BE33BD33BC33BB33BA33B933B833B72FC1
:101FB800CDEF0FF00001B8510F0B01016D116D6FDE
:101FC800D139F00BF00B6C6FC9C1D1F1CAC1D2F194
:101FD800CBC1D3F1CCC1D4F1CDC1D5F1CEC1D6F1AD
:101FE800CFC1D7F1D0C1D8F1040E0001B76FD1C16C
:101FF800B8F0D2C1B9F0D3C1BAF0D4C1BBF0D5C1E1
:10200800BCF0D6C1BDF0D7C1BEF0D8C1BFF0B7672C
:1020180010EF10F01CEF10F0BF35BF33BE33BD33E7
:10202800BC33BB33BA33B933B833B72F0BEF10F027
:102038000001B8510F0B01016C116C6FC5EC35F044
:102048000101C86F0001EF51D8B42DEF10F02FEF48
:1020580010F0CFEF10F00101C851D8B436EF10F0EE
:1020680038EF10F041EF10F0A50E0001AC6FFF0E35
:10207800AD6FF5EC37F048EF10F0B40E0001AC6F1F
:10208800FF0EAD6FF5EC37F03A0E0001AC6FFE0EA7
:10209800AD6FF1C0AEF0AF6BF5EC37F0DE0E0001BE
:1020A800AC6FFF0EAD6FF5EC37F03A0E0001AC6F78
:1020B800FE0EAD6FF0C0AEF0AF6BF5EC37F0DE0E94
:1020C8000001AC6FFF0EAD6FF5EC37F03A0E000172
:1020D800AC6FFE0EAD6F52C0AEF0AF6BF5EC37F0E3
:1020E800DE0E0001AC6FFF0EAD6FF5EC37F03A0E67
:1020F8000001AC6FFE0EAD6F51C0AEF0AF6BF5ECEA
:1021080037F0DE0E0001AC6FFF0EAD6FF5EC37F067
:102118003A0E0001AC6FFE0EAD6F50C0AEF0AF6B63
:10212800F5EC37F0DE0E0001AC6FFF0EAD6FF5EC8D
:1021380037F03A0E0001AC6FFE0EAD6F6DC1AEF018
:10214800AF6BF5EC37F0DE0E0001AC6FFF0EAD6F34
:10215800F5EC37F03A0E0001AC6FFE0EAD6F6CC1B6
:10216800AEF0AF6BF5EC37F0DB0E0001AC6FFF0E95
:10217800AD6FF5EC37F00101C851D8A4C6EF10F0E7
:10218800C8EF10F0CFEF10F03D0E0001AC6FFB0E62
:10219800AD6FF5EC37F0120046C070F047C071F033
:1021A80048C072F049C073F065EC21F00101CC6FB2
:1021B800B90E0001AC6FFF0EAD6FCCC1AEF0AF6BC6
:1021C800F5EC37F00101CC51D8B4EDEF10F0EFEF9A
:1021D80010F032EF11F00001EE05D8A4F6EF10F080
:1021E800F8EF10F005EF11F00101CC51020D000ECF
:1021F800F324D96E010EF420DA6E38C1DEFF39C13E
:10220800DDFF040E0001EE19D8A40DEF11F00FEF59
:1022180011F01CEF11F00101CC51020D000EF32456
:10222800D96E010EF420DA6E38C1DEFF39C1DDFF48
:10223800D70E0001AC6FFF0EAD6FF5EC37F0809A4A
:10224800520E0001C46F2B0EC36F000EE82EFED78E
:10225800C32FFCD7C42FFAD70000808A3D0E000197
:10226800AC6FFB0EAD6FF5EC37F001011451151191
:1022780016111711181119111A111B11D8B447EF9B
:1022880011F049EF11F0DFEF13F021EE14F0070E13
:10229800DE6AE806FDE2CC51D8A455EF11F057EFFD
:1022A80011F0D5EF13F0000E0001E66F000EE76F96
:1022B800000EE86F000EE96FE6C0C3F0E7C0C4F097
:1022C800D890C337C437D890C337C437000EC32556
:1022D8006E6F010EC4216F6F35EC38F00001C56FC9
:1022E800C5510101C86FC96BCA6BCB6BE6C0C3F09F
:1022F800E7C0C4F00001D890C337C437D890C337BB
:10230800C437010EC3256E6F010EC4216F6F35EC03
:1023180038F00001C56FC5C0C6F0C76BC86BC96B84
:10232800C8C0C9F0C7C0C8F0C6C0C7F0C66B0101B5
:10233800C8510001C6250101C86FC9510001C72154
:102348000101C96FCA510001C8210101CA6FCB51EF
:102358000001C9210101CB6FE6C0C3F0E7C0C4F09A
:102368000001D890C337C437D890C337C437020E9A
:10237800C3256E6F010EC4216F6F35EC38F0000174
:10238800C56FC5C0C6F0C76BC86BC96BC7C0C9F0FD
:10239800C6C0C8F0C76BC66B0101C8510001C6258D
:1023A8000101C86FC9510001C7210101C96FCA5194
:1023B8000001C8210101CA6FCB510001C9210101E7
:1023C800CB6FE6C0C3F0E7C0C4F00001D890C337B4
:1023D800C437D890C337C437030EC3256E6F010EB8
:1023E800C4216F6F35EC38F00001C56FC5C0C6F069
:1023F800C76BC86BC96BC6C0C9F0C86BC76BC66B67
:102408000101C8510001C6250101C86FC951000169
:10241800C7210101C96FCA510001C8210101CA6F52
:10242800CB510001C9210101CB6F010E0001E62744
:10243800000EE723E823E9230101C8290CE1C92993
:102448000AE1CA2908E1CB29D8B42DEF12F02FEF01
:1024580012F03DEF12F00001E951E811E71109E12E
:102468000A0EE65DD8A03BEF12F03DEF12F060EFE8
:1024780011F00001E607000EE75BE85BE95BE95154
:10248800E811E71109E10B0EE65DD8A04EEF12F056
:1024980050EF12F058EF12F03C0EAC6FFD0EAD6F1E
:1024A800F5EC37F0DFEF13F0E6C0C3F0E7C0C4F097
:1024B800D890C337C437D890C337C437000EC32564
:1024C8006E6F010EC4216F6F46C070F074EC35F06A
:1024D800E6C0C3F0E7C0C4F00001D890C337C437E2
:1024E800D890C337C437010EC3256E6F010EC421BF
:1024F8006F6F46C0C5F047C0C6F048C0C7F049C0B6
:10250800C8F04AC0C9F04BC0CAF04CC0CBF04DC0AF
:10251800CCF0C6C0C5F0C7C0C6F0C8C0C7F0C9C0B7
:10252800C8F0CAC0C9F0CBC0CAF0CCC0CBF0CC6BE5
:10253800C551706F74EC35F0E6C0C3F0E7C0C4F065
:102548000001D890C337C437D890C337C437020EB8
:10255800C3256E6F010EC4216F6F46C0C5F047C01A
:10256800C6F048C0C7F049C0C8F04AC0C9F04BC05F
:10257800CAF04CC0CBF04DC0CCF0110ECDEF12F02C
:10258800D890CC33CB33CA33C933C833C733C633F7
:10259800C533E82EC4EF12F0C551706F74EC35F0F6
:1025A8000001EE05D8A4DBEF12F0DDEF12F018EF12
:1025B80013F0E6C0C3F0E7C0C4F0D890C337C437FF
:1025C800D890C337C437030EC3256E6F010EC421DC
:1025D8006F6F5FC1C5F0C53BF00EC51746C0C6F0AA
:1025E80047C0C7F048C0C8F049C0C9F04AC0CAF0DF
:1025F8004BC0CBF04CC0CCF04DC0CDF0190E0EEF57
:1026080013F0D890CD33CC33CB33CA33C933C83366
:10261800C733C633E82E05EF13F0C651C511706FE6
:1026280074EC35F04BEF13F0E6C0C3F0E7C0C4F02C
:10263800D890C337C437D890C337C437030EC325DF
:102648006E6F010EC4216F6F46C0C5F047C0C6F05B
:1026580048C0C7F049C0C8F04AC0C9F04BC0CAF06A
:102668004CC0CBF04DC0CCF0190E44EF13F0D8900D
:10267800CC33CB33CA33C933C833C733C633C53376
:10268800E82E3BEF13F0C551706F74EC35F0A80ECF
:102698000001AC6FFD0EAD6FF5EC37F046C0B7F03A
:1026A80047C0B8F048C0B9F049C0BAF04AC0BBF05A
:1026B8004BC0BCF04CC0BDF04DC0BEF03DEC37F097
:1026C800490E0001AC6FFE0EAD6FF5EC37F0000E51
:1026D8000001E66F000EE76F000EE86F000EE96F6D
:1026E800E951E811E71109E10A0EE65DD8A07FEF8C
:1026F80013F081EF13F083EF13F0A6EF13F0050E3C
:102708000001C46F0F0EC36FF10EE82EFED7C32F62
:10271800FCD7C42FFAD78290050E0001C46F0F0EA4
:10272800C36FF10EE82EFED7C32FFCD7C42FFAD7FC
:102738008280010E0001E627000EE723E823E92343
:1027480074EF13F046C070F047C071F048C072F0E3
:1027580049C073F065EC21F00101CC6FCC51D8B4BD
:10276800B8EF13F0BAEF13F0C6EF13F0CC51020D27
:10277800000EF324D96E010EF420DA6E38C1DEFFA4
:1027880039C1DDFF520E0001C46F2B0EC36F000E5E
:10279800E82EFED7C32FFCD7C42FFAD70000DFEFEF
:1027A80013F082800A0E0001AC6FFB0EAD6FF5ECE2
:1027B80037F0C6EF13F0120003EC38F0808A0101FD
:1027C800696B0F015D6B5C6BD08EF19EF180F290AE
:1027D800F286F28E5A89010E0101606F6051D8A409
:1027E800F8EF13F0FAEF13F0FEEF13F0060E7D6E1C
:1027F800820EAF6E6005D8A404EF14F006EF14F053
:1028080009EF14F07D6A440EAF6E920ED56EF80E85
:102818000001726FF80E736F8CEC2DF0C30E00017F
:10282800726FFD0E736F8CEC2DF04D0E0001726F00
:10283800F90E736F8CEC2DF0C30E0001726FFD0E54
:10284800736F8CEC2DF0829053EC28F0828000019D
:10285800EF6B11EC39F0F28E81B435EF14F037EFED
:1028680014F09AEF14F0150E0101ED6FC60EE82E64
:10287800FED7ED2FFCD70000010E01011C27000E2A
:102888001D231E231F231F511E110BE1890E1C5DE2
:10289800130E1D59D8A053EF14F055EF14F09AEF0A
:1028A80014F08290000E1C6F000E1D6F000E1E6F3C
:1028B800000E1F6F320E0001AC6FFA0EAD6FF5EC13
:1028C80037F0010E01013D6F000E3C6F280E3C5D94
:1028D800010E3D59D8A073EF14F075EF14F077EF9F
:1028E80014F085EF14F03CC16EF03DC16FF0FF0E9F
:1028F8000001706F74EC35F001013C4B3D2B6AEF21
:1029080014F0520E0101EE6F2B0EED6F000EE82E43
:10291800FED7ED2FFCD7EE2FFAD70000828081A4D6
:1029280098EF14F09AEF14F093EF14F00101585156
:10293800D8B4A1EF14F0A4EF14F0010EA5EF14F031
:10294800000EED6FEE6B81B4ACEF14F0AFEF14F046
:10295800010EB0EF14F0000EED17000EEE171F5128
:102968001E111D1107E1C90E1C5DD8B0BEEF14F091
:10297800C1EF14F0010EC2EF14F0000EED17000EB7
:10298800EE171F511E110CE1E80E1C5D030E1D59B8
:10299800D8A0D1EF14F0D4EF14F0010ED5EF14F055
:1029A800000EED17000EEE17ED51EE11D8B4DFEF63
:1029B80014F0E1EF14F0F1EF14F0500E146FC30EA1
:1029C800156F000E166F000E176F000E186F000EB1
:1029D800196F000E1A6F000E1B6F14511511161186
:1029E8001711181119111A111B11D8B4FEEF14F090
:1029F80000EF15F066EF15F01407000E155B165B77
:102A0800175B185B195B1A5B1B5B14C16EF015C171
:102A18006FF016C170F017C171F018C172F019C1CA
:102A280073F01AC174F01BC175F0E80E0001766FDF
:102A3800030E776F000E786F000E796F000E7A6FB5
:102A4800000E7B6F000E7C6F000E7D6FFCEC2DF08E
:102A58006EC0EDF16FC0EEF170C0EFF171C0F0F132
:102A680072C0F1F173C0F2F174C0F3F175C0F4F102
:102A78000101ED51EE11EF11F011F111F211F31105
:102A8800F411D8A44AEF15F04CEF15F055EF15F0F6
:102A980082A051EF15F054EF15F0828055EF15F034
:102AA80082900101145115111611171118111911DD
:102AB8001A111B11D8A463EF15F065EF15F066EF36
:102AC80015F08280000E81B4010E586F81A46FEF5B
:102AD80015F071EF15F079EF15F0000E1C6F000E70
:102AE8001D6F000E1E6F000E1F6F5C51D8A47FEF84
:102AF80015F081EF15F083EF15F02AEC2CF00101A9
:102B08005551D8B48AEF15F08CEF15F08EEF15F00B
:102B180058EC16F001015C51D8B495EF15F097EF19
:102B280015F030EF14F05C6BF29E020E0001EF1905
:102B3800D8A4A1EF15F0A3EF15F0A5EF15F058EC08
:102B480016F00001EE05D8A4ACEF15F0AEEF15F0C5
:102B5800DFEF15F0EF51D8B4B4EF15F0B6EF15F07C
:102B6800CFEF15F0DEC0B7F0DFC0B8F0E0C0B9F0C5
:102B7800E1C0BAF0E2C0BBF0E3C0BCF0E4C0BDF015
:102B8800E5C0BEF0B2EC2BF01E0E0001AC6FFF0EDC
:102B9800AD6FF5EC37F072EC0DF0C5EC35F00009CF
:102BA800D8B4D9EF15F0DBEF15F0DFEF15F03AECFC
:102BB80020F0D0EC10F0020E0001EE19D8A4E7EFD7
:102BC80015F0E9EF15F013EF16F0DEC046F0DFC0A0
:102BD80047F0E0C048F0E1C049F0E2C04AF0E3C085
:102BE8004BF0E4C04CF0E5C04DF0D30EAC6FFC0EDA
:102BF800AD6FF5EC37F0DEC0B7F0DFC0B8F0E0C07D
:102C0800B9F0E1C0BAF0E2C0BBF0E3C0BCF0E4C088
:102C1800BDF0E5C0BEF03DEC37F0D0EC10F0040E8E
:102C28000001EE19D8A41BEF16F01DEF16F042EFC5
:102C380016F0CEEC18F0E806D8A425EF16F027EF2A
:102C480016F042EF16F0E50E0001AC6FFC0EAD6F0A
:102C5800F5EC37F046C0B7F047C0B8F048C0B9F057
:102C680049C0BAF04AC0BBF04BC0BCF04CC0BDF084
:102C78004DC0BEF03DEC37F0D0EC10F0000E4F6EBA
:102C8800000E4E6E520E0101EE6F2B0EED6F000E10
:102C9800E82EFED7ED2FFCD7EE2FFAD70000F28EE4
:102CA80030EF14F06DEF06F0F29E0101556B250E22
:102CB8000001AC6FFE0EAD6F30C1AEF031C1AFF0A8
:102CC800F5EC37F00001EE05D8A46DEF16F06FEFC4
:102CD80016F088EF16F06C0E010130193111D8B4D6
:102CE80078EF16F07AEF16F081EF16F0890E0001F2
:102CF800AC6FFC0EAD6FF5EC37F0740E0001AC6FE5
:102D0800FC0EAD6FF5EC37F0020E0001EE19D8A4F9
:102D180090EF16F092EF16F098EF16F05C0EAC6F8D
:102D2800FD0EAD6FF5EC37F0040E0001EE19D8A4D6
:102D3800A0EF16F0A2EF16F0A8EF16F02B0EAC6F6E
:102D4800FD0EAD6FF5EC37F03D0E0001AC6FFB0EDC
:102D5800AD6FF5EC37F0010E0001BD6F010EBC6FD1
:102D6800BC51B76FB86BB73BB83BF00EB817B7514B
:102D78000F0BB813F00EB717BDC0B9F0FF0EB92787
:102D88000F0EB917B951B727000EB823F10EB725A2
:102D9800BA6FFF0EB821BB6FBAC0E6F0BBC0E7F050
:102DA800000EE7BFFF0EE86FE96F01013051000127
:102DB800B76F010131510001B86FB96BBA6BE651B9
:102DC800B75DE751B859E851B959E951BA59D8A08E
:102DD800F0EF16F0F2EF16F0AAEF18F0D30EAC6F82
:102DE800FF0EAD6FE6C0AEF0E7C0AFF0E8C0B0F0E0
:102DF800E9C0B1F0F5EC37F0D8900001E635D96EAE
:102E0800E735DA6E820ED926050EDA22DECFB7F064
:102E1800DDCFB8F0B7C0EAF0B8C0EBF0EC6BED6B03
:102E2800BE0EAC6FFF0EAD6FEAC0AEF0EBC0AFF0F8
:102E3800ECC0B0F0EDC0B1F0F5EC37F00001EE05F4
:102E4800D8A429EF17F02BEF17F0E1EF17F0ED51A9
:102E5800EC110BE1A90EEA5D8F0EEB59D8A037EF04
:102E680017F039EF17F04FEF17F0ED51EC1109E1BA
:102E7800780EEA5D970EEB59D8B045EF17F047EF9B
:102E880017F04FEF17F00D0EAC6FFE0EAD6FF5ECAF
:102E980037F0C1EF17F0ED51EC110BE1A70EEA5D29
:102EA800020EEB59D8A05BEF17F05DEF17F073EF48
:102EB80017F0ED51EC1109E1D60EEA5D040EEB595D
:102EC800D8B069EF17F06BEF17F073EF17F0B50E86
:102ED800AC6FFE0EAD6FF5EC37F0C1EF17F0ED51AA
:102EE800EC110BE1930EEA5D060EEB59D8A07FEFCB
:102EF80017F081EF17F097EF17F0ED51EC1109E19A
:102F0800C20EEA5D080EEB59D8B08DEF17F08FEFBF
:102F180017F097EF17F0BF0EAC6FFE0EAD6FF5EC24
:102F280037F0C1EF17F0ED51EC110BE18C0EEA5DB3
:102F38000A0EEB59D8A0A3EF17F0A5EF17F0BBEFD7
:102F480017F0ED51EC1109E1BB0EEA5D0C0EEB59DF
:102F5800D8B0B1EF17F0B3EF17F0BBEF17F0E70EEB
:102F6800AC6FFE0EAD6FF5EC37F0C1EF17F0C90E80
:102F7800AC6FFE0EAD6FF5EC37F0000E0001E625E4
:102F8800D96E020EE721DA6EDF50D8B4CEEF17F013
:102F9800D0EF17F0E1EF17F0700EAC6FFF0EAD6FCA
:102FA800000EE625D96E020EE721DA6EDF50B76F04
:102FB800B751AE6FAF6BF5EC37F0020E0001EE19AA
:102FC800D8A4E9EF17F0EBEF17F0A1EF18F0ED51E7
:102FD800EC110BE1130EEA5D700EEB59D8A0F7EF78
:102FE80017F0F9EF17F00FEF18F0ED51EC1109E1B8
:102FF800E20EEA5D770EEB59D8B005EF18F007EF4F
:1030080018F00FEF18F0DD0EAC6FFE0EAD6FF5EC9B
:1030180037F081EF18F0ED51EC110BE1D70EEA5DB6
:10302800010EEB59D8A01BEF18F01DEF18F033EF85
:1030380018F0ED51EC1109E12A0EEA5D030EEB5987
:10304800D8B029EF18F02BEF18F033EF18F0B50EC1
:10305800AC6FFE0EAD6FF5EC37F081EF18F0ED5167
:10306800EC110BE1570EEA5D040EEB59D8A03FEFC7
:1030780018F041EF18F057EF18F0ED51EC1109E195
:10308800AA0EEA5D050EEB59D8B04DEF18F04FEFD8
:1030980018F057EF18F0BF0EAC6FFE0EAD6FF5ECE1
:1030A80037F081EF18F0ED51EC110BE1BB0EEA5D42
:1030B800090EEB59D8A063EF18F065EF18F07BEF15
:1030C80018F0ED51EC1109E10E0EEA5D0B0EEB590B
:1030D800D8B071EF18F073EF18F07BEF18F0940E7A
:1030E800AC6FFF0EAD6FF5EC37F081EF18F0C90E3D
:1030F800AC6FFE0EAD6FF5EC37F0000E0001E62563
:10310800D96E020EE721DA6EDF50D8B48EEF18F0D0
:1031180090EF18F0A1EF18F0700EAC6FFF0EAD6FC6
:10312800000EE625D96E020EE721DA6EDF50B76F82
:10313800B751AE6FAF6BF5EC37F01E0E0001AC6FF8
:10314800FF0EAD6FF5EC37F0B0EF18F0170EAC6F5F
:10315800FF0EAD6FF5EC37F00001BC2B070EBC6518
:10316800B8EF18F0BAEF18F0B4EF16F03D0EAC6FE8
:10317800FB0EAD6FF5EC37F00001BD2B100EBD65F1
:10318800C8EF18F0CAEF18F0B2EF16F0CAEC38F032
:10319800F28E12000001EF05D8A4D5EF18F0D7EF92
:1031A80018F0F0EF18F0DEC0B7F0DFC0B8F0E0C0FC
:1031B800B9F0E1C0BAF0E2C0BBF0E3C0BCF0E4C0D3
:1031C800BDF0E5C0BEF0B2EC2BF03D0E0001AC6FD7
:1031D800FB0EAD6FF5EC37F0E4C0F1F0E3C0F0F0B2
:1031E800DEC0C8F1DFC0C9F1E0C0CAF1E1C0CBF16F
:1031F800E2C0CCF1E3C0CDF1E4C0CEF1E5C0CFF13F
:10320800210E11EF19F00101D890CF33CE33CD3311
:10321800CC33CB33CA33C933C833E82E07EF19F0A0
:10322800C851526EDEC0C8F1DFC0C9F1E0C0CAF1B2
:10323800E1C0CBF1E2C0CCF1E3C0CDF1E4C0CEF106
:10324800E5C0CFF1190E32EF19F0D890CF33CE3355
:10325800CD33CC33CB33CA33C933C833E82E29EF47
:1032680019F0C851516EDEC0C8F1DFC0C9F1E0C025
:10327800CAF1E1C0CBF1E2C0CCF1E3C0CDF1E4C0CA
:10328800CEF1E5C0CFF1110E53EF19F0D890CF333E
:10329800CE33CD33CC33CB33CA33C933C833E82E1E
:1032A8004AEF19F0C851506EDEC0C8F1DFC0C9F14D
:1032B800E0C0CAF1E1C0CBF1E2C0CCF1E3C0CDF18E
:1032C800E4C0CEF1E5C0CFF1C9C1C8F1CAC1C9F1A6
:1032D800CBC1CAF1CCC1CBF1CDC1CCF1CEC1CDF1BE
:1032E800CFC1CEF1CF6BC8516D6FDEC06CF16C51A0
:1032F8006D196C6F6D5150186D6F50505118506E9C
:1033080051505218516E52500001F019526EF0513E
:10331800F119F06FEF05D8A494EF19F096EF19F0B2
:10332800E2EF19F0DD0EAC6FFD0EAD6FF5EC37F086
:10333800300E0001AC6FFF0EAD6FF1C0AEF0AF6B99
:10334800F5EC37F0380E0001AC6FFF0EAD6FF0C032
:10335800AEF0AF6BF5EC37F0400E0001AC6FFF0E2E
:10336800AD6F52C0AEF0AF6BF5EC37F0480E000110
:10337800AC6FFF0EAD6F51C0AEF0AF6BF5EC37F030
:10338800500E0001AC6FFF0EAD6F50C0AEF0AF6BCA
:10339800F5EC37F0580E0001AC6FFF0EAD6F6DC144
:1033A800AEF0AF6BF5EC37F0600E0001AC6FFF0EBE
:1033B800AD6F6CC1AEF0AF6BF5EC37F00001F139D1
:1033C8000F0BF119CF6FF0390F0BCF19F019CF6F21
:1033D80052380F0BCF195218CF6F51380F0BCF1926
:1033E8005118CF6F50380F0BCF195018CF6F0101FC
:1033F8006D390F0B0001CF1901016D190001CF6F55
:1034080001016C390F0B0001CF1901016C19000182
:10341800CF6FCF510F0BCF6FF0390F0B0F0B01018F
:103428005F6F5250C96FC86B5150C825386F000E76
:10343800C921396F50C0C8F1C96BCA6BCB6BCC6B53
:10344800CD6BCE6BCF6BCDC1CFF1CCC1CEF1CBC1A3
:10345800CDF1CAC1CCF1C9C1CBF1C8C1CAF1C96BA0
:10346800C86BC8C146F0C9C147F0CAC148F0CBC152
:1034780049F0CCC14AF0CDC14BF0CEC14CF0CFC120
:103488004DF06DC1C8F1C96BCA6BCB6BCC6BCD6B02
:10349800CE6BCF6BCEC1CFF1CDC1CEF1CCC1CDF1CA
:1034A800CBC1CCF1CAC1CBF1C9C1CAF1C8C1C9F1FC
:1034B800C86B4650C811466E4750C911476E4850F0
:1034C800CA11486E4950CB11496E4A50CC114A6E08
:1034D8004B50CD114B6E4C50CE114C6E4D50CF1100
:1034E8004D6E6C514624466E000E4720476E000E06
:1034F8004820486E000E4920496E000E4A204A6E48
:10350800000E4B204B6E000E4C204C6E000E4D20D2
:103518004D6E0001EF05D8A494EF1AF096EF1AF05B
:103528002CEF1BF0310EAC6FFE0EAD6FCFC0AEF0BE
:10353800AF6BF5EC37F00001CF51D8B4A6EF1AF015
:10354800A8EF1AF0AEEF1AF0780EAC6FFF0EAD6F61
:10355800F5EC37F03D0E0001AC6FFB0EAD6FF5ECEE
:1035680037F03D0E0001AC6FFE0EAD6FF1C0AEF04E
:10357800AF6BF5EC37F00001F151F00BA00AD8B4AD
:10358800C8EF1AF0CAEF1AF0D0EF1AF0A10EAC6F1C
:10359800FE0EAD6FF5EC37F03D0E0001AC6FFB0E83
:1035A800AD6FF5EC37F04C0E0001AC6FFD0EAD6F52
:1035B800F1C0C8F10F0E0101C817C8510001AE6F64
:1035C800AF6BF5EC37F0F50E0001AC6FFD0EAD6F8B
:1035D8005FC1AEF0AF6BF5EC37F00E0E0001AC6FCB
:1035E800FF0EAD6FF0C0C8F10F0E0101C817C8512A
:1035F8000001AE6FAF6BF5EC37F0010E0001AC6F58
:10360800FE0EAD6F38C1AEF039C1AFF0F5EC37F052
:10361800FB0E0001AC6FFE0EAD6FF5EC37F046C047
:10362800B7F047C0B8F048C0B9F049C0BAF04AC0CE
:10363800BBF04BC0BCF04CC0BDF04DC0BEF03DEC83
:1036480037F03D0E0001AC6FFB0EAD6FF5EC37F0B7
:103658000001CF51D8B433EF1BF036EF1BF0010E49
:1036680037EF1BF0000E120000019A51D96EDA6A8A
:10367800DECFF6FFDDCFF7FFF86A0800F550250A20
:10368800D8A449EF1BF04BEF1BF0F0EF1CF09A5158
:10369800D96EDA6ADE2A000EDD22000E0101296FDA
:1036A800000E286F28C152F12A692B6900019E6B10
:1036B8007DEF1BF00101528300019A51D96EDA6A3D
:1036C800DE2A000EDD227DEF1BF0010E9E6F7DEFDE
:1036D8001BF09A51D96EDA6ADECFF6FFDDCFF7FF1D
:1036E800F86A0800F550300AD8B45EEF1BF069EFAD
:1036F8001BF09E51D8B483EF1BF085EF1BF06DEFE4
:103708001BF09AC06EF09BC06FF0B2EC30F06EC048
:1037180028F16FC029F1010129BF97EF1BF095EF40
:103728001BF09CEF1BF05281286D291FD8B0292B64
:1037380000019A51D96EDA6ADECFA4F0DDCFA5F088
:10374800A4C0F6FFA5C0F7FFF86A0800F5CF9FF000
:10375800B9EF1BF0A44BA52BD4EF1BF0690E9F6F9C
:10376800D4EF1BF09F6BD4EF1BF09F51580AD8B4CD
:10377800B2EF1BF03C0AD8B4B2EF1BF00D0AD8B474
:10378800B2EF1BF0050AD8B4AEEF1BF0190AD8B493
:10379800B2EF1BF00D0AD8B4B2EF1BF0B6EF1BF076
:1037A800A4C0F6FFA5C0F7FFF86A0800F550640A40
:1037B800D8B4E1EF1BF0E3EF1BF019EF1CF0A4C045
:1037C800F6FFA5C0F7FFF86A0800F550690AD8A403
:1037D800F0EF1BF0F2EF1BF03FEF1CF019EF1CF0BD
:1037E8009B51D96EDA6ADF50DF2ADF2AD96EDA6A8E
:1037F800DECFA0F0DDCFA1F0000EA1BFFF0EA26FBB
:10380800A36F24EF1CF09B51D96EDA6A040EDF26F1
:10381800DF5CD96EDA6ADECFA0F0DECFA1F0DECFB2
:10382800A2F0DECFA3F024EF1CF09F51690AD8B4B0
:10383800F4EF1BF0050AD8B407EF1CF024EF1CF0D6
:10384800010EA4259C6F000EA5219D6F9A51D96E7B
:10385800DA6A9CC0DEFF9DC0DDFF99C086F0A0C07B
:1038680087F0A1C088F0A2C089F0A3C08AF034EC28
:1038780023F002EF1DF0A4C0F6FFA5C0F7FFF86A19
:103888000800F550780AD8B44CEF1CF04EEF1CF045
:1038980094EF1CF0A4C0F6FFA5C0F7FFF86A080073
:1038A800F550580AD8B45BEF1CF05DEF1CF094EFAC
:1038B8001CF0A4C0F6FFA5C0F7FFF86A0800F55091
:1038C800750AD8A46AEF1CF06CEF1CF0E7EF1CF047
:1038D80094EF1CF09B51D96EDA6ADF50DF2ADF2A99
:1038E800D96EDA6ADECF9CF0DDCF9DF09CC0A0F0E7
:1038F8009DC0A1F0A26BA36B9FEF1CF09B51D96EEA
:10390800DA6A040EDF26DF5CD96EDA6ADECFA0F051
:10391800DECFA1F0DECFA2F0DECFA3F09FEF1CF048
:103928009F51690AD8B46EEF1CF0050AD8B482EF2B
:103938001CF09FEF1CF0010EA4259C6F000EA52122
:103948009D6F9A51D96EDA6A9CC0DEFF9DC0DDFF7B
:10395800D2EF1CF099C086F0A0C087F0A1C088F013
:10396800A2C089F0A3C08AF08EEC29F002EF1DF006
:1039780099C086F0A0C087F0A1C088F0A2C089F0E5
:10398800A3C08AF0A4C0F6FFA5C0F7FFF86A080034
:10399800F5CF8BF007EC27F002EF1DF0A4C0F6FF7F
:1039A800A5C0F7FFF86A0800F550580AD8B4BCEF6C
:1039B8001CF02D0AD8B4AEEF1CF00D0AD8B4BCEF39
:1039C8001CF0E7EF1CF000019A51D96EDA6ADE2A82
:1039D800000EDD2202EF1DF09A51D96EDA6ADECFB1
:1039E800F6FFDDCFF7FFF86A0800F550706F716BCE
:1039F80099C072F0F7EC2FF0E7EF1CF012002D5091
:103A0800D96EDA6ADECFF6FFDDCFF7FFF86A080075
:103A1800F550250AD8A413EF1DF015EF1DF0B6EFE9
:103A28001EF02D50D96EDA6ADE2A000EDD22000E55
:103A38000101296F000E286F28C152F12A692B69EC
:103A4800316A45EF1DF0010152832D50D96EDA6AB3
:103A5800DE2A000EDD2245EF1DF0010E316E45EF26
:103A68001DF02D50D96EDA6ADECFF6FFDDCFF7FFF5
:103A7800F86A0800F550300AD8B427EF1DF031EF86
:103A88001DF03150D8B44BEF1DF04DEF1DF035EF60
:103A98001DF02DC001F02EC002F00BEC31F001C07A
:103AA80028F102C029F1010129BF5FEF1DF05DEF88
:103AB8001DF064EF1DF05281286D291FD8B0292B05
:103AC8002D50D96EDA6ADECF37F0DDCF38F037C047
:103AD800F6FF38C0F7FFF86A0800F5CF36F080EF38
:103AE8001DF0374A382A9BEF1DF0690E366E9BEFA2
:103AF8001DF0366A9BEF1DF03650580AD8B479EF9E
:103B08001DF03C0AD8B479EF1DF00D0AD8B479EF4E
:103B18001DF0050AD8B475EF1DF0190AD8B479EF6D
:103B28001DF00D0AD8B479EF1DF07DEF1DF037C0F8
:103B3800F6FF38C0F7FFF86A0800F550640AD8B4F1
:103B4800A8EF1DF0AAEF1DF0E0EF1DF037C0F6FF5B
:103B580038C0F7FFF86A0800F550690AD8A4B7EF2B
:103B68001DF0B9EF1DF006EF1EF0E0EF1DF02E502E
:103B7800D96EDA6ADF50DF2ADF2AD96EDA6ADECF39
:103B880032F0DDCF33F0000E33BEFF0E346E356EEB
:103B9800EBEF1DF02E50D96EDA6A040EDF26DF5CDB
:103BA800D96EDA6ADECF32F0DECF33F0DECF34F012
:103BB800DECF35F0EBEF1DF03650690AD8B4BBEF15
:103BC8001DF0050AD8B4CEEF1DF0EBEF1DF0010E85
:103BD80037242F6E000E3820306E2D50D96EDA6AD9
:103BE8002FC0DEFF30C0DDFF2CC019F032C01AF044
:103BF80033C01BF034C01CF035C01DF009EC24F0B4
:103C0800C8EF1EF037C0F6FF38C0F7FFF86A0800A3
:103C1800F550780AD8B413EF1EF015EF1EF05BEFDD
:103C28001EF037C0F6FF38C0F7FFF86A0800F550F5
:103C3800580AD8B422EF1EF024EF1EF05BEF1EF0F6
:103C480037C0F6FF38C0F7FFF86A0800F550750A64
:103C5800D8A431EF1EF033EF1EF0AEEF1EF05BEF8D
:103C68001EF02E50D96EDA6ADF50DF2ADF2AD96EAD
:103C7800DA6ADECF2FF0DDCF30F02FC032F030C05F
:103C880033F0346A356A66EF1EF02E50D96EDA6A60
:103C9800040EDF26DF5CD96EDA6ADECF32F0DECFC3
:103CA80033F0DECF34F0DECF35F066EF1EF036505D
:103CB800690AD8B435EF1EF0050AD8B449EF1EF0EA
:103CC80066EF1EF0010E37242F6E000E3820306E7E
:103CD8002D50D96EDA6A2FC0DEFF30C0DDFF99EFB4
:103CE8001EF02CC019F032C01AF033C01BF034C0DB
:103CF8001CF035C01DF01DEC2AF0C8EF1EF02CC0DA
:103D080019F032C01AF033C01BF034C01CF035C0B3
:103D18001DF037C0F6FF38C0F7FFF86A0800F5CF86
:103D28001EF0AFEC27F0C8EF1EF037C0F6FF38C022
:103D3800F7FFF86A0800F550580AD8B483EF1EF068
:103D48002D0AD8B475EF1EF00D0AD8B483EF1EF013
:103D5800AEEF1EF02D50D96EDA6ADE2A000EDD2293
:103D6800C8EF1EF02D50D96EDA6ADECFF6FFDDCF30
:103D7800F7FFF86A0800F550036E046A2CC005F0D6
:103D880055EC30F0AEEF1EF01200010E00018A6F04
:103D98008280000E896F000E886F0101626B616B73
:103DA800F29E290E0001856F960E846F7F0EE82E15
:103DB800FED7842FFCD7852FFAD7000E0101206F7C
:103DC800000E216F000E226F000E236F62C18BF070
:103DD80000018A51D8B4F3EF1EF0F5EF1EF0FBEFA7
:103DE8001EF065EC2EF000018C6FFFEF1EF0CDEC9D
:103DF8002EF000018C6F8A6B01016A51D8B407EF6D
:103E08001FF009EF1FF00EEF1FF0010E86EC38F0DF
:103E180039EF20F000018C05D8B415EF1FF017EF2B
:103E28001FF02EEF1FF0040E8C19D8B41EEF1FF0F0
:103E380020EF1FF02EEF1FF0170E8C19D8B427EFC4
:103E48001FF029EF1FF02EEF1FF0020E86EC38F05E
:103E580039EF20F08C05D8A434EF1FF036EF1FF0AF
:103E680017EF20F0CDEC2EF00101626F6A51D8B443
:103E780040EF1FF042EF1FF047EF1FF0040E86ECF3
:103E880038F039EF20F000018B29D8A44EEF1FF04D
:103E980050EF1FF051EF1FF08B69CDEC2EF00101B0
:103EA800616F6A51D8B45BEF1FF05DEF1FF062EFEE
:103EB8001FF0050E86EC38F039EF20F06151FF0A4B
:103EC8006219D8B46AEF1FF06CEF1FF071EF1FF0A2
:103ED800150E3DEC34F0ECEF1EF0010E0001E66F1C
:103EE800000EE76F000EE86F000EE96F9DEF1FF000
:103EF800CDEC2EF000018C6F01016A51D8B487EF28
:103F08001FF089EF1FF08EEF1FF0060E86EC38F0D9
:103F180039EF20F0000E0001E625D96E050EE721E5
:103F2800DA6E8CC0DFFF010EE627000EE723E823D8
:103F3800E923E951E811E71109E1830EE65DD8A00C
:103F4800A8EF1FF0AAEF1FF07CEF1FF0000E6F6FB5
:103F5800800E6E6FA0EC32F06EC03CF16FC03DF188
:103F6800050181510001856F846B050182510001B3
:103F7800842501013A6F0501000E00018521010128
:103F88003B6F3A513C1909E13B513D19D8B4CFEF89
:103F98001FF0D1EF1FF0D6EF1FF0070E86EC38F0B8
:103FA80039EF20F0000182058311D8A4DEEF1FF05D
:103FB800E0EF1FF0FBEF1FF020C184F021C185F076
:103FC80022C186F023C187F0070ED8908437853741
:103FD80086378737E82EE9EF1FF084C076F085C072
:103FE80077F086C078F087C079F056EC22F0020EA0
:103FF800000182198311D8A404EF20F006EF20F005
:1040080017EF20F020C184F021C185F0070ED89069
:1040180084378537E82E0BEF20F084C072F085C016
:1040280073F0B4EC34F0010E01012027000E2123B7
:1040380022232323060E3DEC34F082A026EF20F045
:1040480029EF20F082802AEF20F08290010123518D
:10405800221109E1040E215DD8A035EF20F037EFD9
:1040680020F0EAEF1EF0F28E829012005250010109
:10407800DB6FDA6B5150DA25EA6F000EDB21EB6F4C
:10408800000E396F000E386FEAC1CEF1EBC1CFF1E7
:104098005FEC26F0CEC138F1CFC139F101013851BA
:1040A80000016E6F6F6B35EC38F00101EC6FEC516D
:1040B800EA19EC6F0001F0510101EC190F0BE66FE2
:1040C8005050EC19E76F6D51EC19E86F6C51EC1911
:1040D800E96F20EE46F0070EDE6AE806FDE2E951D8
:1040E8004624466E000E4720476E000E4820486E54
:1040F800000E4920496E000E4A204A6E000E4B20E1
:104108004B6E000E4C204C6E000E4D204D6EE8C1DB
:10411800DAF1DB6BDC6BDD6BDCC1DDF1DBC1DCF123
:10412800DAC1DBF1DA6BDA51DE6FDB51DF6FDC51BC
:10413800E06FDD51E16FE26BE36BE46BE56B4650DA
:10414800DE25466E4750DF21476E4850E021486E15
:104158004950E121496E4A50E2214A6E4B50E32111
:104168004B6E4C50E4214C6E4D50E5214D6EE7C12D
:10417800DAF1DB6BDC6BDD6BDBC1DDF1DAC1DCF1C5
:10418800DB6BDA6BDA51DE6FDB51DF6FDC51E06F2E
:10419800DD51E16FE26BE36BE46BE56B4650DE25C6
:1041A800466E4750DF21476E4850E021486E49501F
:1041B800E121496E4A50E2214A6E4B50E3214B6E91
:1041C8004C50E4214C6E4D50E5214D6EE6C1DAF1BC
:1041D800DB6BDC6BDD6BDAC1DDF1DC6BDB6BDA6BC7
:1041E800DA51DE6FDB51DF6FDC51E06FDD51E16FDB
:1041F800E26BE36BE46BE56B4650DE25466E475099
:10420800DF21476E4850E021486E4950E121496E50
:104218004A50E2214A6E4B50E3214B6E4C50E42148
:104228004C6E4D50E5214D6E0001F1510F0B01010F
:104238005F6F0001F0390F0B01015F190F0A676FFB
:10424800F70E0001AC6FFC0EAD6FF5EC37F046C011
:10425800B7F047C0B8F048C0B9F049C0BAF04AC092
:10426800BBF04BC0BCF04CC0BDF04DC0BEF03DEC47
:1042780037F0960E0001AC6FFE0EAD6F5FC1AEF069
:10428800AF6BF5EC37F00001EF51D8B44EEF21F0E9
:1042980050EF21F064EF21F0F10EAC6FFE0EAD6F20
:1042A80038C1AEF039C1AFF0F5EC37F0190E0001A6
:1042B800AC6FFE0EAD6F67C1AEF0AF6BF5EC37F0CB
:1042C8001200000E0001806F000E7F6FEE05D8A46B
:1042D80070EF21F072EF21F08CEF21F05FC174F0E4
:1042E800756B766B776B1C0ED8907437753776378D
:1042F8007737E82E78EF21F070517411706F715193
:104308007511716F72517611726F73517711736FE6
:104318007FC074F080C075F0D89074377537D89026
:1043280074377537000E74256E6F010E75216F6F27
:1043380035EC38F00001766F76517B6F7C6B7D6BC6
:104348007E6B7FC074F080C075F0D8907437753775
:10435800D89074377537010E74256E6F010E75216C
:104368006F6F35EC38F00001766F76C077F0786BB8
:10437800796B7A6B79C07AF078C079F077C078F089
:10438800776B7B5177257B6F7C5178217C6F7D51D2
:1043980079217D6F7E517A217E6F7FC074F080C055
:1043A80075F0D89074377537D89074377537020E12
:1043B80074256E6F010E75216F6F35EC38F00001B2
:1043C800766F76C077F0786B796B7A6B78C07AF015
:1043D80077C079F0786B776B7B5177257B6F7C5151
:1043E80078217C6F7D5179217D6F7E517A217E6F96
:1043F8007FC074F080C075F0D89074377537D89046
:1044080074377537030E74256E6F010E75216F6F43
:1044180035EC38F00001766F76C077F0786B796B01
:104428007A6B77C07AF0796B786B776B7B517725ED
:104438007B6F7C5178217C6F7D5179217D6F7E5116
:104448007A217E6F7F4B802B7B5170190FE17C5155
:1044580071190CE17D51721909E17E517319D8B4B3
:1044680038EF22F03AEF22F045EF22F0805109E1CF
:104478000B0E7F5DD8A043EF22F045EF22F08CEFC2
:1044880021F0805109E10B0E7F5DD8A04EEF22F09C
:1044980050EF22F054EF22F0000E806F000E7F6F75
:1044A8007F5112000001795108E17805D8A05FEF2B
:1044B80022F061EF22F06BEF22F0010E7C6F000E0C
:1044C8007D6F000E7E6F000E7F6F73EF22F0000E7F
:1044D8007C6F000E7D6F000E7E6F000E7F6F77C0C1
:1044E80000F376C001F3000E816F010E806F000E9D
:1044F8008025D96E050E8121DA6E010E8025E16EC8
:10450800030E8121E26EDFCFE7FF804B812B81BF55
:1045180097EF22F0815109E1810E805DD8A097EFD5
:1045280022F099EF22F07BEF22F0500E7C116F6F92
:104538007D51706F000E716F030E726F000E746FF5
:10454800820E736F050EF66EF60EF76EF86A0900A6
:10455800F5CF7AF00900F5CF7BF002D8BDEF22F055
:104568000500FA6E7A51FD6E7B51FE6EFF6AFA50B5
:1045780012000009D8B4C3EF22F0C5EF22F033EFE0
:1045880023F0640E0101636FEDEF22F0130EF66E57
:10459800F60EF76EF86A0900F5CF7AF00900F5CF44
:1045A8007BF002D8E2EF22F00500FA6E00017A51A2
:1045B800FD6E7B51FE6EFF6AFA501200680E000114
:1045C8007A6FE40EE82EFED77A2FFCD7000001019F
:1045D80063070F0EF66EF60EF76EF86A0900F5CF50
:1045E8007AF00900F5CF7BF002D805EF23F005003B
:1045F800FA6E00017A51FD6E7B51FE6EFF6AFA5029
:1046080012000009D8A40BEF23F00DEF23F0CAEF36
:1046180022F00D0EF66EF60EF76EF86A0900F5CF69
:104628007AF00900F5CF7BF002D825EF23F00500DA
:10463800FA6E00017A51FD6E7B51FE6EFF6AFA50E8
:1046480012000101686F6851D8A42DEF23F02FEFF5
:1046580023F031EF23F033EF23F0080E696F1200D7
:10466800010E00018D6F8ABF3CEF23F03FEF23F06E
:10467800010E40EF23F0000E906F28C18EF029C183
:104688008FF09051D8B44BEF23F04DEF23F064EF47
:1046980023F08E07D8A08F079051D8A456EF23F0A7
:1046A80058EF23F05EEF23F0000E8C6F2B0E8B6F0C
:1046B80062EF23F0000E8C6F2D0E8B6F8BC090F085
:1046C800000E926F1F0E916F0101BF6BB0EF23F0C8
:1046D80000019107D8A09207A00E9125D96E010E6E
:1046E8009221DA6E87C06EF088C06FF089C070F0D2
:1046F8008AC071F00A0E726F000E736F000E746F2D
:10470800000E756FA1EC2CF06EC078F06FC079F0D8
:10471800D7EC36F000017851300FDF6E8D6B8E07C5
:10472800D8A08F0787C06EF088C06FF089C070F07E
:104738008AC071F00A0E726F000E736F000E746FEC
:10474800000E756FA7EC2AF06EC087F06FC088F076
:1047580070C089F071C08AF0000192BFBCEF23F0ED
:10476800925108E19105D8A0BCEF23F0BEEF23F0E9
:10477800E6EF23F08751881189118A11D8A4C7EF71
:1047880023F0C9EF23F06CEF23F08D51D8A4CFEFBD
:1047980023F0D1EF23F06CEF23F08FBFDCEF23F091
:1047A8008F5108E18E05D8A0DCEF23F0DEEF23F06F
:1047B800E6EF23F0010152B3E4EF23F0E6EF23F034
:1047C8006CEF23F000019051D8B4EDEF23F0EFEF38
:1047D80023F0FAEF23F09107D8A09207A00E9125B5
:1047E800D96E010E9221DA6E90C0DFFF86C07EF08E
:1047F800A00E91257F6F010E9221806F8EC081F0EF
:104808008FC082F008EC32F01200010E206E1DBE3F
:1048180010EF24F013EF24F0010E14EF24F0000E33
:10482800236E28C121F029C122F02350D8B41FEFEC
:1048380024F021EF24F038EF24F02106D8A0220636
:104848002350D8A42AEF24F02CEF24F032EF24F0E0
:10485800000E1F6E2B0E1E6E36EF24F0000E1F6E1C
:104868002D0E1E6E1EC023F0000E256E1F0E246E28
:104878000101BF6B82EF24F02406D8A02506A00E04
:104888002424D96E010E2520DA6E1AC001F01BC04F
:1048980002F01CC003F01DC004F00A0E056E000EE5
:1048A800066E000E076E000E086E17EC2DF001C0A4
:1048B8000BF002C00CF0F2EC36F00B50300FDF6E4C
:1048C800206A2106D8A022061AC001F01BC002F0F7
:1048D8001CC003F01DC004F00A0E056E000E066E23
:1048E800000E076E000E086E2DEC2BF001C01AF0BA
:1048F80002C01BF003C01CF004C01DF025BE8DEFE4
:1049080024F0255008E12404D8A08DEF24F08FEF7F
:1049180024F0B7EF24F01A501B101C101D10D8A457
:1049280098EF24F09AEF24F040EF24F02050D8A418
:10493800A0EF24F0A2EF24F040EF24F022BEADEF68
:1049480024F0225008E12104D8A0ADEF24F0AFEF05
:1049580024F0B7EF24F0010152B3B5EF24F0B7EF1C
:1049680024F040EF24F02350D8B4BDEF24F0BFEF7B
:1049780024F0CAEF24F02406D8A02506A00E24248B
:10498800D96E010E2520DA6E23C0DFFF19C011F0A1
:10499800A00E2424126E010E2520136E21C014F0DF
:1049A80022C015F055EC32F012000001BA5108E1AE
:1049B800B905D8A0E2EF24F0E4EF24F0EEEF24F0FC
:1049C800010EBE6F000EBF6F000EC06F000EC16FEC
:1049D800F6EF24F0000EBE6F000EBF6F000EC06F22
:1049E800000EC16FB8C000F3B7C001F3500EBE117E
:1049F8006F6FBF51706F000E716F030E726F000EF4
:104A0800746F020E736F000E756F040E766F000ED2
:104A1800786F010E776F090EF66EF60EF76EF86A6C
:104A28000900F5CFBBF00900F5CFBCF002D826EF9E
:104A380025F00500FA6EBB51FD6EBC51FE6EFF6A93
:104A4800FA501200E80E0101636F4EEF25F0130EC5
:104A5800F66EF60EF76EF86A0900F5CFBBF009009E
:104A6800F5CFBCF002D843EF25F00500FA6E00013F
:104A7800BB51FD6EBC51FE6EFF6AFA501200010177
:104A88006307150E0001BB6FC60EE82EFED7BB2FBD
:104A9800FCD700000F0EF66EF60EF76EF86A0900E6
:104AA800F5CFBBF00900F5CFBCF002D866EF25F0D2
:104AB8000500FA6E0001BB51FD6EBC51FE6EFF6A27
:104AC800FA5012000009D8A46CEF25F06EEF25F01B
:104AD8002BEF25F00D0EF66EF60EF76EF86A09004C
:104AE800F5CFBBF00900F5CFBCF002D886EF25F072
:104AF8000500FA6E0001BB51FD6EBC51FE6EFF6AE7
:104B0800FA5012000001BD6FBD51C26FC36BC25194
:104B1800C311D8A492EF25F094EF25F096EF25F075
:104B2800A0EF25F0400EAC6FFB0EAD6FC2C0AEF02B
:104B3800C3C0AFF0F5EC37F012000001BA5108E13C
:104B4800B905D8A0AAEF25F0ACEF25F0B6EF25F00F
:104B5800010EBF6F000EC06F000EC16F000EC26F56
:104B6800BEEF25F0000EBF6F000EC06F000EC16FC4
:104B7800000EC26FB8C000F3B7C001F3500EBF11EA
:104B88006F6FC051706F000E716F030E726F000E61
:104B9800746F020E736F000E756F040E766FBBC0D4
:104BA80077F0786B090EF66EF60EF76EF86A090064
:104BB800F5CFBCF00900F5CFBDF002D8EDEF25F038
:104BC8000500FA6EBC51FD6EBD51FE6EFF6AFA50CB
:104BD8001200E80E0101636F0CEF26F0130EF66E5B
:104BE800F60EF76EF86A0900F5CFBCF00900F5CFAC
:104BF800BDF002D80AEF26F00500FA6E0001BC519C
:104C0800FD6EBD51FE6EFF6AFA5012000101630786
:104C18000F0EF66EF60EF76EF86A0900F5CFBCF0C7
:104C28000900F5CFBDF002D824EF26F00500FA6E92
:104C38000001BC51FD6EBD51FE6EFF6AFA501200B4
:104C48000009D8A42AEF26F02CEF26F0F2EF25F081
:104C58000D0EF66EF60EF76EF86A0900F5CFBCF089
:104C68000900F5CFBDF002D844EF26F00500FA6E32
:104C78000001BC51FD6EBD51FE6EFF6AFA50120074
:104C88000001BE6FBE51C36FC46BC351C411D8A419
:104C980050EF26F052EF26F054EF26F05EEF26F0A4
:104CA800400EAC6FFB0EAD6FC3C0AEF0C4C0AFF02A
:104CB800F5EC37F01200010E0101D56FD551020D48
:104CC800000EF324D96E010EF420DA6EDECFD6F191
:104CD800DDCFD7F1D6C1D0F1D7C1D1F1D890D03737
:104CE800D137D0C1B7F0D1C1B8F00001B96BBA6BF8
:104CF800800EBB6FA1EC25F00101D96B000ED92500
:104D0800D96EDA6A040EDA22DF50D06FD051D36F31
:104D1800D46B010ED925D96EDA6A040EDA22DF5077
:104D2800D06FD051D26FD16BD351D125D36FD4511D
:104D3800D221D46FD351CE190AE1D451CF19D8B4A6
:104D4800A8EF26F0ABEF26F0010EACEF26F0000E30
:104D5800D86FD851D8A4B3EF26F0B5EF26F0B8EF46
:104D680026F0D951020FD96FD851D8A4BEEF26F03A
:104D7800C0EF26F0C8EF26F07F0ED965C6EF26F003
:104D8800C8EF26F082EF26F0D52BD851D8A4CFEF64
:104D980026F0D1EF26F0D9EF26F0090ED565D7EF2A
:104DA80026F0D9EF26F062EF26F0D851D8A4DFEF2D
:104DB80026F0E1EF26F0EDEF26F0CEC1C5F0CFC129
:104DC800C6F0F6EC28F0C5C0D6F1C6C0D7F102EFA0
:104DD80027F0D9C16EF000016F6B000E716F020EE3
:104DE800706F95EC2FF00101D65100016E2501017D
:104DF800D66FD75100016F210101D76FD6C1CEF10F
:104E0800D7C1CFF11200010E0001936F28C194F0B1
:104E180029C195F0780E8B19D8B415EF27F017EF44
:104E280027F01DEF27F0000E926F410E916F21EFD2
:104E380027F0000E926F610E916F91C090F0000EF6
:104E4800986F1F0E976F0101BF6B68EF27F0000185
:104E58009707D8A0980787510F0B966F0A0E96618F
:104E680038EF27F03AEF27F03EEF27F0300E96277D
:104E780041EF27F09051F60F9627A00E9725D96E8F
:104E8800010E9821DA6E96C0DFFF936B9407D8A0C5
:104E9800950787C08CF088C08DF089C08EF08AC0D5
:104EA8008FF0050E5DEF27F0D8908F338E338D335A
:104EB8008C33E82E58EF27F08CC087F08DC088F02F
:104EC8008EC089F08FC08AF0000198BF75EF27F077
:104ED800985109E1020E975DD8A075EF27F077EF9A
:104EE80027F09FEF27F08751881189118A11D8A4DC
:104EF80080EF27F082EF27F02BEF27F09351D8A40B
:104F080088EF27F08AEF27F02BEF27F095BF95EF72
:104F180027F0955108E19405D8A095EF27F097EF71
:104F280027F09FEF27F0010152B39DEF27F09FEF85
:104F380027F02BEF27F086C07EF0A00E0001972502
:104F48007F6F010E9821806F94C081F095C082F028
:104F580008EC32F01200010E266E28C127F029C194
:104F680028F0780E1E18D8B4BCEF27F0BEEF27F053
:104F7800C4EF27F0000E246E410E236EC8EF27F011
:104F8800000E246E610E236E23C025F0000E2B6EDA
:104F98001F0E2A6E0101BF6B0EEF28F02A06D8A05B
:104FA8002B061A500F0B296E0A0E2960DEEF27F028
:104FB800E0EF27F0E4EF27F0300E2926E7EF27F09F
:104FC8002550F60F2926A00E2A24D96E010E2B2073
:104FD800DA6E29C0DFFF266A2706D8A028061AC07D
:104FE8001FF01BC020F01CC021F01DC022F0050ED0
:104FF80003EF28F0D8902232213220321F32E82ED7
:10500800FEEF27F01FC01AF020C01BF021C01CF0D3
:1050180022C01DF02BBE1AEF28F02B5009E1020E1A
:105028002A5CD8A01AEF28F01CEF28F044EF28F0EB
:105038001A501B101C101D10D8A425EF28F027EFBC
:1050480028F0D2EF27F02650D8A42DEF28F02FEF24
:1050580028F0D2EF27F028BE3AEF28F0285008E1D0
:105068002704D8A03AEF28F03CEF28F044EF28F0C6
:10507800010152B342EF28F044EF28F0D2EF27F0B5
:1050880019C011F0A00E2A24126E010E2B20136EE7
:1050980027C014F028C015F055EC32F01200490E64
:1050A8000001AC6FFC0EAD6FF5EC37F0060E000199
:1050B800AC6FFC0EAD6FF5EC37F0260E0001AC6F4F
:1050C800FB0EAD6FF5EC37F0D00E0001AC6FFA0EA9
:1050D800AD6FF5EC37F0300E0001AC6FF70EAD6F29
:1050E800F5EC37F0880E0001AC6FF70EAD6FF5ECFC
:1050F80037F0C60E0001AC6FF80EAD6FF5EC37F067
:10510800100E0001AC6FFA0EAD6FF5EC37F0760EAD
:105118000001AC6FFA0EAD6FF5EC37F01D0E000113
:10512800AC6FF80EAD6FF5EC37F0B30E0001AC6F55
:10513800FA0EAD6FF5EC37F0540E0001AC6FFA0EB5
:10514800AD6FF5EC37F0DC0E0001AC6FF70EAD6F0C
:10515800F5EC37F09E0E0001AC6FF90EAD6FF5EC73
:1051680037F0000E00016F6F000E6E6F35EC38F0EF
:105178000001B76FB751E66FE76BE86BE96BE6299B
:10518800E711E811E911D8A4CCEF28F0CEEF28F008
:10519800D4EF28F0760EAC6FF90EAD6FF5EC37F062
:1051A800210E0001E619E711E811E911D8B4DFEF83
:1051B80028F0E1EF28F0E7EF28F0900EAC6FF80E3A
:1051C800AD6FF5EC37F03D0E0001AC6FFB0EAD6F27
:1051D800F5EC37F0950E0001AC6FFA0EAD6FF5ECFB
:1051E80037F01200000E0101C96F000ECA6F000EE1
:1051F800CB6F000ECC6FC9C1B7F0CAC1B8F0CBC134
:10520800B9F0CCC1BAF0800E0001BB6FA1EC25F05B
:10521800800E0101C925C96F000ECA21CA6F000E90
:10522800CB21CB6F000ECC21CC6FCD6B000ECD25E2
:10523800D96EDA6A040EDA22DF500001C76F010E58
:105248000101CD25D96EDA6A040EDA22DF50000199
:10525800C96FC751C86FC551C8190AE1C651C919E4
:10526800D8B439EF29F03CEF29F0010E3DEF29F0D1
:10527800000E0101C86FCD51020FCD6FC851D8A4DF
:1052880048EF29F04AEF29F052EF29F07F0ECD655B
:1052980050EF29F052EF29F01AEF29F0C851D8A49D
:1052A80058EF29F05AEF29F065EF29F0CC5109E1C0
:1052B800020ECB5DD8A063EF29F065EF29F0FFEF70
:1052C80028F0CD51C9250001C76F000E0101CA2180
:1052D8000001C86F000E0101CB210001C96F000E4B
:1052E8000101CC210001CA6F7E0EC725CB6FFF0ECE
:1052F800C821CC6FFF0EC921CD6FFF0ECA21CE6F1A
:10530800D890CE33CD33CC33CB33CBC0C5F0CCC063
:10531800C6F01200010E00018B6F28C18CF029C164
:105328008DF0000E8F6F1F0E8E6F0101BF6BDBEFCC
:1053380029F000018E07D8A08F07A00E8E25D96E00
:10534800010E8F21DA6E87C06EF088C06FF089C0B9
:1053580070F08AC071F00A0E726F000E736F000E43
:10536800746F000E756F33EC33F000016E51300F1F
:10537800DF6E8B6B8C07D8A08D0787C06EF088C056
:105388006FF089C070F08AC071F00A0E726F000E5B
:10539800736F000E746F000E756F63EC31F06EC0A2
:1053A80087F06FC088F070C089F071C08AF0000182
:1053B8008E518F11D8B4E3EF29F0E5EF29F00DEF06
:1053C8002AF08751881189118A11D8A4EEEF29F0A3
:1053D800F0EF29F09DEF29F08B51D8A4F6EF29F0D2
:1053E800F8EF29F09DEF29F08DBF03EF2AF08D51DA
:1053F80008E18C05D8A003EF2AF005EF2AF00DEF9D
:105408002AF0010152B30BEF2AF00DEF2AF09DEFBD
:1054180029F086C07EF0A00E00018E257F6F010E58
:105428008F21806F8CC081F08DC082F008EC32F043
:105438001200010E1E6E28C11FF029C120F0000EB7
:10544800226E1F0E216E0101BF6B67EF2AF0210645
:10545800D8A02206A00E2124D96E010E2220DA6ED1
:105468001AC001F01BC002F01CC003F01DC004F0FC
:105478000A0E056E000E066E000E076E000E086E10
:1054880078EC33F00150300FDF6E1E6A1F06D8A08B
:1054980020061AC001F01BC002F01CC003F01DC09A
:1054A80004F00A0E056E000E066E000E076E000E62
:1054B800086EB6EC31F001C01AF002C01BF003C050
:1054C8001CF004C01DF021502210D8B46EEF2AF051
:1054D80070EF2AF098EF2AF01A501B101C101D10BC
:1054E800D8A479EF2AF07BEF2AF02BEF2AF01E5090
:1054F800D8A481EF2AF083EF2AF02BEF2AF020BE00
:105508008EEF2AF0205008E11F04D8A08EEF2AF071
:1055180090EF2AF098EF2AF0010152B396EF2AF0A3
:1055280098EF2AF02BEF2AF019C011F0A00E2124D1
:10553800126E010E2220136E1FC014F020C015F049
:1055480055EC32F012000001776B75BFB0EF2AF00E
:10555800AEEF2AF0BAEF2AF0751F741F731F726D31
:10556800000E732374237523010E776F71BFC1EF8B
:105578002AF0BFEF2AF0CBEF2AF0711F701F6F1FC0
:105588006E6D000E6F2370237123010E771B000EC2
:10559800786F000E796F000E7A6F000E7B6F725174
:1055A800731174117511D8B4DCEF2AF0DEEF2AF00C
:1055B80014EF2BF0010E766FE8EF2AF0D8907237CF
:1055C800733774377537762B75AFEDEF2AF0EFEF39
:1055D8002AF0E2EF2AF0D890783779377A377B3794
:1055E80072516E5D73516F5974517059755171597B
:1055F800D8A001EF2BF003EF2BF00CEF2BF072513A
:105608006E5F73516F5B7451705B7551715B78811C
:10561800D8907533743373337233762FEFEF2AF0E3
:105628007751D8B41AEF2BF01CEF2BF024EF2BF0A6
:105638007B1F7A1F791F786D000E79237A237B23CD
:1056480078C06EF079C06FF07AC070F07BC071F0EE
:1056580012000A6A08BE35EF2BF033EF2BF03FEF4C
:105668002BF0081E071E061E056C000E06220722D8
:105678000822010E0A6E04BE46EF2BF044EF2BF011
:1056880050EF2BF0041E031E021E016C000E0222B6
:1056980003220422010E0A1A000E0B6E000E0C6E75
:1056A800000E0D6E000E0E6E055006100710081045
:1056B800D8B461EF2BF063EF2BF099EF2BF0010ECC
:1056C800096E6DEF2BF0D89005360636073608368A
:1056D800092A08AE72EF2BF074EF2BF067EF2BF06E
:1056E800D8900B360C360D360E360550015C065038
:1056F80002580750035808500458D8A086EF2BF0DA
:1057080088EF2BF091EF2BF00550015E0650025AFE
:105718000750035A0850045A0B80D89008320732B1
:1057280006320532092E74EF2BF00A50D8B49FEFD9
:105738002BF0A1EF2BF0A9EF2BF00E1E0D1E0C1E67
:105748000B6C000E0C220D220E220BC001F00CC0B7
:1057580002F00DC003F00EC004F01200B7C0BFF095
:10576800B8C0C0F0B9C0C1F0BAC0C2F0BBC0C3F085
:10577800BCC0C4F0BDC0C5F0BEC0C6F0210ECFEF9E
:105788002BF00001D890C633C533C433C333C233BA
:10579800C133C033BF33E82EC5EF2BF0BFC0C7F00D
:1057A800C0C0C8F0C1C0C9F0C2C0CAF0C3C0CBF005
:1057B800C4C0CCF0C5C0CDF0C6C0CEF09A0EAC6F58
:1057C800FF0EAD6FC7C0AEF0C8C0AFF0C9C0B0F033
:1057D800CAC0B1F0CBC0B2F0CCC0B3F0CDC0B4F009
:1057E800CEC0B5F0F5EC37F020EEB7F0FF0EDE14C2
:1057F8000001C76FFF0EDE14C86FFF0EDE14C96FFD
:10580800FF0EDE14CA6F000EDE14CB6F000EDE141E
:10581800CC6F000EDE14CD6F000EDE14CE6F9A0E24
:10582800AC6FFF0EAD6FC7C0AEF0C8C0AFF0C9C057
:10583800B0F0CAC0B1F0CBC0B2F0CCC0B3F0CDC0AC
:10584800B4F0CEC0B5F0F5EC37F01200C30EF66E2A
:10585800F50EF76EF86A0900F5CFC7F00900F5CF25
:10586800C8F002D842EF2CF00500FA6E0001C751CB
:10587800FD6EC851FE6EFF6AFA5012000009D8B4D6
:1058880048EF2CF04AEF2CF0A0EF2CF0BF0EF66E8C
:10589800F50EF76EF86A0900F5CFC7F00900F5CFE5
:1058A800C8F002D862EF2CF00500FA6E0001C7516B
:1058B800FD6EC851FE6EFF6AFA50120001015D6F5D
:1058C8000A0E5D19D8B46BEF2CF06DEF2CF088EF51
:1058D8002CF00D0E5D19D8B474EF2CF076EF2CF087
:1058E80088EF2CF0C00E5E25D96EDA6A010EDA2236
:1058F8005DC1DFFF5E2B080E5E6585EF2CF087EF3C
:105908002CF088EF2CF05E6B0D0E5D19D8A48FEF8C
:105918002CF091EF2CF0A0EF2CF0C00E5E25D96E84
:10592800DA6A010EDA22DF6A5E6BC00E0001C56F0B
:10593800010EC66F6FEC06F012000001776B71BFA5
:10594800AAEF2CF0A8EF2CF0B4EF2CF0711F701F09
:105958006F1F6E6D000E6F2370237123010E776F1A
:1059680075BFBBEF2CF0B9EF2CF0C3EF2CF0751F0F
:10597800741F731F726D000E732374237523725185
:10598800731174117511D8B4CCEF2CF0CEEF2CF044
:10599800FEEF2CF0010E766FD8EF2CF0D89072370E
:1059A800733774377537762B75AFDDEF2CF0DFEF73
:1059B8002CF0D2EF2CF072516E5D73516F59745107
:1059C800705975517159D8A0ECEF2CF0EEEF2CF00E
:1059D800F6EF2CF072516E5F73516F5B7451705B10
:1059E8007551715BD8907533743373337233762F76
:1059F800DFEF2CF07751D8B404EF2DF006EF2DF03F
:105A08000EEF2DF0711F701F6F1F6E6D000E6F234C
:105A1800702371236EC06EF06FC06FF070C070F0AD
:105A280071C071F012000A6A04BE1FEF2DF01DEF5D
:105A38002DF029EF2DF0041E031E021E016C000E2E
:105A4800022203220422010E0A6E08BE30EF2DF056
:105A58002EEF2DF038EF2DF0081E071E061E056CE0
:105A6800000E06220722082205500610071008100B
:105A7800D8B441EF2DF043EF2DF073EF2DF0010E68
:105A8800096E4DEF2DF0D8900536063607360836E4
:105A9800092A08AE52EF2DF054EF2DF047EF2DF004
:105AA8000550015C06500258075003580850045826
:105AB800D8A061EF2DF063EF2DF06BEF2DF00550BE
:105AC800015E0650025A0750035A0850045AD890EB
:105AD8000832073206320532092E54EF2DF00A50EB
