:04000000FDEF0BF015
:100008004F82E1CF68F0E2CF69F0D9CF6AF0DACF5A
:100018006BF0F3CF6CF0F4CF6DF0F6CF6EF0F7CF56
:100028006FF0F8CF70F0F5CF71F0F2A41EEF00F08A
:1000380020EF00F02EEF00F0000E01015425546F60
:10004800000E5521556F010E5621566F000E57218F
:10005800576FF294F2A633EF00F035EF00F0E7EFB8
:100068000BF0F2A03AEF00F03CEF00F0E7EF0BF0F6
:1000780081A841EF00F044EF00F0010E45EF00F0D9
:10008800000E0101876FE6C050F1E7C051F1E8C0EA
:1000980052F1E9C053F1D65054250001E66FD7500C
:1000A800010155210001E76F000E010156210001F1
:1000B800E86F000E010157210001E96F000E0101F0
:1000C800546F000E556F000E566F000E576F000EDE
:1000D800D76E000ED66E464A472A030E0001ED1968
:1000E800D8A479EF00F07BEF00F0A7EF00F0E9511A
:1000F800E8110BE12D0EE65D010EE759D8A087EF58
:1001080000F089EF00F097EF00F0570E3F6EFF0EFA
:10011800406EE6C041F0E7C042F0E8C043F0E9C0F5
:1001280044F024EC48F0140E46184710D8A49FEF6A
:1001380000F0A1EF00F0E6EF0BF00001ED6BE6EF49
:100148000BF0E6EF0BF001018251D8B4AEEF00F0EE
:10015800B0EF00F0FBEF00F0475007E1C80E465C37
:10016800D8B0B9EF00F0BBEF00F0DDEF00F0820E81
:100178000001606F050E616FD8904634D96E473420
:10018800DA6ED890D936DA366051D9266151DA223A
:10019800E6C0DEFFE7C0DEFFE8C0DEFFE9C0DEFF45
:1001A800000E4624D96E020E4720DA6EDF6AE6EFAB
:1001B8000BF0000E616FC80E606F0001ED6B01015E
:1001C800826B0001EC6BE0EC48F0010E0101886FD6
:1001D800E6EF0BF020EEDAF0070EDE6AE806FDE245
:1001E800010E8C6F8D6B0001EB6BE6EF0BF0050ECB
:1001F8000001EC19D8A403EF01F005EF01F082EF3C
:1002080001F001018C51D8B40CEF01F00EEF01F0B0
:1002180082EF01F00001E951E8110BE1AF0EE65D54
:100228000B0EE759D8A01BEF01F01DEF01F082EF8C
:1002380001F0E951E81109E1DA0EE65D0C0EE75923
:10024800D8B029EF01F02BEF01F082EF01F0020E98
:10025800ED19D8A432EF01F034EF01F03AEF01F0D4
:10026800E20E3F6EFF0E406E24EC48F02C0E46184E
:100278004710D8B442EF01F044EF01F04AEF01F023
:1002880001018C6B0001EC6BE6EF0BF0000E476E82
:10029800000E466E050E0001EC6F820E606F050EB3
:1002A800616FD8904634D96E4734DA6ED890D93613
:1002B800DA366051D9266151DA22E6C0DEFFE7C09E
:1002C800DEFFE8C0DEFFE9C0DEFF000E4624D96E7F
:1002D800020E4720DA6EDF6A01018D6B8C6B000E0F
:1002E800636F000E626F010E0001EB6F20EEDAF013
:1002F800070EDE6AE806FDE2E6EF0BF001018C511D
:10030800D8A489EF01F08BEF01F0FAEF01F00001BA
:10031800EB51D8A492EF01F094EF01F0FAEF01F05D
:10032800E951E8110BE1EF0EE65D7F0EE759D8A021
:10033800A0EF01F0A2EF01F0FAEF01F0E951E811A6
:1003480009E1E20EE65D810EE759D8B0AEEF01F0A3
:10035800B0EF01F0FAEF01F0000E476E000E466EA6
:10036800820E606F050E616FD8904634D96E47349F
:10037800DA6ED890D936DA366051D9266151DA2248
:10038800E6C0DEFFE7C0DEFFE8C0DEFFE9C0DEFF53
:10039800000E4624D96E020E4720DA6EDF6A030E7D
:1003A800EC6F020EED19D8A4DCEF01F0DEEF01F0DE
:1003B800ECEF01F0CF0E3F6EFD0E406EE6C041F04F
:1003C800E7C042F0E8C043F0E9C044F024EC48F04C
:1003D80001018451D8B4F3EF01F0F5EF01F0EEEF2D
:1003E80000F0010E826F846BE6EF0BF0030E000144
:1003F800EC19D8A402EF02F004EF02F05AEF02F071
:1004080001018C51D8B40BEF02F00DEF02F05AEF56
:1004180002F00001E951E8110BE15B0EE65D1E0EEA
:10042800E759D8A01AEF02F01CEF02F05AEF02F0D9
:10043800E951E81109E14E0EE65D200EE759D8B002
:1004480028EF02F02AEF02F05AEF02F0000E476E92
:10045800000E466E820E606F050E616FD8904634AE
:10046800D96E4734DA6ED890D936DA366051D92643
:100478006151DA22E6C0DEFFE7C0DEFFE8C0DEFF3A
:10048800E9C0DEFF000E4624D96E020E4720DA6E60
:10049800DF6A030EEC6F000E0101636F000E626FDE
:1004A8008D6B010E0001EB6F7AEF01F00001EB514B
:1004B800D8A461EF02F063EF02F0B0EF02F0E95167
:1004C800E8110BE1790EE65D920EE759D8A06FEFBF
:1004D80002F071EF02F0B0EF02F0E951E81109E122
:1004E800A80EE65D940EE759D8B07DEF02F07FEFD5
:1004F80002F0B0EF02F0000E476E010E466E010EDC
:1005080001018D6FE6C066F1E7C067F1020E0001D8
:10051800ED19D8A492EF02F094EF02F0A2EF02F0E6
:10052800E80E3F6EFD0E406EE6C041F0E7C042F0B7
:10053800E8C043F0E9C044F024EC48F0010E0001A3
:10054800EC6F20EEDAF0070EDE6AE806FDE2010E37
:1005580001018C6FE6EF0BF0EB51D8A4B6EF02F077
:10056800B8EF02F00EEF03F0E951E8110BE1510E7C
:10057800E65D730EE759D8A0C4EF02F0C6EF02F0AB
:100588000EEF03F0E951E81109E1A40EE65D740EDF
:10059800E759D8B0D2EF02F0D4EF02F00EEF03F033
:1005A800000E476E010E466E020EEC6F820E606FF3
:1005B800050E616FD8904634D96E4734DA6ED890FC
:1005C800D936DA366051D9266151DA22E6C0DEFF23
:1005D800E7C0DEFFE8C0DEFFE9C0DEFF020EED196E
:1005E800D8A4F9EF02F0FBEF02F001EF03F0A80E38
:1005F8003F6EFF0E406E24EC48F0010E0001EB6FD9
:1006080020EEDAF0070EDE6AE806FDE201018C6BE7
:10061800E6EF0BF00101535152110AE15005130E98
:100628005159D8A01AEF03F01CEF03F09FEF03F025
:100638005351521109E1B80E505D140E5159D8B0FA
:1006480028EF03F02AEF03F09FEF03F08751D8B4A7
:1006580030EF03F032EF03F09FEF03F00001EB51AE
:10066800D8A439EF03F03BEF03F09FEF03F0E95113
:10067800E8110BE1A50EE65D240EE759D8A047EF77
:1006880003F049EF03F09FEF03F0E951E81109E1A6
:100698005C0EE65D260EE759D8B055EF03F057EF2C
:1006A80003F09FEF03F0000E476E010E466E010E39
:1006B8000101866F040E0001EC6F020EED19D8A43B
:1006C80068EF03F06AEF03F078EF03F0680E3F6E0F
:1006D800FE0E406EE6C041F0E7C042F0E8C043F0CD
:1006E800E9C044F024EC48F0820E0001606F050E6A
:1006F800616FD8904634D96E4734DA6ED890D936BF
:10070800DA366051D9266151DA22E6C0DEFFE7C049
:10071800DEFFE8C0DEFFE9C0DEFF000E0101636F07
:10072800000E626F000E5F6F000E5E6F010E00011B
:10073800EB6F7AEF01F0040E0001EC19D8B4A7EFC3
:1007480003F0AAEF03F0010EABEF03F0000E606FA9
:10075800616BEB516017000E611760516111D8B4DD
:10076800B8EF03F0BAEF03F011EF05F0475007E1D7
:10077800960E465CD8B0C3EF03F0C5EF03F0E4EF84
:1007880003F0820E606F050E616FD8904634D96E03
:100798004734DA6ED890D936DA366051D9266151A5
:1007A800DA22E6C0DEFFE7C0DEFFE8C0DEFFE9C010
:1007B800DEFF000E4624D96E020E4720DA6EDF6A8D
:1007C800E951E8110BE15B0EE65D090EE759D8A087
:1007D800F0EF03F0F2EF03F057EF04F0E951E811FE
:1007E80009E1120EE65D0B0EE759D8B0FEEF03F0F3
:1007F80000EF04F057EF04F0000E01015F6F000EE8
:100808005E6F8751D8B40BEF04F00DEF04F023EFBF
:1008180004F0624B632BD8900001DA35DA6FDB35D0
:10082800DB6FDC35DC6FDD35DD6FDE35DE6FDF3548
:10083800DF6FE035E06FE135E16F48EF04F0624BC0
:10084800632BD8900001DA35DA6FDB35DB6FDC35E6
:10085800DC6FDD35DD6FDE35DE6FDF35DF6FE03510
:10086800E06FE135E16F010EDA11DA6FDB51DB6F12
:10087800DC51DC6FDD51DD6FDE51DE6FDF51DF6F84
:10088800E051E06FE151E16F380E01016219631127
:10089800D8A451EF04F053EF04F0E6EF0BF082EC2C
:1008A80048F0E6EF0BF0E951E8110BE14A0EE65D7E
:1008B800040EE759D8A063EF04F065EF04F0D4EF15
:1008C80004F0E951E81108E1E605060EE759D8B049
:1008D80070EF04F072EF04F0D4EF04F001015E4B06
:1008E8005F2B5E055F11D8A47CEF04F07EEF04F067
:1008F80080EF04F0E6EF0BF0000E5F6F000E5E6F06
:100908008751D8A48AEF04F08CEF04F0B3EF04F019
:10091800624B632BD8900001DA35DA6FDB35DB6F79
:10092800DC35DC6FDD35DD6FDE35DE6FDF35DF6F43
:10093800E035E06FE135E16F010EDA11DA6FDB5176
:10094800DB6FDC51DC6FDD51DD6FDE51DE6FDF51B7
:10095800DF6FE051E06FE151E16FC7EF04F0624BE8
:10096800632BD8900001DA35DA6FDB35DB6FDC35C5
:10097800DC6FDD35DD6FDE35DE6FDF35DF6FE035EF
:10098800E06FE135E16F380E010162196311D8A4F7
:10099800D0EF04F0D2EF04F0E6EF0BF053EF04F0E1
:1009A800830E3F6EFF0E406EE6C041F0E7C042F096
:1009B800E8C043F0E9C044F024EC48F0475007E1B0
:1009C800C80E465CD8B0EBEF04F0EDEF04F00DEF85
:1009D80005F0820E0001606F050E616FD8904634F5
:1009E800D96E4734DA6ED890D936DA366051D926BE
:1009F8006151DA22E6C0DEFFE7C0DEFFE8C0DEFFB5
:100A0800E9C0DEFF000E4624D96E020E4720DA6EDA
:100A1800DF6AE0EC48F0E6EF0BF0EB51D8B417EFE3
:100A280005F019EF05F069EF06F0030EEC19D8A4EC
:100A380020EF05F022EF05F069EF06F0475007E1D7
:100A4800C80E465CD8B02BEF05F02DEF05F04CEF43
:100A580005F0820E606F050E616FD8904634D96E2E
:100A68004734DA6ED890D936DA366051D9266151D2
:100A7800DA22E6C0DEFFE7C0DEFFE8C0DEFFE9C03D
:100A8800DEFF000E4624D96E020E4720DA6EDF6ABA
:100A9800E951E8110BE1CA0EE65D040EE759D8A04A
:100AA80058EF05F05AEF05F0F4EF05F0010E462473
:100AB800606F000E4720616F60B165EF05F067EF6A
:100AC80005F06CEF05F0010E01018B6FE6EF0BF0FE
:100AD80001018B51D8A473EF05F075EF05F0CBEF4A
:100AE80005F0624B632BDAC060F0DBC061F0DCC05C
:100AF80062F0DDC063F0DEC064F0DFC065F0E0C026
:100B080066F0E1C067F00001D8906733663365335B
:100B18006433633362336133603360C0DAF061C0D9
:100B2800DBF062C0DCF063C0DDF064C0DEF065C0FD
:100B3800DFF066C0E0F067C0E1F020EEDAF0000E0A
:100B4800DE10DA6F000EDE10DB6F000EDE10DC6FD9
:100B5800000EDE10DD6F000EDE10DE6F000EDE1000
:100B6800DF6F000EDE10E06F800EDE10E16F010116
:100B7800635109E1400E625DD8A0C5EF05F0C7EFEB
:100B880005F0E6EF0BF096EC48F0E6EF0BF0000E00
:100B98004624D96E020E4720DA6E020EDF6E00017F
:100BA800ED05D8A4DAEF05F0DCEF05F0EAEF05F083
:100BB800470E3F6EFE0E406EE6C041F0E7C042F0C1
:100BC800E8C043F0E9C044F024EC48F046C060F1C6
:100BD80047C061F1000E476E000E466E0DEF05F03E
:100BE800010E4624606F000E4720616F60B1FFEF71
:100BF80005F001EF06F005EF06F001018B6BE6EF5B
:100C08000BF001018B05D8A40CEF06F00EEF06F0EF
:100C180048EF06F0624B632BDAC060F0DBC061F08E
:100C2800DCC062F0DDC063F0DEC064F0DFC065F0F8
:100C3800E0C066F0E1C067F00001D8906733663322
:100C480065336433633362336133603360C0DAF031
:100C580061C0DBF062C0DCF063C0DDF064C0DEF0D0
:100C680065C0DFF066C0E0F067C0E1F001016351E4
:100C780009E1400E625DD8A044EF06F046EF06F0A9
:100C8800E6EF0BF0C7EF05F0000E4624D96E020E12
:100C98004720DA6E020EDF6E0001ED05D8A457EF8B
:100CA80006F059EF06F0EAEF05F0520E3F6EFE0E21
:100CB800406EE6C041F0E7C042F0E8C043F0E9C04A
:100CC80044F024EC48F0EAEF05F0EB51D8B46FEFAC
:100CD80006F071EF06F0DAEF07F0050EEC19D8A46C
:100CE80078EF06F07AEF06F0DAEF07F0E951E8114D
:100CF8000BE18D0EE65D050EE759D8A086EF06F0EC
:100D080088EF06F011EF07F0E951E81109E1B80E94
:100D1800E65D060EE759D8B094EF06F096EF06F0B8
:100D280011EF07F0DAC060F0DBC061F0DCC062F000
:100D3800DDC063F0DEC064F0DFC065F0E0C066F0DF
:100D4800E1C067F0D8906733663365336433633343
:100D580062336133603360C0DAF061C0DBF062C0D7
:100D6800DCF063C0DDF064C0DEF065C0DFF066C0B3
:100D7800E0F067C0E1F020EEDAF0000EDE10DA6F86
:100D8800000EDE10DB6F000EDE10DC6F000EDE10D2
:100D9800DD6F000EDE10DE6F000EDE10DF6F000E5E
:100DA800DE10E06F800EDE10E16F475007E1960E0F
:100DB800465CD8B0E2EF06F0E4EF06F003EF07F088
:100DC800820E606F050E616FD8904634D96E473435
:100DD800DA6ED890D936DA366051D9266151DA22DE
:100DE800E6C0DEFFE7C0DEFFE8C0DEFFE9C0DEFFE9
:100DF800000E4624D96E020E4720DA6EDF6A400ED6
:100E080046184710D8A40BEF07F00DEF07F0E6EFF0
:100E18000BF08CEC48F0E6EF0BF0E951E8110BE130
:100E2800810EE65D020EE759D8A01DEF07F01FEF0F
:100E380007F08CEF07F0E951E81109E1AC0EE65D27
:100E4800030EE759D8B02BEF07F02DEF07F08CEF22
:100E580007F0DAC060F0DBC061F0DCC062F0DDC032
:100E680063F0DEC064F0DFC065F0E0C066F0E1C0AA
:100E780067F0D8906733663365336433633362331E
:100E88006133603360C0DAF061C0DBF062C0DCF06F
:100E980063C0DDF064C0DEF065C0DFF066C0E0F07E
:100EA80067C0E1F0475007E1960E465CD8B05FEFA7
:100EB80007F061EF07F080EF07F0820E606F050E14
:100EC800616FD8904634D96E4734DA6ED890D936E7
:100ED800DA366051D9266151DA22E6C0DEFFE7C072
:100EE800DEFFE8C0DEFFE9C0DEFF000E4624D96E53
:100EF800020E4720DA6EDF6A400E46184710D8A463
:100F080088EF07F08AEF07F0E6EF0BF00DEF07F038
:100F1800ED05D8A492EF07F094EF07F0A2EF07F0E1
:100F2800AE0E3F6EFE0E406EE6C041F0E7C042F0E6
:100F3800E8C043F0E9C044F024EC48F0475007E12A
:100F4800960E465CD8B0ABEF07F0ADEF07F0C6EFF2
:100F580007F0820E0001606F050E616FD89046346D
:100F6800D96E4734DA6ED890D936DA366051D92638
:100F78006151DA22E6C0DEFFE7C0DEFFE8C0DEFF2F
:100F8800E9C0DEFF000E4624D96E020E4720DA6E55
:100F9800DF6A475009E1400E465CD8A0D6EF07F05B
:100FA800D8EF07F0E6EF0BF00DEF07F0020EEC19A3
:100FB800D8A4E1EF07F0E3EF07F032EF09F0EB51C7
:100FC800D8B4E9EF07F0EBEF07F032EF09F0E95199
:100FD800E8110BE1570EE65D040EE759D8A0F7EFCC
:100FE80007F0F9EF07F074EF08F0E951E81109E1AB
:100FF800AA0EE65D050EE759D8B005EF08F007EF31
:1010080008F074EF08F0D890DA35DA6FDB35DB6F6B
:10101800DC35DC6FDD35DD6FDE35DE6FDF35DF6F4C
:10102800E035E06FE135E16F010EDA11DA6FDB517F
:10103800DB6FDC51DC6FDD51DD6FDE51DE6FDF51C0
:10104800DF6FE051E06FE151E16F475007E1960E25
:10105800465CD8B032EF08F034EF08F053EF08F0F0
:10106800820E606F050E616FD8904634D96E473492
:10107800DA6ED890D936DA366051D9266151DA223B
:10108800E6C0DEFFE7C0DEFFE8C0DEFFE9C0DEFF46
:10109800000E4624D96E020E4720DA6EDF6A1A0E59
:1010A80046184710D8A45BEF08F05DEF08F0E6EFAC
:1010B8000BF0A0EC48F0E6EF0BF0010EDA11DA6F56
:1010C800DB51DB6FDC51DC6FDD51DD6FDE51DE6F34
:1010D800DF51DF6FE051E06FE151E16FE6EF0BF0B8
:1010E800E951E8110BE1D70EE65D010EE759D8A0EA
:1010F80080EF08F082EF08F0EBEF08F0E951E81113
:1011080009E12A0EE65D030EE759D8B08EEF08F024
:1011180090EF08F0EBEF08F0D890DA35DA6FDB35AE
:10112800DB6FDC35DC6FDD35DD6FDE35DE6FDF353F
:10113800DF6FE035E06FE135E16F475007E1960E6C
:10114800465CD8B0AAEF08F0ACEF08F0CBEF08F097
:10115800820E606F050E616FD8904634D96E4734A1
:10116800DA6ED890D936DA366051D9266151DA224A
:10117800E6C0DEFFE7C0DEFFE8C0DEFFE9C0DEFF55
:10118800000E4624D96E020E4720DA6EDF6A1A0E68
:1011980046184710D8A4D3EF08F0D5EF08F0E6EFCB
:1011A8000BF05DEF08F0D8900001DA35DA6FDB3527
:1011B800DB6FDC35DC6FDD35DD6FDE35DE6FDF35AF
:1011C800DF6FE035E06FE135E16FE6EF0BF0E0EC63
:1011D80048F046C060F147C061F1475007E1C80ECA
:1011E800465CD8B0FAEF08F0FCEF08F01DEF09F004
:1011F800820E0001606F050E616FD8904634D96E7B
:101208004734DA6ED890D936DA366051D92661512A
:10121800DA22E6C0DEFFE7C0DEFFE8C0DEFFE9C095
:10122800DEFF000E4624D96E020E4720DA6E030E4A
:10123800DF6E0001ED05D8A424EF09F026EF09F0D0
:10124800E6EF0BF0070E3F6EFF0E406E46C041F012
:1012580047C042F024EC48F0E6EF0BF0EC05D8A4C8
:1012680038EF09F03AEF09F0E6EF0BF0E951E81131
:101278000BE18C0EE65D0A0EE759D8A046EF09F09F
:1012880048EF09F07FEF0AF0E951E81109E1BB0ED8
:10129800E65D0C0EE759D8B054EF09F056EF09F0A7
:1012A8007FEF0AF06C0E46184710D8A45EEF09F0DD
:1012B80060EF09F090EF09F001018D6B8C6B820EE5
:1012C8000001606F050E616FD8904634D96E4734BF
:1012D800DA6ED890D936DA366051D9266151DA22D9
:1012E800E6C0DEFFE7C0DEFFE8C0DEFFE9C0DEFFE4
:1012F800000E4624D96E020E4720DA6EDF6A46C019
:1013080060F147C061F1EB6B01018D6B896B8C6BF0
:10131800010E8E6FE6EF0BF0020E46184710D8B498
:1013280098EF09F09AEF09F0A4EF09F0030E4618B8
:101338004710D8A4A2EF09F0A4EF09F038EF0AF09B
:10134800020E46184710D8A4ACEF09F0AEEF09F02A
:10135800B4EF09F0E6C064F1E7C065F1E6EF0BF021
:10136800030E46184710D8A4BCEF09F0BEEF09F0E9
:1013780038EF0AF0010166510001606F0101675101
:101388000001616F626B636B7A0E646F050E656FA7
:10139800D8904634D96E4734DA6ED890D936DA36D2
:1013A8006451D9266551DA2260C0DEFF61C0DEFFD4
:1013B80062C0DEFF63C0DEFFFE0E4624D96E010E5A
:1013C8004720DA6EDF6A010164510001606F010194
:1013D80065510001616F626B636B7E0E646F050E71
:1013E800656FD8904634D96E4734DA6ED890D936BE
:1013F800DA366451D9266551DA2260C0DEFF61C051
:10140800DEFF62C0DEFF63C0DEFFFF0E4624D96E3A
:10141800010E4720DA6EDF6A820E606F050E616F7B
:10142800D8904634D96E4734DA6ED890D936DA3641
:101438006051D9266151DA22E6C0DEFFE7C0DEFF3F
:10144800E8C0DEFFE9C0DEFF000E4624D96E020EBA
:101458004720DA6EDF6A010E0101896F000E636FA3
:10146800000E626F0AEF03F0E0EC48F046C060F14E
:1014780047C061F1475007E1C80E465CD8B047EF56
:101488000AF049EF0AF06AEF0AF0820E0001606F75
:10149800050E616FD8904634D96E4734DA6ED8900D
:1014A800D936DA366051D9266151DA22E6C0DEFF34
:1014B800E7C0DEFFE8C0DEFFE9C0DEFF000E46241D
:1014C800D96E020E4720DA6E030EDF6E0001ED05BD
:1014D800D8A471EF0AF073EF0AF0E6EF0BF06F0E85
:1014E8003F6EFF0E406E46C041F047C042F024EC0C
:1014F80048F0E6EF0BF001018951D8B486EF0AF005
:1015080088EF0AF0E6EF0BF00001E951E8110BE172
:10151800930EE65D060EE759D8A095EF0AF097EF0F
:101528000AF01EEF0BF0E951E81109E1C20EE65D81
:10153800080EE759D8B0A3EF0AF0A5EF0AF01EEF9E
:101548000BF0475007E1960E465CD8B0AEEF0AF0B4
:10155800B0EF0AF0CFEF0AF0820E606F050E616FF0
:10156800D8904634D96E4734DA6ED890D936DA3600
:101578006051D9266151DA22E6C0DEFFE7C0DEFFFE
:10158800E8C0DEFFE9C0DEFF000E4624D96E020E79
:101598004720DA6EDF6A46B0D4EF0AF0D6EF0AF0D9
:1015A800D8EF0AF067EF05F001018B51D8A4DFEFFF
:1015B8000AF0E1EF0AF0F7EF0AF0624B632BD890DC
:1015C8000001DA35DA6FDB35DB6FDC35DC6FDD35F2
:1015D800DD6FDE35DE6FDF35DF6FE035E06FE1357B
:1015E800E16F61EF08F0000E476E000E466EE0EC0A
:1015F80048F00001ED05D8A404EF0BF006EF0BF05E
:10160800A5EF00F0000E4624D96E020E4720DA6ED0
:10161800020EDF6E9E0E3F6EFE0E406EE6C041F07B
:10162800E7C042F0E8C043F0E9C044F024EC48F0D9
:10163800E6EF0BF0E951E8110BE1A70EE65D020EAB
:10164800E759D8A02AEF0BF02CEF0BF0A1EF0BF025
:10165800E951E81109E1D60EE65D040EE759D8B064
:1016680038EF0BF03AEF0BF0A1EF0BF0475007E122
:10167800960E465CD8B043EF0BF045EF0BF064EFE5
:101688000BF0820E606F050E616FD8904634D96EEC
:101698004734DA6ED890D936DA366051D926615196
:1016A800DA22E6C0DEFFE7C0DEFFE8C0DEFFE9C001
:1016B800DEFF000E4624D96E020E4720DA6EDF6A7E
:1016C80046B069EF0BF06BEF0BF06DEF0BF001EF2D
:1016D80006F001018B05D8A474EF0BF076EF0BF040
:1016E8007AEF0BF0624B632BD7EF08F0000E476ED2
:1016F800000E466EE0EC48F00001ED05D8A487EF37
:101708000BF089EF0BF0A5EF00F0000E4624D96E20
:10171800020E4720DA6E020EDF6E5D0E3F6EFE0E81
:10172800406EE6C041F0E7C042F0E8C043F0E9C0CF
:1017380044F024EC48F0E6EF0BF0E0EC48F046C04B
:1017480060F147C061F1475007E1C80E465CD8B068
:10175800B0EF0BF0B2EF0BF0D3EF0BF0820E0001FD
:10176800606F050E616FD8904634D96E4734DA6ED3
:10177800D890D936DA366051D9266151DA22E6C0D6
:10178800DEFFE7C0DEFFE8C0DEFFE9C0DEFF000ED7
:101798004624D96E020E4720DA6E030EDF6E000172
:1017A800ED05D8A4DAEF0BF0DCEF0BF0A5EF00F0B5
:1017B800170E3F6EFF0E406E46C041F047C042F024
:1017C80024EC48F0F29071C0F5FF70C0F8FF6FC0CC
:1017D800F7FF6EC0F6FF6DC0F4FF6CC0F3FF6BC07F
:1017E800DAFF6AC0D9FF69C0E2FF68C0E1FF4F9223
:1017F8001100B2EF42F0C9C072F0CAC073F0DC0E3B
:101808000001746FFF0E756F86EC44F00001725191
:101818007311D8A412EF0CF014EF0CF018EF0CF0C1
:101828008BEC3CF047EF13F0C9C072F0CAC073F0FC
:10183800D90E746FFF0E756F86EC44F0000172517B
:101848007311D8A42AEF0CF02CEF0CF096EF0CF0E3
:10185800ED2B040EED6533EF0CF035EF0CF036EFA1
:101868000CF0ED6BA80EB06FFE0EB16FEDC0B2F0CC
:10187800B36B09EC48F00001ED51D8A446EF0CF029
:1018880048EF0CF050EF0CF08A0EB06FFD0EB16F00
:1018980009EC48F00101846B0001ED05D8A457EF6D
:1018A8000CF059EF0CF05FEF0CF0880EB06FF80EEB
:1018B800B16F09EC48F0020E0001ED19D8A467EFEA
:1018C8000CF069EF0CF06FEF0CF09C0EB06FFC0E93
:1018D800B16F09EC48F0030E0001ED19D8A477EFB9
:1018E8000CF079EF0CF07FEF0CF02E0EB06FF90EC4
:1018F800B16F09EC48F0040E0001ED19D8A487EF88
:101908000CF089EF0CF047EF13F0FE0EB06FFB0EF2
:10191800B16F09EC48F0010E0101836F0001ED6B16
:1019280047EF13F0C9C072F0CAC073F0E60E746FC7
:10193800FF0E756F86EC44F0000172517311D8A444
:10194800A8EF0CF0AAEF0CF0F7EF0CF00101922BC6
:10195800020E9219D8A4B3EF0CF0B5EF0CF0B6EF65
:101968000CF0926B480E0001B06FFB0EB16F0101D5
:101978009251040DED0EF324D96E010EF420DA6EA7
:10198800DECFB2F0DECFB3F0DECFB4F0DECFB5F00D
:1019980009EC48F001019251D8A4D5EF0CF0D7EF2B
:1019A8000CF0E2EF0CF0300E0001B06FFB0EB16FDF
:1019B80009EC48F0060E7D6E820EAF6E01019205AD
:1019C800D8A4E9EF0CF0EBEF0CF047EF13F0C20EE0
:1019D8000001B06FFD0EB16F09EC48F07D6A440E4E
:1019E800AF6E47EF13F0C9C072F0CAC073F0E80ECB
:1019F800746FFF0E756F86EC44F00001725173111D
:101A0800D8A409EF0DF00BEF0DF02BEF0DF001014D
:101A18009251D8B412EF0DF014EF0DF01BEF0DF04A
:101A2800B00E0001B06FF70EB16F09EC48F0550E1B
:101A38000001B06FF50EB16F09EC48F0000E00011F
:101A4800876F010E866F6AEC2CF047EF13F0C9C060
:101A580072F0CAC073F0EA0E746FFF0E756F86ECF1
:101A680044F0000172517311D8A43DEF0DF03FEF1F
:101A78000DF05FEF0DF001019251D8B446EF0DF073
:101A880048EF0DF04FEF0DF0B00E0001B06FF70EFC
:101A9800B16F09EC48F0B20E0001B06FF50EB16FEE
:101AA80009EC48F0000E0001876F020E866F6AECA1
:101AB8002CF047EF13F0C9C072F0CAC073F0EC0EF7
:101AC800746FFF0E756F86EC44F00001725173114C
:101AD800D8A471EF0DF073EF0DF077EF0DF048EC2F
:101AE80013F047EF13F0C9C072F0CAC073F0EE0EDE
:101AF800746FFF0E756F86EC44F00001725173111C
:101B0800D8A489EF0DF08BEF0DF03DEF0EF0F29EAB
:101B1800520EB06FFC0EB16F09EC48F001EF0EF0F9
:101B2800760E0001B06FFF0EB16F09EC48F029EF97
:101B38000EF0190E0001B06FFD0EB16F4CC1B2F07E
:101B48004DC1B3F04EC1B4F04FC1B5F009EC48F047
:101B580029EF0EF0E30E0001B06FFA0EB16F4CC121
:101B6800B2F04DC1B3F04EC1B4F04FC1B5F009ECBD
:101B780048F029EF0EF0540E0001B06FF90EB16F66
:101B880009EC48F029EF0EF0760E0001B06FFA0E5E
:101B9800B16F09EC48F029EF0EF0DE0E0001B06FCE
:101BA800F80EB16F09EC48F029EF0EF06B0E00014A
:101BB800B06FFD0EB16F09EC48F029EF0EF0730E0F
:101BC8000001B06FFE0EB16F09EC48F029EF0EF07E
:101BD800FD0E0001B06FFA0EB16F09EC48F029EF65
:101BE8000EF0F90E0001B06FFA0EB16F9BC1B2F0A2
:101BF800B36B09EC48F029EF0EF001019B51000A84
:101C0800D8B494EF0DF0010AD8B49DEF0DF0030A93
:101C1800D8B4AEEF0DF0010AD8B4BFEF0DF0070A43
:101C2800D8B4C8EF0DF0010AD8B4D1EF0DF0030A0B
:101C3800D8B4DAEF0DF0010AD8B4E3EF0DF00F0ACB
:101C4800D8B4ECEF0DF0F5EF0DF0600E0001B06FB9
:101C5800FB0EB16F9AC1B2F0B36B09EC48F0C60E37
:101C68000001B06FFA0EB16F09EC48F0F28E47EF41
:101C780013F0C9C072F0CAC073F0F00E746FFF0E93
:101C8800756F86EC44F0000172517311D8A44FEFC0
:101C98000EF051EF0EF0D0EF0EF0F29E7B0EB06F0B
:101CA800FD0EB16F94C1B2F0B36B09EC48F0E90EC8
:101CB8000001B06FFB0EB16F93C1B2F0B36B09ECCA
:101CC80048F08A0E0001B06FFC0EB16F6EC1B2F021
:101CD8006FC1B3F009EC48F0010E0001E26F000E8D
:101CE800E36F000EE46F000EE56FE551E411E311B8
:101CF80009E1830EE25DD8A084EF0EF086EF0EF0C6
:101D080088EF0EF0B1EF0EF0BF0EB06FFF0EB16F9F
:101D1800E2C0B2F0E3C0B3F0E4C0B4F0E5C0B5F09F
:101D280009EC48F0B70E0001B06FFF0EB16F000E5E
:101D3800E225D96E050EE321DA6EDF50CB6FCB5169
:101D4800B26FB36B09EC48F0010E0001E227000EF8
:101D5800E323E423E52379EF0EF0C60EB06FFA0E05
:101D6800B16F09EC48F0080E0001B06FFD0EB16FBD
:101D78006CC1B2F06DC1B3F009EC48F0990E0001E6
:101D8800B06FFD0EB16F6AC1B2F06BC1B3F009EC70
:101D980048F0F28E47EF13F0C9C072F0CAC073F072
:101DA800F20E746FFF0E756F86EC44F000017251ED
:101DB8007311D8A4E2EF0EF0E4EF0EF055EF0FF038
:101DC800F29E000EE26F000EE36F000EE46F000E4D
:101DD800E56FE551E411E31109E1C80EE25DD8A011
:101DE800F8EF0EF0FAEF0EF0FCEF0EF052EF0FF0F6
:101DF800E2C0BBF0E3C0BCF0E4C0BDF0E5C0BEF09B
:101E0800DEEC33F0BF0E0001B06FFF0EB16FE2C021
:101E1800B2F0E3C0B3F0E4C0B4F0E5C0B5F009EC4B
:101E280048F0990E0001B06FFF0EB16F00C3B2F019
:101E3800B36B09EC48F0010E0001E225CB6F000EF0
:101E4800E321CC6F000EE421CD6F000EE521CE6FAB
:101E58000F0ECB15CF6F000ECC15D06F000ECD1521
:101E6800D16F000ECE15D26FCF51D011D111D21132
:101E7800D8A441EF0FF043EF0FF049EF0FF0C60E73
:101E8800B06FFA0EB16F09EC48F0010E0001E227BD
:101E9800000EE323E423E523EDEF0EF0F28E47EF87
:101EA80013F0C9C072F0CAC073F0BB0E746FFB0E9A
:101EB800756F86EC44F0000172517311D8A467EF76
:101EC8000FF069EF0FF0EFEF0FF0F29E000EE26FE8
:101ED800000EE36F000EE46F000EE56FE551E411AC
:101EE8000AE1E229030EE359D8A07DEF0FF07FEF56
:101EF8000FF081EF0FF0ECEF0FF0E2C072F0E3C0EB
:101F080073F031EC48F00101CA6F0F0E0001E215C1
:101F1800CB6F000EE315CC6F000EE415CD6F000EED
:101F2800E515CE6FCB51CC11CD11CE11D8A49FEFB2
:101F38000FF0A1EF0FF0AFEF0FF0C30EB06FFF0E71
:101F4800B16FE2C0B2F0E3C0B3F0E4C0B4F0E5C0F2
:101F5800B5F009EC48F0990E0001B06FFF0EB16FB3
:101F6800CAC1B2F0B36B09EC48F0010E0001E225DA
:101F7800CB6F000EE321CC6F000EE421CD6F000E75
:101F8800E521CE6F0F0ECB15CF6F000ECC15D06F9D
:101F9800000ECD15D16F000ECE15D26FCF51D011D6
:101FA800D111D211D8A4DBEF0FF0DDEF0FF0E3EF82
:101FB8000FF0C60EB06FFA0EB16F09EC48F0010EC3
:101FC8000001E227000EE323E423E52372EF0FF07C
:101FD800F28E47EF13F0C9C072F0CAC073F0F40E66
:101FE800746FFF0E756F86EC44F000017251731127
:101FF800D8A401EF10F003EF10F0B2EF10F00101D8
:10200800CF6BF29E780E0001B06FFC0EB16F09EC39
:1020180048F0000E0001E26F000EE36F000EE46F5F
:10202800000EE56F5AEF10F0E2C0BBF0E3C0BCF061
:10203800E4C0BDF0E5C0BEF0800EBF6FA6EC34F082
:10204800800E0001E225E26F000EE321E36F000E2F
:10205800E421E46F000EE521E56F000E0101CB6F6E
:10206800000ECC6F000ECD6F000ECE6FCE51CD118D
:10207800CC1109E1800ECB5DD8A045EF10F047EFF9
:1020880010F049EF10F05AEF10F0000ECB25D96E82
:10209800030ECC21DA6EDF50CF19CF6F010ECB279C
:1020A800000ECC23CD23CE233AEF10F00001E551EA
:1020B8000CE1E229FF0EE359010EE459D8A067EFBD
:1020C80010F069EF10F018EF10F0000EBB6F000E63
:1020D800BC6F000EBD6F000EBE6FDEEC33F0030167
:1020E80000510001E26FE36BE46BE56B030EE2194C
:1020F800E311E411E511D8B484EF10F086EF10F085
:102108008CEF10F0B40EB06FF80EB16F09EC48F018
:10211800170E0001B06FFB0EB16FCFC1B2F0B36BF9
:1021280009EC48F00101CF51D8A49DEF10F09FEFC2
:1021380010F0A8EF10F08F0E0001B06FFF0EB16F16
:1021480009EC48F0AFEF10F0DA0E0001B06FFE0EA8
:10215800B16F09EC48F0F28E47EF13F0C9C072F086
:10216800CAC073F0F60E746FFF0E756F86EC44F0FC
:10217800000172517311D8A4C4EF10F0C6EF10F02B
:10218800ABEF11F0000E0101D06F000ED16F000E01
:10219800D26F000ED36FF29E9AEF11F0D0C1BBF050
:1021A800D1C1BCF0D2C1BDF0D3C1BEF0800E0001D8
:1021B800BF6FA6EC34F0000E0001E26F000EE36F73
:1021C800000EE46F000EE56FE551E411E31109E13B
:1021D800800EE25DD8A0F3EF10F0F5EF10F0F7EF06
:1021E80010F08DEF11F00101D0510001E22501013D
:1021F800C66FD1510001E3210101C76FD25100011F
:10220800E4210101C86FD3510001E5210101C96F23
:102218000F0E0001E215CB6F000EE315CC6F000E18
:10222800E415CD6F000EE515CE6FCB51CC11CD1155
:10223800CE11D8A422EF11F024EF11F041EF11F0E4
:102248000101C6510001BB6F0101C7510001BC6FFC
:102258000101C8510001BD6F0101C9510001BE6FE4
:10226800BF6BC06BC16BC26B66EC47F0F30E00012D
:10227800B06FFE0EB16F09EC48F0BB0E0001B06FF5
:10228800FF0EB16F000EE225D96E030EE321DA6E60
:10229800DF50CB6FCB51B26FB36B09EC48F0010E36
:1022A8000001E225CB6F000EE321CC6F000EE42184
:1022B800CD6F000EE521CE6F0F0ECB15CF6F000E40
:1022C800CC15D06F000ECD15D16F000ECE15D26F84
:1022D800CF51D011D111D211D8A475EF11F077EFE9
:1022E80011F07DEF11F0C60EB06FFA0EB16F09EC68
:1022F80048F0E40E00D000D0E82EFCD700D000D083
:10230800010E0001E227000EE323E423E523E8EFB2
:1023180010F0800E0101D025D06F000ED121D16FB1
:10232800000ED221D26F000ED321D36FD3510CE10E
:10233800D029FF0ED159010ED259D8A0A6EF11F01D
:10234800A8EF11F0D2EF10F0F28E47EF13F0C9C0EA
:1023580072F0CAC073F0F80E746FFF0E756F86ECDA
:1023680044F0000172517311D8A4BDEF11F0BFEF12
:1023780011F02BEF13F0000EE26F000EE36F000E6A
:10238800E46F000EE56FE2C0CBF0E3C0CCF0D8906C
:10239800CB37CC37D890CB37CC37000ECB25726FE4
:1023A800010ECC21736F31EC48F00001CD6FCD5197
:1023B8000101D46FD56BD66BD76BD86BD96BDA6B41
:1023C800DB6BE2C0CBF0E3C0CCF00001D890CB3798
:1023D800CC37D890CB37CC37010ECB25726F010E96
:1023E800CC21736F31EC48F00001CD6FCDC0CEF039
:1023F800CF6BD06BD16BD0C0D1F0CFC0D0F0CEC0F6
:10240800CFF0CE6BCE51D26FCF51D36FD051D46FA6
:10241800D151D56FD66BD76BD86BD96B0101D4511D
:102428000001D2250101D46FD5510001D32101014A
:10243800D56FD6510001D4210101D66FD7510001C3
:10244800D5210101D76FD8510001D6210101D86FDC
:10245800D9510001D7210101D96FDA510001D821E2
:102468000101DA6FDB510001D9210101DB6FE2C004
:10247800CBF0E3C0CCF00001D890CB37CC37D89064
:10248800CB37CC37020ECB25726F010ECC21736F80
:1024980031EC48F00001CD6FCDC0CEF0CF6BD06BE2
:1024A800D16BCFC0D1F0CEC0D0F0CF6BCE6BCE51B8
:1024B800D26FCF51D36FD051D46FD151D56FD66B66
:1024C800D76BD86BD96B0101D4510001D22501011A
:1024D800D46FD5510001D3210101D56FD651000128
:1024E800D4210101D66FD7510001D5210101D76F41
:1024F800D8510001D6210101D86FD9510001D72147
:102508000101D96FDA510001D8210101DA6FDB51DD
:102518000001D9210101DB6FE2C0CBF0E3C0CCF0B0
:102528000001D890CB37CC37D890CB37CC37030EB7
:10253800CB25726F010ECC21736F31EC48F000018E
:10254800CD6FCDC0CEF0CF6BD06BD16BCEC0D1F0FC
:10255800D06BCF6BCE6BCE51D26FCF51D36FD051E2
:10256800D46FD151D56FD66BD76BD86BD96B0101AE
:10257800D4510001D2250101D46FD5510001D321D6
:102588000101D56FD6510001D4210101D66FD75171
:102598000001D5210101D76FD8510001D6210101D1
:1025A800D86FD9510001D7210101D96FDA51000143
:1025B800D8210101DA6FDB510001D9210101DB6F5C
:1025C800AE0E0001B06FFC0EB16F010EE225B26FC6
:1025D800000EE321B36F000EE421B46F000EE52175
:1025E800B56F09EC48F0D4C1BBF0D5C1BCF0D6C179
:1025F800BDF0D7C1BEF0D8C1BFF0D9C1C0F0DAC1B3
:10260800C1F0DBC1C2F066EC47F0C60E0001B06F46
:10261800FA0EB16F09EC48F0010E0001E227000E36
:10262800E323E423E523E551E411E31109E1140E62
:10263800E25DD8A022EF13F024EF13F0C7EF11F0FA
:10264800E207000EE35BE45BE55B47EF13F0C9C00C
:1026580072F0CAC073F0FC0E746FFF0E756F86ECD3
:1026680044F0000172517311D8A43DEF13F03FEF0D
:1026780013F041EF13F047EF13F0780EB06FFB0E35
:10268800B16F09EC48F01200F29E0101886B180E38
:102698000001B06FFE0EB16F60C1B2F061C1B3F05E
:1026A80009EC48F00001EC51D8A45DEF13F05FEF9E
:1026B80013F065EF13F03D0EB06FFC0EB16F09EC2F
:1026C80048F0020E0001EC19D8A46DEF13F06FEF7B
:1026D80013F075EF13F05B0EB06FFD0EB16F09ECE0
:1026E80048F0040E0001EC19D8A47DEF13F07FEF39
:1026F80013F085EF13F02A0EB06FFD0EB16F09ECE1
:1027080048F0030E0001EC19D8A48DEF13F08FEFF9
:1027180013F095EF13F0A60EB06FFB0EB16F09EC36
:1027280048F0050E0001EC19D8A49DEF13F09FEFB7
:1027380013F0A5EF13F0650EB06FFC0EB16F09EC46
:1027480048F00001EC05D8A4ACEF13F0AEEF13F09D
:10275800B4EF13F0130EB06FFC0EB16F09EC48F034
:10276800C60E0001B06FFA0EB16F09EC48F0010E09
:102778000001C26F010EC16FFF0EC225726F736B2D
:10278800FF0E7323000E756F160E746F7CEC40F00D
:102798000001C151160DF3CFBBF0F4CFBCF072515C
:1027A800BB25BD6F7351BC21BE6FEA0EBD25BF6F3F
:1027B800FF0EBE21C06FBFC0E2F0C0C0E3F0000E44
:1027C800E3BFFF0EE46FE56F010160510001BB6FCD
:1027D800010161510001BC6FBD6BBE6BE251BB5D75
:1027E800E351BC59E451BD59E551BE59D8A0FFEF9A
:1027F80013F001EF14F0FEEF17F0C70EB06FFF0EE5
:10280800B16FE2C0B2F0E3C0B3F0E4C0B4F0E5C029
:10281800B5F009EC48F07E0E0001BB6F050EBC6FE9
:10282800D890E235D96EE335DA6ED890D936DA36F3
:10283800BB51D926BC51DA22DECFC3F0DDCFC4F0BC
:10284800820EBB6F050EBC6FD890E235D96EE335AA
:10285800DA6ED890D936DA36BB51D926BC51DA228D
:10286800DECFE6F0DECFE7F0DECFE8F0DECFE9F04E
:10287800B20EB06FFF0EB16FE6C0B2F0E7C0B3F0B2
:10288800E8C0B4F0E9C0B5F009EC48F00001EC513B
:10289800D8A451EF14F053EF14F059EF14F0F20EDE
:1028A800B06FFE0EB16F09EC48F00001EC05D8A43A
:1028B80060EF14F062EF14F018EF15F0E951E81129
:1028C8000BE1A90EE65D8F0EE759D8A06EEF14F064
:1028D80070EF14F086EF14F0E951E81109E1780E71
:1028E800E65D970EE759D8B07CEF14F07EEF14F050
:1028F80086EF14F0E10EB06FFF0EB16F09EC48F0EF
:10290800F8EF14F0E951E8110BE1A70EE65D020EAD
:10291800E759D8A092EF14F094EF14F0AAEF14F04E
:10292800E951E81109E1D60EE65D040EE759D8B081
:10293800A0EF14F0A2EF14F0AAEF14F0D50EB06FC8
:10294800FF0EB16F09EC48F0F8EF14F0E951E81107
:102958000BE1930EE65D060EE759D8A0B6EF14F02A
:10296800B8EF14F0CEEF14F0E951E81109E1C20E06
:10297800E65D080EE759D8B0C4EF14F0C6EF14F0BE
:10298800CEEF14F0D80EB06FFF0EB16F09EC48F01F
:10299800F8EF14F0E951E8110BE18C0EE65D0A0E30
:1029A800E759D8A0DAEF14F0DCEF14F0F2EF14F0E6
:1029B800E951E81109E1BB0EE65D0C0EE759D8B004
:1029C800E8EF14F0EAEF14F0F2EF14F0DE0EB06F57
:1029D800FF0EB16F09EC48F0F8EF14F0DB0EB06FA2
:1029E800FF0EB16F09EC48F0000E0001E225D96E28
:1029F800020EE321DA6EDF50D8B405EF15F007EFC9
:102A080015F018EF15F05F0EB06FFF0EB16F000EE6
:102A1800E225D96E020EE321DA6EDF50BB6FBB519F
:102A2800B26FB36B09EC48F0020E0001EC19D8A4A0
:102A380020EF15F022EF15F0B4EF15F0E951E81189
:102A48000BE1130EE65D700EE759D8A02EEF15F0D6
:102A580030EF15F046EF15F0E951E81109E1E20E03
:102A6800E65D770EE759D8B03CEF15F03EEF15F06C
:102A780046EF15F0E10EB06FFF0EB16F09EC48F0AC
:102A880094EF15F0E951E8110BE1D70EE65D010E60
:102A9800E759D8A052EF15F054EF15F06AEF15F08A
:102AA800E951E81109E12A0EE65D030EE759D8B0AD
:102AB80060EF15F062EF15F06AEF15F0D50EB06F04
:102AC800FF0EB16F09EC48F094EF15F0E951E811E9
:102AD8000BE1570EE65D040EE759D8A076EF15F026
:102AE80078EF15F08EEF15F0E951E81109E1AA0E1B
:102AF800E65D050EE759D8B084EF15F086EF15F0BE
:102B08008EEF15F0D80EB06FFF0EB16F09EC48F0DC
:102B180094EF15F0DB0EB06FFF0EB16F09EC48F0C3
:102B2800000E0001E225D96E020EE321DA6EDF50B5
:102B3800D8B4A1EF15F0A3EF15F0B4EF15F05F0EC0
:102B4800B06FFF0EB16F000EE225D96E020EE321C1
:102B5800DA6EDF50BB6FBB51B26FB36B09EC48F054
:102B6800040E0001EC19D8A4BCEF15F0BEEF15F067
:102B780073EF16F0E951E8110BE1F50EE65D0F0E63
:102B8800E759D8A0CAEF15F0CCEF15F0E2EF15F031
:102B9800E951E81109E1C40EE65D170EE759D8B00E
:102BA800D8EF15F0DAEF15F0E2EF15F0E10EB06F9F
:102BB800FF0EB16F09EC48F053EF16F0E951E81138
:102BC8000BE14A0EE65D040EE759D8A0EEEF15F0CA
:102BD800F0EF15F005EF16F0E951E81108E1E60508
:102BE800060EE759D8B0FBEF15F0FDEF15F005EF2D
:102BF80016F0D50EB06FFF0EB16F09EC48F053EF29
:102C080016F0E951E8110BE15B0EE65D090EE75994
:102C1800D8A011EF16F013EF16F029EF16F0E951CE
:102C2800E81109E1120EE65D0B0EE759D8B01FEF67
:102C380016F021EF16F029EF16F0D80EB06FFF0E40
:102C4800B16F09EC48F053EF16F0E951E8110BE1C8
:102C5800A50EE65D240EE759D8A035EF16F037EF3C
:102C680016F04DEF16F0E951E81109E15C0EE65D4A
:102C7800260EE759D8B043EF16F045EF16F04DEFA2
:102C880016F0DE0EB06FFF0EB16F09EC48F053EF8F
:102C980016F0DB0EB06FFF0EB16F09EC48F0000EB6
:102CA8000001E225D96E020EE321DA6EDF50D8B4B6
:102CB80060EF16F062EF16F073EF16F05F0EB06F6C
:102CC800FF0EB16F000EE225D96E020EE321DA6E17
:102CD800DF50BB6FBB51B26FB36B09EC48F0030E0A
:102CE8000001EC19D8A47BEF16F07DEF16F067EF22
:102CF80017F0E951E8110BE1C30EE65D7E0EE759C6
:102D0800D8A089EF16F08BEF16F0A1EF16F0E95175
:102D1800E81109E10E0EE65D830EE759D8B097EF8A
:102D280016F099EF16F0A1EF16F0E10EB06FFF0E56
:102D3800B16F09EC48F047EF17F0E951E8110BE1E2
:102D48005B0EE65D1E0EE759D8A0ADEF16F0AFEFAB
:102D580016F0C5EF16F0E951E81109E14E0EE65DEF
:102D6800200EE759D8B0BBEF16F0BDEF16F0C5EF4F
:102D780016F0DE0EB06FFF0EB16F09EC48F047EFAA
:102D880017F0E2B1CAEF16F0CCEF16F03FEF17F0EC
:102D9800470EC35D050EC459D8A0D5EF16F0D7EF7E
:102DA80016F004EF17F03A0EC35D070EC459D8B0F9
:102DB800E0EF16F0E2EF16F004EF17F0E951E81132
:102DC8000BE1590EE65D020EE759D8A0EEEF16F0BA
:102DD800F0EF16F004EF17F0E951E81109E14C0E95
:102DE800E65D040EE759D8B0FCEF16F0FEEF16F0DA
:102DF80004EF17F0D80EB06FFF0EB16F09EC48F072
:102E0800590E0001C35D020EC459D8A00EEF17F089
:102E180010EF17F047EF17F04C0EC35D040EC459BE
:102E2800D8B019EF17F01BEF17F047EF17F0E9517B
:102E3800E8110BE1470EE65D050EE759D8A027EF2C
:102E480017F029EF17F047EF17F0E951E81109E1FA
:102E58003A0EE65D070EE759D8B035EF17F037EFB1
:102E680017F047EF17F0D50EB06FFF0EB16F09ECF2
:102E780048F047EF17F0F20EB06FFE0EB16F09EC95
:102E880048F047EF17F0000E0001E225D96E020E58
:102E9800E321DA6EDF50D8B454EF17F056EF17F08D
:102EA80067EF17F05F0EB06FFF0EB16F000EE225EF
:102EB800D96E020EE321DA6EDF50BB6FBB51B26FE1
:102EC800B36B09EC48F0050E0001EC19D8A46FEFBC
:102ED80017F071EF17F0F5EF17F0E951E8110BE172
:102EE8006B0EE65D180EE759D8A07DEF17F07FEF5F
:102EF80017F095EF17F0E951E81109E1B60EE65D14
:102F08001C0EE759D8B08BEF17F08DEF17F095EF3F
:102F180017F0E10EB06FFF0EB16F09EC48F0D5EF76
:102F280017F0E951E8110BE1AF0EE65D0B0EE7591A
:102F3800D8A0A1EF17F0A3EF17F0B9EF17F0E951F8
:102F4800E81109E1DA0EE65D0C0EE759D8B0AFEFEB
:102F580017F0B1EF17F0B9EF17F0DE0EB06FFF0EF4
:102F6800B16F09EC48F0D5EF17F0E951E81109E124
:102F78009C0EE65D040EE759D8B0C5EF17F0C7EF11
:102F880017F0CFEF17F0D50EB06FFF0EB16F09EC49
:102F980048F0D5EF17F0D80EB06FFF0EB16F09ECFF
:102FA80048F0000E0001E225D96E020EE321DA6E28
:102FB800DF50D8B4E2EF17F0E4EF17F0F5EF17F0B1
:102FC8005F0EB06FFF0EB16F000EE225D96E020ED4
:102FD800E321DA6EDF50BB6FBB51B26FB36B09EC04
:102FE80048F0D20E0001B06FFF0EB16F09EC48F047
:102FF80004EF18F0EC0EB06FFE0EB16F09EC48F05C
:103008000001C12B090EC1650CEF18F00EEF18F086
:10301800C0EF13F0C60EB06FFA0EB16F09EC48F0AE
:103028000001C22B160EC2651CEF18F01EEF18F037
:10303800BEEF13F0D9EC48F0F28E120017EC48F00E
:103048008096808A01019B6B0F015D6B5C6BD08E53
:10305800F19EF180F290F286F28EF294F28A5A8909
:10306800010E0101926F9251D8A43DEF18F03FEF85
:1030780018F043EF18F0060E7D6E820EAF6E9205C3
:10308800D8A449EF18F04BEF18F04EEF18F07D6A0E
:10309800440EAF6E920ED56EE90E0001766FF70EF4
:1030A800776FFCEC3CF0B50E0001766FFD0E776F84
:1030B800FCEC3CF0210E0001766FF80E776FFCEC0B
:1030C8003CF0B50E0001766FFD0E776FFCEC3CF01E
:1030D80082908BEC3CF08280010E0001E26F000EC2
:1030E800E36F000EE46F000EE56FE551E411E311A4
:1030F80009E10A0EE25DD8A084EF18F086EF18F017
:1031080088EF18F0ADEF18F0090E0101E66F1E0EFA
:10311800E56FE40EE82EFED7E52FFCD7E62FFAD7A9
:1031280000008290090E0101E66F1E0EE56FE40EA5
:10313800E82EFED7E52FFCD7E62FFAD700008280CD
:10314800010E0001E227000EE323E423E52379EFD3
:1031580018F0ED6B3CEC49F0F28E000E0001736F35
:10316800000E726F31EC48F00101E56FE551000186
:10317800E26FE36BE46BE56B210EE219E311E411F6
:10318800E511D8B4CAEF18F0CCEF18F0D2EF18F068
:10319800FA0EB06FF60EB16F09EC48F0000E0001A0
:1031A800BB6F000EBC6F000EBD6F000EBE6FDEEC75
:1031B80033F0030100510001E26FE36BE46BE56B50
:1031C800030EE219E311E411E511D8B4EEEF18F09B
:1031D800F0EF18F0F6EF18F0380EB06FF70EB16F89
:1031E80009EC48F0808681B4FCEF18F0FEEF18F087
:1031F80061EF19F0150E0101E56FC60EE82EFED736
:10320800E52FFCD70000010E01014827000E4923D5
:103218004A234B234B514A110BE1890E485D130E8B
:103228004959D8A01AEF19F01CEF19F061EF19F0FD
:103238008290000E486F000E496F000E4A6F000E14
:103248004B6F9B0E0001B06FF90EB16F09EC48F09F
:10325800010E01016D6F000E6C6F280E6C5D010E82
:103268006D59D8A03AEF19F03CEF19F03EEF19F07C
:103278004CEF19F06CC172F06DC173F0FF0E0001D4
:10328800746F82EC45F001016C4B6D2B31EF19F036
:10329800520E0101E66F2B0EE56F000EE82EFED7E9
:1032A800E52FFCD7E62FFAD70000828081A45FEFD4
:1032B80019F061EF19F05AEF19F001018A51D8B4E9
:1032C80068EF19F06BEF19F0010E6CEF19F0000EB2
:1032D800E56FE66B81B473EF19F076EF19F0010E24
:1032E80077EF19F0000EE517000EE6174B514A115B
:1032F800491107E1C90E485DD8B085EF19F088EF8C
:1033080019F0010E89EF19F0000EE517000EE61707
:103318004B514A110CE1E80E485D030E4959D8A0FB
:1033280098EF19F09BEF19F0010E9CEF19F0000EC1
:10333800E517000EE617E551E611D8B4A6EF19F027
:10334800A8EF19F0BFEF19F0500E406FC30E416F90
:10335800000E426F000E436F000E446F000E456F63
:10336800000E466F000E476FDF0E0001B06FF90EBA
:10337800B16F09EC48F0010140514111421143116C
:103388004411451146114711D8B4CDEF19F0CFEFCC
:1033980019F035EF1AF04007000E415B425B435BC2
:1033A800445B455B465B475B40C172F041C173F0CB
:1033B80042C174F043C175F044C176F045C177F05D
:1033C80046C178F047C179F0E80E00017A6F030E24
:1033D8007B6F000E7C6F000E7D6F000E7E6F000EFF
:1033E8007F6F000E806F000E816F6CEC3DF072C035
:1033F800E5F173C0E6F174C0E7F175C0E8F176C095
:10340800E9F177C0EAF178C0EBF179C0ECF101019C
:10341800E551E611E711E811E911EA11EB11EC1198
:10342800D8A419EF1AF01BEF1AF024EF1AF082A0B3
:1034380020EF1AF023EF1AF0828024EF1AF082901E
:1034480001014051411142114311441145114611E6
:103458004711D8A432EF1AF034EF1AF035EF1AF00A
:103468008280000E81B4010E8A6F81A43EEF1AF0AB
:1034780040EF1AF048EF1AF0000E486F000E496F3F
:10348800000E4A6F000E4B6F8E51D8A44EEF1AF003
:1034980050EF1AF052EF1AF029EC3BF00101885175
:1034A800D8B459EF1AF05BEF1AF05DEF1AF048EC58
:1034B80013F001018E51D8B464EF1AF066EF1AF0D8
:1034C800F7EF18F08E6BF29E020E0001ED19D8A4EA
:1034D80070EF1AF072EF1AF074EF1AF048EC13F06C
:1034E8000001EC05D8A47BEF1AF07DEF1AF0ACEFE1
:1034F8001AF0ED51D8B483EF1AF085EF1AF09EEF69
:103508001AF0DAC0BBF0DBC0BCF0DCC0BDF0DDC037
:10351800BEF0DEC0BFF0DFC0C0F0E0C0C1F0E1C067
:10352800C2F0B1EC3AF0F30E0001B06FFE0EB16FCD
:1035380009EC48F077EC1BF00009D8B4A6EF1AF0B4
:10354800A8EF1AF0ACEF1AF025EC2FF0C3EC1EF040
:10355800020E0001EC19D8A4B4EF1AF0B6EF1AF075
:10356800E0EF1AF0DAC038F1DBC039F1DCC03AF12B
:10357800DDC03BF1DEC03CF1DFC03DF1E0C03EF113
:10358800E1C03FF1C00EB06FFC0EB16F09EC48F01E
:10359800DAC0BBF0DBC0BCF0DCC0BDF0DDC0BEF003
:1035A800DEC0BFF0DFC0C0F0E0C0C1F0E1C0C2F0D3
:1035B80066EC47F0C3EC1EF0040E0001EC19D8A429
:1035C800E8EF1AF0EAEF1AF00FEF1BF0E4EC24F042
:1035D800E806D8A4F2EF1AF0F4EF1AF00FEF1BF098
:1035E800D20E0001B06FFC0EB16F09EC48F038C183
:1035F800BBF039C1BCF03AC1BDF03BC1BEF03CC123
:10360800BFF03DC1C0F03EC1C1F03FC1C2F066ECA1
:1036180047F0C3EC1EF0030E0001EC19D8A417EF15
:103628001BF019EF1BF04FEF1BF064EC35F0E40EC4
:103638000001B06FFC0EB16F09EC48F038C1BBF067
:1036480039C1BCF03AC1BDF03BC1BEF03CC1BFF0CE
:103658003DC1C0F03EC1C1F03FC1C2F066EC47F0C9
:10366800AD0E0001B06FFF0EB16F38C1B2F039C1B5
:10367800B3F03AC1B4F03BC1B5F009EC48F07E0EA6
:103688000001B06FFE0EB16F91C1B2F0B36B09ECDF
:1036980048F0C3EC1EF0050E0001EC19D8A457EF52
:1036A8001BF059EF1BF061EF1BF0F50EB06FFE0E2B
:1036B800B16F09EC48F0FBEC42F0000E476E000ECB
:1036C800466E520E0101E66F2B0EE56F000EE82ED6
:1036D800FED7E52FFCD7E62FFAD70000F28EF7EFDA
:1036E80018F0FDEF0BF0DAC0BBF0DBC0BCF0DCC0BB
:1036F800BDF0DDC0BEF0DEC0BFF0DFC0C0F0E0C08E
:10370800C1F0E1C0C2F0040ED8900001BB37BC374D
:10371800BD37BE37BF37C037C137C237E82E88EF4D
:103728001BF0BBC0C5F0BCC0C6F0BDC0C7F0BEC072
:10373800C8F0BFC0C9F0C0C0CAF0C1C0CBF0C2C099
:10374800CCF020EEC5F0F00EDE18C56FFF0EDE18C7
:10375800C66FFF0EDE18C76FFF0EDE18C86FFF0EAC
:10376800DE18C96FFF0EDE18CA6FFF0EDE18CB6FAA
:10377800000EDE18CC6FC5C0BBF0C6C0BCF0C7C019
:10378800BDF0C8C0BEF0C9C0BFF0CAC0C0F0CBC051
:10379800C1F0CCC0C2F0310EDBEF1BF0D890C233C1
:1037A800C133C033BF33BE33BD33BC33BB33E82E64
:1037B800D2EF1BF0BBC0CDF0BCC0CEF0BDC0CFF087
:1037C800BEC0D0F0BFC0D1F0C0C0D2F0C1C0D3F0ED
:1037D800C2C0D4F0CD39F00BF00B4D6E040EBB6FA8
:1037E800CDC0BCF0CEC0BDF0CFC0BEF0D0C0BFF0E1
:1037F800D1C0C0F0D2C0C1F0D3C0C2F0D4C0C3F0B1
:10380800BB6709EF1CF015EF1CF0C335C333C23397
:10381800C133C033BF33BE33BD33BC33BB2F04EF1A
:103828001CF00001BC510F0B4E6EC5C0BBF0C6C0EA
:10383800BCF0C7C0BDF0C8C0BEF0C9C0BFF0CAC0A8
:10384800C0F0CBC0C1F0CCC0C2F0290E35EF1CF0DF
:10385800D890C233C133C033BF33BE33BD33BC335A
:10386800BB33E82E2CEF1CF0BBC0CDF0BCC0CEF0B3
:10387800BDC0CFF0BEC0D0F0BFC0D1F0C0C0D2F044
:10388800C1C0D3F0C2C0D4F0040EBB6FCDC0BCF031
:10389800CEC0BDF0CFC0BEF0D0C0BFF0D1C0C0F028
:1038A800D2C0C1F0D3C0C2F0D4C0C3F0BB675FEFD1
:1038B8001CF06BEF1CF0C335C333C233C133C033C4
:1038C800BF33BE33BD33BC33BB2F5AEF1CF00001EE
:1038D800BC510F0B4D104D6ECD39F00BF00B4C6EEB
:1038E800C5C0BBF0C6C0BCF0C7C0BDF0C8C0BEF004
:1038F800C9C0BFF0CAC0C0F0CBC0C1F0CCC0C2F0D4
:10390800210E90EF1CF0D890C233C133C033BF33BF
:10391800BE33BD33BC33BB33E82E87EF1CF0BBC0CE
:10392800CDF0BCC0CEF0BDC0CFF0BEC0D0F0BFC09F
:10393800D1F0C0C0D2F0C1C0D3F0C2C0D4F0040EE0
:10394800BB6FCDC0BCF0CEC0BDF0CFC0BEF0D0C004
:10395800BFF0D1C0C0F0D2C0C1F0D3C0C2F0D4C053
:10396800C3F0BB67BAEF1CF0C6EF1CF0C335C33316
:10397800C233C133C033BF33BE33BD33BC33BB2FB7
:10398800B5EF1CF00001BC510F0B4C104C6ECD393B
:10399800F00BF00B4B6EC5C0BBF0C6C0BCF0C7C087
:1039A800BDF0C8C0BEF0C9C0BFF0CAC0C0F0CBC02F
:1039B800C1F0CCC0C2F0190EEBEF1CF0D890C233A6
:1039C800C133C033BF33BE33BD33BC33BB33E82E42
:1039D800E2EF1CF0BBC0CDF0BCC0CEF0BDC0CFF054
:1039E800BEC0D0F0BFC0D1F0C0C0D2F0C1C0D3F0CB
:1039F800C2C0D4F0040EBB6FCDC0BCF0CEC0BDF0C9
:103A0800CFC0BEF0D0C0BFF0D1C0C0F0D2C0C1F0AE
:103A1800D3C0C2F0D4C0C3F0BB6715EF1DF021EFCF
:103A28001DF0C335C333C233C133C033BF33BE33D4
:103A3800BD33BC33BB2F10EF1DF00001BC510F0B81
:103A48004B104B6ECD39F00BF00B4A6EC5C0BBF076
:103A5800C6C0BCF0C7C0BDF0C8C0BEF0C9C0BFF08A
:103A6800CAC0C0F0CBC0C1F0CCC0C2F0110E46EF46
:103A78001DF0D890C233C133C033BF33BE33BD331A
:103A8800BC33BB33E82E3DEF1DF0BBC0CDF0BCC04E
:103A9800CEF0BDC0CFF0BEC0D0F0BFC0D1F0C0C026
:103AA800D2F0C1C0D3F0C2C0D4F0040EBB6FCDC0F9
:103AB800BCF0CEC0BDF0CFC0BEF0D0C0BFF0D1C00A
:103AC800C0F0D2C0C1F0D3C0C2F0D4C0C3F0BB674D
:103AD80070EF1DF07CEF1DF0C335C333C233C13323
:103AE800C033BF33BE33BD33BC33BB2F6BEF1DF0C8
:103AF8000001BC510F0B4A104A6ECD39F00BF00B88
:103B0800496EC5C0BBF0C6C0BCF0C7C0BDF0C8C0D8
:103B1800BEF0C9C0BFF0CAC0C0F0CBC0C1F0CCC0B5
:103B2800C2F0BCC0BBF0BDC0BCF0BEC0BDF0BFC0E1
:103B3800BEF0C0C0BFF0C1C0C0F0C2C0C1F0C26B0F
:103B4800BBC0CDF0BCC0CEF0BDC0CFF0BEC0D0F081
:103B5800BFC0D1F0C0C0D2F0C1C0D3F0C2C0D4F051
:103B6800040EBB6FCDC0BCF0CEC0BDF0CFC0BEF060
:103B7800D0C0BFF0D1C0C0F0D2C0C1F0D3C0C2F035
:103B8800D4C0C3F0BB67CBEF1DF0D7EF1DF0C33532
:103B9800C333C233C133C033BF33BE33BD33BC3389
:103BA800BB2FC6EF1DF00001BC510F0B4910496E29
:103BB800CD39F00BF00B486EC5C0CDF0C6C0CEF0C5
:103BC800C7C0CFF0C8C0D0F0C9C0D1F0CAC0D2F0C9
:103BD800CBC0D3F0CCC0D4F0040EBB6FCDC0BCF0CA
:103BE800CEC0BDF0CFC0BEF0D0C0BFF0D1C0C0F0D5
:103BF800D2C0C1F0D3C0C2F0D4C0C3F0BB6707EFD6
:103C08001EF013EF1EF0C335C333C233C133C033C4
:103C1800BF33BE33BD33BC33BB2F02EF1EF00001F0
:103C2800BC510F0B4810486ED4EC45F00001C46F2E
:103C3800ED51D8B422EF1EF024EF1EF0C0EF1EF0B5
:103C4800C451D8B42AEF1EF02CEF1EF034EF1EF04A
:103C5800940EB06FFF0EB16F09EC48F03AEF1EF00A
:103C68009E0EB06FFF0EB16F09EC48F02D0E0001EB
:103C7800B06FFE0EB16F4EC0B2F0B36B09EC48F0F6
:103C8800E40E0001B06FFF0EB16F09EC48F02D0E85
:103C98000001B06FFE0EB16F4DC0B2F0B36B09EC0E
:103CA80048F0E40E0001B06FFF0EB16F09EC48F068
:103CB8002D0E0001B06FFE0EB16F4CC0B2F0B36BA9
:103CC80009EC48F0E40E0001B06FFF0EB16F09EC8B
:103CD80048F02D0E0001B06FFE0EB16F4BC0B2F070
:103CE800B36B09EC48F0E40E0001B06FFF0EB16F42
:103CF80009EC48F02D0E0001B06FFE0EB16F4AC0FE
:103D0800B2F0B36B09EC48F0E40E0001B06FFF0E9F
:103D1800B16F09EC48F02D0E0001B06FFE0EB16FC7
:103D280049C0B2F0B36B09EC48F0E40E0001B06F83
:103D3800FF0EB16F09EC48F02D0E0001B06FFE0EBA
:103D4800B16F48C0B2F0B36B09EC48F0CF0E000178
:103D5800B06FFF0EB16F09EC48F00001C451D8A450
:103D6800B8EF1EF0BAEF1EF0C0EF1EF0C60EB06F2F
:103D7800FA0EB16F09EC48F00001C451120038C1C5
:103D880074F039C175F03AC176F03BC177F04AEC6E
:103D980030F00001D66FA30EB06FFF0EB16FD6C022
:103DA800B2F0B36B09EC48F00001D651D8B4DFEF9C
:103DB8001EF0E1EF1EF044EF1FF0010E0101856FC8
:103DC8000001EC05D8B4EBEF1EF0EDEF1EF0F6EFB6
:103DD8001EF0040EEC19D8A4F4EF1EF0F6EF1EF056
:103DE8001AEF1FF0D651020D000EF324D96E010E02
:103DF800F420DA6E01016851DE5C6951DE58D8A002
:103E080008EF1FF00BEF1FF0010E0CEF1FF0000E74
:103E1800856F0001D651020D000EF324D96E010EF4
:103E2800F420DA6E68C1DEFF69C1DDFF010185514A
:103E3800D8B421EF1FF023EF1FF03DEF1FF0CB0E9A
:103E48000001B06FFF0EB16F09EC48F0809A8290C4
:103E5800520E0001C86F2B0EC76F000EE82EFED75A
:103E6800C72FFCD7C82FFAD70000808A828044EF7A
:103E78001FF0280E0001B06FFC0EB16F09EC48F07E
:103E8800C60E0001B06FFA0EB16F09EC48F00101DF
:103E98004051411142114311441145114611471136
:103EA800D8B459EF1FF05BEF1FF0D8EF21F021EEE7
:103EB80040F0070EDE6AE806FDE20001D651D8A4FC
:103EC80068EF1FF06AEF1FF0CFEF21F0000EE26FEE
:103ED800000EE36F000EE46F000EE56FE2C0C7F05E
:103EE800E3C0C8F0D890C737C837D890C737C837A5
:103EF800000EC725726F010EC821736F31EC48F0B0
:103F08000001C96FC951D26FD36BD46BD56BE2C0B6
:103F1800C7F0E3C0C8F0D890C737C837D890C737BC
:103F2800C837010EC725726F010EC821736F31ECB7
:103F380048F00001C96FC9C0CAF0CB6BCC6BCD6B20
:103F4800CCC0CDF0CBC0CCF0CAC0CBF0CA6BD2513C
:103F5800CA25D26FD351CB21D36FD451CC21D46F82
:103F6800D551CD21D56FE2C0C7F0E3C0C8F0D890D5
:103F7800C737C837D890C737C837020EC725726FFA
:103F8800010EC821736F31EC48F00001C96FC9C038
:103F9800CAF0CB6BCC6BCD6BCBC0CDF0CAC0CCF02C
:103FA800CB6BCA6BD251CA25D26FD351CB21D36FF9
:103FB800D451CC21D46FD551CD21D56FE2C0C7F0F3
:103FC800E3C0C8F0D890C737C837D890C737C837C4
:103FD800030EC725726F010EC821736F31EC48F0CC
:103FE8000001C96FC9C0CAF0CB6BCC6BCD6BCAC01E
:103FF800CDF0CC6BCB6BCA6BD251CA25D26FD351E3
:10400800CB21D36FD451CC21D46FD551CD21D56FCD
:10401800010EE227000EE323E423E523D2290CE175
:10402800D3290AE1D42908E1D529D8B41EEF20F014
:1040380020EF20F02DEF20F0E551E411E31109E124
:10404800140EE25DD8A02BEF20F02DEF20F072EFD8
:104058001FF0E207000EE35BE45BE55BE551E4116A
:10406800E31109E1150EE25DD8A03DEF20F03FEF26
:1040780020F047EF20F03B0EB06FFD0EB16F09EC5A
:1040880048F0D8EF21F0E2C0C7F0E3C0C8F0D890FC
:10409800C737C837D890C737C837000EC725726FDB
:1040A800010EC821736F38C174F082EC45F0E2C08C
:1040B800C7F0E3C0C8F00001D890C737C837D89018
:1040C800C737C837010EC725726F010EC821736F35
:1040D80038C1C9F039C1CAF03AC1CBF03BC1CCF004
:1040E8003CC1CDF03DC1CEF03EC1CFF03FC1D0F0D4
:1040F800CAC0C9F0CBC0CAF0CCC0CBF0CDC0CCF0A0
:10410800CEC0CDF0CFC0CEF0D0C0CFF0D06BC9516B
:10411800746F82EC45F0E2C0C7F0E3C0C8F000015C
:10412800D890C737C837D890C737C837020EC725C1
:10413800726F010EC821736F38C1C9F039C1CAF056
:104148003AC1CBF03BC1CCF03CC1CDF03DC1CEF083
:104158003EC1CFF03FC1D0F0110EBCEF20F0D89097
:10416800D033CF33CE33CD33CC33CB33CA33C9334B
:10417800E82EB3EF20F0C951746F82EC45F00001CE
:10418800EC05D8A4CAEF20F0CCEF20F007EF21F01F
:10419800E2C0C7F0E3C0C8F0D890C737C837D89096
:1041A800C737C837030EC725726F010EC821736F52
:1041B80091C1C9F0C93BF00EC91738C1CAF039C15D
:1041C800CBF03AC1CCF03BC1CDF03CC1CEF03DC103
:1041D800CFF03EC1D0F03FC1D1F0190EFDEF20F075
:1041E800D890D133D033CF33CE33CD33CC33CB3358
:1041F800CA33E82EF4EF20F0CA51C911746F82EC6B
:1042080045F045EF21F0030EEC19D8A40EEF21F08C
:1042180010EF21F012EF21F0CCEF20F0E2C0C7F050
:10422800E3C0C8F0D890C737C837D890C737C83761
:10423800030EC725726F010EC821736F38C1C9F00C
:1042480039C1CAF03AC1CBF03BC1CCF03CC1CDF08A
:104258003DC1CEF03EC1CFF03FC1D0F0190E3EEFC8
:1042680021F0D890D033CF33CE33CD33CC33CB33CA
:10427800CA33C933E82E35EF21F0C951746F82EC87
:1042880045F0A70E0001B06FFD0EB16F09EC48F0C4
:1042980038C1BBF039C1BCF03AC1BDF03BC1BEF07A
:1042A8003CC1BFF03DC1C0F03EC1C1F03FC1C2F04A
:1042B80066EC47F03C0E0001B06FFE0EB16F09ECE2
:1042C80048F0000E0001E26F000EE36F000EE46F8D
:1042D800000EE56FE551E411E31109E10A0EE25D14
:1042E800D8A079EF21F07BEF21F07DEF21F0A0EF4E
:1042F80021F0050E0001C86F0F0EC76FF10EE82EF2
:10430800FED7C72FFCD7C82FFAD78290050E000119
:10431800C86F0F0EC76FF10EE82EFED7C72FFCD758
:10432800C82FFAD78280010E0001E227000EE3238E
:10433800E423E5236EEF21F038C174F039C175F03C
:104348003AC176F03BC177F04AEC30F00001D66F05
:10435800D651D8B4B2EF21F0B4EF21F0C0EF21F07C
:10436800D651020D000EF324D96E010EF420DA6E38
:1043780068C1DEFF69C1DDFF520E0001C86F2B0E58
:10438800C76F000EE82EFED7C72FFCD7C82FFAD765
:104398000000D8EF21F08280930EB06FFA0EB16F53
:1043A80009EC48F0C0EF21F01200D89000017235F6
:1043B8007A6F73357B6F74357C6F75357D6F7635A5
:1043C8007E6F77357F6F7835806F7935816FAA0E6C
:1043D8007A15826FAA0E7B15836FAA0E7C15846FDF
:1043E800AA0E7D15856FAA0E7E15866FAA0E7F15FB
:1043F800876FAA0E8015886FAA0E8115896F72C003
:104408008AF073C08BF074C08CF075C08DF076C0E4
:104418008EF077C08FF078C090F079C091F0D89086
:10442800913390338F338E338D338C338B338A3380
:10443800550E8A15926F550E8B15936F550E8C1568
:10444800946F550E8D15956F550E8E15966F550EEA
:104458008F15976F550E9015986F550E9115996F8A
:1044680082519211726F83519311736F8451941119
:10447800746F85519511756F86519611766F8751B6
:104488009711776F88519811786F89519911796FC1
:1044980072C07AF073C07BF074C07CF075C07DF098
:1044A80076C07EF077C07FF078C080F079C081F068
:1044B800020ED8907A377B377C377D377E377F3747
:1044C80080378137E82E5DEF22F0CC0E7A15826FA7
:1044D800CC0E7B15836FCC0E7C15846FCC0E7D15AE
:1044E800856FCC0E7E15866FCC0E7F15876FCC0E30
:1044F8008015886FCC0E8115896F72C08AF073C0E1
:104508008BF074C08CF075C08DF076C08EF077C0DB
:104518008FF078C090F079C091F0030E9DEF22F0F3
:10452800D890913390338F338E338D338C338B33D4
:104538008A33E82E94EF22F0330E8A15926F330EE9
:104548008B15936F330E8C15946F330E8D15956FF5
:10455800330E8E15966F330E8F15976F330E901599
:10456800986F330E9115996F82519211726F835122
:104578009311736F84519411746F85519511756FF0
:1045880086519611766F87519711776F88519811D8
:10459800786F89519911796F72C07AF073C07BF086
:1045A80074C07CF075C07DF076C07EF077C07FF077
:1045B80078C080F079C081F0040ED8907A377B37C4
:1045C8007C377D377E377F3780378137E82EE1EFBC
:1045D80022F0F00E7A15826FF00E7B15836FF00EC5
:1045E8007C15846FF00E7D15856FF00E7E15866F35
:1045F800F00E7F15876FF00E8015886FF00E81150D
:10460800896F72C08AF073C08BF074C08CF075C06B
:104618008DF076C08EF077C08FF078C090F079C0BA
:1046280091F0050E21EF23F0D890913390338F331A
:104638008E338D338C338B338A33E82E18EF23F087
:104648000F0E8A15926F0F0E8B15936F0F0E8C1528
:10465800946F0F0E8D15956F0F0E8E15966F0F0EAA
:104668008F15976F0F0E9015986F0F0E9115996F04
:1046780082519211726F83519311736F8451941107
:10468800746F85519511756F86519611766F8751A4
:104698009711776F88519811786F89519911796FAF
:1046A80072C07BF073C07CF074C07DF075C07EF082
:1046B80076C07FF077C080F078C081F07A6B000E0A
:1046C8007A15826FFF0E7B15836F000E7C15846F41
:1046D800FF0E7D15856F000E7E15866FFF0E7F1508
:1046E800876F000E8015886FFF0E8115896F72C065
:1046F8008AF073C08BF074C08CF075C08DF076C0F2
:104708008EF077C08FF078C090F079C091F08BC0B0
:104718008AF08CC08BF08DC08CF08EC08DF08FC06D
:104728008EF090C08FF091C090F0916BFF0E8A15BB
:10473800926F000E8B15936FFF0E8C15946F000E01
:104748008D15956FFF0E8E15966F000E8F15976F4E
:10475800FF0E9015986F000E9115996F8251921166
:10476800726F83519311736F84519411746F8551D3
:104778009511756F86519611766F87519711776FDE
:1047880088519811786F89519911796F72C07AF0B0
:1047980073C07BF074C07CF075C07DF076C07EF08D
:1047A80077C07FF078C080F079C081F07FC081F059
:1047B8007EC080F07DC07FF07CC07EF07BC07DF045
:1047C8007AC07CF07B6B7A6B000E7A15826F000ED4
:1047D8007B15836FFF0E7C15846FFF0E7D15856F2B
:1047E800000E7E15866F000E7F15876FFF0E8015F1
:1047F800886FFF0E8115896F72C08AF073C08BF0C5
:1048080074C08CF075C08DF076C08EF077C08FF0D4
:1048180078C090F079C091F0110E1CEF24F0D89078
:10482800913390338F338E338D338C338B338A337C
:10483800E82E13EF24F0FF0E8A15926FFF0E8B15EA
:10484800936F000E8C15946F000E8D15956FFF0EEB
:104858008E15966FFF0E8F15976F000E9015986F37
:10486800000E9115996F82519211726F83519311B5
:10487800736F84519411746F85519511756F8651BA
:104888009611766F87519711776F88519811786FC5
:1048980089519911796F72C07AF073C07BF074C036
:1048A8007CF075C07DF076C07EF077C07FF078C070
:1048B80080F079C081F0200ED8907A377B377C372A
:1048C8007D377E377F3780378137E82E60EF24F0D9
:1048D800000E7A15826F000E7B15836F000E7C1513
:1048E800846F000E7D15856FFF0E7E15866FFF0E97
:1048F8007F15876FFF0E8015886FFF0E8115896FF2
:1049080072C08AF073C08BF074C08CF075C08DF0E3
:1049180076C08EF077C08FF078C090F079C091F0B3
:10492800210EA0EF24F0D890913390338F338E333B
:104938008D338C338B338A33E82E97EF24F0FF0EB8
:104948008A15926FFF0E8B15936FFF0E8C15946F5F
:10495800FF0E8D15956F000E8E15966F000E8F1534
:10496800976F000E9015986F000E9115996F8251F0
:104978009211726F83519311736F84519411746FF4
:1049880085519511756F86519611766F87519711DC
:10499800776F88519811786F89519911796F72C022
:1049A80072F073C073F074C074F075C075F076C09F
:1049B80076F077C077F078C078F079C079F0120097
:1049C8000001ED05D8A4EBEF24F0EDEF24F006EF9D
:1049D80025F0DAC0BBF0DBC0BCF0DCC0BDF0DDC048
:1049E800BEF0DEC0BFF0DFC0C0F0E0C0C1F0E1C083
:1049F800C2F0B1EC3AF0C60E0001B06FFA0EB16F1A
:104A080009EC48F0E0C04EF0DFC04DF0DAC0C6F166
:104A1800DBC0C7F1DCC0C8F1DDC0C9F1DEC0CAF136
:104A2800DFC0CBF1E0C0CCF1E1C0CDF1210E27EF22
:104A380025F00101D890CD33CC33CB33CA33C933F9
:104A4800C833C733C633E82E1DEF25F0C6514C6E68
:104A5800DAC0C6F1DBC0C7F1DCC0C8F1DDC0C9F1FE
:104A6800DEC0CAF1DFC0CBF1E0C0CCF1E1C0CDF1CE
:104A7800190E48EF25F0D890CD33CC33CB33CA3359
:104A8800C933C833C733C633E82E3FEF25F0C651C4
:104A98004B6EDAC0C6F1DBC0C7F1DCC0C8F1DDC0BF
:104AA800C9F1DEC0CAF1DFC0CBF1E0C0CCF1E1C092
:104AB800CDF1110E69EF25F0D890CD33CC33CB333F
:104AC800CA33C933C833C733C633E82E60EF25F07D
:104AD800C6514A6EDAC0C6F1DBC0C7F1DCC0C8F106
:104AE800DDC0C9F1DEC0CAF1DFC0CBF1E0C0CCF156
:104AF800E1C0CDF1C7C1C6F1C8C1C7F1C9C1C8F18C
:104B0800CAC1C9F1CBC1CAF1CCC1CBF1CDC1CCF17D
:104B1800CD6BC651496EDAC048F048504918486E06
:104B280049504A18496E4A504B184A6E4B504C1817
:104B38004B6E4C504D184C6E4D504E184D6E00013A
:104B4800ED05D8A4AAEF25F0ACEF25F0F8EF25F095
:104B5800DC0EB06FFD0EB16F09EC48F01F0E0001BE
:104B6800B06FFF0EB16F4EC0B2F0B36B09EC48F0F6
:104B7800270E0001B06FFF0EB16F4DC0B2F0B36BDE
:104B880009EC48F02F0E0001B06FFF0EB16F4CC05A
:104B9800B2F0B36B09EC48F0370E0001B06FFF0EAE
:104BA800B16F4BC0B2F0B36B09EC48F03F0E000197
:104BB800B06FFF0EB16F4AC0B2F0B36B09EC48F0AA
:104BC800470E0001B06FFF0EB16F49C0B2F0B36B72
:104BD80009EC48F04F0E0001B06FFF0EB16F48C0EE
:104BE800B2F0B36B09EC48F04E380F0B4E180001C9
:104BF800D36F4D380F0BD3194D18D36F4C380F0B9B
:104C0800D3194C18D36F4B380F0BD3194B18D36FDC
:104C18004A380F0BD3194A18D36F49380F0BD319D9
:104C28004918D36F48380F0BD3194818D36FD3518D
:104C38000F0BD36F4D380F0B0F0B0101916F4C50B9
:104C4800C76FC66B4B50C625686F000EC721696FCA
:104C58004AC0C6F1C76BC86BC96BCA6BCB6BCC6B50
:104C6800CD6BCBC1CDF1CAC1CCF1C9C1CBF1C8C1A3
:104C7800CAF1C7C1C9F1C6C1C8F1C76BC66BC6C105
:104C880038F1C7C139F1C8C13AF1C9C13BF1CAC14C
:104C98003CF1CBC13DF1CCC13EF1CDC13FF149C0A2
:104CA800C6F1C76BC86BC96BCA6BCB6BCC6BCD6BD2
:104CB800CCC1CDF1CBC1CCF1CAC1CBF1C9C1CAF1CC
:104CC800C8C1C9F1C7C1C8F1C6C1C7F1C66B38515F
:104CD800C611386F3951C711396F3A51C8113A6F37
:104CE8003B51C9113B6F3C51CA113C6F3D51CB112F
:104CF8003D6F3E51CC113E6F3F51CD113F6F485033
:104D08003825386F000E3921396F000E3A213A6F75
:104D1800000E3B213B6F000E3C213C6F000E3D21F5
:104D28003D6F000E3E213E6F000E3F213F6F000198
:104D3800ED05D8A4A2EF26F0A4EF26F03AEF27F06D
:104D4800240EB06FFE0EB16FD3C0B2F0B36B09EC96
:104D580048F00001D351D8B4B4EF26F0B6EF26F0EE
:104D6800BCEF26F0670EB06FFF0EB16F09EC48F08C
:104D7800C60E0001B06FFA0EB16F09EC48F0300EA4
:104D88000001B06FFE0EB16F4EC0B2F0B36B09EC0C
:104D980048F04E50F00BA00AD8B4D5EF26F0D7EF64
:104DA80026F0DEEF26F0940E0001B06FFE0EB16F14
:104DB80009EC48F0C60E0001B06FFA0EB16F09ECAD
:104DC80048F04B0E0001B06FFD0EB16F4EC0C6F13A
:104DD8000F0E0101C617C6510001B26FB36B09EC83
:104DE80048F0F40E0001B06FFD0EB16F91C1B2F042
:104DF800B36B09EC48F0E30E0001B06FFE0EB16F23
:104E08004DC0C6F10F0E0101C617C6510001B26FA1
:104E1800B36B09EC48F0000E0001B06FFE0EB16FE5
:104E280068C1B2F069C1B3F009EC48F0D00E0001D6
:104E3800B06FFE0EB16F09EC48F038C1BBF039C154
:104E4800BCF03AC1BDF03BC1BEF03CC1BFF03DC1B2
:104E5800C0F03EC1C1F03FC1C2F066EC47F0C60EDB
:104E68000001B06FFA0EB16F09EC48F00001D351A0
:104E7800D8B441EF27F044EF27F0010E45EF27F0B3
:104E8800000E120000019E51D96EDA6ADECFF6FFDD
:104E9800DDCFF7FFF86A0800F550250AD8A457EFC8
:104EA80027F059EF27F0FEEF28F09E51D96EDA6A05
:104EB800DE2A000EDD22000E0101596F000E586F28
:104EC80058C1EAF05A695B690001A26B89EF27F0C3
:104ED800EA839E51D96EDA6ADE2A000EDD2289EF56
:104EE80027F0010EA26F89EF27F09E51D96EDA6A7A
:104EF800DECFF6FFDDCFF7FFF86A0800F550300A7D
:104F0800D8B46CEF27F075EF27F0A251D8B48FEF23
:104F180027F091EF27F079EF27F09EC072F09FC03D
:104F280073F023EC40F072C058F173C059F10101DD
:104F380059BFA3EF27F0A1EF27F0AAEF27F0000150
:104F4800EA810101586D591FD8B0592B00019E51B3
:104F5800D96EDA6ADECFA8F0DDCFA9F0A8C0F6FFD7
:104F6800A9C0F7FFF86A0800F5CFA7F0C7EF27F048
:104F7800A84BA92BE2EF27F0690EA76FE2EF27F005
:104F8800A76BE2EF27F0A751580AD8B4C0EF27F073
:104F98003C0AD8B4C0EF27F00D0AD8B4C0EF27F008
:104FA800050AD8B4BCEF27F0190AD8B4C0EF27F027
:104FB8000D0AD8B4C0EF27F0C4EF27F0A8C0F6FF59
:104FC800A9C0F7FFF86A0800F550640AD8B4EFEFF3
:104FD80027F0F1EF27F027EF28F0A8C0F6FFA9C0C7
:104FE800F7FFF86A0800F550690AD8A4FEEF27F021
:104FF80000EF28F04DEF28F027EF28F09F51D96EE9
:10500800DA6ADF50DF2ADF2AD96EDA6ADECFA3F048
:10501800DDCFA4F0000EA4BFFF0EA56FA66F32EF80
:1050280028F09F51D96EDA6A040EDF26DF5CD96E4C
:10503800DA6ADECFA3F0DECFA4F0DECFA5F0DECFB4
:10504800A6F032EF28F0A751690AD8B402EF28F089
:10505800050AD8B415EF28F032EF28F0010EA8257C
:10506800A06F000EA921A16F9E51D96EDA6AA0C067
:10507800DEFFA1C0DDFF9DC08AF0A3C08BF0A4C0F5
:105088008CF0A5C08DF0A6C08EF03CEC32F010EF8D
:1050980029F0A8C0F6FFA9C0F7FFF86A0800F55084
:1050A800780AD8B45AEF28F05CEF28F0A2EF28F07D
:1050B800A8C0F6FFA9C0F7FFF86A0800F550580A1B
:1050C800D8B469EF28F06BEF28F0A2EF28F0A8C059
:1050D800F6FFA9C0F7FFF86A0800F550750AD8A4CA
:1050E80078EF28F07AEF28F0F5EF28F0A2EF28F013
:1050F8009F51D96EDA6ADF50DF2ADF2AD96EDA6A61
:10510800DECFA0F0DDCFA1F0A0C0A3F0A1C0A4F035
:10511800A56BA66BADEF28F09F51D96EDA6A040E25
:10512800DF26DF5CD96EDA6ADECFA3F0DECFA4F02B
:10513800DECFA5F0DECFA6F0ADEF28F0A751690AC3
:10514800D8B47CEF28F0050AD8B490EF28F0ADEF7A
:1051580028F0010EA825A06F000EA921A16F9E516D
:10516800D96EDA6AA0C0DEFFA1C0DDFFE0EF28F04B
:105178009DC08AF0A3C08BF0A4C08CF0A5C08DF0B0
:10518800A6C08EF090EC38F010EF29F09DC08AF0A0
:10519800A3C08BF0A4C08CF0A5C08DF0A6C08EF083
:1051A800A8C0F6FFA9C0F7FFF86A0800F5CF8FF08E
:1051B800BBEC36F010EF29F0A8C0F6FFA9C0F7FF46
:1051C800F86A0800F550580AD8B4CAEF28F02D0A32
:1051D800D8B4BCEF28F00D0AD8B4CAEF28F0F5EF20
:1051E80028F000019E51D96EDA6ADE2A000EDD220F
:1051F80010EF29F09E51D96EDA6ADECFF6FFDDCFC7
:10520800F7FFF86A0800F550746F756B9DC076F06B
:1052180068EC3FF0F5EF28F012002D50D96EDA6AED
:10522800DECFF6FFDDCFF7FFF86A0800F550250A54
:10523800D8A421EF29F023EF29F0C6EF2AF02D504A
:10524800D96EDA6ADE2A000EDD22000E0101596FDE
:10525800000E586F58C1EAF05A695B69316A53EF1A
:1052680029F00001EA832D50D96EDA6ADE2A000E91
:10527800DD2253EF29F0010E316E53EF29F02D5046
:10528800D96EDA6ADECFF6FFDDCFF7FFF86A0800DD
:10529800F550300AD8B435EF29F03FEF29F03150F6
:1052A800D8B459EF29F05BEF29F043EF29F02DC06E
:1052B80001F02EC002F0D4EC40F001C058F102C059
:1052C80059F1010159BF6DEF29F06BEF29F074EF27
:1052D80029F00001EA810101586D591FD8B0592BF6
:1052E8002D50D96EDA6ADECF37F0DDCF38F037C00F
:1052F800F6FF38C0F7FFF86A0800F5CF36F090EFF0
:1053080029F0374A382AABEF29F0690E366EABEF31
:1053180029F0366AABEF29F03650580AD8B489EF2D
:1053280029F03C0AD8B489EF29F00D0AD8B489EFDE
:1053380029F0050AD8B485EF29F0190AD8B489EFFD
:1053480029F00D0AD8B489EF29F08DEF29F037C07C
:10535800F6FF38C0F7FFF86A0800F550640AD8B4B9
:10536800B8EF29F0BAEF29F0F0EF29F037C0F6FFCF
:1053780038C0F7FFF86A0800F550690AD8A4C7EFE3
:1053880029F0C9EF29F016EF2AF0F0EF29F02E5096
:10539800D96EDA6ADF50DF2ADF2AD96EDA6ADECF01
:1053A80032F0DDCF33F0000E33BEFF0E346E356EB3
:1053B800FBEF29F02E50D96EDA6A040EDF26DF5C87
:1053C800D96EDA6ADECF32F0DECF33F0DECF34F0DA
:1053D800DECF35F0FBEF29F03650690AD8B4CBEFB1
:1053E80029F0050AD8B4DEEF29F0FBEF29F0010E09
:1053F80037242F6E000E3820306E2D50D96EDA6AA1
:105408002FC0DEFF30C0DDFF2CC019F032C01AF00B
:1054180033C01BF034C01CF035C01DF00EEC33F067
:10542800D8EF2AF037C0F6FF38C0F7FFF86A08004F
:10543800F550780AD8B423EF2AF025EF2AF06BEF5D
:105448002AF037C0F6FF38C0F7FFF86A0800F550B1
:10545800580AD8B432EF2AF034EF2AF06BEF2AF06A
:1054680037C0F6FF38C0F7FFF86A0800F550750A2C
:10547800D8A441EF2AF043EF2AF0BEEF2AF06BEFF1
:105488002AF02E50D96EDA6ADF50DF2ADF2AD96E69
:10549800DA6ADECF2FF0DDCF30F02FC032F030C027
:1054A80033F0346A356A76EF2AF02E50D96EDA6A0C
:1054B800040EDF26DF5CD96EDA6ADECF32F0DECF8B
:1054C80033F0DECF34F0DECF35F076EF2AF0365009
:1054D800690AD8B445EF2AF0050AD8B459EF2AF07A
:1054E80076EF2AF0010E37242F6E000E3820306E2A
:1054F8002D50D96EDA6A2FC0DEFF30C0DDFFA9EF6C
:105508002AF02CC019F032C01AF033C01BF034C096
:105518001CF035C01DF01CEC39F0D8EF2AF02CC077
:1055280019F032C01AF033C01BF034C01CF035C07B
:105538001DF037C0F6FF38C0F7FFF86A0800F5CF4E
:105548001EF060EC37F0D8EF2AF037C0F6FF38C00D
:10555800F7FFF86A0800F550580AD8B493EF2AF014
:105568002D0AD8B485EF2AF00D0AD8B493EF2AF0A3
:10557800BEEF2AF02D50D96EDA6ADE2A000EDD223F
:10558800D8EF2AF02D50D96EDA6ADECFF6FFDDCFDC
:10559800F7FFF86A0800F550036E046A2CC005F09E
:1055A800C6EC3FF0BEEF2AF01200000E0001B16F0A
:1055B800000EB06F84518511D8A4E5EF2AF0E7EF0B
:1055C8002AF0E9EF2AF059EF2CF07CC086F0010EA2
:1055D80086177CC087F07DC088F07EC089F07FC0C8
:1055E8008AF080C08BF081C08CF082C08DF083C0BF
:1055F8008EF088C087F089C088F08AC089F08BC097
:105608008AF08CC08BF08DC08CF08EC08DF08E6BC4
:10561800010E8717D89087358F6F7CC090F07DC0BA
:1056280091F07EC092F07FC093F080C094F081C06A
:1056380095F082C096F083C097F0140E2DEF2BF0F2
:10564800D890973396339533943393339233913379
:105658009033E82E24EF2BF0010E9017D890903756
:10566800D89090377CC098F07DC099F07EC09AF0B1
:105678007FC09BF080C09CF081C09DF082C09EF0EE
:1056880083C09FF01A0E52EF2BF0D8909F339E33B1
:105698009D339C339B339A3399339833E82E49EFE3
:1056A8002BF0010E9817D8909837D8909837D89043
:1056B80098377CC0A0F07DC0A1F07EC0A2F07FC06A
:1056C800A3F080C0A4F081C0A5F082C0A6F083C07A
:1056D800A7F01F0E79EF2BF0D890A733A633A53388
:1056E800A433A333A233A133A033E82E70EF2BF0F9
:1056F800010EA017A039F00B981190118F11861187
:10570800AD6FAD5101EC47F00001AC6FB0510F081F
:105718003F0BAF6FAFC086F0070E8617AFC072F0B1
:10572800736B000E756F080E746F06EC3FF0000186
:1057380072517A25D96E73517B21DA6EDF50876FEB
:10574800862BA9EF2BF0D8908733862FA7EF2BF065
:1057580000018751AE6F7CC086F07DC087F07EC0A7
:1057680088F07FC089F080C08AF081C08BF082C049
:105778008CF083C08DF0100ECBEF2BF0D8908D33CA
:105788008C338B338A338933883387338633E82ED7
:10579800C2EF2BF07CC08EF07DC08FF07EC090F001
:1057A8007FC091F080C092F081C093F082C094F0E5
:1057B80083C095F0200EEAEF2BF0D8909533943300
:1057C80093339233913390338F338E33E82EE1EF56
:1057D8002BF0AEC096F0976B986B996B8E5196191B
:1057E8009A6F8F5197199B6F905198199C6F91518F
:1057F80099199D6F86519A199E6F87519B199F6FB2
:1058080088519C19A06F89519D19A16FAC519E199F
:10581800A86F9F51A96FA051AA6FA151AB6F010E3C
:10582800A815866F000EA915876F000EAA15886F38
:10583800000EAB15896F8A6B8B6B8C6B8D6BD89058
:105848007C358E6F7D358F6F7E35906F7F35916F8C
:105858008035926F8135936F8235946F8335956F5C
:1058680086518E117C6F87518F117D6F88519011F1
:105878007E6F895191117F6F8A519211806F8B5180
:105888009311816F8C519411826F8D519511836F93
:10589800B04BB12B8451B05D8551B159D8A057EFA9
:1058A8002CF059EF2CF0E9EF2AF07CC07AF07DC09B
:1058B8007BF07EC07CF07FC07DF080C07EF081C030
:1058C8007FF082C080F083C081F01200010E0001D9
:1058D8008E6F8280000E8D6F000E8C6F0101946BAD
:1058E800936BF29E290E0001896F960E886F7F0ECA
:1058F800E82EFED7882FFCD7892FFAD7000E010192
:105908004C6F000E4D6F000E4E6F000E4F6F94C11E
:105918008FF000018E51D8B494EF2CF096EF2CF054
:105928009CEF2CF0D5EC3DF00001906FA0EF2CF02F
:10593800A2EC3EF00001906F8E6B01019C51D8B42F
:10594800A8EF2CF0AAEF2CF0AFEF2CF0010EAAEC88
:1059580048F0DAEF2DF000019005D8B4B6EF2CF03E
:10596800B8EF2CF0CFEF2CF0040E9019D8B4BFEF9D
:105978002CF0C1EF2CF0CFEF2CF0170E9019D8B403
:10598800C8EF2CF0CAEF2CF0CFEF2CF0020EAAECE7
:1059980048F0DAEF2DF09005D8A4D5EF2CF0D7EF2A
:1059A8002CF0B8EF2DF0A2EC3EF00101946F9C5161
:1059B800D8B4E1EF2CF0E3EF2CF0E8EF2CF0040E74
:1059C800AAEC48F0DAEF2DF000018F29D8A4EFEF08
:1059D8002CF0F1EF2CF0F2EF2CF08F69A2EC3EF0F6
:1059E8000101936F9C51D8B4FCEF2CF0FEEF2CF022
:1059F80003EF2DF0050EAAEC48F0DAEF2DF09351E5
:105A0800FF0A9419D8B40BEF2DF00DEF2DF012EF1B
:105A18002DF0150E4AEC44F08DEF2CF0010E00012C
:105A2800E26F000EE36F000EE46F000EE56F3EEFCD
:105A38002DF0A2EC3EF00001906F01019C51D8B40A
:105A480028EF2DF02AEF2DF02FEF2DF0060EAAECFF
:105A580048F0DAEF2DF0000E0001E225D96E050EB0
:105A6800E321DA6E90C0DFFF010EE227000EE32388
:105A7800E423E523E551E411E31109E1830EE25D36
:105A8800D8A049EF2DF04BEF2DF01DEF2DF0000EB3
:105A9800736F800E726F68EC42F072C06CF173C065
:105AA8006DF1050181510001896F886B05018251F3
:105AB8000001882501016A6F0501000E0001892196
:105AC80001016B6F6A516C1909E16B516D19D8B4FA
:105AD80070EF2DF072EF2DF077EF2DF0070EAAEC96
