:04000000ADEF0BF065
:100008004F82E1CF68F0E2CF69F0D9CF6AF0DACF5A
:100018006BF0F3CF6CF0F4CF6DF0F6CF6EF0F7CF56
:100028006FF0F8CF70F0F5CF71F0F2A41EEF00F08A
:1000380020EF00F02EEF00F0000E01015425546F60
:10004800000E5521556F010E5621566F000E57218F
:10005800576FF294F2A633EF00F035EF00F097EF08
:100068000BF0F2A03AEF00F03CEF00F097EF0BF046
:1000780081A841EF00F044EF00F0010E45EF00F0D9
:10008800000E0101886FE6C050F1E7C051F1E8C0E9
:1000980052F1E9C053F1D65054250001E66FD7500C
:1000A800010155210001E76F000E010156210001F1
:1000B800E86F000E010157210001E96F000E0101F0
:1000C800546F000E556F000E566F000E576F000EDE
:1000D800D76E000ED66E464A472A030E0001EC1969
:1000E800D8A479EF00F07BEF00F0A7EF00F0E9511A
:1000F800E8110BE12D0EE65D010EE759D8A087EF58
:1001080000F089EF00F097EF00F0320E3F6EFF0E1F
:10011800406EE6C041F0E7C042F0E8C043F0E9C0F5
:1001280044F0A9EC48F0140E46184710D8A49FEFE5
:1001380000F0A1EF00F096EF0BF00001EC6B96EFEA
:100148000BF096EF0BF001018351D8B4AEEF00F03D
:10015800B0EF00F0FAEF00F0475007E1C80E465C38
:10016800D8B0B9EF00F0BBEF00F0DDEF00F0820E81
:100178000001606F050E616FD8904634D96E473420
:10018800DA6ED890D936DA366051D9266151DA223A
:10019800E6C0DEFFE7C0DEFFE8C0DEFFE9C0DEFF45
:1001A800000E4624D96E020E4720DA6EDF6A96EFFB
:1001B8000BF0000E616FC80E606F0001EC6B01015F
:1001C800836B0001EB6B92EC49F0010E0101896F22
:1001D80096EF0BF020EEDAF0070EDE6AE806FDE295
:1001E800010E8E6F8F6B8B6B96EF0BF0050E000177
:1001F800EB19D8A402EF01F004EF01F080EF01F051
:1002080001018E51D8B40BEF01F00DEF01F080EF32
:1002180001F00001E951E8110BE1AF0EE65D0B0EAC
:10022800E759D8A01AEF01F01CEF01F080EF01F0B8
:10023800E951E81109E1DA0EE65D0C0EE759D8B08C
:1002480028EF01F02AEF01F080EF01F0020EEC191F
:10025800D8A431EF01F033EF01F039EF01F0E20EED
:100268003F6EFF0E406EA9EC48F02C0E4618471062
:10027800D8B441EF01F043EF01F049EF01F001017B
:100288008E6B0001EB6B96EF0BF0000E476E000EC5
:10029800466E050E0001EB6F820E606F050E616FF2
:1002A800D8904634D96E4734DA6ED890D936DA36D3
:1002B8006051D9266151DA22E6C0DEFFE7C0DEFFD1
:1002C800E8C0DEFFE9C0DEFF000E4624D96E020E4C
:1002D8004720DA6EDF6A01018F6B8E6B000E636F49
:1002E800000E626F010E8B6F20EEDAF0070EDE6AE9
:1002F800E806FDE296EF0BF001018E51D8A487EFD6
:1003080001F089EF01F0F8EF01F08B51D8A48FEFDD
:1003180001F091EF01F0F8EF01F00001E951E81167
:100328000BE1EF0EE65D7F0EE759D8A09EEF01F0D6
:10033800A0EF01F0F8EF01F0E951E81109E1E20E50
:10034800E65D810EE759D8B0ACEF01F0AEEF01F0F1
:10035800F8EF01F0000E476E000E466E820E606FD9
:10036800050E616FD8904634D96E4734DA6ED8904E
:10037800D936DA366051D9266151DA22E6C0DEFF75
:10038800E7C0DEFFE8C0DEFFE9C0DEFF000E46245E
:10039800D96E020E4720DA6EDF6A030EEB6F020E8B
:1003A800EC19D8A4DAEF01F0DCEF01F0EAEF01F084
:1003B800D20E3F6EFD0E406EE6C041F0E7C042F03F
:1003C800E8C043F0E9C044F0A9EC48F001018551C8
:1003D800D8B4F1EF01F0F3EF01F0EEEF00F0010E09
:1003E800836F856B96EF0BF0030E0001EB19D8A411
:1003F80000EF02F002EF02F057EF02F001018E5118
:10040800D8B409EF02F00BEF02F057EF02F0000149
:10041800E951E8110BE15B0EE65D1E0EE759D8A025
:1004280018EF02F01AEF02F057EF02F0E951E81165
:1004380009E14E0EE65D200EE759D8B026EF02F02E
:1004480028EF02F057EF02F0000E476E000E466EDE
:10045800820E606F050E616FD8904634D96E4734AE
:10046800DA6ED890D936DA366051D9266151DA2257
:10047800E6C0DEFFE7C0DEFFE8C0DEFFE9C0DEFF62
:10048800000E4624D96E020E4720DA6EDF6A030E8C
:10049800EB6F000E0101636F000E626F8F6B010E30
:1004A8008B6F78EF01F001018B51D8A45EEF02F059
:1004B80060EF02F0AEEF02F00001E951E8110BE144
:1004C800790EE65D920EE759D8A06DEF02F06FEF56
:1004D80002F0AEEF02F0E951E81109E1A80EE65D7D
:1004E800940EE759D8B07BEF02F07DEF02F0AEEF43
:1004F80002F0000E476E010E466E010E01018F6F6D
:10050800E6C066F1E7C067F1020E0001EC19D8A455
:1005180090EF02F092EF02F0A0EF02F0EB0E3F6EC8
:10052800FD0E406EE6C041F0E7C042F0E8C043F07F
:10053800E9C044F0A9EC48F0010E0001EB6F20EE91
:10054800DAF0070EDE6AE806FDE2010E01018E6FA1
:1005580096EF0BF001018B51D8A4B5EF02F0B7EF7D
:1005680002F00DEF03F00001E951E8110BE1510E23
:10057800E65D730EE759D8A0C4EF02F0C6EF02F0AB
:100588000DEF03F0E951E81109E1A40EE65D740EE0
:10059800E759D8B0D2EF02F0D4EF02F00DEF03F034
:1005A800000E476E010E466E020EEB6F820E606FF4
:1005B800050E616FD8904634D96E4734DA6ED890FC
:1005C800D936DA366051D9266151DA22E6C0DEFF23
:1005D800E7C0DEFFE8C0DEFFE9C0DEFF020EEC196F
:1005E800D8A4F9EF02F0FBEF02F001EF03F0A50E3B
:1005F8003F6EFF0E406EA9EC48F0010E01018B6FB3
:1006080020EEDAF0070EDE6AE806FDE28E6B96EF62
:100618000BF00101535152110AE15005130E5159C3
:10062800D8A019EF03F01BEF03F09DEF03F053512F
:10063800521109E1B80E505D140E5159D8B027EF88
:1006480003F029EF03F09DEF03F08851D8B42FEFA2
:1006580003F031EF03F09DEF03F08B51D8A437EF8F
:1006680003F039EF03F09DEF03F00001E951E811C1
:100678000BE1A50EE65D240EE759D8A046EF03F07E
:1006880048EF03F09DEF03F0E951E81109E15C0E32
:10069800E65D260EE759D8B054EF03F056EF03F0A5
:1006A8009DEF03F0000E476E010E466E010E01012C
:1006B800876F040E0001EB6F020EEC19D8A467EFE8
:1006C80003F069EF03F077EF03F05F0E3F6EFE0E65
:1006D800406EE6C041F0E7C042F0E8C043F0E9C030
:1006E80044F0A9EC48F0820E0001606F050E616FBE
:1006F800D8904634D96E4734DA6ED890D936DA367F
:100708006051D9266151DA22E6C0DEFFE7C0DEFF7C
:10071800E8C0DEFFE9C0DEFF000E0101636F000ED6
:10072800626F000E5F6F000E5E6F010E8B6F78EFC9
:1007380001F0040E0001EB19D8B4A5EF03F0A8EFFF
:1007480003F0010EA9EF03F0000E606F616B010169
:100758008B5100016017000E611760516111D8B408
:10076800B8EF03F0BAEF03F011EF05F0475007E1D7
:10077800960E465CD8B0C3EF03F0C5EF03F0E4EF84
:1007880003F0820E606F050E616FD8904634D96E03
:100798004734DA6ED890D936DA366051D9266151A5
:1007A800DA22E6C0DEFFE7C0DEFFE8C0DEFFE9C010
:1007B800DEFF000E4624D96E020E4720DA6EDF6A8D
:1007C800E951E8110BE15B0EE65D090EE759D8A087
:1007D800F0EF03F0F2EF03F057EF04F0E951E811FE
:1007E80009E1120EE65D0B0EE759D8B0FEEF03F0F3
:1007F80000EF04F057EF04F0000E01015F6F000EE8
:100808005E6F8851D8B40BEF04F00DEF04F023EFBE
:1008180004F0624B632BD8900001DA35DA6FDB35D0
:10082800DB6FDC35DC6FDD35DD6FDE35DE6FDF3548
:10083800DF6FE035E06FE135E16F48EF04F0624BC0
:10084800632BD8900001DA35DA6FDB35DB6FDC35E6
:10085800DC6FDD35DD6FDE35DE6FDF35DF6FE03510
:10086800E06FE135E16F010EDA11DA6FDB51DB6F12
:10087800DC51DC6FDD51DD6FDE51DE6FDF51DF6F84
:10088800E051E06FE151E16F380E01016219631127
:10089800D8A451EF04F053EF04F096EF0BF007ECF7
:1008A80049F096EF0BF0E951E8110BE14A0EE65DCD
:1008B800040EE759D8A063EF04F065EF04F0D4EF15
:1008C80004F0E951E81108E1E605060EE759D8B049
:1008D80070EF04F072EF04F0D4EF04F001015E4B06
:1008E8005F2B5E055F11D8A47CEF04F07EEF04F067
:1008F80080EF04F096EF0BF0000E5F6F000E5E6F56
:100908008851D8A48AEF04F08CEF04F0B3EF04F018
:10091800624B632BD8900001DA35DA6FDB35DB6F79
:10092800DC35DC6FDD35DD6FDE35DE6FDF35DF6F43
:10093800E035E06FE135E16F010EDA11DA6FDB5176
:10094800DB6FDC51DC6FDD51DD6FDE51DE6FDF51B7
:10095800DF6FE051E06FE151E16FC7EF04F0624BE8
:10096800632BD8900001DA35DA6FDB35DB6FDC35C5
:10097800DC6FDD35DD6FDE35DE6FDF35DF6FE035EF
:10098800E06FE135E16F380E010162196311D8A4F7
:10099800D0EF04F0D2EF04F096EF0BF053EF04F031
:1009A8007A0E3F6EFF0E406EE6C041F0E7C042F09F
:1009B800E8C043F0E9C044F0A9EC48F0475007E12B
:1009C800C80E465CD8B0EBEF04F0EDEF04F00DEF85
:1009D80005F0820E0001606F050E616FD8904634F5
:1009E800D96E4734DA6ED890D936DA366051D926BE
:1009F8006151DA22E6C0DEFFE7C0DEFFE8C0DEFFB5
:100A0800E9C0DEFF000E4624D96E020E4720DA6EDA
:100A1800DF6A92EC49F096EF0BF001018B51D8B4E4
:100A280018EF05F01AEF05F06BEF06F0030E000162
:100A3800EB19D8A422EF05F024EF05F06BEF06F0D0
:100A4800475007E1C80E465CD8B02DEF05F02FEFF0
:100A580005F04EEF05F0820E606F050E616FD890BD
:100A68004634D96E4734DA6ED890D936DA366051C2
:100A7800D9266151DA22E6C0DEFFE7C0DEFFE8C012
:100A8800DEFFE9C0DEFF000E4624D96E020E4720C5
:100A9800DA6EDF6AE951E8110BE1CA0EE65D040E71
:100AA800E759D8A05AEF05F05CEF05F0F6EF05F02E
:100AB800010E4624606F000E4720616F60B167EF3A
:100AC80005F069EF05F06EEF05F0010E01018D6F7D
:100AD80096EF0BF001018D51D8A475EF05F077EF73
:100AE80005F0CDEF05F0624B632BDAC060F0DBC098
:100AF80061F0DCC062F0DDC063F0DEC064F0DFC02E
:100B080065F0E0C066F0E1C067F00001D890673397
:100B1800663365336433633362336133603360C093
:100B2800DAF061C0DBF062C0DCF063C0DDF064C005
:100B3800DEF065C0DFF066C0E0F067C0E1F020EEEF
:100B4800DAF0000EDE10DA6F000EDE10DB6F000E3A
:100B5800DE10DC6F000EDE10DD6F000EDE10DE6FC3
:100B6800000EDE10DF6F000EDE10E06F800EDE106C
:100B7800E16F0101635109E1400E625DD8A0C7EF42
:100B880005F0C9EF05F096EF0BF025EC49F096EF6C
:100B98000BF0000E4624D96E020E4720DA6E020EC4
:100BA800DF6E0001EC05D8A4DCEF05F0DEEF05F000
:100BB800ECEF05F03E0E3F6EFE0E406EE6C041F0D3
:100BC800E7C042F0E8C043F0E9C044F0A9EC48F0BF
:100BD80046C060F147C061F1000E476E000E466ED8
:100BE8000DEF05F0010E4624606F000E4720616F7F
:100BF80060B101EF06F003EF06F007EF06F0010120
:100C08008D6B96EF0BF001018D05D8A40EEF06F061
:100C180010EF06F04AEF06F0624B632BDAC060F083
:100C2800DBC061F0DCC062F0DDC063F0DEC064F000
:100C3800DFC065F0E0C066F0E1C067F00001D89061
:100C480067336633653364336333623361336033E8
:100C580060C0DAF061C0DBF062C0DCF063C0DDF0D8
:100C680064C0DEF065C0DFF066C0E0F067C0E1F0A8
:100C78000101635109E1400E625DD8A046EF06F01C
:100C880048EF06F096EF0BF0C9EF05F0000E46248A
:100C9800D96E020E4720DA6E020EDF6E0001EC05F7
:100CA800D8A459EF06F05BEF06F0ECEF05F0490E1B
:100CB8003F6EFE0E406EE6C041F0E7C042F0E8C06D
:100CC80043F0E9C044F0A9EC48F0ECEF05F001016D
:100CD8008B51D8B472EF06F074EF06F0D6EF07F038
:100CE800050E0001EB19D8A47CEF06F07EEF06F0A4
:100CF800D6EF07F0E951E8110BE18D0EE65D050E20
:100D0800E759D8A08AEF06F08CEF06F015EF07F048
:100D1800E951E81109E1B80EE65D060EE759D8B0C9
:100D280098EF06F09AEF06F015EF07F0DAC060F0DA
:100D3800DBC061F0DCC062F0DDC063F0DEC064F0EF
:100D4800DFC065F0E0C066F0E1C067F0D8906733B7
:100D5800663365336433633362336133603360C051
:100D6800DAF061C0DBF062C0DCF063C0DDF064C0C3
:100D7800DEF065C0DFF066C0E0F067C0E1F020EEAD
:100D8800DAF0000EDE10DA6F000EDE10DB6F000EF8
:100D9800DE10DC6F000EDE10DD6F000EDE10DE6F81
:100DA800000EDE10DF6F000EDE10E06F800EDE102A
:100DB800E16F475007E1960E465CD8B0E6EF06F0C3
:100DC800E8EF06F007EF07F0820E606F050E616F1F
:100DD800D8904634D96E4734DA6ED890D936DA3698
:100DE8006051D9266151DA22E6C0DEFFE7C0DEFF96
:100DF800E8C0DEFFE9C0DEFF000E4624D96E020E11
:100E08004720DA6EDF6A400E46184710D8A40FEF65
:100E180007F011EF07F096EF0BF01BEC49F096EF97
:100E28000BF0E951E8110BE1810EE65D020EE7597E
:100E3800D8A021EF07F023EF07F090EF07F0E95172
:100E4800E81109E1AC0EE65D030EE759D8B02FEFC3
:100E580007F031EF07F090EF07F0DAC060F0DBC081
:100E680061F0DCC062F0DDC063F0DEC064F0DFC0BA
:100E780065F0E0C066F0E1C067F0D890673366338C
:100E880065336433633362336133603360C0DAF0EF
:100E980061C0DBF062C0DCF063C0DDF064C0DEF08E
:100EA80065C0DFF066C0E0F067C0E1F0475007E1D9
:100EB800960E465CD8B063EF07F065EF07F084EF55
:100EC80007F0820E606F050E616FD8904634D96EB8
:100ED8004734DA6ED890D936DA366051D92661515E
:100EE800DA22E6C0DEFFE7C0DEFFE8C0DEFFE9C0C9
:100EF800DEFF000E4624D96E020E4720DA6EDF6A46
:100F0800400E46184710D8A48CEF07F08EEF07F074
:100F180096EF0BF011EF07F0AF0E3F6EFE0E406E2E
:100F2800E6C041F0E7C042F0E8C043F0E9C044F051
:100F3800A9EC48F0475007E1960E465CD8B0A7EFF9
:100F480007F0A9EF07F0C2EF07F0820E0001606F0B
:100F5800050E616FD8904634D96E4734DA6ED89052
:100F6800D936DA366051D9266151DA22E6C0DEFF79
:100F7800E7C0DEFFE8C0DEFFE9C0DEFF000E462462
:100F8800D96E020E4720DA6EDF6A475009E1400E3B
:100F9800465CD8A0D2EF07F0D4EF07F096EF0BF03D
:100FA80011EF07F0020E0001EB19D8A4DEEF07F0ED
:100FB800E0EF07F031EF09F001018B51D8B4E7EF0A
:100FC80007F0E9EF07F031EF09F00001E951E81106
:100FD8000BE1570EE65D040EE759D8A0F6EF07F0CF
:100FE800F8EF07F073EF08F0E951E81109E1AA0EEC
:100FF800E65D050EE759D8B004EF08F006EF08F0F3
:1010080073EF08F0D890DA35DA6FDB35DB6FDC3553
:10101800DC6FDD35DD6FDE35DE6FDF35DF6FE03548
:10102800E06FE135E16F010EDA11DA6FDB51DB6F4A
:10103800DC51DC6FDD51DD6FDE51DE6FDF51DF6FBC
:10104800E051E06FE151E16F475007E1960E465CD1
:10105800D8B031EF08F033EF08F052EF08F0820E05
:10106800606F050E616FD8904634D96E4734DA6EDA
:10107800D890D936DA366051D9266151DA22E6C0DD
:10108800DEFFE7C0DEFFE8C0DEFFE9C0DEFF000EDE
:101098004624D96E020E4720DA6EDF6A1A0E461809
:1010A8004710D8A45AEF08F05CEF08F096EF0BF061
:1010B8002FEC49F096EF0BF0010EDA11DA6FDB51E5
:1010C800DB6FDC51DC6FDD51DD6FDE51DE6FDF5130
:1010D800DF6FE051E06FE151E16F96EF0BF0E951FE
:1010E800E8110BE1D70EE65D010EE759D8A07FEFB6
:1010F80008F081EF08F0EAEF08F0E951E81109E19A
:101108002A0EE65D030EE759D8B08DEF08F08FEF91
:1011180008F0EAEF08F0D890DA35DA6FDB35DB6FE4
:10112800DC35DC6FDD35DD6FDE35DE6FDF35DF6F3B
:10113800E035E06FE135E16F475007E1960E465C18
:10114800D8B0A9EF08F0ABEF08F0CAEF08F0820EAC
:10115800606F050E616FD8904634D96E4734DA6EE9
:10116800D890D936DA366051D9266151DA22E6C0EC
:10117800DEFFE7C0DEFFE8C0DEFFE9C0DEFF000EED
:101188004624D96E020E4720DA6EDF6A1A0E461818
:101198004710D8A4D2EF08F0D4EF08F096EF0BF080
:1011A8005CEF08F0D8900001DA35DA6FDB35DB6FD9
:1011B800DC35DC6FDD35DD6FDE35DE6FDF35DF6FAB
:1011C800E035E06FE135E16F96EF0BF092EC49F016
:1011D80046C060F147C061F1475007E1C80E465C60
:1011E800D8B0F9EF08F0FBEF08F01CEF09F0820E19
:1011F8000001606F050E616FD8904634D96E473490
:10120800DA6ED890D936DA366051D9266151DA22A9
:10121800E6C0DEFFE7C0DEFFE8C0DEFFE9C0DEFFB4
:10122800000E4624D96E020E4720DA6E030EDF6EDA
:101238000001EC05D8A423EF09F025EF09F096EF9B
:101248000BF01A0E3F6EFF0E406E46C041F047C0CD
:1012580042F0A9EC48F096EF0BF00001EB05D8A49A
:1012680038EF09F03AEF09F096EF0BF0E951E81181
:101278000BE18C0EE65D0A0EE759D8A046EF09F09F
:1012880048EF09F02FEF0AF0E951E81109E1BB0E28
:10129800E65D0C0EE759D8B054EF09F056EF09F0A7
:1012A8002FEF0AF06C0E46184710D8A45EEF09F02D
:1012B80060EF09F087EF09F001018F6B8E6B820EEA
:1012C8000001606F050E616FD8904634D96E4734BF
:1012D800DA6ED890D936DA366051D9266151DA22D9
:1012E800E6C0DEFFE7C0DEFFE8C0DEFFE9C0DEFFE4
:1012F800000E4624D96E020E4720DA6EDF6A11EC22
:1013080049F096EF0BF0020E46184710D8B48FEF4D
:1013180009F091EF09F09BEF09F0030E461847100A
:10132800D8A499EF09F09BEF09F00DEF05F0020E34
:1013380046184710D8A4A3EF09F0A5EF09F0ABEFC2
:1013480009F0E6C064F1E7C065F196EF0BF0030E13
:1013580046184710D8A4B3EF09F0B5EF09F00DEF20
:1013680005F0010166510001606F0101675100013C
:10137800616F626B636B7A0E646F050E656FD89050
:101388004634D96E4734DA6ED890D936DA36645195
:10139800D9266551DA2260C0DEFF61C0DEFF62C077
:1013A800DEFF63C0DEFFFE0E4624D96E010E472025
:1013B800DA6EDF6A010164510001606F0101655155
:1013C8000001616F626B636B7E0E646F050E656F63
:1013D800D8904634D96E4734DA6ED890D936DA3692
:1013E8006451D9266551DA2260C0DEFF61C0DEFF94
:1013F80062C0DEFF63C0DEFFFF0E4624D96E010E19
:101408004720DA6EDF6A820E606F050E616FD89032
:101418004634D96E4734DA6ED890D936DA36605108
:10142800D9266151DA22E6C0DEFFE7C0DEFFE8C058
:10143800DEFFE9C0DEFF000E4624D96E020E47200B
:10144800DA6EDF6A010E01018A6F000E636F000E0B
:10145800626F0AEF03F001018A51D8B436EF0AF03F
:1014680038EF0AF096EF0BF00001E951E8110BE1B3
:10147800930EE65D060EE759D8A045EF0AF047EF50
:101488000AF0CEEF0AF0E951E81109E1C20EE65D73
:10149800080EE759D8B053EF0AF055EF0AF0CEEF2F
:1014A8000AF0475007E1960E465CD8B05EEF0AF0A6
:1014B80060EF0AF07FEF0AF0820E606F050E616F31
:1014C800D8904634D96E4734DA6ED890D936DA36A1
:1014D8006051D9266151DA22E6C0DEFFE7C0DEFF9F
:1014E800E8C0DEFFE9C0DEFF000E4624D96E020E1A
:1014F8004720DA6EDF6A46B084EF0AF086EF0AF01A
:1015080088EF0AF069EF05F001018D51D8A48FEF3B
:101518000AF091EF0AF0A7EF0AF0624B632BD8901C
:101528000001DA35DA6FDB35DB6FDC35DC6FDD3592
:10153800DD6FDE35DE6FDF35DF6FE035E06FE1351B
:10154800E16F60EF08F0000E476E000E466E92ECF9
:1015580049F00001EC05D8A4B4EF0AF0B6EF0AF0A0
:10156800A5EF00F0000E4624D96E020E4720DA6E71
:10157800020EDF6E9F0E3F6EFE0E406EE6C041F01B
:10158800E7C042F0E8C043F0E9C044F0A9EC48F0F5
:1015980096EF0BF0E951E8110BE1A70EE65D020E9C
:1015A800E759D8A0DAEF0AF0DCEF0AF051EF0BF0B8
:1015B800E951E81109E1D60EE65D040EE759D8B005
:1015C800E8EF0AF0EAEF0AF051EF0BF0475007E1B5
:1015D800960E465CD8B0F3EF0AF0F5EF0AF014EF78
:1015E8000BF0820E606F050E616FD8904634D96E8D
:1015F8004734DA6ED890D936DA366051D926615137
:10160800DA22E6C0DEFFE7C0DEFFE8C0DEFFE9C0A1
:10161800DEFF000E4624D96E020E4720DA6EDF6A1E
:1016280046B019EF0BF01BEF0BF01DEF0BF003EFBB
:1016380006F001018D05D8A424EF0BF026EF0BF07E
:101648002AEF0BF0624B632BD6EF08F0000E476EC3
:10165800000E466E92EC49F00001EC05D8A437EF75
:101668000BF039EF0BF0A5EF00F0000E4624D96E11
:10167800020E4720DA6E020EDF6E540E3F6EFE0E2B
:10168800406EE6C041F0E7C042F0E8C043F0E9C070
:1016980044F0A9EC48F096EF0BF092EC49F046C004
:1016A80060F147C061F1475007E1C80E465CD8B009
:1016B80060EF0BF062EF0BF083EF0BF0820E00018E
:1016C800606F050E616FD8904634D96E4734DA6E74
:1016D800D890D936DA366051D9266151DA22E6C077
:1016E800DEFFE7C0DEFFE8C0DEFFE9C0DEFF000E78
:1016F8004624D96E020E4720DA6E030EDF6E000113
:10170800EC05D8A48AEF0BF08CEF0BF0A5EF00F0F6
:101718002A0E3F6EFF0E406E46C041F047C042F0B1
:10172800A9EC48F0F29071C0F5FF70C0F8FF6FC0E7
:10173800F7FF6EC0F6FF6DC0F4FF6CC0F3FF6BC01F
:10174800DAFF6AC0D9FF69C0E2FF68C0E1FF4F92C3
:10175800110037EF43F0C9C072F0CAC073F0DC0E55
:101768000001746FFF0E756F0BEC45F000017251AC
:101778007311D8A4C2EF0BF0C4EF0BF0C8EF0BF055
:10178800A7EC3BF019EF13F0C9C072F0CAC073F0B0
:10179800D60E746FFF0E756F0BEC45F00001725199
:1017A8007311D8A4DAEF0BF0DCEF0BF0EAEF0BF0D3
:1017B800EC6B0101846B856B836B8B0E0001B06F42
:1017C800FE0EB16F8EEC48F019EF13F0C9C072F03D
:1017D800CAC073F0D90E746FFF0E756F0BEC45F02D
:1017E800000172517311D8A4FCEF0BF0FEEF0BF05F
:1017F80068EF0CF0EC2B040EEC6505EF0CF007EF2E
:101808000CF008EF0CF0EC6BA90EB06FFE0EB16F88
:10181800ECC0B2F0B36B8EEC48F00001EC51D8A4E8
:1018280018EF0CF01AEF0CF022EF0CF07F0EB06FEF
:10183800FD0EB16F8EEC48F00101856B0001EC05DF
:10184800D8A429EF0CF02BEF0CF031EF0CF0490E77
:10185800B06FF80EB16F8EEC48F0020E0001EC1973
:10186800D8A439EF0CF03BEF0CF041EF0CF0910EDF
:10187800B06FFC0EB16F8EEC48F0030E0001EC194E
:10188800D8A449EF0CF04BEF0CF051EF0CF0EF0E31
:10189800B06FF80EB16F8EEC48F0040E0001EC1931
:1018A800D8A459EF0CF05BEF0CF019EF13F0F30E1E
:1018B800B06FFB0EB16F8EEC48F0010E0101846F22
:1018C8000001EC6B19EF13F0C9C072F0CAC073F0D5
:1018D800E60E746FFF0E756F0BEC45F00001725148
:1018E8007311D8A47AEF0CF07CEF0CF0C9EF0CF070
:1018F8000101932B020E9319D8A485EF0CF087EF02
:101908000CF088EF0CF0936B260E0001B06FFB0E05
:10191800B16F01019351040DEE0EF324D96E010E3F
:10192800F420DA6EDECFB2F0DECFB3F0DECFB4F063
:10193800DECFB5F08EEC48F001019351D8A4A7EFA3
:101948000CF0A9EF0CF0B4EF0CF00E0E0001B06F24
:10195800FB0EB16F8EEC48F0060E7D6E820EAF6EF8
:1019680001019305D8A4BBEF0CF0BDEF0CF019EF03
:1019780013F0C50E0001B06FFD0EB16F8EEC48F08C
:101988007D6A440EAF6E19EF13F0C9C072F0CAC079
:1019980073F0E80E746FFF0E756F0BEC45F00001E5
:1019A80072517311D8A4DBEF0CF0DDEF0CF0FDEFF2
:1019B8000CF001019351D8B4E4EF0CF0E6EF0CF011
:1019C800EDEF0CF03A0E0001B06FF70EB16F8EEC30
:1019D80048F0DF0E0001B06FF40EB16F8EEC48F0E6
:1019E800000E0001876F010E866FCFEC2BF019EF08
:1019F80013F0C9C072F0CAC073F0EA0E746FFF0E1C
:101A0800756F0BEC45F0000172517311D8A40FEFFC
:101A18000DF011EF0DF031EF0DF001019351D8B435
:101A280018EF0DF01AEF0DF021EF0DF03A0E00014E
:101A3800B06FF70EB16F8EEC48F03C0E0001B06F3E
:101A4800F50EB16F8EEC48F0000E0001876F020EA4
:101A5800866FCFEC2BF019EF13F0C9C072F0CAC033
:101A680073F0EC0E746FFF0E756F0BEC45F0000110
:101A780072517311D8A443EF0DF045EF0DF049EF03
:101A88000DF01AEC13F019EF13F0C9C072F0CAC0C8
:101A980073F0EE0E746FFF0E756F0BEC45F00001DE
:101AA80072517311D8A45BEF0DF05DEF0DF00FEFDD
:101AB8000EF0F29E470EB06FFC0EB16F8EEC48F040
:101AC800D3EF0DF04A0E0001B06FFF0EB16F8EEC30
:101AD80048F0FBEF0DF00E0E0001B06FFD0EB16F78
:101AE8004CC1B2F04DC1B3F04EC1B4F04FC1B5F026
:101AF8008EEC48F0FBEF0DF0C10E0001B06FFA0E4E
:101B0800B16F4CC1B2F04DC1B3F04EC1B4F04FC18A
:101B1800B5F08EEC48F0FBEF0DF0150E0001B06F3C
:101B2800F90EB16F8EEC48F0FBEF0DF0540E00018A
:101B3800B06FFA0EB16F8EEC48F0FBEF0DF09F0E10
:101B48000001B06FF80EB16F8EEC48F0FBEF0DF0AE
:101B5800600E0001B06FFD0EB16F8EEC48F0FBEF28
:101B68000DF06A0E0001B06FFE0EB16F8EEC48F0FA
:101B7800FBEF0DF0DB0E0001B06FFA0EB16F8EECCB
:101B880048F0FBEF0DF0D70E0001B06FFA0EB16F01
:101B98009CC1B2F0B36B8EEC48F0FBEF0DF0010185
:101BA8009C51000AD8B466EF0DF0010AD8B46FEF63
:101BB8000DF0030AD8B480EF0DF0010AD8B491EF04
:101BC8000DF0070AD8B49AEF0DF0010AD8B4A3EFC4
:101BD8000DF0030AD8B4ACEF0DF0010AD8B4B5EF94
:101BE8000DF00F0AD8B4BEEF0DF0C7EF0DF03E0EA2
:101BF8000001B06FFB0EB16F9BC1B2F0B36B8EECFE
:101C080048F0A40E0001B06FFA0EB16F8EEC48F0E8
:101C1800F28E19EF13F0C9C072F0CAC073F0F00E5B
:101C2800746FFF0E756F0BEC45F000017251731164
:101C3800D8A421EF0EF023EF0EF0A2EF0EF0F29EE3
:101C4800700EB06FFD0EB16F95C1B2F0B36B8EEC34
:101C580048F0DE0E0001B06FFB0EB16F94C1B2F018
:101C6800B36B8EEC48F07F0E0001B06FFC0EB16FC5
:101C78006EC1B2F06FC1B3F08EEC48F0010E0001F6
:101C8800E26F000EE36F000EE46F000EE56FE551A2
:101C9800E411E31109E1830EE25DD8A056EF0EF0DE
:101CA80058EF0EF05AEF0EF083EF0EF0BC0EB06F47
:101CB800FF0EB16FE2C0B2F0E3C0B3F0E4C0B4F01D
:101CC800E5C0B5F08EEC48F0B40E0001B06FFF0E21
:101CD800B16F000EE225D96E050EE321DA6EDF50F2
:101CE800CB6FCB51B26FB36B8EEC48F0010E000195
:101CF800E227000EE323E423E5234BEF0EF0A40EC6
:101D0800B06FFA0EB16F8EEC48F0FD0E0001B06FA7
:101D1800FC0EB16F6CC1B2F06DC1B3F08EEC48F03F
:101D28008E0E0001B06FFD0EB16F6AC1B2F06BC1CB
:101D3800B3F08EEC48F0F28E19EF13F0C9C072F0D0
:101D4800CAC073F0F20E746FFF0E756F0BEC45F09E
:101D5800000172517311D8A4B4EF0EF0B6EF0EF073
:101D680027EF0FF0F29E000EE26F000EE36F000EF9
:101D7800E46F000EE56FE551E411E31109E1C80EC7
:101D8800E25DD8A0CAEF0EF0CCEF0EF0CEEF0EF069
:101D980024EF0FF0E2C0BBF0E3C0BCF0E4C0BDF03C
:101DA800E5C0BEF04BEC34F0BC0E0001B06FFF0E86
:101DB800B16FE2C0B2F0E3C0B3F0E4C0B4F0E5C084
:101DC800B5F08EEC48F0960E0001B06FFF0EB16FC3
:101DD80000C3B2F0B36B8EEC48F0010E0001E225AF
:101DE800CB6F000EE321CC6F000EE421CD6F000E07
:101DF800E521CE6F0F0ECB15CF6F000ECC15D06F2F
:101E0800000ECD15D16F000ECE15D26FCF51D01167
:101E1800D111D211D8A413EF0FF015EF0FF01BEF6B
:101E28000FF0A40EB06FFA0EB16F8EEC48F0010EF1
:101E38000001E227000EE323E423E523BFEF0EF0C1
:101E4800F28E19EF13F0C9C072F0CAC073F0B00E69
:101E5800746FFB0E756F0BEC45F000017251731136
:101E6800D8A439EF0FF03BEF0FF0C1EF0FF0F29E5F
:101E7800000EE26F000EE36F000EE46F000EE56FD8
:101E8800E551E4110AE1E229030EE359D8A04FEF26
:101E98000FF051EF0FF053EF0FF0BEEF0FF0E2C06D
:101EA80072F0E3C073F0B6EC48F00101CB6F0F0E8F
:101EB8000001E215CB6F000EE315CC6F000EE415A0
:101EC800CD6F000EE515CE6FCB51CC11CD11CE11D3
:101ED800D8A471EF0FF073EF0FF081EF0FF0C00E81
:101EE800B06FFF0EB16FE2C0B2F0E3C0B3F0E4C070
:101EF800B4F0E5C0B5F08EEC48F0960E0001B06F76
:101F0800FF0EB16FCBC1B2F0B36B8EEC48F0010E8F
:101F18000001E225CB6F000EE321CC6F000EE42117
:101F2800CD6F000EE521CE6F0F0ECB15CF6F000ED3
:101F3800CC15D06F000ECD15D16F000ECE15D26F17
:101F4800CF51D011D111D211D8A4ADEF0FF0AFEF0E
:101F58000FF0B5EF0FF0A40EB06FFA0EB16F8EEC64
:101F680048F0010E0001E227000EE323E423E523F5
:101F780044EF0FF0F28E19EF13F0C9C072F0CAC027
:101F880073F0F40E746FFF0E756F0BEC45F00001E3
:101F980072517311D8A4D3EF0FF0D5EF0FF084EF7F
:101FA80010F00101D06BF29E6D0E0001B06FFC0EB7
:101FB800B16F8EEC48F0000E0001E26F000EE36F87
:101FC800000EE46F000EE56F2CEF10F0E2C0BBF0DE
:101FD800E3C0BCF0E4C0BDF0E5C0BEF0800EBF6F4A
:101FE800D3EC35F0800E0001E225E26F000EE3210C
:101FF800E36F000EE421E46F000EE521E56F000EAB
:102008000101CC6F000ECD6F000ECE6F000ECF6FAA
:10201800CF51CE11CD1109E1800ECC5DD8A017EFBC
:1020280010F019EF10F01BEF10F02CEF10F0000E6D
:10203800CC25D96E030ECD21DA6EDF50D019D06FC2
:10204800010ECC27000ECD23CE23CF230CEF10F0AA
:102058000001E5510CE1E229FF0EE359010EE459B4
:10206800D8A039EF10F03BEF10F0EAEF0FF0000EB8
:10207800BB6F000EBC6F000EBD6F000EBE6F4BEC49
:1020880034F0030100510001E26FE36BE46BE56B90
:10209800030EE219E311E411E511D8B456EF10F07C
:1020A80058EF10F05EEF10F0750EB06FF80EB16FCC
:1020B8008EEC48F0F50E0001B06FFA0EB16FD0C18A
:1020C800B2F0B36B8EEC48F00101D051D8A46FEF99
:1020D80010F071EF10F07AEF10F08C0E0001B06F75
:1020E800FF0EB16F8EEC48F081EF10F0DB0E0001AF
:1020F800B06FFE0EB16F8EEC48F0F28E19EF13F050
:10210800C9C072F0CAC073F0F60E746FFF0E756F17
:102118000BEC45F0000172517311D8A496EF10F042
:1021280098EF10F07DEF11F0000E0101D16F000E55
:10213800D26F000ED36F000ED46FF29E6CEF11F0C9
:10214800D1C1BBF0D2C1BCF0D3C1BDF0D4C1BEF087
:10215800800E0001BF6FD3EC35F0000E0001E26F76
:10216800000EE36F000EE46F000EE56FE551E41119
:10217800E31109E1800EE25DD8A0C5EF10F0C7EFCA
:1021880010F0C9EF10F05FEF11F00101D15100011B
:10219800E2250101C76FD2510001E3210101C86F97
:1021A800D3510001E4210101C96FD4510001E52197
:1021B8000101CA6F0F0E0001E215CB6F000EE31587
:1021C800CC6F000EE415CD6F000EE515CE6FCB5128
:1021D800CC11CD11CE11D8A4F4EF10F0F6EF10F019
:1021E80013EF11F00101C7510001BB6F0101C85184
:1021F8000001BC6F0101C9510001BD6F0101CA5145
:102208000001BE6FBF6BC06BC16BC26BEBEC47F0DC
:10221800FD0E0001B06FFE0EB16F8EEC48F0B80EE7
:102228000001B06FFF0EB16F000EE225D96E030EEC
:10223800E321DA6EDF50CB6FCB51B26FB36B8EEC0C
:1022480048F0010E0001E225CB6F000EE321CC6FB0
:10225800000EE421CD6F000EE521CE6F0F0ECB15D9
:10226800CF6F000ECC15D06F000ECD15D16F000EBC
:10227800CE15D26FCF51D011D111D211D8A447EFBA
:1022880011F049EF11F04FEF11F0A40EB06FFA0EF4
:10229800B16F8EEC48F0E40E00D000D0E82EFCD7E9
:1022A80000D000D0010E0001E227000EE323E42352
:1022B800E523BAEF10F0800E0101D125D16F000E91
:1022C800D221D26F000ED321D36F000ED421D46F48
:1022D800D4510CE1D129FF0ED259010ED359D8A0FF
:1022E80078EF11F07AEF11F0A4EF10F0F28E19EFF9
:1022F80013F0C9C072F0CAC073F0F80E746FFF0E05
:10230800756F0BEC45F0000172517311D8A48FEF73
:1023180011F091EF11F0FDEF12F0000EE26F000ED8
:10232800E36F000EE46F000EE56FE2C0CBF0E3C090
:10233800CCF0D890CB37CC37D890CB37CC37000EF1
:10234800CB25726F010ECC21736FB6EC48F00001FB
:10235800CD6FCD510101D56FD66BD76BD86BD96BCB
:10236800DA6BDB6BDC6BE2C0CBF0E3C0CCF00001D6
:10237800D890CB37CC37D890CB37CC37010ECB257C
:10238800726F010ECC21736FB6EC48F00001CD6F6F
:10239800CDC0CEF0CF6BD06BD16BD0C0D1F0CFC059
:1023A800D0F0CEC0CFF0CE6BCE51D26FCF51D36F1D
:1023B800D051D46FD151D56FD66BD76BD86BD96B41
:1023C8000101D5510001D2250101D56FD651000177
:1023D800D3210101D66FD7510001D4210101D76F54
:1023E800D8510001D5210101D86FD9510001D6215A
:1023F8000101D96FDA510001D7210101DA6FDB51F0
:102408000001D8210101DB6FDC510001D921010154
:10241800DC6FE2C0CBF0E3C0CCF00001D890CB3742
:10242800CC37D890CB37CC37020ECB25726F010E44
:10243800CC21736FB6EC48F00001CD6FCDC0CEF063
:10244800CF6BD06BD16BCFC0D1F0CEC0D0F0CF6BFB
:10245800CE6BCE51D26FCF51D36FD051D46FD151F3
:10246800D56FD66BD76BD86BD96B0101D5510001ED
:10247800D2250101D56FD6510001D3210101D66FB4
:10248800D7510001D4210101D76FD8510001D521BE
:102498000101D86FD9510001D6210101D96FDA5154
:1024A8000001D7210101DA6FDB510001D8210101B8
:1024B800DB6FDC510001D9210101DC6FE2C0CBF0F8
:1024C800E3C0CCF00001D890CB37CC37D890CB37CD
:1024D800CC37030ECB25726F010ECC21736FB6EC8F
:1024E80048F00001CD6FCDC0CEF0CF6BD06BD16B73
:1024F800CEC0D1F0D06BCF6BCE6BCE51D26FCF5157
:10250800D36FD051D46FD151D56FD66BD76BD86BF1
:10251800D96B0101D5510001D2250101D56FD651E2
:102528000001D3210101D66FD7510001D421010147
:10253800D76FD8510001D5210101D86FD9510001B9
:10254800D6210101D96FDA510001D7210101DA6FD3
:10255800DB510001D8210101DB6FDC510001D921D9
:102568000101DC6FA30E0001B06FFC0EB16F010E0C
:10257800E225B26F000EE321B36F000EE421B46FC1
:10258800000EE521B56F8EEC48F0D5C1BBF0D6C181
:10259800BCF0D7C1BDF0D8C1BEF0D9C1BFF0DAC117
:1025A800C0F0DBC1C1F0DCC1C2F0EBEC47F0A40E17
:1025B8000001B06FFA0EB16F8EEC48F0010E000109
:1025C800E227000EE323E423E523E551E411E311B8
:1025D80009E1140EE25DD8A0F4EF12F0F6EF12F064
:1025E80099EF11F0E207000EE35BE45BE55B19EF9E
:1025F80013F0C9C072F0CAC073F0FC0E746FFF0EFE
:10260800756F0BEC45F0000172517311D8A40FEFF0
:1026180013F011EF13F013EF13F019EF13F0560E38
:10262800B06FFB0EB16F8EEC48F01200F29E010104
:10263800896B0F0E0001B06FFE0EB16F60C1B2F072
:1026480061C1B3F08EEC48F00001EB51D8A42FEF34
:1026580013F031EF13F037EF13F0320EB06FFC0EBA
:10266800B16F8EEC48F0020E0001EB19D8A43FEFD1
:1026780013F041EF13F047EF13F0500EB06FFD0E5B
:10268800B16F8EEC48F0040E0001EB19D8A44FEF9F
:1026980013F051EF13F057EF13F01F0EB06FFD0E4C
:1026A800B16F8EEC48F0030E0001EB19D8A45FEF70
:1026B80013F061EF13F067EF13F09B0EB06FFB0E92
:1026C800B16F8EEC48F0050E0001EB19D8A46FEF3E
:1026D80013F071EF13F077EF13F05A0EB06FFC0E92
:1026E800B16F8EEC48F00001EB05D8A47EEF13F033
:1026F80080EF13F086EF13F0080EB06FFC0EB16F89
:102708008EEC48F0A40E0001B06FFA0EB16F8EEC9B
:1027180048F0010E0001C26F010EC16FFF0EC22505
:10272800726F736BFF0E7323000E756F160E746F46
:1027380001EC41F00001C151160DF3CFBBF0F4CF0D
:10274800BCF07251BB25BD6F7351BC21BE6FEA0E40
:10275800BD25BF6FFF0EBE21C06FBFC0E2F0C0C075
:10276800E3F0000EE3BFFF0EE46FE56F0101605177
:102778000001BB6F010161510001BC6FBD6BBE6BF5
:10278800E251BB5DE351BC59E451BD59E551BE5915
:10279800D8A0D1EF13F0D3EF13F0D0EF17F0C40E99
:1027A800B06FFF0EB16FE2C0B2F0E3C0B3F0E4C0A7
:1027B800B4F0E5C0B5F08EEC48F07E0E0001BB6FBA
:1027C800050EBC6FD890E235D96EE335DA6ED89035
:1027D800D936DA36BB51D926BC51DA22DECFC3F05E
:1027E800DDCFC4F0820EBB6F050EBC6FD890E2350A
:1027F800D96EE335DA6ED890D936DA36BB51D92698
:10280800BC51DA22DECFE6F0DECFE7F0DECFE8F02B
:10281800DECFE9F0AF0EB06FFF0EB16FE6C0B2F0D9
:10282800E7C0B3F0E8C0B4F0E9C0B5F08EEC48F00A
:102838000001EB51D8A423EF14F025EF14F02BEF8F
:1028480014F0FC0EB06FFE0EB16F8EEC48F0000174
:10285800EB05D8A432EF14F034EF14F0EAEF14F0DB
:10286800E951E8110BE1A90EE65D8F0EE759D8A0F2
:1028780040EF14F042EF14F058EF14F0E951E8116A
:1028880009E1780EE65D970EE759D8B04EEF14F0DF
:1028980050EF14F058EF14F0E10EB06FFF0EB16F67
:1028A8008EEC48F0CAEF14F0E951E8110BE1A70EDD
:1028B800E65D020EE759D8A064EF14F066EF14F055
:1028C8007CEF14F0E951E81109E1D60EE65D040E3B
:1028D800E759D8B072EF14F074EF14F07CEF14F0ED
:1028E800D50EB06FFF0EB16F8EEC48F0CAEF14F042
:1028F800E951E8110BE1930EE65D060EE759D8A001
:1029080088EF14F08AEF14F0A0EF14F0E951E81101
:1029180009E1C20EE65D080EE759D8B096EF14F04B
:1029280098EF14F0A0EF14F0D80EB06FFF0EB16F4F
:102938008EEC48F0CAEF14F0E951E8110BE18C0E67
:10294800E65D0A0EE759D8A0ACEF14F0AEEF14F02C
:10295800C4EF14F0E951E81109E1BB0EE65D0C0E75
:10296800E759D8B0BAEF14F0BCEF14F0C4EF14F084
:10297800DE0EB06FFF0EB16F8EEC48F0CAEF14F0A8
:10298800DB0EB06FFF0EB16F8EEC48F0000E000149
:10299800E225D96E020EE321DA6EDF50D8B4D7EF04
:1029A80014F0D9EF14F0EAEF14F03A0EB06FFF0EFE
:1029B800B16F000EE225D96E020EE321DA6EDF5008
:1029C800BB6FBB51B26FB36B8EEC48F0020E0001C7
:1029D800EB19D8A4F2EF14F0F4EF14F086EF15F029
:1029E800E951E8110BE1130EE65D700EE759D8A026
:1029F80000EF15F002EF15F018EF15F0E951E811A6
:102A080009E1E20EE65D770EE759D8B00EEF15F052
:102A180010EF15F018EF15F0E10EB06FFF0EB16F63
:102A28008EEC48F066EF15F0E951E8110BE1D70E8E
:102A3800E65D010EE759D8A024EF15F026EF15F052
:102A48003CEF15F0E951E81109E12A0EE65D030EA5
:102A5800E759D8B032EF15F034EF15F03CEF15F028
:102A6800D50EB06FFF0EB16F8EEC48F066EF15F023
:102A7800E951E8110BE1570EE65D040EE759D8A0BD
:102A880048EF15F04AEF15F060EF15F0E951E8113D
:102A980009E1AA0EE65D050EE759D8B056EF15F024
:102AA80058EF15F060EF15F0D80EB06FFF0EB16F4C
:102AB8008EEC48F066EF15F0DB0EB06FFF0EB16FCD
:102AC8008EEC48F0000E0001E225D96E020EE321DB
:102AD800DA6EDF50D8B473EF15F075EF15F086EFA6
:102AE80015F03A0EB06FFF0EB16F000EE225D96EE9
:102AF800020EE321DA6EDF50BB6FBB51B26FB36BCE
:102B08008EEC48F0040E0001EB19D8A48EEF15F0F6
:102B180090EF15F045EF16F0E951E8110BE1F50ECD
:102B2800E65D0F0EE759D8A09CEF15F09EEF15F063
:102B3800B4EF15F0E951E81109E1C40EE65D170E8E
:102B4800E759D8B0AAEF15F0ACEF15F0B4EF15F0CF
:102B5800E10EB06FFF0EB16F8EEC48F025EF16F066
:102B6800E951E8110BE14A0EE65D040EE759D8A0D9
:102B7800C0EF15F0C2EF15F0D7EF15F0E951E811E5
:102B880008E1E605060EE759D8B0CDEF15F0CFEF0E
:102B980015F0D7EF15F0D50EB06FFF0EB16F8EECB4
:102BA80048F025EF16F0E951E8110BE15B0EE65D00
:102BB800090EE759D8A0E3EF15F0E5EF15F0FBEFA4
:102BC80015F0E951E81109E1120EE65D0B0EE7591F
:102BD800D8B0F1EF15F0F3EF15F0FBEF15F0D80EC4
:102BE800B06FFF0EB16F8EEC48F025EF16F0E9518B
:102BF800E8110BE1A50EE65D240EE759D8A007EF12
:102C080016F009EF16F01FEF16F0E951E81109E187
:102C18005C0EE65D260EE759D8B015EF16F017EFF3
:102C280016F01FEF16F0DE0EB06FFF0EB16F8EECD0
:102C380048F025EF16F0DB0EB06FFF0EB16F8EEC8B
:102C480048F0000E0001E225D96E020EE321DA6E8B
:102C5800DF50D8B432EF16F034EF16F045EF16F027
:102C68003A0EB06FFF0EB16F000EE225D96E020E5C
:102C7800E321DA6EDF50BB6FBB51B26FB36B8EECE2
:102C880048F0030E0001EB19D8A44DEF16F04FEFF2
:102C980016F039EF17F0E951E8110BE1C30EE65DC4
:102CA8007E0EE759D8A05BEF16F05DEF16F073EFD4
:102CB80016F0E951E81109E10E0EE65D830EE759B9
:102CC800D8B069EF16F06BEF16F073EF16F0E10E5F
:102CD800B06FFF0EB16F8EEC48F019EF17F0E951A5
:102CE800E8110BE15B0EE65D1E0EE759D8A07FEFF9
:102CF80016F081EF16F097EF16F0E951E81109E1A7
:102D08004E0EE65D200EE759D8B08DEF16F08FEF26
:102D180016F097EF16F0DE0EB06FFF0EB16F8EEC67
:102D280048F019EF17F0E2B19CEF16F09EEF16F09D
:102D380011EF17F0470EC35D050EC459D8A0A7EFD1
:102D480016F0A9EF16F0D6EF16F03A0EC35D070E8F
:102D5800C459D8B0B2EF16F0B4EF16F0D6EF16F0AB
:102D6800E951E8110BE1590EE65D020EE759D8A0CA
:102D7800C0EF16F0C2EF16F0D6EF16F0E951E811E1
:102D880009E14C0EE65D040EE759D8B0CEEF16F017
:102D9800D0EF16F0D6EF16F0D80EB06FFF0EB16F69
:102DA8008EEC48F0590E0001C35D020EC459D8A03C
:102DB800E0EF16F0E2EF16F019EF17F04C0EC35DD6
:102DC800040EC459D8B0EBEF16F0EDEF16F019EF7A
:102DD80017F0E951E8110BE1470EE65D050EE759DA
:102DE800D8A0F9EF16F0FBEF16F019EF17F0E9513C
:102DF800E81109E13A0EE65D070EE759D8B007EF8A
:102E080017F009EF17F019EF17F0D50EB06FFF0E96
:102E1800B16F8EEC48F019EF17F0FC0EB06FFE0E94
:102E2800B16F8EEC48F019EF17F0000E0001E225A3
:102E3800D96E020EE321DA6EDF50D8B426EF17F010
:102E480028EF17F039EF17F03A0EB06FFF0EB16F99
:102E5800000EE225D96E020EE321DA6EDF50BB6F59
:102E6800BB51B26FB36B8EEC48F0050E0001EB1945
:102E7800D8A441EF17F043EF17F0C7EF17F0E95167
:102E8800E8110BE16B0EE65D180EE759D8A04FEF7D
:102E980017F051EF17F067EF17F0E951E81109E162
:102EA800B60EE65D1C0EE759D8B05DEF17F05FEF80
:102EB80017F067EF17F0E10EB06FFF0EB16F8EECF1
:102EC80048F0A7EF17F0E951E8110BE1AF0EE65D06
:102ED8000B0EE759D8A073EF17F075EF17F08BEFCB
:102EE80017F0E951E81109E1DA0EE65D0C0EE75931
:102EF800D8B081EF17F083EF17F08BEF17F0DE0EE5
:102F0800B06FFF0EB16F8EEC48F0A7EF17F0E951E4
:102F1800E81109E19C0EE65D040EE759D8B097EF79
:102F280017F099EF17F0A1EF17F0D50EB06FFF0E5D
:102F3800B16F8EEC48F0A7EF17F0D80EB06FFF0E08
:102F4800B16F8EEC48F0000E0001E225D96E020E3A
:102F5800E321DA6EDF50D8B4B4EF17F0B6EF17F00C
:102F6800C7EF17F03A0EB06FFF0EB16F000EE225F3
:102F7800D96E020EE321DA6EDF50BB6FBB51B26F20
:102F8800B36B8EEC48F0D20E0001B06FFF0EB16F3C
:102F98008EEC48F0D6EF17F0F60EB06FFE0EB16F5C
:102FA8008EEC48F00001C12B090EC165DEEF17F069
:102FB800E0EF17F092EF13F0A40EB06FFA0EB16FB6
:102FC8008EEC48F00001C22B160EC265EEEF17F02A
:102FD800F0EF17F090EF13F086EC49F0F28E120044
:102FE8009CEC48F08096808A01019C6B0F015D6B18
:102FF8005C6BD08EF19EF180F290F286F28EF294A4
:10300800F28A5A89010E0101936F9351D8A40FEFE8
:1030180018F011EF18F015EF18F0060E7D6E820EFD
:10302800AF6E9305D8A41BEF18F01DEF18F020EF32
:1030380018F07D6A440EAF6E920ED56E730E0001C5
:10304800766FF70E776F81EC3DF0B80E0001766F62
:10305800FD0E776F81EC3DF0E20E0001766FF70E02
:10306800776F81EC3DF0B80E0001766FFD0E776F3B
:1030780081EC3DF08290A7EC3BF08280010E0001CC
:10308800E26F000EE36F000EE46F000EE56FE5518E
:10309800E411E31109E10A0EE25DD8A056EF18F039
:1030A80058EF18F05AEF18F07FEF18F0090E0101E9
:1030B800E76F1E0EE66FE40EE82EFED7E62FFCD76C
:1030C800E72FFAD700008290090E0101E76F1E0E64
:1030D800E66FE40EE82EFED7E62FFCD7E72FFAD7E7
:1030E80000008280010E0001E227000EE323E423A2
:1030F800E5234BEF18F0EC6BC9EC49F0F28E000EAB
:103108000001736F000E726FB6EC48F00101E66FB4
:10311800E6510001E26FE36BE46BE56B210EE21907
:10312800E311E411E511D8B49CEF18F09EEF18F004
:10313800A4EF18F0840EB06FF60EB16F8EEC48F065
:10314800000E0001BB6F000EBC6F000EBD6F000EBD
:10315800BE6F4BEC34F0030100510001E26FE36BEA
:10316800E46BE56B030EE219E311E411E511D8B441
:10317800C0EF18F0C2EF18F0C8EF18F0C20EB06F29
:10318800F60EB16F8EEC48F0808681B4CEEF18F061
:10319800D0EF18F033EF19F0150E0101E66FC60EE7
:1031A800E82EFED7E62FFCD70000010E01014827C4
:1031B800000E49234A234B234B514A110BE1890E38
:1031C800485D130E4959D8A0ECEF18F0EEEF18F04F
:1031D80033EF19F08290000E486F000E496F000E11
:1031E8004A6F000E4B6F5C0E0001B06FF90EB16FA5
:1031F8008EEC48F0010E01016D6F000E6C6F280E09
:103208006C5D010E6D59D8A00CEF19F00EEF19F096
:1032180010EF19F01EEF19F06CC172F06DC173F068
:10322800FF0E0001746F07EC46F001016C4B6D2B2B
:1032380003EF19F0520E0101E76F2B0EE66F000E37
:10324800E82EFED7E62FFCD7E72FFAD700008280BA
:1032580081A431EF19F033EF19F02CEF19F00101C7
:103268008C51D8B43AEF19F03DEF19F0010E3EEF4A
:1032780019F0000EE66FE76B81B445EF19F048EFDF
:1032880019F0010E49EF19F0000EE617000EE717C6
:103298004B514A11491107E1C90E485DD8B057EFA3
:1032A80019F05AEF19F0010E5BEF19F0000EE6174E
:1032B800000EE7174B514A110CE1E80E485D030E6A
:1032C8004959D8A06AEF19F06DEF19F0010E6EEFA9
:1032D80019F0000EE617000EE717E651E711D8B40B
:1032E80078EF19F07AEF19F091EF19F0500E406F5E
:1032F800C30E416F000E426F000E436F000E446F05
:10330800000E456F000E466F000E476FA00E0001BD
:10331800B06FF90EB16F8EEC48F0010140514111C8
:10332800421143114411451146114711D8B49FEF7A
:1033380019F0A1EF19F00FEF1AF04007000E415BEA
:10334800425B435B445B455B465B475B40C172F055
:1033580041C173F042C174F043C175F044C176F0C5
:1033680045C177F046C178F047C179F0E80E000111
:103378007A6F030E7B6F000E7C6F000E7D6F000E60
:103388007E6F000E7F6F000E806F000E816FF1EC74
:103398003DF072C0E6F173C0E7F174C0E8F175C0A2
:1033A800E9F176C0EAF177C0EBF178C0ECF179C0C9
:1033B800EDF10101E651E711E811E911EA11EB110C
:1033C800EC11ED11D8A4EBEF19F0EDEF19F0F6EFD1
:1033D80019F082A0F2EF19F0F5EF19F08280F6EFFC
:1033E80019F08290010140514111421143114411D9
:1033F800451146114711D8A404EF1AF006EF1AF048
:103408000FEF1AF0826B6D0E0001B06FFB0EB16FFB
:103418008EEC48F08280000E81B4010E01018C6FA1
:1034280081A419EF1AF01BEF1AF023EF1AF0000E1F
:10343800486F000E496F000E4A6F000E4B6F905197
:10344800D8A429EF1AF02BEF1AF02DEF1AF01FEC81
:103458003CF001018951D8B434EF1AF036EF1AF074
:1034680038EF1AF01AEC13F001019051D8B43FEF7D
:103478001AF041EF1AF0C9EF18F0906BF29E020EA5
:103488000001EC19D8A44BEF1AF04DEF1AF04FEFEA
:103498001AF01AEC13F00001EB05D8A456EF1AF055
:1034A80058EF1AF087EF1AF0EC51D8B45EEF1AF023
:1034B80060EF1AF079EF1AF0DAC0BBF0DBC0BCF0AD
:1034C800DCC0BDF0DDC0BEF0DEC0BFF0DFC0C0F0C4
:1034D800E0C0C1F0E1C0C2F02FEC3BF0FD0E0001EE
:1034E800B06FFE0EB16F8EEC48F074EC1BF0000963
:1034F800D8B481EF1AF083EF1AF087EF1AF0C1EC15
:103508002FF0E8EC30F0020E0001EB19D8A48FEF91
:103518001AF091EF1AF0BBEF1AF0DAC038F1DBC0FD
:1035280039F1DCC03AF1DDC03BF1DEC03CF1DFC06F
:103538003DF1E0C03EF1E1C03FF1B50EB06FFC0EC9
:10354800B16F8EEC48F0DAC0BBF0DBC0BCF0DCC079
:10355800BDF0DDC0BEF0DEC0BFF0DFC0C0F0E0C02F
:10356800C1F0E1C0C2F0EBEC47F0E8EC30F0040E3B
:103578000001EB19D8A4C3EF1AF0C5EF1AF0F4EF65
:103588001AF03BEC24F0E806D8A4CDEF1AF0CFEF00
:103598001AF0F4EF1AF0D90E0001B06FFC0EB16FFB
:1035A8008EEC48F038C1BBF039C1BCF03AC1BDF06F
:1035B8003BC1BEF03CC1BFF03DC1C0F03EC1C1F04F
:1035C8003FC1C2F0EBEC47F0800E0001B06FFE0E79
:1035D800B16F48C0B2F0B36B8EEC48F0E8EC30F055
:1035E800030E0001EB19D8A4FCEF1AF0FEEF1AF055
:1035F8004CEF1BF013EC35F0C70E0001B06FFC0E5A
:10360800B16F8EEC48F038C1BBF039C1BCF03AC19B
:10361800BDF03BC1BEF03CC1BFF03DC1C0F03EC1F2
:10362800C1F03FC1C2F0EBEC47F0AA0E0001B06F49
:10363800FF0EB16F38C1B2F039C1B3F03AC1B4F07E
:103648003BC1B5F08EEC48F0080E0001B06FFF0EDC
:10365800B16F8EEC48F0050E486035EF1BF037EF80
:103668001BF043EF1BF00A0E0001B06FFB0EB16FA9
:1036780048C0B2F0B36B8EEC48F04AEF1BF0CF0EA7
:103688000001B06FFF0EB16F8EEC48F0E8EC30F03F
:10369800050E0001EB19D8A454EF1BF056EF1BF0F0
:1036A8005EEF1BF0FF0EB06FFE0EB16F8EEC48F0B0
:1036B80080EC43F0000E476E000E466E520E01017C
:1036C800E76F2B0EE66F000EE82EFED7E62FFCD72D
:1036D800E72FFAD70000F28EC9EF18F0ADEF0BF024
:1036E800DAC0BBF0DBC0BCF0DCC0BDF0DDC0BEF0B2
:1036F800DEC0BFF0DFC0C0F0E0C0C1F0E1C0C2F082
:10370800040ED8900001BB37BC37BD37BE37BF3772
:10371800C037C137C237E82E85EF1BF0BBC0C5F0F4
:10372800BCC0C6F0BDC0C7F0BEC0C8F0BFC0C9F0BD
:10373800C0C0CAF0C1C0CBF0C2C0CCF020EEC5F00A
:10374800F00EDE18C56FFF0EDE18C66FFF0EDE180E
:10375800C76FFF0EDE18C86FFF0EDE18C96FFF0EA9
:10376800DE18CA6FFF0EDE18CB6F000EDE18CC6FA6
:10377800C5C0BBF0C6C0BCF0C7C0BDF0C8C0BEF075
:10378800C9C0BFF0CAC0C0F0CBC0C1F0CCC0C2F045
:10379800310ED8EF1BF0D890C233C133C033BF33DA
:1037A800BE33BD33BC33BB33E82ECFEF1BF0BBC0F9
:1037B800CDF0BCC0CEF0BDC0CFF0BEC0D0F0BFC011
:1037C800D1F0C0C0D2F0C1C0D3F0C2C0D4F0CD395E
:1037D800F00BF00B4D6E040EBB6FCDC0BCF0CEC02D
:1037E800BDF0CFC0BEF0D0C0BFF0D1C0C0F0D2C0D5
:1037F800C1F0D3C0C2F0D4C0C3F0BB6706EF1CF061
:1038080012EF1CF0C335C333C233C133C033BF33E7
:10381800BE33BD33BC33BB2F01EF1CF00001BC51DC
:103828000F0B4E6EC5C0BBF0C6C0BCF0C7C0BDF024
:10383800C8C0BEF0C9C0BFF0CAC0C0F0CBC0C1F09C
:10384800CCC0C2F0290E32EF1CF0D890C233C1337D
:10385800C033BF33BE33BD33BC33BB33E82E29EF8F
:103868001CF0BBC0CDF0BCC0CEF0BDC0CFF0BEC018
:10387800D0F0BFC0D1F0C0C0D2F0C1C0D3F0C2C038
:10388800D4F0040EBB6FCDC0BCF0CEC0BDF0CFC02D
:10389800BEF0D0C0BFF0D1C0C0F0D2C0C1F0D3C01C
:1038A800C2F0D4C0C3F0BB675CEF1CF068EF1CF03B
:1038B800C335C333C233C133C033BF33BE33BD3363
:1038C800BC33BB2F57EF1CF00001BC510F0B4D1040
:1038D8004D6ECD39F00BF00B4C6EC5C0BBF0C6C0B9
:1038E800BCF0C7C0BDF0C8C0BEF0C9C0BFF0CAC0F8
:1038F800C0F0CBC0C1F0CCC0C2F0210E8DEF1CF0DF
:10390800D890C233C133C033BF33BE33BD33BC33A9
:10391800BB33E82E84EF1CF0BBC0CDF0BCC0CEF0AA
:10392800BDC0CFF0BEC0D0F0BFC0D1F0C0C0D2F093
:10393800C1C0D3F0C2C0D4F0040EBB6FCDC0BCF080
:10394800CEC0BDF0CFC0BEF0D0C0BFF0D1C0C0F077
:10395800D2C0C1F0D3C0C2F0D4C0C3F0BB67B7EFC8
:103968001CF0C3EF1CF0C335C333C233C133C033BB
:10397800BF33BE33BD33BC33BB2FB2EF1CF00001E5
:10398800BC510F0B4C104C6ECD39F00BF00B4B6E3D
:10399800C5C0BBF0C6C0BCF0C7C0BDF0C8C0BEF053
:1039A800C9C0BFF0CAC0C0F0CBC0C1F0CCC0C2F023
:1039B800190EE8EF1CF0D890C233C133C033BF33BF
:1039C800BE33BD33BC33BB33E82EDFEF1CF0BBC0C6
:1039D800CDF0BCC0CEF0BDC0CFF0BEC0D0F0BFC0EF
:1039E800D1F0C0C0D2F0C1C0D3F0C2C0D4F0040E30
:1039F800BB6FCDC0BCF0CEC0BDF0CFC0BEF0D0C054
:103A0800BFF0D1C0C0F0D2C0C1F0D3C0C2F0D4C0A2
:103A1800C3F0BB6712EF1DF01EEF1DF0C335C333B3
:103A2800C233C133C033BF33BE33BD33BC33BB2F06
:103A38000DEF1DF00001BC510F0B4B104B6ECD3933
:103A4800F00BF00B4A6EC5C0BBF0C6C0BCF0C7C0D7
:103A5800BDF0C8C0BEF0C9C0BFF0CAC0C0F0CBC07E
:103A6800C1F0CCC0C2F0110E43EF1DF0D890C233A4
:103A7800C133C033BF33BE33BD33BC33BB33E82E91
:103A88003AEF1DF0BBC0CDF0BCC0CEF0BDC0CFF04A
:103A9800BEC0D0F0BFC0D1F0C0C0D2F0C1C0D3F01A
:103AA800C2C0D4F0040EBB6FCDC0BCF0CEC0BDF018
:103AB800CFC0BEF0D0C0BFF0D1C0C0F0D2C0C1F0FE
:103AC800D3C0C2F0D4C0C3F0BB676DEF1DF079EF6F
:103AD8001DF0C335C333C233C133C033BF33BE3324
:103AE800BD33BC33BB2F68EF1DF00001BC510F0B79
:103AF8004A104A6ECD39F00BF00B496EC5C0BBF0C9
:103B0800C6C0BCF0C7C0BDF0C8C0BEF0C9C0BFF0D9
:103B1800CAC0C0F0CBC0C1F0CCC0C2F0BCC0BBF0C2
:103B2800BDC0BCF0BEC0BDF0BFC0BEF0C0C0BFF0DD
:103B3800C1C0C0F0C2C0C1F0C26BBBC0CDF0BCC038
:103B4800CEF0BDC0CFF0BEC0D0F0BFC0D1F0C0C075
:103B5800D2F0C1C0D3F0C2C0D4F0040EBB6FCDC048
:103B6800BCF0CEC0BDF0CFC0BEF0D0C0BFF0D1C059
:103B7800C0F0D2C0C1F0D3C0C2F0D4C0C3F0BB679C
:103B8800C8EF1DF0D4EF1DF0C335C333C233C133C2
:103B9800C033BF33BE33BD33BC33BB2FC3EF1DF0BF
:103BA8000001BC510F0B4910496ECD39F00BF00BD9
:103BB800ED6FC5C0CDF0C6C0CEF0C7C0CFF0C8C04D
:103BC800D0F0C9C0D1F0CAC0D2F0CBC0D3F0CCC0BD
:103BD800D4F0040EBB6FCDC0BCF0CEC0BDF0CFC0DA
:103BE800BEF0D0C0BFF0D1C0C0F0D2C0C1F0D3C0C9
:103BF800C2F0D4C0C3F0BB6704EF1EF010EF1EF094
:103C0800C335C333C233C133C033BF33BE33BD330F
:103C1800BC33BB2FFFEF1DF00001BC510F0BED11A2
:103C2800ED6F59EC46F00001C46FEC51D8B41FEFAA
:103C38001EF021EF1EF0BDEF1EF0C451D8B427EFDF
:103C48001EF029EF1EF031EF1EF0910EB06FFF0E3F
:103C5800B16F8EEC48F037EF1EF09B0EB06FFF0E81
:103C6800B16F8EEC48F0890E0001B06FFF0EB16F96
:103C78004EC0B2F0B36B8EEC48F0E40E0001B06FAA
:103C8800FF0EB16F8EEC48F0890E0001B06FFF0E89
:103C9800B16F4DC0B2F0B36B8EEC48F0E40E00018A
:103CA800B06FFF0EB16F8EEC48F0890E0001B06F57
:103CB800FF0EB16F4CC0B2F0B36B8EEC48F0E40E5F
:103CC8000001B06FFF0EB16F8EEC48F0890E000155
:103CD800B06FFF0EB16F4BC0B2F0B36B8EEC48F013
:103CE800E40E0001B06FFF0EB16F8EEC48F0890E44
:103CF8000001B06FFF0EB16F4AC0B2F0B36B8EEC2B
:103D080048F0E40E0001B06FFF0EB16F8EEC48F082
:103D1800890E0001B06FFF0EB16F49C0B2F0B36BEE
:103D28008EEC48F0E40E0001B06FFF0EB16F8EEC20
:103D380048F0890E0001B06FFF0EB16FEDC0B2F010
:103D4800B36B8EEC48F0CC0E0001B06FFF0EB16F74
:103D58008EEC48F00001C451D8A4B5EF1EF0B7EFBF
:103D68001EF0BDEF1EF0A40EB06FFA0EB16F8EEC10
:103D780048F00001C4511200D890000172357A6FE2
:103D880073357B6F74357C6F75357D6F76357E6FD7
:103D980077357F6F7835806F7935816FAA0E7A1500
:103DA800826FAA0E7B15836FAA0E7C15846FAA0EEC
:103DB8007D15856FAA0E7E15866FAA0E7F15876FF3
:103DC800AA0E8015886FAA0E8115896F72C08AF0B5
:103DD80073C08BF074C08CF075C08DF076C08EF017
:103DE80077C08FF078C090F079C091F0D890913377
:103DF80090338F338E338D338C338B338A33550E18
:103E08008A15926F550E8B15936F550E8C15946FFE
:103E1800550E8D15956F550E8E15966F550E8F157F
:103E2800976F550E9015986F550E9115996F825191
:103E38009211726F83519311736F84519411746F3F
:103E480085519511756F86519611766F8751971127
:103E5800776F88519811786F89519911796F72C06D
:103E68007AF073C07BF074C07CF075C07DF076C0CA
:103E78007EF077C07FF078C080F079C081F0020EC4
:103E8800D8907A377B377C377D377E377F378037D6
:103E98008137E82E44EF1FF0CC0E7A15826FCC0ED6
:103EA8007B15836FCC0E7C15846FCC0E7D15856FCA
:103EB800CC0E7E15866FCC0E7F15876FCC0E8015C5
:103EC800886FCC0E8115896F72C08AF073C08BF031
:103ED80074C08CF075C08DF076C08EF077C08FF00E
:103EE80078C090F079C091F0030E84EF1FF0D8905D
:103EF800913390338F338E338D338C338B338A33B6
:103F0800E82E7BEF1FF0330E8A15926F330E8B1558
:103F1800936F330E8C15946F330E8D15956F330E8A
:103F28008E15966F330E8F15976F330E9015986F09
:103F3800330E9115996F82519211726F83519311BB
:103F4800736F84519411746F85519511756F8651F3
:103F58009611766F87519711776F88519811786FFE
:103F680089519911796F72C07AF073C07BF074C06F
:103F78007CF075C07DF076C07EF077C07FF078C0A9
:103F880080F079C081F0040ED8907A377B377C377F
:103F98007D377E377F3780378137E82EC8EF1FF0AF
:103FA800F00E7A15826FF00E7B15836FF00E7C157C
:103FB800846FF00E7D15856FF00E7E15866FF00EFE
:103FC8007F15876FF00E8015886FF00E8115896F49
:103FD80072C08AF073C08BF074C08CF075C08DF01D
:103FE80076C08EF077C08FF078C090F079C091F0ED
:103FF800050E08EF20F0D890913390338F338E332D
:104008008D338C338B338A33E82EFFEF1FF00F0E7E
:104018008A15926F0F0E8B15936F0F0E8C15946F78
:104028000F0E8D15956F0F0E8E15966F0F0E8F153F
:10403800976F0F0E9015986F0F0E9115996F82510B
:104048009211726F83519311736F84519411746F2D
:1040580085519511756F86519611766F8751971115
:10406800776F88519811786F89519911796F72C05B
:104078007BF073C07CF074C07DF075C07EF076C0B4
:104088007FF077C080F078C081F07A6B000E7A15E7
:10409800826FFF0E7B15836F000E7C15846FFF0EF9
:1040A8007D15856F000E7E15866FFF0E7F15876F55
:1040B800000E8015886FFF0E8115896F72C08AF017
:1040C80073C08BF074C08CF075C08DF076C08EF024
:1040D80077C08FF078C090F079C091F08BC08AF0EB
:1040E8008CC08BF08DC08CF08EC08DF08FC08EF0A0
:1040F80090C08FF091C090F0916BFF0E8A15926F6F
:10410800000E8B15936FFF0E8C15946F000E8D1596
:10411800956FFF0E8E15966F000E8F15976FFF0E19
:104128009015986F000E9115996F82519211726FC8
:1041380083519311736F84519411746F8551951144
:10414800756F86519611766F87519711776F8851E1
:104158009811786F89519911796F72C07AF073C08C
:104168007BF074C07CF075C07DF076C07EF077C0BF
:104178007FF078C080F079C081F07FC081F07EC088
:1041880080F07DC07FF07CC07EF07BC07DF07AC07F
:104198007CF07B6B7A6B000E7A15826F000E7B15B4
:1041A800836FFF0E7C15846FFF0E7D15856F000EE3
:1041B8007E15866F000E7F15876FFF0E8015886F3E
:1041C800FF0E8115896F72C08AF073C08BF074C0BE
:1041D8008CF075C08DF076C08EF077C08FF078C007
:1041E80090F079C091F0110E03EF21F0D89091333F
:1041F80090338F338E338D338C338B338A33E82E61
:10420800FAEF20F0FF0E8A15926FFF0E8B15936F51
:10421800000E8C15946F000E8D15956FFF0E8E1580
:10422800966FFF0E8F15976F000E9015986F000E02
:104238009115996F82519211726F83519311736F17
:1042480084519411746F85519511756F865196112B
:10425800766F87519711776F88519811786F8951C8
:104268009911796F72C07AF073C07BF074C07CF0DA
:1042780075C07DF076C07EF077C07FF078C080F0A2
:1042880079C081F0200ED8907A377B377C377D371C
:104298007E377F3780378137E82E47EF21F0000ED1
:1042A8007A15826F000E7B15836F000E7C15846F64
:1042B800000E7D15856FFF0E7E15866FFF0E7F152C
:1042C800876FFF0E8015886FFF0E8115896F72C08A
:1042D8008AF073C08BF074C08CF075C08DF076C016
:1042E8008EF077C08FF078C090F079C091F0210EF1
:1042F80087EF21F0D890913390338F338E338D33FD
:104308008C338B338A33E82E7EEF21F0FF0E8A152B
:10431800926FFF0E8B15936FFF0E8C15946FFF0E27
:104328008D15956F000E8E15966F000E8F15976F71
:10433800000E9015986F000E9115996F8251921189
:10434800726F83519311736F84519411746F8551F7
:104358009511756F86519611766F87519711776F02
:1043680088519811786F89519911796F72C072F0DC
:1043780073C073F074C074F075C075F076C076F0D1
:1043880077C077F078C078F079C079F01200000E25
:104398000001E26F000EE36F000EE46F000EE56FA0
:1043A800E2C0C7F0E3C0C8F0D890C737C837D89084
:1043B800C737C837000EC725726F010EC821736F43
:1043C800B6EC48F00001C96FC951D36FD46BD56BF7
:1043D800D66BE2C0C7F0E3C0C8F0D890C737C8377B
:1043E800D890C737C837010EC725726F010EC8218C
:1043F800736FB6EC48F00001C96FC9C0CAF0CB6B47
:10440800CC6BCD6BCCC0CDF0CBC0CCF0CAC0CBF060
:10441800CA6BD351CA25D36FD451CB21D46FD55190
:10442800CC21D56FD651CD21D66FE2C0C7F0E3C0FD
:10443800C8F0D890C737C837D890C737C837020EE2
:10444800C725726F010EC821736FB6EC48F00001E2
:10445800C96FC9C0CAF0CB6BCC6BCD6BCBC0CDF0EC
:10446800CAC0CCF0CB6BCA6BD351CA25D36FD45119
:10447800CB21D46FD551CC21D56FD651CD21D66F54
:10448800E2C0C7F0E3C0C8F0D890C737C837D890A3
:10449800C737C837030EC725726F010EC821736F5F
:1044A800B6EC48F00001C96FC9C0CAF0CB6BCC6B41
:1044B800CD6BCAC0CDF0CC6BCB6BCA6BD351CA25C0
:1044C800D36FD451CB21D46FD551CC21D56FD651D0
:1044D800CD21D66F010EE227000EE323E423E52366
:1044E800D3290CE1D4290AE1D52908E1D629D8B481
:1044F80080EF22F082EF22F08FEF22F0E551E411F5
:10450800E31109E1140EE25DD8A08DEF22F08FEFE0
:1045180022F0D4EF21F0E207000EE35BE45BE55BF9
:10452800E551E411E31109E1150EE25DD8A09FEF12
:1045380022F0A1EF22F0A9EF22F0300EB06FFD0EAD
:10454800B16F8EEC48F03AEF24F0E2C0C7F0E3C058
:10455800C8F0D890C737C837D890C737C837000EC3
:10456800C725726F010EC821736F38C174F007EC4C
:1045780046F0E2C0C7F0E3C0C8F00001D890C737E2
:10458800C837D890C737C837010EC725726F010ED4
:10459800C821736F38C1C9F039C1CAF03AC1CBF02C
:1045A8003BC1CCF03CC1CDF03DC1CEF03EC1CFF017
:1045B8003FC1D0F0CAC0C9F0CBC0CAF0CCC0CBF064
:1045C800CDC0CCF0CEC0CDF0CFC0CEF0D0C0CFF0B3
:1045D800D06BC951746F07EC46F0E2C0C7F0E3C076
:1045E800C8F00001D890C737C837D890C737C83740
:1045F800020EC725726F010EC821736F38C1C9F04A
:1046080039C1CAF03AC1CBF03BC1CCF03CC1CDF0C6
:104618003DC1CEF03EC1CFF03FC1D0F0110E1EEF2C
:1046280023F0D890D033CF33CE33CD33CC33CB3304
:10463800CA33C933E82E15EF23F0C951746F07EC5C
:1046480046F00001EB05D8A42CEF23F02EEF23F061
:1046580069EF23F0E2C0C7F0E3C0C8F0D890C737CD
:10466800C837D890C737C837030EC725726F010EF1
:10467800C821736F48C0C9F0C93BF00EC91738C1CB
:10468800CAF039C1CBF03AC1CCF03BC1CDF03CC146
:10469800CEF03DC1CFF03EC1D0F03FC1D1F0190EF0
:1046A8005FEF23F0D890D133D033CF33CE33CD332F
:1046B800CC33CB33CA33E82E56EF23F0CA51C91195
:1046C800746F07EC46F0B2EF23F0030EEB19D8A491
:1046D80070EF23F072EF23F074EF23F02EEF23F046
:1046E800040EEB19D8A47BEF23F07DEF23F07FEFC6
:1046F80023F02EEF23F0E2C0C7F0E3C0C8F0D89053
:10470800C737C837D890C737C837030EC725726F61
:10471800010EC821736F38C1C9F039C1CAF03AC156
:10472800CBF03BC1CCF03CC1CDF03DC1CEF03EC199
:10473800CFF03FC1D0F0190EABEF23F0D890D033B3
:10474800CF33CE33CD33CC33CB33CA33C933E82E52
:10475800A2EF23F0C951746F07EC46F0AA0E0001CE
:10476800B06FFD0EB16F8EEC48F038C1BBF039C1A7
:10477800BCF03AC1BDF03BC1BEF03CC1BFF03DC189
:10478800C0F03EC1C1F03FC1C2F0EBEC47F0330EC0
:104798000001B06FFE0EB16F8EEC48F0000E000104
:1047A800E26F000EE36F000EE46F000EE56FE55157
:1047B800E411E31109E10A0EE25DD8A0E6EF23F067
:1047C800E8EF23F0EAEF23F00DEF24F0050E0001E7
:1047D800C86F0F0EC76FF10EE82EFED7C72FFCD794
:1047E800C82FFAD78290050E0001C86F0F0EC76F49
:1047F800F10EE82EFED7C72FFCD7C82FFAD7828034
:10480800010E0001E227000EE323E423E523DBEF9A
:1048180023F038C174F039C175F03AC176F03BC164
:1048280077F08AEC2EF00001D26FD251D8B41FEF86
:1048380024F021EF24F02DEF24F0D251020D000EC8
:10484800F324D96E010EF420DA6E68C1DEFF69C167
:10485800DDFF520E0001C86F2B0EC76F000EE82E49
:10486800FED7C72FFCD7C82FFAD7000012000001C7
:10487800EC05D8A442EF24F044EF24F05DEF24F0D7
:10488800DAC0BBF0DBC0BCF0DCC0BDF0DDC0BEF000
:10489800DEC0BFF0DFC0C0F0E0C0C1F0E1C0C2F0D0
:1048A8002FEC3BF0A40E0001B06FFA0EB16F8EEC46
:1048B80048F0E0C04EF0DFC04DF0DAC0C7F1DBC011
:1048C800C8F1DCC0C9F1DDC0CAF1DEC0CBF1DFC080
:1048D800CCF1E0C0CDF1E1C0CEF1210E7EEF24F0A5
:1048E8000101D890CE33CD33CC33CB33CA33C9335F
:1048F800C833C733E82E74EF24F0C7514C6EDAC0C2
:10490800C7F1DBC0C8F1DCC0C9F1DDC0CAF1DEC047
:10491800CBF1DFC0CCF1E0C0CDF1E1C0CEF1190E92
:104928009FEF24F0D890CE33CD33CC33CB33CA337A
:10493800C933C833C733E82E96EF24F0C7514B6EFE
:10494800DAC0C7F1DBC0C8F1DCC0C9F1DDC0CAF10B
:10495800DEC0CBF1DFC0CCF1E0C0CDF1E1C0CEF1DB
:10496800110EC0EF24F0D890CE33CD33CC33CB33F7
:10497800CA33C933C833C733E82EB7EF24F0C75159
:104988004A6EDAC0C7F1DBC0C8F1DCC0C9F1DDC0CE
:10499800CAF1DEC0CBF1DFC0CCF1E0C0CDF1E1C09F
:1049A800CEF1C8C1C7F1C9C1C8F1CAC1C9F1CBC1EB
:1049B800CAF1CCC1CBF1CDC1CCF1CEC1CDF1CE6B1A
:1049C800C751496EDAC0EDF00001ED514918ED6F9D
:1049D80049504A18496E4A504B184A6E4B504C1869
:1049E8004B6E4C504D184C6E4D504E184D6EEC059C
:1049F800D8A401EF25F003EF25F04FEF25F0DF0EE7
:104A0800B06FFD0EB16F8EEC48F0860E0001B06FEE
:104A1800FF0EB16F4EC0B2F0B36B8EEC48F0510E82
:104A28000001B06FFF0EB16F4DC0B2F0B36B8EECEA
:104A380048F0580E0001B06FFF0EB16F4CC0B2F0D5
:104A4800B36B8EEC48F05F0E0001B06FFF0EB16FD4
:104A58004BC0B2F0B36B8EEC48F0660E0001B06F3D
:104A6800FF0EB16F4AC0B2F0B36B8EEC48F06D0E1A
:104A78000001B06FFF0EB16F49C0B2F0B36B8EEC9E
:104A880048F0E40E0001B06FFE0EB16FEDC0B2F059
:104A9800B36B8EEC48F04E380F0B4E180001D36FF5
:104AA8004D380F0BD3194D18D36F4C380F0BD31942
:104AB8004C18D36F4B380F0BD3194B18D36F4A3898
:104AC8000F0BD3194A18D36F49380F0BD31949184C
:104AD800D36FED390F0BD319ED19D36FD3510F0BDA
:104AE800D36F4D380F0B0F0B486E080E4818D8B40B
:104AF80080EF25F083EF25F0010E84EF25F0000EFE
:104B08000101826F4C50C86FC76B4B50C725686F47
:104B1800000EC821696F4AC0C7F1C86BC96BCA6B60
:104B2800CB6BCC6BCD6BCE6BCCC1CEF1CBC1CDF109
:104B3800CAC1CCF1C9C1CBF1C8C1CAF1C7C1C9F159
:104B4800C86BC76BC7C138F1C8C139F1C9C13AF1DF
:104B5800CAC13BF1CBC13CF1CCC13DF1CDC13EF165
:104B6800CEC13FF149C0C7F1C86BC96BCA6BCB6BEB
:104B7800CC6BCD6BCE6BCDC1CEF1CCC1CDF1CBC161
:104B8800CCF1CAC1CBF1C9C1CAF1C8C1C9F1C7C109
:104B9800C8F1C76B3851C711386F3951C811396F0F
:104BA8003A51C9113A6F3B51CA113B6F3C51CB1175
:104BB8003C6F3D51CC113D6F3E51CD113E6F3F5181
:104BC800CE113F6F0001ED5101013825386F000EFD
:104BD8003921396F000E3A213A6F000E3B213B6FA5
:104BE800000E3C213C6F000E3D213D6F000E3E2122
:104BF8003E6F000E3F213F6F0001EC05D8A407EF80
:104C080026F009EF26F09FEF26F01B0EB06FFE0E80
:104C1800B16FD3C0B2F0B36B8EEC48F00001D35142
:104C2800D8B419EF26F01BEF26F021EF26F0420E3C
:104C3800B06FFF0EB16F8EEC48F0A40E0001B06F9C
:104C4800FA0EB16F8EEC48F0270E0001B06FFE0E21
:104C5800B16F4EC0B2F0B36B8EEC48F04E50F00B13
:104C6800A00AD8B43AEF26F03CEF26F043EF26F03E
:104C7800950E0001B06FFE0EB16F8EEC48F0A40ED9
:104C88000001B06FFA0EB16F8EEC48F0400E0001D3
:104C9800B06FFD0EB16F4EC0C7F10F0E0101C717FF
:104CA800C7510001B26FB36B8EEC48F09C0E000147
:104CB800B06FFD0EB16F48C0B2F0B36B8EEC48F028
:104CC800ED0E0001B06FFE0EB16F4DC0C7F10F0EB3
:104CD8000101C717C7510001B26FB36B8EEC48F0E2
:104CE800F70E0001B06FFD0EB16F68C1B2F069C177
:104CF800B3F08EEC48F0D10E0001B06FFE0EB16F2C
:104D08008EEC48F038C1BBF039C1BCF03AC1BDF0F7
:104D18003BC1BEF03CC1BFF03DC1C0F03EC1C1F0D7
:104D28003FC1C2F0EBEC47F0A40E0001B06FFA0EE1
:104D3800B16F8EEC48F00001D351D8B4A6EF26F03D
:104D4800A9EF26F0010EAAEF26F0000E12000001CE
:104D58009E51D96EDA6ADECFF6FFDDCFF7FFF86A2B
:104D68000800F550250AD8A4BCEF26F0BEEF26F0BF
:104D780063EF28F09E51D96EDA6ADE2A000EDD2232
:104D8800000E0101596F000E586F58C1EAF05A69B8
:104D98005B690001A26BEEEF26F0EA839E51D96EA3
:104DA800DA6ADE2A000EDD22EEEF26F0010EA26F8F
:104DB800EEEF26F09E51D96EDA6ADECFF6FFDDCF30
:104DC800F7FFF86A0800F550300AD8B4D1EF26F09A
:104DD800DAEF26F0A251D8B4F4EF26F0F6EF26F079
:104DE800DEEF26F09EC072F09FC073F0A8EC40F092
:104DF80072C058F173C059F1010159BF08EF27F08B
:104E080006EF27F00FEF27F00001EA810101586D46
:104E1800591FD8B0592B00019E51D96EDA6ADECFDE
:104E2800A8F0DDCFA9F0A8C0F6FFA9C0F7FFF86A7F
:104E38000800F5CFA7F02CEF27F0A84BA92B47EFD8
:104E480027F0690EA76F47EF27F0A76B47EF27F00A
:104E5800A751580AD8B425EF27F03C0AD8B425EF53
:104E680027F00D0AD8B425EF27F0050AD8B421EFAA
:104E780027F0190AD8B425EF27F00D0AD8B425EF82
:104E880027F029EF27F0A8C0F6FFA9C0F7FFF86AB6
:104E98000800F550640AD8B454EF27F056EF27F00D
:104EA8008CEF27F0A8C0F6FFA9C0F7FFF86A080042
:104EB800F550690AD8A463EF27F065EF27F0B2EF41
:104EC80027F08CEF27F09F51D96EDA6ADF50DF2A7E
:104ED800DF2AD96EDA6ADECFA3F0DDCFA4F0000EA8
:104EE800A4BFFF0EA56FA66F97EF27F09F51D96E4D
:104EF800DA6A040EDF26DF5CD96EDA6ADECFA3F049
:104F0800DECFA4F0DECFA5F0DECFA6F097EF27F036
:104F1800A751690AD8B467EF27F0050AD8B47AEF21
:104F280027F097EF27F0010EA825A06F000EA92102
:104F3800A16F9E51D96EDA6AA0C0DEFFA1C0DDFF65
:104F48009DC08AF0A3C08BF0A4C08CF0A5C08DF0E2
:104F5800A6C08EF0A9EC32F075EF28F0A8C0F6FFD5
:104F6800A9C0F7FFF86A0800F550780AD8B4BFEF6F
:104F780027F0C1EF27F007EF28F0A8C0F6FFA9C077
:104F8800F7FFF86A0800F550580AD8B4CEEF27F0B2
:104F9800D0EF27F007EF28F0A8C0F6FFA9C0F7FF69
:104FA800F86A0800F550750AD8A4DDEF27F0DFEF9E
:104FB80027F05AEF28F007EF28F09F51D96EDA6AE8
:104FC800DF50DF2ADF2AD96EDA6ADECFA0F0DDCF24
:104FD800A1F0A0C0A3F0A1C0A4F0A56BA66B12EF2E
:104FE80028F09F51D96EDA6A040EDF26DF5CD96E8D
:104FF800DA6ADECFA3F0DECFA4F0DECFA5F0DECFF5
:10500800A6F012EF28F0A751690AD8B4E1EF27F00B
:10501800050AD8B4F5EF27F012EF28F0010EA825FD
:10502800A06F000EA921A16F9E51D96EDA6AA0C0A7
:10503800DEFFA1C0DDFF45EF28F09DC08AF0A3C0C8
:105048008BF0A4C08CF0A5C08DF0A6C08EF00EEC3D
:1050580039F075EF28F09DC08AF0A3C08BF0A4C08A
:105068008CF0A5C08DF0A6C08EF0A8C0F6FFA9C030
:10507800F7FFF86A0800F5CF8FF039EC37F075EFD5
:1050880028F0A8C0F6FFA9C0F7FFF86A0800F55095
:10509800580AD8B42FEF28F02D0AD8B421EF28F0F9
:1050A8000D0AD8B42FEF28F05AEF28F000019E51CE
:1050B800D96EDA6ADE2A000EDD2275EF28F09E51DD
:1050C800D96EDA6ADECFF6FFDDCFF7FFF86A08009F
:1050D800F550746F756B9DC076F0EDEC3FF05AEFAC
:1050E80028F012002D50D96EDA6ADECFF6FFDDCF38
:1050F800F7FFF86A0800F550250AD8A486EF28F0CB
:1051080088EF28F02BEF2AF02D50D96EDA6ADE2AC4
:10511800000EDD22000E0101596F000E586F58C1B4
:10512800EAF05A695B69316AB8EF28F00001EA834E
:105138002D50D96EDA6ADE2A000EDD22B8EF28F08B
:10514800010E316EB8EF28F02D50D96EDA6ADECF35
:10515800F6FFDDCFF7FFF86A0800F550300AD8B43B
:105168009AEF28F0A4EF28F03150D8B4BEEF28F019
:10517800C0EF28F0A8EF28F02DC001F02EC002F0F3
:1051880059EC41F001C058F102C059F1010159BF71
:10519800D2EF28F0D0EF28F0D9EF28F00001EA810B
:1051A8000101586D591FD8B0592B2D50D96EDA6AA4
:1051B800DECF37F0DDCF38F037C0F6FF38C0F7FF65
:1051C800F86A0800F5CF36F0F5EF28F0374A382AA4
:1051D80010EF29F0690E366E10EF29F0366A10EFDD
:1051E80029F03650580AD8B4EEEF28F03C0AD8B463
:1051F800EEEF28F00D0AD8B4EEEF28F0050AD8B47F
:10520800EAEF28F0190AD8B4EEEF28F00D0AD8B45E
:10521800EEEF28F0F2EF28F037C0F6FF38C0F7FFBE
:10522800F86A0800F550640AD8B41DEF29F01FEF9A
:1052380029F055EF29F037C0F6FF38C0F7FFF86AB4
:105248000800F550690AD8A42CEF29F02EEF29F0B0
:105258007BEF29F055EF29F02E50D96EDA6ADF502E
:10526800DF2ADF2AD96EDA6ADECF32F0DDCF33F0FB
:10527800000E33BEFF0E346E356E60EF29F02E50EF
:10528800D96EDA6A040EDF26DF5CD96EDA6ADECF01
:1052980032F0DECF33F0DECF34F0DECF35F060EF22
:1052A80029F03650690AD8B430EF29F0050AD8B485
:1052B80043EF29F060EF29F0010E37242F6E000E1E
:1052C8003820306E2D50D96EDA6A2FC0DEFF30C01C
:1052D800DDFF2CC019F032C01AF033C01BF034C007
:1052E8001CF035C01DF07BEC33F03DEF2AF037C0E1
:1052F800F6FF38C0F7FFF86A0800F550780AD8B406
:1053080088EF29F08AEF29F0D0EF29F037C0F6FFAF
:1053180038C0F7FFF86A0800F550580AD8B497EF74
:1053280029F099EF29F0D0EF29F037C0F6FF38C0FF
:10533800F7FFF86A0800F550750AD8A4A6EF29F017
:10534800A8EF29F023EF2AF0D0EF29F02E50D96EDC
:10535800DA6ADF50DF2ADF2AD96EDA6ADECF2FF069
:10536800DDCF30F02FC032F030C033F0346A356A08
:10537800DBEF29F02E50D96EDA6A040EDF26DF5CE7
:10538800D96EDA6ADECF32F0DECF33F0DECF34F01A
:10539800DECF35F0DBEF29F03650690AD8B4AAEF32
:1053A80029F0050AD8B4BEEF29F0DBEF29F0010E89
:1053B80037242F6E000E3820306E2D50D96EDA6AE1
:1053C8002FC0DEFF30C0DDFF0EEF2AF02CC019F031
:1053D80032C01AF033C01BF034C01CF035C01DF0C9
:1053E8009AEC39F03DEF2AF02CC019F032C01AF0CF
:1053F80033C01BF034C01CF035C01DF037C0F6FFB9
:1054080038C0F7FFF86A0800F5CF1EF0DEEC37F079
:105418003DEF2AF037C0F6FF38C0F7FFF86A0800FA
:10542800F550580AD8B4F8EF29F02D0AD8B4EAEFA5
:1054380029F00D0AD8B4F8EF29F023EF2AF02D50FF
:10544800D96EDA6ADE2A000EDD223DEF2AF02D50F1
:10545800D96EDA6ADECFF6FFDDCFF7FFF86A08000B
:10546800F550036E046A2CC005F04BEC40F023EFB6
:105478002AF01200000E0001B16F000EB06F8451C7
:105488008511D8A44AEF2AF04CEF2AF04EEF2AF003
:10549800BEEF2BF07CC086F0010E86177CC087F02B
:1054A8007DC088F07EC089F07FC08AF080C08BF014
:1054B80081C08CF082C08DF083C08EF088C087F0E8
:1054C80089C088F08AC089F08BC08AF08CC08BF0C4
:1054D8008DC08CF08EC08DF08E6B010E8717D89022
:1054E80087358F6F7CC090F07DC091F07EC092F0C0
:1054F8007FC093F080C094F081C095F082C096F090
:1055080083C097F0140E92EF2AF0D8909733963311
:10551800953394339333923391339033E82E89EF54
:105528002AF0010E9017D8909037D89090377CC009
:1055380098F07DC099F07EC09AF07FC09BF080C043
:105548009CF081C09DF082C09EF083C09FF01A0E2F
:10555800B7EF2AF0D8909F339E339D339C339B330B
:105568009A3399339833E82EAEEF2AF0010E981744
:10557800D8909837D8909837D89098377CC0A0F0B2
:105588007DC0A1F07EC0A2F07FC0A3F080C0A4F0CF
:1055980081C0A5F082C0A6F083C0A7F01F0EDEEF81
:1055A8002AF0D890A733A633A533A433A333A23364
:1055B800A133A033E82ED5EF2AF0010EA017A039A9
:1055C800F00B981190118F118611AD6FAD5186ECCB
:1055D80047F00001AC6FB0510F083F0BAF6FAFC081
:1055E80086F0070E8617AFC072F0736B000E756FEA
:1055F800080E746F8BEC3FF0000172517A25D96E5A
:1056080073517B21DA6EDF50876F862B0EEF2BF0FC
:10561800D8908733862F0CEF2BF000018751AE6F9F
:105628007CC086F07DC087F07EC088F07FC089F09E
:1056380080C08AF081C08BF082C08CF083C08DF06E
:10564800100E30EF2BF0D8908D338C338B338A3398
:105658008933883387338633E82E27EF2BF07CC0D5
:105668008EF07DC08FF07EC090F07FC091F080C03A
:1056780092F081C093F082C094F083C095F0200E20
:105688004FEF2BF0D8909533943393339233913373
:1056980090338F338E33E82E46EF2BF0AEC096F062
:1056A800976B986B996B8E5196199A6F8F519719C2
:1056B8009B6F905198199C6F915199199D6F8651C4
:1056C8009A199E6F87519B199F6F88519C19A06FDB
:1056D80089519D19A16FAC519E19A86F9F51A96F4F
:1056E800A051AA6FA151AB6F010EA815866F000ECD
:1056F800A915876F000EAA15886F000EAB15896F64
:105708008A6B8B6B8C6B8D6BD8907C358E6F7D35EF
:105718008F6F7E35906F7F35916F8035926F8135B1
:10572800936F8235946F8335956F86518E117C6F98
:1057380087518F117D6F885190117E6F895191111A
:105748007F6F8A519211806F8B519311816F8C51A9
:105758009411826F8D519511836FB04BB12B845189
:10576800B05D8551B159D8A0BCEF2BF0BEEF2BF03E
:105778004EEF2AF07CC07AF07DC07BF07EC07CF0D2
:105788007FC07DF080C07EF081C07FF082C080F055
:1057980083C081F01200010E00018E6F8280000E1E
:1057A8008D6F000E8C6F0101956B946BF29E290E24
:1057B8000001896F960E886F7F0EE82EFED7882F1E
:1057C800FCD7892FFAD7000E01014C6F000E4D6FE0
:1057D800000E4E6F000E4F6F95C18FF000018E5175
:1057E800D8B4F9EF2BF0FBEF2BF001EF2CF05AECCB
:1057F8003EF00001906F05EF2CF027EC3FF0000120
:10580800906F8E6B01019D51D8B40DEF2CF00FEF06
:105818002CF014EF2CF0010E39EC49F03FEF2DF08D
:1058280000019005D8B41BEF2CF01DEF2CF034EFDD
:105838002CF0040E9019D8B424EF2CF026EF2CF09D
:1058480034EF2CF0170E9019D8B42DEF2CF02FEF61
:105858002CF034EF2CF0020E39EC49F03FEF2DF02C
:105868009005D8A43AEF2CF03CEF2CF01DEF2DF06A
:1058780027EC3FF00101956F9D51D8B446EF2CF00D
:1058880048EF2CF04DEF2CF0040E39EC49F03FEFC7
:105898002DF000018F29D8A454EF2CF056EF2CF0EE
:1058A80057EF2CF08F6927EC3FF00101946F9D5161
:1058B800D8B461EF2CF063EF2CF068EF2CF0050EF4
:1058C80039EC49F03FEF2DF09451FF0A9519D8B4FF
:1058D80070EF2CF072EF2CF077EF2CF0150ECFEC68
:1058E80044F0F2EF2BF0010E0001E26F000EE36FBF
:1058F800000EE46F000EE56FA3EF2CF027EC3FF0ED
:105908000001906F01019D51D8B48DEF2CF08FEFFD
:105918002CF094EF2CF0060E39EC49F03FEF2DF007
:10592800000E0001E225D96E050EE321DA6E90C063
:10593800DFFF010EE227000EE323E423E523E55110
:10594800E411E31109E1830EE25DD8A0AEEF2CF07B
:10595800B0EF2CF082EF2CF0000E736F800E726F98
:10596800EDEC42F072C06CF173C06DF1050181512C
:105978000001896F886B05018251000188250101AA
:105988006A6F0501000E0001892101016B6F6A51E0
:105998006C1909E16B516D19D8B4D5EF2CF0D7EF1C
:1059A8002CF0DCEF2CF0070E39EC49F03FEF2DF02E
:1059B800000186058711D8A4E4EF2CF0E6EF2CF05F
:1059C80001EF2DF04CC188F04DC189F04EC18AF02D
:1059D8004FC18BF0070ED890883789378A378B37B5
:1059E800E82EEFEF2CF088C07AF089C07BF08AC0EF
:1059F8007CF08BC07DF0CBEC31F0020E00018619F3
:105A08008711D8A40AEF2DF00CEF2DF01DEF2DF023
:105A18004CC188F04DC189F0070ED8908837893776
:105A2800E82E11EF2DF088C076F089C077F046ECAB
:105A380045F0010E01014C27000E4D234E234F2344
:105A4800060ECFEC44F082A02CEF2DF02FEF2DF0B6
:105A5800828030EF2DF0829001014F514E1109E103
:105A6800040E4D5DD8A03BEF2DF03DEF2DF0F0EF8B
:105A78002BF0F28E8290120072C0CBF073C0CCF083
:105A880074C0CDF075C0CEF0000E0001C76F000ED7
:105A9800C86F000EC96F000ECA6FCBC082F0010E2E
:105AA8008217CC51010B020DF3CF83F0CBC084F0E9
:105AB800CCC085F0CDC086F0CEC087F0140E6AEF5A
:105AC8002DF0D8908733863385338433E82E65EFFD
:105AD8002DF08451010B040DF3CF88F0CBC089F071
