:040000008FEF04F08A
:100008005382E1CF64F0E2CF65F0D9CF66F0DACF62
:1000180067F0F3CF68F0F4CF69F0F6CF6AF0F7CF66
:100028006BF0F8CF6CF0F5CF6DF0F2A61EEF00F094
:1000380020EF00F079EF04F0F2A025EF00F027EFB1
:1000480000F079EF04F08150D650D7CF60F000016E
:10005800616B626B636B62C063F061C062F060C029
:1000680061F0606B6025E76F000E6121E86F000E9C
:100078006221E96F000E6321EA6FD76AD66A030E20
:10008800ED19D8A44AEF00F04CEF00F06CEF00F047
:10009800EA51E9110BE12D0EE75D010EE859D8A0F0
:1000A80058EF00F05AEF00F078EF04F07F0E3F6E43
:1000B800FF0E406EE7C041F0E8C042F0E9C043F0EF
:1000C800EAC044F04DEC32F078EF04F078EF04F039
:1000D800484A492A4B50D8A474EF00F076EF00F054
:1000E800C5EF00F0EA51E9110BE1790EE75D920ED8
:1000F800E859D8A082EF00F084EF00F0C5EF00F0D7
:10010800EA51E91109E1A80EE75D940EE859D8B063
:1001180090EF00F092EF00F0C5EF00F0000E496E8E
:10012800010E486E010E01015C6FE7C03CF1E8C0AA
:100138003DF1020E0001ED19D8A4A5EF00F0A7EFDC
:1001480000F0B5EF00F0760E3F6EFE0E406EE7C091
:1001580041F0E8C042F0E9C043F0EAC044F04DEC99
:1001680032F0010E4B6E010E0001EC6F20EED7F05D
:10017800070EDE6AE806FDE2010E01015B6F78EF0B
:1001880004F04B50D8A4CBEF00F0CDEF00F017EF00
:1001980001F0EA51E9110BE1330EE75D730EE859FE
:1001A800D8A0D9EF00F0DBEF00F017EF01F0EA512B
:1001B800E91109E1C20EE75D740EE859D8B0E7EF1E
:1001C80000F0E9EF00F017EF01F0000E496E010EA4
:1001D800486E020EEC6FD8904834D96E4934DA6E06
:1001E800820ED926050EDA22E7C0DEFFE8C0DDFF61
:1001F800020EED19D8A403EF01F005EF01F013EF9B
:1002080001F0D20E3F6EFE0E406EE7C041F0E8C02E
:1002180042F0E9C043F0EAC044F04DEC32F0010E80
:100228004B6EBAEF00F0020EEC19D8A41EEF01F0E5
:1002380020EF01F033EF02F04B50D8B426EF01F075
:1002480028EF01F033EF02F0EA51E9110BE1570E04
:10025800E75D040EE859D8A034EF01F036EF01F05D
:10026800A9EF01F0EA51E91109E1AA0EE75D050ECF
:10027800E859D8B042EF01F044EF01F0A9EF01F0DE
:10028800D890D735D76FD835D86FD935D96FDA35F3
:10029800DA6FDB35DB6FDC35DC6FDD35DD6FDE35E6
:1002A800DE6F010ED711D76FD851D86FD951D96FDA
:1002B800DA51DA6FDB51DB6FDC51DC6FDD51DD6F5A
:1002C800DE51DE6F49BE74EF01F0495007E1960E2A
:1002D800485CD8B072EF01F074EF01F088EF01F0DC
:1002E800D8904834D96E4934DA6E820ED926050E74
:1002F800DA22E7C0DEFFE8C0DDFF000E4824D96E31
:10030800020E4920DA6EDF6A1A0E48184910D8A47E
:1003180090EF01F092EF01F078EF04F05AEC32F030
:1003280078EF04F0010ED711D76FD851D86FD95193
:10033800D96FDA51DA6FDB51DB6FDC51DC6FDD51DD
:10034800DD6FDE51DE6F78EF04F0EA51E9110BE161
:10035800D70EE75D010EE859D8A0B5EF01F0B7EF69
:1003680001F018EF02F0EA51E91109E12A0EE75D00
:10037800030EE859D8B0C3EF01F0C5EF01F018EF4C
:1003880002F0D890D735D76FD835D86FD935D96F0F
:10039800DA35DA6FDB35DB6FDC35DC6FDD35DD6FE9
:1003A800DE35DE6F49BEE4EF01F0495007E1960EF5
:1003B800485CD8B0E2EF01F0E4EF01F0F8EF01F0AB
:1003C800D8904834D96E4934DA6E820ED926050E93
:1003D800DA22E7C0DEFFE8C0DDFF000E4824D96E50
:1003E800020E4920DA6EDF6A1A0E48184910D8A49E
:1003F80000EF02F002EF02F078EF04F092EF01F064
:10040800D8900001D735D76FD835D86FD935D96F7F
:10041800DA35DA6FDB35DB6FDC35DC6FDD35DD6F68
:10042800DE35DE6F78EF04F008EC33F048C036F1C3
:1004380049C037F10001ED05D8A425EF02F027EFF8
:1004480002F078EF04F0600E3F6EFF0E406E48C079
:1004580041F049C042F04DEC32F078EF04F0EC0581
:10046800D8A439EF02F03BEF02F078EF04F0EA513C
:10047800E9110BE18C0EE75D0A0EE859D8A047EFA9
:1004880002F049EF02F04AEF03F0EA51E91109E1FD
:10049800BB0EE75D0C0EE859D8B055EF02F057EFE8
:1004A80002F04AEF03F04B50D8A45DEF02F05FEF83
:1004B80002F061EF02F078EF04F06C0E4818491072
:1004C800D8A469EF02F06BEF02F098EF02F0010197
:1004D8005C6B5B6BD8904834D96E4934DA6E820E07
:1004E800D926050EDA22E7C0DEFFE8C0DDFF000EE0
:1004F8004824D96E020E4920DA6EDF6A48C036F108
:1005080049C037F14B6A5C6B596B5B6B6C0E4818D2
:100518004910D8A492EF02F094EF02F078EF04F0BB
:10052800010E5D6F78EF04F0020E48184910D8B438
:10053800A0EF02F0A2EF02F0ACEF02F0030E4818B1
:100548004910D8A4AAEF02F0ACEF02F00CEF03F0C8
:10055800020E48184910D8A4B4EF02F0B6EF02F022
:10056800BCEF02F0E7C03AF1E8C03BF178EF04F0E5
:10057800030E48184910D8A4C4EF02F0C6EF02F0E1
:100588000CEF03F0D8904834D96E4934DA6E7E0EF9
:10059800D926050EDA223CC1DEFF3DC1DDFFFE0E85
:1005A8004824D96E010E4920DA6EDF6AD8904834A3
:1005B800D96E4934DA6E800ED926050EDA223AC190
:1005C800DEFF3BC1DDFFFF0E4824D96E010E492036
:1005D800DA6EDF6AD8904834D96E4934DA6E820E02
:1005E800D926050EDA22E7C0DEFFE8C0DDFF000EDF
:1005F8004824D96E020E4920DA6EDF6A010E010125
:10060800596F000E396F000E386F5B6B78EF04F08E
:1006180049BE1AEF03F0495007E16C0E485CD8B0A8
:1006280018EF03F01AEF03F02FEF03F0D8904834D7
:10063800D96E4934DA6E820ED926050EDA22E7C061
:10064800DEFFE8C0DDFF000E4824D96E020E492007
:10065800DA6E030EDF6E08EC33F048C036F149C09D
:1006680037F10001ED05D8A43CEF03F03EEF03F0AD
:1006780078EF04F0780E3F6EFF0E406E48C041F0F0
:1006880049C042F04DEC32F078EF04F001015951C5
:10069800D8B451EF03F053EF03F078EF04F0000102
:1006A800EA51E9110BE1930EE75D060EE859D8A06F
:1006B80060EF03F062EF03F0E3EF03F0EA51E911B2
:1006C80009E1C20EE75D080EE859D8B06EEF03F0F5
:1006D80070EF03F0E3EF03F049BE7EEF03F04950FB
:1006E80007E1960E485CD8B07CEF03F07EEF03F08C
:1006F80092EF03F0D8904834D96E4934DA6E820EFE
:10070800D926050EDA22E7C0DEFFE8C0DDFF000EBD
:100718004824D96E020E4920DA6EDF6A48B097EF96
:1007280003F099EF03F09DEF03F0010E4C6E78EFA4
:1007380004F04C50D8A4A3EF03F0A5EF03F0BCEFEE
:1007480003F00101384B392BD8900001D735D76F0A
:10075800D835D86FD935D96FDA35DA6FDB35DB6F35
:10076800DC35DC6FDD35DD6FDE35DE6F96EF01F0F1
:10077800000E496E000E486E08EC33F00001ED05DE
:10078800D8A4C9EF03F0CBEF03F06AEF00F0000E36
:100798004824D96E020E4920DA6E020EDF6EFE0E74
:1007A8003F6EFE0E406EE7C041F0E8C042F0E9C07F
:1007B80043F0EAC044F04DEC32F078EF04F0EA512F
:1007C800E9110BE1A70EE75D020EE859D8A0EFEF9B
:1007D80003F0F1EF03F05FEF04F0EA51E91109E1EA
:1007E800D60EE75D040EE859D8B0FDEF03F0FFEF31
:1007F80003F05FEF04F049BE0DEF04F0495007E144
:10080800960E485CD8B00BEF04F00DEF04F021EF22
:1008180004F0D8904834D96E4934DA6E820ED9265D
:10082800050EDA22E7C0DEFFE8C0DDFF000E48242F
:10083800D96E020E4920DA6EDF6A48B026EF04F05E
:1008480028EF04F02BEF04F04C6A78EF04F04C0426
:10085800D8A431EF04F033EF04F038EF04F00101CD
:10086800384B392B04EF02F0000E496E000E486E2B
:1008780008EC33F00001ED05D8A445EF04F047EF8C
:1008880004F06AEF00F0000E4824D96E020E4920E9
:10089800DA6E030EDF6EC70E3F6EFE0E406EE7C0C7
:1008A80041F0E8C042F0E9C043F0EAC044F04DEC42
:1008B80032F078EF04F008EC33F048C036F149C064
:1008C80037F10001ED05D8A46CEF04F06EEF04F0E9
:1008D8006AEF00F0680E3F6EFF0E406E48C041F0B0
:1008E80049C042F04DEC32F0F2906DC0F5FF6CC09B
:1008F800F8FF6BC0F7FF6AC0F6FF69C0F4FF68C075
:10090800F3FF67C0DAFF66C0D9FF65C0E2FF64C0C5
:10091800E1FF53921100D9EF2CF0C5C06EF0C6C0AC
:100928006FF0F40E0001706FFF0E716FB1EC2EF0D6
:1009380000016E516F11D8A4A4EF04F0A6EF04F0E3
:10094800AAEF04F0FCEC21F089EF0BF0C5C06EF0C3
:10095800C6C06FF0E20E706FFF0E716FB1EC2EF033
:1009680000016E516F11D8A4BCEF04F0BEEF04F083
:1009780011EF05F0ED2B030EED65C5EF04F0C7EFA1
:1009880004F0C8EF04F0ED6B260EAC6FFF0EAD6FF0
:10099800EDC0AEF0AF6B32EC32F00001ED51D8A4EF
:1009A800D8EF04F0DAEF04F0E0EF04F0240EAC6FB7
:1009B800FE0EAD6F32EC32F00001ED05D8A4E7EF82
:1009C80004F0E9EF04F0EFEF04F0110EAC6FFD0E48
:1009D800AD6F32EC32F0020E0001ED19D8A4F7EF3A
:1009E80004F0F9EF04F0FFEF04F09F0EAC6FFD0E7A
:1009F800AD6F32EC32F0030E0001ED19D8A407EF09
:100A080005F009EF05F089EF0BF0A30EAC6FFA0EB5
:100A1800AD6F32EC32F089EF0BF0C5C06EF0C6C096
:100A28006FF0E40E706FFF0E716FB1EC2EF00001E5
:100A38006E516F11D8A423EF05F025EF05F06DEF87
:100A480005F0EB2B020EEB19D8A42DEF05F02FEFD4
:100A580005F030EF05F0EB6B9D0EAC6FFC0EAD6F43
:100A6800EB51040DE30EF324D96E010EF420DA6E77
:100A7800DECFAEF0DECFAFF0DECFB0F0DECFB1F03C
:100A880032EC32F00001EB51D8A44DEF05F04FEFF6
:100A980005F059EF05F0850EAC6FFC0EAD6F32EC2A
:100AA80032F0060E7D6E820EAF6E0001EB05D8A403
:100AB80060EF05F062EF05F089EF0BF0690EAC6F9F
:100AC800FE0EAD6F32EC32F07D6A440EAF6E89EFE8
:100AD8000BF0C5C06EF0C6C06FF0E60E706FFF0E6B
:100AE800716FB1EC2EF000016E516F11D8A47FEF39
:100AF80005F081EF05F09FEF05F0EB51D8B487EFD3
:100B080005F089EF05F08FEF05F0350EAC6FF90EA3
:100B1800AD6F32EC32F0560E0001AC6FF70EAD6FD0
:100B280032EC32F0000E0001836F010E826F50EC40
:100B380019F089EF0BF0C5C06EF0C6C06FF0E80E73
:100B4800706FFF0E716FB1EC2EF000016E516F11D6
:100B5800D8A4B1EF05F0B3EF05F0D1EF05F0EB51F4
:100B6800D8B4B9EF05F0BBEF05F0C1EF05F0350ECD
:100B7800AC6FF90EAD6F32EC32F0B30E0001AC6F12
:100B8800F70EAD6F32EC32F0000E0001836F020EEB
:100B9800826F50EC19F089EF0BF0C5C06EF0C6C03B
:100BA8006FF0EA0E706FFF0E716FB1EC2EF000015E
:100BB8006E516F11D8A4E3EF05F0E5EF05F0E9EF0A
:100BC80005F0D4EC0EF089EF0BF0C5C06EF0C6C08E
:100BD8006FF0EC0E706FFF0E716FB1EC2EF000012C
:100BE8006E516F11D8A4FBEF05F0FDEF05F0AFEFE4
:100BF80006F0F29E7A0EAC6FFD0EAD6F32EC32F05D
:100C080073EF06F0860E0001AC6FFF0EAD6F32EC8D
:100C180032F09BEF06F0D40E0001AC6FFD0EAD6F05
:100C28002EC1AEF02FC1AFF030C1B0F031C1B1F07C
:100C380032EC32F09BEF06F0380E0001AC6FFC0E80
:100C4800AD6F2EC1AEF02FC1AFF030C1B0F031C1E1
:100C5800B1F032EC32F09BEF06F0C90E0001AC6F38
:100C6800FA0EAD6F32EC32F09BEF06F0CB0E0001BE
:100C7800AC6FFB0EAD6F32EC32F09BEF06F0020E5C
:100C88000001AC6FFA0EAD6F32EC32F09BEF06F05C
:100C9800050E0001AC6FFE0EAD6F32EC32F09BEF2B
:100CA80006F0E80E0001AC6FFE0EAD6F32EC32F0CC
:100CB8009BEF06F0520E0001AC6FFC0EAD6F32ECEC
:100CC80032F09BEF06F04E0E0001AC6FFC0EAD6FDC
:100CD80067C1AEF0AF6B32EC32F09BEF06F001016A
:100CE8006751000AD8B406EF06F0010AD8B40FEF2E
:100CF80006F0030AD8B420EF06F0010AD8B431EFA1
:100D080006F0070AD8B43AEF06F0010AD8B443EF60
:100D180006F0030AD8B44CEF06F0010AD8B455EF30
:100D280006F00F0AD8B45EEF06F067EF06F0B50ECE
:100D38000001AC6FFC0EAD6F66C1AEF0AF6B32EC6C
:100D480032F01B0E0001AC6FFC0EAD6F32EC32F0CE
:100D5800F28E89EF0BF0C5C06EF0C6C06FF0EE0ED4
:100D6800706FFF0E716FB1EC2EF000016E516F11B4
:100D7800D8A4C1EF06F0C3EF06F042EF07F0F29EE9
:100D8800150EAC6FFE0EAD6F60C1AEF0AF6B32ECFE
:100D980032F03D0E0001AC6FFD0EAD6F5FC1AEF0DD
:100DA800AF6B32EC32F08D0E0001AC6FFD0EAD6F03
:100DB80044C1AEF045C1AFF032EC32F0010E000193
:100DC800E36F000EE46F000EE56F000EE66FE6516C
:100DD800E511E41109E1830EE35DD8A0F6EF06F012
:100DE800F8EF06F0FAEF06F023EF07F0CA0EAC6F43
:100DF800FF0EAD6FE3C0AEF0E4C0AFF0E5C0B0F0F9
:100E0800E6C0B1F032EC32F0C20E0001AC6FFF0E5A
:100E1800AD6F000EE325D96E050EE421DA6EDF50C2
:100E2800C76FC751AE6FAF6B32EC32F0010E0001E5
:100E3800E327000EE423E523E623EBEF06F01B0E81
:100E4800AC6FFC0EAD6F32EC32F0C30E0001AC6F2C
:100E5800FD0EAD6F42C1AEF043C1AFF032EC32F0DF
:100E6800330E0001AC6FFE0EAD6F40C1AEF041C154
:100E7800AFF032EC32F0F28E89EF0BF0C5C06EF0B5
:100E8800C6C06FF0F00E706FFF0E716FB1EC2EF0F0
:100E980000016E516F11D8A454EF07F056EF07F018
:100EA800C7EF07F0F29E000EE36F000EE46F000E2E
:100EB800E56F000EE66FE651E511E41109E1C80E91
:100EC800E35DD8A06AEF07F06CEF07F06EEF07F06C
:100ED800C4EF07F0E3C0B7F0E4C0B8F0E5C0B9F07C
:100EE800E6C0BAF025EC1FF0CA0E0001AC6FFF0E89
:100EF800AD6FE3C0AEF0E4C0AFF0E5C0B0F0E6C05F
:100F0800B1F032EC32F0A90E0001AC6FFF0EAD6FFC
:100F180000C4AEF0AF6B32EC32F0010E0001E325F5
:100F2800C76F000EE421C86F000EE521C96F000EDF
:100F3800E621CA6F0F0EC715CB6F000EC815CC6F10
:100F4800000EC915CD6F000ECA15CE6FCB51CC114E
:100F5800CD11CE11D8A4B3EF07F0B5EF07F0BBEF72
:100F680007F01B0EAC6FFC0EAD6F32EC32F0010EC9
:100F78000001E327000EE423E523E6235FEF07F0F3
:100F8800F28E89EF0BF0C5C06EF0C6C06FF0F20E9E
:100F9800706FFF0E716FB1EC2EF000016E516F1182
:100FA800D8A4D9EF07F0DBEF07F061EF08F0F29E65
:100FB800000EE36F000EE46F000EE56F000EE66FA3
:100FC800E651E5110AE1E329030EE459D8A0EFEF51
:100FD80007F0F1EF07F0F3EF07F05EEF08F0E3C07A
:100FE8006EF0E4C06FF066EC32F00101C76F0F0ECF
:100FF8000001E315C76F000EE415C86F000EE51574
:10100800C96F000EE615CA6FC751C811C911CA11B8
:10101800D8A411EF08F013EF08F021EF08F0CE0E76
:10102800AC6FFF0EAD6FE3C0AEF0E4C0AFF0E5C04B
:10103800B0F0E6C0B1F032EC32F0A90E0001AC6FAE
:10104800FF0EAD6FC7C1AEF0AF6B32EC32F0010EE0
:101058000001E325C76F000EE421C86F000EE521EB
:10106800C96F000EE621CA6F0F0EC715CB6F000EB1
:10107800C815CC6F000EC915CD6F000ECA15CE6FFE
:10108800CB51CC11CD11CE11D8A44DEF08F04FEFB4
:1010980008F055EF08F01B0EAC6FFC0EAD6F32EC8C
:1010A80032F0010E0001E327000EE423E523E623D6
:1010B800E4EF07F0F28E89EF0BF0C5C06EF0C6C002
:1010C8006FF0F60E706FFF0E716FB1EC2EF000012D
:1010D8006E516F11D8A473EF08F075EF08F000EFA8
:1010E80009F00101CC6BF29E4F0E0001AC6FFE0EB1
:1010F800AD6F32EC32F0000E0001E36F000EE46FCA
:10110800000EE56F000EE66FCCEF08F0E3C0B7F015
:10111800E4C0B8F0E5C0B9F0E6C0BAF0800EBB6F25
:10112800EDEC1FF0800E0001E325E36F000EE421D3
:10113800E46F000EE521E56F000EE621E66F000E74
:101148000101C86F000EC96F000ECA6F000ECB6F89
:10115800CB51CA11C91109E1800EC85DD8A0B7EFFB
:1011680008F0B9EF08F0BBEF08F0CCEF08F0000E7C
:10117800C825D96E040EC921DA6EDF50CC19CC6FA0
:10118800010EC827000EC923CA23CB23ACEF08F0F1
:101198000001E6510CE1E329FF0EE459010EE5597F
:1011A800D8A0D9EF08F0DBEF08F08AEF08F06C0E52
:1011B800AC6FFC0EAD6FCCC1AEF0AF6B32EC32F061
:1011C8000101CC51D8A4EBEF08F0EDEF08F0F6EFF1
:1011D80008F09F0E0001AC6FFF0EAD6F32EC32F0DD
:1011E800FDEF08F04E0E0001AC6FFF0EAD6F32EC54
:1011F80032F0F28E89EF0BF0C5C06EF0C6C06FF00A
:10120800F80E706FFF0E716FB1EC2EF000016E5189
:101218006F11D8A412EF09F014EF09F0EDEF09F0FF
:10122800000E0101CD6F000ECE6F000ECF6F000EC5
:10123800D06FF29EDCEF09F0CDC1B7F0CEC1B8F0A7
:10124800CFC1B9F0D0C1BAF0800E0001BB6FEDEC90
:101258001FF0000E0001E36F000EE46F000EE56F53
:10126800000EE66FE651E511E41109E1800EE35D39
:10127800D8A041EF09F043EF09F045EF09F0CFEFAF
:1012880009F00101CD510001E3250101C36FCE51E1
:101298000001E4210101C46FCF510001E5210101E2
:1012A800C56FD0510001E6210101C66F0F0E000184
:1012B800E315C76F000EE415C86F000EE515C96F7A
:1012C800000EE615CA6FC751C811C911CA11D8A4B2
:1012D80070EF09F072EF09F083EF09F0C3C1B7F0BE
:1012E800C4C1B8F0C5C1B9F0C6C1BAF077EC31F0E5
:1012F8005E0E0001AC6FFF0EAD6F32EC32F0C60E21
:101308000001AC6FFF0EAD6F000EE325D96E040E21
:10131800E421DA6EDF50C76FC751AE6FAF6B32ECA6
:1013280032F0010E0001E325C76F000EE421C86FFB
:10133800000EE521C96F000EE621CA6F0F0EC71512
:10134800CB6F000EC815CC6F000EC915CD6F000EFF
:10135800CA15CE6FCB51CC11CD11CE11D8A4B7EF91
:1013680009F0B9EF09F0BFEF09F01B0EAC6FFC0EE6
:10137800AD6F32EC32F0E40E00D000D0E82EFCD78E
:1013880000D000D0010E0001E327000EE423E5237E
:10139800E62336EF09F0800E0101CD25CD6F000E52
:1013A800CE21CE6F000ECF21CF6F000ED021D06F8F
:1013B800D0510CE1CD29FF0ECE59010ECF59D8A03E
:1013C800E8EF09F0EAEF09F020EF09F0F28E89EF73
:1013D8000BF0C5C06EF0C6C06FF0FA0E706FFF0E4E
:1013E800716FB1EC2EF000016E516F11D8A4FFEFB0
:1013F80009F001EF0AF06DEF0BF0000EE36F000E3D
:10140800E46F000EE56F000EE66FE3C0C7F0E4C0BE
:10141800C8F0D890C737C837D890C737C837000E34
:10142800C7256E6F010EC8216F6F66EC32F00001A0
:10143800C96FC9510101D16FD26BD36BD46BD56B16
:10144800D66BD76BD86BE3C0C7F0E4C0C8F0000117
:10145800D890C737C837D890C737C837010EC725BF
:101468006E6F010EC8216F6F66EC32F00001C96F14
:10147800C9C0CAF0CB6BCC6BCD6BCCC0CDF0CBC0A8
:10148800CCF0CAC0CBF0CA6BCA51CE6FCB51CF6F6C
:10149800CC51D06FCD51D16FD26BD36BD46BD56B90
:1014A8000101D1510001CE250101D16FD2510001B6
:1014B800CF210101D26FD3510001D0210101D36F97
:1014C800D4510001D1210101D46FD5510001D2219D
:1014D8000101D56FD6510001D3210101D66FD75133
:1014E8000001D4210101D76FD8510001D521010194
:1014F800D86FE3C0C7F0E4C0C8F00001D890C73780
:10150800C837D890C737C837020EC7256E6F010E87
:10151800C8216F6F66EC32F00001C96FC9C0CAF00C
:10152800CB6BCC6BCD6BCBC0CDF0CAC0CCF0CB6B4A
:10153800CA6BCA51CE6FCB51CF6FCC51D06FCD5142
:10154800D16FD26BD36BD46BD56B0101D151000134
:10155800CE250101D16FD2510001CF210101D26FF7
:10156800D3510001D0210101D36FD4510001D12101
:101578000101D46FD5510001D2210101D56FD65197
:101588000001D3210101D66FD7510001D4210101F7
:10159800D76FD8510001D5210101D86FE3C0C7F03A
:1015A800E4C0C8F00001D890C737C837D890C7370B
:1015B800C837030EC7256E6F010EC8216F6F66EC22
:1015C80032F00001C96FC9C0CAF0CB6BCC6BCD6BD0
:1015D800CAC0CDF0CC6BCB6BCA6BCA51CE6FCB51A6
:1015E800CF6FCC51D06FCD51D16FD26BD36BD46B41
:1015F800D56B0101D1510001CE250101D16FD25126
:101608000001CF210101D26FD3510001D021010186
:10161800D36FD4510001D1210101D46FD5510001FC
:10162800D2210101D56FD6510001D3210101D66F16
:10163800D7510001D4210101D76FD8510001D5211C
:101648000101D86FAE0E0001AC6FFF0EAD6F010E39
:10165800E325AE6F000EE421AF6F000EE521B06FF9
:10166800000EE621B16F32EC32F0D1C1B7F0D2C131
:10167800B8F0D3C1B9F0D4C1BAF0D5C1BBF0D6C166
:10168800BCF0D7C1BDF0D8C1BEF08FEC31F01B0E55
:101698000001AC6FFC0EAD6F32EC32F0010E0001B0
:1016A800E327000EE423E523E623E651E511E411E0
:1016B80009E10A0EE35DD8A064EF0BF066EF0BF0CA
:1016C80009EF0AF0E307000EE45BE55BE65B89EFF0
:1016D8000BF0C5C06EF0C6C06FF0FC0E706FFF0E49
:1016E800716FB1EC2EF000016E516F11D8A47FEF2D
:1016F8000BF081EF0BF083EF0BF089EF0BF0CD0EC1
:10170800AC6FFC0EAD6F32EC32F01200D7C0B7F000
:10171800D8C0B8F0D9C0B9F0DAC0BAF0DBC0BBF0B5
:10172800DCC0BCF0DDC0BDF0DEC0BEF0040ED89059
:101738000001B737B837B937BA37BB37BC37BD3709
:10174800BE37E82E9BEF0BF0B7C0C1F0B8C0C2F0AF
:10175800B9C0C3F0BAC0C4F0BBC0C5F0BCC0C6F0C5
:10176800BDC0C7F0BEC0C8F020EEC1F0F00EDE1854
:10177800C16FFF0EDE18C26FFF0EDE18C36FFF0EBB
:10178800DE18C46FFF0EDE18C56FFF0EDE18C66FB9
:10179800FF0EDE18C76F000EDE18C86FC1C0B7F0A5
:1017A800C2C0B8F0C3C0B9F0C4C0BAF0C5C0BBF07D
:1017B800C6C0BCF0C7C0BDF0C8C0BEF0310EEEEF69
:1017C8000BF0D890BE33BD33BC33BB33BA33B93317
:1017D800B833B733E82EE5EF0BF0B7C0C9F0B8C09F
:1017E800CAF0B9C0CBF0BAC0CCF0BBC0CDF0BCC019
:1017F800CEF0BDC0CFF0BEC0D0F0C939F00BF00BB1
:10180800F06F040EB76FC9C0B8F0CAC0B9F0CBC04A
:10181800BAF0CCC0BBF0CDC0BCF0CEC0BDF0CFC0DC
:10182800BEF0D0C0BFF0B7671CEF0CF028EF0CF08B
:10183800BF35BF33BE33BD33BC33BB33BA33B93323
:10184800B833B72F17EF0CF00001B8510F0BF16F39
:10185800C1C0B7F0C2C0B8F0C3C0B9F0C4C0BAF0D4
:10186800C5C0BBF0C6C0BCF0C7C0BDF0C8C0BEF0A4
:10187800290E48EF0CF0D890BE33BD33BC33BB33D0
:10188800BA33B933B833B733E82E3FEF0CF0B7C0EB
:10189800C9F0B8C0CAF0B9C0CBF0BAC0CCF0BBC070
:1018A800CDF0BCC0CEF0BDC0CFF0BEC0D0F0040EAD
:1018B800B76FC9C0B8F0CAC0B9F0CBC0BAF0CCC0D5
:1018C800BBF0CDC0BCF0CEC0BDF0CFC0BEF0D0C024
:1018D800BFF0B76772EF0CF07EEF0CF0BF35BF3387
:1018E800BE33BD33BC33BB33BA33B933B833B72F88
:1018F8006DEF0CF00001B8510F0BF011F06FC93902
:10190800F00BF00BEF6FC1C0B7F0C2C0B8F0C3C0A6
:10191800B9F0C4C0BAF0C5C0BBF0C6C0BCF0C7C0FF
:10192800BDF0C8C0BEF0210EA3EF0CF0D890BE33B6
:10193800BD33BC33BB33BA33B933B833B733E82E0E
:101948009AEF0CF0B7C0C9F0B8C0CAF0B9C0CBF074
:10195800BAC0CCF0BBC0CDF0BCC0CEF0BDC0CFF09B
:10196800BEC0D0F0040EB76FC9C0B8F0CAC0B9F095
:10197800CBC0BAF0CCC0BBF0CDC0BCF0CEC0BDF07F
:10198800CFC0BEF0D0C0BFF0B767CDEF0CF0D9EF35
:101998000CF0BF35BF33BE33BD33BC33BB33BA33B2
:1019A800B933B833B72FC8EF0CF00001B8510F0B9B
:1019B800EF11EF6FC939F00BF00BEE6FC1C0B7F044
:1019C800C2C0B8F0C3C0B9F0C4C0BAF0C5C0BBF05B
:1019D800C6C0BCF0C7C0BDF0C8C0BEF0190EFEEF4F
:1019E8000CF0D890BE33BD33BC33BB33BA33B933F4
:1019F800B833B733E82EF5EF0CF0B7C0C9F0B8C06C
:101A0800CAF0B9C0CBF0BAC0CCF0BBC0CDF0BCC0F6
:101A1800CEF0BDC0CFF0BEC0D0F0040EB76FC9C0C5
:101A2800B8F0CAC0B9F0CBC0BAF0CCC0BBF0CDC0DA
:101A3800BCF0CEC0BDF0CFC0BEF0D0C0BFF0B7671D
:101A480028EF0DF034EF0DF0BF35BF33BE33BD3393
:101A5800BC33BB33BA33B933B833B72F23EF0DF0E8
:101A68000001B8510F0BEE11EE6FC939F00BF00BF6
:101A7800526EC1C0B7F0C2C0B8F0C3C0B9F0C4C09C
:101A8800BAF0C5C0BBF0C6C0BCF0C7C0BDF0C8C086
:101A9800BEF0110E59EF0DF0D890BE33BD33BC33F4
:101AA800BB33BA33B933B833B733E82E50EF0DF040
:101AB800B7C0C9F0B8C0CAF0B9C0CBF0BAC0CCF052
:101AC800BBC0CDF0BCC0CEF0BDC0CFF0BEC0D0F022
:101AD800040EB76FC9C0B8F0CAC0B9F0CBC0BAF02D
:101AE800CCC0BBF0CDC0BCF0CEC0BDF0CFC0BEF006
:101AF800D0C0BFF0B76783EF0DF08FEF0DF0BF35A3
:101B0800BF33BE33BD33BC33BB33BA33B933B83359
:101B1800B72F7EEF0DF00001B8510F0B5210526E27
:101B2800C939F00BF00B516EC1C0B7F0C2C0B8F0A4
:101B3800C3C0B9F0C4C0BAF0C5C0BBF0C6C0BCF0E1
:101B4800C7C0BDF0C8C0BEF0B8C0B7F0B9C0B8F0E3
:101B5800BAC0B9F0BBC0BAF0BCC0BBF0BDC0BCF0E5
:101B6800BEC0BDF0BE6BB7C0C9F0B8C0CAF0B9C03E
:101B7800CBF0BAC0CCF0BBC0CDF0BCC0CEF0BDC07D
:101B8800CFF0BEC0D0F0040EB76FC9C0B8F0CAC05D
:101B9800B9F0CBC0BAF0CCC0BBF0CDC0BCF0CEC061
:101BA800BDF0CFC0BEF0D0C0BFF0B767DEEF0DF01C
:101BB800EAEF0DF0BF35BF33BE33BD33BC33BB33A3
:101BC800BA33B933B833B72FD9EF0DF00001B85194
:101BD8000F0B5110516EC939F00BF00B506EC1C08C
:101BE800C9F0C2C0CAF0C3C0CBF0C4C0CCF0C5C0F5
:101BF800CDF0C6C0CEF0C7C0CFF0C8C0D0F0040E3C
:101C0800B76FC9C0B8F0CAC0B9F0CBC0BAF0CCC081
:101C1800BBF0CDC0BCF0CEC0BDF0CFC0BEF0D0C0D0
:101C2800BFF0B7671AEF0EF026EF0EF0BF35BF33DF
:101C3800BE33BD33BC33BB33BA33B933B833B72F34
:101C480015EF0EF00001B8510F0B5010506EFFEC5D
:101C58002FF00001C06FED51D8B435EF0EF037EF1B
:101C68000EF0D3EF0EF0C051D8B43DEF0EF03FEFB9
:101C78000EF047EF0EF0A40EAC6FFF0EAD6F32EC16
:101C880032F04DEF0EF0B30EAC6FFF0EAD6F32ECCD
:101C980032F0DD0E0001AC6FFF0EAD6FF1C0AEF09B
:101CA800AF6B32EC32F0E00E0001AC6FFF0EAD6F9F
:101CB80032EC32F0DD0E0001AC6FFF0EAD6FF0C0FC
:101CC800AEF0AF6B32EC32F0E00E0001AC6FFF0EFD
:101CD800AD6F32EC32F0DD0E0001AC6FFF0EAD6F70
:101CE800EFC0AEF0AF6B32EC32F0E00E0001AC6F3B
:101CF800FF0EAD6F32EC32F0DD0E0001AC6FFF0E5F
:101D0800AD6FEEC0AEF0AF6B32EC32F0E00E00011A
:101D1800AC6FFF0EAD6F32EC32F0DD0E0001AC6F30
:101D2800FF0EAD6F52C0AEF0AF6B32EC32F0E00E8A
:101D38000001AC6FFF0EAD6F32EC32F0DD0E00012A
:101D4800AC6FFF0EAD6F51C0AEF0AF6B32EC32F03E
:101D5800E00E0001AC6FFF0EAD6F32EC32F0DD0E1D
:101D68000001AC6FFF0EAD6F50C0AEF0AF6B32EC40
:101D780032F0DA0E0001AC6FFF0EAD6F32EC32F0CC
:101D88000001C051D8A4CBEF0EF0CDEF0EF0D3EF89
:101D98000EF01B0EAC6FFC0EAD6F32EC32F0120081
:101DA800F29E0101586B9A0E0001AC6FFE0EAD6FEA
:101DB80036C1AEF037C1AFF032EC32F00001EC05BD
:101DC800D8A4E9EF0EF0EBEF0EF004EF0FF06C0E75
:101DD800010136193711D8B4F4EF0EF0F6EF0EF012
:101DE800FDEF0EF0670E0001AC6FFD0EAD6F32EC2B
:101DF80032F0520E0001AC6FFD0EAD6F32EC32F0D6
:101E0800020E0001EC19D8A40CEF0FF00EEF0FF042
:101E180014EF0FF0F50EAC6FFD0EAD6F32EC32F033
:101E28001B0E0001AC6FFC0EAD6F32EC32F0010EF0
:101E38000001BD6F010EBC6FBC51B76FB86BB73BEB
:101E4800B83BF00EB817B7510F0BB813F00EB71711
:101E5800BDC0B9F0FF0EB9270F0EB917B951B72792
:101E6800000EB823F10EB725BA6FFF0EB821BB6F6D
:101E7800BAC0E3F0BBC0E4F0000EE4BFFF0EE56FAC
:101E8800E66F36C1B7F037C1B8F0000EB8BFFF0E25
:101E9800B96FBA6FE351B75DE451B859E551B95913
:101EA800E651BA59D8A05BEF0FF05DEF0FF015EFD0
:101EB80011F0D20EAC6FFF0EAD6FE3C0AEF0E4C010
:101EC800AFF0E5C0B0F0E6C0B1F032EC32F0D89037
:101ED8000001E335D96EE435DA6E820ED926050E97
:101EE800DA22DECFB7F0DDCFB8F0B7C0E7F0B8C080
:101EF800E8F0E96BEA6BBD0EAC6FFF0EAD6FE7C0A3
:101F0800AEF0E8C0AFF0E9C0B0F0EAC0B1F032EC32
:101F180032F00001EC05D8A494EF0FF096EF0FF023
:101F28004CEF10F0EA51E9110BE1A90EE75D8F0EB5
:101F3800E859D8A0A2EF0FF0A4EF0FF0BAEF0FF016
:101F4800EA51E91109E1780EE75D970EE859D8B032
:101F5800B0EF0FF0B2EF0FF0BAEF0FF0820EAC6FE8
:101F6800FE0EAD6F32EC32F02CEF10F0EA51E911B1
:101F78000BE1A70EE75D020EE859D8A0C6EF0FF0F7
:101F8800C8EF0FF0DEEF0FF0EA51E91109E1D60EC4
:101F9800E75D040EE859D8B0D4EF0FF0D6EF0FF094
:101FA800DEEF0FF0080EAC6FFF0EAD6F32EC32F0C3
:101FB8002CEF10F0EA51E9110BE1930EE75D060EE4
:101FC800E859D8A0EAEF0FF0ECEF0FF002EF10F0AD
:101FD800EA51E91109E1C20EE75D080EE859D8B0E7
:101FE800F8EF0FF0FAEF0FF002EF10F0120EAC6FEF
:101FF800FF0EAD6F32EC32F02CEF10F0EA51E91120
:102008000BE18C0EE75D0A0EE859D8A00EEF10F030
:1020180010EF10F026EF10F0EA51E91109E1BB0EBC
:10202800E75D0C0EE859D8B01CEF10F01EEF10F069
:1020380026EF10F03A0EAC6FFF0EAD6F32EC32F0B7
:102048002CEF10F01C0EAC6FFF0EAD6F32EC32F0BF
:10205800000E0001E325D96E020EE421DA6EDF508E
:10206800D8B439EF10F03BEF10F04CEF10F0700ED1
:10207800AC6FFF0EAD6F000EE325D96E020EE421A2
:10208800DA6EDF50B76FB751AE6FAF6B32EC32F02C
:10209800020E0001EC19D8A454EF10F056EF10F01E
:1020A8000CEF11F0EA51E9110BE1130EE75D700E28
:1020B800E859D8A062EF10F064EF10F07AEF10F052
:1020C800EA51E91109E1E20EE75D770EE859D8B067
:1020D80070EF10F072EF10F07AEF10F0300EAC6F76
:1020E800FF0EAD6F32EC32F0ECEF10F0EA51E9116F
:1020F8000BE1D70EE75D010EE859D8A086EF10F086
:1021080088EF10F09EEF10F0EA51E91109E12A0E6C
:10211800E75D030EE859D8B094EF10F096EF10F091
:102128009EEF10F0080EAC6FFF0EAD6F32EC32F080
:10213800ECEF10F0EA51E9110BE1570EE75D040EE0
:10214800E859D8A0AAEF10F0ACEF10F0C2EF10F0E9
:10215800EA51E91109E1AA0EE75D050EE859D8B080
:10216800B8EF10F0BAEF10F0C2EF10F0120EAC6F2B
:10217800FF0EAD6F32EC32F0ECEF10F0EA51E911DE
:102188000BE1BB0EE75D090EE859D8A0CEEF10F0C1
:10219800D0EF10F0E6EF10F0EA51E91109E10E0E68
:1021A800E75D0B0EE859D8B0DCEF10F0DEEF10F069
:1021B800E6EF10F0930EAC6FFF0EAD6F32EC32F01D
:1021C800ECEF10F01C0EAC6FFF0EAD6F32EC32F07E
:1021D800000E0001E325D96E020EE421DA6EDF500D
:1021E800D8B4F9EF10F0FBEF10F00CEF11F0700E0F
:1021F800AC6FFF0EAD6F000EE325D96E020EE42121
:10220800DA6EDF50B76FB751AE6FAF6B32EC32F0AA
:102218005E0E0001AC6FFF0EAD6F32EC32F01BEFBB
:1022280011F0570EAC6FFF0EAD6F32EC32F00001BB
:10223800BC2B070EBC6523EF11F025EF11F020EF42
:102248000FF01B0EAC6FFC0EAD6F32EC32F00001DC
:10225800BD2B100EBD6533EF11F035EF11F01EEFF9
:102268000FF0FCEC32F0F28E1200DFC070F0E0C02C
:1022780071F0E1C072F0E2C073F0B6EC1BF000013F
:10228800CE6FB80EAC6FFF0EAD6FCEC0AEF0AF6BB9
:1022980032EC32F00001CE51D8B455EF11F057EFBF
:1022A80011F079EF11F0D60EAC6FFF0EAD6F32EC76
:1022B80032F00001CE51020D000EF324D96E010E4A
:1022C800F420DA6E3EC1DEFF3FC1DDFF809A520E78
:1022D8000001C46F2B0EC36F000EE82EFED7C32F6C
:1022E800FCD7C42FFAD70000808A1B0E0001AC6F00
:1022F800FC0EAD6F32EC32F0010122512311241192
:1023080025112611271128112911D8B48EEF11F0A3
:1023180090EF11F083EF13F021EE22F0070EDE6A42
:10232800E806FDE20001CE51D8A49DEF11F09FEF21
:1023380011F07AEF13F0000EE36F000EE46F000E59
:10234800E56F000EE66FE3C0C3F0E4C0C4F0D890B8
:10235800C337C437D890C337C437000EC3256E6F50
:10236800010EC4216F6F66EC32F00001C56FC551D4
:10237800CA6FCB6BCC6BCD6BE3C0C3F0E4C0C4F0C9
:10238800D890C337C437D890C337C437010EC32594
:102398006E6F010EC4216F6F66EC32F00001C56FDD
:1023A800C5C0C6F0C76BC86BC96BC8C0C9F0C7C089
:1023B800C8F0C6C0C7F0C66BCA51C625CA6FCB5194
:1023C800C721CB6FCC51C821CC6FCD51C921CD6F5E
:1023D800E3C0C3F0E4C0C4F0D890C337C437D89082
:1023E800C337C437020EC3256E6F010EC4216F6F49
:1023F80066EC32F00001C56FC5C0C6F0C76BC86B8C
:10240800C96BC7C0C9F0C6C0C8F0C76BC66BCA5194
:10241800C625CA6FCB51C721CB6FCC51C821CC6F11
:10242800CD51C921CD6FE3C0C3F0E4C0C4F0D8904A
:10243800C337C437D890C337C437030EC3256E6F6C
:10244800010EC4216F6F66EC32F00001C56FC5C084
:10245800C6F0C76BC86BC96BC6C0C9F0C86BC76B81
:10246800C66BCA51C625CA6FCB51C721CB6FCC5199
:10247800C821CC6FCD51C921CD6F010EE327000EC5
:10248800E423E523E623CA290CE1CB290AE1CC2978
:1024980008E1CD29D8B453EF12F055EF12F062EFEE
:1024A80012F0E651E511E41109E10A0EE35DD8A046
:1024B80060EF12F062EF12F0A7EF11F0E307000EE1
:1024C800E45BE55BE65BE651E511E41109E10B0E1F
:1024D800E35DD8A072EF12F074EF12F07CEF12F007
:1024E800E50EAC6FFD0EAD6F32EC32F083EF13F0FA
:1024F800E3C0C3F0E4C0C4F0D890C337C437D89061
:10250800C337C437000EC3256E6F010EC4216F6F29
:10251800DFC070F0ADEC2FF0E3C0C3F0E4C0C4F04E
:102528000001D890C337C437D890C337C437010ED9
:10253800C3256E6F010EC4216F6FE0C070F0ADEC63
:102548002FF0E3C0C3F0E4C0C4F00001D890C33753
:10255800C437D890C337C437020EC3256E6F010E37
:10256800C4216F6FE1C070F0ADEC2FF00001EC05F5
:10257800D8A4C1EF12F0C3EF12F0DFEF12F0E3C0FE
:10258800C3F0E4C0C4F0D890C337C437D890C33779
:10259800C437030EC3256E6F010EC4216F6F4EC082
:1025A800C5F0C53BF00EC517E251C511706FADEC13
:1025B8002FF0F3EF12F0E3C0C3F0E4C0C4F0D890FA
:1025C800C337C437D890C337C437030EC3256E6FDB
:1025D800010EC4216F6FE2C070F0ADEC2FF0410E18
:1025E8000001AC6FFE0EAD6F32EC32F00001DF512E
:1025F800B76FE051B86FE151B96FE251BA6FBB6B79
:10260800BC6BBD6BBE6B8FEC31F0A60E0001AC6FDE
:10261800FE0EAD6F32EC32F0000E0001E36F000EDB
:10262800E46F000EE56F000EE66FE651E511E41168
:1026380009E10A0EE35DD8A024EF13F026EF13F0AA
:1026480028EF13F04BEF13F0050E0001C46F0F0EC7
:10265800C36FF10EE82EFED7C32FFCD7C42FFAD7CD
:102668008290050E0001C46F0F0EC36FF10EE82EA5
:10267800FED7C32FFCD7C42FFAD78280010E0001E2
:10268800E327000EE423E523E62319EF13F0DFC068
:1026980070F0E0C071F0E1C072F0E2C073F0B6EC27
:1026A8001BF00001CE6FCE51D8B45DEF13F05FEF91
:1026B80013F06BEF13F0CE51020D000EF324D96E18
:1026C800010EF420DA6E3EC1DEFF3FC1DDFF520E7F
:1026D8000001C46F2B0EC36F000EE82EFED7C32F68
:1026E800FCD7C42FFAD7000083EF13F08280E80EDE
:1026F800AC6FFB0EAD6F32EC32F06BEF13F01200E3
:1027080040EC32F0808A0101676B0F015D6B5C6BF6
:10271800D08EF19EF180F290F286F28E5A89010EE7
:102728000001EB6FEB51D8A49CEF13F09EEF13F070
:10273800A2EF13F0060E7D6E820EAF6EEB05D8A4E5
:10274800A8EF13F0AAEF13F0ADEF13F07D6A440E73
:10275800AF6E920ED56ED60E726FF90E736FC9EC0E
:1027680027F05C0E0001726FFE0E736FC9EC27F044
:102778002B0E0001726FFA0E736FC9EC27F05C0E16
:102788000001726FFE0E736FC9EC27F08290FCECAB
:1027980021F082800001ED6B43EC33F0F28E81B4BE
:1027A800D8EF13F0DAEF13F03DEF14F0150E010136
:1027B800DB6FC60EE82EFED7DB2FFCD70000010E1C
:1027C80001012A27000E2B232C232D232D512C11F8
:1027D8000BE1890E2A5D130E2B59D8A0F6EF13F0E2
:1027E800F8EF13F03DEF14F08290000E2A6F000E00
:1027F8002B6F000E2C6F000E2D6F100E0001AC6FAA
:10280800FB0EAD6F32EC32F0010E0101436F000E8A
:10281800426F280E425D010E4359D8A016EF14F0FE
:1028280018EF14F01AEF14F028EF14F042C16EF00C
:1028380043C16FF0FF0E0001706FADEC2FF0010186
:10284800424B432B0DEF14F0520E0101DC6F2B0E9F
:10285800DB6F000EE82EFED7DB2FFCD7DC2FFAD774
:102868000000828081A43BEF14F03DEF14F036EFB6
:1028780014F001015A51D8B444EF14F047EF14F0A2
:10288800010E48EF14F0000EDB6FDC6B81B44FEFE4
:1028980014F052EF14F0010E53EF14F0000EDB1792
:1028A800000EDC172D512C112B1107E1C90E2A5DE2
:1028B800D8B061EF14F064EF14F0010E65EF14F076
:1028C800000EDB17000EDC172D512C110CE1E80E61
:1028D8002A5D030E2B59D8A074EF14F077EF14F08B
:1028E800010E78EF14F0000EDB17000EDC17DB5139
:1028F800DC11D8B482EF14F084EF14F094EF14F0E4
:10290800500E226FC30E236F000E246F000E256F2A
:10291800000E266F000E276F000E286F000E296F1D
:1029280022512311241125112611271128112911AB
:10293800D8B4A1EF14F0A3EF14F009EF15F02207B3
:10294800000E235B245B255B265B275B285B295BEA
:1029580022C16EF023C16FF024C170F025C171F05F
:1029680026C172F027C173F028C174F029C175F02F
:10297800E80E0001766F030E776F000E786F000E79
:10298800796F000E7A6F000E7B6F000E7C6F000E61
:102998007D6F39EC28F06EC0DBF16FC0DCF170C0E0
:1029A800DDF171C0DEF172C0DFF173C0E0F174C017
:1029B800E1F175C0E2F10101DB51DC11DD11DE113D
:1029C800DF11E011E111E211D8A4EDEF14F0EFEFFF
:1029D80014F0F8EF14F082A0F4EF14F0F7EF14F00D
:1029E8008280F8EF14F08290010122512311241102
:1029F80025112611271128112911D8A406EF15F041
:102A080008EF15F009EF15F08280000E81B4010E71
:102A18005A6F81A412EF15F014EF15F01CEF15F0A2
:102A2800000E2A6F000E2B6F000E2C6F000E2D6FFC
:102A38005D51D8A422EF15F024EF15F026EF15F01C
:102A4800EEEC25F001015851D8B42DEF15F02FEF19
:102A580015F031EF15F0D4EC0EF001015D51D8B44A
:102A680038EF15F03AEF15F0D3EF13F05D6BF29EE7
:102A7800020E0001ED19D8A444EF15F046EF15F049
:102A880048EF15F0D4EC0EF00001EC05D8A44FEF98
:102A980015F051EF15F082EF15F0ED51D8B457EF5E
:102AA80015F059EF15F072EF15F0D7C0B7F0D8C090
:102AB800B8F0D9C0B9F0DAC0BAF0DBC0BBF0DCC0FE
:102AC800BCF0DDC0BDF0DEC0BEF066EC26F05E0EE8
:102AD8000001AC6FFF0EAD6F32EC32F08AEC0BF0F8
:102AE800FFEC2FF00009D8B47CEF15F07EEF15F05D
:102AF80082EF15F0BDEC1AF039EC11F0020E00016E
:102B0800EC19D8A48AEF15F08CEF15F0AEEF15F09C
:102B1800D7C0DFF0D8C0E0F0D9C0E1F0DAC0E2F009
:102B2800DD0EAC6FFE0EAD6F32EC32F0D7C0B7F0F1
:102B3800D8C0B8F0D9C0B9F0DAC0BAF0DBC0BBF081
:102B4800DCC0BCF0DDC0BDF0DEC0BEF08FEC31F003
:102B580039EC11F0000E496E000E486E520E01015C
:102B6800DC6F2B0EDB6F000EE82EFED7DB2FFCD7B9
:102B7800DC2FFAD70000F28ED3EF13F08FEF04F0BA
:102B880000019A51D96EDA6ADECFF6FFDDCFF7FF82
:102B9800F86A0800F550250AD8A4D5EF15F0D7EF44
:102BA80015F079EF17F09A51D96EDA6ADE2A000E1D
:102BB800DD22000E476E000E466E46C04AF0010147
:102BC8003269336900019E6B07EF16F04A829A5109
:102BD800D96EDA6ADE2A000EDD2207EF16F0010E42
:102BE8009E6F07EF16F09A51D96EDA6ADECFF6FFBC
:102BF800DDCFF7FFF86A0800F550300AD8B4EAEFDD
:102C080015F0F3EF15F09E51D8B40DEF16F00FEF55
:102C180016F0F7EF15F09AC06EF09BC06FF0EEEC6F
:102C28002AF06EC046F06FC047F047BE20EF16F09E
:102C38001EEF16F025EF16F04A80466C471ED8B0F6
:102C4800472A00019A51D96EDA6ADECFA4F0DDCFA7
:102C5800A5F0A4C0F6FFA5C0F7FFF86A0800F5CFF5
:102C6800A3F042EF16F0A44BA52B5DEF16F0690E0A
:102C7800A36F5DEF16F0A36B5DEF16F0A351580A32
:102C8800D8B43BEF16F03C0AD8B43BEF16F00D0A67
:102C9800D8B43BEF16F0050AD8B437EF16F0190A86
:102CA800D8B43BEF16F00D0AD8B43BEF16F03FEF5F
:102CB80016F0A4C0F6FFA5C0F7FFF86A0800F550A3
:102CC800640AD8B46AEF16F06CEF16F0A2EF16F0AB
:102CD800A4C0F6FFA5C0F7FFF86A0800F550690A16
:102CE800D8A479EF16F07BEF16F0C8EF16F0A2EF34
:102CF80016F09B51D96EDA6ADF50DF2ADF2AD96EC7
:102D0800DA6ADECF9FF0DDCFA0F0000EA0BFFF0E85
:102D1800A16FA26FADEF16F09B51D96EDA6A040E5F
:102D2800DF26DF5CD96EDA6ADECF9FF0DECFA0F057
:102D3800DECFA1F0DECFA2F0ADEF16F0A351690A05
:102D4800D8B47DEF16F0050AD8B490EF16F0ADEFC1
:102D580016F0010EA4259C6F000EA5219D6F9A51B7
:102D6800D96EDA6A9CC0DEFF9DC0DDFF99C086F08F
:102D78009FC087F0A0C088F0A1C089F0A2C08AF0E7
:102D880084EC1DF08BEF17F0A4C0F6FFA5C0F7FF89
:102D9800F86A0800F550780AD8B4D5EF16F0D7EFDE
:102DA80016F01DEF17F0A4C0F6FFA5C0F7FFF86AEC
:102DB8000800F550580AD8B4E4EF16F0E6EF16F01C
:102DC8001DEF17F0A4C0F6FFA5C0F7FFF86A0800CA
:102DD800F550750AD8A4F3EF16F0F5EF16F070EF7A
:102DE80017F01DEF17F09B51D96EDA6ADF50DF2A12
:102DF800DF2AD96EDA6ADECF9CF0DDCF9DF09CC069
:102E08009FF09DC0A0F0A16BA26B28EF17F09B511B
:102E1800D96EDA6A040EDF26DF5CD96EDA6ADECF95
:102E28009FF0DECFA0F0DECFA1F0DECFA2F028EF3A
:102E380017F0A351690AD8B4F7EF16F0050AD8B409
:102E48000BEF17F028EF17F0010EA4259C6F000E6A
:102E5800A5219D6F9A51D96EDA6A9CC0DEFF9DC08C
:102E6800DDFF5BEF17F099C086F09FC087F0A0C028
:102E780088F0A1C089F0A2C08AF0CEEC23F08BEFD5
:102E880017F099C086F09FC087F0A0C088F0A1C055
:102E980089F0A2C08AF0A4C0F6FFA5C0F7FFF86ABF
:102EA8000800F5CF8BF057EC21F08BEF17F0A4C09A
:102EB800F6FFA5C0F7FFF86A0800F550580AD8B41D
:102EC80045EF17F02D0AD8B437EF17F00D0AD8B42C
:102ED80045EF17F070EF17F000019A51D96EDA6AD2
:102EE800DE2A000EDD228BEF17F09A51D96EDA6ACE
:102EF800DECFF6FFDDCFF7FFF86A0800F550706FF8
:102F0800716B99C072F033EC2AF070EF17F0120071
:102F18002D50D96EDA6ADECFF6FFDDCFF7FFF86AFB
:102F28000800F550250AD8A49CEF17F09EEF17F07B
:102F38003DEF19F02D50D96EDA6ADE2A000EDD2237
:102F4800000E476E000E466E46C04AF00101326917
:102F58003369316ACDEF17F04A822D50D96EDA6A9B
:102F6800DE2A000EDD22CDEF17F0010E316ECDEF17
:102F780017F02D50D96EDA6ADECFF6FFDDCFF7FFF6
:102F8800F86A0800F550300AD8B4B0EF17F0B9EF76
:102F980017F03150D8B4D3EF17F0D5EF17F0BDEFD5
:102FA80017F02DC001F02EC002F047EC2BF001C045
:102FB80046F002C047F047BEE6EF17F0E4EF17F01F
:102FC800EBEF17F04A80466C471ED8B0472A2D50C1
:102FD800D96EDA6ADECF37F0DDCF38F037C0F6FFCA
:102FE80038C0F7FFF86A0800F5CF36F007EF18F099
:102FF800374A382A22EF18F0690E366E22EF18F099
:10300800366A22EF18F03650580AD8B400EF18F094
:103018003C0AD8B400EF18F00D0AD8B400EF18F045
:10302800050AD8B4FCEF17F0190AD8B400EF18F065
:103038000D0AD8B400EF18F004EF18F037C0F6FF07
:1030480038C0F7FFF86A0800F550640AD8B42FEFC3
:1030580018F031EF18F067EF18F037C0F6FF38C0F6
:10306800F7FFF86A0800F550690AD8A43EEF18F08F
:1030780040EF18F08DEF18F067EF18F02E50D96E6A
:10308800DA6ADF50DF2ADF2AD96EDA6ADECF32F059
:10309800DDCF33F0000E33BEFF0E346E356E72EFA7
:1030A80018F02E50D96EDA6A040EDF26DF5CD96E6E
:1030B800DA6ADECF32F0DECF33F0DECF34F0DECFA7
:1030C80035F072EF18F03650690AD8B442EF18F0AC
:1030D800050AD8B455EF18F072EF18F0010E37242E
:1030E8002F6E000E3820306E2D50D96EDA6A2FC040
:1030F800DEFF30C0DDFF2CC019F032C01AF033C03B
:103108001BF034C01CF035C01DF056EC1EF04FEF1C
:1031180019F037C0F6FF38C0F7FFF86A0800F55015
:10312800780AD8B49AEF18F09CEF18F0E2EF18F08C
:1031380037C0F6FF38C0F7FFF86A0800F550580A9C
:10314800D8B4A9EF18F0ABEF18F0E2EF18F037C0D9
:10315800F6FF38C0F7FFF86A0800F550750AD8A4DA
:10316800B8EF18F0BAEF18F035EF19F0E2EF18F0F1
:103178002E50D96EDA6ADF50DF2ADF2AD96EDA6A72
:10318800DECF2FF0DDCF30F02FC032F030C033F07B
:10319800346A356AEDEF18F02E50D96EDA6A040EEB
:1031A800DF26DF5CD96EDA6ADECF32F0DECF33F0AD
:1031B800DECF34F0DECF35F0EDEF18F03650690A87
:1031C800D8B4BCEF18F0050AD8B4D0EF18F0EDEF7A
:1031D80018F0010E37242F6E000E3820306E2D5057
:1031E800D96EDA6A2FC0DEFF30C0DDFF20EF19F09C
:1031F8002CC019F032C01AF033C01BF034C01CF0D8
:1032080035C01DF05AEC24F04FEF19F02CC019F01E
:1032180032C01AF033C01BF034C01CF035C01DF0AA
:1032280037C0F6FF38C0F7FFF86A0800F5CF1EF080
:103238009FEC22F04FEF19F037C0F6FF38C0F7FFC8
:10324800F86A0800F550580AD8B40AEF19F02D0AA0
:10325800D8B4FCEF18F00D0AD8B40AEF19F035EF1E
:1032680019F02D50D96EDA6ADE2A000EDD224FEFF2
:1032780019F02D50D96EDA6ADECFF6FFDDCFF7FFF1
:10328800F86A0800F550036E046A2CC005F091EC4A
:103298002AF035EF19F01200010E00018A6F8280C2
:1032A800000E896F000E886F0101606B5F6BF29EE4
:1032B800290E0001856F960E846F7F0EE82EFED7CB
:1032C800842FFCD7852FFAD7000E01012E6F000E30
:1032D8002F6F000E306F000E316F60C18BF0000150
:1032E8008A51D8B47AEF19F07CEF19F082EF19F00F
:1032F800A2EC28F000018C6F86EF19F06EEC29F033
:1033080000018C6F8A6B4F50D8B48DEF19F08FEF96
:1033180019F094EF19F0010EB7EC32F0BCEF1AF087
:103328008C05D8B49AEF19F09CEF19F0B3EF19F0A7
:10333800040E8C19D8B4A3EF19F0A5EF19F0B3EF68
:1033480019F0170E8C19D8B4ACEF19F0AEEF19F0CC
:10335800B3EF19F0020EB7EC32F0BCEF1AF08C059F
:10336800D8A4B9EF19F0BBEF19F09AEF1AF06EEC88
:1033780029F00101606F4F50D8B4C5EF19F0C7EFBD
:1033880019F0CCEF19F0040EB7EC32F0BCEF1AF0DC
:1033980000018B29D8A4D3EF19F0D5EF19F0D6EF97
:1033A80019F08B696EEC29F001015F6F4F50D8B4AA
:1033B800E0EF19F0E2EF19F0E7EF19F0050EB7ECBE
:1033C80032F0BCEF1AF05F51FF0A6019D8B4EFEF82
:1033D80019F0F1EF19F0F6EF19F0150E75EC2EF063
:1033E80073EF19F0010E0001E36F000EE46F000E99
:1033F800E56F000EE66F20EF1AF06EEC29F0000181
:103408008C6F4F50D8B40BEF1AF00DEF1AF012EF83
:103418001AF0060EB7EC32F0BCEF1AF0000EE325F6
:10342800D96E050EE421DA6E8CC0DFFF010EE327AA
:10343800000EE423E523E623E651E511E41109E152
:10344800830EE35DD8A02BEF1AF02DEF1AF001EFF1
:103458001AF0000E6F6F800E6E6F8FEC2CF06EC03E
:1034680042F16FC043F1050181510001856F846B02
:1034780005018251000184250101406F0501000EFC
:10348800000185210101416F4051421909E1415173
:103498004319D8B452EF1AF054EF1AF059EF1AF052
:1034A800070EB7EC32F0BCEF1AF000018205831169
:1034B800D8A461EF1AF063EF1AF07EEF1AF02EC16C
:1034C80084F02FC185F030C186F031C187F0070E36
:1034D800D8908437853786378737E82E6CEF1AF00F
:1034E80084C076F085C077F086C078F087C079F020
:1034F800A6EC1CF0020E000182198311D8A487EFF4
:103508001AF089EF1AF09AEF1AF02EC184F02FC141
:1035180085F0070ED89084378537E82E8EEF1AF09D
:1035280084C072F085C073F0ECEC2EF0010E01013E
:103538002E27000E2F2330233123060E75EC2EF094
:1035480082A0A9EF1AF0ACEF1AF08280ADEF1AF062
:10355800829001013151301109E1040E2F5DD8A08C
:10356800B8EF1AF0BAEF1AF071EF19F0F28E8290F4
:1035780012000001EF510101CE6FCD6B0001EE5139
:103588000101CD25D56F0001000E0101CE21D66FB6
:10359800000E3F6F000E3E6FD5C1D5F0D6C1D6F0F4
:1035A800ABEC20F0D5C03EF1D6C03FF101013E5151
:1035B80000016E6F6F6B66EC32F00101D76FD75167
:1035C800D519D76F0001F0510101D7190F0BD16F31
:1035D8005250D719D26F5150D719D36F5050D719AD
:1035E800D46F000E0001DF6F000EE06F000EE16F78
:1035F800000EE26F0101D4510001DF25DF6F000EDC
:10360800E021E06F000EE121E16F000EE221E26FA0
:10361800D3C1CDF10101CE6BCF6BD06BCFC1D0F14F
:10362800CEC1CFF1CDC1CEF1CD6B0001DF5101018B
:10363800CD250001DF6FE0510101CE210001E06FCF
:10364800E1510101CF210001E16FE2510101D021D7
:103658000001E26FD2C1CDF10101CE6BCF6BD06B0F
:10366800CEC1D0F1CDC1CFF1CE6BCD6B0001DF5112
:103678000101CD250001DF6FE0510101CE210001DC
:10368800E06FE1510101CF210001E16FE251010139
:10369800D0210001E26FD1C1CDF10101CE6BCF6B1A
:1036A800D06BCDC1D0F1CF6BCE6BCD6B0001DF51AC
:1036B8000101CD250001DF6FE0510101CE2100019C
:1036C800E06FE1510101CF210001E16FE2510101F9
:1036D800D0210001E26FF1510F0B4E6EF0390F0B44
:1036E8004E180F0A0101656FB10E0001AC6FFD0E97
:1036F800AD6F32EC32F00001DF51B76FE051B86FB7
:10370800E151B96FE251BA6FBB6BBC6BBD6BBE6B5D
:103718008FEC31F0F30E0001AC6FFE0EAD6F4EC0B2
:10372800AEF0AF6B32EC32F00001ED51D8B49FEF40
:103738001BF0A1EF1BF0B5EF1BF0440EAC6FFF0EB2
:10374800AD6F3EC1AEF03FC1AFF032EC32F08E0E3D
:103758000001AC6FFE0EAD6F65C1AEF0AF6B32EC21
:1037680032F01200000E0001806F000E7F6FEC0532
:10377800D8A4C1EF1BF0C3EF1BF0DDEF1BF04EC068
:1037880074F0756B766B776B1C0ED8907437753741
:1037980076377737E82EC9EF1BF070517411706FC8
:1037A80071517511716F72517611726F7351771172
:1037B800736F7FC074F080C075F0D8907437753718
:1037C800D89074377537000E74256E6F010E752109
:1037D8006F6F66EC32F00001766F76517B6F7C6B11
:1037E8007D6B7E6B7FC074F080C075F0D8907437A5
:1037F8007537D89074377537010E74256E6F010EC2
:1038080075216F6F66EC32F00001766F76C077F045
:10381800786B796B7A6B79C07AF078C079F077C079
:1038280078F0776B7B5177257B6F7C5178217C6FA3
:103838007D5179217D6F7E517A217E6F7FC074F032
:1038480080C075F0D89074377537D890743775374D
:10385800020E74256E6F010E75216F6F66EC32F0E3
:103868000001766F76C077F0786B796B7A6B78C0E9
:103878007AF077C079F0786B776B7B5177257B6F1F
:103888007C5178217C6F7D5179217D6F7E517A2121
:103898007E6F7FC074F080C075F0D890743775372C
:1038A800D89074377537030E74256E6F010E752125
:1038B8006F6F66EC32F00001766F76C077F0786B48
:1038C800796B7A6B77C07AF0796B786B776B7B5111
:1038D80077257B6F7C5178217C6F7D5179217D6FB5
:1038E8007E517A217E6F7F4B802B7B5170190FE1BF
:1038F8007C5171190CE17D51721909E17E517319DE
:10390800D8B489EF1CF08BEF1CF096EF1CF08051B7
:1039180009E10B0E7F5DD8A094EF1CF096EF1CF028
:10392800DDEF1BF00B0E7F198011D8A49EEF1CF061
:10393800A0EF1CF0A4EF1CF0000E806F000E7F6F4C
:103948007F5112000001795108E17805D8A0AFEF46
:103958001CF0B1EF1CF0BBEF1CF0010E7C6F000EE9
:103968007D6F000E7E6F000E7F6FC3EF1CF0000EA0
:103978007C6F000E7D6F000E7E6F000E7F6F77C02C
:1039880000F376C001F3000E816F010E806F000E08
:103998008025D96E050E8121DA6E010E8025E16E33
:1039A800030E8121E26EDFCFE7FF804B812B81BFC1
:1039B800E7EF1CF0815109E1810E805DD8A0E7EFA7
:1039C8001CF0E9EF1CF0CBEF1CF0500E7C116F6F70
:1039D8007D51706F000E716F030E726F000E746F61
:1039E800820E736FF90EF66EF60EF76EF86A09001E
:1039F800F5CF7AF00900F5CF7BF002D80DEF1DF076
:103A08000500FA6E7A51FD6E7B51FE6EFF6AFA5020
:103A180012000009D8B413EF1DF015EF1DF083EF65
:103A28001DF0640E0101616F3DEF1DF0070EF66E8B
:103A3800F70EF76EF86A0900F5CF7AF00900F5CFAE
:103A48007BF002D832EF1DF00500FA6E00017A51C2
:103A5800FD6E7B51FE6EFF6AFA501200680E00017F
:103A68007A6FE40EE82EFED77A2FFCD7000001010A
:103A78006107030EF66EF70EF76EF86A0900F5CFC8
:103A88007AF00900F5CF7BF002D855EF1DF005005C
:103A9800FA6E00017A51FD6E7B51FE6EFF6AFA5094
:103AA80012000009D8A45BEF1DF05DEF1DF01AEFBE
:103AB8001DF0010EF66EF70EF76EF86A0900F5CFE5
:103AC8007AF00900F5CF7BF002D875EF1DF00500FC
:103AD800FA6E00017A51FD6E7B51FE6EFF6AFA5054
:103AE80012000101666F6651D8A47DEF1DF07FEFCB
:103AF8001DF081EF1DF083EF1DF0080E676F1200B7
:103B0800010E00018D6F8ABF8CEF1DF08FEF1DF045
:103B1800010E90EF1DF0000E906F46C08EF047C06A
:103B28008FF09051D8B49BEF1DF09DEF1DF0B4EFCE
:103B38001DF08E07D8A08F079051D8A4A6EF1DF0CE
:103B4800A8EF1DF0AEEF1DF0000E8C6F2B0E8B6FE3
:103B5800B2EF1DF0000E8C6F2D0E8B6F8BC090F0A6
:103B6800000E926F1F0E916F0101BA6BFFEF1DF0EF
:103B78009107D8A092079B0E9125D96E010E92212C
:103B8800DA6E87C06EF088C06FF089C070F08AC0A6
:103B980071F00A0E726F000E736F000E746F000ED4
:103BA800756FDEEC26F06EC078F06FC079F011EC1E
:103BB80031F000017851300FDF6E8D6B8E07D8A081
:103BC8008F0787C06EF088C06FF089C070F08AC018
:103BD80071F00A0E726F000E736F000E746F000E94
:103BE800756FE3EC24F06EC087F06FC088F070C08A
:103BF80089F071C08AF0000192BF0BEF1EF092515C
:103C080008E19105D8A00BEF1EF00DEF1EF034EF80
:103C18001EF08751881189118A11D8A416EF1EF059
:103C280018EF1EF0BCEF1DF08D51D8A41EEF1EF04A
:103C380020EF1EF0BCEF1DF08FBF2BEF1EF08F5151
:103C480008E18E05D8A02BEF1EF02DEF1EF034EF03
:103C58001EF04AB232EF1EF034EF1EF0BCEF1DF03A
:103C68009051D8B43AEF1EF03CEF1EF047EF1EF02B
:103C78009107D8A092079B0E9125D96E010E92212B
:103C8800DA6E90C0DFFF86C07EF09B0E91257F6FB5
:103C9800010E9221806F8EC081F08FC082F044ECBB
:103CA8002CF01200010E206E1DBE5DEF1EF060EFBD
:103CB8001EF0010E61EF1EF0000E236E46C021F0CB
:103CC80047C022F02350D8B46CEF1EF06EEF1EF000
:103CD80085EF1EF02106D8A022062350D8A477EF3E
:103CE8001EF079EF1EF07FEF1EF0000E1F6E2B0EF8
:103CF8001E6E83EF1EF0000E1F6E2D0E1E6E1EC070
:103D080023F0000E256E1F0E246E0101BA6BCFEF53
:103D18001EF02406D8A025069B0E2424D96E010E79
:103D28002520DA6E1AC001F01BC002F01CC003F097
:103D38001DC004F00A0E056E000E066E000E076E1A
:103D4800000E086E54EC27F001C00BF002C00CF016
:103D58002CEC31F00B50300FDF6E206A2106D8A012
:103D680022061AC001F01BC002F01CC003F01DC0DF
:103D780004F00A0E056E000E066E000E076E000EA9
:103D8800086E69EC25F001C01AF002C01BF003C0F0
:103D98001CF004C01DF025BEDAEF1EF0255008E126
:103DA8002404D8A0DAEF1EF0DCEF1EF003EF1FF0BA
:103DB8001A501B101C101D10D8A4E5EF1EF0E7EFD9
:103DC8001EF08DEF1EF02050D8A4EDEF1EF0EFEF9F
:103DD8001EF08DEF1EF022BEFAEF1EF0225008E111
:103DE8002104D8A0FAEF1EF0FCEF1EF003EF1FF03D
:103DF8004AB201EF1FF003EF1FF08DEF1EF02350C2
:103E0800D8B409EF1FF00BEF1FF016EF1FF02406D0
:103E1800D8A025069B0E2424D96E010E2520DA6E23
:103E280023C0DFFF19C011F09B0E2424126E010E6F
:103E38002520136E21C014F022C015F022EC2DF0BD
:103E480012000001BA5108E1B905D8A02EEF1FF001
:103E580030EF1FF03AEF1FF0010EBE6F000EBF6F7C
:103E6800000EC06F000EC16F42EF1FF0000EBE6F54
:103E7800000EBF6F000EC06F000EC16FB8C000F318
:103E8800B7C001F3500EBE116F6FBF51706F000EB7
:103E9800716F030E726F000E746F020E736F000E57
:103EA800756F040E766F000E786F010E776FFD0E3A
:103EB800F66EF60EF76EF86A0900F5CFBBF009004A
:103EC800F5CFBCF002D872EF1FF00500FA6EBB51B7
:103ED800FD6EBC51FE6EFF6AFA501200E80E010139
:103EE800616F9AEF1FF0070EF66EF70EF76EF86A1D
:103EF8000900F5CFBBF00900F5CFBCF002D88FEF71
:103F08001FF00500FA6E0001BB51FD6EBC51FE6E3C
:103F1800FF6AFA50120001016107150E0001BB6F1C
:103F2800C60EE82EFED7BB2FFCD70000030EF66E98
:103F3800F70EF76EF86A0900F5CFBBF00900F5CF68
:103F4800BCF002D8B2EF1FF00500FA6E0001BB51B9
:103F5800FD6EBC51FE6EFF6AFA5012000009D8A42B
:103F6800B8EF1FF0BAEF1FF077EF1FF0010EF66EF3
:103F7800F70EF76EF86A0900F5CFBBF00900F5CF28
:103F8800BCF002D8D2EF1FF00500FA6E0001BB5159
:103F9800FD6EBC51FE6EFF6AFA5012000001BD6F43
:103FA800BD51C26FC36BC251C311D8A4DEEF1FF05D
:103FB800E0EF1FF0E2EF1FF0ECEF1FF01E0EAC6F0A
:103FC800FC0EAD6FC2C0AEF0C3C0AFF032EC32F041
:103FD80012000001BA5108E1B905D8A0F6EF1FF0A8
:103FE800F8EF1FF002EF20F0010EBF6F000EC06F58
:103FF800000EC16F000EC26F0AEF20F0000EBF6FF7
:10400800000EC06F000EC16F000EC26FB8C000F383
:10401800B7C001F3500EBF116F6FC051706F000E23
:10402800716F030E726F000E746F020E736F000EC5
:10403800756F040E766FBBC077F0786BFD0EF66E69
:10404800F60EF76EF86A0900F5CFBCF00900F5CF57
:10405800BDF002D839EF20F00500FA6EBC51FD6EB4
:10406800BD51FE6EFF6AFA501200E80E0101616F41
:1040780058EF20F0070EF66EF70EF76EF86A090093
:10408800F5CFBCF00900F5CFBDF002D856EF20F00F
:104098000500FA6E0001BC51FD6EBD51FE6EFF6A4F
:1040A800FA50120001016107030EF66EF70EF76E63
:1040B800F86A0900F5CFBCF00900F5CFBDF002D8C9
:1040C80070EF20F00500FA6E0001BC51FD6EBD5185
:1040D800FE6EFF6AFA5012000009D8A476EF20F0AD
:1040E80078EF20F03EEF20F0010EF66EF70EF76E37
:1040F800F86A0900F5CFBCF00900F5CFBDF002D889
:1041080090EF20F00500FA6E0001BC51FD6EBD5124
:10411800FE6EFF6AFA5012000001BE6FBE51C36FF7
:10412800C46BC351C411D8A49CEF20F09EEF20F0BB
:10413800A0EF20F0AAEF20F01E0EAC6FFC0EAD6FC2
:10414800C3C0AEF0C4C0AFF032EC32F01200010EC2
:104158000101C86FC851020D000EF324D96E010E7B
:10416800F420DA6EDECFC9F1DDCFCAF1C9C1C3F1DF
:10417800CAC1C4F1D890C337C437C3C1B7F0C4C1EA
:10418800B8F00001B96BBA6B800EBB6FEDEC1FF095
:104198000101CC6B000ECC25D96EDA6A040EDA2246
:1041A800DF50C36FC351C66FC76B010ECC25D96EE4
:1041B800DA6A040EDA22DF50C36FC351C56FC46BCD
:1041C800C651C425C66FC751C521C76FC651000166
:1041D800D5190CE10101C7510001D619D8B4F7EF80
:1041E80020F0FAEF20F0010EFBEF20F0000E0101A5
:1041F800CB6FCB51D8A403EF21F005EF21F008EFE6
:1042080021F0CC51020FCC6FCB51D8A40EEF21F086
:1042180010EF21F018EF21F07F0ECC6516EF21F09A
:1042280018EF21F0CEEF20F0C82BCB51D8A41FEF08
:1042380021F021EF21F029EF21F0090EC86527EFC1
:1042480021F029EF21F0AEEF20F0CB51D8A42FEFC9
:1042580021F031EF21F03DEF21F0D5C0C5F0D6C0F7
:10426800C6F042EC23F0C5C0C9F1C6C0CAF152EF8E
:1042780021F0CCC16EF000016F6B000E716F020E61
:10428800706FD1EC29F00101C95100016E250101BF
:10429800C96FCA5100016F210101CA6FC9C1D5F0A8
:1042A800CAC1D6F01200010E0001936F46C094F007
:1042B80047C095F0780E8B19D8B465EF21F067EFF9
:1042C80021F06DEF21F0000E926F410E916F71EFAA
:1042D80021F0000E926F610E916F91C090F0000E68
:1042E800986F1F0E976F0101BA6BB7EF21F0970710
:1042F800D8A0980787510F0B966F0A0E966187EF23
:1043080021F089EF21F08DEF21F0300E962790EF04
:1043180021F09051F60F96279B0E9725D96E010E26
:104328009821DA6E96C0DFFF936B9407D8A09507A3
:1043380087C08CF088C08DF089C08EF08AC08FF05D
:10434800050EACEF21F0D8908F338E338D338C333C
:10435800E82EA7EF21F08CC087F08DC088F08EC0C2
:1043680089F08FC08AF0000198BFC4EF21F09851FE
:1043780009E1020E975DD8A0C4EF21F0C6EF21F045
:10438800EDEF21F08751881189118A11D8A4CFEF58
:1043980021F0D1EF21F07BEF21F09351D8A4D7EF92
:1043A80021F0D9EF21F07BEF21F095BFE4EF21F068
:1043B800955108E19405D8A0E4EF21F0E6EF21F04B
:1043C800EDEF21F04AB2EBEF21F0EDEF21F07BEFBA
:1043D80021F086C07EF09B0E97257F6F010E9821F5
:1043E800806F94C081F095C082F044EC2CF01200EC
:1043F800270E0001AC6FFD0EAD6F32EC32F0E40E0B
:104408000001AC6FFC0EAD6F32EC32F0040E00010F
:10441800AC6FFC0EAD6F32EC32F0AE0E0001AC6F3B
:10442800FB0EAD6F32EC32F00E0E0001AC6FF80EE1
:10443800AD6F32EC32F0660E0001AC6FF80EAD6F66
:1044480032EC32F0A40E0001AC6FF90EAD6F32EC15
:1044580032F0EE0E0001AC6FFA0EAD6F32EC32F0B6
:10446800540E0001AC6FFB0EAD6F32EC32F0FB0E58
:104478000001AC6FF80EAD6F32EC32F0910E000116
:10448800AC6FFB0EAD6F32EC32F0320E0001AC6F48
:10449800FB0EAD6F32EC32F0BA0E0001AC6FF80EC5
:1044A800AD6F32EC32F07C0E0001AC6FFA0EAD6FDE
:1044B80032EC32F0000E00016F6F000E6E6F66EC8A
:1044C80032F00001B76FB751E36FE46BE56BE66B51
:1044D800E329E411E511E611D8A475EF22F077EF8E
:1044E80022F07DEF22F0540EAC6FFA0EAD6F32EC75
:1044F80032F0210E0001E319E411E511E611D8B4F8
:1045080088EF22F08AEF22F090EF22F06E0EAC6F67
:10451800F90EAD6F32EC32F01B0E0001AC6FFC0EE1
:10452800AD6F32EC32F0730E0001AC6FFB0EAD6F65
:1045380032EC32F01200010E266E46C027F047C05A
:1045480028F0780E1E18D8B4ACEF22F0AEEF22F0A7
:10455800B4EF22F0000E246E410E236EB8EF22F065
:10456800000E246E610E236E23C025F0000E2B6E04
:104578001F0E2A6E0101BA6BFEEF22F02A06D8A0A0
:104588002B061A500F0B296E0A0E2960CEEF22F067
:10459800D0EF22F0D4EF22F0300E2926D7EF22F008
:1045A8002550F60F29269B0E2A24D96E010E2B20A2
:1045B800DA6E29C0DFFF266A2706D8A028061AC0A7
:1045C8001FF01BC020F01CC021F01DC022F0050EFA
:1045D800F3EF22F0D8902232213220321F32E82E17
:1045E800EEEF22F01FC01AF020C01BF021C01CF013
:1045F80022C01DF02BBE0AEF23F02B5009E1020E5A
:104608002A5CD8A00AEF23F00CEF23F033EF23F055
:104618001A501B101C101D10D8A415EF23F017EF0B
:1046280023F0C2EF22F02650D8A41DEF23F01FEF8D
:1046380023F0C2EF22F028BE2AEF23F0285008E129
:104648002704D8A02AEF23F02CEF23F033EF23F030
:104658004AB231EF23F033EF23F0C2EF22F019C052
:1046680011F09B0E2A24126E010E2B20136E27C008
:1046780014F028C015F022EC2DF01200000E0001F5
:10468800D06F000ED16F000ED26F000ED36FD0C066
:10469800B7F0D1C0B8F0D2C0B9F0D3C0BAF0800E2C
:1046A800BB6FEDEC1FF0800E0001D025D06F000E1F
:1046B800D121D16F000ED221D26F000ED321D36F3A
:1046C800D46B000ED425D96EDA6A040EDA22DF50D4
:1046D800C76F010ED425D96EDA6A040EDA22DF50CC
:1046E800C96FC751C86FC551C8190AE1C651C91960
:1046F800D8B481EF23F084EF23F0010E85EF23F087
:10470800000ECF6FD451020FD46FCF51D8A48FEFC2
:1047180023F091EF23F099EF23F07F0ED46597EF04
:1047280023F099EF23F065EF23F0CF51D8A49FEF42
:1047380023F0A1EF23F0ACEF23F0D35109E1020EEF
:10474800D25DD8A0AAEF23F0ACEF23F04BEF23F013
:10475800D451D025C76F000ED121C86F000ED221C9
:10476800C96F000ED321CA6F7E0EC725CB6FFF0E0F
:10477800C821CC6FFF0EC921CD6FFF0ECA21CE6FA5
:10478800D890CE33CD33CC33CB33CBC0C5F0CCC0EF
:10479800C6F01200010E00018B6F46C08CF047C0B6
:1047A8008DF0000E8F6F1F0E8E6F0101BA6B1AEF1E
:1047B80024F08E07D8A08F079B0E8E25D96E010E88
:1047C8008F21DA6E87C06EF088C06FF089C070F0F4
:1047D8008AC071F00A0E726F000E736F000E746F4C
:1047E800000E756F6BEC2DF000016E51300FDF6E0F
:1047F8008B6B8C07D8A08D0787C06EF088C06FF0D0
:1048080089C070F08AC071F00A0E726F000E736F63
:10481800000E746F000E756F9FEC2BF06EC087F062
:104828006FC088F070C089F071C08AF000018E51A5
:104838008F11D8B422EF24F024EF24F04BEF24F0AA
:104848008751881189118A11D8A42DEF24F02FEFF0
:1048580024F0DDEF23F08B51D8A435EF24F037EFA7
:1048680024F0DDEF23F08DBF42EF24F08D5108E1F5
:104878008C05D8A042EF24F044EF24F04BEF24F04D
:104888004AB249EF24F04BEF24F0DDEF23F086C065
:104898007EF09B0E8E257F6F010E8F21806F8CC05E
:1048A80081F08DC082F044EC2CF01200010E1E6ED7
:1048B80046C01FF047C020F0000E226E1F0E216E6A
:1048C8000101BA6BA4EF24F02106D8A022069B0EA2
:1048D8002124D96E010E2220DA6E1AC001F01BC005
:1048E80002F01CC003F01DC004F00A0E056E000E95
:1048F800066E000E076E000E086EB0EC2DF001502B
:10490800300FDF6E1E6A1F06D8A020061AC001F0FD
:104918001BC002F01CC003F01DC004F00A0E056E97
:10492800000E066E000E076E000E086EF2EC2BF0FD
:1049380001C01AF002C01BF003C01CF004C01DF037
:1049480021502210D8B4ABEF24F0ADEF24F0D4EF0F
:1049580024F01A501B101C101D10D8A4B6EF24F018
:10496800B8EF24F068EF24F01E50D8A4BEEF24F06E
:10497800C0EF24F068EF24F020BECBEF24F02050E5
:1049880008E11F04D8A0CBEF24F0CDEF24F0D4EF3A
:1049980024F04AB2D2EF24F0D4EF24F068EF24F0E8
:1049A80019C011F09B0E2124126E010E2220136EE5
:1049B8001FC014F020C015F022EC2DF012000001E9
:1049C800776B75BFECEF24F0EAEF24F0F6EF24F0F4
:1049D800751F741F731F726D000E73237423752364
:1049E800010E776F71BFFDEF24F0FBEF24F007EFA6
:1049F80025F0711F701F6F1F6E6D000E6F237023DF
:104A08007123010E771B000E786F000E796F000E70
:104A18007A6F000E7B6F7251731174117511D8B4CF
:104A280018EF25F01AEF25F050EF25F0010E766FFC
:104A380024EF25F0D8907237733774377537762B93
:104A480075AF29EF25F02BEF25F01EEF25F0D89054
:104A5800783779377A377B3772516E5D73516F5972
:104A68007451705975517159D8A03DEF25F03FEF39
:104A780025F048EF25F072516E5F73516F5B7451EA
:104A8800705B7551715B7881D8907533743373336B
:104A98007233762F2BEF25F07751D8B456EF25F0E7
:104AA80058EF25F060EF25F07B1F7A1F791F786D8E
:104AB800000E79237A237B2378C06EF079C06FF0DB
:104AC8007AC070F07BC071F012000A6A08BE71EFFC
:104AD80025F06FEF25F07BEF25F0081E071E061E58
:104AE800056C000E062207220822010E0A6E04BE7B
:104AF80082EF25F080EF25F08CEF25F0041E031ED1
:104B0800021E016C000E022203220422010E0A1A60
:104B1800000E0B6E000E0C6E000E0D6E000E0E6E6B
:104B28000550061007100810D8B49DEF25F09FEF28
:104B380025F0D5EF25F0010E096EA9EF25F0D890E4
:104B48000536063607360836092A08AEAEEF25F0D0
:104B5800B0EF25F0A3EF25F0D8900B360C360D36C4
:104B68000E360550015C065002580750035808508D
:104B78000458D8A0C2EF25F0C4EF25F0CDEF25F0FA
:104B88000550015E0650025A0750035A0850045A4D
:104B98000B80D8900832073206320532092EB0EF62
:104BA80025F00A50D8B4DBEF25F0DDEF25F0E5EF6E
:104BB80025F00E1E0D1E0C1E0B6C000E0C220D2275
:104BC8000E220BC001F00CC002F00DC003F00EC0A5
:104BD80004F01200B70EF66EF60EF76EF86A0900CA
:104BE800F5CFD9F10900F5CFDAF102D806EF26F0B2
:104BF8000500FA6E0101D951FD6EDA51FE6EFF6AA9
:104C0800FA5012000009D8B40CEF26F00EEF26F087
:104C180065EF26F0B30EF66EF60EF76EF86A090029
:104C2800F5CFD9F10900F5CFDAF102D826EF26F051
:104C38000500FA6E0101D951FD6EDA51FE6EFF6A68
:104C4800FA5012004D6E0A0E4D18D8B42EEF26F009
:104C580030EF26F04CEF26F00D0E4D18D8B437EF94
:104C680026F039EF26F04CEF26F0BB0E01015E2549
:104C7800D96EDA6A010EDA224DC0DFFF5E2B080E0C
:104C88005E6549EF26F04BEF26F04CEF26F05E6BA1
:104C98000D0E4D18D8A453EF26F055EF26F065EF0A
:104CA80026F0BB0E01015E25D96EDA6A010EDA2202
:104CB800DF6A5E6BBB0E0001C56F010EC66F91EC1B
:104CC80004F01200B7C0BFF0B8C0C0F0B9C0C1F05E
:104CD800BAC0C2F0BBC0C3F0BCC0C4F0BDC0C5F010
:104CE800BEC0C6F0210E83EF26F00001D890C6336F
:104CF800C533C433C333C233C133C033BF33E82EE3
:104D080079EF26F0BFC0C7F0C0C0C8F0C1C0C9F075
:104D1800C2C0CAF0C3C0CBF0C4C0CCF0C5C0CDF08F
:104D2800C6C0CEF0990EAC6FFF0EAD6FC7C0AEF027
:104D3800C8C0AFF0C9C0B0F0CAC0B1F0CBC0B2F0C3
:104D4800CCC0B3F0CDC0B4F0CEC0B5F032EC32F088
:104D580020EEB7F0FF0EDE140001C76FFF0EDE1461
:104D6800C86FFF0EDE14C96FFF0EDE14CA6F000E87
:104D7800DE14CB6F000EDE14CC6F000EDE14CD6F88
:104D8800000EDE14CE6F990EAC6FFF0EAD6FC7C06C
:104D9800AEF0C8C0AFF0C9C0B0F0CAC0B1F0CBC067
:104DA800B2F0CCC0B3F0CDC0B4F0CEC0B5F032ECA8
:104DB80032F012000001776B71BFE7EF26F0E5EFE4
:104DC80026F0F1EF26F0711F701F6F1F6E6D000E39
:104DD8006F2370237123010E776F75BFF8EF26F0EC
:104DE800F6EF26F000EF27F0751F741F731F726D22
:104DF800000E732374237523725173117411751186
:104E0800D8B409EF27F00BEF27F03BEF27F0010E9E
:104E1800766F15EF27F0D890723773377437753778
:104E2800762B75AF1AEF27F01CEF27F00FEF27F05E
:104E380072516E5D73516F59745170597551715932
:104E4800D8A029EF27F02BEF27F033EF27F0725186
:104E58006E5F73516F5B7451705B7551715BD89065
:104E68007533743373337233762F1CEF27F0775111
:104E7800D8B441EF27F043EF27F04BEF27F0711F2D
:104E8800701F6F1F6E6D000E6F23702371236EC02D
:104E98006EF06FC06FF070C070F071C071F01200EA
:104EA8000A6A04BE5CEF27F05AEF27F066EF27F096
:104EB800041E031E021E016C000E0222032204229D
:104EC800010E0A6E08BE6DEF27F06BEF27F075EF45
:104ED80027F0081E071E061E056C000E0622072274
:104EE80008220550061007100810D8B47EEF27F0E6
:104EF80080EF27F0B0EF27F0010E096E8AEF27F058
:104F0800D8900536063607360836092A08AE8FEFD8
:104F180027F091EF27F084EF27F00550015C065049
:104F280002580750035808500458D8A09EEF27F09D
:104F3800A0EF27F0A8EF27F00550015E0650025AAF
:104F48000750035A0850045AD890083207320632DC
:104F58000532092E91EF27F00A50D8B4B6EF27F0A2
:104F6800B8EF27F0C0EF27F0041E031E021E016CE5
:104F7800000E02220322042201C001F002C002F046
:104F880003C003F004C004F01200000E0001796FA2
:104F9800000E786F22EF28F0B90EF66EF60EF76E57
:104FA800F86A0900F5CF74F00900F5CF75F002D85A
:104FB800E8EF27F00500FA6E00017451FD6E755197
:104FC800FE6EFF6AFA5012000009D8B4EEEF27F01F
:104FD800F0EF27F0D0EF27F0B50EF66EF60EF76E6D
:104FE800F86A0900F5CF74F00900F5CF75F002D81A
:104FF8001FEF28F00500FA6E00017451FD6E75511F
:10500800FE6EFF6AFA5078517225766F79517321D6
:10501800776F76C0F6FF77C0F7FF000EF86E0F0EB9
:10502800F76403D00800F55005D0F6CFE9FFF7CFB5
:10503800EAFFEF5012000001784B792B72C06EF036
:1050480073C06FF083EC2FF000016E51785D7951D9
:10505800800A746F6F51800A7459D8A036EF28F00F
:1050680038EF28F0D0EF27F01200000176517711C1
:10507800781179117A117B117C117D11D8B447EF21
:1050880028F049EF28F091EF28F0010E7E6F57EFD6
:1050980028F0D89076377737783779377A377B376B
:1050A8007C377D377E2B7DAF5CEF28F05EEF28F0F4
:1050B8004DEF28F076516E5D77516F5978517059E0
:1050C800795171597A5172597B5173597C5174597C
:1050D8007D517559D8A073EF28F075EF28F085EF4A
:1050E80028F076516E5F77516F5B7851705B79511C
:1050F800715B7A51725B7B51735B7C51745B7D5140
:10510800755BD8907D337C337B337A33793378334E
:10511800773376337E2F5EEF28F06EC06EF06FC067
:105128006FF070C070F071C071F072C072F073C02F
:1051380073F074C074F075C075F01200400E000171
:10514800776F0D0E786F030E796F000E7A6FF4EC9F
:105158002DF0E3EF28F0A00E00D0E82EFDD70001D7
:105168007707000E785B795B7A5B77C06EF078C062
:105178006FF079C070F07AC071F0D00E726F070EC0
:10518800736F000E746F000E756F6BEC2DF00001DD
:105198006E516F1170117111D8A4D5EF28F0D7EFA7
:1051A80028F0E3EF28F082A0DCEF28F0DFEF28F00A
:1051B8008280E0EF28F08290430E75EC2EF09EBAC4
:1051C800E8EF28F0EAEF28F0F6EF28F00001775131
:1051D800781179117A11D8A4F4EF28F0F6EF28F0B5
:1051E800AFEF28F0828000017751781179117A1198
:1051F800D8B401EF29F004EF29F0010E05EF29F0EA
:10520800000E4F6EF4EC2DF012003FEC33F0C7A8FF
:1052180010EF29F012EF29F016EF29F0A7EC31F082
:105228004CEF29F085EC32F00009D8B41EEF29F0D4
:1052380020EF29F031EF29F071EC32F00009D8B4F1
:1052480028EF29F02AEF29F031EF29F0050E0101A6
:10525800216F010E206F4CEF29F07BEC32F0000932
:10526800D8B439EF29F03BEF29F04CEF29F071EC75
:1052780032F00009D8B443EF29F045EF29F04CEF9C
:1052880029F0050E0101216F020E206F4CEF29F065
:1052980001012151020D090EF324F66EF70EF420D8
:1052A800F76EF86A000EF8220900F5CF70F00900D1
:1052B800F5CF71F002D86BEF29F00500FA6E000106
:1052C8007051FD6E7151FE6EFF6AFA5012000101B5
:1052D800216F1200000E0001736F000E726F3A0EFC
:1052E8000101456F980E446F9DEF29F001014407B5
:1052F800D8A0450744514511D8B485EF29F088EF67
:1053080029F0010E89EF29F0000E4F6E4F50D8B4E6
:1053180090EF29F092EF29F09DEF29F0150E75EC2A
:105328002EF00001724B732B3A0E0101456F980E57
:10533800446F9EBAA2EF29F0A4EF29F0BCEF29F040
:1053480044514511D8B4ABEF29F0ADEF29F0BCEFCB
:1053580029F0000173BFBAEF29F0735109E1030E78
:10536800725DD8A0BAEF29F0BCEF29F07AEF29F0E6
:10537800000173BFCCEF29F0735107E1030E725D92
:10538800D8B0C9EF29F0CCEF29F0010ECDEF29F004
:10539800000E4F6EF4EC2DF012000001736B71BF1C
:1053A800DAEF29F0D8EF29F0E0EF29F0706D711FDE
:1053B800D8B0712B010E736F6FBFE7EF29F0E5EFDF
:1053C80029F0EDEF29F06E6D6F1FD8B06F2B010E2D
:1053D800731B000E756F000E746F70517111D8B485
:1053E800F8EF29F0FAEF29F022EF2AF0010E726F98
:1053F80002EF2AF0D89070377137722B71AF07EF30
:105408002AF009EF2AF0FEEF29F0D89074377537A3
:1054180070516E5D71516F59D8A015EF2AF017EFD2
:105428002AF01CEF2AF070516E5F71516F5B748126
:10543800D89071337033722F09EF2AF07351D8B4B2
:1054480028EF2AF02AEF2AF02EEF2AF0746D751F44
:10545800D8B0752B74C06EF075C06FF012000001E3
:105468007251D8B43AEF2AF03CEF2AF044EF2AF010
:105478007251D8A442EF2AF044EF2AF049EF2AF0FB
:105488007051E4EC31F090EF2AF07251D96EDA6A7B
:10549800090ED926DE50DE10D8B455EF2AF057EFA2
:1054A8002AF070EF2AF07251D96EDA6A090ED926FD
:1054B8007251E16EE26A020EE126DE50E65CE650C9
:1054C800800A776FDE50800A7759D8B06EEF2AF0DD
:1054D80070EF2AF090EF2AF07251D96EDA6A020E54
:1054E800D926DECF73F0DDCF74F07251D96EDA6A47
:1054F800DECF75F0DDCF76F073517525D96E745116
:105508007621DA6E70C0DFFF7251D96EDA6A020E48
:10551800D926DE2A000EDD2212000550D8B497EFF6
:105528002AF099EF2AF0A1EF2AF00550D8A49FEFAE
:105538002AF0A1EF2AF0A6EF2AF0035023EC32F06C
:10554800EDEF2AF00550D96EDA6A090ED926DE5039
:10555800DE10D8B4B2EF2AF0B4EF2AF0CDEF2AF07B
:105568000550D96EDA6A090ED9260550E16EE26A4D
:10557800020EE126DE50E65CE650800A0A6EDE5036
:10558800800A0A58D8B0CBEF2AF0CDEF2AF0EDEF19
:105598002AF00550D96EDA6A020ED926DECF06F057
:1055A800DDCF07F00550D96EDA6ADECF08F0DDCF1F
:1055B80009F006500824D96E07500920DA6E03C096
:1055C800DFFF0550D96EDA6A020ED926DE2A000EF0
:1055D800DD221200000E0001746F000E736F6E5111
:1055E800D96EDA6ADECFF6FFDDCFF7FFF86A08007A
:1055F800F5502A0AD8A403EF2BF005EF2BF02EEF75
:105608002BF06E51D96EDA6ADE2A000EDD226F5158
:10561800D96EDA6A020EDF26DF5CD96EDA6ADECF6F
:1056280073F0DECF74F042EF2BF00A0E7303F3CF62
:1056380070F0F4CF71F07403F35071277251702534
:10564800736F000E7121746F6E51D96EDA6ADE2A9B
:10565800000EDD226E51D96EDA6ADECFF6FFDDCF9D
:10566800F7FFF86A0800F550D00F726F090E7265DF
:1056780040EF2BF042EF2BF019EF2BF073C06EF0D8
:1056880074C06FF01200000E076E000E066E015017
:10569800D96EDA6ADECFF6FFDDCFF7FFF86A0800C9
:1056A800F5502A0AD8A45BEF2BF05DEF2BF086EFBC
:1056B8002BF00150D96EDA6ADE2A000EDD22025084
:1056C800D96EDA6A020EDF26DF5CD96EDA6ADECFBF
:1056D80006F0DECF07F09AEF2BF00A0E0602F3CFA2
:1056E80003F0F4CF04F00702F35004260550032416
:1056F800066E000E0420076E0150D96EDA6ADE2AA3
:10570800000EDD220150D96EDA6ADECFF6FFDDCF5A
:10571800F7FFF86A0800F550D00F056E090E05640A
:1057280098EF2BF09AEF2BF071EF2BF006C001F0F9
:1057380007C002F01200000E0001766F000E776FAE
:10574800000E786F000E796F725173117411751114
:10575800D8B4B1EF2BF0B3EF2BF0E9EF2BF0010E3B
:105768007A6FBDEF2BF0D89072377337743775376F
:105778007A2B75AFC2EF2BF0C4EF2BF0B7EF2BF0FD
:10578800D890763777377837793772516E5D73519D
:105798006F597451705975517159D8A0D6EF2BF0C3
:1057A800D8EF2BF0E1EF2BF072516E5F73516F5B06
:1057B8007451705B7551715B7681D8907533743311
:1057C800733372337A2FC4EF2BF076C06EF077C044
:1057D8006FF078C070F079C071F01200000E096E99
:1057E800000E0A6E000E0B6E000E0C6E05500610B1
:1057F80007100810D8B403EF2CF005EF2CF03BEF9E
:105808002CF0010E0D6E0FEF2CF0D89005360636F1
:10581800073608360D2A08AE14EF2CF016EF2CF0D8
:1058280009EF2CF0D89009360A360B360C3605509D
:10583800015C065002580750035808500458D8A075
:1058480028EF2CF02AEF2CF033EF2CF00550015EF6
:105858000650025A0750035A0850045A0980D89033
:1058680008320732063205320D2E16EF2CF009C029
:1058780001F00AC002F00BC003F00CC004F01200E3
:105888004AA049EF2CF04BEF2CF053EF2CF07FC0DF
:1058980078F080C079F07EC07AF071EC30F00001C9
:1058A80082BF5BEF2CF059EF2CF05FEF2CF0000E6D
:1058B800826F000E816F000E856F000E846F70EF8F
:1058C8002CF0000E716F200E706F7EC072F033ECFA
:1058D8002AF00001844B852B8151845D8551800A13
:1058E800836F8251800A8359D8A07DEF2CF07FEF17
:1058F8002CF065EF2CF04AB084EF2CF086EF2CF0FA
:105908008EEF2CF07FC078F080C079F07EC07AF0FE
:1059180071EC30F01200010E0001746F000E766F0A
:10592800000E756FCAEF2CF0000E7425D96EDA6A76
:10593800050EDA22DF50706F7051726F716B7551FE
:105948007119756F76517219766F742B080E736F13
:1059580076AFB1EF2CF0B3EF2CF0C2EF2CF075C09E
:1059680070F076C071F0D89070377137210E7019C9
:10597800756F100E7119766FC7EF2CF0D8907535CA
:10598800756F7635766F732FACEF2CF06E07D8A055
:105998006F076FBFD4EF2CF0D2EF2CF098EF2CF0FC
:1059A80075C06EF076C06FF01200300EF66E660E9F
:1059B800F76E000EF86E01EEE3F010EE08F0090045
:1059C800F5CFEEFFE550E150FAE105EE82F011EE79
:1059D8002CF0EE6AE550E150FCE1E250FAE105EE08
:1059E80000F0820EEE6AE806FDE104EE00F0820E99
:1059F800EE6AE806FDE103EE00F0820EEE6AE806C4
:105A0800FDE102EE00F0960EEE6AE806FDE101EE19
:105A180000F0C30EEE6AE806FDE100EED7F01B0EBB
:105A2800EE6AE806FDE100EE46F00D0EEE6AE806C5
:105A3800FDE153905392000184EF13F04AA027EF41
:105A48002DF029EF2DF031EF2DF012C00BF013C01F
:105A58000CF011C00DF0B5EC30F015BE38EF2DF09C
:105A680036EF2DF03CEF2DF0000E156E000E146E83
:105A7800000E186E000E176E4CEF2DF0000E046E1F
:105A8800200E036E11C005F091EC2AF0174A182A6F
:105A98001450175C1850800A166E1550800A165854
:105AA800D8A059EF2DF05BEF2DF042EF2DF04AB062
:105AB80060EF2DF062EF2DF06AEF2DF012C00BF0C1
:105AC80013C00CF011C00DF0B5EC30F0120000015D
:105AD8007251731174117511D8B475EF2DF077EFF9
