:0400000028EF0DF0E8
:100008004F82E1CF68F0E2CF69F0D9CF6AF0DACF5A
:100018006BF0F3CF6CF0F4CF6DF0F6CF6EF0F7CF56
:100028006FF0F8CF70F0F5CF71F0F2A41EEF00F08A
:1000380020EF00F02EEF00F0000E01015425546F60
:10004800000E5521556F010E5621566F000E57218F
:10005800576FF294F2A633EF00F035EF00F012EF8D
:100068000DF0F2A03AEF00F03CEF00F012EF0DF0C7
:1000780081A841EF00F044EF00F0010E45EF00F0D9
:10008800000E0101876FE6C050F1E7C051F1E8C0EA
:1000980052F1E9C053F1D65054250001E66FD7500C
:1000A800010155210001E76F000E010156210001F1
:1000B800E86F000E010157210001E96F000E0101F0
:1000C800546F000E556F000E566F000E576F000EDE
:1000D800D76E000ED66E464A472A030E0001EC1969
:1000E800D8A479EF00F07BEF00F0A7EF00F0E9511A
:1000F800E8110BE12D0EE65D010EE759D8A087EF58
:1001080000F089EF00F097EF00F02A0E3F6EFF0E27
:10011800406EE6C041F0E7C042F0E8C043F0E9C0F5
:1001280044F093EC4AF0140E46184710D8A49FEFF9
:1001380000F0A1EF00F011EF0DF00001EC6B11EFF2
:100148000DF011EF0DF001018251D8B4AEEF00F0BF
:10015800B0EF00F0FCEF00F0475007E1C80E465C36
:10016800D8B0B9EF00F0BBEF00F0DDEF00F0820E81
:100178000001606F050E616FD8904634D96E473420
:10018800DA6ED890D936DA366051D9266151DA223A
:10019800E6C0DEFFE7C0DEFFE8C0DEFFE9C0DEFF45
:1001A800000E4624D96E020E4720DA6EDF6A11EF80
:1001B8000DF0000E5F6FC80E5E6F0001EC6B010161
:1001C800826B0001EB6B63EC4BF0010E0101886F51
:1001D80011EF0DF020EEDAF0070EDE6AE806FDE218
:1001E800010E01018C6F8D6B0001EA6B11EF0DF0B0
:1001F800050E0001EB19D8A404EF01F006EF01F099
:1002080083EF01F001018C51D8B40DEF01F00FEF2D
:1002180001F083EF01F00001E951E8110BE1AF0EA5
:10022800E65D0B0EE759D8A01CEF01F01EEF01F0B8
:1002380083EF01F0E951E81109E1DA0EE65D0C0EF1
:10024800E759D8B02AEF01F02CEF01F083EF01F065
:10025800020EEC19D8A433EF01F035EF01F03BEFB3
:1002680001F0E20E3F6EFF0E406E93EC4AF02C0E4A
:1002780046184710D8B443EF01F045EF01F04BEFB3
:1002880001F001018C6B0001EB6B11EF0DF0000E1A
:10029800476E000E466E050E0001EB6F820E606F12
:1002A800050E616FD8904634D96E4734DA6ED8900F
:1002B800D936DA366051D9266151DA22E6C0DEFF36
:1002C800E7C0DEFFE8C0DEFFE9C0DEFF000E46241F
:1002D800D96E020E4720DA6EDF6A01018D6B8C6BD6
:1002E800000E616F000E606F010E0001EA6F20EED4
:1002F800DAF0070EDE6AE806FDE211EF0DF0000104
:10030800EA51D8A48AEF01F08CEF01F0CFEF01F0A9
:10031800E951E8110BE17E0EE65D020EE759D8A01F
:1003280098EF01F09AEF01F0CFEF01F0E951E811F1
:1003380009E1CD0EE65D020EE759D8B0A6EF01F04F
:10034800A8EF01F0CFEF01F0000E476E000E466EE9
:10035800820E606F050E616FD8904634D96E4734AF
:10036800DA6ED890D936DA366051D9266151DA2258
:10037800E6C0DEFFE7C0DEFFE8C0DEFFE9C0DEFF63
:10038800000E4624D96E020E4720DA6EDF6A060E8A
:10039800EB6FEEEF00F0060EEB19D8A4D6EF01F0E4
:1003A800D8EF01F032EF02F001018C51D8B4DFEF41
:1003B80001F0E1EF01F032EF02F00001E951E8113C
:1003C8000BE15D0EE65D490EE759D8A0EEEF01F0AE
:1003D800F0EF01F030EF02F0E951E81109E1AC0E5D
:1003E800E65D490EE759D8B0FCEF01F0FEEF01F0E9
:1003F80030EF02F046044710D8B405EF02F007EFDB
:1004080002F009EF02F045EF01F0060EEB6F820EE5
:10041800606F050E616FD8904634D96E4734DA6E36
:10042800D890D936DA366051D9266151DA22E6C039
:10043800DEFFE7C0DEFFE8C0DEFFE9C0DEFF000E3A
:100448004624D96E020E4720DA6EDF6A000E476E28
:10045800000E466E71EF01F001018C6B030E000176
:10046800EB19D8A43AEF02F03CEF02F092EF02F059
:1004780001018C51D8B443EF02F045EF02F092EF3E
:1004880002F00001E951E8110BE1290EE65D1E0EAC
:10049800E759D8A052EF02F054EF02F092EF02F0C1
:1004A800E951E81109E1800EE65D200EE759D8B060
:1004B80060EF02F062EF02F092EF02F0000E476E7A
:1004C800000E466E820E606F050E616FD89046343E
:1004D800D96E4734DA6ED890D936DA366051D926D3
:1004E8006151DA22E6C0DEFFE7C0DEFFE8C0DEFFCA
:1004F800E9C0DEFF000E4624D96E020E4720DA6EF0
:10050800DF6A030EEB6F000E0101616F000E606F72
:100518008D6B010E0001EA6F7BEF01F00001EA51DB
:10052800D8A499EF02F09BEF02F0E8EF02F0E9514E
:10053800E8110BE1790EE65D920EE759D8A0A7EF16
:1005480002F0A9EF02F0E8EF02F0E951E81109E141
:10055800A80EE65D940EE759D8B0B5EF02F0B7EFF4
:1005680002F0E8EF02F0000E476E010E466E010E33
:1005780001018D6FE6C064F1E7C065F1020E00016C
:10058800EC19D8A4CAEF02F0CCEF02F0DAEF02F0CF
:10059800D10E3F6EFD0E406EE6C041F0E7C042F05E
:1005A800E8C043F0E9C044F093EC4AF0010E0001C2
:1005B800EB6F20EEDAF0070EDE6AE806FDE2010EC8
:1005C80001018C6F11EF0DF0EA51D8A4EEEF02F0A3
:1005D800F0EF02F046EF03F0E951E8110BE1510E9C
:1005E800E65D730EE759D8A0FCEF02F0FEEF02F0CB
:1005F80046EF03F0E951E81109E1A40EE65D740E37
:10060800E759D8B00AEF03F00CEF03F046EF03F018
:10061800000E476E010E466E020EEB6F820E606F83
:10062800050E616FD8904634D96E4734DA6ED8908B
:10063800D936DA366051D9266151DA22E6C0DEFFB2
:10064800E7C0DEFFE8C0DEFFE9C0DEFF020EEC19FE
:10065800D8A431EF03F033EF03F039EF03F0A50E20
:100668003F6EFF0E406E93EC4AF0010E0001EA6FF8
:1006780020EEDAF0070EDE6AE806FDE201018C6B77
:1006880011EF0DF00101535152110AE15005130EFB
:100698005159D8A052EF03F054EF03F0D7EF03F00D
:1006A8005351521109E1B80E505D140E5159D8B08A
:1006B80060EF03F062EF03F0D7EF03F08751D8B48F
:1006C80068EF03F06AEF03F0D7EF03F00001EA5197
:1006D800D8A471EF03F073EF03F0D7EF03F0E951FB
:1006E800E8110BE1A50EE65D240EE759D8A07FEFCF
:1006F80003F081EF03F0D7EF03F0E951E81109E1C6
:100708005C0EE65D260EE759D8B08DEF03F08FEF4B
:1007180003F0D7EF03F0000E476E010E466E010E90
:100728000101866F040E0001EB6F020EEC19D8A4CC
:10073800A0EF03F0A2EF03F0B0EF03F0450E3F6E19
:10074800FE0E406EE6C041F0E7C042F0E8C043F05C
:10075800E9C044F093EC4AF0820E0001606F050E88
:10076800616FD8904634D96E4734DA6ED890D9364E
:10077800DA366051D9266151DA22E6C0DEFFE7C0D9
:10078800DEFFE8C0DEFFE9C0DEFF000E0101616F99
:10079800000E606F000E5D6F000E5C6F010E0001B1
:1007A800EA6F7BEF01F0040E0001EB19D8B4DFEF1C
:1007B80003F0E2EF03F0010EE3EF03F0000E606FC9
:1007C800616BEA516017000E611760516111D8B46E
:1007D800F0EF03F0F2EF03F049EF05F0475007E1BF
:1007E800960E465CD8B0FBEF03F0FDEF03F01CEF6C
:1007F80004F0820E606F050E616FD8904634D96E92
:100808004734DA6ED890D936DA366051D926615134
:10081800DA22E6C0DEFFE7C0DEFFE8C0DEFFE9C09F
:10082800DEFF000E4624D96E020E4720DA6EDF6A1C
:10083800E951E8110BE15B0EE65D090EE759D8A016
:1008480028EF04F02AEF04F08FEF04F0E951E811E3
:1008580009E1120EE65D0B0EE759D8B036EF04F049
:1008680038EF04F08FEF04F0000E01015D6F000E09
:100878005C6F8751D8B443EF04F045EF04F05BEFA9
:1008880004F0604B612BD8900001DA35DA6FDB3564
:10089800DB6FDC35DC6FDD35DD6FDE35DE6FDF35D8
:1008A800DF6FE035E06FE135E16F80EF04F0604B1A
:1008B800612BD8900001DA35DA6FDB35DB6FDC3578
:1008C800DC6FDD35DD6FDE35DE6FDF35DF6FE035A0
:1008D800E06FE135E16F010EDA11DA6FDB51DB6FA2
:1008E800DC51DC6FDD51DD6FDE51DE6FDF51DF6F14
:1008F800E051E06FE151E16F380E010160196111BB
:10090800D8A489EF04F08BEF04F011EF0DF0F1ECAF
:100918004AF011EF0DF0E951E8110BE14A0EE65DDE
:10092800040EE759D8A09BEF04F09DEF04F00CEFFC
:1009380005F0E951E81108E1E605060EE759D8B0D7
:10094800A8EF04F0AAEF04F00CEF05F001015C4BEE
:100958005D2B5C055D11D8A4B4EF04F0B6EF04F08C
:10096800B8EF04F011EF0DF0000E5D6F000E5C6F34
:100978008751D8A4C2EF04F0C4EF04F0EBEF04F001
:10098800604B612BD8900001DA35DA6FDB35DB6F0D
:10099800DC35DC6FDD35DD6FDE35DE6FDF35DF6FD3
:1009A800E035E06FE135E16F010EDA11DA6FDB5106
:1009B800DB6FDC51DC6FDD51DD6FDE51DE6FDF5147
:1009C800DF6FE051E06FE151E16FFFEF04F0604B42
:1009D800612BD8900001DA35DA6FDB35DB6FDC3557
:1009E800DC6FDD35DD6FDE35DE6FDF35DF6FE0357F
:1009F800E06FE135E16F380E010160196111D8A48B
:100A080008EF05F00AEF05F011EF0DF08BEF04F099
:100A18007A0E3F6EFF0E406EE6C041F0E7C042F02E
:100A2800E8C043F0E9C044F093EC4AF0475007E1CE
:100A3800C80E465CD8B023EF05F025EF05F045EF6A
:100A480005F0820E0001606F050E616FD890463484
:100A5800D96E4734DA6ED890D936DA366051D9264D
:100A68006151DA22E6C0DEFFE7C0DEFFE8C0DEFF44
:100A7800E9C0DEFF000E4624D96E020E4720DA6E6A
:100A8800DF6A63EC4BF011EF0DF0EA51D8B44FEF89
:100A980005F051EF05F0A1EF06F0030EEB19D8A40D
:100AA80058EF05F05AEF05F0A1EF06F0475007E1BF
:100AB800C80E465CD8B063EF05F065EF05F084EF2B
:100AC80005F0820E606F050E616FD8904634D96EBE
:100AD8004734DA6ED890D936DA366051D926615162
:100AE800DA22E6C0DEFFE7C0DEFFE8C0DEFFE9C0CD
:100AF800DEFF000E4624D96E020E4720DA6EDF6A4A
:100B0800E951E8110BE1CA0EE65D040EE759D8A0D9
:100B180090EF05F092EF05F02CEF06F0010E462459
:100B2800606F000E4720616F60B19DEF05F09FEF89
:100B380005F0A4EF05F0010E01018B6F11EF0DF028
:100B480001018B51D8A4ABEF05F0ADEF05F003EF31
:100B580006F0604B612BDAC060F0DBC061F0DCC0EE
:100B680062F0DDC063F0DEC064F0DFC065F0E0C0B5
:100B780066F0E1C067F00001D890673366336533EB
:100B88006433633362336133603360C0DAF061C069
:100B9800DBF062C0DCF063C0DDF064C0DEF065C08D
:100BA800DFF066C0E0F067C0E1F020EEDAF0000E9A
:100BB800DE10DA6F000EDE10DB6F000EDE10DC6F69
:100BC800000EDE10DD6F000EDE10DE6F000EDE1090
:100BD800DF6F000EDE10E06F800EDE10E16F0101A6
:100BE800615109E1400E605DD8A0FDEF05F0FFEF0F
:100BF80005F011EF0DF00FEC4BF011EF0DF0000EBA
:100C08004624D96E020E4720DA6E020EDF6E00010E
:100C1800EC05D8A412EF06F014EF06F022EF06F068
:100C2800240E3F6EFE0E406EE6C041F0E7C042F073
:100C3800E8C043F0E9C044F093EC4AF046C05EF1E6
:100C480047C05FF1000E476E000E466E45EF05F097
:100C5800010E4624606F000E4720616F60B137EFC8
:100C680006F039EF06F03DEF06F001018B6B11EF4E
:100C78000DF001018B05D8A444EF06F046EF06F00D
:100C880080EF06F0604B612BDAC060F0DBC061F0EA
:100C9800DCC062F0DDC063F0DEC064F0DFC065F088
:100CA800E0C066F0E1C067F00001D89067336633B2
:100CB80065336433633362336133603360C0DAF0C1
:100CC80061C0DBF062C0DCF063C0DDF064C0DEF060
:100CD80065C0DFF066C0E0F067C0E1F00101615176
:100CE80009E1400E605DD8A07CEF06F07EEF06F0CB
:100CF80011EF0DF0FFEF05F0000E4624D96E020E3D
:100D08004720DA6E020EDF6E0001EC05D8A48FEFE3
:100D180006F091EF06F022EF06F02F0E3F6EFE0E62
:100D2800406EE6C041F0E7C042F0E8C043F0E9C0D9
:100D380044F093EC4AF022EF06F0EA51D8B4A7EF5A
:100D480006F0A9EF06F0ECEF07F0060EEB19D8A4B1
:100D5800B0EF06F0B2EF06F0ECEF07F0475007E10E
:100D6800C80E465CD8B0BBEF06F0BDEF06F0DCEF6E
:100D780006F0820E606F050E616FD8904634D96E0A
:100D88004734DA6ED890D936DA366051D9266151AF
:100D9800DA22E6C0DEFFE7C0DEFFE8C0DEFFE9C01A
:100DA800DEFF000E4624D96E020E4720DA6EDF6A97
:100DB800E951E8110BE1090EE65D050EE759D8A0E7
:100DC800E8EF06F0EAEF06F05FEF07F0010E4624C1
:100DD800606F000E4720616F60B1F5EF06F0F7EF26
:100DE80006F0F9EF06F09FEF05F001018B51D8A44A
:100DF80000EF07F002EF07F03EEF07F0604B612BC2
:100E0800DAC060F0DBC061F0DCC062F0DDC063F026
:100E1800DEC064F0DFC065F0E0C066F0E1C067F0F6
:100E28000001D890673366336533643363336233C4
:100E38006133603360C0DAF061C0DBF062C0DCF0BF
:100E480063C0DDF064C0DEF065C0DFF066C0E0F0CE
:100E580067C0E1F00101615109E1180E605DD8A099
:100E680038EF07F03AEF07F011EF0DF023EC4BF0F5
:100E780011EF0DF0000E4624D96E020E4720DA6EEF
:100E8800020EDF6E0001EC05D8A44DEF07F04FEF1E
:100E980007F022EF06F0CA0E3F6EFE0E406EE6C067
:100EA80041F0E7C042F0E8C043F0E9C044F093ECF9
:100EB8004AF022EF06F0010E4624606F000E47202C
:100EC800616F60B16AEF07F06CEF07F06EEF07F043
:100ED80039EF06F001018B05D8A475EF07F077EF1D
:100EE80007F0CBEF07F0604B612BDAC060F0DBC096
:100EF80061F0DCC062F0DDC063F0DEC064F0DFC02A
:100F080065F0E0C066F0E1C067F00001D890673393
:100F1800663365336433633362336133603360C08F
:100F2800DAF061C0DBF062C0DCF063C0DDF064C001
:100F3800DEF065C0DFF066C0E0F067C0E1F020EEEB
:100F4800DAF0000EDE10DA6F000EDE10DB6F000E36
:100F5800DE10DC6F000EDE10DD6F000EDE10DE6FBF
:100F6800000EDE10DF6F000EDE10E06F800EDE1068
:100F7800E16F0101615109E1180E605DD8A0C7EF6A
:100F880007F0C9EF07F011EF0DF03AEF07F0000E88
:100F98004624D96E020E4720DA6E020EDF6E00017B
:100FA800EC05D8A4DAEF07F0DCEF07F022EF06F043
:100FB800D30E3F6EFE0E406EE6C041F0E7C042F031
:100FC800E8C043F0E9C044F093EC4AF022EF06F0A1
:100FD800EA51D8B4F2EF07F0F4EF07F055EF09F053
:100FE800050EEB19D8A4FBEF07F0FDEF07F055EF5E
:100FF80009F0E951E8110BE18D0EE65D050EE759A0
:10100800D8A009EF08F00BEF08F094EF08F0E951C9
:10101800E81109E1B80EE65D060EE759D8B017EFFA
:1010280008F019EF08F094EF08F0DAC060F0DBC0C0
:1010380061F0DCC062F0DDC063F0DEC064F0DFC0E8
:1010480065F0E0C066F0E1C067F0D89067336633BA
:1010580065336433633362336133603360C0DAF01D
:1010680061C0DBF062C0DCF063C0DDF064C0DEF0BC
:1010780065C0DFF066C0E0F067C0E1F020EEDAF0AE
:10108800000EDE10DA6F000EDE10DB6F000EDE10D1
:10109800DC6F000EDE10DD6F000EDE10DE6F000E5E
:1010A800DE10DF6F000EDE10E06F800EDE10E16FE5
:1010B800475007E1960E465CD8B065EF08F067EF39
:1010C80008F086EF08F0820E606F050E616FD89009
:1010D8004634D96E4734DA6ED890D936DA3660514C
:1010E800D9266151DA22E6C0DEFFE7C0DEFFE8C09C
:1010F800DEFFE9C0DEFF000E4624D96E020E47204F
:10110800DA6EDF6A400E46184710D8A48EEF08F052
:1011180090EF08F011EF0DF005EC4BF011EF0DF02A
:10112800E951E8110BE1810EE65D020EE759D8A0FE
:10113800A0EF08F0A2EF08F00FEF09F0E951E8116D
:1011480009E1AC0EE65D030EE759D8B0AEEF08F042
:10115800B0EF08F00FEF09F0DAC060F0DBC061F023
:10116800DCC062F0DDC063F0DEC064F0DFC065F0B3
:10117800E0C066F0E1C067F0D89067336633653346
:101188006433633362336133603360C0DAF061C063
:10119800DBF062C0DCF063C0DDF064C0DEF065C087
:1011A800DFF066C0E0F067C0E1F0475007E1960E57
:1011B800465CD8B0E2EF08F0E4EF08F003EF09F07E
:1011C800820E606F050E616FD8904634D96E473431
:1011D800DA6ED890D936DA366051D9266151DA22DA
:1011E800E6C0DEFFE7C0DEFFE8C0DEFFE9C0DEFFE5
:1011F800000E4624D96E020E4720DA6EDF6A400ED2
:1012080046184710D8A40BEF09F00DEF09F011EFBD
:101218000DF090EF08F0950E3F6EFE0E406EE6C0A2
:1012280041F0E7C042F0E8C043F0E9C044F093EC75
:101238004AF0475007E1960E465CD8B026EF09F011
:1012480028EF09F041EF09F0820E0001606F050EEA
:10125800616FD8904634D96E4734DA6ED890D93653
:10126800DA366051D9266151DA22E6C0DEFFE7C0DE
:10127800DEFFE8C0DEFFE9C0DEFF000E4624D96EBF
:10128800020E4720DA6EDF6A475009E1400E465CDD
:10129800D8A051EF09F053EF09F011EF0DF090EFDE
:1012A80008F0020EEB19D8A45CEF09F05EEF09F024
:1012B800ADEF0AF0EA51D8B464EF09F066EF09F02F
:1012C800ADEF0AF0E951E8110BE1570EE65D040EA7
:1012D800E759D8A072EF09F074EF09F0EFEF09F0C1
:1012E800E951E81109E1AA0EE65D050EE759D8B003
:1012F80080EF09F082EF09F0EFEF09F0D890DA35C6
:10130800DA6FDB35DB6FDC35DC6FDD35DD6FDE3565
:10131800DE6FDF35DF6FE035E06FE135E16F010E3D
:10132800DA11DA6FDB51DB6FDC51DC6FDD51DD6F19
:10133800DE51DE6FDF51DF6FE051E06FE151E16FA9
:10134800475007E1960E465CD8B0ADEF09F0AFEF15
:1013580009F0CEEF09F0820E606F050E616FD8902C
:101368004634D96E4734DA6ED890D936DA366051B9
:10137800D9266151DA22E6C0DEFFE7C0DEFFE8C009
:10138800DEFFE9C0DEFF000E4624D96E020E4720BC
:10139800DA6EDF6A1A0E46184710D8A4D6EF09F09D
:1013A800D8EF09F011EF0DF019EC4BF011EF0DF03B
:1013B800010EDA11DA6FDB51DB6FDC51DC6FDD51C6
:1013C800DD6FDE51DE6FDF51DF6FE051E06FE1511D
:1013D800E16F11EF0DF0E951E8110BE1D70EE65D71
:1013E800010EE759D8A0FBEF09F0FDEF09F066EF11
:1013F8000AF0E951E81109E12A0EE65D030EE75902
:10140800D8B009EF0AF00BEF0AF066EF0AF0D890AF
:10141800DA35DA6FDB35DB6FDC35DC6FDD35DD6F58
:10142800DE35DE6FDF35DF6FE035E06FE135E16F28
:10143800475007E1960E465CD8B025EF0AF027EF33
:101448000AF046EF0AF0820E606F050E616FD890C1
:101458004634D96E4734DA6ED890D936DA366051C8
:10146800D9266151DA22E6C0DEFFE7C0DEFFE8C018
:10147800DEFFE9C0DEFF000E4624D96E020E4720CB
:10148800DA6EDF6A1A0E46184710D8A44EEF0AF033
:1014980050EF0AF011EF0DF0D8EF09F0D8900001E5
:1014A800DA35DA6FDB35DB6FDC35DC6FDD35DD6FC8
:1014B800DE35DE6FDF35DF6FE035E06FE135E16F98
:1014C80011EF0DF063EC4BF046C05EF147C05FF1E1
:1014D800475007E1C80E465CD8B075EF0AF077EFC1
:1014E8000AF098EF0AF0820E0001606F050E616F36
:1014F800D8904634D96E4734DA6ED890D936DA3671
:101508006051D9266151DA22E6C0DEFFE7C0DEFF6E
:10151800E8C0DEFFE9C0DEFF000E4624D96E020EE9
:101528004720DA6E030EDF6E0001EC05D8A49FEFAA
:101538000AF0A1EF0AF011EF0DF0120E3F6EFF0E48
:10154800406E46C041F047C042F093EC4AF011EFBC
:101558000DF0EB05D8A4B3EF0AF0B5EF0AF011EFE0
:101568000DF0E951E8110BE18C0EE65D0A0EE75922
:10157800D8A0C1EF0AF0C3EF0AF0AAEF0BF0E951C7
:10158800E81109E1BB0EE65D0C0EE759D8B0CFEFC4
:101598000AF0D1EF0AF0AAEF0BF06C0E46184710CC
:1015A800D8A4D9EF0AF0DBEF0AF002EF0BF0010143
:1015B8008D6B8C6B820E0001606F050E616FD89089
:1015C8004634D96E4734DA6ED890D936DA36605157
:1015D800D9266151DA22E6C0DEFFE7C0DEFFE8C0A7
:1015E800DEFFE9C0DEFF000E4624D96E020E47205A
:1015F800DA6EDF6AFBEC4AF011EF0DF0020E4618C6
:101608004710D8B40AEF0BF00CEF0BF016EF0BF005
:10161800030E46184710D8A414EF0BF016EF0BF082
:1016280045EF05F0020E46184710D8A41EEF0BF040
:1016380020EF0BF026EF0BF0E6C062F1E7C063F194
:1016480011EF0DF0030E46184710D8A42EEF0BF03B
:1016580030EF0BF045EF05F0010164510001606FB8
:10166800010165510001616F626B636B7A0E646FF3
:10167800050E656FD8904634D96E4734DA6ED89027
:10168800D936DA366451D9266551DA2260C0DEFFD0
:1016980061C0DEFF62C0DEFF63C0DEFFFE0E4624CF
:1016A800D96E010E4720DA6EDF6A0101625100012E
:1016B800606F010163510001616F626B636B7E0EA5
:1016C800646F050E656FD8904634D96E4734DA6E6C
:1016D800D890D936DA366451D9266551DA2260C0F5
:1016E800DEFF61C0DEFF62C0DEFF63C0DEFFFF0E0B
:1016F8004624D96E010E4720DA6EDF6A820E606FCB
:10170800050E616FD8904634D96E4734DA6ED8909A
:10171800D936DA366051D9266151DA22E6C0DEFFC1
:10172800E7C0DEFFE8C0DEFFE9C0DEFF000E4624AA
:10173800D96E020E4720DA6EDF6A010E0101896F49
:10174800000E616F000E606F42EF03F001018951D6
:10175800D8B4B1EF0BF0B3EF0BF011EF0DF00001BF
:10176800E951E8110BE1930EE65D060EE759D8A0A2
:10177800C0EF0BF0C2EF0BF049EF0CF0E951E811A4
:1017880009E1C20EE65D080EE759D8B0CEEF0BF0BE
:10179800D0EF0BF049EF0CF0475007E1960E465C8E
:1017A800D8B0D9EF0BF0DBEF0BF0FAEF0BF0820EAD
:1017B800606F050E616FD8904634D96E4734DA6E83
:1017C800D890D936DA366051D9266151DA22E6C086
:1017D800DEFFE7C0DEFFE8C0DEFFE9C0DEFF000E87
:1017E8004624D96E020E4720DA6EDF6A46B0FFEF54
:1017F8000BF001EF0CF003EF0CF09FEF05F0010187
:101808008B51D8A40AEF0CF00CEF0CF022EF0CF07F
:10181800604B612BD8900001DA35DA6FDB35DB6F6E
:10182800DC35DC6FDD35DD6FDE35DE6FDF35DF6F34
:10183800E035E06FE135E16FDCEF09F0000E476E4F
:10184800000E466E63EC4BF00001EC05D8A42FEFB8
:101858000CF031EF0CF0A5EF00F0000E4624D96E25
:10186800020E4720DA6E020EDF6E850E3F6EFE0E08
:10187800406EE6C041F0E7C042F0E8C043F0E9C07E
:1018880044F093EC4AF011EF0DF0E951E8110BE147
:10189800A70EE65D020EE759D8A055EF0CF057EFFA
:1018A8000CF0CCEF0CF0E951E81109E1D60EE65D39
:1018B800040EE759D8B063EF0CF065EF0CF0CCEFED
:1018C8000CF0475007E1960E465CD8B06EEF0CF06E
:1018D80070EF0CF08FEF0CF0820E606F050E616FE9
:1018E800D8904634D96E4734DA6ED890D936DA367D
:1018F8006051D9266151DA22E6C0DEFFE7C0DEFF7B
:10190800E8C0DEFFE9C0DEFF000E4624D96E020EF5
:101918004720DA6EDF6A46B094EF0CF096EF0CF0D1
:1019280098EF0CF039EF06F001018B05D8A49FEF72
:101938000CF0A1EF0CF0A5EF0CF0604B612B52EF0F
:101948000AF0000E476E000E466E63EC4BF0000185
:10195800EC05D8A4B2EF0CF0B4EF0CF0A5EF00F052
:10196800000E4624D96E020E4720DA6E020EDF6E94
:101978003A0E3F6EFE0E406EE6C041F0E7C042F000
:10198800E8C043F0E9C044F093EC4AF011EF0DF0E1
:1019980063EC4BF046C05EF147C05FF1475007E18A
:1019A800C80E465CD8B0DBEF0CF0DDEF0CF0FEEFB4
:1019B8000CF0820E0001606F050E616FD8904634FE
:1019C800D96E4734DA6ED890D936DA366051D926CE
:1019D8006151DA22E6C0DEFFE7C0DEFFE8C0DEFFC5
:1019E800E9C0DEFF000E4624D96E020E4720DA6EEB
:1019F800030EDF6E0001EC05D8A405EF0DF007EF2C
:101A08000DF0A5EF00F0220E3F6EFF0E406E46C0AF
:101A180041F047C042F093EC4AF0F29071C0F5FFF4
:101A280070C0F8FF6FC0F7FF6EC0F6FF6DC0F4FF1F
:101A38006CC0F3FF6BC0DAFF6AC0D9FF69C0E2FF70
:101A480068C0E1FF4F92110021EF45F0C9C072F064
:101A5800CAC073F0DC0E0001746FFF0E756FF5ECF1
:101A680046F0000172517311D8A43DEF0DF03FEF1D
:101A78000DF043EF0DF03DEC3DF094EF14F0C9C0CC
:101A880072F0CAC073F0D60E746FFF0E756FF5EC66
:101A980046F0000172517311D8A455EF0DF057EFBD
:101AA8000DF065EF0DF0EC6B0101836B846B826BBD
:101AB800710E0001B06FFE0EB16F78EC4AF094EF32
:101AC80014F0C9C072F0CAC073F0D90E746FFF0E5B
:101AD800756FF5EC46F0000172517311D8A477EFD9
:101AE8000DF079EF0DF0E3EF0DF0EC2B040EEC6543
:101AF80080EF0DF082EF0DF083EF0DF0EC6B8F0EA1
:101B0800B06FFE0EB16FECC0B2F0B36B78EC4AF078
:101B18000001EC51D8A493EF0DF095EF0DF09DEF77
:101B28000DF0720EB06FFD0EB16F78EC4AF0010146
:101B3800846B0001EC05D8A4A4EF0DF0A6EF0DF01E
:101B4800ACEF0DF03C0EB06FF80EB16F78EC4AF0C8
:101B5800020E0001EC19D8A4B4EF0DF0B6EF0DF0A9
:101B6800BCEF0DF0840EB06FFC0EB16F78EC4AF04C
:101B7800030E0001EC19D8A4C4EF0DF0C6EF0DF068
:101B8800CCEF0DF0E20EB06FF80EB16F78EC4AF0C2
:101B9800040E0001EC19D8A4D4EF0DF0D6EF0DF027
:101BA80094EF14F0E60EB06FFB0EB16F78EC4AF0CC
:101BB800010E0101836F0001EC6B94EF14F0C9C0B2
:101BC80072F0CAC073F0E60E746FFF0E756FF5EC15
:101BD80046F0000172517311D8A4F5EF0DF0F7EF3C
:101BE8000DF044EF0EF00101912B020E9119D8A4CB
:101BF80000EF0EF002EF0EF003EF0EF0916B190EEE
:101C08000001B06FFB0EB16F01019151040DEB0E95
:101C1800F324D96E010EF420DA6EDECFB2F0DECFF7
:101C2800B3F0DECFB4F0DECFB5F078EC4AF00101C6
:101C38009151D8A422EF0EF024EF0EF02FEF0EF002
:101C4800010E0001B06FFB0EB16F78EC4AF0060E82
:101C58007D6E820EAF6E01019105D8A436EF0EF0AD
:101C680038EF0EF094EF14F0B80E0001B06FFD0ECF
:101C7800B16F78EC4AF07D6A440EAF6E94EF14F0C1
:101C8800C9C072F0CAC073F0E80E746FFF0E756FAA
:101C9800F5EC46F0000172517311D8A456EF0EF01E
:101CA80058EF0EF078EF0EF001019151D8B45FEFC4
:101CB8000EF061EF0EF068EF0EF02D0E0001B06F20
:101CC800F70EB16F78EC4AF0D20E0001B06FF40E47
:101CD800B16F78EC4AF0000E0001876F010E866F35
:101CE8005CEC2DF094EF14F0C9C072F0CAC073F028
:101CF800EA0E746FFF0E756FF5EC46F00001725135
:101D08007311D8A48AEF0EF08CEF0EF0ACEF0EF042
:101D180001019151D8B493EF0EF095EF0EF09CEFBE
:101D28000EF02D0E0001B06FF70EB16F78EC4AF08F
:101D38002F0E0001B06FF50EB16F78EC4AF0000E6F
:101D48000001876F020E866F5CEC2DF094EF14F0A3
:101D5800C9C072F0CAC073F0EC0E746FFF0E756FD5
:101D6800F5EC46F0000172517311D8A4BEEF0EF0E5
:101D7800C0EF0EF0C4EF0EF095EC14F094EF14F0F1
:101D8800C9C072F0CAC073F0EE0E746FFF0E756FA3
:101D9800F5EC46F0000172517311D8A4D6EF0EF09D
:101DA800D8EF0EF08AEF0FF0F29E3A0EB06FFC0EED
:101DB800B16F78EC4AF04EEF0FF04A0E0001B06FA9
:101DC800FF0EB16F78EC4AF076EF0FF0010E0001CC
:101DD800B06FFD0EB16F4CC1B2F04DC1B3F04EC142
:101DE800B4F04FC1B5F078EC4AF076EF0FF0B40ECE
:101DF8000001B06FFA0EB16F4CC1B2F04DC1B3F033
:101E08004EC1B4F04FC1B5F078EC4AF076EF0FF060
:101E1800080E0001B06FF90EB16F78EC4AF076EF5A
:101E28000FF0470E0001B06FFA0EB16F78EC4AF070
:101E380076EF0FF0920E0001B06FF80EB16F78ECEC
:101E48004AF076EF0FF0530E0001B06FFD0EB16F40
:101E580078EC4AF076EF0FF0500E0001B06FFE0EEE
:101E6800B16F78EC4AF076EF0FF0CE0E0001B06F4C
:101E7800FA0EB16F78EC4AF076EF0FF0CA0E000157
:101E8800B06FFA0EB16F99C1B2F0B36B78EC4AF04B
:101E980076EF0FF001019951000AD8B4E1EF0EF086
:101EA800010AD8B4EAEF0EF0030AD8B4FBEF0EF03B
:101EB800010AD8B40CEF0FF0070AD8B415EF0FF0E9
:101EC800010AD8B41EEF0FF0030AD8B427EF0FF0B9
:101ED800010AD8B430EF0FF00F0AD8B439EF0FF079
:101EE80042EF0FF0310E0001B06FFB0EB16F98C1D9
:101EF800B2F0B36B78EC4AF0970E0001B06FFA0EAF
:101F0800B16F78EC4AF0F28E94EF14F0C9C072F019
:101F1800CAC073F0F00E746FFF0E756FF5EC46F0E3
:101F2800000172517311D8A49CEF0FF09EEF0FF0CF
:101F38001DEF10F0F29E630EB06FFD0EB16F93C1EE
:101F4800B2F0B36B78EC4AF0D10E0001B06FFB0E23
:101F5800B16F92C1B2F0B36B78EC4AF0720E000127
:101F6800B06FFC0EB16F6CC1B2F06DC1B3F078EC1C
:101F78004AF0010E0001E26F000EE36F000EE46FFD
:101F8800000EE56FE551E411E31109E1830EE25D0E
:101F9800D8A0D1EF0FF0D3EF0FF0D5EF0FF0FEEF91
:101FA8000FF0BC0EB06FFF0EB16FE2C0B2F0E3C02D
:101FB800B3F0E4C0B4F0E5C0B5F078EC4AF0B40E84
:101FC8000001B06FFF0EB16F000EE225D96E050E4D
:101FD800E321DA6EDF50CB6FCB51B26FB36B78EC85
:101FE8004AF0010E0001E227000EE323E423E52373
:101FF800C6EF0FF0970EB06FFA0EB16F78EC4AF09B
:10200800F00E0001B06FFC0EB16F6AC1B2F06BC187
:10201800B3F078EC4AF0810E0001B06FFD0EB16F9D
:1020280068C1B2F069C1B3F078EC4AF0F28E94EF6F
:1020380014F0C9C072F0CAC073F0F20E746FFF0ECC
:10204800756FF5EC46F0000172517311D8A42FEFAB
:1020580010F031EF10F0A2EF10F0F29E000EE26FD8
:10206800000EE36F000EE46F000EE56FE551E4111A
:10207800E31109E1C80EE25DD8A045EF10F047EF83
:1020880010F049EF10F09FEF10F0E2C0BBF0E3C092
:10209800BCF0E4C0BDF0E5C0BEF0DBEC35F0BC0E32
:1020A8000001B06FFF0EB16FE2C0B2F0E3C0B3F051
:1020B800E4C0B4F0E5C0B5F078EC4AF0960E000143
:1020C800B06FFF0EB16F00C3B2F0B36B78EC4AF09B
:1020D800010E0001E225CB6F000EE321CC6F000E4C
:1020E800E421CD6F000EE521CE6F0F0ECB15CF6F1B
:1020F800000ECC15D06F000ECD15D16F000ECE1589
:10210800D26FCF51D011D111D211D8A48EEF10F0C7
:1021180090EF10F096EF10F0970EB06FFA0EB16FC7
:1021280078EC4AF0010E0001E227000EE323E423D5
:10213800E5233AEF10F0F28E94EF14F0C9C072F074
:10214800CAC073F0A30E746FFB0E756FF5EC46F002
:10215800000172517311D8A4B4EF10F0B6EF10F06B
:102168003CEF11F0F29E000EE26F000EE36F000EDE
:10217800E46F000EE56FE551E4110AE1E229030E70
:10218800E359D8A0CAEF10F0CCEF10F0CEEF10F062
:1021980039EF11F0E2C072F0E3C073F0A0EC4AF03E
:1021A8000101C86F0F0E0001E215CB6F000EE31599
:1021B800CC6F000EE415CD6F000EE515CE6FCB5138
:1021C800CC11CD11CE11D8A4ECEF10F0EEEF10F039
:1021D800FCEF10F0C00EB06FFF0EB16FE2C0B2F0AE
:1021E800E3C0B3F0E4C0B4F0E5C0B5F078EC4AF071
:1021F800960E0001B06FFF0EB16FC8C1B2F0B36B9D
:1022080078EC4AF0010E0001E225CB6F000EE321C5
:10221800CC6F000EE421CD6F000EE521CE6F0F0EBE
:10222800CB15CF6F000ECC15D06F000ECD15D16F2A
:10223800000ECE15D26FCF51D011D111D211D8A422
:1022480028EF11F02AEF11F030EF11F0970EB06F70
:10225800FA0EB16F78EC4AF0010E0001E227000E89
:10226800E323E423E523BFEF10F0F28E94EF14F09C
:10227800C9C072F0CAC073F0F40E746FFF0E756FA8
:10228800F5EC46F0000172517311D8A44EEF11F02D
:1022980050EF11F0FFEF11F00101CD6BF29E600ECF
:1022A8000001B06FFC0EB16F78EC4AF0000E00012F
:1022B800E26F000EE36F000EE46F000EE56FA7EF0C
:1022C80011F0E2C0BBF0E3C0BCF0E4C0BDF0E5C073
:1022D800BEF0800EBF6F63EC37F0800E0001E22580
:1022E800E26F000EE321E36F000EE421E46F000EBD
:1022F800E521E56F000E0101C96F000ECA6F000EDF
:10230800CB6F000ECC6FCC51CB11CA1109E1800EF6
:10231800C95DD8A092EF11F094EF11F096EF11F08B
:10232800A7EF11F0000EC925D96E030ECA21DA6E87
:10233800DF50CD19CD6F010EC927000ECA23CB235C
:10234800CC2387EF11F00001E5510CE1E229FF0EE3
:10235800E359010EE459D8A0B4EF11F0B6EF11F02B
:1023680065EF11F0000EBB6F000EBC6F000EBD6F65
:10237800000EBE6FDBEC35F0030100510001E26F87
:10238800E36BE46BE56B030EE219E311E411E5116D
:10239800D8B4D1EF11F0D3EF11F0D9EF11F0680EE6
:1023A800B06FF80EB16F78EC4AF0E80E0001B06F2C
:1023B800FA0EB16FCDC1B2F0B36B78EC4AF00101FF
:1023C800CD51D8A4EAEF11F0ECEF11F0F5EF11F0D0
:1023D8008C0E0001B06FFF0EB16F78EC4AF0FCEF85
:1023E80011F0C10E0001B06FFE0EB16F78EC4AF02B
:1023F800F28E94EF14F0C9C072F0CAC073F0F60EF2
:10240800746FFF0E756FF5EC46F000017251731191
:10241800D8A411EF12F013EF12F0F8EF12F0000E3B
:102428000101CE6F000ECF6F000ED06F000ED16F7E
:10243800F29EE7EF12F0CEC1BBF0CFC1BCF0D0C125
:10244800BDF0D1C1BEF0800E0001BF6F63EC37F064
:10245800000E0001E26F000EE36F000EE46F000E45
:10246800E56FE551E411E31109E1800EE25DD8A0C2
:1024780040EF12F042EF12F044EF12F0DAEF12F0F0
:102488000101CE510001E2250101C46FCF510001C5
:10249800E3210101C56FD0510001E4210101C66F9C
:1024A800D1510001E5210101C76F0F0E0001E215AE
:1024B800CB6F000EE315CC6F000EE415CD6F000E48
:1024C800E515CE6FCB51CC11CD11CE11D8A46FEF3D
:1024D80012F071EF12F08EEF12F00101C4510001F9
:1024E800BB6F0101C5510001BC6F0101C65100015C
:1024F800BD6F0101C7510001BE6FBF6BC06BC16BDF
:10250800C26BD5EC49F0F50E0001B06FFE0EB16F4D
:1025180078EC4AF0B80E0001B06FFF0EB16F000EF4
:10252800E225D96E030EE321DA6EDF50CB6FCB5173
:10253800B26FB36B78EC4AF0010E0001E225CB6F65
:10254800000EE321CC6F000EE421CD6F000EE521D3
:10255800CE6F0F0ECB15CF6F000ECC15D06F000EBF
:10256800CD15D16F000ECE15D26FCF51D011D1112C
:10257800D211D8A4C2EF12F0C4EF12F0CAEF12F0D1
:10258800970EB06FFA0EB16F78EC4AF0E40E00D0F7
:1025980000D0E82EFCD700D000D0010E0001E227C1
:1025A800000EE323E423E52335EF12F0800E01014A
:1025B800CE25CE6F000ECF21CF6F000ED021D06F69
:1025C800000ED121D16FD1510CE1CE29FF0ECF5988
:1025D800010ED059D8A0F3EF12F0F5EF12F01FEF6B
:1025E80012F0F28E94EF14F0C9C072F0CAC073F002
:1025F800F80E746FFF0E756FF5EC46F0000172511E
:102608007311D8A40AEF13F00CEF13F078EF14F05D
:10261800000EE26F000EE36F000EE46F000EE56F30
:10262800E2C0CBF0E3C0CCF0D890CB37CC37D89011
:10263800CB37CC37000ECB25726F010ECC21736FD0
:10264800A0EC4AF00001CD6FCD510101D26FD36BE0
:10265800D46BD56BD66BD76BD86BD96BE2C0CBF08C
:10266800E3C0CCF00001D890CB37CC37D890CB372B
:10267800CC37010ECB25726F010ECC21736FA0EC05
:102688004AF00001CD6FCDC0CEF0CF6BD06BD16BCF
:10269800D0C0D1F0CFC0D0F0CEC0CFF0CE6BCE51ED
:1026A800D26FCF51D36FD051D46FD151D56FD66B74
:1026B800D76BD86BD96B0101D2510001D22501012A
:1026C800D26FD3510001D3210101D36FD45100013E
:1026D800D4210101D46FD5510001D5210101D56F55
:1026E800D6510001D6210101D66FD7510001D7215B
:1026F8000101D76FD8510001D8210101D86FD951F4
:102708000001D9210101D96FE2C0CBF0E3C0CCF0C0
:102718000001D890CB37CC37D890CB37CC37020EC6
:10272800CB25726F010ECC21736FA0EC4AF000012B
:10273800CD6FCDC0CEF0CF6BD06BD16BCFC0D1F009
:10274800CEC0D0F0CF6BCE6BCE51D26FCF51D36FFE
:10275800D051D46FD151D56FD66BD76BD86BD96B9D
:102768000101D2510001D2250101D26FD3510001DC
:10277800D3210101D36FD4510001D4210101D46FB9
:10278800D5510001D5210101D56FD6510001D621BF
:102798000101D66FD7510001D7210101D76FD85158
:1027A8000001D8210101D86FD9510001D9210101B7
:1027B800D96FE2C0CBF0E3C0CCF00001D890CB37A2
:1027C800CC37D890CB37CC37030ECB25726F010EA0
:1027D800CC21736FA0EC4AF00001CD6FCDC0CEF0D4
:1027E800CF6BD06BD16BCEC0D1F0D06BCF6BCE6B33
:1027F800CE51D26FCF51D36FD051D46FD151D56F45
:10280800D66BD76BD86BD96B0101D2510001D22599
:102818000101D26FD3510001D3210101D36FD451EB
:102828000001D4210101D46FD5510001D521010146
:10283800D56FD6510001D6210101D66FD7510001BD
:10284800D7210101D76FD8510001D8210101D86FD4
:10285800D9510001D9210101D96F960E0001B06F3D
:10286800FC0EB16F010EE225B26F000EE321B36FCB
:10287800000EE421B46F000EE521B56F78EC4AF044
:10288800D2C1BBF0D3C1BCF0D4C1BDF0D5C1BEF03C
:10289800D6C1BFF0D7C1C0F0D8C1C1F0D9C1C2F00C
:1028A800D5EC49F0970E0001B06FFA0EB16F78ECD5
:1028B8004AF0010E0001E227000EE323E423E5239A
:1028C800E551E411E31109E1140EE25DD8A06FEFC0
:1028D80014F071EF14F014EF13F0E207000EE35B4D
:1028E800E45BE55B94EF14F0C9C072F0CAC073F002
:1028F800FC0E746FFF0E756FF5EC46F00001725117
:102908007311D8A48AEF14F08CEF14F08EEF14F042
:1029180094EF14F0490EB06FFB0EB16F78EC4AF0EB
:102928001200F29E0101886BF50E0001B06FFD0EDA
:10293800B16F5EC1B2F05FC1B3F078EC4AF000014C
:10294800EB51D8A4AAEF14F0ACEF14F0B2EF14F0E6
:10295800250EB06FFC0EB16F78EC4AF0020E000144
:10296800EB19D8A4BAEF14F0BCEF14F0C2EF14F0CE
:10297800430EB06FFD0EB16F78EC4AF0040E000103
:10298800EB19D8A4CAEF14F0CCEF14F0D2EF14F07E
:10299800120EB06FFD0EB16F78EC4AF0030E000115
:1029A800EB19D8A4DAEF14F0DCEF14F0E2EF14F02E
:1029B8008E0EB06FFB0EB16F78EC4AF0050E000179
:1029C800EB19D8A4EAEF14F0ECEF14F0F2EF14F0DE
:1029D8004D0EB06FFC0EB16F78EC4AF00001EB05BC
:1029E800D8A4F9EF14F0FBEF14F001EF15F0FB0E8B
:1029F800B06FFB0EB16F78EC4AF0970E0001B06F24
:102A0800FA0EB16F78EC4AF0010E0001C26F010EA8
:102A1800C16FFF0EC225726F736BFF0E7323000E1A
:102A2800756F160E746F97EC42F00001C151160DC8
:102A3800F3CFBBF0F4CFBCF07251BB25BD6F73511F
:102A4800BC21BE6FEA0EBD25BF6FFF0EBE21C06F51
:102A5800BFC0E2F0C0C0E3F0000EE3BFFF0EE46FBA
:102A6800E56F01015E510001BB6F01015F5100017B
:102A7800BC6FBD6BBE6BE251BB5DE351BC59E45109
:102A8800BD59E551BE59D8A04CEF15F04EEF15F0E1
:102A98004BEF19F0C40EB06FFF0EB16FE2C0B2F089
:102AA800E3C0B3F0E4C0B4F0E5C0B5F078EC4AF0A8
:102AB8007E0E0001BB6F050EBC6FD890E235D96E53
:102AC800E335DA6ED890D936DA36BB51D926BC51FF
:102AD800DA22DECFC3F0DDCFC4F0820EBB6F050E65
:102AE800BC6FD890E235D96EE335DA6ED890D93616
:102AF800DA36BB51D926BC51DA22DECFE6F0DECF7A
:102B0800E7F0DECFE8F0DECFE9F0AF0EB06FFF0EF2
:102B1800B16FE6C0B2F0E7C0B3F0E8C0B4F0E9C006
:102B2800B5F078EC4AF00001EB51D8A49EEF15F00F
:102B3800A0EF15F0A6EF15F0F40EB06FFE0EB16F12
:102B480078EC4AF00001EB05D8A4ADEF15F0AFEF33
:102B580015F065EF16F0E951E8110BE1A90EE65DF5
:102B68008F0EE759D8A0BBEF15F0BDEF15F0D3EFE6
:102B780015F0E951E81109E1780EE65D970EE7597D
:102B8800D8B0C9EF15F0CBEF15F0D3EF15F0E10E83
:102B9800B06FFF0EB16F78EC4AF045EF16F0E951CF
:102BA800E8110BE1A70EE65D020EE759D8A0DFEFAA
:102BB80015F0E1EF15F0F7EF15F0E951E81109E12B
:102BC800D60EE65D040EE759D8B0EDEF15F0EFEF3D
:102BD80015F0F7EF15F0D50EB06FFF0EB16F78EC6A
:102BE8004AF045EF16F0E951E8110BE1930EE65D66
:102BF800060EE759D8A003EF16F005EF16F01BEF05
:102C080016F0E951E81109E1C20EE65D080EE75930
:102C1800D8B011EF16F013EF16F01BEF16F0D80E20
:102C2800B06FFF0EB16F78EC4AF045EF16F0E9513E
:102C3800E8110BE18C0EE65D0A0EE759D8A027EFE4
:102C480016F029EF16F03FEF16F0E951E81109E107
:102C5800BB0EE65D0C0EE759D8B035EF16F037EF2E
:102C680016F03FEF16F0DE0EB06FFF0EB16F78EC86
:102C78004AF045EF16F0DB0EB06FFF0EB16F78EC3F
:102C88004AF0000E0001E225D96E020EE321DA6E49
:102C9800DF50D8B452EF16F054EF16F065EF16F087
:102CA8003A0EB06FFF0EB16F000EE225D96E020E1C
:102CB800E321DA6EDF50BB6FBB51B26FB36B78ECB8
:102CC8004AF0020E0001EB19D8A46DEF16F06FEF71
:102CD80016F001EF17F0E951E8110BE1130EE65D6C
:102CE800700EE759D8A07BEF16F07DEF16F093EF42
:102CF80016F0E951E81109E1E20EE65D770EE759B1
:102D0800D8B089EF16F08BEF16F093EF16F0E10EBE
:102D1800B06FFF0EB16F78EC4AF0E1EF16F0E951B1
:102D2800E8110BE1D70EE65D010EE759D8A09FEF39
:102D380016F0A1EF16F0B7EF16F0E951E81109E126
:102D48002A0EE65D030EE759D8B0ADEF16F0AFEFE7
:102D580016F0B7EF16F0D50EB06FFF0EB16F78EC26
:102D68004AF0E1EF16F0E951E8110BE1570EE65D84
:102D7800040EE759D8A0C3EF16F0C5EF16F0DBEF45
:102D880016F0E951E81109E1AA0EE65D050EE759CA
:102D9800D8B0D1EF16F0D3EF16F0DBEF16F0D80E5F
:102DA800B06FFF0EB16F78EC4AF0E1EF16F0DB0E72
:102DB800B06FFF0EB16F78EC4AF0000E0001E2250B
:102DC800D96E020EE321DA6EDF50D8B4EEEF16F0BA
:102DD800F0EF16F001EF17F03A0EB06FFF0EB16F7B
:102DE800000EE225D96E020EE321DA6EDF50BB6FCA
:102DF800BB51B26FB36B78EC4AF0040E0001EB19CB
:102E0800D8A409EF17F00BEF17F0C0EF17F0E9514E
:102E1800E8110BE1F50EE65D0F0EE759D8A017EFA4
:102E280017F019EF17F02FEF17F0E951E81109E142
:102E3800C40EE65D170EE759D8B025EF17F027EF57
:102E480017F02FEF17F0E10EB06FFF0EB16F78ECAF
:102E58004AF0A0EF17F0E951E8110BE14A0EE65DE0
:102E6800040EE759D8A03BEF17F03DEF17F052EFEB
:102E780017F0E951E81108E1E605060EE759D8B060
:102E880048EF17F04AEF17F052EF17F0D50EB06F72
:102E9800FF0EB16F78EC4AF0A0EF17F0E951E81196
:102EA8000BE15B0EE65D090EE759D8A05EEF17F05F
:102EB80060EF17F076EF17F0E951E81109E1120E0B
:102EC800E65D0B0EE759D8B06CEF17F06EEF17F010
:102ED80076EF17F0D80EB06FFF0EB16F78EC4AF0AE
:102EE800A0EF17F0E951E8110BE1A50EE65D240EFD
:102EF800E759D8A082EF17F084EF17F09AEF17F090
:102F0800E951E81109E15C0EE65D260EE759D8B0F3
:102F180090EF17F092EF17F09AEF17F0DE0EB06F00
:102F2800FF0EB16F78EC4AF0A0EF17F0DB0EB06F30
:102F3800FF0EB16F78EC4AF0000E0001E225D96E61
:102F4800020EE321DA6EDF50D8B4ADEF17F0AFEF21
:102F580017F0C0EF17F03A0EB06FFF0EB16F000E0A
:102F6800E225D96E020EE321DA6EDF50BB6FBB514A
:102F7800B26FB36B78EC4AF0030E0001EB19D8A4DA
:102F8800C8EF17F0CAEF17F0B4EF18F0E951E811DD
:102F98000BE1C30EE65D7E0EE759D8A0D6EF17F019
:102FA800D8EF17F0EEEF17F0E951E81109E10E0E2E
:102FB800E65D830EE759D8B0E4EF17F0E6EF17F0B7
:102FC800EEEF17F0E10EB06FFF0EB16F78EC4AF03C
:102FD80094EF18F0E951E8110BE1290EE65D1E0E99
:102FE800E759D8A0FAEF17F0FCEF17F012EF18F036
:102FF800E951E81109E1800EE65D200EE759D8B0E5
:1030080008EF18F00AEF18F012EF18F0DE0EB06FA4
:10301800FF0EB16F78EC4AF094EF18F0E2B117EFB9
:1030280018F019EF18F08CEF18F0150EC35D050EA7
:10303800C459D8A022EF18F024EF18F051EF18F077
:103048006C0EC35D070EC459D8B02DEF18F02FEFE2
:1030580018F051EF18F0E951E8110BE1270EE65D81
:10306800020EE759D8A03BEF18F03DEF18F051EFEA
:1030780018F0E951E81109E17E0EE65D040EE75902
:10308800D8B049EF18F04BEF18F051EF18F0D80E00
:10309800B06FFF0EB16F78EC4AF0270E0001C35DE8
:1030A800020EC459D8A05BEF18F05DEF18F094EF4A
:1030B80018F07E0EC35D040EC459D8B066EF18F040
:1030C80068EF18F094EF18F0E951E8110BE1150ECC
:1030D800E65D050EE759D8A074EF18F076EF18F002
:1030E80094EF18F0E951E81109E16C0EE65D070E5E
:1030F800E759D8B082EF18F084EF18F094EF18F081
:10310800D50EB06FFF0EB16F78EC4AF094EF18F05F
:10311800F40EB06FFE0EB16F78EC4AF094EF18F031
:10312800000E0001E225D96E020EE321DA6EDF50AF
:10313800D8B4A1EF18F0A3EF18F0B4EF18F03A0ED6
:10314800B06FFF0EB16F000EE225D96E020EE321BB
:10315800DA6EDF50BB6FBB51B26FB36B78EC4AF0DD
:10316800050E0001EB19D8A4BCEF18F0BEEF18F05B
:1031780042EF19F0E951E8110BE16B0EE65D180E0C
:10318800E759D8A0CAEF18F0CCEF18F0E2EF18F022
:10319800E951E81109E1B60EE65D1C0EE759D8B011
:1031A800D8EF18F0DAEF18F0E2EF18F0E10EB06F90
:1031B800FF0EB16F78EC4AF022EF19F0E951E811EF
:1031C8000BE1AF0EE65D0B0EE759D8A0EEEF18F055
:1031D800F0EF18F006EF19F0E951E81109E1DA0EFD
:1031E800E65D0C0EE759D8B0FCEF18F0FEEF18F0CA
:1031F80006EF19F0DE0EB06FFF0EB16F78EC4AF0F3
:1032080022EF19F0E951E81109E19C0EE65D040E80
:10321800E759D8B012EF19F014EF19F01CEF19F0B4
:10322800D50EB06FFF0EB16F78EC4AF022EF19F0AF
:10323800D80EB06FFF0EB16F78EC4AF0000E0001A7
:10324800E225D96E020EE321DA6EDF50D8B42FEFF3
:1032580019F031EF19F042EF19F03A0EB06FFF0E86
:10326800B16F000EE225D96E020EE321DA6EDF504F
:10327800BB6FBB51B26FB36B78EC4AF0D20E000152
:10328800B06FFF0EB16F78EC4AF051EF19F0EE0E07
:10329800B06FFE0EB16F78EC4AF00001C12B090E39
:1032A800C16559EF19F05BEF19F00DEF15F0970EA6
:1032B800B06FFA0EB16F78EC4AF00001C22B160E0F
:1032C800C26569EF19F06BEF19F00BEF15F05CECC4
:1032D8004BF0F28E120086EC4AF08096808A01014B
:1032E800996B0F015D6B5C6BD08EF19EF180F29053
:1032F800F286F28EF294F28A5A89010E0101916FD8
:103308009151D8A48AEF19F08CEF19F090EF19F0C9
:10331800060E7D6E820EAF6E9105D8A496EF19F059
:1033280098EF19F09BEF19F07D6A440EAF6E920E7C
:10333800D56E660E0001766FF70E776F17EC3FF0CB
:10334800AB0E0001766FFD0E776F17EC3FF0D50ED0
:103358000001766FF70E776F17EC3FF0AB0E0001A8
:10336800766FFD0E776F17EC3FF082903DEC3DF0E5
:103378008280010E0001E26F000EE36F000EE46F21
:10338800000EE56FE551E411E31109E10A0EE25D73
:10339800D8A0D1EF19F0D3EF19F0D5EF19F0FAEF63
:1033A80019F0090E0101E46F1E0EE36FE40EE82E1A
:1033B800FED7E32FFCD7E42FFAD700008290090E3E
:1033C8000101E46F1E0EE36FE40EE82EFED7E32F33
:1033D800FCD7E42FFAD700008280010E0001E22713
:1033E800000EE323E423E523C6EF19F0EC6BBFECF2
:1033F8004BF0F28E000E0001736F000E726FA0EC9E
:103408004AF00101E36FE3510001E26FE36BE46B03
:10341800E56B210EE219E311E411E511D8B417EFB9
:103428001AF019EF1AF01FEF1AF0770EB06FF60EB8
:10343800B16F78EC4AF0000E0001BB6F000EBC6F54
:10344800000EBD6F000EBE6FDBEC35F003010051BE
:103458000001E26FE36BE46BE56B030EE219E31125
:10346800E411E511D8B43BEF1AF03DEF1AF043EF41
:103478001AF0B50EB06FF60EB16F78EC4AF0808690
:1034880081B449EF1AF04BEF1AF0AEEF1AF0150EAF
:103498000101E36FC60EE82EFED7E32FFCD700002C
:1034A800010E01014827000E49234A234B234B51A3
:1034B8004A110BE1890E485D130E4959D8A067EFF0
:1034C8001AF069EF1AF0AEEF1AF08290000E486F0A
:1034D800000E496F000E4A6F000E4B6F4F0E000131
:1034E800B06FF90EB16F78EC4AF0010E01016B6F05
:1034F800000E6A6F510E6A5D010E6B59D8A087EFF6
:103508001AF089EF1AF08BEF1AF099EF1AF06AC1E6
:1035180072F06BC173F0FF0E0001746FF1EC47F0AD
:1035280001016A4B6B2B7EEF1AF0520E0101E46F1A
:103538002B0EE36F000EE82EFED7E32FFCD7E42F07
:10354800FAD70000828081A4ACEF1AF0AEEF1AF02F
:10355800A7EF1AF001018A51D8B4B5EF1AF0B8EF05
:103568001AF0010EB9EF1AF0000EE36FE46B81B4A4
:10357800C0EF1AF0C3EF1AF0010EC4EF1AF0000EF4
:10358800E317000EE4174B514A11491107E1C90E20
:10359800485DD8B0D2EF1AF0D5EF1AF0010ED6EF89
:1035A8001AF0000EE317000EE4174B514A110CE114
:1035B800E80E485D030E4959D8A0E5EF1AF0E8EF88
:1035C8001AF0010EE9EF1AF0000EE317000EE417E7
:1035D800E351E411D8B4F3EF1AF0F5EF1AF00CEF59
:1035E8001BF0500E406FC30E416F000E426F000E6D
:1035F800436F000E446F000E456F000E466F000EBD
:10360800476F930E0001B06FF90EB16F78EC4AF076
:103618000101405141114211431144114511461114
:103628004711D8B41AEF1BF01CEF1BF08AEF1BF000
:103638004007000E415B425B435B445B455B465B76
:10364800475B40C172F041C173F042C174F043C19D
:1036580075F044C176F045C177F046C178F047C1AE
:1036680079F0E80E00017A6F030E7B6F000E7C6F15
:10367800000E7D6F000E7E6F000E7F6F000E806F54
:10368800000E816F87EC3FF072C0E3F173C0E4F184
:1036980074C0E5F175C0E6F176C0E7F177C0E8F1EE
:1036A80078C0E9F179C0EAF10101E351E411E511CB
:1036B800E611E711E811E911EA11D8A466EF1BF049
:1036C80068EF1BF071EF1BF082A06DEF1BF070EF3D
:1036D8001BF0828071EF1BF0829001014051411173
:1036E800421143114411451146114711D8A47FEFE7
:1036F8001BF081EF1BF08AEF1BF0816B600E00015D
:10370800B06FFB0EB16F78EC4AF08280000E81B486
:10371800010E01018A6F81A494EF1BF096EF1BF054
:103728009EEF1BF0000E486F000E496F000E4A6FA7
:10373800000E4B6F8E51D8A4A4EF1BF0A6EF1BF020
:10374800A8EF1BF0B5EC3DF001018851D8B4AFEFFC
:103758001BF0B1EF1BF0B3EF1BF095EC14F0010177
:103768008E51D8B4BAEF1BF0BCEF1BF044EF1AF03F
:103778008E6BF29E020E0001EC19D8A4C6EF1BF066
:10378800C8EF1BF0CAEF1BF095EC14F00001EB0535
:10379800D8A4D1EF1BF0D3EF1BF002EF1CF0EC51D3
:1037A800D8B4D9EF1BF0DBEF1BF0F4EF1BF0DAC055
:1037B800BBF0DBC0BCF0DCC0BDF0DDC0BEF0DEC0DD
:1037C800BFF0DFC0C0F0E0C0C1F0E1C0C2F0C5EC9E
:1037D8003CF0F50E0001B06FFE0EB16F78EC4AF0C8
:1037E80003EC1DF00009D8B4FCEF1BF0FEEF1BF052
:1037F80002EF1CF04EEC31F075EC32F0020E0001D5
:10380800EB19D8A40AEF1CF00CEF1CF036EF1CF0F3
:10381800DAC038F1DBC039F1DCC03AF1DDC03BF188
:10382800DEC03CF1DFC03DF1E0C03EF1E1C03FF158
:10383800A80EB06FFC0EB16F78EC4AF0DAC0BBF09E
:10384800DBC0BCF0DCC0BDF0DDC0BEF0DEC0BFF048
:10385800DFC0C0F0E0C0C1F0E1C0C2F0D5EC49F073
:1038680075EC32F0040E0001EB19D8A43EEF1CF001
:1038780040EF1CF06FEF1CF0CAEC25F0E806D8A466
:1038880048EF1CF04AEF1CF06FEF1CF0CC0E000163
:10389800B06FFC0EB16F78EC4AF038C1BBF039C19B
:1038A800BCF03AC1BDF03BC1BEF03CC1BFF03DC168
:1038B800C0F03EC1C1F03FC1C2F0D5EC49F0660E80
:1038C8000001B06FFE0EB16F48C0B2F0B36B78EC78
:1038D8004AF075EC32F0030E0001EB19D8A477EF2B
:1038E8001CF079EF1CF0C7EF1CF0A3EC36F0BA0E11
:1038F8000001B06FFC0EB16F78EC4AF038C1BBF034
:1039080039C1BCF03AC1BDF03BC1BEF03CC1BFF00B
:103918003DC1C0F03EC1C1F03FC1C2F0D5EC49F095
:10392800AA0E0001B06FFF0EB16F38C1B2F039C1F5
:10393800B3F03AC1B4F03BC1B5F078EC4AF0000EF0
:103948000001B06FFF0EB16F78EC4AF0050E4860C9
:10395800B0EF1CF0B2EF1CF0BEEF1CF0FD0E000142
:10396800B06FFA0EB16F48C0B2F0B36B78EC4AF0A2
:10397800C5EF1CF0CF0E0001B06FFF0EB16F78ECF1
:103988004AF075EC32F0050E0001EB19D8A4CFEF20
:103998001CF0D1EF1CF0D9EF1CF0F70EB06FFE0E43
:1039A800B16F78EC4AF06AEC45F0060E0001EB19AD
:1039B800D8A4E1EF1CF0E3EF1CF0EDEF1CF0320EA1
:1039C800B06FFF0EB16F78EC4AF047EC43F075EC3E
:1039D80032F0000E476E000E466E520E0101E46F83
:1039E8002B0EE36F000EE82EFED7E32FFCD7E42F53
:1039F800FAD70000F28E44EF1AF028EF0DF0DAC083
:103A0800BBF0DBC0BCF0DCC0BDF0DDC0BEF0DEC08A
:103A1800BFF0DFC0C0F0E0C0C1F0E1C0C2F0040EEA
:103A2800D8900001BB37BC37BD37BE37BF37C0376A
:103A3800C137C237E82E14EF1DF0BBC0C5F0BCC0BB
:103A4800C6F0BDC0C7F0BEC0C8F0BFC0C9F0C0C096
:103A5800CAF0C1C0CBF0C2C0CCF020EEC5F0F00E69
:103A6800DE18C56FFF0EDE18C66FFF0EDE18C76FB3
:103A7800FF0EDE18C86FFF0EDE18C96FFF0EDE18C6
:103A8800CA6FFF0EDE18CB6F000EDE18CC6FC5C0F4
:103A9800BBF0C6C0BCF0C7C0BDF0C8C0BEF0C9C04E
:103AA800BFF0CAC0C0F0CBC0C1F0CCC0C2F0310E6C
:103AB80067EF1DF0D890C233C133C033BF33BE3374
:103AC800BD33BC33BB33E82E5EEF1DF0BBC0CDF079
:103AD800BCC0CEF0BDC0CFF0BEC0D0F0BFC0D1F0EA
:103AE800C0C0D2F0C1C0D3F0C2C0D4F0CD39F00B01
:103AF800F00B4D6E040EBB6FCDC0BCF0CEC0BDF058
:103B0800CFC0BEF0D0C0BFF0D1C0C0F0D2C0C1F0AD
:103B1800D3C0C2F0D4C0C3F0BB6795EF1DF0A1EFCE
:103B28001DF0C335C333C233C133C033BF33BE33D3
:103B3800BD33BC33BB2F90EF1DF00001BC510F0B00
:103B48004E6EC5C0BBF0C6C0BCF0C7C0BDF0C8C093
:103B5800BEF0C9C0BFF0CAC0C0F0CBC0C1F0CCC075
:103B6800C2F0290EC1EF1DF0D890C233C133C03363
:103B7800BF33BE33BD33BC33BB33E82EB8EF1DF0C3
:103B8800BBC0CDF0BCC0CEF0BDC0CFF0BEC0D0F041
:103B9800BFC0D1F0C0C0D2F0C1C0D3F0C2C0D4F011
:103BA800040EBB6FCDC0BCF0CEC0BDF0CFC0BEF020
:103BB800D0C0BFF0D1C0C0F0D2C0C1F0D3C0C2F0F5
:103BC800D4C0C3F0BB67EBEF1DF0F7EF1DF0C335B2
:103BD800C333C233C133C033BF33BE33BD33BC3349
:103BE800BB2FE6EF1DF00001BC510F0B4D104D6EC1
:103BF800CD39F00BF00B4C6EC5C0BBF0C6C0BCF0A5
:103C0800C7C0BDF0C8C0BEF0C9C0BFF0CAC0C0F0D0
:103C1800CBC0C1F0CCC0C2F0210E1CEF1EF0D89072
:103C2800C233C133C033BF33BE33BD33BC33BB3300
:103C3800E82E13EF1EF0BBC0CDF0BCC0CEF0BDC067
:103C4800CFF0BEC0D0F0BFC0D1F0C0C0D2F0C1C06C
:103C5800D3F0C2C0D4F0040EBB6FCDC0BCF0CEC050
:103C6800BDF0CFC0BEF0D0C0BFF0D1C0C0F0D2C050
:103C7800C1F0D3C0C2F0D4C0C3F0BB6746EF1EF09A
:103C880052EF1EF0C335C333C233C133C033BF3321
:103C9800BE33BD33BC33BB2F41EF1EF00001BC5116
:103CA8000F0B4C104C6ECD39F00BF00B4B6EC5C0A2
:103CB800BBF0C6C0BCF0C7C0BDF0C8C0BEF0C9C02C
:103CC800BFF0CAC0C0F0CBC0C1F0CCC0C2F0190E62
:103CD80077EF1EF0D890C233C133C033BF33BE3341
:103CE800BD33BC33BB33E82E6EEF1EF0BBC0CDF046
:103CF800BCC0CEF0BDC0CFF0BEC0D0F0BFC0D1F0C8
:103D0800C0C0D2F0C1C0D3F0C2C0D4F0040EBB6FA3
:103D1800CDC0BCF0CEC0BDF0CFC0BEF0D0C0BFF0AB
:103D2800D1C0C0F0D2C0C1F0D3C0C2F0D4C0C3F07B
:103D3800BB67A1EF1EF0ADEF1EF0C335C333C2332E
:103D4800C133C033BF33BE33BD33BC33BB2F9CEF4D
:103D58001EF00001BC510F0B4B104B6ECD39F00B10
:103D6800F00B4A6EC5C0BBF0C6C0BCF0C7C0BDF002
:103D7800C8C0BEF0C9C0BFF0CAC0C0F0CBC0C1F057
:103D8800CCC0C2F0110ED2EF1EF0D890C233C133AE
:103D9800C033BF33BE33BD33BC33BB33E82EC9EFAA
:103DA8001EF0BBC0CDF0BCC0CEF0BDC0CFF0BEC0D1
:103DB800D0F0BFC0D1F0C0C0D2F0C1C0D3F0C2C0F3
:103DC800D4F0040EBB6FCDC0BCF0CEC0BDF0CFC0E8
:103DD800BEF0D0C0BFF0D1C0C0F0D2C0C1F0D3C0D7
:103DE800C2F0D4C0C3F0BB67FCEF1EF008EF1FF0B1
:103DF800C335C333C233C133C033BF33BE33BD331E
:103E0800BC33BB2FF7EF1EF00001BC510F0B4A105B
:103E18004A6ECD39F00BF00B496EC5C0BBF0C6C079
:103E2800BCF0C7C0BDF0C8C0BEF0C9C0BFF0CAC0B2
:103E3800C0F0CBC0C1F0CCC0C2F0BCC0BBF0BDC0AC
:103E4800BCF0BEC0BDF0BFC0BEF0C0C0BFF0C1C0B6
:103E5800C0F0C2C0C1F0C26BBBC0CDF0BCC0CEF0D8
:103E6800BDC0CFF0BEC0D0F0BFC0D1F0C0C0D2F04E
:103E7800C1C0D3F0C2C0D4F0040EBB6FCDC0BCF03B
:103E8800CEC0BDF0CFC0BEF0D0C0BFF0D1C0C0F032
:103E9800D2C0C1F0D3C0C2F0D4C0C3F0BB6757EFE3
:103EA8001FF063EF1FF0C335C333C233C133C033D0
:103EB800BF33BE33BD33BC33BB2F52EF1FF00001FD
:103EC800BC510F0B4910496ECD39F00BF00BED6F5B
:103ED800C5C0CDF0C6C0CEF0C7C0CFF0C8C0D0F0C6
:103EE800C9C0D1F0CAC0D2F0CBC0D3F0CCC0D4F096
:103EF800040EBB6FCDC0BCF0CEC0BDF0CFC0BEF0CD
:103F0800D0C0BFF0D1C0C0F0D2C0C1F0D3C0C2F0A1
:103F1800D4C0C3F0BB6793EF1FF09FEF1FF0C3350A
:103F2800C333C233C133C033BF33BE33BD33BC33F5
:103F3800BB2F8EEF1FF00001BC510F0BED11ED6F81
:103F480043EC48F00001C46FEC51D8B4AEEF1FF059
:103F5800B0EF1FF04CEF20F0C451D8B4B6EF1FF00B
:103F6800B8EF1FF0C0EF1FF0910EB06FFF0EB16FEA
:103F780078EC4AF0C6EF1FF09B0EB06FFF0EB16FE2
:103F880078EC4AF0890E0001B06FFF0EB16F4EC099
:103F9800B2F0B36B78EC4AF0E40E0001B06FFF0E9C
:103FA800B16F78EC4AF0890E0001B06FFF0EB16F67
:103FB8004DC0B2F0B36B78EC4AF0E40E0001B06F7C
:103FC800FF0EB16F78EC4AF0890E0001B06FFF0E5A
:103FD800B16F4CC0B2F0B36B78EC4AF0E40E00015C
:103FE800B06FFF0EB16F78EC4AF0890E0001B06F28
:103FF800FF0EB16F4BC0B2F0B36B78EC4AF0E40E31
:104008000001B06FFF0EB16F78EC4AF0890E000125
:10401800B06FFF0EB16F4AC0B2F0B36B78EC4AF0E4
:10402800E40E0001B06FFF0EB16F78EC4AF0890E14
:104038000001B06FFF0EB16F49C0B2F0B36B78ECFE
:104048004AF0E40E0001B06FFF0EB16F78EC4AF051
:10405800890E0001B06FFF0EB16FEDC0B2F0B36B07
:1040680078EC4AF0CC0E0001B06FFF0EB16F78EC1F
:104078004AF00001C451D8A444EF20F046EF20F0E4
:104088004CEF20F0970EB06FFA0EB16F78EC4AF053
:104098000001C4511200D890000172357A6F73354F
:1040A8007B6F74357C6F75357D6F76357E6F7735B0
:1040B8007F6F7835806F7935816FAA0E7A15826F98
:1040C800AA0E7B15836FAA0E7C15846FAA0E7D1528
:1040D800856FAA0E7E15866FAA0E7F15876FAA0EAA
:1040E8008015886FAA0E8115896F72C08AF073C017
:1040F8008BF074C08CF075C08DF076C08EF077C0F0
:104108008FF078C090F079C091F0D89091339033C7
:104118008F338E338D338C338B338A33550E8A1518
:10412800926F550E8B15936F550E8C15946F550E17
:104138008D15956F550E8E15966F550E8F15976FB9
:10414800550E9015986F550E9115996F82519211D1
:10415800726F83519311736F84519411746F8551E9
:104168009511756F86519611766F87519711776FF4
:1041780088519811786F89519911796F72C07AF0C6
:1041880073C07BF074C07CF075C07DF076C07EF0A3
:1041980077C07FF078C080F079C081F0020ED890A7
:1041A8007A377B377C377D377E377F378037813763
:1041B800E82ED3EF20F0CC0E7A15826FCC0E7B154B
:1041C800836FCC0E7C15846FCC0E7D15856FCC0E5D
:1041D8007E15866FCC0E7F15876FCC0E8015886F85
:1041E800CC0E8115896F72C08AF073C08BF074C0D1
:1041F8008CF075C08DF076C08EF077C08FF078C0E7
:1042080090F079C091F0030E13EF21F0D89091331C
:1042180090338F338E338D338C338B338A33E82E40
:104228000AEF21F0330E8A15926F330E8B15936FB8
:10423800330E8C15946F330E8D15956F330E8E15C6
:10424800966F330E8F15976F330E9015986F330E48
:104258009115996F82519211726F83519311736FF7
:1042680084519411746F85519511756F865196110B
:10427800766F87519711776F88519811786F8951A8
:104288009911796F72C07AF073C07BF074C07CF0BA
:1042980075C07DF076C07EF077C07FF078C080F082
:1042A80079C081F0040ED8907A377B377C377D3718
:1042B8007E377F3780378137E82E57EF21F0F00EB1
:1042C8007A15826FF00E7B15836FF00E7C15846F64
:1042D800F00E7D15856FF00E7E15866FF00E7F153A
:1042E800876FF00E8015886FF00E8115896F72C088
:1042F8008AF073C08BF074C08CF075C08DF076C0F6
:104308008EF077C08FF078C090F079C091F0050EEC
:1043180097EF21F0D890913390338F338E338D33CC
:104328008C338B338A33E82E8EEF21F00F0E8A15EB
:10433800926F0F0E8B15936F0F0E8C15946F0F0ED7
:104348008D15956F0F0E8E15966F0F0E8F15976F33
:104358000F0E9015986F0F0E9115996F825192114B
:10436800726F83519311736F84519411746F8551D7
:104378009511756F86519611766F87519711776FE2
:1043880088519811786F89519911796F72C07BF0B3
:1043980073C07CF074C07DF075C07EF076C07FF08D
:1043A80077C080F078C081F07A6B000E7A15826F42
:1043B800FF0E7B15836F000E7C15846FFF0E7D1535
:1043C800856F000E7E15866FFF0E7F15876F000EB6
:1043D8008015886FFF0E8115896F72C08AF073C0CF
:1043E8008BF074C08CF075C08DF076C08EF077C0FD
:1043F8008FF078C090F079C091F08BC08AF08CC0B3
:104408008BF08DC08CF08EC08DF08FC08EF090C078
:104418008FF091C090F0916BFF0E8A15926F000E8D
:104428008B15936FFF0E8C15946F000E8D15956F7D
:10443800FF0E8E15966F000E8F15976FFF0E901555
:10444800986F000E9115996F82519211726F835176
:104458009311736F84519411746F85519511756F11
:1044680086519611766F87519711776F88519811F9
:10447800786F89519911796F72C07AF073C07BF0A7
:1044880074C07CF075C07DF076C07EF077C07FF098
:1044980078C080F079C081F07FC081F07EC080F064
:1044A8007DC07FF07CC07EF07BC07DF07AC07CF060
:1044B8007B6B7A6B000E7A15826F000E7B15836F0B
:1044C800FF0E7C15846FFF0E7D15856F000E7E151F
:1044D800866F000E7F15876FFF0E8015886FFF0EA1
:1044E8008115896F72C08AF073C08BF074C08CF02C
:1044F80075C08DF076C08EF077C08FF078C090F0E0
:1045080079C091F0110E92EF22F0D8909133903348
:104518008F338E338D338C338B338A33E82E89EF88
:1045280022F0FF0E8A15926FFF0E8B15936F000E07
:104538008C15946F000E8D15956FFF0E8E15966F66
:10454800FF0E8F15976F000E9015986F000E91153E
:10455800996F82519211726F83519311736F8451C5
:104568009411746F85519511756F86519611766FF8
:1045780087519711776F88519811786F89519911E0
:10458800796F72C07AF073C07BF074C07CF075C02C
:104598007DF076C07EF077C07FF078C080F079C07B
:1045A80081F0200ED8907A377B377C377D377E377D
:1045B8007F3780378137E82ED6EF22F0000E7A1544
:1045C800826F000E7B15836F000E7C15846F000EC2
:1045D8007D15856FFF0E7E15866FFF0E7F15876F21
:1045E800FF0E8015886FFF0E8115896F72C08AF0E3
:1045F80073C08BF074C08CF075C08DF076C08EF0EF
:1046080077C08FF078C090F079C091F0210E16EF46
:1046180023F0D890913390338F338E338D338C338E
:104628008B338A33E82E0DEF23F0FF0E8A15926F35
:10463800FF0E8B15936FFF0E8C15946FFF0E8D1563
:10464800956F000E8E15966F000E8F15976F000EE2
:104658009015986F000E9115996F82519211726F93
:1046680083519311736F84519411746F855195110F
:10467800756F86519611766F87519711776F8851AC
:104688009811786F89519911796F72C072F073C05F
:1046980073F074C074F075C075F076C076F077C0AA
:1046A80077F078C078F079C079F01200000E000138
:1046B800E26F000EE36F000EE46F000EE56FE2C0DC
:1046C800C7F0E3C0C8F0D890C737C837D890C73705
:1046D800C837000EC725726F010EC821736FA0EC92
:1046E8004AF00001C96FC951D36FD46BD56BD66B33
:1046F800E2C0C7F0E3C0C8F0D890C737C837D89031
:10470800C737C837010EC725726F010EC821736FEE
:10471800A0EC4AF00001C96FC9C0CAF0CB6BCC6BE2
:10472800CD6BCCC0CDF0CBC0CCF0CAC0CBF0CA6B3F
:10473800D351CA25D36FD451CB21D46FD551CC21B5
:10474800D56FD651CD21D66FE2C0C7F0E3C0C8F00F
:10475800D890C737C837D890C737C837020EC7258B
:10476800726F010EC821736FA0EC4AF00001C96F87
:10477800C9C0CAF0CB6BCC6BCD6BCBC0CDF0CAC077
:10478800CCF0CB6BCA6BD351CA25D36FD451CB2194
:10479800D46FD551CC21D56FD651CD21D66FE2C07B
:1047A800C7F0E3C0C8F0D890C737C837D890C73724
:1047B800C837030EC725726F010EC821736FA0ECAE
:1047C8004AF00001C96FC9C0CAF0CB6BCC6BCD6B86
:1047D800CAC0CDF0CC6BCB6BCA6BD351CA25D36F93
:1047E800D451CB21D46FD551CC21D56FD651CD2101
:1047F800D66F010EE227000EE323E423E523D32935
:104808000CE1D4290AE1D52908E1D629D8B40FEF5B
:1048180024F011EF24F01EEF24F0E551E411E31128
:1048280009E1140EE25DD8A01CEF24F01EEF24F07D
:1048380063EF23F0E207000EE35BE45BE55BE55121
:10484800E411E31109E1150EE25DD8A02EEF24F082
:1048580030EF24F038EF24F0230EB06FFD0EB16F67
:1048680078EC4AF0C9EF25F0E2C0C7F0E3C0C8F021
:10487800D890C737C837D890C737C837000EC7256C
:10488800726F010EC821736F38C174F0F1EC47F0F4
:10489800E2C0C7F0E3C0C8F00001D890C737C837F6
:1048A800D890C737C837010EC725726F010EC821C7
:1048B800736F38C1C9F039C1CAF03AC1CBF03BC1F6
:1048C800CCF03CC1CDF03DC1CEF03EC1CFF03FC1F0
:1048D800D0F0CAC0C9F0CBC0CAF0CCC0CBF0CDC0B4
:1048E800CCF0CEC0CDF0CFC0CEF0D0C0CFF0D06BE2
:1048F800C951746FF1EC47F0E2C0C7F0E3C0C8F0EB
:104908000001D890C737C837D890C737C837020EC4
:10491800C725726F010EC821736F38C1C9F039C13C
:10492800CAF03AC1CBF03BC1CCF03CC1CDF03DC19F
:10493800CEF03EC1CFF03FC1D0F0110EADEF24F064
:10494800D890D033CF33CE33CD33CC33CB33CA33F7
:10495800C933E82EA4EF24F0C951746FF1EC47F085
:104968000001EB05D8A4BBEF24F0BDEF24F0F8EF6D
:1049780024F0E2C0C7F0E3C0C8F0D890C737C83702
:10498800D890C737C837030EC725726F010EC821E4
:10499800736F48C0C9F0C93BF00EC91738C1CAF0D7
:1049A80039C1CBF03AC1CCF03BC1CDF03CC1CEF01F
:1049B8003DC1CFF03EC1D0F03FC1D1F0190EEEEFAE
:1049C80024F0D890D133D033CF33CE33CD33CC335A
:1049D800CB33CA33E82EE5EF24F0CA51C911746FFE
:1049E800F1EC47F041EF25F0030EEB19D8A4FFEFE7
:1049F80024F001EF25F003EF25F0BDEF24F0040EBD
:104A0800EB19D8A40AEF25F00CEF25F00EEF25F0EE
:104A1800BDEF24F0E2C0C7F0E3C0C8F0D890C737B4
:104A2800C837D890C737C837030EC725726F010E2D
:104A3800C821736F38C1C9F039C1CAF03AC1CBF087
:104A48003BC1CCF03CC1CDF03DC1CEF03EC1CFF072
:104A58003FC1D0F0190E3AEF25F0D890D033CF33BC
:104A6800CE33CD33CC33CB33CA33C933E82E31EF11
:104A780025F0C951746FF1EC47F09D0E0001B06F3D
:104A8800FD0EB16F78EC4AF038C1BBF039C1BCF00B
:104A98003AC1BDF03BC1BEF03CC1BFF03DC1C0F062
:104AA8003EC1C1F03FC1C2F0D5EC49F0190E00017A
:104AB800B06FFE0EB16F78EC4AF0000E0001E26FA5
:104AC800000EE36F000EE46F000EE56FE551E41190
:104AD800E31109E10A0EE25DD8A075EF25F077EF42
:104AE80025F079EF25F09CEF25F0050E0001C86F41
:104AF8000F0EC76FF10EE82EFED7C72FFCD7C82FB1
:104B0800FAD78290050E0001C86F0F0EC76FF10E1D
:104B1800E82EFED7C72FFCD7C82FFAD78280010E00
:104B28000001E227000EE323E423E5236AEF25F0E2
:104B380038C174F039C175F03AC176F03BC177F0ED
:104B480017EC30F00001D26FD251D8B4AEEF25F097
:104B5800B0EF25F0BCEF25F0D251020D000EF32482
:104B6800D96E010EF420DA6E66C1DEFF67C1DDFF83
:104B7800520E0001C86F2B0EC76F000EE82EFED72D
:104B8800C72FFCD7C82FFAD7000012000001EC0588
:104B9800D8A4D1EF25F0D3EF25F0ECEF25F0DAC05B
:104BA800BBF0DBC0BCF0DCC0BDF0DDC0BEF0DEC0D9
:104BB800BFF0DFC0C0F0E0C0C1F0E1C0C2F0C5EC9A
:104BC8003CF0970E0001B06FFA0EB16F78EC4AF026
:104BD800E0C04EF0DFC04DF0DAC0C4F1DBC0C5F173
:104BE800DCC0C6F1DDC0C7F1DEC0C8F1DFC0C9F165
:104BF800E0C0CAF1E1C0CBF1210E0DEF26F00101B2
:104C0800D890CB33CA33C933C833C733C633C53357
:104C1800C433E82E03EF26F0C4514C6EDAC0C4F159
:104C2800DBC0C5F1DCC0C6F1DDC0C7F1DEC0C8F12C
:104C3800DFC0C9F1E0C0CAF1E1C0CBF1190E2EEF17
:104C480026F0D890CB33CA33C933C833C733C633F9
:104C5800C533C433E82E25EF26F0C4514B6EDAC0B5
:104C6800C4F1DBC0C5F1DCC0C6F1DDC0C7F1DEC0F0
:104C7800C8F1DFC0C9F1E0C0CAF1E1C0CBF1110E43
:104C88004FEF26F0D890CB33CA33C933C833C73374
:104C9800C633C533C433E82E46EF26F0C4514A6EF6
:104CA800DAC0C4F1DBC0C5F1DCC0C6F1DDC0C7F1B4
:104CB800DEC0C8F1DFC0C9F1E0C0CAF1E1C0CBF184
:104CC800C5C1C4F1C6C1C5F1C7C1C6F1C8C1C7F1E4
:104CD800C9C1C8F1CAC1C9F1CBC1CAF1CB6BC451B2
:104CE800496EDAC0EDF00001ED514918ED6F4950F9
:104CF8004A18496E4A504B184A6E4B504C184B6E26
:104D08004C504D184C6E4D504E184D6EEC05D8A4B5
:104D180090EF26F092EF26F0DEEF26F0C50EB06F8A
:104D2800FD0EB16F78EC4AF0860E0001B06FFF0EF1
:104D3800B16F4EC0B2F0B36B78EC4AF0510E00017F
:104D4800B06FFF0EB16F4DC0B2F0B36B78EC4AF0A4
:104D5800580E0001B06FFF0EB16F4CC0B2F0B36BCC
:104D680078EC4AF05F0E0001B06FFF0EB16F4BC0D8
:104D7800B2F0B36B78EC4AF0660E0001B06FFF0E2C
:104D8800B16F4AC0B2F0B36B78EC4AF06D0E000117
:104D9800B06FFF0EB16F49C0B2F0B36B78EC4AF058
:104DA800DC0E0001B06FFE0EB16FEDC0B2F0B36B58
:104DB80078EC4AF04E380F0B4E180001D36F4D387F
:104DC8000F0BD3194D18D36F4C380F0BD3194C1840
:104DD800D36F4B380F0BD3194B18D36F4A380F0BBF
:104DE800D3194A18D36F49380F0BD3194918D36F01
:104DF800ED390F0BD319ED19D36FD3510F0BD36FB7
:104E08004D380F0B0F0B486E080E4818D8B40FEF2B
:104E180027F012EF27F0010E13EF27F0000E010123
:104E2800816F4C50C56FC46B4B50C425666F000E24
:104E3800C521676F4AC0C4F1C56BC66BC76BC86B29
:104E4800C96BCA6BCB6BC9C1CBF1C8C1CAF1C7C1A9
:104E5800C9F1C6C1C8F1C5C1C7F1C4C1C6F1C56BA6
:104E6800C46BC4C138F1C5C139F1C6C13AF1C7C173
:104E78003BF1C8C13CF1C9C13DF1CAC13EF1CBC14A
:104E88003FF149C0C4F1C56BC66BC76BC86BC96B32
:104E9800CA6BCB6BCAC1CBF1C9C1CAF1C8C1C9F1D0
:104EA800C7C1C8F1C6C1C7F1C5C1C6F1C4C1C5F102
:104EB800C46B3851C411386F3951C511396F3A5123
:104EC800C6113A6F3B51C7113B6F3C51C8113C6F3B
:104ED8003D51C9113D6F3E51CA113E6F3F51CB1133
:104EE8003F6F0001ED5101013825386F000E39215F
:104EF800396F000E3A213A6F000E3B213B6F000ECE
:104F08003C213C6F000E3D213D6F000E3E213E6F5F
:104F1800000E3F213F6F0001EC05D8A496EF27F063
:104F280098EF27F02EEF28F0010EB06FFE0EB16F4C
:104F3800D3C0B2F0B36B78EC4AF00001D351D8B4C7
:104F4800A8EF27F0AAEF27F0B0EF27F0420EB06FD6
:104F5800FF0EB16F78EC4AF0970E0001B06FFA0EB1
:104F6800B16F78EC4AF00D0E0001B06FFE0EB16F14
:104F78004EC0B2F0B36B78EC4AF04E50F00BA00A7A
:104F8800D8B4C9EF27F0CBEF27F0D2EF27F07B0E8C
:104F98000001B06FFE0EB16F78EC4AF0970E000179
:104FA800B06FFA0EB16F78EC4AF0330E0001B06FB3
:104FB800FD0EB16F4EC0C4F10F0E0101C417C451EC
:104FC8000001B26FB36B78EC4AF08F0E0001B06F3E
:104FD800FD0EB16F48C0B2F0B36B78EC4AF0E50E45
:104FE8000001B06FFE0EB16F4DC0C4F10F0E01018C
:104FF800C417C4510001B26FB36B78EC4AF0DD0EF0
:105008000001B06FFD0EB16F66C1B2F067C1B3F0B9
:1050180078EC4AF0B70E0001B06FFE0EB16F78EC75
:105028004AF038C1BBF039C1BCF03AC1BDF03BC150
:10503800BEF03CC1BFF03DC1C0F03EC1C1F03FC1B0
:10504800C2F0D5EC49F0970E0001B06FFA0EB16FBF
:1050580078EC4AF00001D351D8B435EF28F038EF96
:1050680028F0010E39EF28F0000E120000019E51C1
:10507800D96EDA6ADECFF6FFDDCFF7FFF86A0800EF
:10508800F550250AD8A44BEF28F04DEF28F0F2EFA1
:1050980029F09E51D96EDA6ADE2A000EDD22000E52
:1050A8000101596F000E586F58C180F15A695B6948
:1050B8000001A26B7FEF28F00101808300019E515F
:1050C800D96EDA6ADE2A000EDD227FEF28F0010EA3
:1050D800A26F7FEF28F09E51D96EDA6ADECFF6FF15
:1050E800DDCFF7FFF86A0800F550300AD8B460EF52
:1050F80028F06BEF28F0A251D8B485EF28F087EF9D
:1051080028F06FEF28F09EC072F09FC073F03EEC5D
:1051180042F072C058F173C059F1010159BF99EFBB
:1051280028F097EF28F09EEF28F08081586D591FDE
:10513800D8B0592B00019E51D96EDA6ADECFA8F09B
:10514800DDCFA9F0A8C0F6FFA9C0F7FFF86A0800EC
:10515800F5CFA7F0BBEF28F0A84BA92BD6EF28F086
:10516800690EA76FD6EF28F0A76BD6EF28F0A751E6
:10517800580AD8B4B4EF28F03C0AD8B4B4EF28F0F1
:105188000D0AD8B4B4EF28F0050AD8B4B0EF28F067
:10519800190AD8B4B4EF28F00D0AD8B4B4EF28F03F
:1051A800B8EF28F0A8C0F6FFA9C0F7FFF86A080012
:1051B800F550640AD8B4E3EF28F0E5EF28F01BEFC8
:1051C80029F0A8C0F6FFA9C0F7FFF86A0800F55053
:1051D800690AD8A4F2EF28F0F4EF28F041EF29F09B
:1051E8001BEF29F09F51D96EDA6ADF50DF2ADF2AD8
:1051F800D96EDA6ADECFA3F0DDCFA4F0000EA4BF2B
:10520800FF0EA56FA66F26EF29F09F51D96EDA6AB7
:10521800040EDF26DF5CD96EDA6ADECFA3F0DECFBC
:10522800A4F0DECFA5F0DECFA6F026EF29F0A75137
:10523800690AD8B4F6EF28F0050AD8B409EF29F0BE
:1052480026EF29F0010EA825A06F000EA921A16F55
:105258009E51D96EDA6AA0C0DEFFA1C0DDFF9DC0F5
:105268008AF0A3C08BF0A4C08CF0A5C08DF0A6C0B6
:105278008EF036EC34F004EF2AF0A8C0F6FFA9C08F
:10528800F7FFF86A0800F550780AD8B44EEF29F00D
:1052980050EF29F096EF29F0A8C0F6FFA9C0F7FF54
:1052A800F86A0800F550580AD8B45DEF29F05FEFA6
:1052B80029F096EF29F0A8C0F6FFA9C0F7FFF86A11
:1052C8000800F550750AD8A46CEF29F06EEF29F0A4
:1052D800E9EF29F096EF29F09F51D96EDA6ADF508D
:1052E800DF2ADF2AD96EDA6ADECFA0F0DDCFA1F09F
:1052F800A0C0A3F0A1C0A4F0A56BA66BA1EF29F0F4
:105308009F51D96EDA6A040EDF26DF5CD96EDA6A3D
:10531800DECFA3F0DECFA4F0DECFA5F0DECFA6F07F
:10532800A1EF29F0A751690AD8B470EF29F0050A4E
:10533800D8B484EF29F0A1EF29F0010EA825A06FB9
:10534800000EA921A16F9E51D96EDA6AA0C0DEFFB6
:10535800A1C0DDFFD4EF29F09DC08AF0A3C08BF077
:10536800A4C08CF0A5C08DF0A6C08EF015EC3AF064
:1053780004EF2AF09DC08AF0A3C08BF0A4C08CF083
:10538800A5C08DF0A6C08EF0A8C0F6FFA9C0F7FF93
:10539800F86A0800F5CF8FF0C9EC38F004EF2AF06E
:1053A800A8C0F6FFA9C0F7FFF86A0800F550580A28
:1053B800D8B4BEEF29F02D0AD8B4B0EF29F00D0A01
:1053C800D8B4BEEF29F0E9EF29F000019E51D96E5B
:1053D800DA6ADE2A000EDD2204EF2AF09E51D96E29
:1053E800DA6ADECFF6FFDDCFF7FFF86A0800F5507E
:1053F800746F756B9DC076F083EC41F0E9EF29F08E
:1054080012002D50D96EDA6ADECFF6FFDDCFF7FF36
:10541800F86A0800F550250AD8A415EF2AF017EF06
:105428002AF0B8EF2BF02D50D96EDA6ADE2A000E7A
:10543800DD22000E0101596F000E586F58C180F12E
:105448005A695B69316A47EF2AF0010180832D5060
:10545800D96EDA6ADE2A000EDD2247EF2AF0010E45
:10546800316E47EF2AF02D50D96EDA6ADECFF6FF9B
:10547800DDCFF7FFF86A0800F550300AD8B429EFF5
:105488002AF033EF2AF03150D8B44DEF2AF04FEF1D
:105498002AF037EF2AF02DC001F02EC002F0EFEC11
:1054A80042F001C058F102C059F1010159BF61EF42
:1054B8002AF05FEF2AF066EF2AF08081586D591FB5
:1054C800D8B0592B2D50D96EDA6ADECF37F0DDCF40
:1054D80038F037C0F6FF38C0F7FFF86A0800F5CF94
:1054E80036F082EF2AF0374A382A9DEF2AF0690E03
:1054F800366E9DEF2AF0366A9DEF2AF03650580A2C
:10550800D8B47BEF2AF03C0AD8B47BEF2AF00D0A16
:10551800D8B47BEF2AF0050AD8B477EF2AF0190A35
:10552800D8B47BEF2AF00D0AD8B47BEF2AF07FEFCE
:105538002AF037C0F6FF38C0F7FFF86A0800F550C0
:10554800640AD8B4AAEF2AF0ACEF2AF0E2EF2AF006
:1055580037C0F6FF38C0F7FFF86A0800F550690A47
:10556800D8A4B9EF2AF0BBEF2AF008EF2BF0E2EF4E
:105578002AF02E50D96EDA6ADF50DF2ADF2AD96E78
:10558800DA6ADECF32F0DDCF33F0000E33BEFF0E25
:10559800346E356EEDEF2AF02E50D96EDA6A040EAD
:1055A800DF26DF5CD96EDA6ADECF32F0DECF33F089
:1055B800DECF34F0DECF35F0EDEF2AF03650690A51
:1055C800D8B4BDEF2AF0050AD8B4D0EF2AF0EDEF31
:1055D8002AF0010E37242F6E000E3820306E2D5021
:1055E800D96EDA6A2FC0DEFF30C0DDFF2CC019F09B
:1055F80032C01AF033C01BF034C01CF035C01DF0A7
:105608000BEC35F0CAEF2BF037C0F6FF38C0F7FFC8
:10561800F86A0800F550780AD8B415EF2BF017EFA0
:105628002BF05DEF2BF037C0F6FF38C0F7FFF86AB4
:105638000800F550580AD8B424EF2BF026EF2BF0C9
:105648005DEF2BF037C0F6FF38C0F7FFF86A0800A7
:10565800F550750AD8A433EF2BF035EF2BF0B0EFE7
:105668002BF05DEF2BF02E50D96EDA6ADF50DF2A6F
:10567800DF2AD96EDA6ADECF2FF0DDCF30F02FC007
:1056880032F030C033F0346A356A68EF2BF02E50B0
:10569800D96EDA6A040EDF26DF5CD96EDA6ADECFED
:1056A80032F0DECF33F0DECF34F0DECF35F068EF06
:1056B8002BF03650690AD8B437EF2BF0050AD8B466
:1056C8004BEF2BF068EF2BF0010E37242F6E000EF6
:1056D8003820306E2D50D96EDA6A2FC0DEFF30C008
:1056E800DDFF9BEF2BF02CC019F032C01AF033C04D
:1056F8001BF034C01CF035C01DF030EC3BF0CAEF95
:105708002BF02CC019F032C01AF033C01BF034C093
:105718001CF035C01DF037C0F6FF38C0F7FFF86A37
:105728000800F5CF1EF071EC39F0CAEF2BF037C046
:10573800F6FF38C0F7FFF86A0800F550580AD8B4E1
:1057480085EF2BF02D0AD8B477EF2BF00D0AD8B4DB
:1057580085EF2BF0B0EF2BF02D50D96EDA6ADE2AE8
:10576800000EDD22CAEF2BF02D50D96EDA6ADECF9B
:10577800F6FFDDCFF7FFF86A0800F550036E046AFC
:105788002CC005F0E1EC41F0B0EF2BF01200000E58
:105798000001B16F000EB06F84518511D8A4D7EF06
:1057A8002BF0D9EF2BF0DBEF2BF04BEF2DF07CC07B
:1057B80086F0010E86177CC087F07DC088F07EC019
:1057C80089F07FC08AF080C08BF081C08CF082C0E5
:1057D8008DF083C08EF088C087F089C088F08AC0B9
:1057E80089F08BC08AF08CC08BF08DC08CF08EC095
:1057F8008DF08E6B010E8717D89087358F6F7CC020
:1058080090F07DC091F07EC092F07FC093F080C090
:1058180094F081C095F082C096F083C097F0140E82
:105828001FEF2CF0D89097339633953394339333F6
:10583800923391339033E82E16EF2CF0010E901727
:10584800D8909037D89090377CC098F07DC099F068
:105858007EC09AF07FC09BF080C09CF081C09DF014
:1058680082C09EF083C09FF01A0E44EF2CF0D890AF
:105878009F339E339D339C339B339A3399339833AC
:10588800E82E3BEF2CF0010E9817D8909837D89057
:105898009837D89098377CC0A0F07DC0A1F07EC022
:1058A800A2F07FC0A3F080C0A4F081C0A5F082C0A0
:1058B800A6F083C0A7F01F0E6BEF2CF0D890A7338B
:1058C800A633A533A433A333A233A133A033E82EE0
:1058D80062EF2CF0010EA017A039F00B981190116F
:1058E8008F118611AD6FAD5170EC49F00001AC6FAE
:1058F800B0510F083F0BAF6FAFC086F0070E861789
:10590800AFC072F0736B000E756F080E746F21ECE8
:1059180041F0000172517A25D96E73517B21DA6EFC
:10592800DF50876F862B9BEF2CF0D8908733862F1C
:1059380099EF2CF000018751AE6F7CC086F07DC0D6
:1059480087F07EC088F07FC089F080C08AF081C06F
:105958008BF082C08CF083C08DF0100EBDEF2CF060
:10596800D8908D338C338B338A338933883387339C
:105978008633E82EB4EF2CF07CC08EF07DC08FF01B
:105988007EC090F07FC091F080C092F081C093F00B
:1059980082C094F083C095F0200EDCEF2CF0D890F4
:1059A8009533943393339233913390338F338E33CB
:1059B800E82ED3EF2CF0AEC096F0976B986B996BEE
:1059C8008E5196199A6F8F5197199B6F905198190C
:1059D8009C6F915199199D6F86519A199E6F8751A5
:1059E8009B199F6F88519C19A06F89519D19A16FB0
:1059F800AC519E19A86F9F51A96FA051AA6FA151D0
:105A0800AB6F010EA815866F000EA915876F000EE3
:105A1800AA15886F000EAB15896F8A6B8B6B8C6B20
:105A28008D6BD8907C358E6F7D358F6F7E35906FFE
:105A38007F35916F8035926F8135936F8235946F82
:105A48008335956F86518E117C6F87518F117D6FCD
:105A5800885190117E6F895191117F6F8A519211EF
:105A6800806F8B519311816F8C519411826F8D517E
:105A78009511836FB04BB12B8451B05D8551B159ED
:105A8800D8A049EF2DF04BEF2DF0DBEF2BF07CC0C9
:105A98007AF07DC07BF07EC07CF07FC07DF080C056
:105AA8007EF081C07FF082C080F083C081F0120058
:105AB800010E00018E6F8280000E8D6F000E8C6FBC
:105AC8000101936B926BF29E290E0001896F960E6D
:105AD800886F7F0EE82EFED7882FFCD7892FFAD73C
