:0400000013EF03F007
:100008005382E1CF64F0E2CF65F0D9CF66F0DACF62
:1000180067F0F3CF68F0F4CF69F0F6CF6AF0F7CF66
:100028006BF0F8CF6CF0F5CF6DF0F2A61EEF00F094
:1000380020EF00F0FDEF02F0F2A025EF00F027EF2F
:1000480000F0FDEF02F08150D650D7CF60F00001EC
:10005800616B626B636B62C063F061C062F060C029
:1000680061F0606B6025E56F000E6121E66F000EA0
:100078006221E76F000E6321E86FD76AD66A030E24
:10008800EA19D8A44AEF00F04CEF00F068EF00F04E
:10009800E851E7110BE12D0EE55D010EE659D8A0F8
:1000A80058EF00F05AEF00F068EF00F0720E3F6E64
:1000B800FF0E406EE5C041F0E6C042F0E7C043F0F5
:1000C800E8C044F04DEC2DF0484A492A0101585146
:1000D800D8A471EF00F073EF00F0A7EF00F0000173
:1000E800E851E7110BE1700EE55D920EE659D8A0D4
:1000F80080EF00F082EF00F0A7EF00F0E851E71181
:1001080009E19F0EE55D940EE659D8B08EEF00F038
:1001180090EF00F0A7EF00F0000E496E010E486E58
:10012800010E01015C6FE5C03CF1E6C03DF1010E36
:10013800586F20EED5F0070EDE6AE806FDE2010EE4
:100148005B6FFBEF02F00001E851E7110BE18C0E49
:10015800E55D0A0EE659D8A0B4EF00F0B6EF00F05E
:10016800AFEF01F0E851E71109E1BB0EE55D0C0EB8
:10017800E659D8B0C2EF00F0C4EF00F0AFEF01F0DD
:1001880001015851D8A4CBEF00F0CDEF00F0D1EF2A
:1001980000F0FBEF02F0FBEF02F06C0E481849107C
:1001A800D8A4D9EF00F0DBEF00F007EF01F05C6BAB
:1001B8005B6BD8904834D96E4934DA6E820ED926F2
:1001C800050EDA22E5C0DEFFE6C0DDFF000E48249A
:1001D800D96E040E4920DA6EDF6A48C036F149C08C
:1001E80037F1586B5C6B576B5B6B6C0E481849109A
:1001F800D8A401EF01F003EF01F0FBEF02F0010ECC
:100208005D6FFBEF02F0020E48184910D8B40FEFEB
:1002180001F011EF01F01BEF01F0030E481849102F
:10022800D8A419EF01F01BEF01F07AEF01F0020EEC
:1002380048184910D8A423EF01F025EF01F02BEF5F
:1002480001F0E5C03AF1E6C03BF1FBEF02F0030E26
:1002580048184910D8A433EF01F035EF01F0AFEF9B
:1002680001F0D8904834D96E4934DA6E7E0ED9261A
:10027800050EDA223CC1DEFF3DC1DDFFFE0E48243B
:10028800D96E030E4920DA6EDF6AD8904834D96EE9
:100298004934DA6E800ED926050EDA223AC1DEFF1D
:1002A8003BC1DDFFFF0E4824D96E030E4920DA6EEC
:1002B800DF6AD8904834D96E4934DA6E820ED9266E
:1002C800050EDA22E5C0DEFFE6C0DDFF000E482499
:1002D800D96E040E4920DA6EDF6A010E576F000EE0
:1002E800396F000E386F5B6BFBEF02F049BE88EF89
:1002F80001F0495007E16C0E485CD8B086EF01F078
:1003080088EF01F09DEF01F0D8904834D96E493458
:10031800DA6E820ED926050EDA22E5C0DEFFE6C0C7
:10032800DDFF000E4824D96E040E4920DA6E010E56
:10033800DF6EF2EC2DF048C036F149C037F1910E6E
:100348003F6EFF0E406E48C041F049C042F04DEC90
:100358002DF0FBEF02F001015751D8B4B6EF01F0D0
:10036800B8EF01F0FBEF02F00001E851E7110BE1F3
:10037800930EE55D060EE659D8A0C5EF01F0C7EF6C
:1003880001F05BEF02F0E851E71109E1C20EE55D0B
:10039800080EE659D8B0D3EF01F0D5EF01F05BEFC6
:1003A80002F049BEE3EF01F0495007E1960E485CC0
:1003B800D8B0E1EF01F0E3EF01F0F7EF01F0D890EA
:1003C8004834D96E4934DA6E820ED926050EDA22FF
:1003D800E5C0DEFFE6C0DDFF000E4824D96E040E3E
:1003E8004920DA6EDF6A48B0FCEF01F0FEEF01F059
:1003F80003EF02F0010E01015A6FFBEF02F0010159
:100408005A51D8A40AEF02F00CEF02F033EF02F0D1
:10041800384B392BD8900001D535D56FD635D66FE6
:10042800D735D76FD835D86FD935D96FDA35DA6F70
:10043800DB35DB6FDC35DC6F010ED511D56FD6519E
:10044800D66FD751D76FD851D86FD951D96FDA51E4
:10045800DA6FDB51DB6FDC51DC6FFBEF02F0000E73
:10046800496E000E486EF2EC2DF0020E0001EA19FA
:10047800D8A441EF02F043EF02F0CFEF00F0000EF6
:100488004824D96E040E4920DA6E020EDF6E1A0E69
:100498003F6EFF0E406EE5C041F0E6C042F0E7C097
:1004A80043F0E8C044F04DEC2DF0FBEF02F0E851CA
:1004B800E7110BE1A70EE55D020EE659D8A067EF3C
:1004C80002F069EF02F0EBEF02F0E851E71109E101
:1004D800D60EE55D040EE659D8B075EF02F077EF59
:1004E80002F0EBEF02F049BE85EF02F0495007E158
:1004F800960E485CD8B083EF02F085EF02F099EFD2
:1005080002F0D8904834D96E4934DA6E820ED92672
:10051800050EDA22E5C0DEFFE6C0DDFF000E482446
:10052800D96E040E4920DA6EDF6A48B09EEF02F0F9
:10053800A0EF02F0A4EF02F001015A6BFBEF02F00A
:1005480001015A05D8A4ABEF02F0ADEF02F0C3EFFA
:1005580002F0384B392BD8900001D535D56FD635F8
:10056800D66FD735D76FD835D86FD935D96FDA3533
:10057800DA6FDB35DB6FDC35DC6FFBEF02F0000E8A
:10058800496E000E486EF2EC2DF0020E0001EA19D9
:10059800D8A4D1EF02F0D3EF02F0CFEF00F0000EB5
:1005A8004824D96E040E4920DA6E030EDF6E1A0E47
:1005B8003F6EFF0E406EE5C041F0E6C042F0E7C076
:1005C80043F0E8C044F04DEC2DF0FBEF02F0F2EC04
:1005D8002DF048C036F149C037F18A0E3F6EFF0E44
:1005E800406E48C041F049C042F04DEC2DF000008B
:1005F800F2906DC0F5FF6CC0F8FF6BC0F7FF6AC0E2
:10060800F6FF69C0F4FF68C0F3FF67C0DAFF66C091
:10061800D9FF65C0E2FF64C0E1FF53921100CCEF3F
:1006280027F0C5C06EF0C6C06FF0F70E0001706FFE
:10063800FF0E716FA4EC29F000016E516F11D8A460
:1006480028EF03F02AEF03F02EEF03F0A2EC1DF0E1
:100658002EEF08F0C5C06EF0C6C06FF0E90E706FDF
:10066800FF0E716FA4EC29F000016E516F11D8A430
:1006780040EF03F042EF03F057EF03F0EA2B030ECD
:10068800EA6549EF03F04BEF03F04CEF03F0EA6B38
:10069800E40EAC6FFE0EAD6FEAC0AEF0AF6B32EC9D
:1006A8002DF02EEF08F0C5C06EF0C6C06FF0EB0E4F
:1006B800706FFF0E716FA4EC29F000016E516F117D
:1006C800D8A469EF03F06BEF03F0B3EF03F0E92B65
:1006D800020EE919D8A473EF03F075EF03F076EF73
:1006E80003F0E96B880EAC6FFD0EAD6FE951040D98
:1006F800E00EF324D96E010EF420DA6EDECFAEF0F0
:10070800DECFAFF0DECFB0F0DECFB1F032EC2DF0BF
:100718000001E951D8A493EF03F095EF03F09FEFA0
:1007280003F0060E7D6E820EAF6E700EAC6FFD0E7E
:10073800AD6F32EC2DF00001E905D8A4A6EF03F067
:10074800A8EF03F02EEF08F07D6A440EAF6EBF0EDF
:10075800AC6FFE0EAD6F32EC2DF02EEF08F0C5C079
:100768006EF0C6C06FF0ED0E706FFF0E716FA4ECE7
:1007780029F000016E516F11D8A4C5EF03F0C7EF3F
:1007880003F0E2EF03F0AB0EAC6FF80EAD6F32EC96
:100798002DF0290E0001C86F960EC76F7F0EE82E48
:1007A800FED7C72FFCD7C82FFAD7000E0001836FDA
:1007B800010E826F84EC14F02EEF08F0C5C06EF0C5
:1007C800C6C06FF0EF0E706FFF0E716FA4EC29F0CA
:1007D80000016E516F11D8A4F4EF03F0F6EF03F0A7
:1007E80011EF04F05C0EAC6FF90EAD6F32EC2DF02A
:1007F800290E0001C86F960EC76F7F0EE82EFED730
:10080800C72FFCD7C82FFAD7000E0001836F020E3E
:10081800826F84EC14F02EEF08F0C5C06EF0C6C0ED
:100828006FF0F10E706FFF0E716FA4EC29F00001EC
:100838006E516F11D8A423EF04F025EF04F029EFCF
:1008480004F007EC13F02EEF08F0C5C06EF0C6C038
:100858006FF0F10E706FFF0E716FA4EC29F00001BC
:100868006E516F11D8A43BEF04F03DEF04F0ECEFAC
:1008780004F00E0EAC6FFE0EAD6F32EC2DF0B2EF41
:1008880004F0980E0001AC6FFF0EAD6F32EC2DF046
:10089800D9EF04F0560E0001AC6FFE0EAD6F2EC1FD
:1008A800AEF02FC1AFF030C1B0F031C1B1F032ECD1
:1008B8002DF0D9EF04F0F20E0001AC6FFC0EAD6F15
:1008C8002EC1AEF02FC1AFF030C1B0F031C1B1F0E0
:1008D80032EC2DF0D9EF04F0610E0001AC6FFB0E85
:1008E800AD6F32EC2DF0D9EF04F0850E0001AC6F3E
:1008F800FC0EAD6F32EC2DF0D9EF04F0EB0E0001D9
:10090800AC6FFA0EAD6F32EC2DF0D9EF04F0770E24
:100918000001AC6FFE0EAD6F32EC2DF0D9EF04F094
:10092800FA0E0001AC6FFE0EAD6F32EC2DF0D9EF70
:1009380004F00C0E0001AC6FFD0EAD6F32EC2DF023
:10094800D9EF04F0080E0001AC6FFD0EAD6F50C07A
:10095800AEF0AF6B32EC2DF0D9EF04F05050000A36
:10096800D8B445EF04F0010AD8B44EEF04F0030AF6
:10097800D8B45FEF04F0010AD8B470EF04F0070AA6
:10098800D8B479EF04F0010AD8B482EF04F0030A6E
:10099800D8B48BEF04F0010AD8B494EF04F00F0A2E
:1009A800D8B49DEF04F0A6EF04F0A00E0001AC6FE0
:1009B800FD0EAD6F65C1AEF0AF6B32EC2DF0D50E0C
:1009C8000001AC6FFC0EAD6F32EC2DF02EEF08F08D
:1009D800C5C06EF0C6C06FF0F30E706FFF0E716F7A
:1009E800A4EC29F000016E516F11D8A4FEEF04F0B9
:1009F80000EF05F07DEF05F0870EAC6FFE0EAD6FD2
:100A08004FC0AEF0AF6B32EC2DF0F90E0001AC6FB9
:100A1800FD0EAD6F5FC1AEF0AF6B32EC2DF0210E65
:100A28000001AC6FFE0EAD6F44C1AEF045C1AFF032
:100A380032EC2DF0010E0001E16F000EE26F000EA6
:100A4800E36F000EE46FE451E311E21109E1830E54
:100A5800E15DD8A032EF05F034EF05F036EF05F090
:100A68005FEF05F0D10EAC6FFF0EAD6FE1C0AEF0D9
:100A7800E2C0AFF0E3C0B0F0E4C0B1F032EC2DF06A
:100A8800C90E0001AC6FFF0EAD6F000EE125D96EE7
:100A9800050EE221DA6EDF50C76FC751AE6FAF6B3C
:100AA80032EC2DF0010E0001E127000EE223E323D2
:100AB800E42327EF05F0D50EAC6FFC0EAD6F32ECDA
:100AC8002DF0450E0001AC6FFE0EAD6F42C1AEF0C9
:100AD80043C1AFF032EC2DF0960E0001AC6FFE0E64
:100AE800AD6F40C1AEF041C1AFF032EC2DF02EEF4A
:100AF80008F0C5C06EF0C6C06FF0430E706FFE0EF2
:100B0800716FA4EC29F000016E516F11D8A48FEF1A
:100B180005F091EF05F0FEEF05F0000EE16F000E15
:100B2800E26F000EE36F000EE46FE451E311E2118F
:100B380009E1C80EE15DD8A0A4EF05F0A6EF05F025
:100B4800A8EF05F02EEF08F0E1C0B7F0E2C0B8F06A
:100B5800E3C0B9F0E4C0BAF02CEC1AF0D10E0001F1
:100B6800AC6FFF0EAD6FE1C0AEF0E2C0AFF0E3C016
:100B7800B0F0E4C0B1F032EC2DF0B50E0001AC6F6E
:100B8800FF0EAD6F00C3AEF0AF6B32EC2DF0010E6F
:100B98000001E125C76F000EE221C86F000EE321B6
:100BA800C96F000EE421CA6F0F0EC715CB6F000E78
:100BB800C815CC6F000EC915CD6F000ECA15CE6FC3
:100BC800CB51CC11CD11CE11D8A4EDEF05F0EFEF3C
:100BD80005F0F5EF05F0D50EAC6FFC0EAD6F32ECFD
:100BE8002DF0010E0001E127000EE223E323E423A8
:100BF80099EF05F0C5C06EF0C6C06FF0F50E706FC6
:100C0800FF0E716FA4EC29F000016E516F11D8A48A
:100C180010EF06F012EF06F094EF06F0000EE16F09
:100C2800000EE26F000EE36F000EE46FE451E31173
:100C38000AE1E129030EE259D8A025EF06F027EFD3
:100C480006F029EF06F02EEF08F0E1C06EF0E2C0E2
:100C58006FF05AEC2DF00101C56F0F0E0001E11580
:100C6800C76F000EE215C86F000EE315C96F000EBE
:100C7800E415CA6FC751C811C911CA11D8A447EFE2
:100C880006F049EF06F057EF06F0D50EAC6FFF0EF1
:100C9800AD6FE1C0AEF0E2C0AFF0E3C0B0F0E4C0C9
:100CA800B1F032EC2DF0B50E0001AC6FFF0EAD6F58
:100CB800C5C1AEF0AF6B32EC2DF0010E0001E1259D
:100CC800C76F000EE221C86F000EE321C96F000E46
:100CD800E421CA6F0F0EC715CB6F000EC815CC6F75
:100CE800000EC915CD6F000ECA15CE6FCB51CC11B1
:100CF800CD11CE11D8A483EF06F085EF06F08BEF67
:100D080006F0D50EAC6FFC0EAD6F32EC2DF0010E77
:100D18000001E127000EE223E323E4231AEF06F0A3
:100D2800C5C06EF0C6C06FF0F90E706FFF0E716F20
:100D3800A4EC29F000016E516F11D8A4A6EF06F0BB
:100D4800A8EF06F02AEF07F00101CA6B000E0001B8
:100D5800E16F000EE26F000EE36F000EE46FF7EF35
:100D680006F0E1C0B7F0E2C0B8F0E3C0B9F0E4C003
:100D7800BAF0800EBB6FF4EC1AF0800E0001E1258A
:100D8800E16F000EE221E26F000EE321E36F000E37
:100D9800E421E46F000E0101C66F000EC76F000E5C
:100DA800C86F000EC96FC951C811C71109E1800E7B
:100DB800C65DD8A0E2EF06F0E4EF06F0E6EF06F035
:100DC800F7EF06F0000EC625D96E030EC721DA6EBE
:100DD800DF50CA19CA6F010EC627000EC723C823E1
:100DE800C923D7EF06F00001E4510CE1E129FF0E19
:100DF800E259010EE359D8A004EF07F006EF07F017
:100E0800B5EF06F03F0EAC6FFD0EAD6FCAC1AEF088
:100E1800AF6B32EC2DF00101CA51D8A416EF07F0E0
:100E280018EF07F021EF07F0AB0E0001AC6FFF0ED3
:100E3800AD6F32EC2DF02EEF08F0600E0001AC6FB4
:100E4800FF0EAD6F32EC2DF02EEF08F0C5C06EF03E
:100E5800C6C06FF0FB0E706FFF0E716FA4EC29F027
:100E680000016E516F11D8A43CEF07F03EEF07F078
:100E780012EF08F0000E0101CB6F000ECC6F000ED0
:100E8800CD6F000ECE6F02EF08F0CBC1B7F0CCC12A
:100E9800B8F0CDC1B9F0CEC1BAF0800E0001BB6F79
:100EA800F4EC1AF0000E0001E16F000EE26F000E84
:100EB800E36F000EE46FE451E311E21109E1800EE3
:100EC800E15DD8A06AEF07F06CEF07F06EEF07F06E
:100ED800F5EF07F00101CB510001E1250101C16FD8
:100EE800CC510001E2210101C26FCD510001E32183
:100EF8000101C36FCE510001E4210101C46F0F0E3F
:100F08000001E115C76F000EE215C86F000EE3156A
:100F1800C96F000EE415CA6FC751C811C911CA11AB
:100F2800D8A499EF07F09BEF07F0A9EF07F0540E4C
:100F3800AC6FFD0EAD6FC1C1AEF0C2C1AFF0C3C1A1
:100F4800B0F0C4C1B1F032EC2DF0CD0E0001AC6FA1
:100F5800FF0EAD6F000EE125D96E030EE221DA6EA9
:100F6800DF50C76FC751AE6FAF6B32EC2DF0010E7B
:100F78000001E125C76F000EE221C86F000EE321D2
:100F8800C96F000EE421CA6F0F0EC715CB6F000E94
:100F9800C815CC6F000EC915CD6F000ECA15CE6FDF
:100FA800CB51CC11CD11CE11D8A4DDEF07F0DFEF76
:100FB80007F0E5EF07F0D50EAC6FFC0EAD6F32EC25
:100FC8002DF0E40E00D000D0E82EFCD700D000D0E1
:100FD800010E0001E127000EE223E323E4235FEF83
:100FE80007F0800E0101CB25CB6F000ECC21CC6F12
:100FF800000ECD21CD6F000ECE21CE6FCE510CE16B
:10100800CB29FF0ECC59010ECD59D8A00EEF08F010
:1010180010EF08F049EF07F02EEF08F0C5C06EF0AA
:10102800C6C06FF0FD0E706FFF0E716FA4EC29F053
:1010380000016E516F11D8A424EF08F026EF08F0D4
:1010480028EF08F02EEF08F0E40EAC6FFD0EAD6F40
:1010580032EC2DF01200D5C0B7F0D6C0B8F0D7C02A
:10106800B9F0D8C0BAF0D9C0BBF0DAC0BCF0DBC068
:10107800BDF0DCC0BEF0040ED8900001B737B83719
:10108800B937BA37BB37BC37BD37BE37E82E40EF64
:1010980008F0B7C0C1F0B8C0C2F0B9C0C3F0BAC058
:1010A800C4F0BBC0C5F0BCC0C6F0BDC0C7F0BEC070
:1010B800C8F020EEC1F0F00EDE18C16FFF0EDE188A
:1010C800C26FFF0EDE18C36FFF0EDE18C46FFF0E6F
:1010D800DE18C56FFF0EDE18C66FFF0EDE18C76F6D
:1010E800000EDE18C86FC1C0B7F0C2C0B8F0C3C0E8
:1010F800B9F0C4C0BAF0C5C0BBF0C6C0BCF0C7C028
:10110800BDF0C8C0BEF0310E93EF08F0D890BE33E2
:10111800BD33BC33BB33BA33B933B833B733E82E36
:101128008AEF08F0B7C0C9F0B8C0CAF0B9C0CBF0B0
:10113800BAC0CCF0BBC0CDF0BCC0CEF0BDC0CFF0C3
:10114800BEC0D0F0C939F00BF00BEF6F040EB76FCB
:10115800C9C0B8F0CAC0B9F0CBC0BAF0CCC0BBF0B7
:10116800CDC0BCF0CEC0BDF0CFC0BEF0D0C0BFF087
:10117800B767C1EF08F0CDEF08F0BF35BF33BE3316
:10118800BD33BC33BB33BA33B933B833B72FBCEF35
:1011980008F00001B8510F0BF06FC1C0B7F0C2C022
:1011A800B8F0C3C0B9F0C4C0BAF0C5C0BBF0C6C07F
:1011B800BCF0C7C0BDF0C8C0BEF0290EEDEF08F006
:1011C800D890BE33BD33BC33BB33BA33B933B8332D
:1011D800B733E82EE4EF08F0B7C0C9F0B8C0CAF0DA
:1011E800B9C0CBF0BAC0CCF0BBC0CDF0BCC0CEF01B
:1011F800BDC0CFF0BEC0D0F0040EB76FC9C0B8F004
:10120800CAC0B9F0CBC0BAF0CCC0BBF0CDC0BCF0FE
:10121800CEC0BDF0CFC0BEF0D0C0BFF0B76717EFEB
:1012280009F023EF09F0BF35BF33BE33BD33BC33FC
:10123800BB33BA33B933B833B72F12EF09F0000113
:10124800B8510F0BEF11EF6FC939F00BF00BEE6FC0
:10125800C1C0B7F0C2C0B8F0C3C0B9F0C4C0BAF0DA
:10126800C5C0BBF0C6C0BCF0C7C0BDF0C8C0BEF0AA
:10127800210E48EF09F0D890BE33BD33BC33BB33E1
:10128800BA33B933B833B733E82E3FEF09F0B7C0F4
:10129800C9F0B8C0CAF0B9C0CBF0BAC0CCF0BBC076
:1012A800CDF0BCC0CEF0BDC0CFF0BEC0D0F0040EB3
:1012B800B76FC9C0B8F0CAC0B9F0CBC0BAF0CCC0DB
:1012C800BBF0CDC0BCF0CEC0BDF0CFC0BEF0D0C02A
:1012D800BFF0B76772EF09F07EEF09F0BF35BF3393
:1012E800BE33BD33BC33BB33BA33B933B833B72F8E
:1012F8006DEF09F00001B8510F0BEE11EE6FC9390F
:10130800F00BF00BED6FC1C0B7F0C2C0B8F0C3C0AE
:10131800B9F0C4C0BAF0C5C0BBF0C6C0BCF0C7C005
:10132800BDF0C8C0BEF0190EA3EF09F0D890BE33C7
:10133800BD33BC33BB33BA33B933B833B733E82E14
:101348009AEF09F0B7C0C9F0B8C0CAF0B9C0CBF07D
:10135800BAC0CCF0BBC0CDF0BCC0CEF0BDC0CFF0A1
:10136800BEC0D0F0040EB76FC9C0B8F0CAC0B9F09B
:10137800CBC0BAF0CCC0BBF0CDC0BCF0CEC0BDF085
:10138800CFC0BEF0D0C0BFF0B767CDEF09F0D9EF3E
:1013980009F0BF35BF33BE33BD33BC33BB33BA33BB
:1013A800B933B833B72FC8EF09F00001B8510F0BA4
:1013B800ED11ED6FC939F00BF00BEC6FC1C0B7F050
:1013C800C2C0B8F0C3C0B9F0C4C0BAF0C5C0BBF061
:1013D800C6C0BCF0C7C0BDF0C8C0BEF0110EFEEF5D
:1013E80009F0D890BE33BD33BC33BB33BA33B933FD
:1013F800B833B733E82EF5EF09F0B7C0C9F0B8C075
:10140800CAF0B9C0CBF0BAC0CCF0BBC0CDF0BCC0FC
:10141800CEF0BDC0CFF0BEC0D0F0040EB76FC9C0CB
:10142800B8F0CAC0B9F0CBC0BAF0CCC0BBF0CDC0E0
:10143800BCF0CEC0BDF0CFC0BEF0D0C0BFF0B76723
:1014480028EF0AF034EF0AF0BF35BF33BE33BD339F
:10145800BC33BB33BA33B933B833B72F23EF0AF0F1
:101468000001B8510F0BEC11EC6FC939F00BF00B00
:10147800EB6FC1C0B7F0C2C0B8F0C3C0B9F0C4C008
:10148800BAF0C5C0BBF0C6C0BCF0C7C0BDF0C8C08C
:10149800BEF0B8C0B7F0B9C0B8F0BAC0B9F0BBC0B8
:1014A800BAF0BCC0BBF0BDC0BCF0BEC0BDF0BE6BE6
:1014B800B7C0C9F0B8C0CAF0B9C0CBF0BAC0CCF058
:1014C800BBC0CDF0BCC0CEF0BDC0CFF0BEC0D0F028
:1014D800040EB76FC9C0B8F0CAC0B9F0CBC0BAF033
:1014E800CCC0BBF0CDC0BCF0CEC0BDF0CFC0BEF00C
:1014F800D0C0BFF0B76783EF0AF08FEF0AF0BF35AF
:10150800BF33BE33BD33BC33BB33BA33B933B8335F
:10151800B72F7EEF0AF00001B8510F0BEB11EB6FFC
:10152800C939F00BF00B526EC1C0C9F0C2C0CAF085
:10153800C3C0CBF0C4C0CCF0C5C0CDF0C6C0CEF09F
:10154800C7C0CFF0C8C0D0F0040EB76FC9C0B8F09C
:10155800CAC0B9F0CBC0BAF0CCC0BBF0CDC0BCF0AB
:10156800CEC0BDF0CFC0BEF0D0C0BFF0B767BFEFF0
:101578000AF0CBEF0AF0BF35BF33BE33BD33BC33FF
:10158800BB33BA33B933B833B72FBAEF0AF0000117
:10159800B8510F0B5210526EF2EC2AF00001C06FD6
:1015A800EA51D8B4DAEF0AF0DCEF0AF078EF0BF082
:1015B800C051D8B4E2EF0AF0E4EF0AF0ECEF0AF019
:1015C800B00EAC6FFF0EAD6F32EC2DF0F2EF0AF0FB
:1015D800BA0EAC6FFF0EAD6F32EC2DF0E40E0001C9
:1015E800AC6FFF0EAD6FF0C0AEF0AF6B32EC2DF00C
:1015F800E70E0001AC6FFF0EAD6F32EC2DF0E40E7C
:101608000001AC6FFF0EAD6FEFC0AEF0AF6B32EC08
:101618002DF0E70E0001AC6FFF0EAD6F32EC2DF030
:10162800E40E0001AC6FFF0EAD6FEEC0AEF0AF6B15
:1016380032EC2DF0E70E0001AC6FFF0EAD6F32EC0F
:101648002DF0E40E0001AC6FFF0EAD6FEDC0AEF0F3
:10165800AF6B32EC2DF0E70E0001AC6FFF0EAD6FF3
:1016680032EC2DF0E40E0001AC6FFF0EAD6FECC054
:10167800AEF0AF6B32EC2DF0E70E0001AC6FFF0E51
:10168800AD6F32EC2DF0E40E0001AC6FFF0EAD6FC4
:10169800EBC0AEF0AF6B32EC2DF0E70E0001AC6F93
:1016A800FF0EAD6F32EC2DF0E40E0001AC6FFF0EB3
:1016B800AD6F52C0AEF0AF6B32EC2DF0E10E000111
:1016C800AC6FFF0EAD6F32EC2DF00001C051D8A405
:1016D80070EF0BF072EF0BF078EF0BF0D50EAC6FEC
:1016E800FC0EAD6F32EC2DF0120040EC2DF0808A2C
:1016F800506A0F015D6B5C6BD08EF19EF180F290A9
:10170800F286F28E5A89010E0001E96FE951D8A4D8
:1017180090EF0BF092EF0BF096EF0BF0060E7D6E4C
:10172800820EAF6EE905D8A49CEF0BF09EEF0BF08C
:10173800A1EF0BF07D6A440EAF6E920ED56E3C0E93
:10174800726FFB0E736FBCEC22F0B20E0001726F69
:10175800FE0E736FBCEC22F0A80E0001726FFB0E38
:10176800736FBCEC22F0B20E0001726FFE0E736F45
:10177800BCEC22F08290A2EC1DF082800001EA6BA2
:1017880041EC2EF0F28E000E81B4010E0101596F6A
:1017980081B4D1EF0BF0D3EF0BF035EF0CF0010E65
:1017A80001012A27000E2B232C232D232D510DE177
:1017B800210E2A5DA10E2B59070E2C59D8A0E7EF50
:1017C8000BF0E9EF0BF035EF0CF08290000E2A6F6A
:1017D800000E2B6F000E2C6F000E2D6FCA0E00012D
:1017E800AC6FFB0EAD6F32EC2DF0260E0001AC6F26
:1017F800FD0EAD6F32EC2DF0010E0101436F000EAE
:10180800426F2C0E425D010E4359D8A00EEF0CF02A
:1018180010EF0CF012EF0CF020EF0CF042C16EF05C
:1018280043C16FF0FF0E0001706FA0EC2AF00101B8
:10183800424B432B05EF0CF0520E0101D96F2B0ED2
:10184800D86F000EE82EFED7D82FFCD7D92FFAD79D
:101858000000828081A433EF0CF035EF0CF02EEFFE
:101868000CF001015951D8B43CEF0CF03FEF0CF0EB
:10187800010E40EF0CF0000ED86FD96B81B447EF22
:101888000CF04AEF0CF0010E4BEF0CF0000ED817DD
:10189800000ED9172D512C1109E1F50E2A5D010E04
:1018A8002B59D8B05AEF0CF05DEF0CF0010E5EEF3B
:1018B8000CF0000ED817000ED9172D512C110CE181
:1018C800D00E2A5D070E2B59D8A06DEF0CF070EFE3
:1018D8000CF0010E71EF0CF0000ED817000ED9179E
:1018E800D851D911D8B47BEF0CF07DEF0CF095EFFF
:1018F8000CF0100E0001AC6FFF0EAD6F32EC2DF046
:10190800500E0101226FC30E236F000E246F000ECC
:10191800256F000E266F000E276F000E286F000E31
:10192800296F22512311241125112611271128115D
:101938002911D8B4A2EF0CF0A4EF0CF00AEF0DF0C7
:101948002207000E235B245B255B265B275B285B55
:10195800295B22C16EF023C16FF024C170F025C14C
:1019680071F026C172F027C173F028C174F029C143
:1019780075F0E80E0001766F030E776F000E786F32
:10198800000E796F000E7A6F000E7B6F000E7C6F71
:10199800000E7D6F2CEC23F06EC0D8F16FC0D9F12A
:1019A80070C0DAF171C0DBF172C0DCF173C0DDF137
:1019B80074C0DEF175C0DFF10101D851D911DA1117
:1019C800DB11DC11DD11DE11DF11D8A4EEEF0CF014
:1019D800F0EF0CF0F9EF0CF082A0F5EF0CF0F8EF57
:1019E8000CF08280F9EF0CF0829001012251231152
:1019F800241125112611271128112911D8A407EF20
:101A08000DF009EF0DF00AEF0DF08280000E81B4A1
:101A1800010E596F81A413EF0DF015EF0DF01DEFB6
:101A28000DF0000E2A6F000E2B6F000E2C6F000EAB
:101A38002D6F5D51D8A423EF0DF025EF0DF027EFA2
:101A48000DF05BEC21F001015651D8B42EEF0DF0EA
:101A580030EF0DF032EF0DF007EC13F001015D519E
:101A6800D8B439EF0DF03BEF0DF0CCEF0BF05D6B18
:101A7800F29E020E0001EA19D8A445EF0DF047EFD7
:101A88000DF049EF0DF007EC13F00001EA51D8B45E
:101A980050EF0DF052EF0DF06BEF0DF0D5C0B7F031
:101AA800D6C0B8F0D7C0B9F0D8C0BAF0D9C0BBF02A
:101AB800DAC0BCF0DBC0BDF0DCC0BEF0E3EC20F067
:101AC800700E0001AC6FFF0EAD6F32EC2DF02FECF5
:101AD80008F0F2EC2AF00009D8B475EF0DF077EFB2
:101AE8000DF07BEF0DF0E0EC15F091EC0DF0000E31
:101AF800496E000E486E520E0101D96F2B0ED86F39
:101B0800000EE82EFED7D82FFCD7D92FFAD7000021
:101B1800F28ECCEF0BF013EF03F0DDC070F0DEC0F7
:101B280071F0DFC072F0E0C073F05EEC19F00001F4
:101B3800CE6FBF0EAC6FFF0EAD6FCEC0AEF0AF6B09
:101B480032EC2DF00001CE51D8B4ADEF0DF0AFEF6F
:101B58000DF0D1EF0DF0DD0EAC6FFF0EAD6F32EC76
:101B68002DF00001CE51020D000EF324D96E010EA6
:101B7800F420DA6E3EC1DEFF3FC1DDFF809A520ECF
:101B88000001C46F2B0EC36F000EE82EFED7C32FC3
:101B9800FCD7C42FFAD70000808AD50E0001AC6F9D
:101BA800FC0EAD6F32EC2DF00101225123112411EE
:101BB80025112611271128112911D8B4E6EF0DF0A7
:101BC800E8EF0DF07AEF0FF021EE22F0070EDE6A53
:101BD800E806FDE20001CE51D8A4F5EF0DF0F7EFCD
:101BE8000DF06BEF0FF0000EE16F000EE26F000ECC
:101BF800E36F000EE46FE1C0C3F0E2C0C4F0D89018
:101C0800C337C437D890C337C437000EC3256E6FA7
:101C1800010EC4216F6F5AEC2DF00001C56FC5513C
:101C2800CA6FCB6BCC6BCD6BE1C0C3F0E2C0C4F024
:101C3800D890C337C437D890C337C437010EC325EB
:101C48006E6F010EC4216F6F5AEC2DF00001C56F45
:101C5800C5C0C6F0C76BC86BC96BC8C0C9F0C7C0E0
:101C6800C8F0C6C0C7F0C66BCA51C625CA6FCB51EB
:101C7800C721CB6FCC51C821CC6FCD51C921CD6FB5
:101C8800E1C0C3F0E2C0C4F0D890C337C437D890DD
:101C9800C337C437020EC3256E6F010EC4216F6FA0
:101CA8005AEC2DF00001C56FC5C0C6F0C76BC86BF4
:101CB800C96BC7C0C9F0C6C0C8F0C76BC66BCA51EC
:101CC800C625CA6FCB51C721CB6FCC51C821CC6F69
:101CD800CD51C921CD6FE1C0C3F0E2C0C4F0D890A6
:101CE800C337C437D890C337C437030EC3256E6FC4
:101CF800010EC4216F6F5AEC2DF00001C56FC5C0ED
:101D0800C6F0C76BC86BC96BC6C0C9F0C86BC76BD8
:101D1800C66BCA51C625CA6FCB51C721CB6FCC51F0
:101D2800C821CC6FCD51C921CD6F010EE127000E1E
:101D3800E223E323E423CA290CE1CB290AE1CC29D5
:101D480008E1CD29D8B4ABEF0EF0ADEF0EF0BAEF45
:101D58000EF0E451E311E21109E10B0EE15DD8A0A8
:101D6800B8EF0EF0BAEF0EF0FFEF0DF0E107000E3E
:101D7800E25BE35BE45BE451E311E21109E10B0E82
:101D8800E15DD8A0CAEF0EF0CCEF0EF0D4EF0EF064
:101D9800670EAC6FFE0EAD6F32EC2DF07AEF0FF0E0
:101DA800E1C0C3F0E2C0C4F0D890C337C437D890BC
:101DB800C337C437000EC3256E6F010EC4216F6F81
:101DC800DDC070F0A0EC2AF0E1C0C3F0E2C0C4F0BE
:101DD8000001D890C337C437D890C337C437010E31
:101DE800C3256E6F010EC4216F6FDEC070F0A0ECCA
:101DF8002AF0E1C0C3F0E2C0C4F00001D890C337B4
:101E0800C437D890C337C437020EC3256E6F010E8E
:101E1800C4216F6FDFC070F0A0EC2AF0E1C0C3F0FE
:101E2800E2C0C4F00001D890C337C437D890C33794
:101E3800C437030EC3256E6F010EC4216F6FE0C057
:101E480070F0A0EC2AF0A40E0001AC6FFE0EAD6F8E
:101E580032EC2DF00001DD51B76FDE51B86FDF5164
:101E6800B96FE051BA6FBB6BBC6BBD6BBE6B78ECE6
:101E78002CF0EF0E0001AC6FFE0EAD6F32EC2DF0C2
:101E8800DDC070F0DEC071F0DFC072F0E0C073F04A
:101E98005EEC19F00001CE6FCE51020D000EF32456
:101EA800D96E010EF420DA6E3EC1DEFF3FC1DDFFC0
:101EB800520E0001C46F2B0EC36F000EE82EFED722
:101EC800C32FFCD7C42FFAD700007AEF0FF0A20E69
:101ED800AC6FFC0EAD6F32EC2DF0580E0001AC6FFC
:101EE800FD0EAD6F32EC2DF05CEF0FF0120000012B
:101EF8009A51D96EDA6ADECFF6FFDDCFF7FFF86ABE
:101F08000800F550250AD8A48CEF0FF08EEF0FF0DB
:101F180030EF11F09A51D96EDA6ADE2A000EDD220E
:101F2800000E476E000E466E46C04CF00101326945
:101F3800336900019E6BBEEF0FF04C829A51D96E47
:101F4800DA6ADE2A000EDD22BEEF0FF0010E9E6F68
:101F5800BEEF0FF09A51D96EDA6ADECFF6FFDDCF09
:101F6800F7FFF86A0800F550300AD8B4A1EF0FF06F
:101F7800AAEF0FF09E51D8B4C4EF0FF0C6EF0FF0E0
:101F8800AEEF0FF09AC06EF09BC06FF0E1EC25F059
:101F98006EC046F06FC047F047BED7EF0FF0D5EFE1
:101FA8000FF0DCEF0FF04C80466C471ED8B0472A84
:101FB80000019A51D96EDA6ADECFA4F0DDCFA5F020
:101FC800A4C0F6FFA5C0F7FFF86A0800F5CFA3F094
:101FD800F9EF0FF0A44BA52B14EF10F0690EA36FC7
:101FE80014EF10F0A36B14EF10F0A351580AD8B4F3
:101FF800F2EF0FF03C0AD8B4F2EF0FF00D0AD8B4A4
:10200800F2EF0FF0050AD8B4EEEF0FF0190AD8B4C2
:10201800F2EF0FF00D0AD8B4F2EF0FF0F6EF0FF071
:10202800A4C0F6FFA5C0F7FFF86A0800F550640AD7
:10203800D8B421EF10F023EF10F059EF10F0A4C03E
:10204800F6FFA5C0F7FFF86A0800F550690AD8A49A
:1020580030EF10F032EF10F07FEF10F059EF10F082
:102068009B51D96EDA6ADF50DF2ADF2AD96EDA6A25
:10207800DECF9FF0DDCFA0F0000EA0BFFF0EA16F56
:10208800A26F64EF10F09B51D96EDA6A040EDF2656
:10209800DF5CD96EDA6ADECF9FF0DECFA0F0DECF4C
:1020A800A1F0DECFA2F064EF10F0A351690AD8B412
:1020B80034EF10F0050AD8B447EF10F064EF10F0D1
:1020C800010EA4259C6F000EA5219D6F9A51D96E13
:1020D800DA6A9CC0DEFF9DC0DDFF99C086F09FC014
:1020E80087F0A0C088F0A1C089F0A2C08AF0BDEC3A
:1020F80017F042EF11F0A4C0F6FFA5C0F7FFF86A89
:102108000800F550780AD8B48CEF10F08EEF10F074
:10211800D4EF10F0A4C0F6FFA5C0F7FFF86A0800D6
:10212800F550580AD8B49BEF10F09DEF10F0D4EF9B
:1021380010F0A4C0F6FFA5C0F7FFF86A0800F55034
:10214800750AD8A4AAEF10F0ACEF10F027EF11F041
:10215800D4EF10F09B51D96EDA6ADF50DF2ADF2AFC
:10216800D96EDA6ADECF9CF0DDCF9DF09CC09FF07F
:102178009DC0A0F0A16BA26BDFEF10F09B51D96E50
:10218800DA6A040EDF26DF5CD96EDA6ADECF9FF0EA
:10219800DECFA0F0DECFA1F0DECFA2F0DFEF10F0AF
:1021A800A351690AD8B4AEEF10F0050AD8B4C2EF4B
:1021B80010F0DFEF10F0010EA4259C6F000EA52192
:1021C8009D6F9A51D96EDA6A9CC0DEFF9DC0DDFF13
:1021D80012EF11F099C086F09FC087F0A0C088F078
:1021E800A1C089F0A2C08AF0C3EC1EF042EF11F042
:1021F80099C086F09FC087F0A0C088F0A1C089F080
:10220800A2C08AF0A4C0F6FFA5C0F7FFF86A0800CC
:10221800F5CF8BF05AEC1CF042EF11F0A4C0F6FF9A
:10222800A5C0F7FFF86A0800F550580AD8B4FCEFC3
:1022380010F02D0AD8B4EEEF10F00D0AD8B4FCEF68
:1022480010F027EF11F000019A51D96EDA6ADE2AF0
:10225800000EDD2242EF11F09A51D96EDA6ADECF14
:10226800F6FFDDCFF7FFF86A0800F550706F716B65
:1022780099C072F026EC25F027EF11F012002D50CE
:10228800D96EDA6ADECFF6FFDDCFF7FFF86A08000D
:10229800F550250AD8A453EF11F055EF11F0F4EFDB
:1022A80012F02D50D96EDA6ADE2A000EDD22000EF9
:1022B800476E000E466E46C04CF001013269336924
:1022C800316A84EF11F04C822D50D96EDA6ADE2A19
:1022D800000EDD2284EF11F0010E316E84EF11F053
:1022E8002D50D96EDA6ADECFF6FFDDCFF7FFF86A38
:1022F8000800F550300AD8B467EF11F070EF11F00C
:102308003150D8B48AEF11F08CEF11F074EF11F05E
:102318002DC001F02EC002F03AEC26F001C046F0C4
:1023280002C047F047BE9DEF11F09BEF11F0A2EFFE
:1023380011F04C80466C471ED8B0472A2D50D96EF4
:10234800DA6ADECF37F0DDCF38F037C0F6FF38C0B5
:10235800F7FFF86A0800F5CF36F0BEEF11F0374AFC
:10236800382AD9EF11F0690E366ED9EF11F0366AB6
:10237800D9EF11F03650580AD8B4B7EF11F03C0A2B
:10238800D8B4B7EF11F00D0AD8B4B7EF11F0050AB9
:10239800D8B4B3EF11F0190AD8B4B7EF11F00D0A99
:1023A800D8B4B7EF11F0BBEF11F037C0F6FF38C063
:1023B800F7FFF86A0800F550640AD8B4E6EF11F0A0
:1023C800E8EF11F01EEF12F037C0F6FF38C0F7FF44
:1023D800F86A0800F550690AD8A4F5EF11F0F7EF8C
:1023E80011F044EF12F01EEF12F02E50D96EDA6A97
:1023F800DF50DF2ADF2AD96EDA6ADECF32F0DDCF8E
:1024080033F0000E33BEFF0E346E356E29EF12F036
:102418002E50D96EDA6A040EDF26DF5CD96EDA6ACE
:10242800DECF32F0DECF33F0DECF34F0DECF35F062
:1024380029EF12F03650690AD8B4F9EF11F0050AFD
:10244800D8B40CEF12F029EF12F0010E37242F6EDA
:10245800000E3820306E2D50D96EDA6A2FC0DEFF9C
:1024680030C0DDFF2CC019F032C01AF033C01BF0A9
:1024780034C01CF035C01DF08FEC18F006EF13F0D7
:1024880037C0F6FF38C0F7FFF86A0800F550780A39
:10249800D8B451EF12F053EF12F099EF12F037C0A1
:1024A800F6FF38C0F7FFF86A0800F550580AD8B4A4
:1024B80060EF12F062EF12F099EF12F037C0F6FFFA
:1024C80038C0F7FFF86A0800F550750AD8A46FEF0E
:1024D80012F071EF12F0ECEF12F099EF12F02E50AB
:1024E800D96EDA6ADF50DF2ADF2AD96EDA6ADECFE0
:1024F8002FF0DDCF30F02FC032F030C033F0346A27
:10250800356AA4EF12F02E50D96EDA6A040EDF266F
:10251800DF5CD96EDA6ADECF32F0DECF33F0DECFA1
:1025280034F0DECF35F0A4EF12F03650690AD8B493
:1025380073EF12F0050AD8B487EF12F0A4EF12F087
:10254800010E37242F6E000E3820306E2D50D96EB4
:10255800DA6A2FC0DEFF30C0DDFFD7EF12F02CC0E3
:1025680019F032C01AF033C01BF034C01CF035C06B
:102578001DF04FEC1FF006EF13F02CC019F032C01D
:102588001AF033C01BF034C01CF035C01DF037C042
:10259800F6FF38C0F7FFF86A0800F5CF1EF0FFEC29
:1025A8001CF006EF13F037C0F6FF38C0F7FFF86AE3
:1025B8000800F550580AD8B4C1EF12F02D0AD8B463
:1025C800B3EF12F00D0AD8B4C1EF12F0ECEF12F02D
:1025D8002D50D96EDA6ADE2A000EDD2206EF13F0DE
:1025E8002D50D96EDA6ADECFF6FFDDCFF7FFF86A35
:1025F8000800F550036E046A2CC005F084EC25F041
:10260800ECEF12F01200F29E0101566BD80E000199
:10261800AC6FFE0EAD6F36C1AEF037C1AFF032EC25
:102628002DF06C0E010136193711D8B41EEF13F0D6
:1026380020EF13F027EF13F0330E0001AC6FFE0EFE
:10264800AD6F32EC2DF0D50E0001AC6FFC0EAD6F06
:1026580032EC2DF0010E0001BD6F010EBC6FBC51B4
:10266800B76FB86BB73BB83BF00EB817B7510F0B45
:10267800B813F00EB717BDC0B9F0FF0EB9270F0E8B
:10268800B917B951B727000EB823F10EB725BA6F9D
:10269800FF0EB821BB6FBAC0E1F0BBC0E2F0000E7C
:1026A800E2BFFF0EE36FE46F36C1B7F037C1B8F091
:1026B800000EB8BFFF0EB96FBA6FE151B75DE251B6
:1026C800B859E351B959E451BA59D8A06EEF13F08B
:1026D80070EF13F060EF14F0D90EAC6FFF0EAD6F12
:1026E800E1C0AEF0E2C0AFF0E3C0B0F0E4C0B1F0DA
:1026F80032EC2DF0D8900001E135D96EE235DA6E72
:10270800820ED926050EDA22DECFB7F0DDCFB8F07B
:10271800B7C0E5F0B8C0E6F0E76BE86BC40EAC6F85
:10272800FF0EAD6FE5C0AEF0E6C0AFF0E7C0B0F0A9
:10273800E8C0B1F032EC2DF00001E851E7110BE1EF
:10274800A00EE55D8F0EE659D8A0ADEF13F0AFEF00
:1027580013F0C5EF13F0E851E71109E16F0EE55DDD
:10276800970EE659D8B0BBEF13F0BDEF13F0C5EFE5
:1027780013F0420EAC6FFF0EAD6F32EC2DF037EF59
:1027880014F0E851E7110BE1A70EE55D020EE659DA
:10279800D8A0D1EF13F0D3EF13F0E9EF13F0E8511D
:1027A800E71109E1D60EE55D040EE659D8B0DFEF72
:1027B80013F0E1EF13F0E9EF13F0240EAC6FFF0E06
:1027C800AD6F32EC2DF037EF14F0E851E7110BE163
:1027D800930EE55D060EE659D8A0F5EF13F0F7EF76
:1027E80013F00DEF14F0E851E71109E1C20EE55DB1
:1027F800080EE659D8B003EF14F005EF14F00DEF0A
:1028080014F02E0EAC6FFF0EAD6F32EC2DF037EFDB
:1028180014F0E851E7110BE18C0EE55D0A0EE6595C
:10282800D8A019EF14F01BEF14F031EF14F0E851B1
:10283800E71109E1BB0EE55D0C0EE659D8B027EFAC
:1028480014F029EF14F031EF14F04C0EAC6FFF0EBA
:10285800AD6F32EC2DF037EF14F0380EAC6FFF0E81
:10286800AD6F32EC2DF0000E0001E125D96E040E9B
:10287800E221DA6EDF50D8B444EF14F046EF14F0DA
:1028880057EF14F0820EAC6FFF0EAD6F000EE1250E
:10289800D96E040EE221DA6EDF50B76FB751AE6F12
:1028A800AF6B32EC2DF0700E0001AC6FFF0EAD6F08
:1028B80032EC2DF066EF14F0690EAC6FFF0EAD6FC1
:1028C80032EC2DF00001BC2B070EBC656EEF14F046
:1028D80070EF14F033EF13F0D50EAC6FFC0EAD6F44
:1028E80032EC2DF00001BD2B100EBD657EEF14F00B
:1028F80080EF14F031EF13F0E6EC2DF0F28E1200B9
:1029080082804F6A01015F6BF29E010E0001886FA1
:10291800000E01012E6F000E2F6F000E306F000E9B
:10292800316F4FC089F000018851D8B49EEF14F080
:10293800A0EF14F0A6EF14F095EC23F000018A6FD5
:10294800AAEF14F061EC24F000018A6F886B5150F3
:10295800D8B4B1EF14F0B3EF14F0B8EF14F0010EDF
:10296800A1EC2DF0DFEF15F08A05D8B4BEEF14F016
:10297800C0EF14F0D7EF14F0040E8A19D8B4C7EFDB
:1029880014F0C9EF14F0D7EF14F0170E8A19D8B461
:10299800D0EF14F0D2EF14F0D7EF14F0020EA1EC40
:1029A8002DF0DFEF15F08A05D8A4DDEF14F0DFEF86
:1029B80014F0BDEF15F061EC24F04F6E5150D8B40F
:1029C800E8EF14F0EAEF14F0EFEF14F0040EA1ECC6
:1029D8002DF0DFEF15F000018929D8A4F6EF14F0E7
:1029E800F8EF14F0F9EF14F0896961EC24F00101B3
:1029F8005F6F5150D8B403EF15F005EF15F00AEFEB
:102A080015F0050EA1EC2DF0DFEF15F05F51FF0A70
:102A18004F18D8B412EF15F014EF15F019EF15F0A0
:102A2800150E68EC29F097EF14F0010E0001E16F24
:102A3800000EE26F000EE36F000EE46F43EF15F037
:102A480061EC24F000018A6F5150D8B42EEF15F0D4
:102A580030EF15F035EF15F0060EA1EC2DF0DFEF95
:102A680015F0000EE125D96E050EE221DA6E8AC056
:102A7800DFFF010EE127000EE223E323E423E45104
:102A8800E311E21109E1830EE15DD8A04EEF15F0E4
:102A980050EF15F024EF15F0000E6F6F800E6E6F7B
:102AA80082EC27F06EC042F16FC043F105018151FD
:102AB8000001856F846B05018251000184250101A5
:102AC800406F0501000E000185210101416F405151
:102AD800421909E141514319D8B475EF15F077EF60
:102AE80015F07CEF15F0070EA1EC2DF0DFEF15F0D7
:102AF800000182058311D8A484EF15F086EF15F044
:102B0800A1EF15F02EC184F02FC185F030C186F0F9
:102B180031C187F0070ED8908437853786378737D5
:102B2800E82E8FEF15F084C076F085C077F086C068
:102B380078F087C079F0DFEC16F0020E00018219F8
:102B48008311D8A4AAEF15F0ACEF15F0BDEF15F07E
:102B58002EC184F02FC185F0070ED89084378537B1
:102B6800E82EB1EF15F084C072F085C073F0DFEC89
:102B780029F0010E01012E27000E2F2330233123C7
:102B8800060E68EC29F082A0CCEF15F0CFEF15F017
:102B98008280D0EF15F0829001013151301109E1A6
:102BA800040E2F5DD8A0DBEF15F0DDEF15F095EFE3
:102BB80014F0F28E829012000001EE510101CE6FE6
:102BC800CD6B0001ED510101CD25D56F0001000E3F
:102BD8000101CE21D66F000E3F6F000E3E6FD5C1AA
:102BE800C1F1D6C1C2F1B2EC1BF0C1C13EF1C2C104
:102BF8003FF101013E5100016E6F6F6B5AEC2DF0F1
:102C08000101D76FD751D519D76F0001EF510101D5
:102C1800D7190F0BD16F0001EC510101D719D26FF1
:102C28000001EB510101D719D36F5250D719D46F56
:102C3800000E0001DD6F000EDE6F000EDF6F000E6C
:102C4800E06F0101D4510001DD25DD6F000EDE21AA
:102C5800DE6F000EDF21DF6F000EE021E06FD3C1D1
:102C6800CDF10101CE6BCF6BD06BCFC1D0F1CEC10E
:102C7800CFF1CDC1CEF1CD6B0001DD510101CD25E4
:102C88000001DD6FDE510101CE210001DE6FDF5151
:102C98000101CF210001DF6FE0510101D0210001C6
:102CA800E06FD2C1CDF10101CE6BCF6BD06BCEC13D
:102CB800D0F1CDC1CFF1CE6BCD6B0001DD5101015B
:102CC800CD250001DD6FDE510101CE210001DE6F4F
:102CD800DF510101CF210001DF6FE0510101D02157
:102CE8000001E06FD1C1CDF10101CE6BCF6BD06B8C
:102CF800CDC1D0F1CF6BCE6BCD6B0001DD510101A1
:102D0800CD250001DD6FDE510101CE210001DE6F0E
:102D1800DF510101CF210001DF6FE0510101D02116
:102D28000001E06FF0510F0B01015E6F0001EF39F8
:102D38000F0B01015E190F0A646F7A0E0001AC6F68
:102D4800FF0EAD6F32EC2DF00001DD51B76FDE5193
:102D5800B86FDF51B96FE051BA6FBB6BBC6BBD6B1D
:102D6800BE6B78EC2CF0050E0001AC6FFF0EAD6F5A
:102D78005EC1AEF0AF6B32EC2DF00001EA51D8B471
:102D8800C8EF16F0CAEF16F0DEEF16F0560EAC6F6D
:102D9800FF0EAD6F3EC1AEF03FC1AFF032EC2DF08B
:102DA800CC0E0001AC6FFE0EAD6F64C1AEF0AF6B20
:102DB80032EC2DF012000001795108E17805D8A015
:102DC800E8EF16F0EAEF16F0F4EF16F0010E7C6F5C
:102DD800000E7D6F000E7E6F000E7F6FFCEF16F009
:102DE800000E7C6F000E7D6F000E7E6F000E7F6FF1
:102DF80077C000F276C001F2000E816F010E806F7D
:102E0800000E8025D96E050E8121DA6E010E80250F
:102E1800E16E020E8121E26EDFCFE7FF804B812B4E
:102E280081BF20EF17F0815109E1810E805DD8A0A4
:102E380020EF17F022EF17F004EF17F0500E7C1177
:102E48006F6F7D51706F000E716F020E726F000E02
:102E5800746F820E736F750EF66EF80EF76EF86A61
:102E68000900F5CF7AF00900F5CF7BF002D846EFDC
:102E780017F00500FA6E7A51FD6E7B51FE6EFF6AFF
:102E8800FA5012000009D8B44CEF17F04EEF17F0C3
:102E9800BCEF17F0640E0101606F76EF17F0830E38
:102EA800F66EF80EF76EF86A0900F5CF7AF00900A9
:102EB800F5CF7BF002D86BEF17F00500FA6E000132
:102EC8007A51FD6E7B51FE6EFF6AFA501200680E51
:102ED80000017A6FE40EE82EFED77A2FFCD70000A7
:102EE800010160077F0EF66EF80EF76EF86A0900AA
:102EF800F5CF7AF00900F5CF7BF002D88EEF17F006
:102F08000500FA6E00017A51FD6E7B51FE6EFF6A74
:102F1800FA5012000009D8A494EF17F096EF17F0B2
:102F280053EF17F07D0EF66EF80EF76EF86A09008B
:102F3800F5CF7AF00900F5CF7BF002D8AEEF17F0A5
:102F48000500FA6E00017A51FD6E7B51FE6EFF6A34
:102F5800FA5012000101656F6551D8A4B6EF17F059
:102F6800B8EF17F0BAEF17F0BCEF17F0080E506E75
:102F78001200010E00018D6F8ABFC5EF17F0C8EF70
:102F880017F0010EC9EF17F0000E906F46C08EF0D3
:102F980047C08FF09051D8B4D4EF17F0D6EF17F0A0
:102FA800EDEF17F08E07D8A08F079051D8A4DFEF68
:102FB80017F0E1EF17F0E7EF17F0000E8C6F2B0E0C
:102FC8008B6FEBEF17F0000E8C6F2D0E8B6F8BC095
:102FD80090F0000E926F1F0E916F0101B86B38EFE1
:102FE80018F09107D8A09207990E9125D96E010E75
:102FF8009221DA6E87C06EF088C06FF089C070F0D9
:103008008AC071F00A0E726F000E736F000E746F33
:10301800000E756FD1EC21F06EC078F06FC079F0BA
:103028002AEC2CF000017851300FDF6E8D6B8E0783
:10303800D8A08F0787C06EF088C06FF089C070F085
:103048008AC071F00A0E726F000E736F000E746FF3
:10305800000E756FD8EC1FF06EC087F06FC088F057
:1030680070C089F071C08AF0000192BF44EF18F077
:10307800925108E19105D8A044EF18F046EF18F0F6
:103088006DEF18F08751881189118A11D8A44FEF74
:1030980018F051EF18F0F5EF17F08D51D8A457EF4D
:1030A80018F059EF18F0F5EF17F08FBF64EF18F02C
:1030B8008F5108E18E05D8A064EF18F066EF18F07C
:1030C8006DEF18F04CB26BEF18F06DEF18F0F5EFEC
:1030D80017F09051D8B473EF18F075EF18F080EF2F
:1030E80018F09107D8A09207990E9125D96E010E74
:1030F8009221DA6E90C0DFFF86C07EF0990E91258E
:103108007F6F010E9221806F8EC081F08FC082F098
:1031180037EC27F01200010E206E1DBE96EF18F056
:1031280099EF18F0010E9AEF18F0000E236E46C0C2
:1031380021F047C022F02350D8B4A5EF18F0A7EF2C
:1031480018F0BEEF18F02106D8A022062350D8A404
:10315800B0EF18F0B2EF18F0B8EF18F0000E1F6ECD
:103168002B0E1E6EBCEF18F0000E1F6E2D0E1E6E7D
:103178001EC023F0000E256E1F0E246E0101B86BD1
:1031880008EF19F02406D8A02506990E2424D96E34
:10319800010E2520DA6E1AC001F01BC002F01CC017
:1031A80003F01DC004F00A0E056E000E066E000E38
:1031B800076E000E086E47EC22F001C00BF002C04B
:1031C8000CF045EC2CF00B50300FDF6E206A210616
:1031D800D8A022061AC001F01BC002F01CC003F0E0
:1031E8001DC004F00A0E056E000E066E000E076E76
:1031F800000E086E5EEC20F001C01AF002C01BF051
:1032080003C01CF004C01DF025BE13EF19F02550B3
:1032180008E12404D8A013EF19F015EF19F03CEFDA
:1032280019F01A501B101C101D10D8A41EEF19F00D
:1032380020EF19F0C6EF18F02050D8A426EF19F0A7
:1032480028EF19F0C6EF18F022BE33EF19F022501C
:1032580008E12104D8A033EF19F035EF19F03CEF5D
:1032680019F04CB23AEF19F03CEF19F0C6EF18F02C
:103278002350D8B442EF19F044EF19F04FEF19F08A
:103288002406D8A02506990E2424D96E010E2520DF
:10329800DA6E23C0DFFF19C011F0990E2424126ED4
:1032A800010E2520136E21C014F022C015F015EC74
:1032B80028F01200000E0001806F000E7F6F7FC0A3
:1032C80074F080C075F0D89074377537D89074371B
:1032D8007537000E74256E6F010E75216F6F5AECED
:1032E8002DF00001766F76517B6F7C6B7D6B7E6B6A
:1032F8007FC074F080C075F0D89074377537D89057
:1033080074377537010E74256E6F010E75216F6F56
:103318005AEC2DF00001766F76C077F0786B796BF8
:103328007A6B79C07AF078C079F077C078F0776BEB
:103338007B5177257B6F7C5178217C6F7D5179217A
:103348007D6F7E517A217E6F7FC074F080C075F0EA
:10335800D89074377537D89074377537020E74253E
:103368006E6F010E75216F6F5AEC2DF00001766FAC
:1033780076C077F0786B796B7A6B78C07AF077C023
:1033880079F0786B776B7B5177257B6F7C5178214F
:103398007C6F7D5179217D6F7E517A217E6F7FC050
:1033A80074F080C075F0D89074377537D89074373A
:1033B8007537030E74256E6F010E75216F6F5AEC09
:1033C8002DF00001766F76C077F0786B796B7A6BA9
:1033D80077C07AF0796B786B776B7B5177257B6F49
:1033E8007C5178217C6F7D5179217D6F7E517A21C6
:1033F8007E6F7F4B802B7B5170190FE17C517119C7
:103408000CE17D51721909E17E517319D8B40FEF9F
:103418001AF011EF1AF01CEF1AF0805109E10B0EA7
:103428007F5DD8A01AEF1AF01CEF1AF063EF19F0BD
:103438000B0E7F198011D8A424EF1AF026EF1AF08A
:103448002AEF1AF0000E806F000E7F6F7F51120076
:103458000001BA5108E1B905D8A035EF1AF037EFE5
:103468001AF041EF1AF0010EBE6F000EBF6F000E8A
:10347800C06F000EC16F49EF1AF0000EBE6F000E4C
:10348800BF6F000EC06F000EC16FB8C000F2B7C0AA
:1034980001F2500EBE116F6FBF51706F000E716F49
:1034A800020E726F000E746F020E736F000E756F4E
:1034B800030E766F000E786F010E776F790EF66E39
:1034C800F80EF76EF86A0900F5CFBBF00900F5CFE2
:1034D800BCF002D879EF1AF00500FA6EBB51FD6E08
:1034E800BC51FE6EFF6AFA501200E80E0101606FCF
:1034F800A1EF1AF0830EF66EF80EF76EF86A09005F
:10350800F5CFBBF00900F5CFBCF002D896EF1AF062
:103518000500FA6E0001BB51FD6EBC51FE6EFF6ADC
:10352800FA50120001016007150E0001BB6FC60EAC
:10353800E82EFED7BB2FFCD700007F0EF66EF80EE4
:10354800F76EF86A0900F5CFBBF00900F5CFBCF0BB
:1035580002D8B9EF1AF00500FA6E0001BB51FD6EF2
:10356800BC51FE6EFF6AFA5012000009D8A4BFEFE2
:103578001AF0C1EF1AF07EEF1AF07D0EF66EF80E13
:10358800F76EF86A0900F5CFBBF00900F5CFBCF07B
:1035980002D8D9EF1AF00500FA6E0001BB51FD6E92
:1035A800BC51FE6EFF6AFA5012000001BD6FBD519A
:1035B800C26FC36BC251C311D8A4E5EF1AF0E7EF8D
:1035C8001AF0E9EF1AF0F3EF1AF0D80EAC6FFC0E10
:1035D800AD6FC2C0AEF0C3C0AFF032EC2DF0120038
:1035E8000001BA5108E1B905D8A0FDEF1AF0FFEFC4
:1035F8001AF009EF1BF0010EBF6F000EC06F000E2E
:10360800C16F000EC26F11EF1BF0000EBF6F000EEE
:10361800C06F000EC16F000EC26FB8C000F2B7C015
:1036280001F2500EBF116F6FC051706F000E716FB5
:10363800020E726F000E746F020E736F000E756FBC
:10364800030E766FBBC077F0786B790EF66EF80EC6
:10365800F76EF86A0900F5CFBCF00900F5CFBDF0A8
:1036680002D840EF1BF00500FA6EBC51FD6EBD514B
:10367800FE6EFF6AFA501200E80E0101606F5FEFFC
:103688001BF0830EF66EF80EF76EF86A0900F5CF98
:10369800BCF00900F5CFBDF002D85DEF1BF00500C6
:1036A800FA6E0001BC51FD6EBD51FE6EFF6AFA5004
:1036B8001200010160077F0EF66EF80EF76EF86AC9
:1036C8000900F5CFBCF00900F5CFBDF002D877EFBF
:1036D8001BF00500FA6E0001BC51FD6EBD51FE6E77
:1036E800FF6AFA5012000009D8A47DEF1BF07FEFA3
:1036F8001BF045EF1BF07D0EF66EF80EF76EF86ABC
:103708000900F5CFBCF00900F5CFBDF002D897EF5E
:103718001BF00500FA6E0001BC51FD6EBD51FE6E36
:10372800FF6AFA5012000001BE6FBE51C36FC46B2E
:10373800C351C411D8A4A3EF1BF0A5EF1BF0A7EF4A
:103748001BF0B1EF1BF0D80EAC6FFC0EAD6FC3C011
:10375800AEF0C4C0AFF032EC2DF01200010E010142
:10376800C86FC851020D000EF324D96E010EF42063
:10377800DA6EDECFC9F1DDCFCAF1C9C1C3F1CAC162
:10378800C4F1D890C337C437C3C1B7F0C4C1B8F0C7
:103798000001B96BBA6B800EBB6FF4EC1AF0010133
:1037A800CC6B000ECC25D96EDA6A030EDA22DF5014
:1037B800C36FC351C66FC76B010ECC25D96EDA6AC9
:1037C800030EDA22DF50C36FC351C56FC46BC651F5
:1037D800C425C66FC751C521C76FC651C1190AE1B3
:1037E800C751C219D8B4FBEF1BF0FEEF1BF0010E56
:1037F800FFEF1BF0000ECB6FCB51D8A406EF1CF0E7
:1038080008EF1CF00BEF1CF0CC51020FCC6FCB5122
:10381800D8A411EF1CF013EF1CF01BEF1CF07F0E67
:10382800CC6519EF1CF01BEF1CF0D5EF1BF0C82B73
:10383800CB51D8A422EF1CF024EF1CF02CEF1CF085
:10384800090EC8652AEF1CF02CEF1CF0B5EF1BF031
:10385800CB51D8A432EF1CF034EF1CF040EF1CF031
:10386800C1C1C5F0C2C1C6F037EC1EF0C5C0C9F170
:10387800C6C0CAF155EF1CF0CCC16EF000016F6BE9
:10388800000E716F020E706FC4EC24F00101C95173
:1038980000016E250101C96FCA5100016F210101A4
:1038A800CA6FC9C1C1F1CAC1C2F11200010E00013B
:1038B800936F46C094F047C095F0780E8B19D8B432
:1038C80068EF1CF06AEF1CF070EF1CF0000E926FAE
:1038D800410E916F74EF1CF0000E926F610E916FA4
:1038E80091C090F0000E986F1F0E976F0101B86B92
:1038F800BAEF1CF09707D8A0980787510F0B966F5F
:103908000A0E96618AEF1CF08CEF1CF090EF1CF009
:10391800300E962793EF1CF09051F60F9627990ECC
:103928009725D96E010E9821DA6E96C0DFFF936B4A
:103938009407D8A0950787C08CF088C08DF089C0FF
:103948008EF08AC08FF0050EAFEF1CF0D8908F3341
:103958008E338D338C33E82EAAEF1CF08CC087F0A1
:103968008DC088F08EC089F08FC08AF0000198BFA2
:10397800C7EF1CF0985109E1020E975DD8A0C7EF78
:103988001CF0C9EF1CF0F0EF1CF087518811891169
:103998008A11D8A4D2EF1CF0D4EF1CF07EEF1CF0F3
:1039A8009351D8A4DAEF1CF0DCEF1CF07EEF1CF08A
:1039B80095BFE7EF1CF0955108E19405D8A0E7EF13
:1039C8001CF0E9EF1CF0F0EF1CF04CB2EEEF1CF02D
:1039D800F0EF1CF07EEF1CF086C07EF0990E972564
:1039E8007F6F010E9821806F94C081F095C082F09E
:1039F80037EC27F01200010E266E46C027F047C0AC
:103A080028F0780E1E18D8B40CEF1DF00EEF1DF03C
:103A180014EF1DF0000E246E410E236E18EF1DF0FA
:103A2800000E246E610E236E23C025F0000E2B6E4F
:103A38001F0E2A6E0101B86B5EEF1DF02A06D8A092
:103A48002B061A500F0B296E0A0E29602EEF1DF057
:103A580030EF1DF034EF1DF0300E292637EF1DF042
:103A68002550F60F2926990E2A24D96E010E2B20EF
:103A7800DA6E29C0DFFF266A2706D8A028061AC0F2
:103A88001FF01BC020F01CC021F01DC022F0050E45
:103A980053EF1DF0D8902232213220321F32E82E07
:103AA8004EEF1DF01FC01AF020C01BF021C01CF003
:103AB80022C01DF02BBE6AEF1DF02B5009E1020E4B
:103AC8002A5CD8A06AEF1DF06CEF1DF093EF1DF093
:103AD8001A501B101C101D10D8A475EF1DF077EF9D
:103AE8001DF022EF1DF02650D8A47DEF1DF07FEFCA
:103AF8001DF022EF1DF028BE8AEF1DF0285008E1C6
:103B08002704D8A08AEF1DF08CEF1DF093EF1DF06D
:103B18004CB291EF1DF093EF1DF022EF1DF019C08C
:103B280011F0990E2A24126E010E2B20136E27C055
:103B380014F028C015F015EC28F01200CE0E000184
:103B4800AC6FFD0EAD6F32EC2DF0BE0E0001AC6F08
:103B5800FC0EAD6F32EC2DF0680E0001AC6FFC0E60
:103B6800AD6F32EC2DF0040E0001AC6FF90EAD6FA5
:103B780032EC2DF0B40E0001AC6FF90EAD6F32ECE3
:103B88002DF0B90E0001AC6FFA0EAD6F32EC2DF0CE
:103B9800860E0001AC6FFB0EAD6F32EC2DF00E0EF1
:103BA8000001AC6FFC0EAD6F32EC2DF0490E000138
:103BB800AC6FFA0EAD6F32EC2DF04B0E0001AC6F0E
:103BC800FC0EAD6F32EC2DF0EC0E0001AC6FFB0E6D
:103BD800AD6F32EC2DF0080E0001AC6FFA0EAD6F30
:103BE80032EC2DF0000E00016F6F000E6E6F5AEC74
:103BF8002DF00001B76FB751E16FE26BE36BE46B37
:103C0800E129E211E311E411D8A40DEF1EF00FEF42
:103C18001EF015EF1EF0140EAC6FFB0EAD6F32ECFC
:103C28002DF0210E0001E119E211E311E411D8B4DD
:103C380020EF1EF022EF1EF028EF1EF0830EAC6F6F
:103C4800FA0EAD6F32EC2DF0D50E0001AC6FFC0E04
:103C5800AD6F32EC2DF02D0E0001AC6FFC0EAD6F88
:103C680032EC2DF01200000E0001D06F000ED16F63
:103C7800000ED26F000ED36FD0C0B7F0D1C0B8F02D
:103C8800D2C0B9F0D3C0BAF0800EBB6FF4EC1AF012
:103C9800800E0001D025D06F000ED121D16F000E0B
:103CA800D221D26F000ED321D36FD46B000ED4254E
:103CB800D96EDA6A030EDA22DF50C76F010ED425F7
:103CC800D96EDA6A030EDA22DF50C96FC751C86F9E
:103CD800C551C8190AE1C651C919D8B476EF1EF002
:103CE80079EF1EF0010E7AEF1EF0000ECF6FD4515F
:103CF800020FD46FCF51D8A484EF1EF086EF1EF0C8
:103D08008EEF1EF07F0ED4658CEF1EF08EEF1EF046
:103D18005AEF1EF0CF51D8A494EF1EF096EF1EF084
:103D2800A1EF1EF0D35109E1020ED25DD8A09FEF9A
:103D38001EF0A1EF1EF040EF1EF0D451D025C76F42
:103D4800000ED121C86F000ED221C96F000ED321F9
:103D5800CA6F7E0EC725CB6FFF0EC821CC6FFF0E32
:103D6800C921CD6FFF0ECA21CE6FD890CE33CD3387
:103D7800CC33CB33CBC0C5F0CCC0C6F01200010E9B
:103D880000018B6F46C08CF047C08DF0000E8F6F1E
:103D98001F0E8E6F0101B86B0FEF1FF08E07D8A0B2
:103DA8008F07990E8E25D96E010E8F21DA6E87C086
:103DB8006EF088C06FF089C070F08AC071F00A0E8A
:103DC800726F000E736F000E746F000E756F5EECED
:103DD80028F000016E51300FDF6E8B6B8C07D8A076
:103DE8008D0787C06EF088C06FF089C070F08AC0F8
:103DF80071F00A0E726F000E736F000E746F000E72
:103E0800756F92EC26F06EC087F06FC088F070C0B6
:103E180089F071C08AF000018E518F11D8B417EF64
:103E28001FF019EF1FF040EF1FF08751881189111B
:103E38008A11D8A422EF1FF024EF1FF0D2EF1EF052
:103E48008B51D8A42AEF1FF02CEF1FF0D2EF1EF0F1
:103E58008DBF37EF1FF08D5108E18C05D8A037EFE3
:103E68001FF039EF1FF040EF1FF04CB23EEF1FF08C
:103E780040EF1FF0D2EF1EF086C07EF0990E8E251F
:103E88007F6F010E8F21806F8CC081F08DC082F012
:103E980037EC27F01200010E1E6E46C01FF047C017
:103EA80020F0000E226E1F0E216E0101B86B99EFF3
:103EB8001FF02106D8A02206990E2124D96E010EE2
:103EC8002220DA6E1AC001F01BC002F01CC003F0F9
:103ED8001DC004F00A0E056E000E066E000E076E79
:103EE800000E086EA3EC28F00150300FDF6E1E6A3A
:103EF8001F06D8A020061AC001F01BC002F01CC083
:103F080003F01DC004F00A0E056E000E066E000ECA
:103F1800076E000E086EE5EC26F001C01AF002C02C
:103F28001BF003C01CF004C01DF021502210D8B4AF
:103F3800A0EF1FF0A2EF1FF0C9EF1FF01A501B10DF
:103F48001C101D10D8A4ABEF1FF0ADEF1FF05DEFF4
:103F58001FF01E50D8A4B3EF1FF0B5EF1FF05DEFB0
:103F68001FF020BEC0EF1FF0205008E11F04D8A0AA
:103F7800C0EF1FF0C2EF1FF0C9EF1FF04CB2C7EF40
:103F88001FF0C9EF1FF05DEF1FF019C011F0990E77
:103F98002124126E010E2220136E1FC014F020C0BF
:103FA80015F015EC28F012000001776B75BFE1EFF2
:103FB8001FF0DFEF1FF0EBEF1FF0751F741F731F6B
:103FC800726D000E732374237523010E776F71BF12
:103FD800F2EF1FF0F0EF1FF0FCEF1FF0711F701FE2
:103FE8006F1F6E6D000E6F2370237123010E771BF8
:103FF800000E786F000E796F000E7A6F000E7B6FDF
:104008007251731174117511D8B40DEF20F00FEFC0
:1040180020F045EF20F0010E766F19EF20F0D890D0
:104028007237733774377537762B75AF1EEF20F0FC
:1040380020EF20F013EF20F0D890783779377A37CF
:104048007B3772516E5D73516F5974517059755148
:104058007159D8A032EF20F034EF20F03DEF20F076
:1040680072516E5F73516F5B7451705B7551715B08
:104078007881D8907533743373337233762F20EF89
:1040880020F07751D8B44BEF20F04DEF20F055EFEA
:1040980020F07B1F7A1F791F786D000E79237A2311
:1040A8007B2378C06EF079C06FF07AC070F07BC067
:1040B80071F012000A6A08BE66EF20F064EF20F083
:1040C80070EF20F0081E071E061E056C000E062263
:1040D80007220822010E0A6E04BE77EF20F075EF62
:1040E80020F081EF20F0041E031E021E016C000E5A
:1040F800022203220422010E0A1A000E0B6E000E81
:104108000C6E000E0D6E000E0E6E05500610071098
:104118000810D8B492EF20F094EF20F0CAEF20F006
:10412800010E096E9EEF20F0D89005360636073648
:104138000836092A08AEA3EF20F0A5EF20F098EF83
:1041480020F0D8900B360C360D360E360550015C33
:10415800065002580750035808500458D8A0B7EF23
:1041680020F0B9EF20F0C2EF20F00550015E0650B4
:10417800025A0750035A0850045A0B80D890083244
:10418800073206320532092EA5EF20F00A50D8B4BE
:10419800D0EF20F0D2EF20F0DAEF20F00E1E0D1E47
:1041A8000C1E0B6C000E0C220D220E220BC001F00F
:1041B8000CC002F00DC003F00EC004F01200B7C02E
:1041C800BFF0B8C0C0F0B9C0C1F0BAC0C2F0BBC03F
:1041D800C3F0BCC0C4F0BDC0C5F0BEC0C6F0210E5F
:1041E80000EF21F00001D890C633C533C433C33380
:1041F800C233C133C033BF33E82EF6EF20F0BFC05F
:10420800C7F0C0C0C8F0C1C0C9F0C2C0CAF0C3C0BE
:10421800CBF0C4C0CCF0C5C0CDF0C6C0CEF0A50E62
:10422800AC6FFF0EAD6FC7C0AEF0C8C0AFF0C9C06D
:10423800B0F0CAC0B1F0CBC0B2F0CCC0B3F0CDC0C2
:10424800B4F0CEC0B5F032EC2DF020EEB7F0FF0E92
:10425800DE140001C76FFF0EDE14C86FFF0EDE14F8
:10426800C96FFF0EDE14CA6F000EDE14CB6F000E8E
:10427800DE14CC6F000EDE14CD6F000EDE14CE6F90
:10428800A50EAC6FFF0EAD6FC7C0AEF0C8C0AFF0E3
:10429800C9C0B0F0CAC0B1F0CBC0B2F0CCC0B3F066
:1042A800CDC0B4F0CEC0B5F032EC2DF01200330E14
:1042B800F66EF80EF76EF86A0900F5CFCFF0090030
:1042C800F5CFD0F002D873EF21F00500FA6E0001A7
:1042D800CF51FD6ED051FE6EFF6AFA5012000009F0
:1042E800D8B479EF21F07BEF21F0D0EF21F02F0E39
:1042F800F66EF80EF76EF86A0900F5CFCFF00900F0
:10430800F5CFD0F002D893EF21F00500FA6E000146
:10431800CF51FD6ED051FE6EFF6AFA5012004D6EFD
:104328000A0E4D18D8B49BEF21F09DEF21F0B8EF9D
:1043380021F00D0E4D18D8B4A4EF21F0A6EF21F00E
:10434800B8EF21F0B90E4E24D96EDA6A010EDA22DE
:104358004DC0DFFF4E2A080E4E64B5EF21F0B7EFCF
:1043680021F0B8EF21F04E6A0D0E4D18D8A4BFEF1A
:1043780021F0C1EF21F0D0EF21F0B90E4E24D96E13
:10438800DA6A010EDA22DF6A4E6AB90E0001C56FD9
:10439800010EC66F15EC03F012000001776B71BFB8
:1043A800DAEF21F0D8EF21F0E4EF21F0711F701F50
:1043B8006F1F6E6D000E6F2370237123010E776FD0
:1043C80075BFEBEF21F0E9EF21F0F3EF21F0751F56
:1043D800741F731F726D000E73237423752372513B
:1043E800731174117511D8B4FCEF21F0FEEF21F0B0
:1043F8002EEF22F0010E766F08EF22F0D890723778
:10440800733774377537762B75AF0DEF22F00FEFD2
:1044180022F002EF22F072516E5D73516F597451A0
:10442800705975517159D8A01CEF22F01EEF22F077
:1044380026EF22F072516E5F73516F5B7451705B9F
:104448007551715BD8907533743373337233762F2B
:104458000FEF22F07751D8B434EF22F036EF22F084
:104468003EEF22F0711F701F6F1F6E6D000E6F23DD
:10447800702371236EC06EF06FC06FF070C070F063
:1044880071C071F012000A6A04BE4FEF22F04DEFBE
:1044980022F059EF22F0041E031E021E016C000ECA
:1044A800022203220422010E0A6E08BE60EF22F0E7
:1044B8005EEF22F068EF22F0081E071E061E056C4C
:1044C800000E0622072208220550061007100810C1
:1044D800D8B471EF22F073EF22F0A3EF22F0010EAF
:1044E800096E7DEF22F0D890053606360736083675
:1044F800092A08AE82EF22F084EF22F077EF22F04B
:104508000550015C065002580750035808500458DB
:10451800D8A091EF22F093EF22F09BEF22F0055004
:10452800015E0650025A0750035A0850045AD890A0
:104538000832073206320532092E84EF22F00A507B
:10454800D8B4A9EF22F0ABEF22F0B3EF22F0041EAB
:10455800031E021E016C000E02220322042201C067
:1045680001F002C002F003C003F004C004F012001E
:10457800000E0001796F000E786F15EF23F0350EED
:10458800F66EF80EF76EF86A0900F5CF74F00900B8
:10459800F5CF75F002D8DBEF22F00500FA6E0001C6
:1045A8007451FD6E7551FE6EFF6AFA5012000009D3
:1045B800D8B4E1EF22F0E3EF22F0C3EF22F0310E9E
:1045C800F66EF80EF76EF86A0900F5CF74F0090078
:1045D800F5CF75F002D812EF23F00500FA6E00014E
:1045E8007451FD6E7551FE6EFF6AFA50785172254E
:1045F800766F79517321776F76C0F6FF77C0F7FF32
:10460800000EF86E0F0EF76403D00800F55005D0C1
:10461800F6CFE9FFF7CFEAFFEF5012000001784B21
:10462800792B72C06EF073C06FF076EC2AF000013F
:104638006E51785D7951800A746F6F51800A745990
:10464800D8A029EF23F02BEF23F0C3EF22F01200BC
:10465800000176517711781179117A117B117C114B
:104668007D11D8B43AEF23F03CEF23F084EF23F028
:10467800010E7E6F4AEF23F0D89076377737783778
:1046880079377A377B377C377D377E2B7DAF4FEF95
:1046980023F051EF23F040EF23F076516E5D775110
:1046A8006F5978517059795171597A5172597B51B2
:1046B80073597C5174597D517559D8A066EF23F010
:1046C80068EF23F078EF23F076516E5F77516F5BD8
:1046D8007851705B7951715B7A51725B7B51735B76
:1046E8007C51745B7D51755BD8907D337C337B3313
:1046F8007A3379337833773376337E2F51EF23F05B
:104708006EC06EF06FC06FF070C070F071C071F065
:1047180072C072F073C073F074C074F075C075F035
:104728001200400E0001776F0D0E786F030E796F3F
:10473800000E7A6FE7EC28F0D6EF23F0A00E00D039
:10474800E82EFDD700017707000E785B795B7A5B6E
:1047580077C06EF078C06FF079C070F07AC071F0F1
:10476800E80E726F030E736F000E746F000E756F94
:104778005EEC28F000016E516F1170117111D8A410
:10478800C8EF23F0CAEF23F0D6EF23F082A0CFEFD3
:1047980023F0D2EF23F08280D3EF23F08290430EF0
:1047A80068EC29F09EBADBEF23F0DDEF23F0E9EFA8
:1047B80023F000017751781179117A11D8A4E7EF25
:1047C80023F0E9EF23F0A2EF23F082800001775174
:1047D800781179117A11D8B4F4EF23F0F7EF23F0B8
:1047E800010EF8EF23F0000E516EE7EC28F01200EE
:1047F8003DEC2EF0C7A803EF24F005EF24F009EFF5
:1048080024F0A8EC2CF03FEF24F079EC2DF000090F
:10481800D8B411EF24F013EF24F024EF24F065EC62
:104828002DF00009D8B41BEF24F01DEF24F024EF7D
:1048380024F0050E0101216F010E206F3FEF24F0D7
:104848006FEC2DF00009D8B42CEF24F02EEF24F0F3
:104858003FEF24F065EC2DF00009D8B436EF24F0D2
:1048680038EF24F03FEF24F0050E0101216F020E0E
:10487800206F3FEF24F001012151020D850EF32432
:10488800F66EF80EF420F76EF86A000EF8220900AA
:10489800F5CF70F00900F5CF71F002D85EEF24F083
:1048A8000500FA6E00017051FD6E7151FE6EFF6ACF
:1048B800FA5012000101216F1200000E0001736FFF
:1048C800000E726F3A0E0101456F980E446F90EF1B
:1048D80024F001014407D8A0450744514511D8B434
:1048E80078EF24F07BEF24F0010E7CEF24F0000E2B
:1048F800516E5150D8B483EF24F085EF24F090EF37
:1049080024F0150E68EC29F00001724B732B3A0E57
:104918000101456F980E446F9EBA95EF24F097EF0A
:1049280024F0AFEF24F044514511D8B49EEF24F0A1
:10493800A0EF24F0AFEF24F0000173BFADEF24F037
:10494800735109E1030E725DD8A0ADEF24F0AFEF0B
:1049580024F06DEF24F0000173BFBFEF24F0735112
:1049680007E1030E725DD8B0BCEF24F0BFEF24F06E
:10497800010EC0EF24F0000E516EE7EC28F0120093
:104988000001736B71BFCDEF24F0CBEF24F0D3EFB0
:1049980024F0706D711FD8B0712B010E736F6FBF4B
:1049A800DAEF24F0D8EF24F0E0EF24F06E6D6F1FFB
:1049B800D8B06F2B010E731B000E756F000E746F4D
:1049C80070517111D8B4EBEF24F0EDEF24F015EF2E
:1049D80025F0010E726FF5EF24F0D890703771371B
:1049E800722B71AFFAEF24F0FCEF24F0F1EF24F012
:1049F800D8907437753770516E5D71516F59D8A062
:104A080008EF25F00AEF25F00FEF25F070516E5FE3
:104A180071516F5B7481D89071337033722FFCEFD2
:104A280024F07351D8B41BEF25F01DEF25F021EFCA
:104A380025F0746D751FD8B0752B74C06EF075C0F5
:104A48006FF0120000017251D8B42DEF25F02FEF4E
:104A580025F037EF25F07251D8A435EF25F037EF60
:104A680025F03CEF25F07051E4EC2CF083EF25F0B5
:104A78007251D96EDA6A090ED926DE50DE10D8B422
:104A880048EF25F04AEF25F063EF25F07251D96E13
:104A9800DA6A090ED9267251E16EE26A020EE1263F
:104AA800DE50E65CE650800A776FDE50800A775960
:104AB800D8B061EF25F063EF25F083EF25F0725150
:104AC800D96EDA6A020ED926DECF73F0DDCF74F024
:104AD8007251D96EDA6ADECF75F0DDCF76F0735198
:104AE8007525D96E74517621DA6E70C0DFFF725168
:104AF800D96EDA6A020ED926DE2A000EDD221200ED
:104B08000550D8B48AEF25F08CEF25F094EF25F006
:104B18000550D8A492EF25F094EF25F099EF25F0F1
:104B2800035023EC2DF0E0EF25F00550D96EDA6A3A
:104B3800090ED926DE50DE10D8B4A5EF25F0A7EF70
:104B480025F0C0EF25F00550D96EDA6A090ED9268E
:104B58000550E16EE26A020EE126DE50E65CE650A0
:104B6800800A0A6EDE50800A0A58D8B0BEEF25F0D7
:104B7800C0EF25F0E0EF25F00550D96EDA6A020E95
:104B8800D926DECF06F0DDCF07F00550D96EDA6AF8
:104B9800DECF08F0DDCF09F006500824D96E0750A3
:104BA8000920DA6E03C0DFFF0550D96EDA6A020EFB
:104BB800D926DE2A000EDD221200000E0001746FD5
:104BC800000E736F6E51D96EDA6ADECFF6FFDDCF55
:104BD800F7FFF86A0800F5502A0AD8A4F6EF25F07E
:104BE800F8EF25F021EF26F06E51D96EDA6ADE2A49
:104BF800000EDD226F51D96EDA6A020EDF26DF5C05
:104C0800D96EDA6ADECF73F0DECF74F035EF26F0B6
:104C18000A0E7303F3CF70F0F4CF71F07403F350FE
:104C2800712772517025736F000E7121746F6E5168
:104C3800D96EDA6ADE2A000EDD226E51D96EDA6A82
:104C4800DECFF6FFDDCFF7FFF86A0800F550D00F8A
:104C5800726F090E726533EF26F035EF26F00CEF10
:104C680026F073C06EF074C06FF01200000E076E6D
:104C7800000E066E0150D96EDA6ADECFF6FFDDCF80
:104C8800F7FFF86A0800F5502A0AD8A44EEF26F074
:104C980050EF26F079EF26F00150D96EDA6ADE2A55
:104CA800000EDD220250D96EDA6A020EDF26DF5CC2
:104CB800D96EDA6ADECF06F0DECF07F08DEF26F088
:104CC8000A0E0602F3CF03F0F4CF04F00702F35004
:104CD800042605500324066E000E0420076E0150BA
:104CE800D96EDA6ADE2A000EDD220150D96EDA6A40
:104CF800DECFF6FFDDCFF7FFF86A0800F550D00FDA
:104D0800056E090E05648BEF26F08DEF26F064EF33
:104D180026F006C001F007C002F01200000E0001E4
:104D2800766F000E776F000E786F000E796F7251F4
:104D3800731174117511D8B4A4EF26F0A6EF26F0FC
:104D4800DCEF26F0010E7A6FB0EF26F0D8907237BC
:104D58007337743775377A2B75AFB5EF26F0B7EF21
:104D680026F0AAEF26F0D890763777377837793754
:104D780072516E5D73516F597451705975517159F3
:104D8800D8A0C9EF26F0CBEF26F0D4EF26F0725169
:104D98006E5F73516F5B7451705B7551715B768197
:104DA800D89075337433733372337A2FB7EF26F094
:104DB80076C06EF077C06FF078C070F079C071F08F
:104DC8001200000E096E000E0A6E000E0B6E000E29
:104DD8000C6E0550061007100810D8B4F6EF26F030
:104DE800F8EF26F02EEF27F0010E0D6E02EF27F0F8
:104DF800D89005360636073608360D2A08AE07EF6E
:104E080027F009EF27F0FCEF26F0D89009360A368C
:104E18000B360C360550015C0650025807500358F3
:104E280008500458D8A01BEF27F01DEF27F026EFF5
:104E380027F00550015E0650025A0750035A0850E1
:104E4800045A0980D89008320732063205320D2EEE
:104E580009EF27F009C001F00AC002F00BC003F007
:104E68000CC004F012004CA03CEF27F03EEF27F0F6
:104E780046EF27F07FC078F080C079F07EC07AF0E6
:104E88008AEC2BF0000182BF4EEF27F04CEF27F0A1
:104E980052EF27F0000E826F000E816F000E856FB3
:104EA800000E846F63EF27F0000E716F200E706F95
:104EB8007EC072F026EC25F00001844B852B8151D1
:104EC800845D8551800A836F8251800A8359D8A0F6
:104ED80070EF27F072EF27F058EF27F04CB077EF1C
:104EE80027F079EF27F081EF27F07FC078F080C0B6
:104EF80079F07EC07AF08AEC2BF01200010E0001E6
:104F0800746F000E766F000E756FBDEF27F0000E00
:104F18007425D96EDA6A050EDA22DF50706F705187
:104F2800726F716B75517119756F76517219766F51
:104F3800742B080E736F76AFA4EF27F0A6EF27F057
:104F4800B5EF27F075C070F076C071F0D890703763
:104F58007137210E7019756F100E7119766FBAEFCF
:104F680027F0D8907535756F7635766F732F9FEF6C
:104F780027F06E07D8A06F076FBFC7EF27F0C5EF00
:104F880027F08BEF27F075C06EF076C06FF0120037
:104F98002C0EF66E5C0EF76E000EF86E01EEE0F069
:104FA80010EE08F00900F5CFEEFFE550E150FAE108
:104FB80005EE82F011EE2CF0EE6AE550E150FCE1CE
:104FC800E250FAE105EE00F0820EEE6AE806FDE135
:104FD80004EE00F0960EEE6AE806FDE103EE00F03E
:104FE800820EEE6AE806FDE102EE00F0820EEE6A3D
:104FF800E806FDE101EE00F0C10EEE6AE806FDE10B
:1050080000EED5F01C0EEE6AE806FDE100EE46F073
:105018000D0EEE6AE806FDE153905392000179EF18
:105028000BF04CA01AEF28F01CEF28F024EF28F022
:1050380012C00BF013C00CF011C00DF0CEEC2BF029
:1050480015BE2BEF28F029EF28F02FEF28F0000EDF
:10505800156E000E146E000E186E000E176E3FEFE0
:1050680028F0000E046E200E036E11C005F084ECCB
:1050780025F0174A182A1450175C1850800A166E23
:105088001550800A1658D8A04CEF28F04EEF28F09B
:1050980035EF28F04CB053EF28F055EF28F05DEFCE
:1050A80028F012C00BF013C00CF011C00DF0CEECBC
:1050B8002BF0120000017251731174117511D8B4DC
:1050C80068EF28F06AEF28F09AEF28F0010E766F63
:1050D80074EF28F0D8907237733774377537762B9A
:1050E80075AF79EF28F07BEF28F06EEF28F072515A
:1050F8006E5D73516F597451705975517159D8A0BB
:1051080088EF28F08AEF28F092EF28F072516E5F4E
:1051180073516F5B7451705B7551715BD8907533C7
:10512800743373337233762F7BEF28F06EC06EF0D2
:105138006FC06FF070C070F071C071F01200055050
:10514800061007100810D8B4ACEF28F0AEEF28F01E
:10515800DEEF28F0010E096EB8EF28F0D89005367A
:10516800063607360836092A08AEBDEF28F0BFEF25
:1051780028F0B2EF28F00550015C0650025807509D
:10518800035808500458D8A0CCEF28F0CEEF28F0E8
:10519800D6EF28F00550015E0650025A0750035A10
:1051A8000850045AD8900832073206320532092EC0
:1051B800BFEF28F001C001F002C002F003C003F005
:1051C80004C004F01200000E01014B6F000E4A6F7C
:1051D800ABA2F1EF28F0F3EF28F009EF29F04A85A8
:1051E80046514711D8B4FBEF28F0FDEF28F009EF3E
:1051F80029F002D809EF29F00500FA6E4651FD6E34
:105208004751FE6EFF6AFA501200ABA40EEF29F068
:1052180010EF29F027EF29F001014A83485149117D
:10522800D8B419EF29F01BEF29F027EF29F002D89D
:1052380027EF29F00500FA6E4851FD6E4951FE6EC0
:10524800FF6AFA501200AE501200040E00016E6F91
:1052580083EC2DF00009D8B434EF29F036EF29F0AB
:1052680063EF29F001011D511E11D8B43EEF29F05A
:1052780040EF29F04DEF29F039EC2EF01BC1D9FF92
:105288001CC1DAFFDF6E01011B4B1C2B1D07D8A0C8
:105298001E071D511E11D8B454EF29F056EF29F0FE
:1052A8005AEF29F028EC2EF065EF29F035EC2EF0B6
:1052B80025EC2EF0070E00016E6F65EF29F037EC34
:1052C8002EF000016E5112000001716F350EF66E5E
:1052D800F80EF76EF86A0900F5CF6FF00900F5CF00
:1052E80070F002D882EF29F00500FA6E00016F51C4
:1052F800FD6E7051FE6EFF6AFA5012000009D8B4B4
:1053080088EF29F08AEF29F06AEF29F0310EF66E5E
:10531800F80EF76EF86A0900F5CF6FF00900F5CFBF
:1053280070F002D8A3EF29F00500FA6E00016F5162
:10533800FD6E7051FE6EFF6AFA5071511200120034
:10534800AAEF29F06E4B6F2B704B712B6EC0D9FFF3
:105358006FC0DAFFDF500001726F70C0F6FF71C0D6
:10536800F7FFF86A0800F5507219D8A4BEEF29F0C3
:10537800C0EF29F0CCEF29F06EC0D9FF6FC0DAFF7B
:10538800DF50D8A4CAEF29F0CCEF29F0A6EF29F016
:105398006EC0D9FF6FC0DAFFDF50726F70C0F6FFC2
:1053A80071C0F7FFF86A0800F550725D6E6F6F6B99
:1053B800D8A06F071200010E0001E16F000EE26F26
:1053C800000EE36F000EE46FE451E311E21109E10E
:1053D800810EE15DD8A0F3EF29F0F5EF29F0F7EFA2
:1053E80029F016EF2AF0E1517225746FE25173210A
:1053F800756FFF0E74256E6FFF0E75216F6F000EAF
:10540800E125D96E050EE221DA6EDF50706FA0EC4F
:105418002AF0010E0001E127000EE223E323E42332
:10542800E8EF29F01200010119511A11D8B41FEF41
:105438002AF021EF2AF033EF2AF01907D8A01A072B
:1054480017C1D9FF18C1DAFFDF50F8EC2DF00101C0
:10545800174B182B030E00016F6F47EF2AF01F51EF
:10546800D8B439EF2AF03BEF2AF043EF2AF01F6B4C
:1054780033EC2EF0010E00016F6F47EF2AF0D4ECE9
:105488002DF000016F6F6F5112000001756B90ECE9
:105498002CF00009D8A453EF2AF055EF2AF073EF47
:1054A8002AF0010E0101146F6FC015F170C016F1DA
:1054B8001F6B71C017F172C018F173C019F174C075
:1054C8001AF1000E1B6F000E1C6F000E1E6F000EEF
:1054D8001D6F206BC8EC2DF0010E0001756F0001E7
:1054E800755112006EC070F06FC071F07FEF2AF036
:1054F80000016E4B6F2B6EC0F6FF6FC0F7FF000EFA
:10550800F86E0F0EF76403D00800F55005D0F6CFFB
:10551800E9FFF7CFEAFFEF500009D8A496EF2AF089
:1055280098EF2AF07CEF2AF0000170516E5D6E6FE3
:1055380071516F596F6F1200F2BEA5EF2AF0A8EFF4
:105548002AF0010EA9EF2AF0000E0001716F6F51C9
:10555800756E6EC074FF70C073FF7F9E7F9C7F84E2
:10556800F29E550E7E6EAA0E7E6E7F827FB2BFEFD0
:105578002AF0C1EF2AF0BAEF2AF07F94000171B146
:1055880002D0F29E01D0F28E1200060E0101216FA8
:10559800030E206F3FEC2EF001012151020D850E04
:1055A800F324F66EF80EF420F76EF86A000EF8226F
:1055B8000900F5CF70F00900F5CF71F002D8EFEFD0
:1055C8002AF00500FA6E00017051FD6E7151FE6EF1
:1055D800FF6AFA5012000101216F120000016E6B80
:1055E800EF51D8B4FAEF2AF0FCEF2AF017EF2BF0BE
:1055F800EF29D8B402EF2BF004EF2BF017EF2BF0C4
:10560800F051D8B40AEF2BF00CEF2BF017EF2BF07A
:105618000F0EF019D8B413EF2BF015EF2BF017EF8E
:105628002BF0010E6E6F6E51120090EC2CF00009F9
:10563800D8A421EF2BF023EF2BF03FEF2BF0010E36
:105648000101146F6FC015F170C016F1010E1F6FC4
:1056580071C017F172C018F173C019F174C01AF152
:1056680075C01BF176C01CF177C01DF178C01EF122
:10567800206BC8EC2DF01200D09EF292F19C000E27
:1056880000016E6F000E6F6F11EC2EF0F090F18A32
:10569800000E00016E6F000E6F6F0CEC2EF0F09292
:1056A800F188000E00016E6F000E6F6F07EC2EF090
:1056B800F094F186000E00016E6F000E6F6F02EC21
:1056C8002EF01200A7C0AAF0A8C0ABF075EF2BF01F
:1056D800A6C099F0AA0E00019A6FA9C09BF07BECB6
:1056E8000FF0AAC0F6FFABC0F7FFF86A0800F55044
:1056F8000009D8A482EF2BF084EF2BF06CEF2BF08D
:10570800000E0001A76F000EA66F1200000E000128
:105718007D6F000E7C6F9BEF2BF07BC070F0716B80
:105728007AC072F026EC25F000017C4B7D2B7C5171
:105738007825D96E7D517921DA6EDF507B6F7B51E8
:10574800D8A4A9EF2BF0ABEF2BF091EF2BF01200C0
:105758003AC03DF03BC03EF0BAEF2BF039C02CF018
:105768003D0E2D6E3CC02EF043EC11F03DC0F6FF0F
:105778003EC0F7FFF86A0800F5500009D8A4C7EF43
:105788002BF0C9EF2BF0B2EF2BF0000E3A6E000EA3
:10579800396E1200000E106E000E0F6EDDEF2BF04A
:1057A8000EC003F0046A0DC005F084EC25F00F4A22
:1057B800102A0F500B24D96E10500C20DA6EDF50CF
:1057C8000E6E0E50D8A4EBEF2BF0EDEF2BF0D4EFCC
:1057D8002BF01200A1A6F3EF2BF0F5EF2BF0F7EF6B
:1057E8002BF0C9EC2AF09EA6FCEF2BF0FEEF2BF075
:1057F8000BEF2CF0A1A603EF2CF005EF2CF009EF2E
:105808002CF0C9EC2AF00BEF2CF0FCEC23F0120082
:10581800480EA76E900EAB6E260EAC6E820EAF6E63
:10582800060E7D6E860E00016E6F5C0E6F6F14ECB7
:105838002DF0440E00016E6F5C0E6F6F05EC2DF0BD
:10584800000E01014B6F000E4A6F1200000179BF74
:1058580030EF2CF032EF2CF038EF2CF078C078F0E5
:1058680079C079F044EF2CF078C07AF079C07BF0F9
:105878007A1F7B1F7A4B7B2B7AC078F07BC079F03C
:1058880012000CBE4AEF2CF04CEF2CF052EF2CF02B
:105898000BC00BF00CC00CF05EEF2CF00BC00DF041
:1058A8000CC00EF00D1E0E1E0D4A0E2A0DC00BF078
:1058B8000EC00CF0120053A264EF2CF0D1EF2CF0C4
:1058C80000016E6B9EA86BEF2CF06DEF2CF076EF5D
:1058D8002CF0ACAA72EF2CF074EF2CF076EF2CF0D1
:1058E800010E6E6F6E511200B7C0BFF0B8C0C0F0A5
:1058F800B9C0C1F0BAC0C2F0A50E0001AC6FFF0E6E
:10590800AD6FBFC0AEF0C0C0AFF0C1C0B0F0C2C094
:10591800B1F032EC2DF01200010E00016E6F0101A2
:105928001451D8A49AEF2CF09CEF2CF0A5EF2CF092
:10593800C7B6A1EF2CF0A3EF2CF0A5EF2CF00001D7
:105948006E6B00016E5112000101146B000E166F90
:105958001569000E176F000E186F000E1B6F000EF2
:105968001C6F216B3DEC2EF03FEC2EF02BEC2EF053
:105978001200D59CF30ED76E800ED66EF30E4B6ECA
:10598800800E4A6E000E00016E6F000E6F6FFDEC08
:105998002DF0F294980ED56E1200016A9EA8D7EFEA
:1059A8002CF0D9EF2CF0E2EF2CF0ACAADEEF2CF0C3
:1059B800E0EF2CF0E2EF2CF0010E016E0150120026
:1059C80000016F6F5FEC2CF00009D8B4EEEF2CF0FB
:1059D800F0EF2CF0E6EF2CF000016F5197EC2DF072
:1059E8001200896A8A6A180E8B6ECF0E926ED40ED8
:1059F800936EBC0E946E140E0F015B6F5A6BF28699
:105A0800120000016E516F11D8B40DEF2DF00FEF99
:105A18002DF013EF2DF06EC046F16FC047F1120064
:105A280000016E516F11D8B41CEF2DF01EEF2DF050
:105A380022EF2DF06EC048F16FC049F11200026EDE
:105A4800D1EC2CF00009D8B42CEF2DF02EEF2DF06E
:105A580024EF2DF002501EEC2EF01200AE0E0001C5
:105A6800B66F000EA66FACC0A7F0ADC0A8F0B60E1A
:105A7800A96F66EC2BF01200ECEC2DF0F5EC2CF095
:105A8800BDEC2CF00CEC2CF0AAEC2DF040EC2BF03B
:105A98001200410E456E000E396E3FC03AF040C00C
:105AA8003BF0450E3C6EACEC2BF0120000016F5140
:105AB800756E6EC074FF7F9E7F9C7F800000735060
:105AC8001200C5BC6AEF2DF06DEF2DF0010E6EEFE0
:105AD8002DF0000E1200C7BA74EF2DF077EF2DF0FD
