:040000006DEF06F0AA
:100008005382E1CF64F0E2CF65F0D9CF66F0DACF62
:1000180067F0F3CF68F0F4CF69F0F6CF6AF0F7CF66
:100028006BF0F8CF6CF0F5CF6DF0F2A61EEF00F094
:1000380020EF00F057EF06F0F2A025EF00F027EFD1
:1000480000F057EF06F081A82CEF00F02FEF00F03A
:10005800010E30EF00F0000E0101796FE6C048F1A3
:10006800E7C049F1E8C04AF1E9C04BF1D650D7CF13
:1000780060F00001616B626B636B62C063F061C02A
:1000880062F060C061F0606B6025E66F000E612170
:10009800E76F000E6221E86F000E6321E96FD76AEF
:1000A800D66A030EEB19D8A45CEF00F05EEF00F0FF
:1000B80087EF00F0E951E8110BE12D0EE65D010E26
:1000C800E759D8A06AEF00F06CEF00F056EF06F0A1
:1000D800600E3F6EFB0E406E79C141F0426A10EC33
:1000E80038F06D0E3F6EFF0E406EE6C041F0E7C07F
:1000F80042F0E8C043F0E9C044F010EC38F056EFA5
:1001080006F056EF06F04E4A4F2A01017C51D8A45A
:1001180090EF00F092EF00F0E3EF00F00001E951FA
:10012800E8110BE1790EE65D920EE759D8A09FEF32
:1001380000F0A1EF00F0E3EF00F0E951E81109E168
:10014800A80EE65D940EE759D8B0ADEF00F0AFEF1A
:1001580000F0E3EF00F0000E4F6E010E4E6E010E40
:100168000101806FE6C05AF1E7C05BF1020E0001A1
:10017800EB19D8A4C2EF00F0C4EF00F0D2EF00F002
:10018800EE0E3F6EFD0E406EE6C041F0E7C042F055
:10019800E8C043F0E9C044F010EC38F0010E01016A
:1001A8007C6F010E0001EA6F20EEDAF0070EDE6ABE
:1001B800E806FDE2010E01017F6F56EF06F001012E
:1001C8007C51D8A4EAEF00F0ECEF00F038EF01F032
:1001D8000001E951E8110BE1330EE65D730EE759B2
:1001E800D8A0F9EF00F0FBEF00F038EF01F0E9518B
:1001F800E81109E1C20EE65D740EE759D8B007EFC1
:1002080001F009EF01F038EF01F0000E4F6E010E1A
:100218004E6E020EEA6FD8904E34D96E4F34DA6EB5
:10022800820ED926050EDA22E6C0DEFFE7C0DDFF22
:10023800020EEB19D8A423EF01F025EF01F033EFFC
:1002480001F07A0E3F6EFE0E406EE6C041F0E7C048
:1002580042F0E8C043F0E9C044F010EC38F0010E79
:1002680001017C6FD8EF00F001014B514A110AE1FE
:100278004805130E4959D8A044EF01F046EF01F0A4
:10028800C2EF01F04B514A1109E1B80E485D140E56
:100298004959D8B052EF01F054EF01F0C2EF01F024
:1002A8007951D8B45AEF01F05CEF01F0C2EF01F0D8
:1002B8007C51D8A462EF01F064EF01F0C2EF01F0C5
:1002C8000001E951E8110BE1A50EE65D240EE7599E
:1002D800D8A071EF01F073EF01F0C2EF01F0E9511E
:1002E800E81109E15C0EE65D260EE759D8B07FEF0C
:1002F80001F081EF01F0C2EF01F0000E4F6E010E28
:100308004E6E010E0101786F040E0001EA6F020EB5
:10031800EB19D8A492EF01F094EF01F0A2EF01F0ED
:10032800850E3F6EFE0E406EE6C041F0E7C042F01B
:10033800E8C043F0E9C044F010EC38F0D8904E34EF
:10034800D96E4F34DA6E820ED926050EDA22E6C04F
:10035800DEFFE7C0DDFF000E0101576F000E566F8C
:10036800000E536F000E526F010E7C6F20EEDAF014
:10037800070EDE6AE806FDE256EF06F0040E0001FD
:10038800EA19D8B4CAEF01F0CDEF01F0010ECEEFB3
:1003980001F0000E606F616B01017C510001601774
:1003A800000E611760516111D8B4DDEF01F0DFEF85
:1003B80001F000EF03F04F5007E1960E4E5CD8B005
:1003C800E8EF01F0EAEF01F0FEEF01F0D8904E34CB
:1003D800D96E4F34DA6E820ED926050EDA22E6C0BF
:1003E800DEFFE7C0DDFF000E4E24D96E020E4F205F
:1003F800DA6EDF6AE951E8110BE15B0EE65D090E82
:10040800E759D8A00AEF02F00CEF02F071EF02F002
:10041800E951E81109E1120EE65D0B0EE759D8B073
:1004280018EF02F01AEF02F071EF02F0000E01016E
:10043800536F000E526F7951D8B425EF02F027EFB1
:1004480002F03DEF02F0564B572BD8900001DA35F9
:10045800DA6FDB35DB6FDC35DC6FDD35DD6FDE3524
:10046800DE6FDF35DF6FE035E06FE135E16F62EFBA
:1004780002F0564B572BD8900001DA35DA6FDB358E
:10048800DB6FDC35DC6FDD35DD6FDE35DE6FDF35EC
:10049800DF6FE035E06FE135E16F010EDA11DA6FF9
:1004A800DB51DB6FDC51DC6FDD51DD6FDE51DE6F60
:1004B800DF51DF6FE051E06FE151E16F380E01016C
:1004C80056195711D8A46BEF02F06DEF02F056EFF2
:1004D80006F01DEC38F056EF06F0E951E8110BE193
:1004E8004A0EE65D040EE759D8A07DEF02F07FEFD3
:1004F80002F0EEEF02F0E951E81108E1E605060E18
:10050800E759D8B08AEF02F08CEF02F0EEEF02F074
:100518000101524B532B52055311D8A496EF02F008
:1005280098EF02F09AEF02F056EF06F0000E536FC4
:10053800000E526F7951D8A4A4EF02F0A6EF02F092
:10054800CDEF02F0564B572BD8900001DA35DA6F11
:10055800DB35DB6FDC35DC6FDD35DD6FDE35DE6F1F
:10056800DF35DF6FE035E06FE135E16F010EDA115D
:10057800DA6FDB51DB6FDC51DC6FDD51DD6FDE5193
:10058800DE6FDF51DF6FE051E06FE151E16FE1EFC6
:1005980002F0564B572BD8900001DA35DA6FDB356D
:1005A800DB6FDC35DC6FDD35DD6FDE35DE6FDF35CB
:1005B800DF6FE035E06FE135E16F380E0101561964
:1005C8005711D8A4EAEF02F0ECEF02F056EF06F06C
:1005D8006DEF02F0EB05D8A4F4EF02F0F6EF02F0AD
:1005E800FCEF02F0FA0E3F6EFF0E406E10EC38F092
:1005F800D7EC38F056EF06F0020EEA19D8A407EF48
:1006080003F009EF03F018EF04F001017C51D8B4AE
:1006180010EF03F012EF03F018EF04F00001E951B6
:10062800E8110BE1570EE65D040EE759D8A01FEF5D
:1006380003F021EF03F091EF03F0E951E81109E12C
:10064800AA0EE65D050EE759D8B02DEF03F02FEF9F
:1006580003F091EF03F0D890DA35DA6FDB35DB6F12
:10066800DC35DC6FDD35DD6FDE35DE6FDF35DF6F06
:10067800E035E06FE135E16F010EDA11DA6FDB5139
:10068800DB6FDC51DC6FDD51DD6FDE51DE6FDF517A
:10069800DF6FE051E06FE151E16F4F5007E1960ED7
:1006A8004E5CD8B05AEF03F05CEF03F070EF03F044
:1006B800D8904E34D96E4F34DA6E820ED926050E94
:1006C800DA22E6C0DEFFE7C0DDFF000E4E24D96E59
:1006D800020E4F20DA6EDF6A1A0E4E184F10D8A499
:1006E80078EF03F07AEF03F056EF06F029EC38F0D4
:1006F80056EF06F0010EDA11DA6FDB51DB6FDC51D1
:10070800DC6FDD51DD6FDE51DE6FDF51DF6FE051F1
:10071800E06FE151E16F56EF06F0E951E8110BE1A6
:10072800D70EE65D010EE759D8A09DEF03F09FEFC5
:1007380003F0FDEF03F0E951E81109E12A0EE65D47
:10074800030EE759D8B0ABEF03F0ADEF03F0FDEFC0
:1007580003F0D890DA35DA6FDB35DB6FDC35DC6F28
:10076800DD35DD6FDE35DE6FDF35DF6FE035E06FFD
:10077800E135E16F4F5007E1960E4E5CD8B0C7EFF8
:1007880003F0C9EF03F0DDEF03F0D8904E34D96ED3
:100798004F34DA6E820ED926050EDA22E6C0DEFF65
:1007A800E7C0DDFF000E4E24D96E020E4F20DA6E30
:1007B800DF6A1A0E4E184F10D8A4E5EF03F0E7EFE2
:1007C80003F056EF06F07AEF03F0D8900001DA351F
:1007D800DA6FDB35DB6FDC35DC6FDD35DD6FDE35A1
:1007E800DE6FDF35DF6FE035E06FE135E16F56EF43
:1007F80006F0D7EC38F04EC054F14FC055F1000167
:10080800EB05D8A40AEF04F00CEF04F056EF06F05D
:10081800250E3F6EFF0E406E4EC041F04FC042F0B5
:1008280010EC38F056EF06F00001EA05D8A41FEFE7
:1008380004F021EF04F056EF06F0E951E8110BE15E
:100848008C0EE65D0A0EE759D8A02DEF04F02FEFC5
:1008580004F02CEF05F0E951E81109E1BB0EE65D63
:100868000C0EE759D8B03BEF04F03DEF04F02CEF45
:1008780005F001017C51D8A444EF04F046EF04F0E0
:1008880048EF04F056EF06F06C0E4E184F10D8A43F
:1008980050EF04F052EF04F07EEF04F0806B7F6BB2
:1008A800D8904E34D96E4F34DA6E820ED926050EA2
:1008B800DA22E6C0DEFFE7C0DDFF000E4E24D96E67
:1008C800020E4F20DA6EDF6A4EC054F14FC055F168
:1008D8007C6B806B7B6B7F6B6C0E4E184F10D8A4B3
:1008E80078EF04F07AEF04F056EF06F0010E816F0E
:1008F80056EF06F0020E4E184F10D8B486EF04F0EB
:1009080088EF04F092EF04F0030E4E184F10D8A4AD
:1009180090EF04F092EF04F0F1EF04F0020E4E189D
:100928004F10D8A49AEF04F09CEF04F0A2EF04F063
:10093800E6C058F1E7C059F156EF06F0030E4E181D
:100948004F10D8A4AAEF04F0ACEF04F0F1EF04F0D4
:10095800D8904E34D96E4F34DA6E7E0ED926050EF5
:10096800DA225AC1DEFF5BC1DDFFFE0E4E24D96ECE
:10097800010E4F20DA6EDF6AD8904E34D96E4F34AC
:10098800DA6E800ED926050EDA2258C1DEFF59C16B
:10099800DDFFFF0E4E24D96E010E4F20DA6EDF6A9E
:1009A800D8904E34D96E4F34DA6E820ED926050EA1
:1009B800DA22E6C0DEFFE7C0DDFF000E4E24D96E66
:1009C800020E4F20DA6EDF6A010E7B6F000E576F42
:1009D800000E566F7F6B56EF06F04F5007E16C0E16
:1009E8004E5CD8B0FAEF04F0FCEF04F011EF05F01C
:1009F800D8904E34D96E4F34DA6E820ED926050E51
:100A0800DA22E6C0DEFFE7C0DDFF000E4E24D96E15
:100A1800020E4F20DA6E030EDF6ED7EC38F04EC0B0
:100A280054F14FC055F10001EB05D8A41EEF05F0B5
:100A380020EF05F056EF06F0850E3F6EFF0E406E74
:100A48004EC041F04FC042F010EC38F056EF06F0BF
:100A580001017B51D8B433EF05F035EF05F056EFBF
:100A680006F00001E951E8110BE1930EE65D060E70
:100A7800E759D8A042EF05F044EF05F0C3EF05F0C1
:100A8800E951E81109E1C20EE65D080EE759D8B050
:100A980050EF05F052EF05F0C3EF05F04F5007E1B6
:100AA800960E4E5CD8B05BEF05F05DEF05F071EF88
:100AB80005F0D8904E34D96E4F34DA6E820ED926AE
:100AC800050EDA22E6C0DEFFE7C0DDFF000E4E2489
:100AD800D96E020E4F20DA6EDF6A4EB076EF05F05F
:100AE80078EF05F07DEF05F0010E01017E6F56EFFE
:100AF80006F001017E51D8A484EF05F086EF05F0D9
:100B08009CEF05F0564B572BD8900001DA35DA6F79
:100B1800DB35DB6FDC35DC6FDD35DD6FDE35DE6F59
:100B2800DF35DF6FE035E06FE135E16F7EEF03F031
:100B3800000E4F6E000E4E6ED7EC38F00001EB053C
:100B4800D8A4A9EF05F0ABEF05F085EF00F0000E93
:100B58004E24D96E020E4F20DA6E020EDF6EB00EF2
:100B68003F6EFE0E406EE6C041F0E7C042F0E8C0BE
:100B780043F0E9C044F010EC38F056EF06F0E951C4
:100B8800E8110BE1A70EE65D020EE759D8A0CFEFFA
:100B980005F0D1EF05F03DEF06F0E951E81109E164
:100BA800D60EE65D040EE759D8B0DDEF05F0DFEFAD
:100BB80005F03DEF06F04F5007E1960E4E5CD8B0B9
:100BC800E8EF05F0EAEF05F0FEEF05F0D8904E34B7
:100BD800D96E4F34DA6E820ED926050EDA22E6C0B7
:100BE800DEFFE7C0DDFF000E4E24D96E020E4F2057
:100BF800DA6EDF6A4EB003EF06F005EF06F009EF94
:100C080006F001017E6B56EF06F001017E05D8A4BF
:100C180010EF06F012EF06F016EF06F0564B572BC2
:100C2800E9EF03F0000E4F6E000E4E6ED7EC38F071
:100C38000001EB05D8A423EF06F025EF06F085EFB9
:100C480000F0000E4E24D96E020E4F20DA6E030E0D
:100C5800DF6E6F0E3F6EFE0E406EE6C041F0E7C0DD
:100C680042F0E8C043F0E9C044F010EC38F056EF29
:100C780006F0D7EC38F04EC054F14FC055F10001E2
:100C8800EB05D8A44AEF06F04CEF06F085EF00F02C
:100C98002D0E3F6EFF0E406E4EC041F04FC042F029
:100CA80010EC38F0F2906DC0F5FF6CC0F8FF6BC027
:100CB800F7FF6AC0F6FF69C0F4FF68C0F3FF67C0BA
:100CC800DAFF66C0D9FF65C0E2FF64C0E1FF539256
:100CD8001100E5EF32F0C5C06EF0C6C06FF0F20E3D
:100CE8000001706FFF0E716F74EC34F000016E51EB
:100CF8006F11D8A482EF06F084EF06F088EF06F0B3
:100D080059EC28F070EF0DF0C5C06EF0C6C06FF05A
:100D1800E00E706FFF0E716F74EC34F000016E51CD
:100D28006F11D8A49AEF06F09CEF06F0EFEF06F0EB
:100D3800EB2B030EEB65A3EF06F0A5EF06F0A6EF8D
:100D480006F0EB6BD80EAC6FFE0EAD6FEBC0AEF0DD
:100D5800AF6BF5EC37F00001EB51D8A4B6EF06F015
:100D6800B8EF06F0BEEF06F09D0EAC6FFD0EAD6F4E
:100D7800F5EC37F00001EB05D8A4C5EF06F0C7EF96
:100D880006F0CDEF06F0E70EAC6FF80EAD6FF5ECA0
:100D980037F0020E0001EB19D8A4D5EF06F0D7EF13
:100DA80006F0DDEF06F0C10EAC6FFC0EAD6FF5EC92
:100DB80037F0030E0001EB19D8A4E5EF06F0E7EFD2
:100DC80006F070EF0DF0B40EAC6FF90EAD6FF5ECE8
:100DD80037F070EF0DF0C5C06EF0C6C06FF0E20ED0
:100DE800706FFF0E716F74EC34F000016E516F116B
:100DF800D8A401EF07F003EF07F050EF07F0010167
:100E0800852B020E8519D8A40CEF07F00EEF07F01A
:100E18000FEF07F0856BAE0E0001AC6FFB0EAD6FE8
:100E280001018551040DED0EF324D96E010EF42055
:100E3800DA6EDECFAEF0DECFAFF0DECFB0F0DECFD1
:100E4800B1F0F5EC37F001018551D8A42EEF07F089
:100E580030EF07F03BEF07F0960E0001AC6FFB0E8A
:100E6800AD6FF5EC37F0060E7D6E820EAF6E0101A8
:100E78008505D8A442EF07F044EF07F070EF0DF0B6
:100E8800D50E0001AC6FFD0EAD6FF5EC37F07D6A45
:100E9800440EAF6E70EF0DF0C5C06EF0C6C06FF0B7
:100EA800E40E706FFF0E716F74EC34F000016E5138
:100EB8006F11D8A462EF07F064EF07F084EF07F032
:100EC80001018551D8B46BEF07F06DEF07F074EFAF
:100ED80007F01A0E0001AC6FF80EAD6FF5EC37F0A5
:100EE8003B0E0001AC6FF60EAD6FF5EC37F0000E5F
:100EF8000001836F010E826FBEEC1EF070EF0DF0E3
:100F0800C5C06EF0C6C06FF0E60E706FFF0E716F51
:100F180074EC34F000016E516F11D8A496EF07F00D
:100F280098EF07F0B8EF07F001018551D8B49FEFAB
:100F380007F0A1EF07F0A8EF07F01A0E0001AC6F59
:100F4800F80EAD6FF5EC37F0980E0001AC6FF60EA9
:100F5800AD6FF5EC37F0000E0001836F020E826F63
:100F6800BEEC1EF070EF0DF0C5C06EF0C6C06FF09D
:100F7800E80E706FFF0E716F74EC34F000016E5163
:100F88006F11D8A4CAEF07F0CCEF07F0D0EF07F045
:100F98004AEC16F070EF0DF0C5C06EF0C6C06FF0E9
:100FA800EA0E706FFF0E716F74EC34F000016E5131
:100FB8006F11D8A4E2EF07F0E4EF07F096EF08F01E
:100FC800F29E8A0EAC6FFC0EAD6FF5EC37F05AEF5F
:100FD80008F08C0E0001AC6FFF0EAD6FF5EC37F02A
:100FE80082EF08F02C0E0001AC6FFD0EAD6F44C10E
:100FF800AEF045C1AFF046C1B0F047C1B1F0F5EC75
:1010080037F082EF08F0490E0001AC6FFB0EAD6FB0
:1010180044C1AEF045C1AFF046C1B0F047C1B1F030
:10102800F5EC37F082EF08F0DA0E0001AC6FF90E3C
:10103800AD6FF5EC37F082EF08F0DC0E0001AC6F15
:10104800FA0EAD6FF5EC37F082EF08F0130E0001E1
:10105800AC6FF90EAD6FF5EC37F082EF08F07E0E4D
:101068000001AC6FFD0EAD6FF5EC37F082EF08F0C4
:10107800900E0001AC6FFE0EAD6FF5EC37F082EF0D
:1010880008F0630E0001AC6FFB0EAD6FF5EC37F0A6
:1010980082EF08F05F0E0001AC6FFB0EAD6F8EC1E2
:1010A800AEF0AF6BF5EC37F082EF08F001018E512E
:1010B800000AD8B4EDEF07F0010AD8B4F6EF07F04C
:1010C800030AD8B407EF08F0010AD8B418EF08F0FB
:1010D800070AD8B421EF08F0010AD8B42AEF08F0BB
:1010E800030AD8B433EF08F0010AD8B43CEF08F08B
:1010F8000F0AD8B445EF08F04EEF08F0C60E00010D
:10110800AC6FFB0EAD6F8DC1AEF0AF6BF5EC37F089
:101118002C0E0001AC6FFB0EAD6FF5EC37F0F28EC4
:1011280070EF0DF0C5C06EF0C6C06FF0EC0E706FBA
:10113800FF0E716F74EC34F000016E516F11D8A47A
:10114800A8EF08F0AAEF08F029EF09F0F29E8E0E3A
:10115800AC6FFD0EAD6F87C1AEF0AF6BF5EC37F03D
:10116800380E0001AC6FFC0EAD6F86C1AEF0AF6BF0
:10117800F5EC37F0AF0E0001AC6FFC0EAD6F62C13D
:10118800AEF063C1AFF0F5EC37F0010E0001E26F8D
:10119800000EE36F000EE46F000EE56FE551E411F9
:1011A800E31109E1830EE25DD8A0DDEF08F0DFEF7F
:1011B80008F0E1EF08F00AEF09F0CB0EAC6FFF0E74
:1011C800AD6FE2C0AEF0E3C0AFF0E4C0B0F0E5C090
:1011D800B1F0F5EC37F0C30E0001AC6FFF0EAD6F48
:1011E800000EE225D96E050EE321DA6EDF50C76FD7
:1011F800C751AE6FAF6BF5EC37F0010E0001E22777
:10120800000EE323E423E523D2EF08F02C0EAC6FA5
:10121800FB0EAD6FF5EC37F01B0E0001AC6FFD0E49
:10122800AD6F60C1AEF061C1AFF0F5EC37F0AC0E58
:101238000001AC6FFD0EAD6F5EC1AEF05FC1AFF0E7
:10124800F5EC37F0F28E70EF0DF0C5C06EF0C6C049
:101258006FF0EE0E706FFF0E716F74EC34F00001DA
:101268006E516F11D8A43BEF09F03DEF09F0AEEFD6
:1012780009F0F29E000EE26F000EE36F000EE46FBD
:10128800000EE56FE551E411E31109E1C80EE25DD6
:10129800D8A051EF09F053EF09F055EF09F0ABEF83
:1012A80009F0E2C0B7F0E3C0B8F0E4C0B9F0E5C0B7
:1012B800BAF0D3EC24F0CB0E0001AC6FFF0EAD6F8B
:1012C800E2C0AEF0E3C0AFF0E4C0B0F0E5C0B1F00A
:1012D800F5EC37F0AF0E0001AC6FFF0EAD6F00C438
:1012E800AEF0AF6BF5EC37F0010E0001E225C76FE9
:1012F800000EE321C86F000EE421C96F000EE5213E
:10130800CA6F0F0EC715CB6F000EC815CC6F000E35
:10131800C915CD6F000ECA15CE6FCB51CC11CD11AA
:10132800CE11D8A49AEF09F09CEF09F0A2EF09F0CA
:101338002C0EAC6FFB0EAD6FF5EC37F0010E000113
:10134800E227000EE323E423E52346EF09F0F28EBB
:1013580070EF0DF0C5C06EF0C6C06FF0F00E706F84
:10136800FF0E716F74EC34F000016E516F11D8A448
:10137800C0EF09F0C2EF09F048EF0AF0F29E000E44
:10138800E26F000EE36F000EE46F000EE56FE551AB
:10139800E4110AE1E229030EE359D8A0D6EF09F0D7
:1013A800D8EF09F0DAEF09F045EF0AF0E2C06EF085
:1013B800E3C06FF035EC38F002019A6F0F0E0001B0
:1013C800E215C76F000EE315C86F000EE415C96F6C
:1013D800000EE515CA6FC751C811C911CA11D8A4A2
:1013E800F8EF09F0FAEF09F008EF0AF0CF0EAC6F4A
:1013F800FF0EAD6FE2C0AEF0E3C0AFF0E4C0B0F0F6
:10140800E5C0B1F0F5EC37F0AF0E0001AC6FFF0EA0
:10141800AD6F9AC2AEF0AF6BF5EC37F0010E00017C
:10142800E225C76F000EE321C86F000EE421C96FE3
:10143800000EE521CA6F0F0EC715CB6F000EC81539
:10144800CC6F000EC915CD6F000ECA15CE6FCB51EB
:10145800CC11CD11CE11D8A434EF0AF036EF0AF032
:101468003CEF0AF02C0EAC6FFB0EAD6FF5EC37F0CD
:10147800010E0001E227000EE323E423E523CBEF6E
:1014880009F0F28E70EF0DF0C5C06EF0C6C06FF0B7
:10149800F40E706FFF0E716F74EC34F000016E5132
:1014A8006F11D8A45AEF0AF05CEF0AF0E7EF0AF0E0
:1014B80002019F6BF29E9D0E0001AC6FFC0EAD6F9A
:1014C800F5EC37F0000E0001E26F000EE36F000E3E
:1014D800E46F000EE56FB3EF0AF0E2C0B7F0E3C0C7
:1014E800B8F0E4C0B9F0E5C0BAF0800EBB6F9BEC71
:1014F80025F0800E0001E225E26F000EE321E36F84
:10150800000EE421E46F000EE521E56F000E0201F4
:101518009B6F000E9C6F000E9D6F000E9E6F9E517C
:101528009D119C1109E1800E9B5DD8A09EEF0AF0E9
:10153800A0EF0AF0A2EF0AF0B3EF0AF0000E9B2525
:10154800D96E040E9C21DA6EDF509F199F6F010E31
:101558009B27000E9C239D239E2393EF0AF00001F6
:10156800E5510CE1E229FF0EE359010EE459D8A038
:10157800C0EF0AF0C2EF0AF071EF0AF07D0EAC6F0F
:10158800FB0EAD6F9FC2AEF0AF6BF5EC37F002010A
:101598009F51D8A4D2EF0AF0D4EF0AF0DDEF0AF099
:1015A800A50E0001AC6FFF0EAD6FF5EC37F0E4EF60
:1015B8000AF00A0E0001AC6FFF0EAD6FF5EC37F0C4
:1015C800F28E70EF0DF0C5C06EF0C6C06FF0F60E6B
:1015D800706FFF0E716F74EC34F000016E516F1173
:1015E800D8A4F9EF0AF0FBEF0AF0D4EF0BF0000EE5
:1015F8000201A06F000EA16F000EA26F000EA36F74
:10160800F29EC3EF0BF0A0C2B7F0A1C2B8F0A2C21D
:10161800B9F0A3C2BAF0800E0001BB6F9BEC25F0B5
:10162800000E0001E26F000EE36F000EE46F000E83
:10163800E56FE551E411E31109E1800EE25DD8A000
:1016480028EF0BF02AEF0BF02CEF0BF0B6EF0BF0B6
:101658000201A0510001E2250201966FA15100018B
:10166800E3210201976FA2510001E4210201986F62
:10167800A3510001E5210201996F0F0E0001E21547
:10168800C76F000EE315C86F000EE415C96F000E92
:10169800E515CA6FC751C811C911CA11D8A457EFA7
:1016A8000BF059EF0BF06AEF0BF096C2B7F097C248
:1016B800B8F098C2B9F099C2BAF03AEC37F0230EF4
:1016C8000001AC6FFF0EAD6FF5EC37F0C70E0001EF
:1016D800AC6FFF0EAD6F000EE225D96E040EE3214C
:1016E800DA6EDF50C76FC751AE6FAF6BF5EC37F0EE
:1016F800010E0001E225C76F000EE321C86F000E3E
:10170800E421C96F000EE521CA6F0F0EC715CB6F14
:10171800000EC815CC6F000EC915CD6F000ECA1586
:10172800CE6FCB51CC11CD11CE11D8A49EEF0BF0BA
:10173800A0EF0BF0A6EF0BF02C0EAC6FFB0EAD6F0D
:10174800F5EC37F0E40E00D000D0E82EFCD700D03E
:1017580000D0010E0001E227000EE323E423E52375
:101768001DEF0BF0800E0201A025A06F000EA12135
:10177800A16F000EA221A26F000EA321A36FA35197
:101788000CE1A029FF0EA159010EA259D8A0CFEF54
:101798000BF0D1EF0BF007EF0BF0F28E70EF0DF0BE
:1017A800C5C06EF0C6C06FF0F80E706FFF0E716F97
:1017B80074EC34F000016E516F11D8A4E6EF0BF011
:1017C800E8EF0BF054EF0DF0000EE26F000EE36F40
:1017D800000EE46F000EE56FE2C0C7F0E3C0C8F08A
:1017E800D890C737C837D890C737C837000EC7252D
:1017F8006E6F010EC8216F6F35EC38F00001C96FAC
:10180800C9510201A46FA56BA66BA76BA86BA96B46
:10181800AA6BAB6BE2C0C7F0E3C0C8F00001D89078
:10182800C737C837D890C737C837010EC7256E6F76
:10183800010EC8216F6F35EC38F00001C96FC9C0BF
:10184800CAF0CB6BCC6BCD6BCCC0CDF0CBC0CCF0A1
:10185800CAC0CBF0CA6BCA51CE6FCB51CF6FCC5137
:10186800D06FCD51D16FD26BD36BD46BD56B0201D6
:10187800A4510001CE250201A46FA5510001CF217A
:101888000201A56FA6510001D0210201A66FA75140
:101898000001D1210201A76FA8510001D221020144
:1018A800A86FA9510001D3210201A96FAA51000113
:1018B800D4210201AA6FAB510001D5210201AB6FFF
:1018C800E2C0C7F0E3C0C8F00001D890C737C837F6
:1018D800D890C737C837020EC7256E6F010EC821CA
:1018E8006F6F35EC38F00001C96FC9C0CAF0CB6B17
:1018F800CC6BCD6BCBC0CDF0CAC0CCF0CB6BCA6B78
:10190800CA51CE6FCB51CF6FCC51D06FCD51D16F63
:10191800D26BD36BD46BD56B0201A4510001CE25D9
:101928000201A46FA5510001CF210201A56FA651A4
:101938000001D0210201A66FA7510001D1210201A7
:10194800A76FA8510001D2210201A86FA951000177
:10195800D3210201A96FAA510001D4210201AA6F63
:10196800AB510001D5210201AB6FE2C0C7F0E3C063
:10197800C8F00001D890C737C837D890C737C837DC
:10198800030EC7256E6F010EC8216F6F35EC38F056
:101998000001C96FC9C0CAF0CB6BCC6BCD6BCAC094
:1019A800CDF0CC6BCB6BCA6BCA51CE6FCB51CF6F1E
:1019B800CC51D06FCD51D16FD26BD36BD46BD56B6B
:1019C8000201A4510001CE250201A46FA551000116
:1019D800CF210201A56FA6510001D0210201A66FF7
:1019E800A7510001D1210201A76FA8510001D221FE
:1019F8000201A86FA9510001D3210201A96FAA51C0
:101A08000001D4210201AA6FAB510001D5210201C6
:101A1800AB6FD30E0001AC6FFC0EAD6F010EE2256B
:101A2800AE6F000EE321AF6F000EE421B06F000E21
:101A3800E521B16FF5EC37F0A4C2B7F0A5C2B8F054
:101A4800A6C2B9F0A7C2BAF0A8C2BBF0A9C2BCF03E
:101A5800AAC2BDF0ABC2BEF052EC37F02C0E0001AA
:101A6800AC6FFB0EAD6FF5EC37F0010E0001E2270D
:101A7800000EE323E423E523E551E411E31109E132
:101A8800140EE25DD8A04BEF0DF04DEF0DF0F0EF26
:101A98000BF0E207000EE35BE45BE55B70EF0DF033
:101AA800C5C06EF0C6C06FF0FC0E706FFF0E716F90
:101AB80074EC34F000016E516F11D8A466EF0DF08C
:101AC80068EF0DF06AEF0DF070EF0DF0DE0EAC6F01
:101AD800FB0EAD6FF5EC37F01200DAC0B7F0DBC0E3
:101AE800B8F0DCC0B9F0DDC0BAF0DEC0BBF0DFC0D2
:101AF800BCF0E0C0BDF0E1C0BEF0040ED89000011B
:101B0800B737B837B937BA37BB37BC37BD37BE3741
:101B1800E82E82EF0DF0B7C0C1F0B8C0C2F0B9C06E
:101B2800C3F0BAC0C4F0BBC0C5F0BCC0C6F0BDC0ED
:101B3800C7F0BEC0C8F020EEC1F0F00EDE18C16FCD
:101B4800FF0EDE18C26FFF0EDE18C36FFF0EDE1821
:101B5800C46FFF0EDE18C56FFF0EDE18C66FFF0ECE
:101B6800DE18C76F000EDE18C86FC1C0B7F0C2C05C
:101B7800B8F0C3C0B9F0C4C0BAF0C5C0BBF0C6C0A5
:101B8800BCF0C7C0BDF0C8C0BEF0310ED5EF0DF037
:101B9800D890BE33BD33BC33BB33BA33B933B83353
:101BA800B733E82ECCEF0DF0B7C0C9F0B8C0CAF013
:101BB800B9C0CBF0BAC0CCF0BBC0CDF0BCC0CEF041
:101BC800BDC0CFF0BEC0D0F0C939F00BF00BEC6F40
:101BD800040EB76FC9C0B8F0CAC0B9F0CBC0BAF02C
:101BE800CCC0BBF0CDC0BCF0CEC0BDF0CFC0BEF005
:101BF800D0C0BFF0B76703EF0EF00FEF0EF0BF35A0
:101C0800BF33BE33BD33BC33BB33BA33B933B83358
:101C1800B72FFEEF0DF00001B8510F0BED6FC1C0EB
:101C2800B7F0C2C0B8F0C3C0B9F0C4C0BAF0C5C0FC
:101C3800BBF0C6C0BCF0C7C0BDF0C8C0BEF0290E1E
:101C48002FEF0EF0D890BE33BD33BC33BB33BA335D
:101C5800B933B833B733E82E26EF0EF0B7C0C9F062
:101C6800B8C0CAF0B9C0CBF0BAC0CCF0BBC0CDF098
:101C7800BCC0CEF0BDC0CFF0BEC0D0F0040EB76F70
:101C8800C9C0B8F0CAC0B9F0CBC0BAF0CCC0BBF07C
:101C9800CDC0BCF0CEC0BDF0CFC0BEF0D0C0BFF04C
:101CA800B76759EF0EF065EF0EF0BF35BF33BE339F
:101CB800BD33BC33BB33BA33B933B833B72F54EF62
:101CC8000EF00001B8510F0BEC11EC6FC939F00B95
:101CD800F00B526EC1C0B7F0C2C0B8F0C3C0B9F0C3
:101CE800C4C0BAF0C5C0BBF0C6C0BCF0C7C0BDF028
:101CF800C8C0BEF0210E8AEF0EF0D890BE33BD33B7
:101D0800BC33BB33BA33B933B833B733E82E81EFBA
:101D18000EF0B7C0C9F0B8C0CAF0B9C0CBF0BAC0AD
:101D2800CCF0BBC0CDF0BCC0CEF0BDC0CFF0BEC0C3
:101D3800D0F0040EB76FC9C0B8F0CAC0B9F0CBC0B4
:101D4800BAF0CCC0BBF0CDC0BCF0CEC0BDF0CFC0A7
:101D5800BEF0D0C0BFF0B767B4EF0EF0C0EF0EF022
:101D6800BF35BF33BE33BD33BC33BB33BA33B933EE
:101D7800B833B72FAFEF0EF00001B8510F0B521068
:101D8800526EC939F00BF00B516EC1C0B7F0C2C02A
:101D9800B8F0C3C0B9F0C4C0BAF0C5C0BBF0C6C083
:101DA800BCF0C7C0BDF0C8C0BEF0190EE5EF0EF01C
:101DB800D890BE33BD33BC33BB33BA33B933B83331
:101DC800B733E82EDCEF0EF0B7C0C9F0B8C0CAF0E0
:101DD800B9C0CBF0BAC0CCF0BBC0CDF0BCC0CEF01F
:101DE800BDC0CFF0BEC0D0F0040EB76FC9C0B8F008
:101DF800CAC0B9F0CBC0BAF0CCC0BBF0CDC0BCF003
:101E0800CEC0BDF0CFC0BEF0D0C0BFF0B7670FEFF7
:101E18000FF01BEF0FF0BF35BF33BE33BD33BC33FC
:101E2800BB33BA33B933B833B72F0AEF0FF0000119
:101E3800B8510F0B5110516EC939F00BF00B506EA1
:101E4800C1C0B7F0C2C0B8F0C3C0B9F0C4C0BAF0DE
:101E5800C5C0BBF0C6C0BCF0C7C0BDF0C8C0BEF0AE
:101E6800110E40EF0FF0D890BE33BD33BC33BB33F7
:101E7800BA33B933B833B733E82E37EF0FF0B7C0FA
:101E8800C9F0B8C0CAF0B9C0CBF0BAC0CCF0BBC07A
:101E9800CDF0BCC0CEF0BDC0CFF0BEC0D0F0040EB7
:101EA800B76FC9C0B8F0CAC0B9F0CBC0BAF0CCC0DF
:101EB800BBF0CDC0BCF0CEC0BDF0CFC0BEF0D0C02E
:101EC800BFF0B7676AEF0FF076EF0FF0BF35BF339B
:101ED800BE33BD33BC33BB33BA33B933B833B72F92
:101EE80065EF0FF00001B8510F0B5010506EC93953
:101EF800F00BF00B0101926FC1C0B7F0C2C0B8F08F
:101F0800C3C0B9F0C4C0BAF0C5C0BBF0C6C0BCF00D
:101F1800C7C0BDF0C8C0BEF0B8C0B7F0B9C0B8F00F
:101F2800BAC0B9F0BBC0BAF0BCC0BBF0BDC0BCF011
:101F3800BEC0BDF00001BE6BB7C0C9F0B8C0CAF0E2
:101F4800B9C0CBF0BAC0CCF0BBC0CDF0BCC0CEF0AD
:101F5800BDC0CFF0BEC0D0F0040EB76FC9C0B8F096
:101F6800CAC0B9F0CBC0BAF0CCC0BBF0CDC0BCF091
:101F7800CEC0BDF0CFC0BEF0D0C0BFF0B767C7EFCE
:101F88000FF0D3EF0FF0BF35BF33BE33BD33BC33D3
:101F9800BB33BA33B933B833B72FC2EF0FF00001F0
:101FA800B8510F0B01019211926F0001C939F00B62
:101FB800F00B0101916FC1C0C9F0C2C0CAF0C3C023
:101FC800CBF0C4C0CCF0C5C0CDF0C6C0CEF0C7C001
:101FD800CFF0C8C0D0F0040E0001B76FC9C0B8F088
:101FE800CAC0B9F0CBC0BAF0CCC0BBF0CDC0BCF011
:101FF800CEC0BDF0CFC0BEF0D0C0BFF0B76707EF0E
:1020080010F013EF10F0BF35BF33BE33BD33BC3310
:10201800BB33BA33B933B833B72F02EF10F000012E
:10202800B8510F0B01019111916FC2EC35F000010D
:10203800C06FEB51D8B423EF10F025EF10F0C1EFCB
:1020480010F0C051D8B42BEF10F02DEF10F035EF91
:1020580010F0AA0EAC6FFF0EAD6FF5EC37F03BEF4A
:1020680010F0B40EAC6FFF0EAD6FF5EC37F03F0E0D
:102078000001AC6FFE0EAD6FEDC0AEF0AF6BF5ECCE
:1020880037F0DE0E0001AC6FFF0EAD6FF5EC37F0E8
:102098003F0E0001AC6FFE0EAD6FECC0AEF0AF6B43
:1020A800F5EC37F0DE0E0001AC6FFF0EAD6FF5EC0E
:1020B80037F03F0E0001AC6FFE0EAD6F52C0AEF0B0
:1020C800AF6BF5EC37F0DE0E0001AC6FFF0EAD6FB5
:1020D800F5EC37F03F0E0001AC6FFE0EAD6F51C04E
:1020E800AEF0AF6BF5EC37F0DE0E0001AC6FFF0E13
:1020F800AD6FF5EC37F03F0E0001AC6FFE0EAD6F23
:1021080050C0AEF0AF6BF5EC37F0DE0E0001AC6FEF
:10211800FF0EAD6FF5EC37F03F0E0001AC6FFE0E11
:10212800AD6F92C1AEF0AF6BF5EC37F0DE0E00018B
:10213800AC6FFF0EAD6FF5EC37F03F0E0001AC6FE2
:10214800FE0EAD6F91C1AEF0AF6BF5EC37F0DB0E64
:102158000001AC6FFF0EAD6FF5EC37F00001C05118
:10216800D8A4B9EF10F0BBEF10F0C1EF10F02C0EAF
:10217800AC6FFB0EAD6FF5EC37F00001C0511200EB
:1021880046C070F047C071F048C072F049C073F0A3
:102198005FEC21F00001D26FB90EAC6FFF0EAD6F8E
:1021A800D2C0AEF0AF6BF5EC37F00001D251D8B425
:1021B800E0EF10F0E2EF10F043EF11F0010E010133
:1021C800776F0001EA05D8B4ECEF10F0EEEF10F0ED
:1021D800F7EF10F0040EEA19D8A4F5EF10F0F7EFB6
:1021E80010F01BEF11F0D251020D000EF324D96E3E
:1021F800010EF420DA6E01015C51DE5C5D51DE589F
:10220800D8A009EF11F00CEF11F0010E0DEF11F04D
:10221800000E776F0001D251020D000EF324D96E23
:10222800010EF420DA6E5CC1DEFF5DC1DDFF010145
:102238007751D8B422EF11F024EF11F03CEF11F0F0
:10224800D70E0001AC6FFF0EAD6FF5EC37F0809A3A
:10225800520E0001C46F2B0EC36F000EE82EFED77E
:10226800C32FFCD7C42FFAD70000808A43EF11F0A0
:10227800620E0001AC6FFC0EAD6FF5EC37F02C0E62
:102288000001AC6FFB0EAD6FF5EC37F00101385172
:1022980039113A113B113C113D113E113F11D8B48F
:1022A80058EF11F05AEF11F0CCEF13F021EE38F09F
:1022B800070EDE6AE806FDE20001D251D8A467EFF6
:1022C80011F069EF11F0C3EF13F0000EE26F000E8A
:1022D800E36F000EE46F000EE56FE2C0C3F0E3C0E9
:1022E800C4F0D890C337C437D890C337C437000E6A
:1022F800C3256E6F010EC4216F6F35EC38F00001F5
:10230800C56FC551CE6FCF6BD06BD16BE2C0C3F038
:10231800E3C0C4F0D890C337C437D890C337C437A4
:10232800010EC3256E6F010EC4216F6F35EC38F0B6
:102338000001C56FC5C0C6F0C76BC86BC96BC8C004
:10234800C9F0C7C0C8F0C6C0C7F0C66BCE51C62515
:10235800CE6FCF51C721CF6FD051C821D06FD15187
:10236800C921D16FE2C0C3F0E3C0C4F0D890C3372D
:10237800C437D890C337C437020EC3256E6F010E19
:10238800C4216F6F35EC38F00001C56FC5C0C6F0C9
:10239800C76BC86BC96BC7C0C9F0C6C0C8F0C76BEC
:1023A800C66BCE51C625CE6FCF51C721CF6FD05146
:1023B800C821D06FD151C921D16FE2C0C3F0E3C0A9
:1023C800C4F0D890C337C437D890C337C437030E86
:1023D800C3256E6F010EC4216F6F35EC38F0000114
:1023E800C56FC5C0C6F0C76BC86BC96BC6C0C9F09E
:1023F800C86BC76BC66BCE51C625CE6FCF51C721F0
:10240800CF6FD051C821D06FD151C921D16F010EE2
:10241800E227000EE323E423E523CE290CE1CF29AC
:102428000AE1D02908E1D129D8B41DEF12F01FEF35
:1024380012F02CEF12F0E551E411E31109E1140E4A
:10244800E25DD8A02AEF12F02CEF12F071EF11F034
:10245800E207000EE35BE45BE55BE551E411E311A1
:1024680009E1150EE25DD8A03CEF12F03EEF12F044
:1024780046EF12F04E0EAC6FFD0EAD6FF5EC37F077
:10248800CCEF13F0E2C0C3F0E3C0C4F0D890C33778
:10249800C437D890C337C437000EC3256E6F010EFA
:1024A800C4216F6F46C070F070EC35F0E2C0C3F025
:1024B800E3C0C4F00001D890C337C437D890C337FD
:1024C800C437010EC3256E6F010EC4216F6F46C05D
:1024D800C5F047C0C6F048C0C7F049C0C8F04AC0F8
:1024E800C9F04BC0CAF04CC0CBF04DC0CCF0C6C050
:1024F800C5F0C7C0C6F0C8C0C7F0C9C0C8F0CAC0D8
:10250800C9F0CBC0CAF0CCC0CBF0CC6BC551706F52
:1025180070EC35F0E2C0C3F0E3C0C4F00001D8901D
:10252800C337C437D890C337C437020EC3256E6F7C
:10253800010EC4216F6F46C0C5F047C0C6F048C041
:10254800C7F049C0C8F04AC0C9F04BC0CAF04CC077
:10255800CBF04DC0CCF0110EBBEF12F0D890CC33BD
:10256800CB33CA33C933C833C733C633C533E82E70
:10257800B2EF12F0C551706F70EC35F00001EA054A
:10258800D8A4C9EF12F0CBEF12F006EF13F0E2C0B7
:10259800C3F0E3C0C4F0D890C337C437D890C3376A
:1025A800C437030EC3256E6F010EC4216F6F84C13B
:1025B800C5F0C53BF00EC51746C0C6F047C0C7F00A
:1025C80048C0C8F049C0C9F04AC0CAF04BC0CBF0F7
:1025D8004CC0CCF04DC0CDF0190EFCEF12F0D890E5
:1025E800CD33CC33CB33CA33C933C833C733C633FF
:1025F800E82EF3EF12F0C651C511706F70EC35F08C
:1026080039EF13F0E2C0C3F0E3C0C4F0D890C33789
:10261800C437D890C337C437030EC3256E6F010E75
:10262800C4216F6F46C0C5F047C0C6F048C0C7F0A8
:1026380049C0C8F04AC0C9F04BC0CAF04CC0CBF082
:102648004DC0CCF0190E32EF13F0D890CC33CB3309
:10265800CA33C933C833C733C633C533E82E29EF65
:1026680013F0C551706F70EC35F0BA0E0001AC6F05
:10267800FD0EAD6FF5EC37F046C0B7F047C0B8F0C7
:1026880048C0B9F049C0BAF04AC0BBF04BC0BCF072
:102698004CC0BDF04DC0BEF052EC37F04E0E0001FC
:1026A800AC6FFE0EAD6FF5EC37F0000E0001E26F77
:1026B800000EE36F000EE46F000EE56FE551E411C4
:1026C800E31109E10A0EE25DD8A06DEF13F06FEF98
:1026D80013F071EF13F094EF13F0050E0001C46FBF
:1026E8000F0EC36FF10EE82EFED7C32FFCD7C42FF1
:1026F800FAD78290050E0001C46F0F0EC36FF10E5A
:10270800E82EFED7C32FFCD7C42FFAD78280010E3C
:102718000001E227000EE323E423E52362EF13F030
:1027280046C070F047C071F048C072F049C073F0FD
:102738005FEC21F00001D26FD251D8B4A6EF13F0AC
:10274800A8EF13F0B4EF13F0D251020D000EF324EA
:10275800D96E010EF420DA6E5CC1DEFF5DC1DDFFCB
:10276800520E0001C46F2B0EC36F000EE82EFED769
:10277800C32FFCD7C42FFAD70000CCEF13F0828008
:10278800F90EAC6FFA0EAD6FF5EC37F0B4EF13F04D
:10279800120003EC38F0808A01018E6B0F015D6B2B
:1027A8005C6BD08EF19EF180F290F286F28E5A899F
:1027B800010E0101856F8551D8A4E5EF13F0E7EF0D
:1027C80013F0EBEF13F0060E7D6E820EAF6E8505EB
:1027D800D8A4F1EF13F0F3EF13F0F6EF13F07D6ADE
:1027E800440EAF6E920ED56EBB0E0001726FF80EDE
:1027F800736F86EC2DF0C80E0001726FFD0E736FBB
:1028080086EC2DF03C0E0001726FF90E736F86ECAA
:102818002DF0C80E0001726FFD0E736F86EC2DF05F
:10282800829059EC28F082800001EB6B12EC39F0B1
:10283800F28E81B422EF14F024EF14F087EF14F035
:10284800150E0201AC6FC60EE82EFED7AC2FFCD7D2
:102858000000010E01014027000E412342234323BB
:10286800435142110BE1890E405D130E4159D8A026
:1028780040EF14F042EF14F087EF14F08290000E4E
:10288800406F000E416F000E426F000E436F210E25
:102898000001AC6FFA0EAD6FF5EC37F0010E0101D7
:1028A800616F000E606F280E605D010E6159D8A03F
:1028B80060EF14F062EF14F064EF14F072EF14F0AC
:1028C80060C16EF061C16FF0FF0E0001706F70ECB7
:1028D80035F00101604B612B57EF14F0520E0201E5
:1028E800AD6F2B0EAC6F000EE82EFED7AC2FFCD7C9
:1028F800AD2FFAD70000828081A485EF14F087EF0E
:1029080014F080EF14F001017D51D8B48EEF14F06B
:1029180091EF14F0010E92EF14F0000E0201AC6F6B
:10292800AD6B81B49AEF14F09DEF14F0010E9EEF99
:1029380014F0000EAC17000EAD17010143514211FF
:10294800411107E1C90E405DD8B0ADEF14F0B0EF0A
:1029580014F0010EB1EF14F0000E0201AC17000ED6
:10296800AD170101435142110CE1E80E405D030E21
:102978004159D8A0C2EF14F0C5EF14F0010EC6EF0C
:1029880014F0000E0201AC17000EAD17AC51AD11DA
:10299800D8B4D1EF14F0D3EF14F0E4EF14F0500EE4
:1029A8000101386FC30E396F000E3A6F000E3B6F8E
:1029B800000E3C6F000E3D6F000E3E6F000E3F6F25
:1029C8000101385139113A113B113C113D113E11A9
:1029D8003F11D8B4F2EF14F0F4EF14F05AEF15F0F9
:1029E8003807000E395B3A5B3B5B3C5B3D5B3E5B0B
:1029F8003F5B38C16EF039C16FF03AC170F03BC12E
:102A080071F03CC172F03DC173F03EC174F03FC13A
:102A180075F0E80E0001766F030E776F000E786F81
:102A2800000E796F000E7A6F000E7B6F000E7C6FC0
:102A3800000E7D6FF6EC2DF06EC0ACF26FC0ADF2FB
:102A480070C0AEF271C0AFF272C0B0F273C0B1F232
:102A580074C0B2F275C0B3F20201AC51AD11AE113F
:102A6800AF11B011B111B211B311D8A43EEF15F0E6
:102A780040EF15F049EF15F082A045EF15F048EF4B
:102A880015F0828049EF15F0829001013851391113
:102A98003A113B113C113D113E113F11D8A457EF9B
:102AA80015F059EF15F05AEF15F08280000E81B439
:102AB800010E7D6F81A463EF15F065EF15F06DEFE2
:102AC80015F0000E406F000E416F000E426F000EB1
:102AD800436F8151D8A473EF15F075EF15F077EFB8
:102AE80015F024EC2CF001017A51D8B47EEF15F0E2
:102AF80080EF15F082EF15F04AEC16F001018151D4
:102B0800D8B489EF15F08BEF15F01DEF14F0816B39
:102B1800F29E020E0001EB19D8A495EF15F097EF7D
:102B280015F099EF15F04AEC16F00001EA05D8A463
:102B3800A0EF15F0A2EF15F0D1EF15F0EB51D8B4D6
:102B4800A8EF15F0AAEF15F0C3EF15F0DAC0B7F04B
:102B5800DBC0B8F0DCC0B9F0DDC0BAF0DEC0BBF055
:102B6800DFC0BCF0E0C0BDF0E1C0BEF0ACEC2BF0C3
:102B7800230E0001AC6FFF0EAD6FF5EC37F071EC72
:102B88000DF00009D8B4CBEF15F0CDEF15F0D1EF6B
:102B980015F02FEC20F0C4EC10F0020E0001EA1939
:102BA800D8A4D9EF15F0DBEF15F005EF16F0DAC071
:102BB80046F0DBC047F0DCC048F0DDC049F0DEC0BD
:102BC8004AF0DFC04BF0E0C04CF0E1C04DF0E50E3C
:102BD800AC6FFC0EAD6FF5EC37F0DAC0B7F0DBC0C8
:102BE800B8F0DCC0B9F0DDC0BAF0DEC0BBF0DFC0C1
:102BF800BCF0E0C0BDF0E1C0BEF052EC37F0C4EC70
:102C080010F0040E0001EA19D8A40DEF16F00FEF2A
:102C180016F034EF16F0C0EC18F0E806D8A417EF59
:102C280016F019EF16F034EF16F0F70E0001AC6F3E
:102C3800FC0EAD6FF5EC37F046C0B7F047C0B8F002
:102C480048C0B9F049C0BAF04AC0BBF04BC0BCF0AC
:102C58004CC0BDF04DC0BEF052EC37F0C4EC10F0E3
:102C6800000E4F6E000E4E6E520E0201AD6F2B0E0F
:102C7800AC6F000EE82EFED7AC2FFCD7AD2FFAD7DD
:102C88000000F28E1DEF14F06DEF06F0F29E0101C8
:102C98007A6B2A0E0001AC6FFE0EAD6F54C1AEF018
:102CA80055C1AFF0F5EC37F00001EA05D8A45FEFA5
:102CB80016F061EF16F07AEF16F06C0E0101541958
:102CC8005511D8B46AEF16F06CEF16F073EF16F0E2
:102CD800770E0001AC6FFC0EAD6FF5EC37F04D0EC2
:102CE8000001AC6FFC0EAD6FF5EC37F0020E000181
:102CF800EA19D8A482EF16F084EF16F08AEF16F0DE
:102D08006E0EAC6FFD0EAD6FF5EC37F0040E0001E2
:102D1800EA19D8A492EF16F094EF16F09AEF16F08D
:102D28003D0EAC6FFD0EAD6FF5EC37F02C0E0001CB
:102D3800AC6FFB0EAD6FF5EC37F0010E0001BD6F07
:102D4800010EBC6FBC51B76FB86BB73BB83BF00E08
:102D5800B817B7510F0BB813F00EB717BDC0B9F0BD
:102D6800FF0EB9270F0EB917B951B727000EB823B0
:102D7800F10EB725BA6FFF0EB821BB6FBAC0E2F0EB
:102D8800BBC0E3F0000EE3BFFF0EE46FE56F010187
:102D980054510001B76F010155510001B86FB96B6B
:102DA800BA6BE251B75DE351B859E451B959E551ED
:102DB800BA59D8A0E2EF16F0E4EF16F09CEF18F03D
:102DC800D30EAC6FFF0EAD6FE2C0AEF0E3C0AFF054
:102DD800E4C0B0F0E5C0B1F0F5EC37F0D8900001F0
:102DE800E235D96EE335DA6E820ED926050EDA227F
:102DF800DECFB7F0DDCFB8F0B7C0E6F0B8C0E7F087
:102E0800E86BE96BBE0EAC6FFF0EAD6FE6C0AEF0BF
:102E1800E7C0AFF0E8C0B0F0E9C0B1F0F5EC37F0CA
:102E28000001EA05D8A41BEF17F01DEF17F0D3EF48
:102E380017F0E951E8110BE1A90EE65D8F0EE7598D
:102E4800D8A029EF17F02BEF17F041EF17F0E95151
:102E5800E81109E1780EE65D970EE759D8B037EF2B
:102E680017F039EF17F041EF17F0120EAC6FFE0EA6
:102E7800AD6FF5EC37F0B3EF17F0E951E8110BE15E
:102E8800A70EE65D020EE759D8A04DEF17F04FEFF9
:102E980017F065EF17F0E951E81109E1D60EE65D84
:102EA800040EE759D8B05BEF17F05DEF17F065EF48
:102EB80017F0BA0EAC6FFE0EAD6FF5EC37F0B3EF4E
:102EC80017F0E951E8110BE1930EE65D060EE7599C
:102ED800D8A071EF17F073EF17F089EF17F0E951E9
:102EE800E81109E1C20EE65D080EE759D8B07FEF98
:102EF80017F081EF17F089EF17F0C40EAC6FFE0ED4
:102F0800AD6FF5EC37F0B3EF17F0E951E8110BE1CD
:102F18008C0EE65D0A0EE759D8A095EF17F097EFEB
:102F280017F0ADEF17F0E951E81109E1BB0EE65DC6
:102F38000C0EE759D8B0A3EF17F0A5EF17F0ADEFD7
:102F480017F0EC0EAC6FFE0EAD6FF5EC37F0B3EF8B
:102F580017F0CE0EAC6FFE0EAD6FF5EC37F0000E2D
:102F68000001E225D96E020EE321DA6EDF50D8B4F3
:102F7800C0EF17F0C2EF17F0D3EF17F0750EAC6F74
:102F8800FF0EAD6F000EE225D96E020EE321DA6E58
:102F9800DF50B76FB751AE6FAF6BF5EC37F0020E7D
:102FA8000001EA19D8A4DBEF17F0DDEF17F093EF73
:102FB80018F0E951E8110BE1130EE65D700EE759C0
:102FC800D8A0E9EF17F0EBEF17F001EF18F0E9518F
:102FD800E81109E1E20EE65D770EE759D8B0F7EFA0
:102FE80017F0F9EF17F001EF18F0E20EAC6FFE0ED4
:102FF800AD6FF5EC37F073EF18F0E951E8110BE11C
:10300800D70EE65D010EE759D8A00DEF18F00FEFC7
:1030180018F025EF18F0E951E81109E12A0EE65DEC
:10302800030EE759D8B01BEF18F01DEF18F025EF85
:1030380018F0BA0EAC6FFE0EAD6FF5EC37F073EF0B
:1030480018F0E951E8110BE1570EE65D040EE75957
:10305800D8A031EF18F033EF18F049EF18F0E95124
:10306800E81109E1AA0EE65D050EE759D8B03FEF71
:1030780018F041EF18F049EF18F0C40EAC6FFE0ECF
:10308800AD6FF5EC37F073EF18F0E951E8110BE18B
:10309800BB0EE65D090EE759D8A055EF18F057EFBB
:1030A80018F06DEF18F0E951E81109E10E0EE65D30
:1030B8000B0EE759D8B063EF18F065EF18F06DEF15
:1030C80018F0990EAC6FFF0EAD6FF5EC37F073EF9B
:1030D80018F0CE0EAC6FFE0EAD6FF5EC37F0000EAB
:1030E8000001E225D96E020EE321DA6EDF50D8B472
:1030F80080EF18F082EF18F093EF18F0750EAC6FB0
:10310800FF0EAD6F000EE225D96E020EE321DA6ED6
:10311800DF50B76FB751AE6FAF6BF5EC37F0230EDA
:103128000001AC6FFF0EAD6FF5EC37F0A2EF18F0B1
:103138001C0EAC6FFF0EAD6FF5EC37F00001BC2B29
:10314800070EBC65AAEF18F0ACEF18F0A6EF16F062
:103158002C0EAC6FFB0EAD6FF5EC37F00001BD2BFC
:10316800100EBD65BAEF18F0BCEF18F0A4EF16F01A
:10317800CBEC38F0F28E12000001EB05D8A4C7EFB3
:1031880018F0C9EF18F0E2EF18F0DAC0B7F0DBC0BA
:10319800B8F0DCC0B9F0DDC0BAF0DEC0BBF0DFC00B
:1031A800BCF0E0C0BDF0E1C0BEF0ACEC2BF02C0EE2
:1031B8000001AC6FFB0EAD6FF5EC37F0E0C0EDF041
:1031C800DFC0ECF0DAC0CFF0DBC0D0F0DCC0D1F06B
:1031D800DDC0D2F0DEC0D3F0DFC0D4F0E0C0D5F05F
:1031E800E1C0D6F0210E03EF19F00001D890D633D4
:1031F800D533D433D333D233D133D033CF33E82E8E
:10320800F9EF18F0CF51526EDAC0CFF0DBC0D0F032
:10321800DCC0D1F0DDC0D2F0DEC0D3F0DFC0D4F026
:10322800E0C0D5F0E1C0D6F0190E24EF19F0D8901F
:10323800D633D533D433D333D233D133D033CF335A
:10324800E82E1BEF19F0CF51516EDAC0CFF0DBC07A
:10325800D0F0DCC0D1F0DDC0D2F0DEC0D3F0DFC0EA
:10326800D4F0E0C0D5F0E1C0D6F0110E45EF19F06A
:10327800D890D633D533D433D333D233D133D033B4
:10328800CF33E82E3CEF19F0CF51506EDAC0CFF0B3
:10329800DBC0D0F0DCC0D1F0DDC0D2F0DEC0D3F0AE
:1032A800DFC0D4F0E0C0D5F0E1C0D6F0D0C0CFF098
:1032B800D1C0D0F0D2C0D1F0D3C0D2F0D4C0D3F0B6
:1032C800D5C0D4F0D6C0D5F0D66BCF510101926FDE
:1032D800DAC091F191519219916F92515018926FF1
:1032E80050505118506E51505218516E52500001A2
:1032F800EC19526EEC51ED19EC6FEB05D8A487EF81
:1033080019F089EF19F0D5EF19F0E20EAC6FFD0E48
:10331800AD6FF5EC37F0350E0001AC6FFF0EAD6FF9
:10332800EDC0AEF0AF6BF5EC37F03D0E0001AC6FC1
:10333800FF0EAD6FECC0AEF0AF6BF5EC37F0450E9D
:103348000001AC6FFF0EAD6F52C0AEF0AF6BF5EC85
:1033580037F04D0E0001AC6FFF0EAD6F51C0AEF0EF
:10336800AF6BF5EC37F0550E0001AC6FFF0EAD6F8B
:1033780050C0AEF0AF6BF5EC37F05D0E0001AC6FEE
:10338800FF0EAD6F92C1AEF0AF6BF5EC37F0650E86
:103398000001AC6FFF0EAD6F91C1AEF0AF6BF5ECF5
:1033A80037F00001ED390F0BED19D76FEC390F0B22
:1033B800D719EC19D76F52380F0BD7195218D76F86
:1033C80051380F0BD7195118D76F50380F0BD71921
:1033D8005018D76F010192390F0B0001D71901015D
:1033E80092190001D76F010191390F0B0001D7190C
:1033F800010191190001D76FD7510F0BD76FEC3925
:103408000F0B0F0B0101846F52500001D06FCF6B6F
:103418005150CF2501015C6F000E0001D021010140
:103428005D6F50C0CFF00001D06BD16BD26BD36B06
:10343800D46BD56BD66BD4C0D6F0D3C0D5F0D2C080
:10344800D4F0D1C0D3F0D0C0D2F0CFC0D1F0D06B7F
:10345800CF6BCFC046F0D0C047F0D1C048F0D2C043
:1034680049F0D3C04AF0D4C04BF0D5C04CF0D6C018
:103478004DF092C1CFF0D06BD16BD26BD36BD46BC4
:10348800D56BD66BD5C0D6F0D4C0D5F0D3C0D4F0A8
:10349800D2C0D3F0D1C0D2F0D0C0D1F0CFC0D0F0DC
:1034A800CF6B4650CF11466E4750D011476E4850EB
:1034B800D111486E4950D211496E4A50D3114A6E03
:1034C8004B50D4114B6E4C50D5114C6E4D50D611FB
:1034D8004D6E010191514624466E000E4720476EFD
:1034E800000E4820486E000E4920496E000E4A2002
:1034F8004A6E000E4B204B6E000E4C204C6E000E98
:103508004D204D6E0001EB05D8A48DEF1AF08FEF1A
:103518001AF021EF1BF0360EAC6FFE0EAD6FD7C060
:10352800AEF0AF6BF5EC37F00001D751D8B49FEF90
:103538001AF0A1EF1AF0A7EF1AF07D0EAC6FFF0E8C
:10354800AD6FF5EC37F02C0E0001AC6FFB0EAD6FD4
:10355800F5EC37F0420E0001AC6FFE0EAD6FEDC01A
:10356800AEF0AF6BF5EC37F00001ED51F00BA00AAF
:10357800D8B4C1EF1AF0C3EF1AF0C9EF1AF0A60ECB
:10358800AC6FFE0EAD6FF5EC37F02C0E0001AC6F92
:10359800FB0EAD6FF5EC37F05E0E0001AC6FFD0E63
:1035A800AD6FEDC0CFF00F0ECF17CF51AE6FAF6B31
:1035B800F5EC37F0FA0E0001AC6FFD0EAD6F84C16B
:1035C800AEF0AF6BF5EC37F0130E0001AC6FFF0EE9
:1035D800AD6FECC0CFF00F0ECF17CF51AE6FAF6B02
:1035E800F5EC37F0060E0001AC6FFE0EAD6F5CC156
:1035F800AEF05DC1AFF0F5EC37F0000E0001AC6F36
:10360800FF0EAD6FF5EC37F046C0B7F047C0B8F025
:1036180048C0B9F049C0BAF04AC0BBF04BC0BCF0D2
:103628004CC0BDF04DC0BEF052EC37F02C0E00017E
:10363800AC6FFB0EAD6FF5EC37F00001D751D8B485
:1036480028EF1BF02BEF1BF0010E2CEF1BF0000EE8
:10365800120000019A51D96EDA6ADECFF6FFDDCF8B
:10366800F7FFF86A0800F550250AD8A43EEF1BF0CA
:1036780040EF1BF0E5EF1CF09A51D96EDA6ADE2AAA
:10368800000EDD22000E01014D6F000E4C6F4CC183
:1036980076F14E694F6900019E6B72EF1BF00101D4
:1036A800768300019A51D96EDA6ADE2A000EDD228D
:1036B80072EF1BF0010E9E6F72EF1BF09A51D96EDC
:1036C800DA6ADECFF6FFDDCFF7FFF86A0800F550BB
:1036D800300AD8B453EF1BF05EEF1BF09E51D8B4FC
:1036E80078EF1BF07AEF1BF062EF1BF09AC06EF0D8
:1036F8009BC06FF0ADEC30F06EC04CF16FC04DF177
:1037080001014DBF8CEF1BF08AEF1BF091EF1BF00E
:1037180076814C6D4D1FD8B04D2B00019A51D96E52
:10372800DA6ADECFA4F0DDCFA5F0A4C0F6FFA5C00D
:10373800F7FFF86A0800F5CFA3F0AEEF1BF0A44B33
:10374800A52BC9EF1BF0690EA36FC9EF1BF0A36B84
:10375800C9EF1BF0A351580AD8B4A7EF1BF03C0AD5
:10376800D8B4A7EF1BF00D0AD8B4A7EF1BF0050AD1
:10377800D8B4A3EF1BF0190AD8B4A7EF1BF00D0AB1
:10378800D8B4A7EF1BF0ABEF1BF0A4C0F6FFA5C0A1
:10379800F7FFF86A0800F550640AD8B4D6EF1BF0B2
:1037A800D8EF1BF00EEF1CF0A4C0F6FFA5C0F7FF82
:1037B800F86A0800F550690AD8A4E5EF1BF0E7EFAE
:1037C8001BF034EF1CF00EEF1CF09B51D96EDA6A37
:1037D800DF50DF2ADF2AD96EDA6ADECF9FF0DDCF2D
:1037E800A0F0000EA0BFFF0EA16FA26F19EF1CF092
:1037F8009B51D96EDA6A040EDF26DF5CD96EDA6A6D
:10380800DECF9FF0DECFA0F0DECFA1F0DECFA2F0BA
:1038180019EF1CF0A351690AD8B4E9EF1BF0050AA7
:10382800D8B4FCEF1BF019EF1CF0010EA4259C6F17
:10383800000EA5219D6F9A51D96EDA6A9CC0DEFFF1
:103848009DC0DDFF99C086F09FC087F0A0C088F0BA
:10385800A1C089F0A2C08AF02EEC23F0F7EF1CF08B
:10386800A4C0F6FFA5C0F7FFF86A0800F550780A6B
:10387800D8B441EF1CF043EF1CF089EF1CF0A4C052
:10388800F6FFA5C0F7FFF86A0800F550580AD8B443
:1038980050EF1CF052EF1CF089EF1CF0A4C0F6FFAB
:1038A800A5C0F7FFF86A0800F550750AD8A45FEFBD
:1038B8001CF061EF1CF0DCEF1CF089EF1CF09B5151
:1038C800D96EDA6ADF50DF2ADF2AD96EDA6ADECFEC
:1038D8009CF0DDCF9DF09CC09FF09DC0A0F0A16B37
:1038E800A26B94EF1CF09B51D96EDA6A040EDF26A6
:1038F800DF5CD96EDA6ADECF9FF0DECFA0F0DECFD4
:10390800A1F0DECFA2F094EF1CF0A351690AD8B45D
:1039180063EF1CF0050AD8B477EF1CF094EF1CF0A5
:10392800010EA4259C6F000EA5219D6F9A51D96E9A
:10393800DA6A9CC0DEFF9DC0DDFFC7EF1CF099C0AE
:1039480086F09FC087F0A0C088F0A1C089F0A2C00F
:103958008AF0FCEC28F0F7EF1CF099C086F09FC0C5
:1039680087F0A0C088F0A1C089F0A2C08AF0A4C0E6
:10397800F6FFA5C0F7FFF86A0800F5CF8BF00DEC4D
:1039880027F0F7EF1CF0A4C0F6FFA5C0F7FFF86A10
:103998000800F550580AD8B4B1EF1CF02D0AD8B475
:1039A800A3EF1CF00D0AD8B4B1EF1CF0DCEF1CF04B
:1039B80000019A51D96EDA6ADE2A000EDD22F7EF8D
:1039C8001CF09A51D96EDA6ADECFF6FFDDCFF7FF29
:1039D800F86A0800F550706F716B99C072F0F2ECDC
:1039E8002FF0DCEF1CF012002D50D96EDA6ADECF12
:1039F800F6FFDDCFF7FFF86A0800F550250AD8A4CE
:103A080008EF1DF00AEF1DF0ABEF1EF02D50D96E38
:103A1800DA6ADE2A000EDD22000E01014D6F000E6B
:103A28004C6F4CC176F14E694F69316A3AEF1DF01F
:103A3800010176832D50D96EDA6ADE2A000EDD2266
:103A48003AEF1DF0010E316E3AEF1DF02D50D96E90
:103A5800DA6ADECFF6FFDDCFF7FFF86A0800F55027
:103A6800300AD8B41CEF1DF026EF1DF03150D8B441
:103A780040EF1DF042EF1DF02AEF1DF02DC001F0C0
:103A88002EC002F006EC31F001C04CF102C04DF13D
:103A980001014DBF54EF1DF052EF1DF059EF1DF01D
:103AA80076814C6D4D1FD8B04D2B2D50D96EDA6AEA
:103AB800DECF37F0DDCF38F037C0F6FF38C0F7FF7C
:103AC800F86A0800F5CF36F075EF1DF0374A382A46
:103AD80090EF1DF0690E366E90EF1DF0366A90EF8C
:103AE8001DF03650580AD8B46EEF1DF03C0AD8B411
:103AF8006EEF1DF00D0AD8B46EEF1DF0050AD8B4AC
:103B08006AEF1DF0190AD8B46EEF1DF00D0AD8B48B
:103B18006EEF1DF072EF1DF037C0F6FF38C0F7FFEB
:103B2800F86A0800F550640AD8B49DEF1DF09FEFBD
:103B38001DF0D5EF1DF037C0F6FF38C0F7FFF86A63
:103B48000800F550690AD8A4ACEF1DF0AEEF1DF0DF
:103B5800FBEF1DF0D5EF1DF02E50D96EDA6ADF505D
:103B6800DF2ADF2AD96EDA6ADECF32F0DDCF33F012
:103B7800000E33BEFF0E346E356EE0EF1DF02E5092
:103B8800D96EDA6A040EDF26DF5CD96EDA6ADECF18
:103B980032F0DECF33F0DECF34F0DECF35F0E0EFB9
:103BA8001DF03650690AD8B4B0EF1DF0050AD8B434
:103BB800C3EF1DF0E0EF1DF0010E37242F6E000E4D
:103BC8003820306E2D50D96EDA6A2FC0DEFF30C033
:103BD800DDFF2CC019F032C01AF033C01BF034C01E
:103BE8001CF035C01DF003EC24F0BDEF1EF037C00B
:103BF800F6FF38C0F7FFF86A0800F550780AD8B41D
:103C080008EF1EF00AEF1EF050EF1EF037C0F6FF67
:103C180038C0F7FFF86A0800F550580AD8B417EF0B
:103C28001EF019EF1EF050EF1EF037C0F6FF38C037
:103C3800F7FFF86A0800F550750AD8A426EF1EF0B9
:103C480028EF1EF0A3EF1EF050EF1EF02E50D96E95
:103C5800DA6ADF50DF2ADF2AD96EDA6ADECF2FF080
:103C6800DDCF30F02FC032F030C033F0346A356A1F
:103C78005BEF1EF02E50D96EDA6A040EDF26DF5C89
:103C8800D96EDA6ADECF32F0DECF33F0DECF34F031
:103C9800DECF35F05BEF1EF03650690AD8B42AEF54
:103CA8001EF0050AD8B43EEF1EF05BEF1EF0010EC1
:103CB80037242F6E000E3820306E2D50D96EDA6AF8
:103CC8002FC0DEFF30C0DDFF8EEF1EF02CC019F0D4
:103CD80032C01AF033C01BF034C01CF035C01DF0E0
:103CE80017EC2AF0BDEF1EF02CC019F032C01AF004
:103CF80033C01BF034C01CF035C01DF037C0F6FFD0
:103D080038C0F7FFF86A0800F5CF1EF0B5EC27F0C9
:103D1800BDEF1EF037C0F6FF38C0F7FFF86A08009D
:103D2800F550580AD8B478EF1EF02D0AD8B46AEFC7
:103D38001EF00D0AD8B478EF1EF0A3EF1EF02D5038
:103D4800D96EDA6ADE2A000EDD22BDEF1EF02D5094
:103D5800D96EDA6ADECFF6FFDDCFF7FFF86A080022
:103D6800F550036E046A2CC005F050EC30F0A3EF58
:103D78001EF01200010E00018A6F8280000E896F0A
:103D8800000E886F0101876B866BF29E290E000179
:103D9800856F960E846F7F0EE82EFED7842FFCD792
:103DA800852FFAD7000E0101446F000E456F000EF3
:103DB800466F000E476F87C18BF000018A51D8B457
:103DC800E8EF1EF0EAEF1EF0F0EF1EF05FEC2EF0C9
:103DD80000018C6FF4EF1EF02CEC2FF000018C6FBB
:103DE8008A6B01018F51D8B4FCEF1EF0FEEF1EF074
:103DF80003EF1FF0010E86EC38F02EEF20F00001E3
:103E08008C05D8B40AEF1FF00CEF1FF023EF1FF05A
:103E1800040E8C19D8B413EF1FF015EF1FF023EF21
:103E28001FF0170E8C19D8B41CEF1FF01EEF1FF0EF
:103E380023EF1FF0020E86EC38F02EEF20F08C05F1
:103E4800D8A429EF1FF02BEF1FF00CEF20F02CEC7B
:103E58002FF00101876F8F51D8B435EF1FF037EF7E
:103E68001FF03CEF1FF0040E86EC38F02EEF20F028
:103E780000018B29D8A443EF1FF045EF1FF046EF50
:103E88001FF08B692CEC2FF00101866F8F51D8B48D
:103E980050EF1FF052EF1FF057EF1FF0050E86ECA2
:103EA80038F02EEF20F08651FF0A8719D8B45FEF5B
:103EB8001FF061EF1FF066EF1FF0150E38EC34F0BD
:103EC800E1EF1EF0010E0001E26F000EE36F000E3D
:103ED800E46F000EE56F92EF1FF02CEC2FF000015D
:103EE8008C6F01018F51D8B47CEF1FF07EEF1FF06B
:103EF80083EF1FF0060E86EC38F02EEF20F0000E50
:103F08000001E225D96E050EE321DA6E8CC0DFFFD1
:103F1800010EE227000EE323E423E523E551E41133
:103F2800E31109E1830EE25DD8A09DEF1FF09FEF3A
:103F38001FF071EF1FF0000E6F6F800E6E6F9BEC1D
:103F480032F06EC060F16FC061F10501815100016E
:103F5800856F846B050182510001842501015E6F24
:103F68000501000E0001852101015F6F5E51601996
:103F780009E15F516119D8B4C4EF1FF0C6EF1FF013
:103F8800CBEF1FF0070E86EC38F02EEF20F0000183
:103F980082058311D8A4D3EF1FF0D5EF1FF0F0EFFF
:103FA8001FF044C184F045C185F046C186F047C181
:103FB80087F0070ED8908437853786378737E82EFD
:103FC800DEEF1FF084C076F085C077F086C078F009
:103FD80087C079F050EC22F0020E0001821983119B
:103FE800D8A4F9EF1FF0FBEF1FF00CEF20F044C14D
:103FF80084F045C185F0070ED89084378537E82EC0
:1040080000EF20F084C072F085C073F0AFEC34F09C
:10401800010E01014427000E452346234723060EBF
:1040280038EC34F082A01BEF20F01EEF20F08280E5
:104038001FEF20F0829001014751461109E1040E5B
:10404800455DD8A02AEF20F02CEF20F0DFEF1EF01E
:10405800F28E8290120052500201976F966B515067
:104068009625A66F000E9721A76F000E01015D6FC0
:10407800000E5C6FA6C2D5F0A7C2D6F059EC26F0A8
:10408800D5C05CF1D6C05DF101015C5100016E6FD5
:104098006F6B35EC38F00201A86FA851A619A86F0C
:1040A8000001EC510201A8190F0BA26F5050A8197A
:1040B800A36F010192510201A819A46F0101915146
:1040C8000201A819A56F20EE46F0070EDE6AE80681
:1040D800FDE2A5514624466E000E4720476E000EAD
:1040E8004820486E000E4920496E000E4A204A6E4C
:1040F800000E4B204B6E000E4C204C6E000E4D20D7
:104108004D6EA4C296F2976B986B996B98C299F210
:1041180097C298F296C297F2966B96519A6F9751FA
:104128009B6F98519C6F99519D6F9E6B9F6BA06B75
:10413800A16B46509A25466E47509B21476E4850C2
:104148009C21486E49509D21496E4A509E214A6ED5
:104158004B509F214B6E4C50A0214C6E4D50A121CD
:104168004D6EA3C296F2976B986B996B97C299F2B2
:1041780096C298F2976B966B96519A6F97519B6F70
:1041880098519C6F99519D6F9E6B9F6BA06BA16B13
:1041980046509A25466E47509B21476E48509C21B1
:1041A800486E49509D21496E4A509E214A6E4B5097
:1041B8009F214B6E4C50A0214C6E4D50A1214D6E4D
:1041C800A2C296F2976B986B996B96C299F2986B0C
:1041D800976B966B96519A6F97519B6F98519C6FFE
:1041E80099519D6F9E6B9F6BA06BA16B46509A2552
:1041F800466E47509B21476E48509C21486E495057
:104208009D21496E4A509E214A6E4B509F214B6E0C
:104218004C50A0214C6E4D50A1214D6E0001ED5126
:104228000F0B0101846F0001EC390F0B0101841998
:104238000F0A8C6F090E0001AC6FFD0EAD6FF5EC27
:1042480037F046C0B7F047C0B8F048C0B9F049C029
:10425800BAF04AC0BBF04BC0BCF04CC0BDF04DC07A
:10426800BEF052EC37F09B0E0001AC6FFE0EAD6F46
:1042780084C1AEF0AF6BF5EC37F00001EB51D8B468
:1042880048EF21F04AEF21F05EEF21F0F60EAC6F17
:10429800FE0EAD6F5CC1AEF05DC1AFF0F5EC37F06E
:1042A8001E0E0001AC6FFE0EAD6F8CC1AEF0AF6B91
:1042B800F5EC37F01200000E0001806F000E7F6FE2
:1042C800EA05D8A46AEF21F06CEF21F086EF21F01F
:1042D80084C174F0756B766B776B1C0ED89074374D
:1042E800753776377737E82E72EF21F070517411F1
:1042F800706F71517511716F72517611726F7351C0
:104308007711736F7FC074F080C075F0D8907437E0
:104318007537D89074377537000E74256E6F010E97
:1043280075216F6F35EC38F00001766F76517B6F31
:104338007C6B7D6B7E6B7FC074F080C075F0D8900D
:1043480074377537D89074377537010E74256E6FCA
:10435800010E75216F6F35EC38F00001766F76C06D
:1043680077F0786B796B7A6B79C07AF078C079F0EE
:1043780077C078F0776B7B5177257B6F7C517821FC
:104388007C6F7D5179217D6F7E517A217E6F7FC050
:1043980074F080C075F0D89074377537D89074373A
:1043A8007537020E74256E6F010E75216F6F35EC2F
:1043B80038F00001766F76C077F0786B796B7A6B9E
:1043C80078C07AF077C079F0786B776B7B51772576
:1043D8007B6F7C5178217C6F7D5179217D6F7E5177
:1043E8007A217E6F7FC074F080C075F0D8907437E2
:1043F8007537D89074377537030E74256E6F010EB4
:1044080075216F6F35EC38F00001766F76C077F064
:10441800786B796B7A6B77C07AF0796B786B776B9E
:104428007B5177257B6F7C5178217C6F7D51792179
:104438007D6F7E517A217E6F7F4B802B7B51701967
:104448000FE17C5171190CE17D51721909E17E511E
:104458007319D8B432EF22F034EF22F03FEF22F094
:10446800805109E1150E7F5DD8A03DEF22F03FEFA6
:1044780022F086EF21F0805109E1150E7F5DD8A06A
:1044880048EF22F04AEF22F04EEF22F0000E806F44
:10449800000E7F6F7F5112000001795108E1780505
:1044A800D8A059EF22F05BEF22F065EF22F0010E61
:1044B8007C6F000E7D6F000E7E6F000E7F6F6DEFBC
:1044C80022F0000E7C6F000E7D6F000E7E6F000ED6
:1044D8007F6F77C000F376C001F3000E816F010E85
:1044E800806F000E8025D96E050E8121DA6E010ECF
:1044F8008025E16E030E8121E26EDFCFE7FF804B5E
:10450800812B81BF91EF22F0815109E1810E805DFD
:10451800D8A091EF22F093EF22F075EF22F0500E21
:104528007C116F6F7D51706F000E716F030E726F8B
:10453800000E746F820E736FC90EF66EF50EF76E6D
:10454800F86A0900F5CF7AF00900F5CF7BF002D8B8
:10455800B7EF22F00500FA6E7A51FD6E7B51FE6EC0
:10456800FF6AFA5012000009D8B4BDEF22F0BFEF7D
:1045780022F02DEF23F0640E0101886FE7EF22F09F
:10458800D70EF66EF50EF76EF86A0900F5CF7AF0D9
:104598000900F5CF7BF002D8DCEF22F00500FA6EB7
:1045A80000017A51FD6E7B51FE6EFF6AFA501200CF
:1045B800680E00017A6FE40EE82EFED77A2FFCD73A
:1045C800000001018807D30EF66EF50EF76EF86A43
:1045D8000900F5CF7AF00900F5CF7BF002D8FFEF9C
:1045E80022F00500FA6E00017A51FD6E7B51FE6ED5
:1045F800FF6AFA5012000009D8A405EF23F007EF6C
:1046080023F0C4EF22F0D10EF66EF50EF76EF86ABD
:104618000900F5CF7AF00900F5CF7BF002D81FEF3B
:1046280023F00500FA6E00017A51FD6E7B51FE6E93
:10463800FF6AFA50120001018D6F8D51D8A427EF3F
:1046480023F029EF23F02BEF23F02DEF23F0080EB2
:104658008E6F1200010E00018D6F8ABF36EF23F0B6
:1046680039EF23F0010E3AEF23F0000E906F4CC1A2
:104678008EF04DC18FF09051D8B445EF23F047EF3D
:1046880023F05EEF23F08E07D8A08F079051D8A4AF
:1046980050EF23F052EF23F058EF23F0000E8C6F09
:1046A8002B0E8B6F5CEF23F0000E8C6F2D0E8B6F33
:1046B8008BC090F0000E926F1F0E916F0101E46B9A
:1046C800AAEF23F000019107D8A09207C50E912503
:1046D800D96E010E9221DA6E87C06EF088C06FF035
:1046E80089C070F08AC071F00A0E726F000E736F85
:1046F800000E746F000E756F9BEC2CF06EC078F096
:104708006FC079F0D4EC36F000017851300FDF6ECD
:104718008D6B8E07D8A08F0787C06EF088C06FF0AA
:1047280089C070F08AC071F00A0E726F000E736F44
:10473800000E746F000E756FA1EC2AF06EC087F042
:104748006FC088F070C089F071C08AF0000192BF14
:10475800B6EF23F0925108E19105D8A0B6EF23F007
:10476800B8EF23F0E0EF23F08751881189118A11FF
:10477800D8A4C1EF23F0C3EF23F066EF23F08D51E7
:10478800D8A4C9EF23F0CBEF23F066EF23F08FBF57
:10479800D6EF23F08F5108E18E05D8A0D6EF23F08D
:1047A800D8EF23F0E0EF23F0010176B3DEEF23F03A
:1047B800E0EF23F066EF23F000019051D8B4E7EF63
:1047C80023F0E9EF23F0F4EF23F09107D8A0920744
:1047D800C50E9125D96E010E9221DA6E90C0DFFFC9
:1047E80086C07EF0C50E91257F6F010E9221806FE5
:1047F8008EC081F08FC082F003EC32F01200010EFF
:10480800206E1DBE0AEF24F00DEF24F0010E0EEF0E
:1048180024F0000E236E4CC121F04DC122F023502C
:10482800D8B419EF24F01BEF24F032EF24F021065E
:10483800D8A022062350D8A424EF24F026EF24F091
:104848002CEF24F0000E1F6E2B0E1E6E30EF24F09E
:10485800000E1F6E2D0E1E6E1EC023F0000E256E5C
:104868001F0E246E0101E46B7CEF24F02406D8A00F
:104878002506C50E2424D96E010E2520DA6E1AC02D
:1048880001F01BC002F01CC003F01DC004F00A0EAA
:10489800056E000E066E000E076E000E086E11EC17
:1048A8002DF001C00BF002C00CF0EFEC36F00B500D
:1048B800300FDF6E206A2106D8A022061AC001F048
:1048C8001BC002F01CC003F01DC004F00A0E056EE8
:1048D800000E066E000E076E000E086E27EC2BF019
:1048E80001C01AF002C01BF003C01CF004C01DF088
:1048F80025BE87EF24F0255008E12404D8A087EFCF
:1049080024F089EF24F0B1EF24F01A501B101C108A
:104918001D10D8A492EF24F094EF24F03AEF24F07D
:104928002050D8A49AEF24F09CEF24F03AEF24F01A
:1049380022BEA7EF24F0225008E12104D8A0A7EF57
:1049480024F0A9EF24F0B1EF24F0010176B3AFEF22
:1049580024F0B1EF24F03AEF24F02350D8B4B7EFA5
:1049680024F0B9EF24F0C4EF24F02406D8A02506DB
:10497800C50E2424D96E010E2520DA6E23C0DFFF70
:1049880019C011F0C50E2424126E010E2520136ED5
:1049980021C014F022C015F050EC32F012000001D2
:1049A800BA5108E1B905D8A0DCEF24F0DEEF24F015
:1049B800E8EF24F0010EBE6F000EBF6F000EC06F4F
:1049C800000EC16FF0EF24F0000EBE6F000EBF6F37
:1049D800000EC06F000EC16FB8C000F3B7C001F37E
:1049E800500EBE116F6FBF51706F000E716F030EC6
:1049F800726F000E746F020E736F000E756F040EE7
:104A0800766F000E786F010E776FCD0EF66EF50E8D
:104A1800F76EF86A0900F5CFBBF00900F5CFBCF0D6
:104A280002D820EF25F00500FA6EBB51FD6EBC518F
:104A3800FE6EFF6AFA501200E80E0101886F48EF17
:104A480025F0D70EF66EF50EF76EF86A0900F5CF69
:104A5800BBF00900F5CFBCF002D83DEF25F005000A
:104A6800FA6E0001BB51FD6EBC51FE6EFF6AFA5032
:104A7800120001018807150E0001BB6FC60EE82E53
:104A8800FED7BB2FFCD70000D30EF66EF50EF76EDF
:104A9800F86A0900F5CFBBF00900F5CFBCF002D8E1
:104AA80060EF25F00500FA6E0001BB51FD6EBC51A8
:104AB800FE6EFF6AFA5012000009D8A466EF25F0CE
:104AC80068EF25F025EF25F0D10EF66EF50EF76E9E
:104AD800F86A0900F5CFBBF00900F5CFBCF002D8A1
:104AE80080EF25F00500FA6E0001BB51FD6EBC5148
:104AF800FE6EFF6AFA5012000001BD6FBD51C26F11
:104B0800C36BC251C311D8A48CEF25F08EEF25F0EA
:104B180090EF25F09AEF25F02F0EAC6FFB0EAD6FDE
:104B2800C2C0AEF0C3C0AFF0F5EC37F01200000120
:104B3800BA5108E1B905D8A0A4EF25F0A6EF25F0F1
:104B4800B0EF25F0010EBF6F000EC06F000EC16FF1
:104B5800000EC26FB8EF25F0000EBF6F000EC06FD9
:104B6800000EC16F000EC26FB8C000F3B7C001F3EA
:104B7800500EBF116F6FC051706F000E716F030E32
:104B8800726F000E746F020E736F000E756F040E55
:104B9800766FBBC077F0786BCD0EF66EF50EF76EBC
:104BA800F86A0900F5CFBCF00900F5CFBDF002D8CE
:104BB800E7EF25F00500FA6EBC51FD6EBD51FE6EA3
:104BC800FF6AFA501200E80E0101886F06EF26F01E
:104BD800D70EF66EF50EF76EF86A0900F5CFBCF041
:104BE8000900F5CFBDF002D804EF26F00500FA6EF3
:104BF8000001BC51FD6EBD51FE6EFF6AFA501200F5
:104C080001018807D30EF66EF50EF76EF86A0900F3
:104C1800F5CFBCF00900F5CFBDF002D81EEF26F0A5
:104C28000500FA6E0001BC51FD6EBD51FE6EFF6AB3
:104C3800FA5012000009D8A424EF26F026EF26F037
:104C4800ECEF25F0D10EF66EF50EF76EF86A090056
:104C5800F5CFBCF00900F5CFBDF002D83EEF26F045
:104C68000500FA6E0001BC51FD6EBD51FE6EFF6A73
:104C7800FA5012000001BE6FBE51C36FC46BC3511E
:104C8800C411D8A44AEF26F04CEF26F04EEF26F0D8
:104C980058EF26F02F0EAC6FFB0EAD6FC3C0AEF011
:104CA800C4C0AFF0F5EC37F01200010E0101F76F48
:104CB800F751020D000EF324D96E010EF420DA6EBE
:104CC800DECFF8F1DDCFF9F1F8C1D7F0F9C1D8F0AE
:104CD800D8900001D737D837D7C0B7F0D8C0B8F0C8
:104CE800B96BBA6B800EBB6F9BEC25F00101FB6BB7
:104CF800000EFB25D96EDA6A040EDA22DF500001B5
:104D0800D76FD7510101F56FF66B010EFB25D96EF0
:104D1800DA6A040EDA22DF500001D76FD751D96F53
:104D2800D86B0101F5510001D8250101F56FF65145
:104D38000001D9210101F66FF5510001D5190CE1E7
:104D48000101F6510001D619D8B4ADEF26F0B0EF45
:104D580026F0010EB1EF26F0000E0101FA6FFA51AC
:104D6800D8A4B9EF26F0BBEF26F0BEEF26F0FB5132
:104D7800020FFB6FFA51D8A4C4EF26F0C6EF26F055
:104D8800CEEF26F07F0EFB65CCEF26F0CEEF26F0B7
:104D98007CEF26F0F72BFA51D8A4D5EF26F0D7EF01
:104DA80026F0DFEF26F0090EF765DDEF26F0DFEFDE
:104DB80026F05CEF26F0FA51D8A4E5EF26F0E7EFED
:104DC80026F0F3EF26F0D5C0C5F0D6C0C6F08BECC0
:104DD80029F0C5C0F8F1C6C0F9F108EF27F0FBC10A
:104DE8006EF000016F6B000E716F020E706F90EC29
:104DF8002FF00101F85100016E250101F86FF951FA
:104E080000016F210101F96FF8C1D5F0F9C1D6F0A1
:104E18001200010E0001936F4CC194F04DC195F042
:104E2800780E8B19D8B41BEF27F01DEF27F023EF6E
:104E380027F0000E926F410E916F27EF27F0000EBA
:104E4800926F610E916F91C090F0000E986F1F0ED7
:104E5800976F0101E46B6EEF27F000019707D8A068
:104E6800980787510F0B966F0A0E96613EEF27F051
:104E780040EF27F044EF27F0300E962747EF27F052
:104E88009051F60F9627C50E9725D96E010E9821D9
:104E9800DA6E96C0DFFF936B9407D8A0950787C09A
:104EA8008CF088C08DF089C08EF08AC08FF0050E16
:104EB80063EF27F0D8908F338E338D338C33E82E01
:104EC8005EEF27F08CC087F08DC088F08EC089F027
:104ED8008FC08AF0000198BF7BEF27F0985109E155
:104EE800020E975DD8A07BEF27F07DEF27F0A5EFA6
:104EF80027F08751881189118A11D8A486EF27F0E5
:104F080088EF27F031EF27F09351D8A48EEF27F0E0
:104F180090EF27F031EF27F095BF9BEF27F09551E1
:104F280008E19405D8A09BEF27F09DEF27F0A5EFA7
:104F380027F0010176B3A3EF27F0A5EF27F031EFB3
:104F480027F086C07EF0C50E000197257F6F010E01
:104F58009821806F94C081F095C082F003EC32F004
:104F68001200010E266E4CC127F04DC128F0780EB4
:104F78001E18D8B4C2EF27F0C4EF27F0CAEF27F005
:104F8800000E246E410E236ECEEF27F0000E246E25
:104F9800610E236E23C025F0000E2B6E1F0E2A6EA5
:104FA8000101E46B14EF28F02A06D8A02B061A504A
:104FB8000F0B296E0A0E2960E4EF27F0E6EF27F0C1
:104FC800EAEF27F0300E2926EDEF27F02550F60FEF
:104FD8002926C50E2A24D96E010E2B20DA6E29C087
:104FE800DFFF266A2706D8A028061AC01FF01BC0B4
:104FF80020F01CC021F01DC022F0050E09EF28F09A
:10500800D8902232213220321F32E82E04EF28F0C5
:105018001FC01AF020C01BF021C01CF022C01DF0D8
:105028002BBE20EF28F02B5009E1020E2A5CD8A0F5
:1050380020EF28F022EF28F04AEF28F01A501B1032
:105048001C101D10D8A42BEF28F02DEF28F0D8EF56
:1050580027F02650D8A433EF28F035EF28F0D8EF02
:1050680027F028BE40EF28F0285008E12704D8A0F0
:1050780040EF28F042EF28F04AEF28F0010176B31C
:1050880048EF28F04AEF28F0D8EF27F019C011F0C0
:10509800C50E2A24126E010E2B20136E27C014F0A1
:1050A80028C015F050EC32F01200220E0001AC6F4F
:1050B800FC0EAD6FF5EC37F0F50E0001AC6FFB0E92
:1050C800AD6FF5EC37F0150E0001AC6FFB0EAD6F50
:1050D800F5EC37F0BF0E0001AC6FFA0EAD6FF5ECD2
:1050E80037F0F30E0001AC6FF60EAD6FF5EC37F04C
:1050F8004B0E0001AC6FF70EAD6FF5EC37F0890E73
:105108000001AC6FF80EAD6FF5EC37F0FF0E000143
:10511800AC6FF90EAD6FF5EC37F0650E0001AC6FB2
:10512800FA0EAD6FF5EC37F0E00E0001AC6FF70E3C
:10513800AD6FF5EC37F0A20E0001AC6FFA0EAD6F53
:10514800F5EC37F0430E0001AC6FFA0EAD6FF5ECDD
:1051580037F09F0E0001AC6FF70EAD6FF5EC37F02E
:105168008D0E0001AC6FF90EAD6FF5EC37F0000E47
:1051780000016F6F000E6E6F35EC38F00001B76FED
:10518800B751E26FE36BE46BE56BE229E311E411DD
:10519800E511D8A4D2EF28F0D4EF28F0DAEF28F000
:1051A800650EAC6FF90EAD6FF5EC37F0210E00010E
:1051B800E219E311E411E511D8B4E5EF28F0E7EFBF
:1051C80028F0EDEF28F0530EAC6FF80EAD6FF5EC4C
:1051D80037F02C0E0001AC6FFB0EAD6FF5EC37F01D
:1051E800840E0001AC6FFA0EAD6FF5EC37F01200CB
:1051F800010E00018B6F4CC18CF04DC18DF0000E7B
:105208008F6F1F0E8E6F0101E46B49EF29F00001CB
:105218008E07D8A08F07C50E8E25D96E010E8F2157
:10522800DA6E87C06EF088C06FF089C070F08AC0EF
:1052380071F00A0E726F000E736F000E746F000E1D
:10524800756F2EEC33F000016E51300FDF6E8B6BF3
:105258008C07D8A08D0787C06EF088C06FF089C012
:1052680070F08AC071F00A0E726F000E736F000E34
:10527800746F000E756F5EEC31F06EC087F06FC012
:1052880088F070C089F071C08AF000018E518F11CA
:10529800D8B451EF29F053EF29F07BEF29F087516B
:1052A800881189118A11D8A45CEF29F05EEF29F0E2
:1052B8000BEF29F08B51D8A464EF29F066EF29F0A1
:1052C8000BEF29F08DBF71EF29F08D5108E18C05A6
:1052D800D8A071EF29F073EF29F07BEF29F00101D5
:1052E80076B379EF29F07BEF29F00BEF29F086C030
:1052F8007EF0C50E00018E257F6F010E8F21806F15
:105308008CC081F08DC082F003EC32F01200000EE8
:105318000001D06F000ED16F000ED26F000ED36F58
:10532800D0C0B7F0D1C0B8F0D2C0B9F0D3C0BAF08D
:10533800800EBB6F9BEC25F0800E0001D025D06F4E
:10534800000ED121D16F000ED221D26F000ED321D1
:10535800D36FD46B000ED425D96EDA6A040EDA2224
:10536800DF50C76F010ED425D96EDA6A040EDA222F
:10537800DF50C96FC751C86FC551C8190AE1C65176
:10538800C919D8B4CAEF29F0CDEF29F0010ECEEF34
:1053980029F0000ECF6FD451020FD46FCF51D8A48B
:1053A800D8EF29F0DAEF29F0E2EF29F07F0ED46583
:1053B800E0EF29F0E2EF29F0AEEF29F0CF51D8A4C1
:1053C800E8EF29F0EAEF29F0F5EF29F0D35109E1E8
:1053D800020ED25DD8A0F3EF29F0F5EF29F094EF93
:1053E80029F0D451D025C76F000ED121C86F000E07
:1053F800D221C96F000ED321CA6F7E0EC725CB6F8D
:10540800FF0EC821CC6FFF0EC921CD6FFF0ECA2138
:10541800CE6FD890CE33CD33CC33CB33CBC0C5F0A1
:10542800CCC0C6F01200010E1E6E4CC11FF04DC15B
:1054380020F0000E226E1F0E216E0101E46B61EF59
:105448002AF02106D8A02206C50E2124D96E010E05
:105458002220DA6E1AC001F01BC002F01CC003F053
:105468001DC004F00A0E056E000E066E000E076ED3
:10547800000E086E73EC33F00150300FDF6E1E6AB9
:105488001F06D8A020061AC001F01BC002F01CC0DD
:1054980003F01DC004F00A0E056E000E066E000E25
:1054A800076E000E086EB1EC31F001C01AF002C0B0
:1054B8001BF003C01CF004C01DF021502210D8B40A
:1054C80068EF2AF06AEF2AF092EF2AF01A501B10C0
:1054D8001C101D10D8A473EF2AF075EF2AF025EFE1
:1054E8002AF01E50D8A47BEF2AF07DEF2AF025EF92
:1054F8002AF020BE88EF2AF0205008E11F04D8A027
:1055080088EF2AF08AEF2AF092EF2AF0010176B3A9
:1055180090EF2AF092EF2AF025EF2AF019C011F047
:10552800C50E2124126E010E2220136E1FC014F026
:1055380020C015F050EC32F012000001776B75BFF7
:10554800AAEF2AF0A8EF2AF0B4EF2AF0751F741F0B
:10555800731F726D000E732374237523010E776F0A
:1055680071BFBBEF2AF0B9EF2AF0C5EF2AF0711F1F
:10557800701F6F1F6E6D000E6F2370237123010E55
:10558800771B000E786F000E796F000E7A6F000E91
:105598007B6F7251731174117511D8B4D6EF2AF05C
:1055A800D8EF2AF00EEF2BF0010E766FE2EF2AF01B
:1055B800D8907237733774377537762B75AFE7EF36
:1055C8002AF0E9EF2AF0DCEF2AF0D890783779371B
:1055D8007A377B3772516E5D73516F5974517059B8
:1055E80075517159D8A0FBEF2AF0FDEF2AF006EFAC
:1055F8002BF072516E5F73516F5B7451705B755114
:10560800715B7881D8907533743373337233762F26
:10561800E9EF2AF07751D8B414EF2BF016EF2BF0FE
:105628001EEF2BF07B1F7A1F791F786D000E7923F0
:105638007A237B2378C06EF079C06FF07AC070F05F
:105648007BC071F012000A6A08BE2FEF2BF02DEF15
:105658002BF039EF2BF0081E071E061E056C000EF6
:10566800062207220822010E0A6E04BE40EF2BF024
:105678003EEF2BF04AEF2BF0041E031E021E016CB6
:10568800000E022203220422010E0A1A000E0B6EDB
:10569800000E0C6E000E0D6E000E0E6E05500610FC
:1056A80007100810D8B45BEF2BF05DEF2BF093EFE9
:1056B8002BF0010E096E67EF2BF0D89005360636F1
:1056C80007360836092A08AE6CEF2BF06EEF2BF080
:1056D80061EF2BF0D8900B360C360D360E36055090
:1056E800015C065002580750035808500458D8A0C7
:1056F80080EF2BF082EF2BF08BEF2BF00550015E43
:105708000650025A0750035A0850045A0B80D89082
:105718000832073206320532092E6EEF2BF00A5096
:10572800D8B499EF2BF09BEF2BF0A3EF2BF00E1EC4
:105738000D1E0C1E0B6C000E0C220D220E220BC02F
:1057480001F00CC002F00DC003F00EC004F012000E
:10575800B7C0BFF0B8C0C0F0B9C0C1F0BAC0C2F09D
:10576800BBC0C3F0BCC0C4F0BDC0C5F0BEC0C6F06D
:10577800210EC9EF2BF00001D890C633C533C433CE
:10578800C333C233C133C033BF33E82EBFEF2BF06E
:10579800BFC0C7F0C0C0C8F0C1C0C9F0C2C0CAF01D
:1057A800C3C0CBF0C4C0CCF0C5C0CDF0C6C0CEF0ED
:1057B8009F0EAC6FFF0EAD6FC7C0AEF0C8C0AFF0A4
:1057C800C9C0B0F0CAC0B1F0CBC0B2F0CCC0B3F021
:1057D800CDC0B4F0CEC0B5F0F5EC37F020EEB7F0A0
:1057E800FF0EDE140001C76FFF0EDE14C86FFF0E38
:1057F800DE14C96FFF0EDE14CA6F000EDE14CB6F05
:10580800000EDE14CC6F000EDE14CD6F000EDE1419
:10581800CE6F9F0EAC6FFF0EAD6FC7C0AEF0C8C0A5
:10582800AFF0C9C0B0F0CAC0B1F0CBC0B2F0CCC0C4
:10583800B3F0CDC0B4F0CEC0B5F0F5EC37F012003F
:10584800870EF66EF50EF76EF86A0900F5CFD6F0FA
:105858000900F5CFD7F002D83CEF2CF00500FA6E1E
:105868000001D651FD6ED751FE6EFF6AFA50120044
:105878000009D8B442EF2CF044EF2CF09AEF2CF04A
:10588800830EF66EF50EF76EF86A0900F5CFD6F0BE
:105898000900F5CFD7F002D85CEF2CF00500FA6EBE
:1058A8000001D651FD6ED751FE6EFF6AFA50120004
:1058B8000101826F0A0E8219D8B465EF2CF067EFE8
:1058C8002CF082EF2CF00D0E8219D8B46EEF2CF06C
:1058D80070EF2CF082EF2CF0E50E8325D96EDA6A92
:1058E800010EDA2282C1DFFF832B080E83657FEF6A
:1058F8002CF081EF2CF082EF2CF0836B0D0E8219C7
:10590800D8A489EF2CF08BEF2CF09AEF2CF0E50E51
:105918008325D96EDA6A010EDA22DF6A836BE50E17
:105928000001C56F010EC66F6FEC06F01200000192
:10593800776B71BFA4EF2CF0A2EF2CF0AEEF2CF038
:10594800711F701F6F1F6E6D000E6F237023712300
:10595800010E776F75BFB5EF2CF0B3EF2CF0BDEFEC
:105968002CF0751F741F731F726D000E7323742340
:1059780075237251731174117511D8B4C6EF2CF0D8
:10598800C8EF2CF0F8EF2CF0010E766FD2EF2CF068
:10599800D8907237733774377537762B75AFD7EF62
:1059A8002CF0D9EF2CF0CCEF2CF072516E5D7351C6
:1059B8006F597451705975517159D8A0E6EF2CF090
:1059C800E8EF2CF0F0EF2CF072516E5F73516F5BC3
:1059D8007451705B7551715BD89075337433733340
:1059E8007233762FD9EF2CF07751D8B4FEEF2CF024
:1059F80000EF2DF008EF2DF0711F701F6F1F6E6DF7
:105A0800000E6F23702371236EC06EF06FC06FF0AD
:105A180070C070F071C071F012000A6A04BE19EF0C
:105A28002DF017EF2DF023EF2DF0041E031E021E9C
:105A3800016C000E022203220422010E0A6E08BE27
:105A48002AEF2DF028EF2DF032EF2DF0081E071E5B
:105A5800061E056C000E06220722082205500610B5
:105A680007100810D8B43BEF2DF03DEF2DF06DEF87
:105A78002DF0010E096E47EF2DF0D8900536063649
:105A880007360836092A08AE4CEF2DF04EEF2DF0F8
:105A980041EF2DF00550015C06500258075003589D
:105AA80008500458D8A05BEF2DF05DEF2DF065EF9E
:105AB8002DF00550015E0650025A0750035A08504F
:105AC800045AD8900832073206320532092E4EEFB2
:105AD8002DF00A50D8B473EF2DF075EF2DF07DEF4F
