:040000009DEF0DF073
:100008004F82E1CF68F0E2CF69F0D9CF6AF0DACF5A
:100018006BF0F3CF6CF0F4CF6DF0F6CF6EF0F7CF56
:100028006FF0F8CF70F0F5CF71F0F2A41EEF00F08A
:1000380020EF00F02EEF00F0000E01015425546F60
:10004800000E5521556F010E5621566F000E57218F
:10005800576FF294F2A633EF00F035EF00F087EF18
:100068000DF0F2A03AEF00F03CEF00F087EF0DF052
:1000780081A841EF00F044EF00F0010E45EF00F0D9
:10008800000E0101866FE8C050F1E9C051F1EAC0E5
:1000980052F1EBC053F1D65054250001E86FD75008
:1000A800010155210001E96F000E010156210001EF
:1000B800EA6F000E010157210001EB6F000E0101EC
:1000C800546F000E556F000E566F000E576F000EDE
:1000D800D76E000ED66E464A472A030E0001ED1968
:1000E800D8A479EF00F07BEF00F0A7EF00F0EB5118
:1000F800EA110BE12D0EE85D010EE959D8A087EF52
:1001080000F089EF00F097EF00F0250E3F6EFF0E2C
:10011800406EE8C041F0E9C042F0EAC043F0EBC0ED
:1001280044F02CEC4BF0140E46184710D8A49FEF5F
:1001380000F0A1EF00F086EF0DF00001ED6B86EF07
:100148000DF086EF0DF001018251D8B4AEEF00F04A
:10015800B0EF00F0FAEF00F0475007E1C80E465C38
:10016800D8B0B9EF00F0BBEF00F0DDEF00F0820E81
:100178000001606F050E616FD8904634D96E473420
:10018800DA6ED890D936DA366051D9266151DA223A
:10019800E8C0DEFFE9C0DEFFEAC0DEFFEBC0DEFF3D
:1001A800000E4624D96E020E4720DA6EDF6A86EF0B
:1001B8000DF0000E5F6FC80E5E6F0001ED6B010160
:1001C800826B0001EC6B28EC4CF0010E0101876F8B
:1001D80086EF0DF020EEDCF0070EDE6AE806FDE2A1
:1001E800010E01018C6F896B86EF0DF08C51D8B42C
:1001F80000EF01F002EF01F07CEF01F0050E0001C5
:10020800EC19D8A40AEF01F00CEF01F07CEF01F033
:10021800EB51EA110BE1AF0EE85D0B0EE959D8A0DE
:1002280018EF01F01AEF01F07CEF01F0EB51EA1141
:1002380009E1DA0EE85D0C0EE959D8B026EF01F0B5
:1002480028EF01F07CEF01F0020EED19D8A42FEF92
:1002580001F031EF01F037EF01F0E20E3F6EFF0ED3
:10026800406E2CEC4BF02C0E46184710D8B43FEFDC
:1002780001F041EF01F047EF01F001018C6B000143
:10028800EC6B86EF0DF0000E476E000E466E050E05
:100298000001EC6F820E606F050E616FD8904634D6
:1002A800D96E4734DA6ED890D936DA366051D92605
:1002B8006151DA22E8C0DEFFE9C0DEFFEAC0DEFFF6
:1002C800EBC0DEFF000E4624D96E020E4720DA6E20
:1002D800DF6A000E0101616F000E606F010E896F09
:1002E80020EEDCF0070EDE6AE806FDE286EF0DF090
:1002F80001018C51D8A483EF01F085EF01F0C9EF1B
:1003080001F00001EB51EA110BE17E0EE85D020EEF
:10031800E959D8A092EF01F094EF01F0C9EF01F08C
:10032800EB51EA1109E1CD0EE85D020EE959D8B0AA
:10033800A0EF01F0A2EF01F0C9EF01F0000E476E47
:10034800000E466E820E606F050E616FD8904634BF
:10035800D96E4734DA6ED890D936DA366051D92654
:100368006151DA22E8C0DEFFE9C0DEFFEAC0DEFF45
:10037800EBC0DEFF000E4624D96E020E4720DA6E6F
:10038800DF6A060EEC6FEEEF00F0060E0001EC19C6
:10039800D8A4D1EF01F0D3EF01F034EF02F001015E
:1003A8008C51D8B4DAEF01F0DCEF01F034EF02F051
:1003B8000001EB51EA110BE15D0EE85D490EE959C8
:1003C800D8A0E9EF01F0EBEF01F032EF02F0EB51CA
:1003D800EA1109E1AC0EE85D490EE959D8B0F7EF2A
:1003E80001F0F9EF01F032EF02F046044710D8B4FB
:1003F80000EF02F002EF02F004EF02F041EF01F02B
:10040800060EEC6F820E606F050E616FD890463451
:10041800D96E4734DA6ED890D936DA366051D92693
:100428006151DA22E8C0DEFFE9C0DEFFEAC0DEFF84
:10043800EBC0DEFF000E4624D96E020E4720DA6EAE
:10044800DF6A000E476E000E466E000E0101616FF6
:10045800000E606F010E896F74EF01F001018C6B63
:1004680001018C51D8A43BEF02F03DEF02F0AEEF52
:1004780002F00001EB51EA110BE18B0EE85D7F0EF3
:10048800E959D8A04AEF02F04CEF02F0AEEF02F0C3
:10049800EB51EA1109E1460EE85D820EE959D8B040
:1004A80058EF02F05AEF02F0AEEF02F0000E476E7E
:1004B800000E466E820E606F050E616FD89046344E
:1004C800D96E4734DA6ED890D936DA366051D926E3
:1004D8006151DA22E8C0DEFFE9C0DEFFEAC0DEFFD4
:1004E800EBC0DEFF000E4624D96E020E4720DA6EFE
:1004F800DF6A030EEC6F020EED19D8A486EF02F046
:1005080088EF02F096EF02F0B30E3F6EFD0E406EDC
:10051800E8C041F0E9C042F0EAC043F0EBC044F063
:100528002CEC4BF001018451D8B49DEF02F09FEF01
:1005380002F0A4EF02F0010E826F846B86EF0DF0DB
:1005480020EEDCF0070EDE6AE806FDE2010E8C6F95
:1005580086EF0DF001018C51D8B4B5EF02F0B7EF7A
:1005680002F002EF03F00001EB51EA110BE1F70E84
:10057800E85D1D0EE959D8A0C4EF02F0C6EF02F0FD
:1005880002EF03F0EB51EA1109E1B20EE85D200E2B
:10059800E959D8B0D2EF02F0D4EF02F002EF03F03D
:1005A800000E476E000E466E820E606F050E616F7C
:1005B800D8904634D96E4734DA6ED890D936DA36C0
:1005C8006051D9266151DA22E8C0DEFFE9C0DEFFBA
:1005D800EAC0DEFFEBC0DEFF000E4624D96E020E35
:1005E8004720DA6EDF6A030EEC6F000E0101616FBF
:1005F800000E606F010E896F74EF01F001018C51DC
:10060800D8A409EF03F00BEF03F050EF03F000015B
:10061800EB51EA110BE1790EE85D920EE959D8A089
:1006280018EF03F01AEF03F050EF03F0EB51EA1163
:1006380009E1A80EE85D940EE959D8B026EF03F059
:1006480028EF03F050EF03F0000E476E010E466EE0
:10065800010E01018C6FE8C064F1E9C065F1020E7A
:100668000001ED19D8A43BEF03F03DEF03F04BEF89
:1006780003F0CC0E3F6EFD0E406EE8C041F0E9C0BD
:1006880042F0EAC043F0EBC044F02CEC4BF0010E12
:100698000001EC6F74EF01F001018C51D8A457EF01
:1006A80003F059EF03F0AAEF03F00001EB51EA1150
:1006B8000BE1510EE85D730EE959D8A066EF03F01F
:1006C80068EF03F0AAEF03F0EB51EA1109E1A40E79
:1006D800E85D740EE959D8B074EF03F076EF03F0D3
:1006E800AAEF03F0000E476E010E466E020EEC6F85
:1006F800820E606F050E616FD8904634D96E47340C
:10070800DA6ED890D936DA366051D9266151DA22B4
:10071800E8C0DEFFE9C0DEFFEAC0DEFFEBC0DEFFB7
:10072800020EED19D8A49BEF03F09DEF03F0A3EFA1
:1007380003F0A50E3F6EFF0E406E2CEC4BF0010E41
:1007480001018C6F010E896F74EF01F001015351A3
:1007580052110AE15005130E5159D8A0B6EF03F013
:10076800B8EF03F038EF04F05351521109E1B80E15
:10077800505D140E5159D8B0C4EF03F0C6EF03F022
:1007880038EF04F08651D8B4CCEF03F0CEEF03F085
:1007980038EF04F08C51D8A4D4EF03F0D6EF03F06F
:1007A80038EF04F00001EB51EA110BE1A50EE85D0A
:1007B800240EE959D8A0E3EF03F0E5EF03F038EF92
:1007C80004F0EB51EA1109E15C0EE85D260EE959E7
:1007D800D8B0F1EF03F0F3EF03F038EF04F0000EB8
:1007E800476E010E466E010E01018C6F040E00016A
:1007F800EC6F020EED19D8A404EF04F006EF04F034
:1008080014EF04F0400E3F6EFE0E406EE8C041F05B
:10081800E9C042F0EAC043F0EBC044F02CEC4BF0E6
:10082800820E0001606F050E616FD8904634D96E54
:100838004734DA6ED890D936DA366051D926615104
:10084800DA22E8C0DEFFE9C0DEFFEAC0DEFFEBC067
:10085800DEFF000E0101616F000E606F000E5D6F1C
:10086800000E5C6FA6EF03F0040E0001EC19D8B47B
:1008780040EF04F043EF04F0010E44EF04F0000EE3
:10088800606F616B0101895100016017000E6117EB
:1008980060516111D8B453EF04F055EF04F0ACEF98
:1008A80005F0475007E1960E465CD8B05EEF04F0BD
:1008B80060EF04F07FEF04F0820E606F050E616F49
:1008C800D8904634D96E4734DA6ED890D936DA36AD
:1008D8006051D9266151DA22E8C0DEFFE9C0DEFFA7
:1008E800EAC0DEFFEBC0DEFF000E4624D96E020E22
:1008F8004720DA6EDF6AEB51EA110BE15B0EE85D27
:10090800090EE959D8A08BEF04F08DEF04F0F2EF4F
:1009180004F0EB51EA1109E1120EE85D0B0EE959FA
:10092800D8B099EF04F09BEF04F0F2EF04F0000E5A
:1009380001015D6F000E5C6F8651D8B4A6EF04F01C
:10094800A8EF04F0BEEF04F0604B612BD8900001D3
:10095800DC35DC6FDD35DD6FDE35DE6FDF35DF6F13
:10096800E035E06FE135E16FE235E26FE335E36FE3
:10097800E3EF04F0604B612BD8900001DC35DC6FAD
:10098800DD35DD6FDE35DE6FDF35DF6FE035E06FDB
:10099800E135E16FE235E26FE335E36F010EDC111B
:1009A800DC6FDD51DD6FDE51DE6FDF51DF6FE0514F
:1009B800E06FE151E16FE251E26FE351E36F380E0E
:1009C800010160196111D8A4ECEF04F0EEEF04F016
:1009D80086EF0DF08AEC4BF086EF0DF0EB51EA1143
:1009E8000BE14A0EE85D040EE959D8A0FEEF04F0C9
:1009F80000EF05F06FEF05F0EB51EA1108E1E805AB
:100A0800060EE959D8B00BEF05F00DEF05F06FEFC2
:100A180005F001015C4B5D2B5C055D11D8A417EF57
:100A280005F019EF05F01BEF05F086EF0DF0000E4D
:100A38005D6F000E5C6F8651D8A425EF05F027EF97
:100A480005F04EEF05F0604B612BD8900001DC35C6
:100A5800DC6FDD35DD6FDE35DE6FDF35DF6FE0350E
:100A6800E06FE135E16FE235E26FE335E36F010EE8
:100A7800DC11DC6FDD51DD6FDE51DE6FDF51DF6FC2
:100A8800E051E06FE151E16FE251E26FE351E36F52
:100A980062EF05F0604B612BD8900001DC35DC6F0C
:100AA800DD35DD6FDE35DE6FDF35DF6FE035E06FBA
:100AB800E135E16FE235E26FE335E36F380E0101AE
:100AC80060196111D8A46BEF05F06DEF05F086EFA2
:100AD8000DF0EEEF04F0750E3F6EFF0E406EE8C0AD
:100AE80041F0E9C042F0EAC043F0EBC044F02CEC1E
:100AF8004BF0475007E1C80E465CD8B086EF05F0CA
:100B080088EF05F0A8EF05F0820E0001606F050E72
:100B1800616FD8904634D96E4734DA6ED890D9369A
:100B2800DA366051D9266151DA22E8C0DEFFE9C021
:100B3800DEFFEAC0DEFFEBC0DEFF000E4624D96E02
:100B4800020E4720DA6EDF6A28EC4CF086EF0DF0D3
:100B580001018951D8B4B3EF05F0B5EF05F006EF00
:100B680007F0030E0001EC19D8A4BDEF05F0BFEFA4
:100B780005F006EF07F0475007E1C80E465CD8B00D
:100B8800C8EF05F0CAEF05F0E9EF05F0820E606FD7
:100B9800050E616FD8904634D96E4734DA6ED89016
:100BA800D936DA366051D9266151DA22E8C0DEFF3B
:100BB800E9C0DEFFEAC0DEFFEBC0DEFF000E462420
:100BC800D96E020E4720DA6EDF6AEB51EA110BE1AB
:100BD800CA0EE85D040EE959D8A0F5EF05F0F7EF65
:100BE80005F091EF06F0010E4624606F000E4720D5
:100BF800616F60B102EF06F004EF06F009EF06F04E
:100C0800010E01018B6F86EF0DF001018B51D8A405
:100C180010EF06F012EF06F068EF06F0604B612B5C
:100C2800DCC060F0DDC061F0DEC062F0DFC063F000
:100C3800E0C064F0E1C065F0E2C066F0E3C067F0D0
:100C48000001D890673366336533643363336233A6
:100C58006133603360C0DCF061C0DDF062C0DEF09B
:100C680063C0DFF064C0E0F065C0E1F066C0E2F0A8
:100C780067C0E3F020EEDCF0000EDE10DC6F000E43
:100C8800DE10DD6F000EDE10DE6F000EDE10DF6F8F
:100C9800000EDE10E06F000EDE10E16F000EDE10B9
:100CA800E26F800EDE10E36F0101615109E1400E31
:100CB800605DD8A062EF06F064EF06F086EF0DF0F5
:100CC800A8EC4BF086EF0DF0000E4624D96E020E0C
:100CD8004720DA6E020EDF6E0001ED05D8A477EF2B
:100CE80006F079EF06F087EF06F01F0E3F6EFE0E56
:100CF800406EE8C041F0E9C042F0EAC043F0EBC002
:100D080044F02CEC4BF046C05EF147C05FF1000E9A
:100D1800476E000E466EA8EF05F0010E4624606F80
:100D2800000E4720616F60B19CEF06F09EEF06F061
:100D3800A2EF06F001018B6B86EF0DF001018B0528
:100D4800D8A4A9EF06F0ABEF06F0E5EF06F0604B8C
:100D5800612BDCC060F0DDC061F0DEC062F0DFC096
:100D680063F0E0C064F0E1C065F0E2C066F0E3C0A3
:100D780067F00001D89067336633653364336333B3
:100D880062336133603360C0DCF061C0DDF062C0A3
:100D9800DEF063C0DFF064C0E0F065C0E1F066C07B
:100DA800E2F067C0E3F00101615109E1400E605DC6
:100DB800D8A0E1EF06F0E3EF06F086EF0DF064EF60
:100DC80006F0000E4624D96E020E4720DA6E020E97
:100DD800DF6E0001ED05D8A4F4EF06F0F6EF06F09B
:100DE80087EF06F02A0E3F6EFE0E406EE8C041F017
:100DF800E9C042F0EAC043F0EBC044F02CEC4BF001
:100E080087EF06F001018951D8B40DEF07F00FEF15
:100E180007F053EF08F0060E0001EC19D8A417EFFD
:100E280007F019EF07F053EF08F0475007E1C80E35
:100E3800465CD8B022EF07F024EF07F043EF07F045
:100E4800820E606F050E616FD8904634D96E4734B4
:100E5800DA6ED890D936DA366051D9266151DA225D
:100E6800E8C0DEFFE9C0DEFFEAC0DEFFEBC0DEFF60
:100E7800000E4624D96E020E4720DA6EDF6AEB5167
:100E8800EA110BE1090EE85D050EE959D8A04FEF0C
:100E980007F051EF07F0C6EF07F0010E4624606F28
:100EA800000E4720616F60B15CEF07F05EEF07F05E
:100EB80060EF07F004EF06F001018B51D8A467EF4B
:100EC80007F069EF07F0A5EF07F0604B612BDCC076
:100ED80060F0DDC061F0DEC062F0DFC063F0E0C04A
:100EE80064F0E1C065F0E2C066F0E3C067F00001BD
:100EF800D890673366336533643363336233613361
:100F0800603360C0DCF061C0DDF062C0DEF063C059
:100F1800DFF064C0E0F065C0E1F066C0E2F067C0F1
:100F2800E3F00101615109E1180E605DD8A09FEF5F
:100F380007F0A1EF07F086EF0DF0BCEC4BF086EF61
:100F48000DF0000E4624D96E020E4720DA6E020E0E
:100F5800DF6E0001ED05D8A4B4EF07F0B6EF07F097
:100F680087EF06F0C50E3F6EFE0E406EE8C041F0FA
:100F7800E9C042F0EAC043F0EBC044F02CEC4BF07F
:100F880087EF06F0010E4624606F000E4720616F60
:100F980060B1D1EF07F0D3EF07F0D5EF07F09EEF80
:100FA80006F001018B05D8A4DCEF07F0DEEF07F0AF
:100FB80032EF08F0604B612BDCC060F0DDC061F0FF
:100FC800DEC062F0DFC063F0E0C064F0E1C065F04D
:100FD800E2C066F0E3C067F00001D890673366337B
:100FE80065336433633362336133603360C0DCF08C
:100FF80061C0DDF062C0DEF063C0DFF064C0E0F025
:1010080065C0E1F066C0E2F067C0E3F020EEDCF016
:10101800000EDE10DC6F000EDE10DD6F000EDE103D
:10102800DE6F000EDE10DF6F000EDE10E06F000EC8
:10103800DE10E16F000EDE10E26F800EDE10E36F4F
:101048000101615109E1180E605DD8A02EEF08F08A
:1010580030EF08F086EF0DF0A1EF07F0000E462400
:10106800D96E020E4720DA6E020EDF6E0001ED0522
:10107800D8A441EF08F043EF08F087EF06F0CE0E52
:101088003F6EFE0E406EE8C041F0E9C042F0EAC093
:1010980043F0EBC044F02CEC4BF087EF06F0010175
:1010A8008951D8B45AEF08F05CEF08F0BEEF09F0A8
:1010B800050E0001EC19D8A464EF08F066EF08F0FB
:1010C800BEEF09F0EB51EA110BE18D0EE85D050E5C
:1010D800E959D8A072EF08F074EF08F0FDEF08F0B6
:1010E800EB51EA1109E1B80EE85D060EE959D8B0EE
:1010F80080EF08F082EF08F0FDEF08F0DCC060F048
:10110800DDC061F0DEC062F0DFC063F0E0C064F013
:10111800E1C065F0E2C066F0E3C067F0D8906733DD
:10112800663365336433633362336133603360C07D
:10113800DCF061C0DDF062C0DEF063C0DFF064C0E7
:10114800E0F065C0E1F066C0E2F067C0E3F020EED1
:10115800DCF0000EDE10DC6F000EDE10DD6F000E1E
:10116800DE10DE6F000EDE10DF6F000EDE10E06FA7
:10117800000EDE10E16F000EDE10E26F800EDE1052
:10118800E36F475007E1960E465CD8B0CEEF08F003
:10119800D0EF08F0EFEF08F0820E606F050E616F78
:1011A800D8904634D96E4734DA6ED890D936DA36C4
:1011B8006051D9266151DA22E8C0DEFFE9C0DEFFBE
:1011C800EAC0DEFFEBC0DEFF000E4624D96E020E39
:1011D8004720DA6EDF6A400E46184710D8A4F7EFAA
:1011E80008F0F9EF08F086EF0DF09EEC4BF086EF73
:1011F8000DF0EB51EA110BE1810EE85D020EE959A1
:10120800D8A009EF09F00BEF09F078EF09F0EB51DE
:10121800EA1109E1AC0EE85D030EE959D8B017EF01
:1012280009F019EF09F078EF09F0DCC060F0DDC0D3
:1012380061F0DEC062F0DFC063F0E0C064F0E1C0DE
:1012480065F0E2C066F0E3C067F0D89067336633B4
:1012580065336433633362336133603360C0DCF019
:1012680061C0DDF062C0DEF063C0DFF064C0E0F0B2
:1012780065C0E1F066C0E2F067C0E3F0475007E1FF
:10128800960E465CD8B04BEF09F04DEF09F06CEFC5
:1012980009F0820E606F050E616FD8904634D96EE2
:1012A8004734DA6ED890D936DA366051D92661518A
:1012B800DA22E8C0DEFFE9C0DEFFEAC0DEFFEBC0ED
:1012C800DEFF000E4624D96E020E4720DA6EDF6A72
:1012D800400E46184710D8A474EF09F076EF09F0CD
:1012E80086EF0DF0F9EF08F0960E3F6EFF0E406E98
:1012F800E8C041F0E9C042F0EAC043F0EBC044F076
:101308002CEC4BF0475007E1960E465CD8B08FEFB7
:1013180009F091EF09F0AAEF09F0820E0001606F61
:10132800050E616FD8904634D96E4734DA6ED8907E
:10133800D936DA366051D9266151DA22E8C0DEFFA3
:10134800E9C0DEFFEAC0DEFFEBC0DEFF000E462488
:10135800D96E020E4720DA6EDF6A475009E1400E67
:10136800465CD8A0BAEF09F0BCEF09F086EF0DF0A3
:10137800F9EF08F0020E0001EC19D8A4C6EF09F045
:10138800C8EF09F021EF0BF001018951D8B4CFEF74
:1013980009F0D1EF09F021EF0BF08951D8B4D7EF5C
:1013A80009F0D9EF09F021EF0BF00001EB51EA1138
:1013B8000BE1570EE85D040EE959D8A0E6EF09F0F5
:1013C800E8EF09F063EF0AF0EB51EA1109E1AA0E20
:1013D800E85D050EE959D8B0F4EF09F0F6EF09F029
:1013E80063EF0AF0D890DC35DC6FDD35DD6FDE3574
:1013F800DE6FDF35DF6FE035E06FE135E16FE23555
:10140800E26FE335E36F010EDC11DC6FDD51DD6F58
:10141800DE51DE6FDF51DF6FE051E06FE151E16FC8
:10142800E251E26FE351E36F475007E1960E465CE5
:10143800D8B021EF0AF023EF0AF042EF0AF0820E4B
:10144800606F050E616FD8904634D96E4734DA6EF6
:10145800D890D936DA366051D9266151DA22E8C0F7
:10146800DEFFE9C0DEFFEAC0DEFFEBC0DEFF000EF4
:101478004624D96E020E4720DA6EDF6A1A0E461825
:101488004710D8A44AEF0AF04CEF0AF086EF0DF0A7
:10149800B2EC4BF086EF0DF0010EDC11DC6FDD5184
:1014A800DD6FDE51DE6FDF51DF6FE051E06FE1513C
:1014B800E16FE251E26FE351E36F86EF0DF0EB511C
:1014C800EA110BE1D70EE85D010EE959D8A06FEFDC
:1014D8000AF071EF0AF0DAEF0AF0EB51EA1109E1CC
:1014E8002A0EE85D030EE959D8B07DEF0AF07FEFC8
:1014F8000AF0DAEF0AF0D890DC35DC6FDD35DD6F05
:10150800DE35DE6FDF35DF6FE035E06FE135E16F47
:10151800E235E26FE335E36F475007E1960E465C2C
:10152800D8B099EF0AF09BEF0AF0BAEF0AF0820EF2
:10153800606F050E616FD8904634D96E4734DA6E05
:10154800D890D936DA366051D9266151DA22E8C006
:10155800DEFFE9C0DEFFEAC0DEFFEBC0DEFF000E03
:101568004624D96E020E4720DA6EDF6A1A0E461834
:101578004710D8A4C2EF0AF0C4EF0AF086EF0DF0C6
:101588004CEF0AF0D8900001DC35DC6FDD35DD6FFB
:10159800DE35DE6FDF35DF6FE035E06FE135E16FB7
:1015A800E235E26FE335E36F86EF0DF028EC4CF09F
:1015B80046C05EF147C05FF1475007E1C80E465C80
:1015C800D8B0E9EF0AF0EBEF0AF00CEF0BF0820E5F
:1015D8000001606F050E616FD8904634D96E4734AC
:1015E800DA6ED890D936DA366051D9266151DA22C6
:1015F800E8C0DEFFE9C0DEFFEAC0DEFFEBC0DEFFC9
:10160800000E4624D96E020E4720DA6E030EDF6EF6
:101618000001ED05D8A413EF0BF015EF0BF086EFE2
:101628000DF00D0E3F6EFF0E406E46C041F047C0F4
:1016380042F02CEC4BF086EF0DF00001EC05D8A43D
:1016480028EF0BF02AEF0BF086EF0DF0EB51EA11C3
:101658000BE18C0EE85D0A0EE959D8A036EF0BF0C5
:1016680038EF0BF01FEF0CF0EB51EA1109E1BB0E5C
:10167800E85D0C0EE959D8B044EF0BF046EF0BF0DB
:101688001FEF0CF06C0E46184710D8A44EEF0BF065
:1016980050EF0BF076EF0BF001018C6B820E00011E
:1016A800606F050E616FD8904634D96E4734DA6E94
:1016B800D890D936DA366051D9266151DA22E8C095
:1016C800DEFFE9C0DEFFEAC0DEFFEBC0DEFF000E92
:1016D8004624D96E020E4720DA6EDF6A94EC4BF08E
:1016E80086EF0DF0020E46184710D8B47EEF0BF0C7
:1016F80080EF0BF08AEF0BF0030E46184710D8A4C2
:1017080088EF0BF08AEF0BF0A8EF05F0020E4618F1
:101718004710D8A492EF0BF094EF0BF09AEF0BF070
:10172800E8C062F1E9C063F186EF0DF0030E4618D8
:101738004710D8A4A2EF0BF0A4EF0BF0A8EF05F028
:10174800010164510001606F010165510001616F81
:10175800626B636B7A0E646F050E656FD8904634C2
:10176800D96E4734DA6ED890D936DA366451D9262C
:101778006551DA2260C0DEFF61C0DEFF62C0DEFFB5
:1017880063C0DEFFFE0E4624D96E010E4720DA6ED6
:10179800DF6A010162510001606F010163510001BC
:1017A800616F626B636B7E0E646F050E656FD89018
:1017B8004634D96E4734DA6ED890D936DA36645161
:1017C800D9266551DA2260C0DEFF61C0DEFF62C043
:1017D800DEFF63C0DEFFFF0E4624D96E010E4720F0
:1017E800DA6EDF6A820E606F050E616FD89046343C
:1017F800D96E4734DA6ED890D936DA366051D926A0
:101808006151DA22E8C0DEFFE9C0DEFFEAC0DEFF90
:10181800EBC0DEFF000E4624D96E020E4720DA6EBA
:10182800DF6A010E0101886F000E616F000E606FA4
:101838008C6B86EF0DF001018851D8B426EF0CF0BF
:1018480028EF0CF086EF0DF00001EB51EA110BE1E7
:10185800930EE85D060EE959D8A035EF0CF037EF86
:101868000CF0BEEF0CF0EB51EA1109E1C20EE85D95
:10187800080EE959D8B043EF0CF045EF0CF0BEEF75
:101888000CF0475007E1960E465CD8B04EEF0CF0CE
:1018980050EF0CF06FEF0CF0820E606F050E616F69
:1018A800D8904634D96E4734DA6ED890D936DA36BD
:1018B8006051D9266151DA22E8C0DEFFE9C0DEFFB7
:1018C800EAC0DEFFEBC0DEFF000E4624D96E020E32
:1018D8004720DA6EDF6A46B074EF0CF076EF0CF052
:1018E80078EF0CF004EF06F001018B51D8A47FEFDC
:1018F8000CF081EF0CF097EF0CF0604B612BD89057
:101908000001DC35DC6FDD35DD6FDE35DE6FDF35A0
:10191800DF6FE035E06FE135E16FE235E26FE33527
:10192800E36F50EF0AF0000E476E000E466E28EC8B
:101938004CF00001ED05D8A4A4EF0CF0A6EF0CF0D4
:10194800A5EF00F0000E4624D96E020E4720DA6E8D
:10195800020EDF6E800E3F6EFE0E406EE8C041F054
:10196800E9C042F0EAC043F0EBC044F02CEC4BF085
:1019780086EF0DF0EB51EA110BE1A70EE85D020EC0
:10198800E959D8A0CAEF0CF0CCEF0CF041EF0DF0FC
:10199800EB51EA1109E1D60EE85D040EE959D8B019
:1019A800D8EF0CF0DAEF0CF041EF0DF0475007E1FB
:1019B800960E465CD8B0E3EF0CF0E5EF0CF004EFC0
:1019C8000DF0820E606F050E616FD8904634D96EA7
:1019D8004734DA6ED890D936DA366051D926615153
:1019E800DA22E8C0DEFFE9C0DEFFEAC0DEFFEBC0B6
:1019F800DEFF000E4624D96E020E4720DA6EDF6A3B
:101A080046B009EF0DF00BEF0DF00DEF0DF09EEF66
:101A180006F001018B05D8A414EF0DF016EF0DF0B8
:101A28001AEF0DF0604B612BC6EF0AF0000E476EFF
:101A3800000E466E28EC4CF00001ED05D8A427EF07
:101A48000DF029EF0DF0A5EF00F0000E4624D96E39
:101A5800020E4720DA6E020EDF6E350E3F6EFE0E66
:101A6800406EE8C041F0E9C042F0EAC043F0EBC084
:101A780044F02CEC4BF086EF0DF028EC4CF046C00F
:101A88005EF147C05FF1475007E1C80E465CD8B029
:101A980050EF0DF052EF0DF073EF0DF0820E0001D4
:101AA800606F050E616FD8904634D96E4734DA6E90
:101AB800D890D936DA366051D9266151DA22E8C091
:101AC800DEFFE9C0DEFFEAC0DEFFEBC0DEFF000E8E
:101AD8004624D96E020E4720DA6E030EDF6E00012F
:101AE800ED05D8A47AEF0DF07CEF0DF0A5EF00F02E
:101AF8001D0E3F6EFF0E406E46C041F047C042F0DB
:101B08002CEC4BF0F29071C0F5FF70C0F8FF6FC07D
:101B1800F7FF6EC0F6FF6DC0F4FF6CC0F3FF6BC03B
:101B2800DAFF6AC0D9FF69C0E2FF68C0E1FF4F92DF
:101B38001100BAEF45F0D2C072F0D3C073F0DC0EDA
:101B48000001746FFF0E756F8EEC47F00001725143
:101B58007311D8A4B2EF0DF0B4EF0DF0B8EF0DF09B
:101B6800D6EC3DF009EF15F0D2C072F0D3C073F097
:101B7800D60E746FFF0E756F8EEC47F00001725130
:101B88007311D8A4CAEF0DF0CCEF0DF0DAEF0DF019
:101B9800ED6B0101836B846B826B6C0E0001B06F7F
:101BA800FE0EB16F11EC4BF009EF15F0D2C072F0D8
:101BB800D3C073F0D90E746FFF0E756F8EEC47F0BB
:101BC800000172517311D8A4ECEF0DF0EEEF0DF097
:101BD80058EF0EF0ED2B040EED65F5EF0DF0F7EF75
:101BE8000DF0F8EF0DF0ED6B8A0EB06FFE0EB16FD1
:101BF800EDC0B2F0B36B11EC4BF00001ED51D8A47D
:101C080008EF0EF00AEF0EF012EF0EF0600EB06F54
:101C1800FD0EB16F11EC4BF00101846B0001ED0575
:101C2800D8A419EF0EF01BEF0EF021EF0EF0140EF2
:101C3800B06FF80EB16F11EC4BF0020E0001ED1908
:101C4800D8A429EF0EF02BEF0EF031EF0EF0720E44
:101C5800B06FFC0EB16F11EC4BF0030E0001ED19E3
:101C6800D8A439EF0EF03BEF0EF041EF0EF0BA0EAC
:101C7800B06FF80EB16F11EC4BF0040E0001ED19C6
:101C8800D8A449EF0EF04BEF0EF009EF15F0D40E83
:101C9800B06FFB0EB16F11EC4BF0010E0101836FB9
:101CA8000001ED6B09EF15F0D2C072F0D3C073F0EC
:101CB800E60E746FFF0E756F8EEC47F000017251DF
:101CC8007311D8A46AEF0EF06CEF0EF0B9EF0EF0B6
:101CD8000101902B020E9019D8A475EF0EF077EF42
:101CE8000EF078EF0EF0906BF10E0001B06FFA0E67
:101CF800B16F01019051040DE90EF324D96E010E64
:101D0800F420DA6EDECFB2F0DECFB3F0DECFB4F07F
:101D1800DECFB5F011EC4BF001019051D8A497EF4C
:101D28000EF099EF0EF0A4EF0EF0D90E0001B06F8F
:101D3800FA0EB16F11EC4BF0060E7D6E820EAF6E8F
:101D480001019005D8A4ABEF0EF0ADEF0EF009EF4E
:101D580015F0A60E0001B06FFD0EB16F11EC4BF03F
:101D68007D6A440EAF6E09EF15F0D2C072F0D3C091
:101D780073F0E80E746FFF0E756F8EEC47F000017C
:101D880072517311D8A4CBEF0EF0CDEF0EF0EDEF3A
:101D98000EF001019051D8B4D4EF0EF0D6EF0EF04A
:101DA800DDEF0EF0720E0001B06FF70EB16F11EC9F
:101DB8004BF0980E0001B06FF40EB16F11EC4BF0C0
:101DC800000E0001C86F010EC76FE2EC2DF009EF9D
:101DD80015F0D2C072F0D3C073F0EA0E746FFF0E24
:101DE800756F8EEC47F0000172517311D8A4FFEFA4
:101DF8000EF001EF0FF021EF0FF001019051D8B470
:101E080008EF0FF00AEF0FF011EF0FF0720E00015C
:101E1800B06FF70EB16F11EC4BF0F50E0001B06F1B
:101E2800F40EB16F11EC4BF0000E0001C86F020EFA
:101E3800C76FE2EC2DF009EF15F0D2C072F0D3C0F5
:101E480073F0EC0E746FFF0E756F8EEC47F00001A7
:101E580072517311D8A433EF0FF035EF0FF039EF4B
:101E68000FF00AEC15F009EF15F0D2C072F0D3C0EC
:101E780073F0EE0E746FFF0E756F8EEC47F0000175
:101E880072517311D8A44BEF0FF04DEF0FF0FFEF25
:101E98000FF0F29E280EB06FFC0EB16F11EC4BF0F4
:101EA800C3EF0FF0450E0001B06FFF0EB16F11ECDC
:101EB8004BF0EBEF0FF0EF0E0001B06FFC0EB16FBF
:101EC8004CC1B2F04DC1B3F04EC1B4F04FC1B5F042
:101ED80011EC4BF0EBEF0FF08C0E0001B06FFA0E27
:101EE800B16F4CC1B2F04DC1B3F04EC1B4F04FC1A7
:101EF800B5F011EC4BF0EBEF0FF0E00E0001B06F16
:101F0800F80EB16F11EC4BF0EBEF0FF01F0E000164
:101F1800B06FFA0EB16F11EC4BF0EBEF0FF06A0EE9
:101F28000001B06FF80EB16F11EC4BF0EBEF0FF052
:101F3800410E0001B06FFD0EB16F11EC4BF0EBEFED
:101F48000FF04B0E0001B06FFE0EB16F11EC4BF0AD
:101F5800EBEF0FF0A60E0001B06FFA0EB16F11ECA7
:101F68004BF0EBEF0FF0A20E0001B06FFA0EB16F5D
:101F780098C1B2F0B36B11EC4BF0EBEF0FF001012D
:101F88009851000AD8B456EF0FF0010AD8B45FEFA1
:101F98000FF0030AD8B470EF0FF0010AD8B481EF3C
:101FA8000FF0070AD8B48AEF0FF0010AD8B493EFFC
:101FB8000FF0030AD8B49CEF0FF0010AD8B4A5EFCC
:101FC8000FF00F0AD8B4AEEF0FF0B7EF0FF0090E0D
:101FD8000001B06FFB0EB16F97C1B2F0B36B11EC9B
:101FE8004BF06F0E0001B06FFA0EB16F11EC4BF0B1
:101FF800F28E09EF15F0D2C072F0D3C073F0F00E74
:10200800746FFF0E756F8EEC47F0000172517311FB
:10201800D8A411EF10F013EF10F094EF10F0F29E27
:10202800510EB06FFD0EB16F92C1B2F0B36B11ECEF
:102038004BF0BF0E0001B06FFB0EB16F91C1B2F053
:10204800B36B11EC4BF0600E0001B06FFC0EB16F7A
:102058006CC1B2F06DC1B3F011EC4BF0010E000190
:10206800E46F000EE56F000EE66F000EE76FE751B4
:10207800E611E51109E1830EE45DD8A046EF10F002
:1020880048EF10F04AEF10F075EF10F0BC0EB06F8B
:10209800FF0EB16FE4C0B2F0E5C0B3F0E6C0B4F033
:1020A800E7C0B5F011EC4BF0B40E0001B06FFF0EB5
:1020B800B16F000EE425D96E050EE521DA6EDF500A
:1020C8000101C46FC4510001B26FB36B11EC4BF046
:1020D800010E0001E427000EE523E623E7233BEF8A
:1020E80010F06F0EB06FFA0EB16F11EC4BF0DE0E00
:1020F8000001B06FFC0EB16F6AC1B2F06BC1B3F0F2
:1021080011EC4BF06F0E0001B06FFD0EB16F68C19E
:10211800B2F069C1B3F011EC4BF0F28E09EF15F093
:10212800D2C072F0D3C073F0F20E746FFF0E756FE9
:102138008EEC47F0000172517311D8A4A6EF10F08D
:10214800A8EF10F021EF11F0F29E000EE46F000EE0
:10215800E56F000EE66F000EE76FE751E611E51137
:1021680009E1C80EE45DD8A0BCEF10F0BEEF10F096
:10217800C0EF10F01EEF11F0E4C0BBF0E5C0BCF0FA
:10218800E6C0BDF0E7C0BEF034EC37F0BC0E00018D
:10219800B06FFF0EB16FE4C0B2F0E5C0B3F0E6C0B7
:1021A800B4F0E7C0B5F011EC4BF0910E0001B06F40
:1021B800FF0EB16F00C3B2F0B36B11EC4BF0010E20
:1021C8000001E4250101C46F000E0001E5210101B1
:1021D800C56F000E0001E6210101C66F000E000167
:1021E800E7210101C76F0F0EC415C86F000EC51592
:1021F800C96F000EC615CA6F000EC715CB6FC85140
:10220800C911CA11CB11D8A40CEF11F00EEF11F0BF
:1022180015EF11F06F0E0001B06FFA0EB16F11ECEF
:102228004BF0010E0001E427000EE523E623E72327
:10223800B1EF10F0F28E09EF15F0D2C072F0D3C0F2
:1022480073F07B0E746FFB0E756F8EEC47F0000118
:1022580072517311D8A433EF11F035EF11F0CBEFB1
:1022680011F0F29E000EE46F000EE56F000EE66FAF
:10227800000EE76FE751E6110AE1E429030EE5597C
:10228800D8A049EF11F04BEF11F04DEF11F0C8EF66
:1022980011F0E4C072F0E5C073F039EC4BF00101C5
:1022A800D76F0F0E0001E4150101C46F000E000185
:1022B800E5150101C56F000E0001E6150101C66FA5
:1022C800000E0001E7150101C76FC451C511C61101
:1022D800C711D8A472EF11F074EF11F083EF11F069
:1022E800C00E0001B06FFF0EB16FE4C0B2F0E5C0E0
:1022F800B3F0E6C0B4F0E7C0B5F011EC4BF0910EC6
:102308000001B06FFF0EB16FD7C1B2F0B36B11EC23
:102318004BF0010E0001E4250101C46F000E00011D
:10232800E5210101C56F000E0001E6210101C66F1C
:10233800000E0001E7210101C76F0F0EC415C86F19
:10234800000EC515C96F000EC615CA6F000EC71559
:10235800CB6FC851C911CA11CB11D8A4B6EF11F06F
:10236800B8EF11F0BFEF11F06F0E0001B06FFA0E69
:10237800B16F11EC4BF0010E0001E427000EE523CC
:10238800E623E7233EEF11F0F28E09EF15F0D2C0F5
:1023980072F0D3C073F0F40E746FFF0E756F8EEC8D
:1023A80047F0000172517311D8A4DDEF11F0DFEF8F
:1023B80011F08EEF12F00101DC6BF29E4E0E00015F
:1023C800B06FFC0EB16F11EC4BF0000E0001E46F22
:1023D800000EE56F000EE66F000EE76F36EF12F0A5
:1023E800E4C0BBF0E5C0BCF0E6C0BDF0E7C0BEF09D
:1023F800800EBF6FFAEC37F0800E0001E425E46F21
:10240800000EE521E56F000EE621E66F000EE721DC
:10241800E76F000E0101D86F000ED96F000EDA6F5A
:10242800000EDB6FDB51DA11D91109E1800ED85D9E
:10243800D8A021EF12F023EF12F025EF12F036EFBB
:1024480012F0000ED825D96E030ED921DA6EDF50AE
:10245800DC19DC6F010ED827000ED923DA23DB2321
:1024680016EF12F00001E7510CE1E429FF0EE559DF
:10247800010EE659D8A043EF12F045EF12F0F4EF41
:1024880011F0000EBB6F000EBC6F000EBD6F000E8A
:10249800BE6F34EC37F0030100510001E46FE56BC7
:1024A800E66BE76B030EE419E511E611E711D8B402
:1024B80060EF12F062EF12F068EF12F0400EB06FAA
:1024C800F80EB16F11EC4BF0C00E0001B06FFA0EB0
:1024D800B16FDCC1B2F0B36B11EC4BF00101DC5110
:1024E800D8A479EF12F07BEF12F084EF12F0870E88
:1024F8000001B06FFF0EB16F11EC4BF08BEF12F0D3
:10250800BC0E0001B06FFE0EB16F11EC4BF0F28EF5
:1025180009EF15F0D2C072F0D3C073F0F60E746FE5
:10252800FF0E756F8EEC47F0000172517311D8A43D
:10253800A0EF12F0A2EF12F097EF13F0000E0101D6
:10254800DD6F000EDE6F000EDF6F000EE06FF29E93
:1025580086EF13F0DDC1BBF0DEC1BCF0DFC1BDF01A
:10256800E0C1BEF0800E0001BF6FFAEC37F0000E3C
:102578000001E46F000EE56F000EE66F000EE76FD6
:10258800E751E611E51109E1800EE45DD8A0CFEF2F
:1025980012F0D1EF12F0D3EF12F079EF13F001013E
:1025A800DD510001E4250101D36FDE510001E52171
:1025B8000101D46FDF510001E6210101D56FE0511F
:1025C8000001E7210101D66F0F0E0001E41501019A
:1025D800C46F000E0001E5150101C56F000E000172
:1025E800E6150101C66F000E0001E7150101C76F6E
:1025F800C451C511C611C711D8A405EF13F007EFD0
:1026080013F023EF13F0D3510001BB6F0101D45134
:102618000001BC6F0101D5510001BD6F0101D65108
:102628000001BE6FBF6BC06BC16BC26B6EEC4AF032
:10263800F00E0001B06FFE0EB16F11EC4BF0B80E4A
:102648000001B06FFF0EB16F000EE425D96E030EC6
:10265800E521DA6EDF500101C46FC4510001B26F89
:10266800B36B11EC4BF0010E0001E4250101C46FBE
:10267800000E0001E5210101C56F000E0001E621F1
:102688000101C66F000E0001E7210101C76F0F0E9F
:10269800C415C86F000EC515C96F000EC615CA6FE0
:1026A800000EC715CB6FC851C911CA11CB11D8A4D8
:1026B80060EF13F062EF13F069EF13F06F0E000193
:1026C800B06FFA0EB16F11EC4BF0E40E00D000D0F1
:1026D800E82EFCD700D000D0010E0001E427000E40
:1026E800E523E623E723C4EF12F0800E0101DD2580
:1026F800DD6F000EDE21DE6F000EDF21DF6F000EC2
:10270800E021E06FE0510CE1DD29FF0EDE59010EFA
:10271800DF59D8A092EF13F094EF13F0AEEF12F058
:10272800F28E09EF15F0D2C072F0D3C073F0F80E34
:10273800746FFF0E756F8EEC47F0000172517311C4
:10274800D8A4A9EF13F0ABEF13F0EDEF14F0000EDF
:10275800E46F000EE56F000EE66F000EE76FE4C051
:10276800C4F1E5C0C5F10101D890C437C537D89088
:10277800C437C537000EC4250001726F010E010170
:10278800C5210001736F39EC4BF00101C66FC651CA
:10279800E16FE26BE36BE46BE56BE66BE76BE86BB1
:1027A800E4C0C4F1E5C0C5F1D890C437C537D890A6
:1027B800C437C537010EC4250001726F010E01012F
:1027C800C5210001736F39EC4BF00101C66FC6C11A
:1027D800C7F1C86BC96BCA6BC9C1CAF1C8C1C9F115
:1027E800C7C1C8F1C76BC751CB6FC851CC6FC951AE
:1027F800CD6FCA51CE6FCF6BD06BD16BD26BE1511D
:10280800CB25E16FE251CC21E26FE351CD21E36F9B
:10281800E451CE21E46FE551CF21E56FE651D02197
:10282800E66FE751D121E76FE851D221E86FE4C0A4
:10283800C4F1E5C0C5F1D890C437C537D890C437BE
:10284800C537020EC4250001726F010E0101C521B2
:102858000001736F39EC4BF00101C66FC6C1C7F1B7
:10286800C86BC96BCA6BC8C1CAF1C7C1C9F1C86B0B
:10287800C76BC751CB6FC851CC6FC951CD6FCA5107
:10288800CE6FCF6BD06BD16BD26BE151CB25E16FA3
:10289800E251CC21E26FE351CD21E36FE451CE2127
:1028A800E46FE551CF21E56FE651D021E66FE7519E
:1028B800D121E76FE851D221E86FE4C0C4F1E5C047
:1028C800C5F1D890C437C537D890C437C537030E7B
:1028D800C4250001726F010E0101C5210001736F4B
:1028E80039EC4BF00101C66FC6C1C7F1C86BC96BA3
:1028F800CA6BC7C1CAF1C96BC86BC76BC751CB6F6D
:10290800C851CC6FC951CD6FCA51CE6FCF6BD06B48
:10291800D16BD26BE151CB25E16FE251CC21E26F53
:10292800E351CD21E36FE451CE21E46FE551CF218E
:10293800E56FE651D021E66FE751D121E76FE85105
:10294800D221E86F840E0001B06FFC0EB16F010E4A
:10295800E425B26F000EE521B36F000EE621B46FD7
:10296800000EE721B56F11EC4BF0E1C1BBF0E2C1FD
:10297800BCF0E3C1BDF0E4C1BEF0E5C1BFF0E6C103
:10298800C0F0E7C1C1F0E8C1C2F06EEC4AF06F0ECA
:102998000001B06FFA0EB16F11EC4BF0010E00019F
:1029A800E427000EE523E623E723E751E611E511C6
:1029B80009E1140EE45DD8A0E4EF14F0E6EF14F09A
:1029C800B3EF13F0E407000EE55BE65BE75B09EFA6
:1029D80015F0D2C072F0D3C073F0FC0E746FFF0E06
:1029E800756F8EEC47F0000172517311D8A4FFEF98
:1029F80014F001EF15F003EF15F009EF15F0210EB3
:102A0800B06FFB0EB16F11EC4BF01200F29E01019A
:102A1800876BF00E0001B06FFD0EB16F5EC1B2F0B2
:102A28005FC1B3F011EC4BF00001EC51D8A41FEFDB
:102A380015F021EF15F027EF15F0130EB06FFC0E0F
:102A4800B16F11EC4BF0020E0001EC19D8A42FEF76
:102A580015F031EF15F037EF15F0310EB06FFD0EB0
:102A6800B16F11EC4BF0040E0001EC19D8A43FEF44
:102A780015F041EF15F047EF15F0000EB06FFD0EA1
:102A8800B16F11EC4BF0030E0001EC19D8A44FEF15
:102A980015F051EF15F057EF15F0660EB06FFB0EFD
:102AA800B16F11EC4BF0050E0001EC19D8A45FEFE3
:102AB80015F061EF15F067EF15F03B0EB06FFC0EE7
:102AC800B16F11EC4BF00001EC05D8A46EEF15F0D6
:102AD80070EF15F076EF15F0E90EB06FFB0EB16FE1
:102AE80011EC4BF06F0E0001B06FFA0EB16F11ECE4
:102AF8004BF0010E0001C26F010EC16FFF0EC2251F
:102B0800726F736BFF0E7323000E756F160E746F62
:102B180030EC43F00001C151160DF3CFBBF0F4CFF8
:102B2800BCF07251BB25BD6F7351BC21BE6FEA0E5C
:102B3800BD25BF6FFF0EBE21C06FBFC0E4F0C0C08F
:102B4800E5F0000EE5BFFF0EE66FE76F01015E518D
:102B58000001BB6F01015F510001BC6FBD6BBE6B13
:102B6800E451BB5DE551BC59E651BD59E751BE5929
:102B7800D8A0C1EF15F0C3EF15F0C0EF19F0C40EDF
:102B8800B06FFF0EB16FE4C0B2F0E5C0B3F0E6C0BD
:102B9800B4F0E7C0B5F011EC4BF07E0E0001BB6F4E
:102BA800050EBC6FD890E435D96EE535DA6ED8904D
:102BB800D936DA36BB51D926BC51DA22DECFC3F07A
:102BC800DDCFC4F0820EBB6F050EBC6FD890E43524
:102BD800D96EE535DA6ED890D936DA36BB51D926B2
:102BE800BC51DA22DECFE8F0DECFE9F0DECFEAF042
:102BF800DECFEBF0AF0EB06FFF0EB16FE8C0B2F0F2
:102C0800E9C0B3F0EAC0B4F0EBC0B5F011EC4BF09A
:102C18000001EC51D8A413EF16F015EF16F01BEFD6
:102C280016F0EF0EB06FFE0EB16F11EC4BF0000115
:102C3800EC05D8A422EF16F024EF16F0DAEF16F020
:102C4800EB51EA110BE1A90EE85D8F0EE959D8A006
:102C580030EF16F032EF16F048EF16F0EB51EA11AC
:102C680009E1780EE85D970EE959D8B03EEF16F005
:102C780040EF16F048EF16F0E10EB06FFF0EB16F9F
:102C880011EC4BF0BAEF16F0EB51EA110BE1A70E7D
:102C9800E85D020EE959D8A054EF16F056EF16F089
:102CA8006CEF16F0EB51EA1109E1D60EE85D040E5F
:102CB800E959D8B062EF16F064EF16F06CEF16F031
:102CC800D50EB06FFF0EB16F11EC4BF0BAEF16F0E6
:102CD800EB51EA110BE1930EE85D060EE959D8A015
:102CE80078EF16F07AEF16F090EF16F0EB51EA1144
:102CF80009E1C20EE85D080EE959D8B086EF16F072
:102D080088EF16F090EF16F0D80EB06FFF0EB16F87
:102D180011EC4BF0BAEF16F0EB51EA110BE18C0E07
:102D2800E85D0A0EE959D8A09CEF16F09EEF16F060
:102D3800B4EF16F0EB51EA1109E1BB0EE85D0C0E99
:102D4800E959D8B0AAEF16F0ACEF16F0B4EF16F0C8
:102D5800DE0EB06FFF0EB16F11EC4BF0BAEF16F04C
:102D6800DB0EB06FFF0EB16F11EC4BF0000E0001DF
:102D7800E425D96E020EE521DA6EDF50D8B4C7EF2C
:102D880016F0C9EF16F0DAEF16F0350EB06FFF0E39
:102D9800B16F000EE425D96E020EE521DA6EDF5020
:102DA800BB6FBB51B26FB36B11EC4BF0020E00015D
:102DB800EC19D8A4E2EF16F0E4EF16F076EF17F06E
:102DC800EB51EA110BE1130EE85D700EE959D8A03A
:102DD800F0EF16F0F2EF16F008EF17F0EB51EA11EA
:102DE80009E1E20EE85D770EE959D8B0FEEF16F07A
:102DF80000EF17F008EF17F0E10EB06FFF0EB16F9C
:102E080011EC4BF056EF17F0EB51EA110BE1D70E2E
:102E1800E85D010EE959D8A014EF17F016EF17F086
:102E28002CEF17F0EB51EA1109E12A0EE85D030EC9
:102E3800E959D8B022EF17F024EF17F02CEF17F06C
:102E4800D50EB06FFF0EB16F11EC4BF056EF17F0C7
:102E5800EB51EA110BE1570EE85D040EE959D8A0D1
:102E680038EF17F03AEF17F050EF17F0EB51EA117F
:102E780009E1AA0EE85D050EE959D8B046EF17F04A
:102E880048EF17F050EF17F0D80EB06FFF0EB16F84
:102E980011EC4BF056EF17F0DB0EB06FFF0EB16F71
:102EA80011EC4BF0000E0001E425D96E020EE5216D
:102EB800DA6EDF50D8B463EF17F065EF17F076EFEE
:102EC80017F0350EB06FFF0EB16F000EE425D96E06
:102ED800020EE521DA6EDF50BB6FBB51B26FB36BE8
:102EE80011EC4BF0040E0001EC19D8A47EEF17F09A
:102EF80080EF17F035EF18F0EB51EA110BE1F50E02
:102F0800E85D0F0EE959D8A08CEF17F08EEF17F097
:102F1800A4EF17F0EB51EA1109E1C40EE85D170EB2
:102F2800E959D8B09AEF17F09CEF17F0A4EF17F013
:102F3800E10EB06FFF0EB16F11EC4BF015EF18F00A
:102F4800EB51EA110BE14A0EE85D040EE959D8A0ED
:102F5800B0EF17F0B2EF17F0C7EF17F0EB51EA1127
:102F680008E1E805060EE959D8B0BDEF17F0BFEF44
:102F780017F0C7EF17F0D50EB06FFF0EB16F11EC59
:102F88004BF015EF18F0EB51EA110BE15B0EE85D21
:102F9800090EE959D8A0D3EF17F0D5EF17F0EBEFEA
:102FA80017F0EB51EA1109E1120EE85D0B0EE95931
:102FB800D8B0E1EF17F0E3EF17F0EBEF17F0D80E0A
:102FC800B06FFF0EB16F11EC4BF015EF18F0EB512D
:102FD800EA110BE1A50EE85D240EE959D8A0F7EF38
:102FE80017F0F9EF17F00FEF18F0EB51EA1109E1BC
:102FF8005C0EE85D260EE959D8B005EF18F007EF2A
:1030080018F00FEF18F0DE0EB06FFF0EB16F11EC75
:103018004BF015EF18F0DB0EB06FFF0EB16F11EC2F
:103028004BF0000E0001E425D96E020EE521DA6EA0
:10303800DF50D8B422EF18F024EF18F035EF18F06D
:10304800350EB06FFF0EB16F000EE425D96E020E7B
:10305800E521DA6EDF50BB6FBB51B26FB36B11EC79
:103068004BF0030E0001EC19D8A43DEF18F03FEF28
:1030780018F029EF19F0EB51EA110BE1C30EE85DE6
:103088007E0EE959D8A04BEF18F04DEF18F063EF1A
:1030980018F0EB51EA1109E10E0EE85D830EE959CB
:1030A800D8B059EF18F05BEF18F063EF18F0E10EA5
:1030B800B06FFF0EB16F11EC4BF009EF19F0EB5147
:1030C800EA110BE1F70EE85D1D0EE959D8A06FEF84
:1030D80018F071EF18F087EF18F0EB51EA1109E1D9
:1030E800B20EE85D200EE959D8B07DEF18F07FEFF9
:1030F80018F087EF18F0DE0EB06FFF0EB16F11EC0D
:103108004BF009EF19F0E4B18CEF18F08EEF18F0DE
:1031180001EF19F0E30EC35D040EC459D8A097EF70
:1031280018F099EF18F0C6EF18F09E0EC35D070E61
:10313800C459D8B0A2EF18F0A4EF18F0C6EF18F0F1
:10314800EB51EA110BE1F50EE85D010EE959D8A043
:10315800B0EF18F0B2EF18F0C6EF18F0EB51EA1123
:1031680009E1B00EE85D040EE959D8B0BEEF18F0D9
:10317800C0EF18F0C6EF18F0D80EB06FFF0EB16FA1
:1031880011EC4BF0F50E0001C35D010EC459D8A037
:10319800D0EF18F0D2EF18F009EF19F0B00EC35DB8
:1031A800040EC459D8B0DBEF18F0DDEF18F009EFC2
:1031B80019F0EB51EA110BE1E30EE85D040EE95951
:1031C800D8A0E9EF18F0EBEF18F009EF19F0EB5180
:1031D800EA1109E19E0EE85D070EE959D8B0F7EF4C
:1031E80018F0F9EF18F009EF19F0D50EB06FFF0ECF
:1031F800B16F11EC4BF009EF19F0EF0EB06FFE0E46
:10320800B16F11EC4BF009EF19F0000E0001E42545
:10321800D96E020EE521DA6EDF50D8B416EF19F038
:1032280018EF19F029EF19F0350EB06FFF0EB16FD6
:10323800000EE425D96E020EE521DA6EDF50BB6F71
:10324800BB51B26FB36B11EC4BF0050E0001EC19DA
:10325800D8A431EF19F033EF19F0B7EF19F0EB51AB
:10326800EA110BE16B0EE85D180EE959D8A03FEFA3
:1032780019F041EF19F057EF19F0EB51EA1109E194
:10328800B60EE85D1C0EE959D8B04DEF19F04FEFB6
:1032980019F057EF19F0E10EB06FFF0EB16F11EC96
:1032A8004BF097EF19F0EB51EA110BE1AF0EE85D27
:1032B8000B0EE959D8A063EF19F065EF19F07BEF11
:1032C80019F0EB51EA1109E1DA0EE85D0C0EE95943
:1032D800D8B071EF19F073EF19F07BEF19F0DE0E2B
:1032E800B06FFF0EB16F11EC4BF097EF19F0EB5187
:1032F800EA1109E19C0EE85D040EE959D8B087EFA0
:1033080019F089EF19F091EF19F0D50EB06FFF0E93
:10331800B16F11EC4BF097EF19F0D80EB06FFF0EAC
:10332800B16F11EC4BF0000E0001E425D96E020ECE
:10333800E521DA6EDF50D8B4A4EF19F0A6EF19F042
:10334800B7EF19F0350EB06FFF0EB16F000EE42520
:10335800D96E020EE521DA6EDF50BB6FBB51B26F3A
:10336800B36B11EC4BF0D20E0001B06FFF0EB16FD2
:1033780011EC4BF0C6EF19F0E90EB06FFE0EB16F0D
:1033880011EC4BF00001C12B090EC165CEEF19F00D
:10339800D0EF19F082EF15F06F0EB06FFA0EB16F23
:1033A80011EC4BF00001C22B160EC265DEEF19F0CE
:1033B800E0EF19F080EF15F01EEC4CF0F28E1200E1
:1033C8001FEC4BF08096808A0101986B0F015D6BB2
:1033D8005C6BD08EF19EF180F290F286F28EF294C0
:1033E800F28A5A89010E0101906F9051D8A4FFEF1B
:1033F80019F001EF1AF005EF1AF0060E7D6E820E35
:10340800AF6E9005D8A40BEF1AF00DEF1AF010EF7D
:103418001AF07D6A440EAF6E920ED56EFC0E000156
:10342800766FF50E776FB0EC3FF0990E0001766F6E
:10343800FD0E776FB0EC3FF0FA0E0001766FF60ED6
:10344800776FB0EC3FF0990E0001766FFD0E776F45
:10345800B0EC3FF08290D6EC3DF08280010E000186
:10346800E46F000EE56F000EE66F000EE76FE751A0
:10347800E611E51109E10A0EE45DD8A046EF1AF05D
:1034880048EF1AF04AEF1AF06FEF1AF0090E03012D
:10349800836F1E0E826FE40EE82EFED7822FFCD7B4
:1034A800832FFAD700008290090E0301836F1E0E46
:1034B800826FE40EE82EFED7822FFCD7832FFAD72F
:1034C80000008280010E0001E427000EE523E623B8
:1034D800E7233BEF1AF0ED6B54EC4CF0F28E000E44
:1034E8000001736F000E726F39EC4BF00301826FAD
:1034F80082510001E46FE56BE66BE76B210EE4197E
:10350800E511E611E711D8B48CEF1AF08EEF1AF036
:1035180094EF1AF07E0EB06FF60EB16F11EC4BF00F
:10352800000E0001BB6F000EBC6F000EBD6F000ED9
:10353800BE6F34EC37F0030100510001E46FE56B16
:10354800E66BE76B030EE419E511E611E711D8B451
:10355800B0EF1AF0B2EF1AF0B8EF1AF0BC0EB06F75
:10356800F60EB16F11EC4BF0808681B4BEEF1AF005
:10357800C0EF1AF023EF1BF0150E0301826FC60E81
:10358800E82EFED7822FFCD70000010E0101482744
:10359800000E49234A234B234B514A110BE1890E54
:1035A800485D130E4959D8A0DCEF1AF0DEEF1AF087
:1035B80023EF1BF08290000E486F000E496F000E3B
:1035C8004A6F000E4B6F270E0001B06FF90EB16FF6
:1035D80011EC4BF0010E01016B6F000E6A6F510E7A
:1035E8006A5D010E6B59D8A0FCEF1AF0FEEF1AF0D5
:1035F80000EF1BF00EEF1BF06AC172F06BC173F0A5
:10360800FF0E0001746F8AEC48F001016A4B6B2BC6
:10361800F3EF1AF0520E0301836F2B0E826F000E28
:10362800E82EFED7822FFCD7832FFAD7000082809E
:1036380081A421EF1BF023EF1BF01CEF1BF001010D
:103648008A51D8B42AEF1BF02DEF1BF0010E2EEF94
:103658001BF0000E0301826F836B81B436EF1BF001
:1036680039EF1BF0010E3AEF1BF0000E8217000E27
:10367800831701014B514A11491107E1C90E485DF1
:10368800D8B049EF1BF04CEF1BF0010E4DEF1BF0CB
:10369800000E03018217000E831701014B514A11D6
:1036A8000CE1E80E485D030E4959D8A05EEF1BF007
:1036B80061EF1BF0010E62EF1BF0000E0301821791
:1036C800000E831782518311D8B46DEF1BF06FEF92
:1036D8001BF087EF1BF0500E0101406FC30E416FC6
:1036E800000E426F000E436F000E446F000E456FD0
:1036F800000E466F000E476F6B0E0001B06FF90E9B
:10370800B16F11EC4BF001014051411142114311CD
:103718004411451146114711D8B495EF1BF097EFA6
:103728001BF005EF1CF04007000E415B425B435B5A
:10373800445B455B465B475B40C172F041C173F037
:1037480042C174F043C175F044C176F045C177F0C9
:1037580046C178F047C179F0E80E00017A6F030E90
:103768007B6F000E7C6F000E7D6F000E7E6F000E6B
:103778007F6F000E806F000E816F20EC40F072C0EA
:1037880082F373C083F374C084F375C085F376C085
:1037980086F377C087F378C088F379C089F303018B
:1037A800825183118411851186118711881189111D
:1037B800D8A4E1EF1BF0E3EF1BF0ECEF1BF082A0C5
:1037C800E8EF1BF0EBEF1BF08280ECEF1BF0829030
:1037D8000101405141114211431144114511461153
:1037E8004711D8A4FAEF1BF0FCEF1BF005EF1CF013
:1037F800816B380E0001B06FFB0EB16F11EC4BF00E
:103808008280000E81B4010E01018A6F81A40FEF3E
:103818001CF011EF1CF019EF1CF0000E486F000EA1
:10382800496F000E4A6F000E4B6F8D51D8A41FEFE1
:103838001CF021EF1CF023EF1CF04EEC3EF00101D0
:103848008751D8B42AEF1CF02CEF1CF02EEF1CF097
:103858000AEC15F001018D51D8B435EF1CF037EFA3
:103868001CF0B9EF1AF08D6BF29E020E0001ED19F3
:10387800D8A441EF1CF043EF1CF045EF1CF00AEC14
:1038880015F00001EC05D8A44CEF1CF04EEF1CF02D
:103898007DEF1CF0ED51D8B454EF1CF056EF1CF03E
:1038A8006FEF1CF0DCC0BBF0DDC0BCF0DEC0BDF0CB
:1038B800DFC0BEF0E0C0BFF0E1C0C0F0E2C0C1F0C0
:1038C800E3C0C2F05EEC3DF0F00E0001B06FFE0EFA
:1038D800B16F11EC4BF071EC1DF00009D8B477EF23
:1038E8001CF079EF1CF07DEF1CF0D4EC31F0DDEC2E
:1038F80033F0020E0001EC19D8A485EF1CF087EF15
:103908001CF0B1EF1CF0DCC038F1DDC039F1DEC0CD
:103918003AF1DFC03BF1E0C03CF1E1C03DF1E2C06B
:103928003EF1E3C03FF1960EB06FFC0EB16F11ECA3
:103938004BF0DCC0BBF0DDC0BCF0DEC0BDF0DFC0CA
:10394800BEF0E0C0BFF0E1C0C0F0E2C0C1F0E3C02B
:10395800C2F06EEC4AF0DDEC33F0040E0001EC1915
:10396800D8A4B9EF1CF0BBEF1CF0EAEF1CF0CBECCD
:1039780023F0E806D8A4C3EF1CF0C5EF1CF0EAEF6B
:103988001CF0BA0E0001B06FFC0EB16F11EC4BF0D9
:1039980038C1BBF039C1BCF03AC1BDF03BC1BEF083
:1039A8003CC1BFF03DC1C0F03EC1C1F03FC1C2F053
:1039B8006EEC4AF0610E0001B06FFE0EB16F48C0A8
:1039C800B2F0B36B11EC4BF0DDEC33F0030E0001F9
:1039D800EC19D8A4F2EF1CF0F4EF1CF042EF1DF044
:1039E80065EC36F0A80E0001B06FFC0EB16F11EC5B
:1039F8004BF038C1BBF039C1BCF03AC1BDF03BC196
:103A0800BEF03CC1BFF03DC1C0F03EC1C1F03FC1F6
:103A1800C2F06EEC4AF0AA0E0001B06FFF0EB16F53
:103A280038C1B2F039C1B3F03AC1B4F03BC1B5F016
:103A380011EC4BF0FB0E0001B06FFE0EB16F11ECF4
:103A48004BF0050E48602BEF1DF02DEF1DF039EF00
:103A58001DF0D50E0001B06FFA0EB16F48C0B2F07C
:103A6800B36B11EC4BF040EF1DF0CF0E0001B06FBF
:103A7800FF0EB16F11EC4BF0DDEC33F0050E0001D9
:103A8800EC19D8A44AEF1DF04CEF1DF054EF1DF0CF
:103A9800F20EB06FFE0EB16F11EC4BF003EC46F076
:103AA800060E0001EC19D8A45CEF1DF05EEF1DF0C6
:103AB80068EF1DF02D0EB06FFF0EB16F11EC4BF0DB
:103AC800E0EC43F0DDEC33F0000E476E000E466E7E
:103AD800F28EB9EF1AF09DEF0DF0DCC0BBF0DDC03F
:103AE800BCF0DEC0BDF0DFC0BEF0E0C0BFF0E1C09A
:103AF800C0F0E2C0C1F0E3C0C2F0040ED8900001EB
:103B0800BB37BC37BD37BE37BF37C037C137C23701
:103B1800E82E82EF1DF0BBC0C5F0BCC0C6F0BDC02A
:103B2800C7F0BEC0C8F0BFC0C9F0C0C0CAF0C1C0AD
:103B3800CBF0C2C0CCF020EEC5F0F00EDE18C56F99
:103B4800FF0EDE18C66FFF0EDE18C76FFF0EDE18F9
:103B5800C86FFF0EDE18C96FFF0EDE18CA6FFF0EA2
:103B6800DE18CB6F000EDE18CC6FC5C0BBF0C6C028
:103B7800BCF0C7C0BDF0C8C0BEF0C9C0BFF0CAC065
:103B8800C0F0CBC0C1F0CCC0C2F0310ED5EF1DF0F3
:103B9800D890C233C133C033BF33BE33BD33BC3317
:103BA800BB33E82ECCEF1DF0BBC0CDF0BCC0CEF0CF
:103BB800BDC0CFF0BEC0D0F0BFC0D1F0C0C0D2F001
:103BC800C1C0D3F0C2C0D4F0CD39F00BF00B4D6EAC
:103BD800040EBB6FCDC0BCF0CEC0BDF0CFC0BEF0F0
:103BE800D0C0BFF0D1C0C0F0D2C0C1F0D3C0C2F0C5
:103BF800D4C0C3F0BB6703EF1EF00FEF1EF0C33550
:103C0800C333C233C133C033BF33BE33BD33BC3318
:103C1800BB2FFEEF1DF00001BC510F0B4E6EC5C04F
:103C2800BBF0C6C0BCF0C7C0BDF0C8C0BEF0C9C0BC
:103C3800BFF0CAC0C0F0CBC0C1F0CCC0C2F0290EE2
:103C48002FEF1EF0D890C233C133C033BF33BE3319
:103C5800BD33BC33BB33E82E26EF1EF0BBC0CDF01E
:103C6800BCC0CEF0BDC0CFF0BEC0D0F0BFC0D1F058
:103C7800C0C0D2F0C1C0D3F0C2C0D4F0040EBB6F34
:103C8800CDC0BCF0CEC0BDF0CFC0BEF0D0C0BFF03C
:103C9800D1C0C0F0D2C0C1F0D3C0C2F0D4C0C3F00C
:103CA800BB6759EF1EF065EF1EF0C335C333C2334F
:103CB800C133C033BF33BE33BD33BC33BB2F54EF26
:103CC8001EF00001BC510F0B4D104D6ECD39F00B9D
:103CD800F00B4C6EC5C0BBF0C6C0BCF0C7C0BDF091
:103CE800C8C0BEF0C9C0BFF0CAC0C0F0CBC0C1F0E8
:103CF800CCC0C2F0210E8AEF1EF0D890C233C13377
:103D0800C033BF33BE33BD33BC33BB33E82E81EF82
:103D18001EF0BBC0CDF0BCC0CEF0BDC0CFF0BEC061
:103D2800D0F0BFC0D1F0C0C0D2F0C1C0D3F0C2C083
:103D3800D4F0040EBB6FCDC0BCF0CEC0BDF0CFC078
:103D4800BEF0D0C0BFF0D1C0C0F0D2C0C1F0D3C067
:103D5800C2F0D4C0C3F0BB67B4EF1EF0C0EF1EF0D2
:103D6800C335C333C233C133C033BF33BE33BD33AE
:103D7800BC33BB2FAFEF1EF00001BC510F0B4C1032
:103D88004C6ECD39F00BF00B4B6EC5C0BBF0C6C006
:103D9800BCF0C7C0BDF0C8C0BEF0C9C0BFF0CAC043
:103DA800C0F0CBC0C1F0CCC0C2F0190EE5EF1EF0D8
:103DB800D890C233C133C033BF33BE33BD33BC33F5
:103DC800BB33E82EDCEF1EF0BBC0CDF0BCC0CEF09C
:103DD800BDC0CFF0BEC0D0F0BFC0D1F0C0C0D2F0DF
:103DE800C1C0D3F0C2C0D4F0040EBB6FCDC0BCF0CC
:103DF800CEC0BDF0CFC0BEF0D0C0BFF0D1C0C0F0C3
:103E0800D2C0C1F0D3C0C2F0D4C0C3F0BB670FEFBB
:103E18001FF01BEF1FF0C335C333C233C133C033A8
:103E2800BF33BE33BD33BC33BB2F0AEF1FF00001D5
:103E3800BC510F0B4B104B6ECD39F00BF00B4A6E8B
:103E4800C5C0BBF0C6C0BCF0C7C0BDF0C8C0BEF09E
:103E5800C9C0BFF0CAC0C0F0CBC0C1F0CCC0C2F06E
:103E6800110E40EF1FF0D890C233C133C033BF33B7
:103E7800BE33BD33BC33BB33E82E37EF1FF0BBC0B6
:103E8800CDF0BCC0CEF0BDC0CFF0BEC0D0F0BFC03A
:103E9800D1F0C0C0D2F0C1C0D3F0C2C0D4F0040E7B
:103EA800BB6FCDC0BCF0CEC0BDF0CFC0BEF0D0C09F
:103EB800BFF0D1C0C0F0D2C0C1F0D3C0C2F0D4C0EE
:103EC800C3F0BB676AEF1FF076EF1FF0C335C3334B
:103ED800C233C133C033BF33BE33BD33BC33BB2F52
:103EE80065EF1FF00001BC510F0B4A104A6ECD3927
:103EF800F00BF00B496EC5C0BBF0C6C0BCF0C7C024
:103F0800BDF0C8C0BEF0C9C0BFF0CAC0C0F0CBC0C9
:103F1800C1F0CCC0C2F0BCC0BBF0BDC0BCF0BEC0DC
:103F2800BDF0BFC0BEF0C0C0BFF0C1C0C0F0C2C0CD
:103F3800C1F0C26BBBC0CDF0BCC0CEF0BDC0CFF0ED
:103F4800BEC0D0F0BFC0D1F0C0C0D2F0C1C0D3F065
:103F5800C2C0D4F0040EBB6FCDC0BCF0CEC0BDF063
:103F6800CFC0BEF0D0C0BFF0D1C0C0F0D2C0C1F049
:103F7800D3C0C2F0D4C0C3F0BB67C5EF1FF0D1EF08
:103F88001FF0C335C333C233C133C033BF33BE336D
:103F9800BD33BC33BB2FC0EF1FF00001BC510F0B6A
:103FA8004910496ECD39F00BF00B01019B6FC5C06C
:103FB800CDF0C6C0CEF0C7C0CFF0C8C0D0F0C9C0E1
:103FC800D1F0CAC0D2F0CBC0D3F0CCC0D4F0040E2C
:103FD8000001BB6FCDC0BCF0CEC0BDF0CFC0BEF0FD
:103FE800D0C0BFF0D1C0C0F0D2C0C1F0D3C0C2F0C1
:103FF800D4C0C3F0BB6703EF20F00FEF20F0C33548
:10400800C333C233C133C033BF33BE33BD33BC3314
:10401800BB2FFEEF1FF00001BC510F0B01019B11DC
:104028009B6FDCEC48F00001C46FED51D8B41FEF72
:1040380020F021EF20F0BDEF20F0C451D8B427EFD5
:1040480020F029EF20F031EF20F08C0EB06FFF0E3A
:10405800B16F11EC4BF037EF20F09B0EB06FFF0EF5
:10406800B16F11EC4BF0840E0001B06FFF0EB16F11
:104078004EC0B2F0B36B11EC4BF0E40E0001B06F20
:10408800FF0EB16F11EC4BF0840E0001B06FFF0E04
:10409800B16F4DC0B2F0B36B11EC4BF0E40E000100
:1040A800B06FFF0EB16F11EC4BF0840E0001B06FD2
:1040B800FF0EB16F4CC0B2F0B36B11EC4BF0E40ED5
:1040C8000001B06FFF0EB16F11EC4BF0840E0001D0
:1040D800B06FFF0EB16F4BC0B2F0B36B11EC4BF089
:1040E800E40E0001B06FFF0EB16F11EC4BF0840EBF
:1040F8000001B06FFF0EB16F4AC0B2F0B36B11ECA4
:104108004BF0E40E0001B06FFF0EB16F11EC4BF0F5
:10411800840E0001B06FFF0EB16F49C0B2F0B36BEF
:1041280011EC4BF0E40E0001B06FFF0EB16F11EC13
:104138004BF0840E0001B06FFF0EB16F9BC1B2F05F
:10414800B36B11EC4BF0CC0E0001B06FFF0EB16FEA
:1041580011EC4BF00001C451D8A4B5EF20F0B7EF33
:1041680020F0BDEF20F06F0EB06FFA0EB16F11ECBA
:104178004BF00001C4511200D890000172357A6FDB
:1041880073357B6F74357C6F75357D6F76357E6FD3
:1041980077357F6F7835806F7935816FAA0E7A15FC
:1041A800826FAA0E7B15836FAA0E7C15846FAA0EE8
:1041B8007D15856FAA0E7E15866FAA0E7F15876FEF
:1041C800AA0E8015886FAA0E8115896F72C08AF0B1
:1041D80073C08BF074C08CF075C08DF076C08EF013
:1041E80077C08FF078C090F079C091F0D890913373
:1041F80090338F338E338D338C338B338A33550E14
:104208008A15926F550E8B15936F550E8C15946FFA
:10421800550E8D15956F550E8E15966F550E8F157B
:10422800976F550E9015986F550E9115996F82518D
:104238009211726F83519311736F84519411746F3B
:1042480085519511756F86519611766F8751971123
:10425800776F88519811786F89519911796F72C069
:104268007AF073C07BF074C07CF075C07DF076C0C6
:104278007EF077C07FF078C080F079C081F0020EC0
:10428800D8907A377B377C377D377E377F378037D2
:104298008137E82E44EF21F0CC0E7A15826FCC0ED0
:1042A8007B15836FCC0E7C15846FCC0E7D15856FC6
:1042B800CC0E7E15866FCC0E7F15876FCC0E8015C1
:1042C800886FCC0E8115896F72C08AF073C08BF02D
:1042D80074C08CF075C08DF076C08EF077C08FF00A
:1042E80078C090F079C091F0030E84EF21F0D89057
:1042F800913390338F338E338D338C338B338A33B2
:10430800E82E7BEF21F0330E8A15926F330E8B1552
:10431800936F330E8C15946F330E8D15956F330E86
:104328008E15966F330E8F15976F330E9015986F05
:10433800330E9115996F82519211726F83519311B7
:10434800736F84519411746F85519511756F8651EF
:104358009611766F87519711776F88519811786FFA
:1043680089519911796F72C07AF073C07BF074C06B
:104378007CF075C07DF076C07EF077C07FF078C0A5
:1043880080F079C081F0040ED8907A377B377C377B
:104398007D377E377F3780378137E82EC8EF21F0A9
:1043A800F00E7A15826FF00E7B15836FF00E7C1578
:1043B800846FF00E7D15856FF00E7E15866FF00EFA
:1043C8007F15876FF00E8015886FF00E8115896F45
:1043D80072C08AF073C08BF074C08CF075C08DF019
:1043E80076C08EF077C08FF078C090F079C091F0E9
:1043F800050E08EF22F0D890913390338F338E3327
:104408008D338C338B338A33E82EFFEF21F00F0E78
:104418008A15926F0F0E8B15936F0F0E8C15946F74
:104428000F0E8D15956F0F0E8E15966F0F0E8F153B
:10443800976F0F0E9015986F0F0E9115996F825107
:104448009211726F83519311736F84519411746F29
:1044580085519511756F86519611766F8751971111
:10446800776F88519811786F89519911796F72C057
:104478007BF073C07CF074C07DF075C07EF076C0B0
:104488007FF077C080F078C081F07A6B000E7A15E3
:10449800826FFF0E7B15836F000E7C15846FFF0EF5
:1044A8007D15856F000E7E15866FFF0E7F15876F51
:1044B800000E8015886FFF0E8115896F72C08AF013
:1044C80073C08BF074C08CF075C08DF076C08EF020
:1044D80077C08FF078C090F079C091F08BC08AF0E7
:1044E8008CC08BF08DC08CF08EC08DF08FC08EF09C
:1044F80090C08FF091C090F0916BFF0E8A15926F6B
:10450800000E8B15936FFF0E8C15946F000E8D1592
:10451800956FFF0E8E15966F000E8F15976FFF0E15
:104528009015986F000E9115996F82519211726FC4
:1045380083519311736F84519411746F8551951140
:10454800756F86519611766F87519711776F8851DD
:104558009811786F89519911796F72C07AF073C088
:104568007BF074C07CF075C07DF076C07EF077C0BB
:104578007FF078C080F079C081F07FC081F07EC084
:1045880080F07DC07FF07CC07EF07BC07DF07AC07B
:104598007CF07B6B7A6B000E7A15826F000E7B15B0
:1045A800836FFF0E7C15846FFF0E7D15856F000EDF
:1045B8007E15866F000E7F15876FFF0E8015886F3A
:1045C800FF0E8115896F72C08AF073C08BF074C0BA
:1045D8008CF075C08DF076C08EF077C08FF078C003
:1045E80090F079C091F0110E03EF23F0D890913339
:1045F80090338F338E338D338C338B338A33E82E5D
:10460800FAEF22F0FF0E8A15926FFF0E8B15936F4B
:10461800000E8C15946F000E8D15956FFF0E8E157C
:10462800966FFF0E8F15976F000E9015986F000EFE
:104638009115996F82519211726F83519311736F13
:1046480084519411746F85519511756F8651961127
:10465800766F87519711776F88519811786F8951C4
:104668009911796F72C07AF073C07BF074C07CF0D6
:1046780075C07DF076C07EF077C07FF078C080F09E
:1046880079C081F0200ED8907A377B377C377D3718
:104698007E377F3780378137E82E47EF23F0000ECB
:1046A8007A15826F000E7B15836F000E7C15846F60
:1046B800000E7D15856FFF0E7E15866FFF0E7F1528
:1046C800876FFF0E8015886FFF0E8115896F72C086
:1046D8008AF073C08BF074C08CF075C08DF076C012
:1046E8008EF077C08FF078C090F079C091F0210EED
:1046F80087EF23F0D890913390338F338E338D33F7
:104708008C338B338A33E82E7EEF23F0FF0E8A1525
:10471800926FFF0E8B15936FFF0E8C15946FFF0E23
:104728008D15956F000E8E15966F000E8F15976F6D
:10473800000E9015986F000E9115996F8251921185
:10474800726F83519311736F84519411746F8551F3
:104758009511756F86519611766F87519711776FFE
:1047680088519811786F89519911796F72C072F0D8
:1047780073C073F074C074F075C075F076C076F0CD
:1047880077C077F078C078F079C079F0120000012E
:10479800ED05D8A4D2EF23F0D4EF23F0EDEF23F00A
:1047A800DCC0BBF0DDC0BCF0DEC0BDF0DFC0BEF0D9
:1047B800E0C0BFF0E1C0C0F0E2C0C1F0E3C0C2F0A9
:1047C8005EEC3DF06F0E0001B06FFA0EB16F11ECA8
:1047D8004BF0E2C04EF0E1C04DF0DCC0D3F0DDC0DC
:1047E800D4F0DEC0D5F0DFC0D6F0E0C0D7F0E1C02D
:1047F800D8F0E2C0D9F0E3C0DAF0210E0EEF24F0D1
:104808000001D890DA33D933D833D733D633D533F8
:10481800D433D333E82E04EF24F0D3514C6EDCC0EC
:10482800D3F0DDC0D4F0DEC0D5F0DFC0D6F0E0C0F4
:10483800D7F0E1C0D8F0E2C0D9F0E3C0DAF0190E41
:104848002FEF24F0D890DA33D933D833D733D6338F
:10485800D533D433D333E82E26EF24F0D3514B6E1F
:10486800DCC0D3F0DDC0D4F0DEC0D5F0DFC0D6F0B8
:10487800E0C0D7F0E1C0D8F0E2C0D9F0E3C0DAF088
:10488800110E50EF24F0D890DA33D933D833D73318
:10489800D633D533D433D333E82E47EF24F0D3516E
:1048A8004A6EDCC0D3F0DDC0D4F0DEC0D5F0DFC086
:1048B800D6F0E0C0D7F0E1C0D8F0E2C0D9F0E3C04C
:1048C800DAF0D4C0D3F0D5C0D4F0D6C0D5F0D7C074
:1048D800D6F0D8C0D7F0D9C0D8F0DAC0D9F0DA6BA2
:1048E800D351496EDCC09BF101019B5149189B6F64
:1048F80049504A18496E4A504B184A6E4B504C184A
:104908004B6E4C504D184C6E4D504E184D6E00016C
:10491800ED05D8A492EF24F094EF24F0E0EF24F012
:10492800C00EB06FFD0EB16F11EC4BF0810E00019F
:10493800B06FFF0EB16F4EC0B2F0B36B11EC4BF01D
:104948004C0E0001B06FFF0EB16F4DC0B2F0B36BEB
:1049580011EC4BF0530E0001B06FFF0EB16F4CC05D
:10496800B2F0B36B11EC4BF05A0E0001B06FFF0EB2
:10497800B16F4BC0B2F0B36B11EC4BF0610E00019C
:10498800B06FFF0EB16F4AC0B2F0B36B11EC4BF0D1
:10499800680E0001B06FFF0EB16F49C0B2F0B36B83
:1049A80011EC4BF0D70E0001B06FFE0EB16F9BC13A
:1049B800B2F0B36B11EC4BF04E380F0B4E180001F0
:1049C800DB6F4D380F0BDB194D18DB6F4C380F0BB5
:1049D800DB194C18DB6F4B380F0BDB194B18DB6FEF
:1049E8004A380F0BDB194A18DB6F49380F0BDB19F4
:1049F8004918DB6F01019B390F0B0001DB1901011D
:104A08009B190001DB6FDB510F0BDB6F4D380F0B70
:104A18000F0B486E080E4818D8B415EF25F018EF9C
:104A280025F0010E19EF25F0000E0101816F4C50A1
:104A38000001D46FD36B4B50D3250101666F000E74
:104A48000001D4210101676F4AC0D3F00001D46B83
:104A5800D56BD66BD76BD86BD96BDA6BD8C0DAF05D
:104A6800D7C0D9F0D6C0D8F0D5C0D7F0D4C0D6F0CA
:104A7800D3C0D5F0D46BD36BD3C038F1D4C039F1DF
:104A8800D5C03AF1D6C03BF1D7C03CF1D8C03DF112
:104A9800D9C03EF1DAC03FF149C0D3F0D46BD56B31
:104AA800D66BD76BD86BD96BDA6BD9C0DAF0D8C0B4
:104AB800D9F0D7C0D8F0D6C0D7F0D5C0D6F0D4C07A
:104AC800D5F0D3C0D4F0D36B010138510001D31114
:104AD8000101386F39510001D4110101396F3A5180
:104AE8000001D51101013A6F3B510001D6110101B6
:104AF8003B6F3C510001D71101013C6F3D51000152
:104B0800D81101013D6F3E510001D91101013E6FDD
:104B18003F510001DA1101013F6F9B513825386F71
:104B2800000E3921396F000E3A213A6F000E3B21F1
:104B38003B6F000E3C213C6F000E3D213D6F000E87
:104B48003E213E6F000E3F213F6F0001ED05D8A4C6
:104B5800B0EF25F0B2EF25F044EF26F0FC0EB06F71
:104B6800FD0EB16FDBC0B2F0B36B11EC4BF000017E
:104B7800DB51D8B4C2EF25F0C4EF25F0CAEF25F019
:104B88003D0EB06FFF0EB16F11EC4BF06F0E0001D0
:104B9800B06FFA0EB16F11EC4BF0080E0001B06F58
:104BA800FE0EB16F4EC0B2F0B36B11EC4BF04E502D
:104BB800F00BA00AD8B4E3EF25F0E5EF25F0ECEF11
:104BC80025F0760E0001B06FFE0EB16F11EC4BF0C0
:104BD8006F0E0001B06FFA0EB16F11EC4BF0210EA1
:104BE8000001B06FFD0EB16F4EC0D3F00F0ED3179A
:104BF800D351B26FB36B11EC4BF07D0E0001B06F67
:104C0800FD0EB16F48C0B2F0B36B11EC4BF0E00E83
:104C18000001B06FFE0EB16F4DC0D3F00F0ED31769
:104C2800D351B26FB36B11EC4BF0D80E0001B06FDB
:104C3800FD0EB16F66C1B2F067C1B3F011EC4BF075
:104C4800B20E0001B06FFE0EB16F11EC4BF038C11F
:104C5800BBF039C1BCF03AC1BDF03BC1BEF03CC1AC
:104C6800BFF03DC1C0F03EC1C1F03FC1C2F06EEC23
:104C78004AF06F0E0001B06FFA0EB16F11EC4BF0F5
:104C88000001DB51D8B44BEF26F04EEF26F0010EB1
:104C98004FEF26F0000E1200000E0001E46F000E28
:104CA800E56F000EE66F000EE76FE4C0C7F0E5C0E1
:104CB800C8F0D890C737C837D890C737C837000E5C
:104CC800C725726F010EC821736F39EC4BF00001D4
:104CD800C96FC951D36FD46BD56BD66BE4C0C7F01D
:104CE800E5C0C8F0D890C737C837D890C737C83795
:104CF800010EC725726F010EC821736F39EC4BF096
:104D08000001C96FC9C0CAF0CB6BCC6BCD6BCCC0EE
:104D1800CDF0CBC0CCF0CAC0CBF0CA6BD351CA25FA
:104D2800D36FD451CB21D46FD551CC21D56FD65167
:104D3800CD21D66FE4C0C7F0E5C0C8F0D890C7371A
:104D4800C837D890C737C837020EC725726F010E0B
:104D5800C821736F39EC4BF00001C96FC9C0CAF0A4
:104D6800CB6BCC6BCD6BCBC0CDF0CAC0CCF0CB6BD2
:104D7800CA6BD351CA25D36FD451CB21D46FD55127
:104D8800CC21D56FD651CD21D66FE4C0C7F0E5C090
:104D9800C8F0D890C737C837D890C737C837030E78
:104DA800C725726F010EC821736F39EC4BF00001F3
:104DB800C96FC9C0CAF0CB6BCC6BCD6BCAC0CDF084
:104DC800CC6BCB6BCA6BD351CA25D36FD451CB21D3
:104DD800D46FD551CC21D56FD651CD21D66F010EC8
:104DE800E427000EE523E623E723D3290CE1D429A1
:104DF8000AE1D52908E1D629D8B405EF27F007EF4D
:104E080027F014EF27F0E751E611E51109E1140E38
:104E1800E45DD8A012EF27F014EF27F059EF26F041
:104E2800E407000EE55BE65BE75BE751E611E51199
:104E380009E1150EE45DD8A024EF27F026EF27F04E
:104E48002EEF27F0110EB06FFD0EB16F11EC4BF085
:104E5800BFEF28F0E4C0C7F0E5C0C8F0D890C73766
:104E6800C837D890C737C837000EC725726F010EEC
:104E7800C821736F38C174F08AEC48F0E4C0C7F0F9
:104E8800E5C0C8F00001D890C737C837D890C737F1
:104E9800C837010EC725726F010EC821736F38C15C
:104EA800C9F039C1CAF03AC1CBF03BC1CCF03CC122
:104EB800CDF03DC1CEF03EC1CFF03FC1D0F0CAC069
:104EC800C9F0CBC0CAF0CCC0CBF0CDC0CCF0CEC0BE
:104ED800CDF0CFC0CEF0D0C0CFF0D06BC951746F39
:104EE8008AEC48F0E4C0C7F0E5C0C8F00001D890EB
:104EF800C737C837D890C737C837020EC725726F6B
:104F0800010EC821736F38C1C9F039C1CAF03AC15E
:104F1800CBF03BC1CCF03CC1CDF03DC1CEF03EC1A1
:104F2800CFF03FC1D0F0110EA3EF27F0D890D033C7
:104F3800CF33CE33CD33CC33CB33CA33C933E82E5A
:104F48009AEF27F0C951746F8AEC48F00001EC051C
:104F5800D8A4B1EF27F0B3EF27F0EEEF27F0E4C0C5
:104F6800C7F0E5C0C8F0D890C737C837D890C7375A
:104F7800C837030EC725726F010EC821736F48C06A
:104F8800C9F0C93BF00EC91738C1CAF039C1CBF016
:104F98003AC1CCF03BC1CDF03CC1CEF03DC1CFF021
:104FA8003EC1D0F03FC1D1F0190EE4EF27F0D89000
:104FB800D133D033CF33CE33CD33CC33CB33CA33E5
:104FC800E82EDBEF27F0CA51C911746F8AEC48F05C
:104FD80037EF28F0030EEC19D8A4F5EF27F0F7EF18
:104FE80027F0F9EF27F0B3EF27F0040EEC19D8A457
:104FF80000EF28F002EF28F004EF28F0B3EF27F0D5
:10500800E4C0C7F0E5C0C8F0D890C737C837D89013
:10501800C737C837030EC725726F010EC821736FD3
:1050280038C1C9F039C1CAF03AC1CBF03BC1CCF0A4
:105038003CC1CDF03DC1CEF03EC1CFF03FC1D0F074
:10504800190E30EF28F0D890D033CF33CE33CD338C
:10505800CC33CB33CA33C933E82E27EF28F0C951F4
:10506800746F8AEC48F08B0E0001B06FFD0EB16FC3
:1050780011EC4BF038C1BBF039C1BCF03AC1BDF0FE
:105088003BC1BEF03CC1BFF03DC1C0F03EC1C1F064
:105098003FC1C2F06EEC4AF0140E0001B06FFE0E74
:1050A800B16F11EC4BF0000E0001E46F000EE56FDC
:1050B800000EE66F000EE76FE751E611E51109E112
:1050C8000A0EE45DD8A06BEF28F06DEF28F06FEFC3
:1050D80028F092EF28F0050E0001C86F0F0EC76F79
:1050E800F10EE82EFED7C72FFCD7C82FFAD782902B
:1050F800050E0001C86F0F0EC76FF10EE82EFED720
:10510800C72FFCD7C82FFAD78280010E0001E427E9
:10511800000EE523E623E72360EF28F038C174F09A
:1051280039C175F03AC176F03BC177F09DEC30F0AB
:105138000001D26FD251D8B4A4EF28F0A6EF28F01E
:10514800B2EF28F0D251020D000EF324D96E010EF1
:10515800F420DA6E66C1DEFF67C1DDFF520E000182
:10516800C86F2B0EC76F000EE82EFED7C72FFCD7CF
:10517800C82FFAD70000120000019E51D96EDA6AD2
:10518800DECFF6FFDDCFF7FFF86A0800F550250AF5
:10519800D8A4D1EF28F0D3EF28F078EF2AF09E5169
:1051A800D96EDA6ADE2A000EDD22000E0101596F7F
:1051B800000E586F58C180F15A695B690001A26BF3
:1051C80005EF29F00101808300019E51D96EDA6A4A
:1051D800DE2A000EDD2205EF29F0010EA26F05EF91
:1051E80029F09E51D96EDA6ADECFF6FFDDCFF7FFE0
:1051F800F86A0800F550300AD8B4E6EF28F0F1EF65
:1052080028F0A251D8B40BEF29F00DEF29F0F5EFF3
:1052180028F09EC072F09FC073F0D7EC42F072C0C5
:1052280058F173C059F1010159BF1FEF29F01DEF63
:1052380029F024EF29F08081586D591FD8B0592BD7
:1052480000019E51D96EDA6ADECFA8F0DDCFA9F051
:10525800A8C0F6FFA9C0F7FFF86A0800F5CFA7F0C5
:1052680041EF29F0A84BA92B5CEF29F0690EA76F35
:105278005CEF29F0A76B5CEF29F0A751580AD8B466
:105288003AEF29F03C0AD8B43AEF29F00D0AD8B41D
:105298003AEF29F0050AD8B436EF29F0190AD8B43C
:1052A8003AEF29F00D0AD8B43AEF29F03EEF29F089
:1052B800A8C0F6FFA9C0F7FFF86A0800F550640A0D
:1052C800D8B469EF29F06BEF29F0A1EF29F0A8C055
:1052D800F6FFA9C0F7FFF86A0800F550690AD8A4D4
:1052E80078EF29F07AEF29F0C7EF29F0A1EF29F03C
:1052F8009F51D96EDA6ADF50DF2ADF2AD96EDA6A5F
:10530800DECFA3F0DDCFA4F0000EA4BFFF0EA56F83
:10531800A66FACEF29F09F51D96EDA6A040EDF262A
:10532800DF5CD96EDA6ADECFA3F0DECFA4F0DECF81
:10533800A5F0DECFA6F0ACEF29F0A751690AD8B4E2
:105348007CEF29F0050AD8B48FEF29F0ACEF29F0EB
:10535800010EA825A06F000EA921A16F9E51D96E3C
:10536800DA6AA0C0DEFFA1C0DDFF9DC08AF0A3C03D
:105378008BF0A4C08CF0A5C08DF0A6C08EF0C0EC58
:1053880034F08AEF2AF0A8C0F6FFA9C0F7FFF86A40
:105398000800F550780AD8B4D4EF29F0D6EF29F0F0
:1053A8001CEF2AF0A8C0F6FFA9C0F7FFF86A0800AA
:1053B800F550580AD8B4E3EF29F0E5EF29F01CEFCF
:1053C8002AF0A8C0F6FFA9C0F7FFF86A0800F55050
:1053D800750AD8A4F2EF29F0F4EF29F06FEF2AF05C
:1053E8001CEF2AF09F51D96EDA6ADF50DF2ADF2AD4
:1053F800D96EDA6ADECFA0F0DDCFA1F0A0C0A3F0AD
:10540800A1C0A4F0A56BA66B27EF2AF09F51D96E17
:10541800DA6A040EDF26DF5CD96EDA6ADECFA3F023
:10542800DECFA4F0DECFA5F0DECFA6F027EF2AF07E
:10543800A751690AD8B4F6EF29F0050AD8B40AEFDB
:105448002AF027EF2AF0010EA825A06F000EA92147
:10545800A16F9E51D96EDA6AA0C0DEFFA1C0DDFF40
:105468005AEF2AF09DC08AF0A3C08BF0A4C08CF03C
:10547800A5C08DF0A6C08EF0AEEC3AF08AEF2AF007
:105488009DC08AF0A3C08BF0A4C08CF0A5C08DF09D
:10549800A6C08EF0A8C0F6FFA9C0F7FFF86A0800FA
:1054A800F5CF8FF062EC39F08AEF2AF0A8C0F6FF4A
:1054B800A9C0F7FFF86A0800F550580AD8B444EFB5
:1054C8002AF02D0AD8B436EF2AF00D0AD8B444EFE2
:1054D8002AF06FEF2AF000019E51D96EDA6ADE2AAF
:1054E800000EDD228AEF2AF09E51D96EDA6ADECFED
:1054F800F6FFDDCFF7FFF86A0800F550746F756B9B
:105508009DC076F01CEC42F06FEF2AF012002D508F
:10551800D96EDA6ADECFF6FFDDCFF7FFF86A08004A
:10552800F550250AD8A49BEF2AF09DEF2AF03EEF0C
:105538002CF02D50D96EDA6ADE2A000EDD22000E1C
:105548000101596F000E586F58C180F15A695B69A3
:10555800316ACDEF2AF0010180832D50D96EDA6AC5
:10556800DE2A000EDD22CDEF2AF0010E316ECDEFDE
:105578002AF02D50D96EDA6ADECFF6FFDDCFF7FFBD
:10558800F86A0800F550300AD8B4AFEF2AF0B9EF3E
:105598002AF03150D8B4D3EF2AF0D5EF2AF0BDEF76
:1055A8002AF02DC001F02EC002F088EC43F001C0B3
:1055B80058F102C059F1010159BFE7EF2AF0E5EFB0
:1055C8002AF0ECEF2AF08081586D591FD8B0592B7A
:1055D8002D50D96EDA6ADECF37F0DDCF38F037C01C
:1055E800F6FF38C0F7FFF86A0800F5CF36F008EF85
:1055F8002BF0374A382A23EF2BF0690E366E23EF4B
:105608002BF0366A23EF2BF03650580AD8B401EF46
:105618002BF03C0AD8B401EF2BF00D0AD8B401EFF7
:105628002BF0050AD8B4FDEF2AF0190AD8B401EF17
:105638002BF00D0AD8B401EF2BF005EF2BF037C093
:10564800F6FF38C0F7FFF86A0800F550640AD8B4C6
:1056580030EF2BF032EF2BF068EF2BF037C0F6FF6E
:1056680038C0F7FFF86A0800F550690AD8A43FEF78
:105678002BF041EF2BF08EEF2BF068EF2BF02E5034
:10568800D96EDA6ADF50DF2ADF2AD96EDA6ADECF0E
:1056980032F0DDCF33F0000E33BEFF0E346E356EC0
:1056A80073EF2BF02E50D96EDA6A040EDF26DF5C1A
:1056B800D96EDA6ADECF32F0DECF33F0DECF34F0E7
:1056C800DECF35F073EF2BF03650690AD8B443EFCC
:1056D8002BF0050AD8B456EF2BF073EF2BF0010E20
:1056E80037242F6E000E3820306E2D50D96EDA6AAE
:1056F8002FC0DEFF30C0DDFF2CC019F032C01AF019
:1057080033C01BF034C01CF035C01DF095EC35F0EB
:1057180050EF2CF037C0F6FF38C0F7FFF86A0800E2
:10572800F550780AD8B49BEF2BF09DEF2BF0E3EF00
:105738002BF037C0F6FF38C0F7FFF86A0800F550BD
:10574800580AD8B4AAEF2BF0ACEF2BF0E3EF2BF00C
:1057580037C0F6FF38C0F7FFF86A0800F550750A39
:10576800D8A4B9EF2BF0BBEF2BF036EF2CF0E3EF1A
:105778002BF02E50D96EDA6ADF50DF2ADF2AD96E75
:10578800DA6ADECF2FF0DDCF30F02FC032F030C034
:1057980033F0346A356AEEEF2BF02E50D96EDA6AA0
:1057A800040EDF26DF5CD96EDA6ADECF32F0DECF98
:1057B80033F0DECF34F0DECF35F0EEEF2BF036509D
:1057C800690AD8B4BDEF2BF0050AD8B4D1EF2BF095
:1057D800EEEF2BF0010E37242F6E000E3820306EBE
:1057E8002D50D96EDA6A2FC0DEFF30C0DDFF21EF01
:1057F8002CF02CC019F032C01AF033C01BF034C0A2
:105808001CF035C01DF0C9EC3BF050EF2CF02CC05B
:1058180019F032C01AF033C01BF034C01CF035C088
:105828001DF037C0F6FF38C0F7FFF86A0800F5CF5B
:105838001EF00AEC3AF050EF2CF037C0F6FF38C0F3
:10584800F7FFF86A0800F550580AD8B40BEF2CF0A7
:105858002D0AD8B4FDEF2BF00D0AD8B40BEF2CF0BD
:1058680036EF2CF02D50D96EDA6ADE2A000EDD22D2
:1058780050EF2CF02D50D96EDA6ADECFF6FFDDCF6F
:10588800F7FFF86A0800F550036E046A2CC005F0AB
:105898007AEC42F036EF2CF01200000E0001B16FE6
:1058A800000EB06F84518511D8A45DEF2CF05FEF26
:1058B8002CF061EF2CF0D1EF2DF07CC086F0010EBA
:1058C80086177CC087F07DC088F07EC089F07FC0D5
:1058D8008AF080C08BF081C08CF082C08DF083C0CC
:1058E8008EF088C087F089C088F08AC089F08BC0A4
:1058F8008AF08CC08BF08DC08CF08EC08DF08E6BD2
:10590800010E8717D89087358F6F7CC090F07DC0C7
:1059180091F07EC092F07FC093F080C094F081C077
:1059280095F082C096F083C097F0140EA5EF2CF086
:10593800D890973396339533943393339233913386
:105948009033E82E9CEF2CF0010E9017D8909037EA
:10595800D89090377CC098F07DC099F07EC09AF0BE
:105968007FC09BF080C09CF081C09DF082C09EF0FB
:1059780083C09FF01A0ECAEF2CF0D8909F339E3345
:105988009D339C339B339A3399339833E82EC1EF78
:105998002CF0010E9817D8909837D8909837D8904F
:1059A80098377CC0A0F07DC0A1F07EC0A2F07FC077
:1059B800A3F080C0A4F081C0A5F082C0A6F083C087
:1059C800A7F01F0EF1EF2CF0D890A733A633A5331C
:1059D800A433A333A233A133A033E82EE8EF2CF08D
:1059E800010EA017A039F00B981190118F11861194
:1059F800AD6FAD5109EC4AF00001AC6FB0510F0822
:105A08003F0BAF6FAFC086F0070E8617AFC072F0BE
:105A1800736B000E756F080E746FBAEC41F00001DD
:105A280072517A25D96E73517B21DA6EDF50876FF8
:105A3800862B21EF2DF0D8908733862F1FEF2DF07E
:105A480000018751AE6F7CC086F07DC087F07EC0B4
:105A580088F07FC089F080C08AF081C08BF082C056
:105A68008CF083C08DF0100E43EF2DF0D8908D335D
:105A78008C338B338A338933883387338633E82EE4
:105A88003AEF2DF07CC08EF07DC08FF07EC090F094
:105A98007FC091F080C092F081C093F082C094F0F2
:105AA80083C095F0200E62EF2DF0D8909533943393
:105AB80093339233913390338F338E33E82E59EFEB
:105AC8002DF0AEC096F0976B986B996B8E51961926
:105AD8009A6F8F5197199B6F905198199C6F91519C
