:0400000042EF0CF0CF
:100008005182E9CF66F0EACF67F0E1CF68F0E2CF3E
:1000180069F0D9CF6AF0DACF6BF0F3CF6CF0F4CF98
:100028006DF0F6CF6EF0F7CF6FF0F8CF70F0F5CF38
:1000380071F0F2A422EF00F024EF00F032EF00F0AC
:10004800000E01015425546F000E5521556F010E05
:100058005621566F000E5721576FF294F2A637EFCC
:1000680000F039EF00F028EF0CF0F2A03EEF00F0BE
:1000780040EF00F028EF0CF081A845EF00F048EFC2
:1000880000F0010E49EF00F0000E0101846FE7C097
:1000980050F1E8C051F1E9C052F1EAC053F1D6502D
:1000A800D7CF60F00001616B626B636B62C063F075
:1000B80061C062F060C061F0606B6025E76F000EA0
:1000C8006121E86F000E6221E96F000E6321EA6F7B
:1000D800010154510001E725E76F01015551000165
:1000E800E821E86F010156510001E921E96F01019A
:1000F80057510001EA21EA6F000E0101546F000E0A
:10010800556F000E566F000E576FD76AD66A464A6B
:10011800472A030E0001EB19D8A495EF00F097EFDA
:1001280000F0C3EF00F0EA51E9110BE12D0EE75D95
:10013800010EE859D8A0A3EF00F0A5EF00F0B3EF47
:1001480000F0380E3F6EFF0E406EE7C041F0E8C089
:1001580042F0E9C043F0EAC044F059EC48F0140E0C
:1001680046184710D8A4BBEF00F0BDEF00F027EF0A
:100178000CF00001EB6B27EF0CF027EF0CF0040EEE
:10018800EB19D8A4CAEF00F0CCEF00F007EF01F0AC
:10019800475007E1C80E465CD8B0D5EF00F0D7EF5E
:1001A80000F0F8EF00F0820E606F050E616FD890D6
:1001B8004634D96E4734DA6ED890D936DA3660517B
:1001C800D9266151DA22E7C0DEFFE8C0DEFFE9C0C8
:1001D800DEFFEAC0DEFF000E4624D96E020E47207D
:1001E800DA6EDF6A27EF0CF0000E0101616FC80EAE
:1001F800606F0001EB6B4B6A30EC49F0010E0101B6
:10020800856F27EF0CF001018951D8A40EEF01F09A
:1002180010EF01F076EF01F04950D8A416EF01F085
:1002280018EF01F076EF01F00001EA51E9110BE156
:10023800650EE75D190EE859D8A025EF01F027EF04
:1002480001F076EF01F0EA51E91109E1BC0EE75D32
:100258001B0EE859D8B033EF01F035EF01F076EF17
:1002680001F0000E476E010E466E820E606F050E9D
:10027800616FD8904634D96E4734DA6ED890D93643
:10028800DA366051D9266151DA22E7C0DEFFE8C0CC
:10029800DEFFE9C0DEFFEAC0DEFF000E4624D96EAD
:1002A800020E4720DA6EDF6A020EEB19D8A45FEF60
:1002B80001F061EF01F067EF01F0650E3F6EFC0E93
:1002C800406E59EC48F0050E4B6E20EEDBF0070E41
:1002D800DE6AE806FDE2010E0101896F8A6B496A50
:1002E80027EF0CF0050E4B18D8A47DEF01F07FEF37
:1002F80001F0E4EF01F001018951D8B486EF01F073
:1003080088EF01F0E4EF01F00001EA51E9110BE197
:10031800AF0EE75D0B0EE859D8A095EF01F097EF07
:1003280001F0E4EF01F0EA51E91109E1DA0EE75DC5
:100338000C0EE859D8B0A3EF01F0A5EF01F0E4EFF7
:1003480001F02D0E46184710D8B4ADEF01F0AFEF0D
:1003580001F0B3EF01F030EC49F027EF0CF0000E9C
:10036800476E000E466E820E606F050E616FD89064
:100378004634D96E4734DA6ED890D936DA366051B9
:10038800D9266151DA22E7C0DEFFE8C0DEFFE9C006
:10039800DEFFEAC0DEFF000E4624D96E020E4720BB
:1003A800DA6EDF6A01018A6B050E4B6E010E496E2B
:1003B80020EEDBF0070EDE6AE806FDE227EF0CF020
:1003C80001018951D8A4EBEF01F0EDEF01F03BEF0B
:1003D80002F04950D8A4F3EF01F0F5EF01F03BEF3C
:1003E80002F00001EA510DE1C30EE75D0E0EE85977
:1003F800020EE959D8A003EF02F005EF02F03BEF37
:1004080002F0EA510BE10E0EE75D130EE859020EF9
:10041800E959D8B012EF02F014EF02F03BEF02F006
:10042800000E476E010E466E820E606F050E616FFC
:10043800D8904634D96E4734DA6ED890D936DA3641
:100448006051D9266151DA22E7C0DEFFE8C0DEFF3D
:10045800E9C0DEFFEAC0DEFF000E4624D96E020EB8
:100468004720DA6EDF6A030E4B6E69EF01F0030E68
:100478004B18D8A442EF02F044EF02F0A8EF02F0C4
:1004880001018951D8B44BEF02F04DEF02F0A8EF0B
:1004980002F00001EA51E9110BE15B0EE75D1E0E67
:1004A800E859D8A05AEF02F05CEF02F0A8EF02F08A
:1004B800EA51E91109E14E0EE75D200EE859D8B07E
:1004C80068EF02F06AEF02F0A8EF02F0000E476E44
:1004D800000E466E820E606F050E616FD89046342E
:1004E800D96E4734DA6ED890D936DA366051D926C3
:1004F8006151DA22E7C0DEFFE8C0DEFFE9C0DEFFB7
:10050800EAC0DEFF000E4624D96E020E4720DA6EDE
:10051800DF6A030E4B6E020EEB19D8A496EF02F0B9
:1005280098EF02F09EEF02F0BB0E3F6EFB0E406E9E
:1005380059EC48F0000E0101636F000E626F8A6B80
:10054800010E496EDCEF01F04950D8A4AEEF02F07D
:10055800B0EF02F0FDEF02F00001EA51E9110BE102
:10056800790EE75D920EE859D8A0BDEF02F0BFEF13
:1005780002F0FDEF02F0EA51E91109E1A80EE75D8A
:10058800940EE859D8B0CBEF02F0CDEF02F0FDEFB2
:1005980002F0000E476E010E466E010E01018A6FD1
:1005A800E7C066F1E8C067F1020E0001EB19D8A4B4
:1005B800E0EF02F0E2EF02F0F0EF02F0DC0E3F6E47
:1005C800FD0E406EE7C041F0E8C042F0E9C043F0DC
:1005D800EAC044F059EC48F0010E4B6E20EEDBF017
:1005E800070EDE6AE806FDE2010E0101896F27EFBA
:1005F8000CF04950D8A403EF03F005EF03F05BEFCC
:1006080003F00001EA51E9110BE1330EE75D730EC7
:10061800E859D8A012EF03F014EF03F05BEF03F0F2
:10062800EA51E91109E1C20EE75D740EE859D8B044
:1006380020EF03F022EF03F05BEF03F0000E476EAC
:10064800010E466E020E4B6E820E606F050E616FD4
:10065800D8904634D96E4734DA6ED890D936DA361F
:100668006051D9266151DA22E7C0DEFFE8C0DEFF1B
:10067800E9C0DEFFEAC0DEFF020EEB19D8A447EF9F
:1006880003F049EF03F04FEF03F0A80E3F6EFF0EA3
:10069800406E59EC48F0010E496E20EEDBF0070E73
:1006A800DE6AE806FDE20101896B27EF0CF0010123
:1006B800535152110AE15005130E5159D8A067EF52
:1006C80003F069EF03F0E9EF03F05351521109E128
:1006D800B80E505D140E5159D8B075EF03F077EF8E
:1006E80003F0E9EF03F08451D8B47DEF03F07FEF16
:1006F80003F0E9EF03F04950D8A485EF03F087EF42
:1007080003F0E9EF03F00001EA51E9110BE1A50E4E
:10071800E75D240EE859D8A094EF03F096EF03F0B4
:10072800E9EF03F0EA51E91109E15C0EE75D260EF5
:10073800E859D8B0A2EF03F0A4EF03F0E9EF03F013
:10074800000E476E010E466E010E0101836F040E06
:100758004B6E020E0001EB19D8A4B5EF03F0B7EF0A
:1007680003F0C5EF03F05C0E3F6EFE0E406EE7C06F
:1007780041F0E8C042F0E9C043F0EAC044F059EC67
:1007880048F0820E0001606F050E616FD890463404
:10079800D96E4734DA6ED890D936DA366051D92610
:1007A8006151DA22E7C0DEFFE8C0DEFFE9C0DEFF04
:1007B800EAC0DEFF000E0101636F000E626F000EDB
:1007C8005F6F000E5E6FA4EF02F0040E4B18D8B4F2
:1007D800F0EF03F0F3EF03F0010EF4EF03F0000E77
:1007E8000001606F616B49506017000E611760511E
:1007F8006111D8B402EF04F004EF04F059EF05F0EA
:10080800475007E1960E465CD8B00DEF04F00FEFA5
:1008180004F02EEF04F0820E606F050E616FD89021
:100828004634D96E4734DA6ED890D936DA36605104
:10083800D9266151DA22E7C0DEFFE8C0DEFFE9C051
:10084800DEFFEAC0DEFF000E4624D96E020E472006
:10085800DA6EDF6AEA51E9110BE15B0EE75D090E1A
:10086800E859D8A03AEF04F03CEF04F0A1EF04F007
:10087800EA51E91109E1120EE75D0B0EE859D8B00B
:1008880048EF04F04AEF04F0A1EF04F0000E010174
:100898005F6F000E5E6F8451D8B455EF04F057EFC8
:1008A80004F06DEF04F0624B632BD8900001DB3548
:1008B800DB6FDC35DC6FDD35DD6FDE35DE6FDF35B8
:1008C800DF6FE035E06FE135E16FE235E26F92EF1F
:1008D80004F0624B632BD8900001DB35DB6FDC350D
:1008E800DC6FDD35DD6FDE35DE6FDF35DF6FE03580
:1008F800E06FE135E16FE235E26F010EDB11DB6F8E
:10090800DC51DC6FDD51DD6FDE51DE6FDF51DF6FF3
:10091800E051E06FE151E16FE251E26F380E010101
:1009280062196311D8A49BEF04F09DEF04F027EF40
:100938000CF0B7EC48F027EF0CF0EA51E9110BE1A5
:100948004A0EE75D040EE859D8A0ADEF04F0AFEF0A
:1009580004F01EEF05F0EA51E91108E1E705060E7B
:10096800E859D8B0BAEF04F0BCEF04F01EEF05F078
:1009780001015E4B5F2B5E055F11D8A4C6EF04F042
:10098800C8EF04F0CAEF04F027EF0CF0000E5F6F19
:10099800000E5E6F8451D8A4D4EF04F0D6EF04F0B3
:1009A800FDEF04F0624B632BD8900001DB35DB6F61
:1009B800DC35DC6FDD35DD6FDE35DE6FDF35DF6FB3
:1009C800E035E06FE135E16FE235E26F010EDB11F2
:1009D800DB6FDC51DC6FDD51DD6FDE51DE6FDF5127
:1009E800DF6FE051E06FE151E16FE251E26F11EF2B
:1009F80005F0624B632BD8900001DB35DB6FDC35EB
:100A0800DC6FDD35DD6FDE35DE6FDF35DF6FE0355E
:100A1800E06FE135E16FE235E26F380E01016219EE
:100A28006311D8A41AEF05F01CEF05F027EF0CF0BE
:100A38009DEF04F0730E3F6EFF0E406EE7C041F06D
:100A4800E8C042F0E9C043F0EAC044F059EC48F08D
:100A5800475007E1C80E465CD8B035EF05F037EFD0
:100A680005F0AFEF01F0820E0001606F050E616FB7
:100A7800D8904634D96E4734DA6ED890D936DA36FB
:100A88006051D9266151DA22E7C0DEFFE8C0DEFFF7
:100A9800E9C0DEFFEAC0DEFF000E4624D96E020E72
:100AA8004720DA6EDF6AAFEF01F04950D8B45FEF44
:100AB80005F061EF05F0E2EF06F0030E4B18D8A43D
:100AC80068EF05F06AEF05F0E2EF06F0475007E13E
:100AD800C80E465CD8B073EF05F075EF05F094EFDB
:100AE80005F0820E606F050E616FD8904634D96E9E
:100AF8004734DA6ED890D936DA366051D926615142
:100B0800DA22E7C0DEFFE8C0DEFFE9C0DEFFEAC0A8
:100B1800DEFF000E4624D96E020E4720DA6EDF6A29
:100B2800EA51E9110BE1470EE75D050EE859D8A037
:100B3800A0EF05F0A2EF05F018EF06F0EA51E91171
:100B480009E13A0EE75D070EE859D8B0AEEF05F0B7
:100B5800B0EF05F018EF06F0010E4624606F000EA6
:100B68004720616F60B1BBEF05F0BDEF05F0C2EF44
:100B780005F0010E0101886F27EF0CF00101885183
:100B8800D8A4C9EF05F0CBEF05F0EFEF05F0624B05
:100B9800632BD8900001DB35DB6FDC35DC6FDD358E
:100BA800DD6FDE35DE6FDF35DF6FE035E06FE135B5
:100BB800E16FE235E26F0101635109E1400E625DC8
:100BC800D8A0E9EF05F0EBEF05F027EF0CF0CBEC40
:100BD80048F027EF0CF0000E4624D96E020E47208D
:100BE800DA6E020EDF6E0001EB05D8A4FEEF05F009
:100BF80000EF06F00EEF06F03B0E3F6EFE0E406E65
:100C0800E7C041F0E8C042F0E9C043F0EAC044F070
:100C180059EC48F046C060F147C061F1000E476EDC
:100C2800000E466EAFEF01F0EA51E9110BE1590EE3
:100C3800E75D020EE859D8A024EF06F026EF06F08B
:100C4800A2EF06F0EA51E91109E14C0EE75D040E46
:100C5800E859D8B032EF06F034EF06F0A2EF06F00C
:100C6800010E4624606F000E4720616F60B13FEFB0
:100C780006F041EF06F045EF06F00101886B27EF1B
:100C88000CF001018805D8A44CEF06F04EEF06F0F1
:100C980081EF06F0624B632BD8900001DB35DB6FE8
:100CA800DC35DC6FDD35DD6FDE35DE6FDF35DF6FC0
:100CB800E035E06FE135E16FE235E26F010EDB11FF
:100CC800DB6FDC51DC6FDD51DD6FDE51DE6FDF5134
:100CD800DF6FE051E06FE151E16FE251E26F010136
:100CE800635109E1400E625DD8A07DEF06F07FEF09
:100CF80006F027EF0CF0EBEF05F0000E4624D96E56
:100D0800020E4720DA6E020EDF6E0001EB05D8A452
:100D180090EF06F092EF06F00EEF06F0460E3F6EEB
:100D2800FE0E406EE7C041F0E8C042F0E9C043F073
:100D3800EAC044F059EC48F00EEF06F0730E3F6E2F
:100D4800FF0E406EE7C041F0E8C042F0E9C043F052
:100D5800EAC044F059EC48F0475007E1C80E465C39
:100D6800D8B0B9EF06F0BBEF06F0DCEF06F0820E64
:100D78000001606F050E616FD8904634D96E473414
:100D8800DA6ED890D936DA366051D9266151DA222E
:100D9800E7C0DEFFE8C0DEFFE9C0DEFFEAC0DEFF35
:100DA800000E4624D96E020E4720DA6E030EDF6E5F
:100DB80046C060F147C061F1AFEF01F04950D8B4C7
:100DC800E8EF06F0EAEF06F042EF08F0050E4B18E0
:100DD800D8A4F1EF06F0F3EF06F042EF08F049501F
:100DE800D8B4F9EF06F0FBEF06F042EF08F0EA514D
:100DF800E9110BE18D0EE75D050EE859D8A007EF64
:100E080007F009EF07F084EF07F0EA51E91109E16B
:100E1800B80EE75D060EE859D8B015EF07F017EFE2
:100E280007F084EF07F0D890DB35DB6FDC35DC6F3B
:100E3800DD35DD6FDE35DE6FDF35DF6FE035E06F26
:100E4800E135E16FE235E26F010EDB11DB6FDC515A
:100E5800DC6FDD51DD6FDE51DE6FDF51DF6FE0519A
:100E6800E06FE151E16FE251E26F475007E1960E02
:100E7800465CD8B042EF07F044EF07F063EF07F0A5
:100E8800820E606F050E616FD8904634D96E473474
:100E9800DA6ED890D936DA366051D9266151DA221D
:100EA800E7C0DEFFE8C0DEFFE9C0DEFFEAC0DEFF24
:100EB800000E4624D96E020E4720DA6EDF6A380E1D
:100EC80046184710D8A46BEF07F06DEF07F027EF2F
:100ED8000CF0C1EC48F027EF0CF0010EDB11DB6FD2
:100EE800DC51DC6FDD51DD6FDE51DE6FDF51DF6F0E
:100EF800E051E06FE151E16FE251E26F27EF0CF052
:100F0800EA51E9110BE1810EE75D020EE859D8A01C
:100F180090EF07F092EF07F0FBEF07F0EA51E911C5
:100F280009E1AC0EE75D030EE859D8B09EEF07F073
:100F3800A0EF07F0FBEF07F0D890DB35DB6FDC356F
:100F4800DC6FDD35DD6FDE35DE6FDF35DF6FE03519
:100F5800E06FE135E16FE235E26F475007E1960E49
:100F6800465CD8B0BAEF07F0BCEF07F0DBEF07F04C
:100F7800820E606F050E616FD8904634D96E473483
:100F8800DA6ED890D936DA366051D9266151DA222C
:100F9800E7C0DEFFE8C0DEFFE9C0DEFFEAC0DEFF33
:100FA800000E4624D96E020E4720DA6EDF6A380E2C
:100FB80046184710D8A4E3EF07F0E5EF07F027EF4E
:100FC8000CF06DEF07F0D8900001DB35DB6FDC35F6
:100FD800DC6FDD35DD6FDE35DE6FDF35DF6FE03589
:100FE800E06FE135E16FE235E26F27EF0CF030ECAE
:100FF80049F046C060F147C061F1475007E1C80EAB
:10100800465CD8B00AEF08F00CEF08F02DEF08F0B6
:10101800820E0001606F050E616FD8904634D96E5C
:101028004734DA6ED890D936DA366051D92661510C
:10103800DA22E7C0DEFFE8C0DEFFE9C0DEFFEAC073
:10104800DEFF000E4624D96E020E4720DA6E030E2C
:10105800DF6E0001EB05D8A434EF08F036EF08F096
:1010680027EF0CF0F00E3F6EFE0E406E46C041F0CA
:1010780047C042F059EC48F027EF0CF0020E4B182D
:10108800D8A449EF08F04BEF08F073EF09F0495086
:10109800D8B451EF08F053EF08F073EF09F0EA51B4
:1010A800E9110BE1570EE75D040EE859D8A05FEF90
:1010B80008F061EF08F0C9EF08F0EA51E91109E119
:1010C800AA0EE75D050EE859D8B06DEF08F06FEF8E
:1010D80008F0C9EF08F0D890DB35DB6FDC35DC6F42
:1010E800DD35DD6FDE35DE6FDF35DF6FE035E06F74
:1010F800E135E16FE235E26F010EDB11DB6FDC51A8
:10110800DC6FDD51DD6FDE51DE6FDF51DF6FE051E7
:10111800E06FE151E16FE251E26F475007E1960E4F
:10112800465CD8B09AEF08F09CEF08F0BBEF08F0E7
:10113800820E606F050E616FD8904634D96E4734C1
:10114800DA6ED890D936DA366051D9266151DA226A
:10115800E7C0DEFFE8C0DEFFE9C0DEFFEAC0DEFF71
:10116800000E4624D96E020E4720DA6EDF6A1A0E88
:1011780046184710D8A4C3EF08F0C5EF08F027EFCA
:101188000CF0D5EC48F027EF0CF0EA51E9110BE12F
:10119800D70EE75D010EE859D8A0D5EF08F0D7EFD4
:1011A80008F02CEF09F0EA51E91109E12A0EE75D90
:1011B800030EE859D8B0E3EF08F0E5EF08F02CEF9C
:1011C80009F0D890DB35DB6FDC35DC6FDD35DD6FA2
:1011D800DE35DE6FDF35DF6FE035E06FE135E16F7B
:1011E800E235E26F475007E1960E465CD8B0FFEF54
:1011F80008F001EF09F020EF09F0820E606F050E8C
:10120800616FD8904634D96E4734DA6ED890D936A3
:10121800DA366051D9266151DA22E7C0DEFFE8C02C
:10122800DEFFE9C0DEFFEAC0DEFF000E4624D96E0D
:10123800020E4720DA6EDF6A1A0E46184710D8A445
:1012480028EF09F02AEF09F027EF0CF0C5EF08F0B6
:1012580030EC49F046C060F147C061F1475007E102
:10126800C80E465CD8B03BEF09F03DEF09F05EEFE1
:1012780009F0820E0001606F050E616FD890463448
:10128800D96E4734DA6ED890D936DA366051D92615
:101298006151DA22E7C0DEFFE8C0DEFFE9C0DEFF09
:1012A800EAC0DEFF000E4624D96E020E4720DA6E31
:1012B800030EDF6E0001EB05D8A465EF09F067EFB8
:1012C80009F027EF0CF0E80E3F6EFE0E406E46C0A8
:1012D80041F047C042F059EC48F027EF0CF04B04BE
:1012E800D8A479EF09F07BEF09F027EF0CF0EA5169
:1012F800E9110BE18C0EE75D0A0EE859D8A087EFDB
:1013080009F089EF09F0C0EF0AF0EA51E91109E1A3
:10131800BB0EE75D0C0EE859D8B095EF09F097EFD2
:1013280009F0C0EF0AF06C0E46184710D8A49FEFDA
:1013380009F0A1EF09F0D1EF09F001018A6B896B7F
:10134800820E0001606F050E616FD8904634D96E29
:101358004734DA6ED890D936DA366051D9266151D9
:10136800DA22E7C0DEFFE8C0DEFFE9C0DEFFEAC040
:10137800DEFF000E4624D96E020E4720DA6EDF6AC1
:1013880046C060F147C061F1496A01018A6B866B0A
:10139800896B010E8B6F27EF0CF0020E4618471071
:1013A800D8B4D9EF09F0DBEF09F0E5EF09F0030E47
:1013B80046184710D8A4E3EF09F0E5EF09F079EFF4
:1013C8000AF0020E46184710D8A4EDEF09F0EFEF27
:1013D80009F0F5EF09F0E7C064F1E8C065F127EF1F
:1013E8000CF0030E46184710D8A4FDEF09F0FFEFE4
:1013F80009F079EF0AF0010166510001606F0101FF
:1014080067510001616F626B636B7A0E646F050E42
:10141800656FD8904634D96E4734DA6ED890D9368D
:10142800DA366451D9266551DA2260C0DEFF61C020
:10143800DEFF62C0DEFF63C0DEFFFE0E4624D96E0B
:10144800010E4720DA6EDF6A010164510001606F06
:10145800010165510001616F626B636B7E0E646F01
:10146800050E656FD8904634D96E4734DA6ED89039
:10147800D936DA366451D9266551DA2260C0DEFFE2
:1014880061C0DEFF62C0DEFF63C0DEFFFF0E4624E0
:10149800D96E010E4720DA6EDF6A820E606F050E84
:1014A800616FD8904634D96E4734DA6ED890D93601
:1014B800DA366051D9266151DA22E7C0DEFFE8C08A
:1014C800DEFFE9C0DEFFEAC0DEFF000E4624D96E6B
:1014D800020E4720DA6EDF6A010E0101866F000EE8
:1014E800636F000E626F57EF03F030EC49F046C0AF
:1014F80060F147C061F1475007E1C80E465CD8B0BB
:1015080088EF0AF08AEF0AF0ABEF0AF0820E0001CA
:10151800606F050E616FD8904634D96E4734DA6E25
:10152800D890D936DA366051D9266151DA22E7C027
:10153800DEFFE8C0DEFFE9C0DEFFEAC0DEFF000E26
:101548004624D96E020E4720DA6E030EDF6E0001C4
:10155800EB05D8A4B2EF0AF0B4EF0AF027EF0CF0CD
:101568005F0E3F6EFF0E406E46C041F047C042F02E
:1015780059EC48F027EF0CF001018651D8B4C7EFB9
:101588000AF0C9EF0AF027EF0CF00001EA51E9115F
:101598000BE1930EE75D060EE859D8A0D6EF0AF0E6
:1015A800D8EF0AF05FEF0BF0EA51E91109E1C20E3A
:1015B800E75D080EE859D8B0E4EF0AF0E6EF0AF064
:1015C8005FEF0BF0475007E1960E465CD8B0EFEF9F
:1015D8000AF0F1EF0AF010EF0BF0820E606F050EC3
:1015E800616FD8904634D96E4734DA6ED890D936C0
:1015F800DA366051D9266151DA22E7C0DEFFE8C049
:10160800DEFFE9C0DEFFEAC0DEFF000E4624D96E29
:10161800020E4720DA6EDF6A46B015EF0BF017EFBF
:101628000BF019EF0BF0BDEF05F001018851D8A4BC
:1016380020EF0BF022EF0BF038EF0BF0624B632B2F
:10164800D8900001DB35DB6FDC35DC6FDD35DD6F15
:10165800DE35DE6FDF35DF6FE035E06FE135E16FF6
:10166800E235E26F71EF07F0000E476E000E466E2E
:1016780030EC49F00001EB05D8A445EF0BF047EF3B
:101688000BF0C1EF00F0000E4624D96E020E472081
:10169800DA6E020EDF6E870E3F6EFE0E406EE7C0FA
:1016A80041F0E8C042F0E9C043F0EAC044F059EC28
:1016B80048F027EF0CF0EA51E9110BE1A70EE75DBE
:1016C800020EE859D8A06BEF0BF06DEF0BF0E2EFCC
:1016D8000BF0EA51E91109E1D60EE75D040EE8596D
:1016E800D8B079EF0BF07BEF0BF0E2EF0BF047503F
:1016F80007E1960E465CD8B084EF0BF086EF0BF04E
:10170800A5EF0BF0820E606F050E616FD89046341E
:10171800D96E4734DA6ED890D936DA366051D92680
:101728006151DA22E7C0DEFFE8C0DEFFE9C0DEFF74
:10173800EAC0DEFF000E4624D96E020E4720DA6E9C
:10174800DF6A46B0AAEF0BF0ACEF0BF0AEEF0BF090
:1017580041EF06F001018805D8A4B5EF0BF0B7EF0B
:101768000BF0BBEF0BF0624B632BE7EF07F0000EBB
:10177800476E000E466E30EC49F00001EB05D8A428
:10178800C8EF0BF0CAEF0BF0C1EF00F0000E4624D3
:10179800D96E020E4720DA6E020EDF6E510E3F6ED2
:1017A800FE0E406EE7C041F0E8C042F0E9C043F0E9
:1017B800EAC044F059EC48F027EF0CF030EC49F05F
:1017C80046C060F147C061F1475007E1C80E465C6A
:1017D800D8B0F1EF0BF0F3EF0BF014EF0CF0820E32
:1017E8000001606F050E616FD8904634D96E47349A
:1017F800DA6ED890D936DA366051D9266151DA22B4
:10180800E7C0DEFFE8C0DEFFE9C0DEFFEAC0DEFFBA
:10181800000E4624D96E020E4720DA6E030EDF6EE4
:101828000001EB05D8A41BEF0CF01DEF0CF0C1EF85
:1018380000F0F80E3F6EFE0E406E46C041F047C005
:1018480042F059EC48F0F29071C0F5FF70C0F8FF13
:101858006FC0F7FF6EC0F6FF6DC0F4FF6CC0F3FFFA
:101868006BC0DAFF6AC0D9FF69C0E2FF68C0E1FF58
:1018780067C0EAFF66C0E9FF51921100D5EF42F058
:10188800CAC072F0CBC073F0DF0E0001746FFF0E98
:10189800756FADEC44F0000172517311D8A457EF85
:1018A8000CF059EF0CF05DEF0CF08CEC3CF06CEFA9
:1018B80013F0CAC072F0CBC073F0DC0E746FFF0E69
:1018C800756FADEC44F0000172517311D8A46FEF3D
:1018D8000CF071EF0CF0C4EF0CF0EB2B030EEB6582
:1018E80078EF0CF07AEF0CF07BEF0CF0EB6B910ECD
:1018F800B16FFE0EB26FEBC0B3F0B46B31EC48F0D1
:101908000001EB51D8A48BEF0CF08DEF0CF093EFA6
:101918000CF08B0EB16FFD0EB26F31EC48F0000188
:10192800EB05D8A49AEF0CF09CEF0CF0A2EF0CF0AA
:10193800B20EB16FF80EB26F31EC48F0020E000132
:10194800EB19D8A4AAEF0CF0ACEF0CF0B2EF0CF046
:10195800910EB16FFC0EB26F31EC48F0030E00012E
:10196800EB19D8A4BAEF0CF0BCEF0CF06CEF13F045
:10197800580EB16FF90EB26F31EC48F06CEF13F0FE
:10198800CAC072F0CBC073F0E90E746FFF0E756FAA
:10199800ADEC44F0000172517311D8A4D6EF0CF0ED
:1019A800D8EF0CF020EF0DF04A2A020E4A18D8A4FE
:1019B800E0EF0CF0E2EF0CF0E3EF0CF04A6A520EA5
:1019C800B16FFB0EB26F4A50040DEC0EF324D96EC2
:1019D800010EF420DA6EDECFB3F0DECFB4F0DECF46
:1019E800B5F0DECFB6F031EC48F04A50D8A4FFEF9E
:1019F8000CF001EF0DF00CEF0DF03A0E0001B16F95
:101A0800FB0EB26F31EC48F0060E7D6E820EAF6EA3
:101A18004A04D8A412EF0DF014EF0DF06CEF13F098
:101A2800C30E0001B16FFD0EB26F31EC48F07D6A54
:101A3800440EAF6E6CEF13F0CAC072F0CBC073F0F7
:101A4800EB0E746FFF0E756FADEC44F00001725130
:101A58007311D8A432EF0DF034EF0DF052EF0DF002
:101A68004A50D8B43AEF0DF03CEF0DF042EF0DF0CC
:101A7800DA0EB16FF70EB26F31EC48F07F0E00014D
:101A8800B16FF50EB26F31EC48F0000E0001876FB0
:101A9800010E866F79EC2AF06CEF13F0CAC072F071
:101AA800CBC073F0ED0E746FFF0E756FADEC44F0A4
:101AB800000172517311D8A464EF0DF066EF0DF0B8
:101AC80084EF0DF04A50D8B46CEF0DF06EEF0DF0C6
:101AD80074EF0DF0DA0EB16FF70EB26F31EC48F01B
:101AE800DC0E0001B16FF50EB26F31EC48F0000E5C
:101AF8000001876F020E866F79EC2AF06CEF13F005
:101B0800CAC072F0CBC073F0EF0E746FFF0E756F22
:101B1800ADEC44F0000172517311D8A496EF0DF0AA
:101B280098EF0DF09CEF0DF06DEC13F06CEF13F0E7
:101B3800CAC072F0CBC073F0F10E746FFF0E756FF0
:101B4800ADEC44F0000172517311D8A4AEEF0DF062
:101B5800B0EF0DF062EF0EF0F29E470EB16FFC0E83
:101B6800B26F31EC48F026EF0EF0660E0001B16F4F
:101B7800FF0EB26F31EC48F04EEF0EF0FC0E000194
:101B8800B16FFC0EB26F4CC1B3F04DC1B4F04EC191
:101B9800B5F04FC1B6F031EC48F04EEF0EF0ED0E57
:101BA8000001B16FFA0EB26F4CC1B3F04DC1B4F081
:101BB8004EC1B5F04FC1B6F031EC48F04EEF0EF023
:101BC8007E0E0001B16FF90EB26F31EC48F04EEFA6
:101BD8000EF0800E0001B16FFA0EB26F31EC48F0D2
:101BE8004EEF0EF0080E0001B16FF90EB26F31EC36
:101BF80048F04EEF0EF04E0E0001B16FFD0EB26FC1
:101C080031EC48F04EEF0EF0670E0001B16FFE0E9A
:101C1800B26F31EC48F04EEF0EF0070E0001B16FD5
:101C2800FB0EB26F31EC48F04EEF0EF0030E0001E0
:101C3800B16FFB0EB26F98C1B3F0B46B31EC48F0E2
:101C48004EEF0EF001019851000AD8B4B9EF0DF02B
:101C5800010AD8B4C2EF0DF0030AD8B4D3EF0DF0DF
:101C6800010AD8B4E4EF0DF0070AD8B4EDEF0DF08F
:101C7800010AD8B4F6EF0DF0030AD8B4FFEF0DF05F
:101C8800010AD8B408EF0EF00F0AD8B411EF0EF01D
:101C98001AEF0EF06A0E0001B16FFB0EB26F97C11A
:101CA800B3F0B46B31EC48F0D00E0001B16FFA0E0E
:101CB800B26F31EC48F0F28E6CEF13F0CAC072F0DC
:101CC800CBC073F0F30E746FFF0E756FADEC44F07C
:101CD800000172517311D8A474EF0EF076EF0EF074
:101CE800F5EF0EF0F29E5E0EB16FFD0EB26F91C170
:101CF800B3F0B46B31EC48F0F30E0001B16FFB0E9A
:101D0800B26F90C1B3F0B46B31EC48F07F0E0001B4
:101D1800B16FFC0EB26F6EC1B3F06FC1B4F031ECAD
:101D280048F0010E0001E36F000EE46F000EE56F4E
:101D3800000EE66FE651E511E41109E1830EE35D5B
:101D4800D8A0A9EF0EF0ABEF0EF0ADEF0EF0D6EF86
:101D58000EF0B90EB16FFF0EB26FE3C0B3F0E4C07E
:101D6800B4F0E5C0B5F0E6C0B6F031EC48F0B10E1D
:101D78000001B16FFF0EB26F000EE325D96E050E9C
:101D8800E421DA6EDF50CC6FCC51B36FB46B31EC19
:101D980048F0010E0001E327000EE423E523E623C3
:101DA8009EEF0EF0D00EB16FFA0EB26F31EC48F024
:101DB800EB0E0001B16FFC0EB26F6CC1B3F06DC1D8
:101DC800B4F031EC48F09A0E0001B16FFD0EB26F1D
:101DD8006AC1B3F06BC1B4F031EC48F0F28E6CEF2D
:101DE80013F0CAC072F0CBC073F0F50E746FFF0E1B
:101DF800756FADEC44F0000172517311D8A407EF70
:101E08000FF009EF0FF07AEF0FF0F29E000EE36F7C
:101E1800000EE46F000EE56F000EE66FE651E51167
:101E2800E41109E1C80EE35DD8A01DEF0FF01FEF24
:101E38000FF021EF0FF077EF0FF0E3C0BCF0E4C034
:101E4800BDF0E5C0BEF0E6C0BFF09AEC32F0B90EC6
:101E58000001B16FFF0EB26FE3C0B3F0E4C0B4F09D
:101E6800E5C0B5F0E6C0B6F031EC48F0940E0001DC
:101E7800B16FFF0EB26F00C3B3F0B46B31EC48F032
:101E8800010E0001E325CC6F000EE421CD6F000E9A
:101E9800E521CE6F000EE621CF6F0F0ECC15D06F67
:101EA800000ECD15D16F000ECE15D26F000ECF15D6
:101EB800D36FD051D111D211D311D8A466EF0FF03E
:101EC80068EF0FF06EEF0FF0D00EB16FFA0EB26F31
:101ED80031EC48F0010E0001E327000EE423E5236E
:101EE800E62312EF0FF0F28E6CEF13F0CAC072F017
:101EF800CBC073F0C50E746FFB0E756FADEC44F07C
:101F0800000172517311D8A48CEF0FF08EEF0FF00F
:101F180014EF10F0F29E000EE36F000EE46F000E57
:101F2800E56F000EE66FE651E5110AE1E329030EBD
:101F3800E459D8A0A2EF0FF0A4EF0FF0A6EF0FF02E
:101F480011EF10F0E3C072F0E4C073F066EC48F0F3
:101F58000101C76F0F0E0001E315CC6F000EE415E9
:101F6800CD6F000EE515CE6F000EE615CF6FCC5184
:101F7800CD11CE11CF11D8A4C4EF0FF0C6EF0FF0DA
:101F8800D4EF0FF0BD0EB16FFF0EB26FE3C0B3F028
:101F9800E4C0B4F0E5C0B5F0E6C0B6F031EC48F006
:101FA800940E0001B16FFF0EB26FC7C1B3F0B46BEE
:101FB80031EC48F0010E0001E325CC6F000EE4215E
:101FC800CD6F000EE521CE6F000EE621CF6F0F0E0C
:101FD800CC15D06F000ECD15D16F000ECE15D26F77
:101FE800000ECF15D36FD051D111D211D311D8A46F
:101FF80000EF10F002EF10F008EF10F0D00EB16F04
:10200800FA0EB26F31EC48F0010E0001E327000E22
:10201800E423E523E62397EF0FF0F28E6CEF13F03D
:10202800CAC072F0CBC073F0F70E746FFF0E756FF5
:10203800ADEC44F0000172517311D8A426EF10F0F2
:1020480028EF10F0D7EF10F00101CC6BF29E6D0E67
:102058000001B16FFC0EB26F31EC48F0000E0001C8
:10206800E36F000EE46F000EE56F000EE66F7FEF82
:1020780010F0E3C0BCF0E4C0BDF0E5C0BEF0E6C0BF
:10208800BFF0800EC06F62EC33F0800E0001E325D4
:10209800E36F000EE421E46F000EE521E56F000E0A
:1020A800E621E66F000E0101C86F000EC96F000E31
:1020B800CA6F000ECB6FCB51CA11C91109E1800E4E
:1020C800C85DD8A06AEF10F06CEF10F06EEF10F05A
:1020D8007FEF10F0000EC825D96E030EC921DA6E05
:1020E800DF50CC19CC6F010EC827000EC923CA23B4
:1020F800CB235FEF10F00001E6510CE1E329FF0E5E
:10210800E459010EE559D8A08CEF10F08EEF10F0CD
:102118003DEF10F0000EBC6F000EBD6F000EBE6FDD
:10212800000EBF6F9AEC32F0030100510001E36F1B
:10213800E46BE56BE66B030EE319E411E511E611B8
:10214800D8B4A9EF10F0ABEF10F0B1EF10F0DE0E3D
:10215800B16FF80EB26F31EC48F0210E0001B16F8B
:10216800FB0EB26FCCC1B3F0B46B31EC48F0010197
:10217800CC51D8A4C2EF10F0C4EF10F0CDEF10F09E
:10218800850E0001B16FFF0EB26F31EC48F0D4EF4D
:1021980010F0CD0E0001B16FFE0EB26F31EC48F0B9
:1021A800F28E6CEF13F0CAC072F0CBC073F0F90E68
:1021B800746FFF0E756FADEC44F00001725173112E
:1021C800D8A4E9EF10F0EBEF10F0D0EF11F0000E0B
:1021D8000101CD6F000ECE6F000ECF6F000ED06FD5
:1021E800F29EBFEF11F0CDC1BCF0CEC1BDF0CFC1A2
:1021F800BEF0D0C1BFF0800E0001C06F62EC33F0BA
:10220800000E0001E36F000EE46F000EE56F000E94
:10221800E66FE651E511E41109E1800EE35DD8A00F
:1022280018EF11F01AEF11F01CEF11F0B2EF11F0E6
:102238000101CD510001E3250101C36FCE51000119
:10224800E4210101C46FCF510001E5210101C56FEF
:10225800D0510001E6210101C66F0F0E0001E31500
:10226800CC6F000EE415CD6F000EE515CE6F000E95
:10227800E615CF6FCC51CD11CE11CF11D8A447EFB1
:1022880011F049EF11F066EF11F00101C35100019F
:10229800BC6F0101C4510001BD6F0101C5510001AE
:1022A800BE6F0101C6510001BF6FC06BC16BC26B2D
:1022B800C36B8EEC47F0E60E0001B16FFE0EB26FF5
:1022C80031EC48F0B50E0001B16FFF0EB26F000E91
:1022D800E325D96E030EE421DA6EDF50CC6FCC51C2
:1022E800B36FB46B31EC48F0010E0001E325CC6FFD
:1022F800000EE421CD6F000EE521CE6F000EE62121
:10230800CF6F0F0ECC15D06F000ECD15D16F000E0C
:10231800CE15D26F000ECF15D36FD051D111D21177
:10232800D311D8A49AEF11F09CEF11F0A2EF11F09D
:10233800D00EB16FFA0EB26F31EC48F0E40E00D057
:1023480000D0E82EFCD700D000D0010E0001E32712
:10235800000EE423E523E6230DEF11F0800E0101C2
:10236800CD25CD6F000ECE21CE6F000ECF21CF6FC1
:10237800000ED021D06FD0510CE1CD29FF0ECE59DF
:10238800010ECF59D8A0CBEF11F0CDEF11F0F7EF38
:1023980010F0F28E6CEF13F0CAC072F0CBC073F07D
:1023A800FB0E746FFF0E756FADEC44F000017251B7
:1023B8007311D8A4E2EF11F0E4EF11F050EF13F02D
:1023C800000EE36F000EE46F000EE56F000EE66F7F
:1023D800E3C0CCF0E4C0CDF0D890CC37CD37D8905E
:1023E800CC37CD37000ECC25726F010ECD21736F1F
:1023F80066EC48F00001CE6FCE510101D16FD26B6F
:10240800D36BD46BD56BD66BD76BD86BE3C0CCF0E2
:10241800E4C0CDF00001D890CC37CD37D890CC3778
:10242800CD37010ECC25726F010ECD21736F66EC8E
:1024380048F00001CE6FCEC0CFF0D06BD16BD26B1D
:10244800D1C0D2F0D0C0D1F0CFC0D0F0CF6BCF5137
:10245800D36FD051D46FD151D56FD251D66FD76BBE
:10246800D86BD96BDA6B0101D1510001D325010179
:10247800D16FD2510001D4210101D26FD351000193
:10248800D5210101D36FD4510001D6210101D46FA8
:10249800D5510001D7210101D56FD6510001D821AE
:1024A8000101D66FD7510001D9210101D76FD85149
:1024B8000001DA210101D86FE3C0CCF0E4C0CDF00F
:1024C8000001D890CC37CD37D890CC37CD37020E15
:1024D800CC25726F010ECD21736F66EC48F00001B8
:1024E800CE6FCEC0CFF0D06BD16BD26BD0C0D2F054
:1024F800CFC0D1F0D06BCF6BCF51D36FD051D46F49
:10250800D151D56FD251D66FD76BD86BD96BDA6BE7
:102518000101D1510001D3250101D16FD251000130
:10252800D4210101D26FD3510001D5210101D36F0C
:10253800D4510001D6210101D46FD5510001D72112
:102548000101D56FD6510001D8210101D66FD751AD
:102558000001D9210101D76FD8510001DA21010109
:10256800D86FE3C0CCF0E4C0CDF00001D890CC37F0
:10257800CD37D890CC37CD37030ECC25726F010EEE
:10258800CD21736F66EC48F00001CE6FCEC0CFF05E
:10259800D06BD16BD26BCFC0D2F0D16BD06BCF6B7D
:1025A800CF51D36FD051D46FD151D56FD251D66F8F
:1025B800D76BD86BD96BDA6B0101D1510001D325E8
:1025C8000101D16FD2510001D4210101D26FD35141
:1025D8000001D5210101D36FD4510001D621010199
:1025E800D46FD5510001D7210101D56FD651000113
:1025F800D8210101D66FD7510001D9210101D76F28
:10260800D8510001DA210101D86FA30E0001B16F82
:10261800FC0EB26F010EE325B36F000EE421B46F18
:10262800000EE521B56F000EE621B66F31EC48F0DB
:10263800D1C1BCF0D2C1BDF0D3C1BEF0D4C1BFF08E
:10264800D5C1C0F0D6C1C1F0D7C1C2F0D8C1C3F05E
:102658008EEC47F0D00E0001B16FFA0EB26F31EC7C
:1026680048F0010E0001E327000EE423E523E623EA
:10267800E651E511E41109E1140EE35DD8A047EF36
:1026880013F049EF13F0ECEF11F0E307000EE45BF1
:10269800E55BE65B6CEF13F0CAC072F0CBC073F079
:1026A800FD0E746FFF0E756FADEC44F000017251B2
:1026B8007311D8A462EF13F064EF13F066EF13F010
:1026C8006CEF13F0820EB16FFB0EB26F31EC48F075
:1026D8001200F29E0101856B0C0E0001B16FFE0E17
:1026E800B26F60C1B3F061C1B4F031EC48F04B5047
:1026F800D8A481EF13F083EF13F08AEF13F0320EB2
:102708000001B16FFC0EB26F31EC48F0020E4B18AD
:10271800D8A491EF13F093EF13F09AEF13F03E0E55
:102728000001B16FFD0EB26F31EC48F0040E4B188A
:10273800D8A4A1EF13F0A3EF13F0AAEF13F00D0E36
:102748000001B16FFD0EB26F31EC48F0030E4B186B
:10275800D8A4B1EF13F0B3EF13F0BAEF13F0B00E43
:102768000001B16FFB0EB26F31EC48F0050E4B184B
:10277800D8A4C1EF13F0C3EF13F0CAEF13F05A0E49
:102788000001B16FFC0EB26F31EC48F04B04D8A4D5
:10279800D0EF13F0D2EF13F0D9EF13F0080E0001C9
:1027A800B16FFC0EB26F31EC48F0D00E0001B16F82
:1027B800FA0EB26F31EC48F0010E0001C36F010E42
:1027C800C26FFF0EC325726F736BFF0E7323000E6B
:1027D800756F140E746FEBEC40F00001C251140DCC
:1027E800F3CFBCF0F4CFBDF07251BC25BE6F73516E
:1027F800BD21BF6FED0EBE25C06FFF0EBF21C16F9B
:10280800C0C0E3F0C1C0E4F0000EE4BFFF0EE56F06
:10281800E66F010160510001BC6F010161510001C7
:10282800BD6FBE6BBF6BE351BC5DE451BD59E55153
:10283800BE59E651BF59D8A024EF14F026EF14F082
:1028480057EF18F0CD0EB16FFF0EB26FE3C0B3F0C3
:10285800E4C0B4F0E5C0B5F0E6C0B6F031EC48F03D
:102868007E0E0001BC6F050EBD6FD890E335D96EA2
:10287800E435DA6ED890D936DA36BC51D926BD514E
:10288800DA22DECFC4F0DDCFC5F0820EBC6F050EB4
:10289800BD6FD890E335D96EE435DA6ED890D93665
:1028A800DA36BC51D926BD51DA22DECFE7F0DECFC9
:1028B800E8F0DECFE9F0DECFEAF07F0EB16FFF0E71
:1028C800B26FE7C0B3F0E8C0B4F0E9C0B5F0EAC051
:1028D800B6F031EC48F04B50D8A475EF14F077EF10
:1028E80014F07EEF14F0E50E0001B16FFE0EB26F2A
:1028F80031EC48F04B04D8A484EF14F086EF14F0C0
:102908003DEF15F00001EA51E9110BE1A90EE75D71
:102918008F0EE859D8A093EF14F095EF14F0ABEFB1
:1029280014F0EA51E91109E1780EE75D970EE859CC
:10293800D8B0A1EF14F0A3EF14F0ABEF14F0E40E4D
:10294800B16FFF0EB26F31EC48F01DEF15F0EA5190
:10295800E9110BE1A70EE75D020EE859D8A0B7EF21
:1029680014F0B9EF14F0CFEF14F0EA51E91109E1CE
:10297800D60EE75D040EE859D8B0C5EF14F0C7EFDE
:1029880014F0CFEF14F0D80EB16FFF0EB26F31EC28
:1029980048F01DEF15F0EA51E9110BE1930EE75DE0
:1029A800060EE859D8A0DBEF14F0DDEF14F0F3EFD2
:1029B80014F0EA51E91109E1C20EE75D080EE85981
:1029C800D8B0E9EF14F0EBEF14F0F3EF14F0DB0EEE
:1029D800B16FFF0EB26F31EC48F01DEF15F0EA5100
:1029E800E9110BE18C0EE75D0A0EE859D8A0FFEF5C
:1029F80014F001EF15F017EF15F0EA51E91109E1AC
:102A0800BB0EE75D0C0EE859D8B00DEF15F00FEFCF
:102A180015F017EF15F0E10EB16FFF0EB26F31EC44
:102A280048F01DEF15F0DE0EB16FFF0EB26F31ECFE
:102A380048F0000E0001E325D96E020EE421DA6E9B
:102A4800DF50D8B42AEF15F02CEF15F03DEF15F054
:102A5800480EB16FFF0EB26F000EE325D96E020E5D
:102A6800E421DA6EDF50BC6FBC51B36FB46B31EC4C
:102A780048F0020E4B18D8A444EF15F046EF15F0B5
:102A8800D9EF15F00001EA51E9110BE1130EE75DEA
:102A9800700EE859D8A053EF15F055EF15F06BEF0D
:102AA80015F0EA51E91109E1E20EE75D770EE85900
:102AB800D8B061EF15F063EF15F06BEF15F0E40E89
:102AC800B16FFF0EB26F31EC48F0B9EF15F0EA5173
:102AD800E9110BE1D70EE75D010EE859D8A077EFB1
:102AE80015F079EF15F08FEF15F0EA51E91109E1CA
:102AF8002A0EE75D030EE859D8B085EF15F087EF89
:102B080015F08FEF15F0D80EB16FFF0EB26F31ECE4
:102B180048F0B9EF15F0EA51E9110BE1570EE75DFE
:102B2800040EE859D8A09BEF15F09DEF15F0B3EF10
:102B380015F0EA51E91109E1AA0EE75D050EE85919
:102B4800D8B0A9EF15F0ABEF15F0B3EF15F0DB0E29
:102B5800B16FFF0EB26F31EC48F0B9EF15F0DE0E31
:102B6800B16FFF0EB26F31EC48F0000E0001E325A3
:102B7800D96E020EE421DA6EDF50D8B4C6EF15F034
:102B8800C8EF15F0D9EF15F0480EB16FFF0EB26F10
:102B9800000EE325D96E020EE421DA6EDF50BC6F19
:102BA800BC51B36FB46B31EC48F0040E4B18D8A489
:102BB800E0EF15F0E2EF15F098EF16F00001EA519A
:102BC800E9110BE1F50EE75D0F0EE859D8A0EFEF1C
:102BD80015F0F1EF15F007EF16F0EA51E91109E1E8
:102BE800C40EE75D170EE859D8B0FDEF15F0FFEFFA
:102BF80015F007EF16F0E40EB16FFF0EB26F31EC6F
:102C080048F078EF16F0EA51E9110BE14A0EE75D5A
:102C1800040EE859D8A013EF16F015EF16F02AEFB6
:102C280016F0EA51E91108E1E705060EE859D8B0AF
:102C380020EF16F022EF16F02AEF16F0D80EB16F3B
:102C4800FF0EB26F31EC48F078EF16F0EA51E91157
:102C58000BE15B0EE75D090EE859D8A036EF16F0D8
:102C680038EF16F04EEF16F0EA51E91109E1120EAD
:102C7800E75D0B0EE859D8B044EF16F046EF16F0B2
:102C88004EEF16F0DB0EB16FFF0EB26F31EC48F06D
:102C980078EF16F0EA51E9110BE1A50EE75D240E75
:102CA800E859D8A05AEF16F05CEF16F072EF16F05C
:102CB800EA51E91109E15C0EE75D260EE859D8B042
:102CC80068EF16F06AEF16F072EF16F0E10EB16FCA
:102CD800FF0EB26F31EC48F078EF16F0DE0EB16FF0
:102CE800FF0EB26F31EC48F0000E0001E325D96EFB
:102CF800020EE421DA6EDF50D8B485EF16F087EFC4
:102D080016F098EF16F0480EB16FFF0EB26F000E76
:102D1800E325D96E020EE421DA6EDF50BC6FBC5198
:102D2800B36FB46B31EC48F0030E4B18D8A49FEF87
:102D380016F0A1EF16F08EEF17F00001EA510DE141
:102D4800C30EE75D0E0EE859020EE959D8A0AFEFA1
:102D580016F0B1EF16F0C8EF16F0EA510BE10E0EBF
:102D6800E75D130EE859020EE959D8B0BEEF16F028
:102D7800C0EF16F0C8EF16F0E40EB16FFF0EB26F99
:102D880031EC48F06EEF17F0EA51E9110BE15B0EF8
:102D9800E75D1E0EE859D8A0D4EF16F0D6EF16F06E
:102DA800ECEF16F0EA51E91109E14E0EE75D200E4D
:102DB800E859D8B0E2EF16F0E4EF16F0ECEF16F0B1
:102DC800E10EB16FFF0EB26F31EC48F06EEF17F005
:102DD800E3B1F1EF16F0F3EF16F066EF17F0470ED8
:102DE800C45D050EC559D8A0FCEF16F0FEEF16F02D
:102DF8002BEF17F03A0EC45D070EC559D8B007EF90
:102E080017F009EF17F02BEF17F0EA51E9110BE172
:102E1800590EE75D020EE859D8A015EF17F017EF25
:102E280017F02BEF17F0EA51E91109E14C0EE75DB5
:102E3800040EE859D8B023EF17F025EF17F02BEF61
:102E480017F0DB0EB16FFF0EB26F31EC48F0590E80
:102E58000001C45D020EC559D8A035EF17F037EF51
:102E680017F06EEF17F04C0EC45D040EC559D8B0BC
:102E780040EF17F042EF17F06EEF17F0EA51E91143
:102E88000BE1470EE75D050EE859D8A04EEF17F0A5
:102E980050EF17F06EEF17F0EA51E91109E13A0E19
:102EA800E75D070EE859D8B05CEF17F05EEF17F052
:102EB8006EEF17F0D80EB16FFF0EB26F31EC48F01D
:102EC8006EEF17F0E50EB16FFE0EB26F31EC48F001
:102ED8006EEF17F0000E0001E325D96E020EE42113
:102EE800DA6EDF50D8B47BEF17F07DEF17F08EEF76
:102EF80017F0480EB16FFF0EB26F000EE325D96EC2
:102F0800020EE421DA6EDF50BC6FBC51B36FB46BB4
:102F180031EC48F0050E4B18D8A495EF17F097EF51
:102F280017F04EEF18F00001EA51E9110BE16B0EB2
:102F3800E75D180EE859D8A0A4EF17F0A6EF17F030
:102F4800BCEF17F0EA51E91109E1B60EE75D1C0E76
:102F5800E859D8B0B2EF17F0B4EF17F0BCEF17F09C
:102F6800E40EB16FFF0EB26F31EC48F02EEF18F09F
:102F7800EA51E9110BE1AF0EE75D0B0EE859D8A055
:102F8800C8EF17F0CAEF17F0E0EF17F0EA51E911B0
:102F980009E1DA0EE75D0C0EE859D8B0D6EF17F064
:102FA800D8EF17F0E0EF17F0E10EB16FFF0EB26F38
:102FB80031EC48F02EEF18F0EA51E9110BE1BD0EA3
:102FC800E75D020EE859D8A0ECEF17F0EEEF17F026
:102FD80004EF18F0EA51E91109E1E80EE75D030E84
:102FE800E859D8B0FAEF17F0FCEF17F004EF18F033
:102FF800D80EB16FFF0EB26F31EC48F02EEF18F01B
:10300800EA51E9110BE1AB0EE75D050EE859D8A0CE
:1030180010EF18F012EF18F028EF18F0EA51E91144
:1030280009E1D60EE75D060EE859D8B01EEF18F094
:1030380020EF18F028EF18F0DB0EB16FFF0EB26F1B
:1030480031EC48F02EEF18F0DE0EB16FFF0EB26FC4
:1030580031EC48F0000E0001E325D96E020EE421A0
:10306800DA6EDF50D8B43BEF18F03DEF18F04EEFB2
:1030780018F0480EB16FFF0EB26F000EE325D96E3F
:10308800020EE421DA6EDF50BC6FBC51B36FB46B33
:1030980031EC48F0D50E0001B16FFF0EB26F31EC84
:1030A80048F05DEF18F0DF0EB16FFE0EB26F31EC35
:1030B80048F00001C22B090EC26565EF18F067EFF2
:1030C80018F0E5EF13F0D00EB16FFA0EB26F31ECD5
:1030D80048F00001C32B140EC36575EF18F077EFA5
:1030E80018F0E3EF13F024EC49F0F28E1200DBC085
:1030F800BCF0DCC0BDF0DDC0BEF0DEC0BFF0DFC09C
:10310800C0F0E0C0C1F0E1C0C2F0E2C0C3F0040EFC
:10311800D8900001BC37BD37BE37BF37C037C1377D
:10312800C237C337E82E8CEF18F0BCC0C6F0BDC05C
:10313800C7F0BEC0C8F0BFC0C9F0C0C0CAF0C1C0A7
:10314800CBF0C2C0CCF0C3C0CDF020EEC6F0F00E7C
:10315800DE18C66FFF0EDE18C76FFF0EDE18C86FC9
:10316800FF0EDE18C96FFF0EDE18CA6FFF0EDE18DD
:10317800CB6FFF0EDE18CC6F000EDE18CD6FC6C009
:10318800BCF0C7C0BDF0C8C0BEF0C9C0BFF0CAC05F
:10319800C0F0CBC0C1F0CCC0C2F0CDC0C3F0310E7E
:1031A800DFEF18F0D890C333C233C133C033BF3315
:1031B800BE33BD33BC33E82ED6EF18F0BCC0CEF01A
:1031C800BDC0CFF0BEC0D0F0BFC0D1F0C0C0D2F0FB
:1031D800C1C0D3F0C2C0D4F0C3C0D5F0CE39F00B13
:1031E800F00BEC6F040EBC6FCEC0BDF0CFC0BEF0CC
:1031F800D0C0BFF0D1C0C0F0D2C0C1F0D3C0C2F0BF
:10320800D4C0C3F0D5C0C4F0BC670DEF19F019EFF6
:1032180019F0C435C433C333C233C133C033BF33E9
:10322800BE33BD33BC2F08EF19F00001BD510F0BA1
:10323800ED6FC6C0BCF0C7C0BDF0C8C0BEF0C9C005
:10324800BFF0CAC0C0F0CBC0C1F0CCC0C2F0CDC086
:10325800C3F0290E39EF19F0D890C333C233C13304
:10326800C033BF33BE33BD33BC33E82E30EF19F063
:10327800BCC0CEF0BDC0CFF0BEC0D0F0BFC0D1F052
:10328800C0C0D2F0C1C0D3F0C2C0D4F0C3C0D5F022
:10329800040EBC6FCEC0BDF0CFC0BEF0D0C0BFF032
:1032A800D1C0C0F0D2C0C1F0D3C0C2F0D4C0C3F006
:1032B800D5C0C4F0BC6763EF19F06FEF19F0C435DF
:1032C800C433C333C233C133C033BF33BE33BD335A
:1032D800BC2F5EEF19F00001BD510F0BEC11EC6F24
:1032E800CE39F00BF00B506EC6C0BCF0C7C0BDF0B5
:1032F800C8C0BEF0C9C0BFF0CAC0C0F0CBC0C1F0E2
:10330800CCC0C2F0CDC0C3F0210E94EF19F0D89014
:10331800C333C233C133C033BF33BE33BD33BC3311
:10332800E82E8BEF19F0BCC0CEF0BDC0CFF0BEC008
:10333800D0F0BFC0D1F0C0C0D2F0C1C0D3F0C2C07D
:10334800D4F0C3C0D5F0040EBC6FCEC0BDF0CFC062
:10335800BEF0D0C0BFF0D1C0C0F0D2C0C1F0D3C061
:10336800C2F0D4C0C3F0D5C0C4F0BC67BEEF19F03A
:10337800CAEF19F0C435C433C333C233C133C033C1
:10338800BF33BE33BD33BC2FB9EF19F00001BD51B7
:103398000F0B5010506ECE39F00BF00B4F6EC6C0AD
:1033A800BCF0C7C0BDF0C8C0BEF0C9C0BFF0CAC03D
:1033B800C0F0CBC0C1F0CCC0C2F0CDC0C3F0190E74
:1033C800EFEF19F0D890C333C233C133C033BF33E2
:1033D800BE33BD33BC33E82EE6EF19F0BCC0CEF0E7
:1033E800BDC0CFF0BEC0D0F0BFC0D1F0C0C0D2F0D9
:1033F800C1C0D3F0C2C0D4F0C3C0D5F0040EBC6FB6
:10340800CEC0BDF0CFC0BEF0D0C0BFF0D1C0C0F0BC
:10341800D2C0C1F0D3C0C2F0D4C0C3F0D5C0C4F08C
:10342800BC6719EF1AF025EF1AF0C435C433C3335B
:10343800C233C133C033BF33BE33BD33BC2F14EFE7
:103448001AF00001BD510F0B4F104F6ECE39F00B23
:10345800F00B4E6EC6C0BCF0C7C0BDF0C8C0BEF011
:10346800C9C0BFF0CAC0C0F0CBC0C1F0CCC0C2F068
:10347800CDC0C3F0110E4AEF1AF0D890C333C2334F
:10348800C133C033BF33BE33BD33BC33E82E41EF45
:103498001AF0BCC0CEF0BDC0CFF0BEC0D0F0BFC0E7
:1034A800D1F0C0C0D2F0C1C0D3F0C2C0D4F0C3C004
:1034B800D5F0040EBC6FCEC0BDF0CFC0BEF0D0C0FA
:1034C800BFF0D1C0C0F0D2C0C1F0D3C0C2F0D4C0E8
:1034D800C3F0D5C0C4F0BC6774EF1AF080EF1AF0DF
:1034E800C435C433C333C233C133C033BF33BE332F
:1034F800BD33BC2F6FEF1AF00001BD510F0B4E10FA
:103508004E6ECE39F00BF00B4D6EC6C0BCF0C7C086
:10351800BDF0C8C0BEF0C9C0BFF0CAC0C0F0CBC0C3
:10352800C1F0CCC0C2F0CDC0C3F0BDC0BCF0BEC0BD
:10353800BDF0BFC0BEF0C0C0BFF0C1C0C0F0C2C0C7
:10354800C1F0C3C0C2F0C36BBCC0CEF0BDC0CFF0E9
:10355800BEC0D0F0BFC0D1F0C0C0D2F0C1C0D3F05F
:10356800C2C0D4F0C3C0D5F0040EBC6FCEC0BDF04D
:10357800CFC0BEF0D0C0BFF0D1C0C0F0D2C0C1F043
:10358800D3C0C2F0D4C0C3F0D5C0C4F0BC67CFEF7D
:103598001AF0DBEF1AF0C435C433C333C233C13376
:1035A800C033BF33BE33BD33BC2FCAEF1AF000019E
:1035B800BD510F0B4D104D6ECE39F00BF00B4C6E0C
:1035C800C6C0CEF0C7C0CFF0C8C0D0F0C9C0D1F0D7
:1035D800CAC0D2F0CBC0D3F0CCC0D4F0CDC0D5F0A7
:1035E800040EBC6FCEC0BDF0CFC0BEF0D0C0BFF0DF
:1035F800D1C0C0F0D2C0C1F0D3C0C2F0D4C0C3F0B3
:10360800D5C0C4F0BC670BEF1BF017EF1BF0C43537
:10361800C433C333C233C133C033BF33BE33BD3306
:10362800BC2F06EF1BF00001BD510F0B4C104C6E68
:10363800FBEC45F00001C56FEB51D8B426EF1BF049
:1036480028EF1BF0C4EF1BF0C551D8B42EEF1BF0C8
:1036580030EF1BF038EF1BF08F0EB16FFF0EB26F1B
:1036680031EC48F03EEF1BF0990EB16FFF0EB26FD0
:1036780031EC48F0210E0001B16FFE0EB26FEDC0C3
:10368800B3F0B46B31EC48F0E70E0001B16FFF0EF8
:10369800B26F31EC48F0210E0001B16FFE0EB26F2F
:1036A800ECC0B3F0B46B31EC48F0E70E0001B16F39
:1036B800FF0EB26F31EC48F0210E0001B16FFE0E23
:1036C800B26F50C0B3F0B46B31EC48F0E70E0001B4
:1036D800B16FFF0EB26F31EC48F0210E0001B16FEF
:1036E800FE0EB26F4FC0B3F0B46B31EC48F0E70E8A
:1036F8000001B16FFF0EB26F31EC48F0210E0001EE
:10370800B16FFE0EB26F4EC0B3F0B46B31EC48F03F
:10371800E70E0001B16FFF0EB26F31EC48F0210ED9
:103728000001B16FFE0EB26F4DC0B3F0B46B31EC57
:1037380048F0E70E0001B16FFF0EB26F31EC48F0B0
:10374800210E0001B16FFE0EB26F4CC0B3F0B46B26
:1037580031EC48F0AE0E0001B16FFF0EB26F31ECE4
:1037680048F00001C551D8A4BCEF1BF0BEEF1BF018
:10377800C4EF1BF0D00EB16FFA0EB26F31EC48F007
:103788000001C55112004CEC48F08096808A010176
:10379800986B0F015D6B5C6BD08EF19EF180F2909F
:1037A800F286F28EF294F28A5A89010E4A6E4A50D3
:1037B800D8A4E1EF1BF0E3EF1BF0E7EF1BF0060ED8
:1037C8007D6E820EAF6E4A04D8A4EDEF1BF0EFEFCA
:1037D8001BF0F2EF1BF07D6A440EAF6E920ED56EB1
:1037E800130E0001766FF80E776FFDEC3CF0B60E05
:1037F8000001766FFD0E776FFDEC3CF04B0E00017B
:10380800766FF80E776FFDEC3CF0B60E0001766F20
:10381800FD0E776FFDEC3CF082908CEC3CF08280E2
:10382800010E0001E36F000EE46F000EE56F000E5D
:10383800E66FE651E511E41109E10A0EE35DD8A04F
:1038480028EF1CF02AEF1CF02CEF1CF051EF1CF0B5
:10385800090E0301836F1E0E826FE40EE82EFED759
:10386800822FFCD7832FFAD700008290090E03011C
:10387800836F1E0E826FE40EE82EFED7822FFCD7D0
:10388800832FFAD700008280010E0001E327000E83
:10389800E423E523E6231DEF1CF0EB6B67EC49F00E
:1038A800F28E000E0001736F000E726F66EC48F026
:1038B8000301826F82510001E36FE46BE56BE66BF5
:1038C800210EE319E411E511E611D8B46EEF1CF0EE
:1038D80070EF1CF076EF1CF0240EB16FF70EB26F8C
:1038E80031EC48F0000E0001BC6F000EBD6F000EF9
:1038F800BE6F000EBF6F9AEC32F003010051000159
:10390800E36FE46BE56BE66B030EE319E411E51175
:10391800E611D8B492EF1CF094EF1CF09AEF1CF06B
:10392800620EB16FF70EB26F31EC48F0808681B449
:10393800A0EF1CF0A2EF1CF005EF1DF0150E03011F
:10394800826FC60EE82EFED7822FFCD70000010E2C
:1039580001014827000E49234A234B234B514A11A2
:103968000BE1890E485D130E4959D8A0BEEF1CF033
:10397800C0EF1CF005EF1DF08290000E486F000E9E
:10398800496F000E4A6F000E4B6FC50E0001B16FF4
:10399800F90EB26F31EC48F0010E01016D6F000EA7
:1039A8006C6F280E6C5D010E6D59D8A0DEEF1CF00F
:1039B800E0EF1CF0E2EF1CF0F0EF1CF06CC172F0CD
:1039C8006DC173F0FF0E0001746FA9EC45F00101A1
:1039D8006C4B6D2BD5EF1CF0520E0301836F2B0E31
:1039E800826F000EE82EFED7822FFCD7832FFAD7DE
:1039F8000000828081A403EF1DF005EF1DF0FEEFAB
:103A08001CF001018751D8B40CEF1DF00FEF1DF029
:103A1800010E10EF1DF0000E0301826F836B81B45D
:103A280018EF1DF01BEF1DF0010E1CEF1DF0000E2E
:103A38008217000E831701014B514A11491107E102
:103A4800C90E485DD8B02BEF1DF02EEF1DF0010E0A
:103A58002FEF1DF0000E03018217000E83170101DE
:103A68004B514A110CE1E80E485D030E4959D8A0A4
:103A780040EF1DF043EF1DF0010E44EF1DF0000E66
:103A880003018217000E831782518311D8B44FEFB8
:103A98001DF051EF1DF062EF1DF0500E0101406F57
:103AA800C30E416F000E426F000E436F000E446F4D
:103AB800000E456F000E466F000E476F0101405122
:103AC8004111421143114411451146114711D8B40F
:103AD80070EF1DF072EF1DF0D8EF1DF04007000EDB
:103AE800415B425B435B445B455B465B475B40C174
:103AF80072F041C173F042C174F043C175F044C122
:103B080076F045C177F046C178F047C179F0E80E04
:103B180000017A6F030E7B6F000E7C6F000E7D6FC5
:103B2800000E7E6F000E7F6F000E806F000E816F9B
:103B3800DBEC3DF072C082F373C083F374C084F38E
:103B480075C085F376C086F377C087F378C088F3AD
:103B580079C089F30301825183118411851186117B
:103B6800871188118911D8A4BCEF1DF0BEEF1DF094
:103B7800C7EF1DF082A0C3EF1DF0C6EF1DF08280D5
:103B8800C7EF1DF0829001014051411142114311CC
:103B98004411451146114711D8A4D5EF1DF0D7EFB0
:103BA8001DF0D8EF1DF08280000E81B4010E876FE2
:103BB80081A4E1EF1DF0E3EF1DF0EBEF1DF0000E27
:103BC800486F000E496F000E4A6F000E4B6F8B5105
:103BD800D8A4F1EF1DF0F3EF1DF0F5EF1DF02AEC7E
:103BE8003BF001018551D8B4FCEF1DF0FEEF1DF04C
:103BF80000EF1EF06DEC13F001018B51D8B407EF04
:103C08001EF009EF1EF09BEF1CF08B6BF29E020E6C
:103C18000001EB19D8A413EF1EF015EF1EF017EFF3
:103C28001EF06DEC13F04B04D8A41DEF1EF01FEF2F
:103C38001EF04FEF1EF00001EB51D8B426EF1EF036
:103C480028EF1EF041EF1EF0DBC0BCF0DCC0BDF079
:103C5800DDC0BEF0DEC0BFF0DFC0C0F0E0C0C1F024
:103C6800E1C0C2F0E2C0C3F0B2EC3AF0E60E0001E7
:103C7800B16FFE0EB26F31EC48F07BEC18F0000922
:103C8800D8B449EF1EF04BEF1EF04FEF1EF034ECA6
:103C98002DF0EBEC1EF0020E4B18D8A456EF1EF0D8
:103CA80058EF1EF083EF1EF0DBC038F1DCC039F1AD
:103CB800DDC03AF1DEC03BF1DFC03CF1E0C03DF1D0
:103CC800E1C03EF1E2C03FF1B50E0001B16FFC0E5C
:103CD800B26F31EC48F0DBC0BCF0DCC0BDF0DDC039
:103CE800BEF0DEC0BFF0DFC0C0F0E0C0C1F0E1C090
:103CF800C2F0E2C0C3F08EEC47F0EBEC1EF0040E0D
:103D08004B18D8A48AEF1EF08CEF1EF0B1EF1EF00E
:103D1800F7EC21F0E806D8A494EF1EF096EF1EF019
:103D2800B1EF1EF0C70E0001B16FFC0EB26F31EC9F
:103D380048F038C1BCF039C1BDF03AC1BEF03BC152
:103D4800BFF03CC1C0F03DC1C1F03EC1C2F03FC1AF
:103D5800C3F08EEC47F0EBEC1EF0030E4B18D8A422
:103D6800B8EF1EF0BAEF1EF0C3EF1EF0400E0001D0
:103D7800B16FFF0EB26F31EC48F0CFEC31F0050EA9
:103D88004B18D8A4CAEF1EF0CCEF1EF0D5EF1EF0EA
:103D9800AF0E0001B16FFE0EB26F31EC48F076EC59
:103DA80037F0000E476E000E466E520E0301836F09
:103DB8002B0E826F000EE82EFED7822FFCD7832FA2
:103DC800FAD70000F28E9BEF1CF042EF0CF038C1DE
:103DD80074F039C175F03AC176F03BC177F05FEC09
:103DE8002EF00001D76FA30EB16FFF0EB26FD7C0D0
:103DF800B3F0B46B31EC48F00001D751D8B407EFF9
:103E08001FF009EF1FF06CEF1FF0010E0101826F28
:103E18004B04D8B412EF1FF014EF1FF01DEF1FF082
:103E2800040E4B18D8A41BEF1FF01DEF1FF042EF34
:103E38001FF00001D751020D000EF324D96E010EB8
:103E4800F420DA6E01016851DE5C6951DE58D8A0B1
:103E580030EF1FF033EF1FF0010E34EF1FF0000EAC
:103E6800826F0001D751020D000EF324D96E010EA6
:103E7800F420DA6E68C1DEFF69C1DDFF01018251FD
:103E8800D8B449EF1FF04BEF1FF065EF1FF0D10ECC
:103E98000001B16FFF0EB26F31EC48F0809A82904A
:103EA800520E0001C96F2B0EC86F000EE82EFED708
:103EB800C82FFCD7C92FFAD70000808A82806CEF00
:103EC8001FF01D0E0001B16FFC0EB26F31EC48F00F
:103ED800D00E0001B16FFA0EB26F31EC48F001015B
:103EE80040514111421143114411451146114711E6
:103EF800D8B481EF1FF083EF1FF0F6EF21F021EE29
:103F080040F0070EDE6AE806FDE20001D751D8A4AA
:103F180090EF1FF092EF1FF0EDEF21F0000EE36F2E
:103F2800000EE46F000EE56F000EE66FE3C0C8F008
:103F3800E4C0C9F0D890C837C937D890C837C9374E
:103F4800000EC825726F010EC921736F66EC48F028
:103F58000001CA6FCA51D36FD46BD56BD66BE3C05F
:103F6800C8F0E4C0C9F0D890C837C937D890C83766
:103F7800C937010EC825726F010EC921736F66EC2F
:103F880048F00001CA6FCAC0CBF0CC6BCD6BCE6BCA
:103F9800CDC0CEF0CCC0CDF0CBC0CCF0CB6BD351E4
:103FA800CB25D36FD451CC21D46FD551CD21D56F2A
:103FB800D651CE21D66FE3C0C8F0E4C0C9F0D8907E
:103FC800C837C937D890C837C937020EC825726FA5
:103FD800010EC921736F66EC48F00001CA6FCAC0B0
:103FE800CBF0CC6BCD6BCE6BCCC0CEF0CBC0CDF0D4
:103FF800CC6BCB6BD351CB25D36FD451CC21D46FA1
:10400800D551CD21D56FD651CE21D66FE3C0C8F09A
:10401800E4C0C9F0D890C837C937D890C837C9376D
:10402800030EC825726F010EC921736F66EC48F044
:104038000001CA6FCAC0CBF0CC6BCD6BCE6BCBC0C6
:10404800CEF0CD6BCC6BCB6BD351CB25D36FD4518A
:10405800CC21D46FD551CD21D56FD651CE21D66F75
:10406800010EE327000EE423E523E623D3290CE120
:10407800D4290AE1D52908E1D629D8B446EF20F099
:1040880048EF20F055EF20F0E651E511E41109E181
:10409800140EE35DD8A053EF20F055EF20F09AEF0F
:1040A8001FF0E307000EE45BE55BE65BE651E51114
:1040B800E41109E1150EE35DD8A065EF20F067EF84
:1040C80020F06FEF20F01E0EB16FFD0EB26F31ECD5
:1040D80048F0F6EF21F0E3C0C8F0E4C0C9F0D8908A
:1040E800C837C937D890C837C937000EC825726F86
:1040F800010EC921736F38C174F0A9EC45F0E3C013
:10410800C8F0E4C0C9F00001D890C837C937D890C2
:10411800C837C937010EC825726F010EC921736FE0
:1041280038C1CAF039C1CBF03AC1CCF03BC1CDF0AF
:104138003CC1CEF03DC1CFF03EC1D0F03FC1D1F07F
:10414800CBC0CAF0CCC0CBF0CDC0CCF0CEC0CDF047
:10415800CFC0CEF0D0C0CFF0D1C0D0F0D16BCA5113
:10416800746FA9EC45F0E3C0C8F0E4C0C9F00001E1
:10417800D890C837C937D890C837C937020EC8256C
:10418800726F010EC921736F38C1CAF039C1CBF003
:104198003AC1CCF03BC1CDF03CC1CEF03DC1CFF02F
:1041A8003EC1D0F03FC1D1F0110EE4EF20F0D8901D
:1041B800D133D033CF33CE33CD33CC33CB33CA33F3
:1041C800E82EDBEF20F0CA51746FA9EC45F04B04E0
:1041D800D8A4F1EF20F0F3EF20F02FEF21F0E3C0A7
:1041E800C8F0E4C0C9F00001D890C837C937D890E2
:1041F800C837C937030EC825726F010EC921736FFE
:104208008FC1CAF0CA3BF00ECA1738C1CBF039C10A
:10421800CCF03AC1CDF03BC1CEF03CC1CFF03DC1AE
:10422800D0F03EC1D1F03FC1D2F0190E25EF21F0F8
:10423800D890D233D133D033CF33CE33CD33CC3300
:10424800CB33E82E1CEF21F0CB51CA11746FA9ECC7
:1042580045F063EF21F0E3C0C8F0E4C0C9F0000105
:10426800D890C837C937D890C837C937030EC8257A
:10427800726F010EC921736F38C1CAF039C1CBF012
:104288003AC1CCF03BC1CDF03CC1CEF03DC1CFF03E
:104298003EC1D0F03FC1D1F0190E5CEF21F0D890AB
:1042A800D133D033CF33CE33CD33CC33CB33CA3302
:1042B800E82E53EF21F0CA51746FA9EC45F0A80E0F
:1042C8000001B16FFD0EB26F31EC48F038C1BCF09F
:1042D80039C1BDF03AC1BEF03BC1BFF03CC1C0F02E
:1042E8003DC1C1F03EC1C2F03FC1C3F08EEC47F002
:1042F800300E0001B16FFE0EB26F31EC48F0000EC7
:104308000001E36F000EE46F000EE56F000EE66F2C
:10431800E651E511E41109E10A0EE35DD8A097EF33
:1043280021F099EF21F09BEF21F0BEEF21F0050E6F
:104338000001C96F0F0EC86FF10EE82EFED7C82F07
:10434800FCD7C92FFAD78290050E0001C96F0F0E4E
:10435800C86FF10EE82EFED7C82FFCD7C92FFAD7A1
:104368008280010E0001E327000EE423E523E62303
:104378008CEF21F038C174F039C175F03AC176F08C
:104388003BC177F05FEC2EF00001D76FD751D8B45E
:10439800D0EF21F0D2EF21F0DEEF21F0D751020D5E
:1043A800000EF324D96E010EF420DA6E68C1DEFF28
:1043B80069C1DDFF520E0001C96F2B0EC86F000ED8
:1043C800E82EFED7C82FFCD7C92FFAD70000F6EF82
:1043D80021F082809D0EB16FFA0EB26F31EC48F079
:1043E800DEEF21F012000001EB05D8A4FEEF21F06A
:1043F80000EF22F019EF22F0DBC0BCF0DCC0BDF00A
:10440800DDC0BEF0DEC0BFF0DFC0C0F0E0C0C1F06C
:10441800E1C0C2F0E2C0C3F0B2EC3AF0D00E000145
:10442800B16FFA0EB26F31EC48F0E1C0EDF0E0C0C8
:10443800ECF0DBC0C3F1DCC0C4F1DDC0C5F1DEC007
:10444800C6F1DFC0C7F1E0C0C8F1E1C0C9F1E2C000
:10445800CAF1210E3AEF22F00101D890CA33C933CC
:10446800C833C733C633C533C433C333E82E30EF3C
:1044780022F0C351506EDBC0C3F1DCC0C4F1DDC013
:10448800C5F1DEC0C6F1DFC0C7F1E0C0C8F1E1C0C8
:10449800C9F1E2C0CAF1190E5BEF22F0D890CA3315
:1044A800C933C833C733C633C533C433C333E82E1F
:1044B80052EF22F0C3514F6EDBC0C3F1DCC0C4F130
:1044C800DDC0C5F1DEC0C6F1DFC0C7F1E0C0C8F18C
:1044D800E1C0C9F1E2C0CAF1110E7CEF22F0D89018
:1044E800CA33C933C833C733C633C533C433C333F8
:1044F800E82E73EF22F0C3514E6EDBC0C3F1DCC06F
:10450800C4F1DDC0C5F1DEC0C6F1DFC0C7F1E0C04F
:10451800C8F1E1C0C9F1E2C0CAF1C4C1C3F1C5C163
:10452800C4F1C6C1C5F1C7C1C6F1C8C1C7F1C9C187
:10453800C8F1CAC1C9F1CA6BC3514D6EDBC04CF09A
:104548004C504D184C6E4D504E184D6E4E504F18E5
:104558004E6E4F5050184F6E50500001EC19506E6F
:10456800EC51ED19EC6FEB05D8A4BDEF22F0BFEFCD
:1045780022F00BEF23F0D00EB16FFD0EB26F31ECCD
:1045880048F0000E0001B16FFF0EB26FEDC0B3F03E
:10459800B46B31EC48F0080E0001B16FFF0EB26F3A
:1045A800ECC0B3F0B46B31EC48F0100E0001B16F01
:1045B800FF0EB26F50C0B3F0B46B31EC48F0180E78
:1045C8000001B16FFF0EB26F4FC0B3F0B46B31ECA6
:1045D80048F0200E0001B16FFF0EB26F4EC0B3F06D
:1045E800B46B31EC48F0280E0001B16FFF0EB26FCA
:1045F8004DC0B3F0B46B31EC48F0300E0001B16F30
:10460800FF0EB26F4CC0B3F0B46B31EC48F0000150
:10461800ED390F0BED19D46FEC390F0BD419EC19D8
:10462800D46F50380F0BD4195018D46F4F380F0B64
:10463800D4194F18D46F4E380F0BD4194E18D46FA5
:104648004D380F0BD4194D18D46F4C380F0BD419A3
:104658004C18D46FD4510F0BD46FEC390F0B0F0BD0
:1046680001018F6F5050C46FC36B4F50C325686FE3
:10467800000EC421696F4EC0C3F1C46BC56BC66B15
:10468800C76BC86BC96BCA6BC8C1CAF1C7C1C9F1CE
:10469800C6C1C8F1C5C1C7F1C4C1C6F1C3C1C5F11E
:1046A800C46BC36BC3C138F1C4C139F1C5C13AF198
:1046B800C6C13BF1C7C13CF1C8C13DF1C9C13EF11A
:1046C800CAC13FF14DC0C3F1C46BC56BC66BC76BA4
:1046D800C86BC96BCA6BC9C1CAF1C8C1C9F1C7C126
:1046E800C8F1C6C1C7F1C5C1C6F1C4C1C5F1C3C1CE
:1046F800C4F1C36B3851C311386F3951C411396FC4
:104708003A51C5113A6F3B51C6113B6F3C51C71125
:104718003C6F3D51C8113D6F3E51C9113E6F3F512D
:10472800CA113F6F4C503825386F000E3921396F48
:10473800000E3A213A6F000E3B213B6F000E3C21E0
:104748003C6F000E3D213D6F000E3E213E6F000E76
:104758003F213F6F0001EB05D8A4B5EF23F0B7EF79
:1047680023F04DEF24F0180EB16FFE0EB26FD4C0D7
:10477800B3F0B46B31EC48F00001D451D8B4C7EFB2
:1047880023F0C9EF23F0CFEF23F0500EB16FFF0EE7
:10479800B26F31EC48F0D00E0001B16FFA0EB26F73
:1047A80031EC48F0240E0001B16FFE0EB26FEDC07F
:1047B800B3F0B46B31EC48F00001ED51F00BA00AF6
:1047C800D8B4E9EF23F0EBEF23F0F1EF23F07D0EFF
:1047D800B16FFE0EB26F31EC48F0D00E0001B16F30
:1047E800FA0EB26F31EC48F02E0E0001B16FFD0EDB
:1047F800B26FEDC0C3F10F0E0101C317C351000121
:10480800B36FB46B31EC48F0E80E0001B16FFD0EE8
:10481800B26F8FC1B3F0B46B31EC48F0D60E000123
:10482800B16FFE0EB26FECC0C3F10F0E0101C317DA
:10483800C3510001B36FB46B31EC48F0F40E0001C2
:10484800B16FFD0EB26F68C1B3F069C1B4F031EC5D
:1048580048F0C30E0001B16FFE0EB26F31EC48F0A4
:1048680038C1BCF039C1BDF03AC1BEF03BC1BFF0A0
:104878003CC1C0F03DC1C1F03EC1C2F03FC1C3F070
:104888008EEC47F0D00E0001B16FFA0EB26F31EC2A
:1048980048F00001D451D8B454EF24F057EF24F075
:1048A800010E58EF24F0000E120000019E51D96E3F
:1048B800DA6ADECFF6FFDDCFF7FFF86A0800F550B9
:1048C800250AD8A46AEF24F06CEF24F09AEF26F0BA
:1048D8009E51D96EDA6ADE2A000EDD22000E010131
:1048E800596F000E586F58C148F05A695B6900014A
:1048F800A36B9CEF24F048829E51D96EDA6ADE2AB7
:10490800000EDD229CEF24F0010EA36F9CEF24F033
:104918009E51D96EDA6ADECFF6FFDDCFF7FFF86A6F
:104928000800F550300AD8B47FEF24F088EF24F05F
:10493800A351D8B4A2EF24F0A4EF24F08CEF24F014
:104948009EC072F09FC073F092EC40F072C058F1B4
:1049580073C059F1010159BFB6EF24F0B4EF24F048
:10496800BBEF24F04880586D591FD8B0592B00016F
:104978009E51D96EDA6ADECFA9F0DDCFAAF0A9C0C0
:10498800F6FFAAC0F7FFF86A0800F5CFA8F0D8EF3D
:1049980024F0A94BAA2BF3EF24F0690EA86FF3EFCC
:1049A80024F0A86BF3EF24F0A851580AD8B4D1EF3B
:1049B80024F03C0AD8B4D1EF24F00D0AD8B4D1EFD2
:1049C80024F0050AD8B4CDEF24F0190AD8B4D1EFF1
:1049D80024F00D0AD8B4D1EF24F0D5EF24F0A9C003
:1049E800F6FFAAC0F7FFF86A0800F550640AD8B4C1
:1049F80000EF25F002EF25F03AEF25F0A9C0F6FF09
:104A0800AAC0F7FFF86A0800F550690AD8A40FEFA2
:104A180025F011EF25F060EF25F03AEF25F09FC063
:104A2800D9FFA0C0DAFFDF50DF2ADF2AD96EDA6AA1
:104A3800DECFA4F0DDCFA5F0000EA5BFFF0EA66F58
:104A4800A76F45EF25F09FC0D9FFA0C0DAFF040E7D
:104A5800DF26DF5CD96EDA6ADECFA4F0DECFA5F000
:104A6800DECFA6F0DECFA7F045EF25F0A851690A02
:104A7800D8B413EF25F0050AD8B427EF25F045EF91
:104A880025F0010EA925A16F000EAA21A26F9E5143
:104A9800D96EDA6AA1C0DEFFA2C0DDFF9DC08AF030
:104AA800A4C08BF0A5C08CF0A6C08DF0A7C08EF076
:104AB8002EEC30F0ACEF26F0A9C0F6FFAAC0F7FF45
:104AC800F86A0800F550780AD8B46DEF25F06FEF52
:104AD80025F0B7EF25F0A9C0F6FFAAC0F7FFF86ADE
:104AE8000800F550580AD8B47CEF25F07EEF25F081
:104AF800B7EF25F0A9C0F6FFAAC0F7FFF86A0800CB
:104B0800F550750AD8A48BEF25F08DEF25F00AEF44
:104B180026F0B7EF25F09FC0D9FFA0C0DAFFDF501D
:104B2800DF2ADF2AD96EDA6ADECFA1F0DDCFA2F064
:104B3800A1C0A4F0A2C0A5F0A66BA76BC2EF25F098
:104B48009FC0D9FFA0C0DAFF040EDF26DF5CD96E54
:104B5800DA6ADECFA4F0DECFA5F0DECFA6F0DECF96
:104B6800A7F0C2EF25F0A851690AD8B48FEF25F055
:104B7800050AD8B4A4EF25F0C2EF25F0010EA92547
:104B8800A16F000EAA21A26F9E51D96EDA6AA1C048
:104B9800DEFFA2C0DDFFF5EF25F09DC08AF0A4C0BE
:104BA8008BF0A5C08CF0A6C08DF0A7C08EF092EC5B
:104BB80038F0ACEF26F09DC08AF0A4C08BF0A5C0F9
:104BC8008CF0A6C08DF0A7C08EF0A9C0F6FFAAC0D1
:104BD800F7FFF86A0800F5CF8FF02EEC36F0ACEF4F
:104BE80026F0A9C0F6FFAAC0F7FFF86A0800F5503A
:104BF800580AD8B4DFEF25F02D0AD8B4D1EF25F044
:104C08000D0AD8B4DFEF25F00AEF26F0A36B9E510A
:104C1800D96EDA6ADECFF6FFDDCFF7FFF86A080053
:104C2800F550730AD8A41BEF26F01DEF26F027EFE6
:104C380026F09E51D96EDA6ADE2A000EDD22010EB8
:104C4800A36F76EF26F09E51D96EDA6ADECFF6FFB3
:104C5800DDCFF7FFF86A0800F5506C0AD8A437EFE3
:104C680026F039EF26F076EF26F09E51D96EDA6AF3
:104C7800DECFA1F0DDCFA2F0010EA127000EA22306
:104C8800A1C0F6FFA2C0F7FFF86A0800F5506C0A49
:104C9800D8A451EF26F053EF26F076EF26F09E5178
:104CA800D96EDA6ADECFA1F0DDCFA2F0020EA1271D
:104CB800000EA223A1C0F6FFA2C0F7FFF86A080001
:104CC800F550730AD8A46BEF26F06DEF26F076EF57
:104CD80026F09E51D96EDA6A030EDE26000EDD221A
:104CE80023EF26F0A351D8B47CEF26F07EEF26F010
:104CF80091EF26F09DC07CF09FC0D9FFA0C0DAFFDD
:104D0800020EDF26DF5CD96EDA6ADECF7DF0DECFF9
:104D18007EF020EC34F0ACEF26F000019E51D96E05
:104D2800DA6ADE2A000EDD22ACEF26F09E51D96E3B
:104D3800DA6ADECFF6FFDDCFF7FFF86A0800F55034
:104D4800746F756B9DC076F0D7EC3FF091EF26F04D
:104D580012002D50D96EDA6ADECFF6FFDDCFF7FFED
:104D6800F86A0800F550250AD8A4BDEF26F0BFEF71
:104D780026F0E5EF28F02D50D96EDA6ADE2A000E0B
:104D8800DD22000E0101596F000E586F58C148F01E
:104D98005A695B69316AEEEF26F048822D50D96E68
:104DA800DA6ADE2A000EDD22EEEF26F0010E316E01
:104DB800EEEF26F02D50D96EDA6ADECFF6FFDDCFA2
:104DC800F7FFF86A0800F550300AD8B4D1EF26F09A
:104DD800DAEF26F03150D8B4F4EF26F0F6EF26F0EB
:104DE800DEEF26F02DC001F02EC002F043EC41F0BA
:104DF80001C058F102C059F1010159BF08EF27F06D
:104E080006EF27F00DEF27F04880586D591FD8B0EE
:104E1800592B2D50D96EDA6ADECF37F0DDCF38F056
:104E280037C0F6FF38C0F7FFF86A0800F5CF36F04C
:104E380029EF27F0374A382A44EF27F0690E366EF3
:104E480044EF27F0366A44EF27F03650580AD8B4B2
:104E580022EF27F03C0AD8B422EF27F00D0AD8B485
:104E680022EF27F0050AD8B41EEF27F0190AD8B4A4
:104E780022EF27F00D0AD8B422EF27F026EF27F00B
:104E880037C0F6FF38C0F7FFF86A0800F550640A23
:104E9800D8B451EF27F053EF27F089EF27F037C048
:104EA800F6FF38C0F7FFF86A0800F550690AD8A479
:104EB80060EF27F062EF27F0AFEF27F089EF27F0D8
:104EC8002E50D96EDA6ADF50DF2ADF2AD96EDA6A05
:104ED800DECF32F0DDCF33F0000E33BEFF0E346E7E
:104EE800356E94EF27F02E50D96EDA6A040EDF265D
:104EF800DF5CD96EDA6ADECF32F0DECF33F0DECF98
:104F080034F0DECF35F094EF27F03650690AD8B484
:104F180064EF27F0050AD8B477EF27F094EF27F06D
:104F2800010E37242F6E000E3820306E2D50D96EAA
:104F3800DA6A2FC0DEFF30C0DDFF2CC019F032C0A6
:104F48001AF033C01BF034C01CF035C01DF000EC63
:104F580031F0F7EF28F037C0F6FF38C0F7FFF86AEE
:104F68000800F550780AD8B4BCEF27F0BEEF27F058
:104F780004EF28F037C0F6FF38C0F7FFF86A0800DA
:104F8800F550580AD8B4CBEF27F0CDEF27F004EF4F
:104F980028F037C0F6FF38C0F7FFF86A0800F55068
:104FA800750AD8A4DAEF27F0DCEF27F057EF28F0DE
:104FB80004EF28F02E50D96EDA6ADF50DF2ADF2A94
:104FC800D96EDA6ADECF2FF0DDCF30F02FC032F0A5
:104FD80030C033F0346A356A0FEF28F02E50D96E9E
:104FE800DA6A040EDF26DF5CD96EDA6ADECF32F0C9
:104FF800DECF33F0DECF34F0DECF35F00FEF28F020
:105008003650690AD8B4DEEF27F0050AD8B4F2EFB3
:1050180027F00FEF28F0010E37242F6E000E3820EE
:10502800306E2D50D96EDA6A2FC0DEFF30C0DDFF3A
:1050380042EF28F02CC019F032C01AF033C01BF030
:1050480034C01CF035C01DF01EEC39F0F7EF28F025
:105058002CC019F032C01AF033C01BF034C01CF059
:1050680035C01DF037C0F6FF38C0F7FFF86A0800F2
:10507800F5CF1EF0D3EC36F0F7EF28F037C0F6FF87
:1050880038C0F7FFF86A0800F550580AD8B42CEF72
:1050980028F02D0AD8B41EEF28F00D0AD8B42CEF4A
:1050A80028F057EF28F0316A2D50D96EDA6ADECF32
:1050B800F6FFDDCFF7FFF86A0800F550730AD8A4A9
:1050C80068EF28F06AEF28F074EF28F02D50D96EB9
:1050D800DA6ADE2A000EDD22010E316EC3EF28F0F7
:1050E8002D50D96EDA6ADECFF6FFDDCFF7FFF86A0A
:1050F8000800F5506C0AD8A484EF28F086EF28F051
:10510800C3EF28F02D50D96EDA6ADECF2FF0DDCF4D
:1051180030F0010E2F26000E30222FC0F6FF30C0CF
:10512800F7FFF86A0800F5506C0AD8A49EEF28F03B
:10513800A0EF28F0C3EF28F02D50D96EDA6ADECF41
:105148002FF0DDCF30F0020E2F26000E30222FC0B8
:10515800F6FF30C0F7FFF86A0800F550730AD8A4C4
:10516800B8EF28F0BAEF28F0C3EF28F02D50D96E29
:10517800DA6A030EDE26000EDD2270EF28F03150C9
:10518800D8B4C9EF28F0CBEF28F0DDEF28F02CC019
:105198000BF02E50D96EDA6A020EDF26DF5CD96E6C
:1051A800DA6ADECF0CF0DECF0DF0D7EC34F0F7EF93
:1051B80028F02D50D96EDA6ADE2A000EDD22F7EFCC
:1051C80028F02D50D96EDA6ADECFF6FFDDCFF7FF73
:1051D800F86A0800F550036E046A2CC005F035EC37
:1051E80040F0DDEF28F01200000E0001B16F000E54
:1051F800B06F84518511D8A404EF29F006EF29F087
:1052080008EF29F078EF2AF07CC086F0010E8617A7
:105218007CC087F07DC088F07EC089F07FC08AF0AE
:1052280080C08BF081C08CF082C08DF083C08EF07E
:1052380088C087F089C088F08AC089F08BC08AF05E
:105248008CC08BF08DC08CF08EC08DF08E6B010EF3
:105258008717D89087358F6F7CC090F07DC091F00C
:105268007EC092F07FC093F080C094F081C095F02A
:1052780082C096F083C097F0140E4CEF29F0D890B6
:1052880097339633953394339333923391339033E2
:10529800E82E43EF29F0010E9017D8909037D89058
:1052A80090377CC098F07DC099F07EC09AF07FC09E
:1052B8009BF080C09CF081C09DF082C09EF083C0AE
:1052C8009FF01A0E71EF29F0D8909F339E339D33CB
:1052D8009C339B339A3399339833E82E68EF29F03F
:1052E800010E9817D8909837D8909837D890983753
:1052F8007CC0A0F07DC0A1F07EC0A2F07FC0A3F06A
:1053080080C0A4F081C0A5F082C0A6F083C0A7F039
:105318001F0E98EF29F0D890A733A633A533A433EE
:10532800A333A233A133A033E82E8FEF29F0010E67
:10533800A017A039F00B981190118F118611AD6F3D
:10534800AD5129EC47F00001AC6FB0510F083F0B8D
:10535800AF6FAFC086F0070E8617AFC072F0736BE1
:10536800000E756F080E746F75EC3FF000017251F6
:105378007A25D96E73517B21DA6EDF50876F862BC1
:10538800C8EF29F0D8908733862FC6EF29F000019F
:105398008751AE6F7CC086F07DC087F07EC088F0F4
:1053A8007FC089F080C08AF081C08BF082C08CF009
:1053B80083C08DF0100EEAEF29F0D8908D338C332E
:1053C8008B338A338933883387338633E82EE1EF8A
:1053D80029F07CC08EF07DC08FF07EC090F07FC039
:1053E80091F080C092F081C093F082C094F083C0A5
:1053F80095F0200E09EF2AF0D89095339433933323
:105408009233913390338F338E33E82E00EF2AF0A6
:10541800AEC096F0976B986B996B8E5196199A6FF0
:105428008F5197199B6F905198199C6F91519919A9
:105438009D6F86519A199E6F87519B199F6F88514E
:105448009C19A06F89519D19A16FAC519E19A86F25
:105458009F51A96FA051AA6FA151AB6F010EA8155A
:10546800866F000EA915876F000EAA15886F000EAB
:10547800AB15896F8A6B8B6B8C6B8D6BD8907C3579
:105488008E6F7D358F6F7E35906F7F35916F80354C
:10549800926F8135936F8235946F8335956F8651FE
:1054A8008E117C6F87518F117D6F885190117E6F9F
:1054B800895191117F6F8A519211806F8B5193118D
:1054C800816F8C519411826F8D519511836FB04B00
:1054D800B12B8451B05D8551B159D8A076EF2AF02F
:1054E80078EF2AF008EF29F01200010E00018E6F04
:1054F8008280000E8D6F000E8C6F0101916B906B96
:10550800F29E290E0001896F960E886F7F0EE82E95
:10551800FED7882FFCD7892FFAD7000E01014C6FD0
:10552800000E4D6F000E4E6F000E4F6F91C18FF041
:1055380000018E51D8B4A3EF2AF0A5EF2AF0ABEF03
:105548002AF044EC3EF00001906FAFEF2AF011EC26
:105558003FF00001906F8E6B01019951D8B4B7EFFD
:105568002AF0B9EF2AF0BEEF2AF0010EDFEC48F07E
:10557800E9EF2BF000019005D8B4C5EF2AF0C7EF8A
:105588002AF0DEEF2AF0040E9019D8B4CEEF2AF0F4
:10559800D0EF2AF0DEEF2AF0170E9019D8B4D7EF23
:1055A8002AF0D9EF2AF0DEEF2AF0020EDFEC48F0FD
:1055B800E9EF2BF09005D8A4E4EF2AF0E6EF2AF003
:1055C800C7EF2BF011EC3FF00101916F9951D8B45E
:1055D800F0EF2AF0F2EF2AF0F7EF2AF0040EDFECF2
:1055E80048F0E9EF2BF000018F29D8A4FEEF2AF04C
:1055F80000EF2BF001EF2BF08F6911EC3FF0010168
:10560800906F9951D8B40BEF2BF00DEF2BF012EFF0
:105618002BF0050EDFEC48F0E9EF2BF09051FF0A74
:105628009119D8B41AEF2BF01CEF2BF021EF2BF0C7
:10563800150E71EC44F09CEF2AF0010E0001E36FA7
:10564800000EE46F000EE56F000EE66F4DEF2BF0D5
:1056580011EC3FF00001906F01019951D8B437EF78
:105668002BF039EF2BF03EEF2BF0060EDFEC48F075
:10567800E9EF2BF0000E0001E325D96E050EE421B9
:10568800DA6E90C0DFFF010EE327000EE423E52366
:10569800E623E651E511E41109E1830EE35DD8A0A4
:1056A80058EF2BF05AEF2BF02CEF2BF0000E736F06
:1056B800800E726F8BEC42F072C06CF173C06DF1AA
:1056C800050181510001896F886B05018251000134
:1056D800882501016A6F0501000E00018921010179
:1056E8006B6F6A516C1909E16B516D19D8B47FEF72
:1056F8002BF081EF2BF086EF2BF0070EDFEC48F054
:10570800E9EF2BF0000186058711D8A48EEF2BF066
:1057180090EF2BF0ABEF2BF04CC188F04DC189F026
:105728004EC18AF04FC18BF0070ED8908837893761
:105738008A378B37E82E99EF2BF088C07AF089C02A
:105748007BF08AC07CF08BC07DF050EC2FF0020E0D
:10575800000186198711D8A4B4EF2BF0B6EF2BF00F
:10576800C7EF2BF04CC188F04DC189F0070ED890D7
:1057780088378937E82EBBEF2BF088C076F089C0D0
:1057880077F0E8EC44F0010E01014C27000E4D23A0
:105798004E234F23060E71EC44F082A0D6EF2BF077
:1057A800D9EF2BF08280DAEF2BF0829001014F5174
:1057B8004E1109E1040E4D5DD8A0E5EF2BF0E7EF9F
:1057C8002BF09AEF2AF0F28E8290120072C0CBF082
:1057D80073C0CCF074C0CDF075C0CEF0000E0001DF
:1057E800C76F000EC86F000EC96F000ECA6FCBC01E
:1057F80082F0010E8217CC51010B020DF3CF83F01A
:10580800CBC084F0CCC085F0CDC086F0CEC087F088
:10581800140E14EF2CF0D8908733863385338433F5
:10582800E82E0FEF2CF08451010B040DF3CF88F014
:10583800CBC089F0CCC08AF0CDC08BF0CEC08CF044
:105848001A0E2CEF2CF0D8908C338B338A33893393
:10585800E82E27EF2CF08951010B080DF3CF8DF0BE
:10586800CBC08EF0CCC08FF0CDC090F0CEC091F000
:105878001F0E44EF2CF0D890913390338F338E3332
:10588800E82E3FEF2CF08E51010B100DF3508D25B3
:10589800882583258225926F2E0E936F740E946F40
:1058A8005C0E956F3A0E966F92675DEF2CF065EF80
:1058B8002CF096359633953394339333922F58EFD3
:1058C8002CF0010E00019315976F000E9415986F38
:1058D800000E9515996F000E96159A6FC7510F080F
:1058E8003F0B7AC09BF07BC09CF07CC09DF07DC0D4
:1058F8009EF07EC09FF07FC0A0F080C0A1F081C064
:10590800A2F0E82A91EF2CF0D890A233A133A0336B
:105918009F339E339D339C339B33E82E88EF2CF0C6
:10592800010E9B15A36F000E9C15A46F000E9D150C
:10593800A56F000E9E15A66FCBC0A7F0CCC0A8F02F
:10594800CDC0A9F0CEC0AAF0100EB0EF2CF0D890C0
:10595800AA33A933A833A733E82EABEF2CF0010EF6
:10596800A715AB6F000EA815AC6F000EA915AD6F8B
:10597800000EAA15AE6FCBC0AFF0CCC0B0F0CDC052
:10598800B1F0CEC0B2F0200ECFEF2CF0D890B233E9
:10599800B133B033AF33E82ECAEF2CF0010EAF1598
:1059A800B36F000EB015B46F000EB115B56F000ED1
:1059B800B215B66FD890CB35B76FCC35B86FCD353B
:1059C800B96FCE35BA6FB351B719BB6FB451B819A7
:1059D800BC6FB551B919BD6FB651BA19BE6FAB518D
:1059E800BB19BF6FAC51BC19C06FAD51BD19C16FA8
:1059F800AE51BE19C26FA351BF19C36FA451C019CC
:105A0800C46FA551C119C56FA651C219C66F975168
:105A1800C319CB6F9851C419CC6F9951C519CD6F63
:105A28009A51C619CE6F010EC727000EC823C92385
:105A3800CA23CA51C9110BE1100EC75D020EC8591D
:105A4800D8A029EF2DF02BEF2DF0FBEF2BF0CBC0DA
:105A580072F0CCC073F0CDC074F0CEC075F01200F7
:105A680050500101D06FCF6B4F50CF25DF6F000E24
:105A7800D021E06F000E696F000E686FDFC1C3F1BF
:105A8800E0C1C4F186EC35F0C3C168F1C4C169F165
:105A9800010168510001726F736B66EC48F00101F7
:105AA800E16FE151DF19E16F0001EC510101E119EA
:105AB8000F0BDB6F4E50E119DC6F4D50E119DD6FB4
:105AC8004C50E119DE6F21EE38F0070EDE6AE80669
:105AD800FDE2DE513825386F000E3921396F000E8E
